:020000040800F2
:1000000000000220614500086545000859450008C8
:10001000694500086D4500087145000800000000B2
:10002000000000000000000000000000754500080E
:1000300079450008000000007D4500088145000862
:1000400085450008894500088D4500089145000850
:1000500095450008994500089D450008A145000800
:10006000A5450008A9450008AD450008B1450008B0
:10007000B5450008B9450008BD450008C145000860
:10008000C5450008C9450008CD450008D145000810
:10009000D5450008D9450008DD450008E1450008C0
:1000A000E5450008E9450008ED450008F145000870
:1000B000F5450008F9450008FD450008014600081F
:1000C00005460008094600080D46000811460008CC
:1000D00015460008194600081D460008214600087C
:1000E00025460008294600082D460008314600082C
:1000F00035460008394600083D46000841460008DC
:1001000045460008494600084D460008514600088B
:1001100055460008594600085D460008614600083B
:1001200065460008694600086D46000871460008EB
:1001300075460008794600087D460008814600089B
:1001400085460008894600088D460008914600084B
:1001500095460008994600089D460008A1460008FB
:10016000A5460008A9460008AD460008B1460008AB
:10017000B5460008B9460008BD460008C14600085B
:10018000C5460008C9460008E90800083C090008FF
:100190000700000090300008FC080008290900084A
:1001A00008000000E90800089C01000890300008E1
:1001B000982F00089C01000890300008A01C00083F
:1001C000B00F0008341E0008F8280008782700083F
:1001D000741C0008A01E00083C090008FCFFFFFF7B
:1001E000A00F00080C1E0008E82D0008B00F000842
:1001F0000C1E0008FC080008E90800085C0700085D
:1002000000000000A0BB0120FC080008E90800086D
:100210005C07000800000000A4BB0120FC080008E7
:10022000E9080008180D0008680F00087C1E000887
:10023000181A0008340D0008FC080008E908000836
:10024000680F0008341E0008A01C0008982700084A
:10025000482900089C0A0008180000003C09000812
:100260006200000090300008541C0008FC080008E0
:100270003C0900080A000000482900089C0A000800
:10028000140000003C0900086400000090300008E1
:10029000FC0800083C0900086800000090300008D5
:1002A000FC080008E90800084C2600087827000828
:1002B000B02500083C020008FC080008E908000816
:1002C0007827000878270008B02500083C020008BD
:1002D000FC080008E9080008180D0008A01C000828
:1002E000680F00087C1E00083C0900080A00000096
:1002F000482900089C0A000810000000A402000819
:10030000840A000808000000BC020008982F0008BA
:10031000340D0008FC08000829090008ACBB0120C6
:1003200029090008B0BB012029090008D4BB01201D
:1003300029090008DCBB0120E90800083C09000885
:10034000E2400008801700083C3000089C180008B4
:10035000E9080008540F00080C1E0008FC080008FB
:10036000E908000868100008E40F00087C1E000877
:10037000B827000850030008FC080008E908000836
:10038000900F0008341E0008142A00083C090008D9
:100390009F410008D8120008FC080008E90800087E
:1003A000900F0008341E00083C090008B8410008FE
:1003B000D8120008FC080008E908000820290008F5
:1003C0003C09000873410008D8120008FC08000826
:1003D000E9080008501B000818030008341E000834
:1003E000741C0008BC2900083C0900085B41000897
:1003F000D8120008FC080008E9080008B41B00082F
:10040000A01C00085C1700083C3000085C170008BE
:10041000F828000838100008F81B0008FC0800083D
:10042000E9080008D00F00083C0900085E00000041
:100430000C1600085C07000801000000A0BB0120AA
:10044000FC080008E9080008E8260008A01C0008CD
:10045000F81B0008581E0008680F0008341E00082A
:10046000081300089C0A000858000000741C0008CB
:10047000680F0008341E0008600C0008541C0008B7
:10048000FC1A0008680F0008341E0008600C000801
:1004900010260008A0250008341E0008E8260008E1
:1004A0009C0A00081000000088270008A02500080A
:1004B0000C1E0008B41B0008840A00088CFFFFFF14
:1004C000B41B0008FC080008E9080008200F000819
:1004D000F0130008E40F00088C110008F809000868
:1004E000FC080008E9080008B41B0008A01C00086C
:1004F00030270008F81B0008341E000860030008BD
:10050000FC080008E9080008F81B00087827000824
:10051000D81B0008880C0008B41B0008741C0008D5
:10052000F81B0008880C0008B41B0008FC08000831
:10053000E9080008501B0008280300087C1E00087A
:10054000FC080008E9080008501B00082803000800
:10055000341E0008202900083C0900085B410008FF
:10056000D8120008FC080008E9080008C8040008C0
:100570009C0A00083C000000900F0008341E000890
:100580008C2900089C0A000814000000C81100080B
:1005900060030008840A00080C000000C81100086D
:1005A000CC0E0008D0030008840A0008C0FFFFFF3B
:1005B000E40F000868140008A0250008341E000895
:1005C000E82600089C0A000810000000601F0008D0
:1005D000840A00080C000000541C0008901F00084A
:1005E000D0030008840A000884FFFFFFE908000820
:1005F000041F0008E00C0008FC0C000820040008A0
:1006000068050008900F0008341E0008142A00082E
:100610009C0A0008380000003C090008CCBB0120FF
:10062000341E00089C0A0008240000003C09000851
:10063000CCBB0120341E0008801700083C300008A5
:10064000680F0008341E0008BC2D00083C09000893
:1006500010000000903000086C310008840A000887
:1006600098FFFFFFE9080008E40F000820290008B0
:10067000C4100008FC080008E90800085C0700082E
:1006800000000000C0BB0120FC0800082909000888
:10069000C0BB0120E9080008402A00089C0A0008A5
:1006A00008000000C82A0008FC080008E908000843
:1006B000402A00089C0A0008080000007025000875
:1006C000FC080008E90800086C3100083C09000833
:1006D000E00D0008801700083C3000083C090008C5
:1006E000780E0008801700083C3000083C0900081C
:1006F000850E0008801700083C3000086C310008A7
:10070000FC080008E9080008BC08000830350008AB
:10071000FC080008E9080008741C0008201C0008F8
:10072000F82800083C0900087F000000201C000891
:10073000581E00088C2900089C0A0008E0FFFFFFF3
:10074000741C0008541C0008FC080008013055F80F
:10075000042B22F0030252F8043B184761070008FB
:1007600002CD04CD116055F8042B22F0030252F89B
:10077000043B18477907000855F8040B006847F850
:10078000040D55F8042B22F0030252F8043B1847DD
:100790009507000855F8042B57F8040B104347F849
:1007A000040D55F8042B22F0030252F8043B1847BD
:1007B000B507000855F8042B57F8040B104047F80C
:1007C000040D55F8042B22F0030252F8043B18479D
:1007D000D507000855F8043B57F8040B186055F886
:1007E000042B22F0030252F8043B1847F1070008DB
:1007F00057F8043B57F8041B57F8040B1A6822EA11
:10080000010200EA010042EA00021A6055F8042BD6
:1008100022F0030252F8043B1847000021080008A8
:1008200055F8043B55F8044B55F804CB1A6822EAF6
:1008300004020CEA040C42EA0C021A6055F8042B7C
:1008400022F0030252F8043B184700005108000848
:1008500046F8045D55F8042B22F0030252F8043BDD
:10086000184700006908000857F8040B00280CBF5F
:100870003568361D55F8042B22F0030252F8043B6C
:10088000184700000A0000000000000000000000FF
:100890000000000000C00120F0BD012070FA00201F
:1008A0009CBA0120100000200000000000000000A1
:1008B000943F0008870E000800000000C1080008EF
:1008C000074808490E2203680B60001D091D521ECF
:1008D000F9D155F8042B22F0030252F8043B1847D3
:1008E000840800089CBB012046F8045D154655F8B5
:1008F000042B22F0030252F8043B184701090008B8
:1009000056F8045B55F8042B22F0030252F8043B1E
:100910001847000001CA47F8040D55F8042B22F0CF
:10092000030252F8043B184701CA47F8040D55F872
:10093000042B22F0030252F8043B18474109000837
:1009400055F8040B47F8040D55F8042B22F0030268
:1009500052F8043B184700005D09000855F8040BE5
:1009600047F8040D55F8042B22F0030252F8043B1B
:10097000184700007909000857F8045B55F8042B64
:1009800022F0030252F8043B1847000046F8045DC9
:100990004568083047F8040D55F8042B22F003028F
:1009A00052F8043B18470000AD0900080648074903
:1009B0000968401A47F8040D55F8042B22F0030289
:1009C00052F8043B1847000010FA0020BCBB01207D
:1009D000D5090008064807490968401A47F8040D78
:1009E00055F8042B22F0030252F8043B184700008C
:1009F0009CBB0120B8BB0120FD09000857F8043B4F
:100A000057F8042B93465A46187884461178484084
:100A10003F2420401DD1521C5B1C1878117888425D
:100A2000F9D08024001B884214D15B1C1878FF2861
:100A3000FBD0083347F8043D0120624647F8042DF7
:100A400047F8040D55F8042B22F0030252F8043B3A
:100A500018475B1C187880242042FAD01B1D0848D8
:100A600003401B68002B00D0CDE7002047F8040DA1
:100A700055F8042B22F0030252F8043B18470000FB
:100A8000FCFFFFFF890A00082B68ED1855F8042BBE
:100A900022F0030252F8043B18470000A10A0008A4
:100AA00057F8040B00283FF4EFAF2D1D55F8042B29
:100AB00022F0030252F8043B18470000C10A000864
:100AC00057F8040B00287FF4DFAF2D1D55F8042BD9
:100AD00022F0030252F8043B18470000E10A000824
:100AE000012374683268944204D0D2183260A41A88
:100AF0007FF4CAAF08362D1D55F8042B22F00302EF
:100B000052F8043B184700000D0B000857F8043B4F
:100B1000FFF7E7BF190B000857F8040B57F8042B31
:100B200046F8042D46F8040D55F8042B22F0030274
:100B300052F8043B184700003D0B000857F8040B1F
:100B400000787F21084047F8040D55F8042B22F067
:100B5000030252F8043B18475D0B000857F8041BCA
:100B60000B4A92460B4B1C6812191078521C884293
:100B700001D00028F9D15446121B1A7047F8040D11
:100B800055F8042B22F0030252F8043B18470000EA
:100B900070FA0020A0BB01209D0B000857F8041B31
:100BA00057F8042B10784840107055F8042B22F0A9
:100BB000030252F8043B1847BD0B00080A21884283
:100BC00005D157F8040B0D2047F8040D02E00D2164
:100BD000884203D100F088F900F08EF955F8042B13
:100BE00022F0030252F8043B18470000F10B000802
:100BF0003868017801290FD0022914D001440A78FD
:100C0000622A1AD0252A18D0642A18D0232A16D08E
:100C1000682A16D0242A14D055F8042B22F0030297
:100C200052F8043B184782782E2AE7D155F8042B56
:100C300022F0030252F8043B1847022402E00A247F
:100C400000E0102400220A70044A146055F8042BB6
:100C500022F0030252F8043B184700009CBB01201D
:100C6000650C000857F8040B57F8041BA0FB012083
:100C700047F8042D47F8040D55F8042B22F0030221
:100C800052F8043B184700008D0C000857F8040B7D
:100C900057F8043B57F8042B002812D093F0000FAC
:100CA0000FD10146B2FBF0F000FB112247F8042DF2
:100CB00047F8040D55F8042B22F0030252F8043BC8
:100CC00018474040401E024647F8042D47F8040DDF
:100CD00055F8042B22F0030252F8043B1847000099
:100CE000E50C0008044A176855F8042B22F00302AB
:100CF00052F8043B18470000ACBB0120010D00086E
:100D0000044A166855F8042B22F0030252F8043BFB
:100D100018470000B0BB01201D0D0008044A1168EF
:100D20008C4655F8042B22F0030252F8043B184776
:100D30009CBB0120390D0008044A6146116055F83A
:100D4000042B22F0030252F8043B18479CBB0120FD
:100D500009490A480A4C0160001DA042FBD3094F13
:100D6000094E0FF2280546F8045D55F8042B22F0D1
:100D7000030252F8043B1847111111110000002022
:100D800000C2012000C00120F0BD0120A43F0008E6
:100D9000BC08000820420008182E00086C3100082A
:100DA0003C090008FB000000903000083C090008E6
:100DB000F7000000903000086C3100089819000816
:100DC00008CA9F4603B502490868401C086003BD75
:100DD00098BA0120D90D000856F8045BBDE83F9C85
:100DE0004649534820524D2056347468204F454D93
:100DF000207E2041524D2044656275675372632006
:100E000020313031302C31313030202D2045484FC9
:100E10004E2F45484F4646202D312054727565208F
:100E2000466C61672053544D33324632303552435D
:100E3000205053544154206F72205354502052502C
:100E40004D20426F61726420403131384D687A2004
:100E5000284329323031342D3230313820412D545D
:100E600045414D20464F525448203A204E6F76203F
:100E700020372032303138002061742031373A3148
:100E8000313A3130001500206F6B2C20676F2066DF
:100E900069736820696E20424153452000000000BC
:100EA000844E4F4FD0FFFFFF00000000B10E00083E
:100EB00055F8042B22F0030252F8043B18470000B7
:100EC00087455845435554C5A00E0008D10E00086B
:100ED00000F00AF800F010F857F8042B22F0030293
:100EE00052F8043B184700007246024C2168090A78
:100EF000FCD31047004800407246024913240C708E
:100F000010470000044800407246024911240C704A
:100F100010470000044800408242CCFFC00E000889
:100F200029090008200000008255D0FF180F000892
:100F300029090008B8BB01208546454E43C5FFFF7F
:100F4000280F000829090008C4BB01208244D0FFF3
:100F5000380F000829090008BCBB01208442415316
:100F6000C5FFFFFF4C0F0008290900089CBB0120AA
:100F70008743555252454ED45C0F0008290900089A
:100F8000C8BB01208553544154C5FFFF700F0008B2
:100F900029090008A8BB0120834F55D4840F0008FD
:100FA00029090008A4BB01208249CEFF980F000840
:100FB00029090008A0BB0120835041C4A80F0008E4
:100FC0002909000810FA0020835449C2B80F00080C
:100FD0002909000870FA002084484552C5FFFFFF28
:100FE000C80F0008E9080008540F0008341E000864
:100FF000FC08000885414C4C4FD4FFFFD80F000877
:10100000E9080008A8090008201C00082029000899
:10101000402A00089C0A0008080000003803000865
:10102000540F00080C1E0008FC08000887414C49BA
:10103000474E45C4F40F00083D10000857F8040B54
:10104000C01C0549084047F8040D55F8042B22F050
:10105000030252F8043B1847FCFFFFFF85414C494F
:1010600047CEFFFF2C100008E9080008E40F000835
:10107000A8270008F8280008A01C0008F81B000892
:10108000E40F0008140B00083C090008FF000000F2
:10109000301B0008A01E0008DC0A0008ECFFFFFF60
:1010A000B41B00083C090008FCFFFFFF582B000898
:1010B000540F00087C1E0008FC08000881ACFFFFEC
:1010C0005C100008E9080008A8090008402A000888
:1010D0009C0A0008080000003803000860030008AC
:1010E000FC0800088243ACFFBC100008E9080008B7
:1010F000A8090008402A00089C0A0008080000000F
:1011000038030008E40F0008A01E00088827000824
:1011100050030008FC08000888564152414C4C4FCF
:10112000D4FFFFFFE4100008E9080008D009000818
:10113000B827000884280008201C0008202900087F
:10114000402A00089C0A0008180000003C0900081A
:10115000FF400008801700083C3000089C18000879
:10116000300F0008341E0008741C0008B82700085F
:1011700048280008300F00080C1E0008FC08000872
:10118000864C41544553D4FF18110008E908000863
:101190007C0F0008341E0008FC080008834C46C180
:1011A00080110008A911000857F8040B083847F807
:1011B000040D55F8042B22F0030252F8043B1847A3
:1011C000834346C19C110008CD11000857F8040B59
:1011D000001F47F8040D55F8042B22F0030252F8C3
:1011E000043B1847834E46C1C0110008E9080008B7
:1011F0009C01000820290008C4260008A01C000843
:10120000581E00083C090008FF00000020290008C3
:101210009C0A0008E4FFFFFF3C090008FFFFFFFFF6
:1012200014070008FC080008835046C1E4110008B8
:10123000E90800088827000814070008E8260008C5
:10124000A01C0008581E00083C090008FF00000010
:10125000202900089C0A0008E4FFFFFF9C01000809
:10126000F8280008FC080008883F414C49474E45D3
:10127000C4FFFFFF28120008E90800083C09000825
:1012800003000000582B00089C0A00083C000000E6
:10129000F80300082E56414C5545204D5553542017
:1012A0004245204556454E204E4F54204F44442041
:1012B000414E44204D554C5449504C45204F4620FA
:1012C000342120FF9C180008FC080008863F455286
:1012D000524FD2FF68120008E9080008741C000889
:1012E0009C0A00081000000064150008840A000829
:1012F00008000000541C0008FC0800088544494709
:1013000049D4FFFFCC1200080D13000857F8042B36
:1013100057F8040B303813D4092802DDC01F0A28FF
:101320000EDB90420CDA0246012047F8042D47F804
:10133000040D55F8042B22F0030252F8043B184721
:10134000002047F8040D55F8042B22F0030252F850
:10135000043B184787454E434C4F53C5FC120008C9
:101360006513000857F8040B39680022521E491E05
:10137000491C521C0B789842FAD047F8042D002BD8
:101380000CD11846521C47F8042D47F8040D55F8A7
:10139000042B22F0030252F8043B1847491C521C4C
:1013A0000B78984201D0002BF8D11046401C47F82A
:1013B000042D47F8040D55F8042B22F0030252F8CF
:1013C000043B1847C180FFFF54130008D1130008E5
:1013D00056F8045B55F8042B22F0030252F8043B44
:1013E0001847000084574F52C4FFFFFFC413000882
:1013F000E9080008D00F0008B00F0008341E0008EC
:10140000F8280008741C000860130008B00F0008DA
:101410000C1E0008201C000820290008F81B0008EA
:10142000D81B0008E40F0008A01E0008F8280008D8
:10143000E40F0008E8260008D81B0008601D00081B
:1014400078270008E40F0008E8260008B41B00080D
:10145000F8280008A01E0008FC080008864E554D1C
:101460004245D2FFE4130008E9080008180D0008FF
:10147000EC0B00087827000878270008FC1A000801
:10148000A01C0008E8260008581E00083C090008B7
:101490002D0000004829000888270008582B000864
:1014A000A01C0008F81B0008F82800083C090008E8
:1014B000FFFFFFFFA02500087C1E00084404000871
:1014C000A01C0008581E00087827000820290008E2
:1014D0009C0A000868000000A01C0008581E0008B4
:1014E0003C0900082E000000202900089C0A000882
:1014F00040000000A01C0008581E00083C0900081D
:101500002C000000482900089C0A00081000000078
:10151000E82D0008840A00089CFFFFFF340D000836
:10152000882700083C09000843410008D812000839
:1015300078270008840A00087CFFFFFF541C00087D
:10154000B41B00089C0A0008080000007025000871
:10155000340D0008FC080008854552524FD2FFFFA9
:101560005C140008E9080008E40F00085C17000894
:101570003C300008801700083C300008102F00089D
:10158000900F0008341E00089C0A0008400000006C
:101590008C060008341E00089C0A00083000000079
:1015A0008C060008341E000830120008A411000840
:1015B000341E00087C0F00087C1E00088C06000802
:1015C000341E0008540F00087C1E0008780600082E
:1015D0009C180008C1A7FFFF58150008E90800087B
:1015E000C8040008142A00083C0900083541000816
:1015F000D8120008541C0008901F0008FC080008BE
:10160000864558504543D4FFD4150008E908000822
:101610000C020008F8010008E8260008201C000859
:10162000F8280008201C0008E8260008342F0008CD
:10163000140B0008D8300008B80B0008A01C0008E4
:101640003C09000809000000482900089C0A00081D
:101650000C000000541C0008200F0008A01C00080B
:101660009C01000848290008201C00083C090008CB
:101670007F00000048290008802B00089C0A000811
:1016800050000000541C0008A01C0008301B00087B
:10169000C426000848290008A01C0008B41B000844
:1016A0009827000820290008F8280008F81B0008DF
:1016B0009C0A00081000000088010008840A000845
:1016C0006C000000A4010008840A0008600000000B
:1016D000A01C00083C0900080D0000004829000873
:1016E0009C0A00081C000000941B0008541C000801
:1016F000200F000878270008840A0008080000006E
:10170000A01C0008301B0008A01E00088827000845
:10171000B00F00080C1E000878270008301B0008D6
:10172000E8260008A01E000890300008DC0A000827
:1017300004FFFFFF102F0008E826000880170008AC
:10174000741C0008C4260008A01E0008FC0800083D
:1017500085434F554ED4FFFF00160008E9080008E6
:10176000A01C0008E8260008741C0008581E000889
:10177000FC08000884244C45CEFFFFFF50170008EA
:10178000851700083A684040115C094301D0401CAD
:10179000FAE747F8040D55F8042B22F0030252F83B
:1017A000043B184786464F524745D4FF741700083C
:1017B000E9080008DC150008A01C00083C09000826
:1017C000000002088C2900083C090008A640000817
:1017D000D8120008A01C00083C09000800001008EE
:1017E0008C2900083C090008C3400008D8120008F2
:1017F000A01C0008A4110008F81B00088C110008A8
:1018000030120008A4110008A01C0008341E0008B3
:101810007C0F00087C1E0008A01C00083027000870
:10182000341E00083C090008150900084829000872
:101830009C0A0008140000003C090008FCFFFFFFA0
:10184000300F00080C1E0008D81B000848290008AB
:101850009C0A0008A8FFFFFFB41B0008341E000804
:101860007C0F00087C1E0008EC110008540F0008D3
:101870007C1E0008A43A0008743A0008FC0800081E
:10188000834259C5A41700088D180008FFF760BAF5
:101890008541424F52D4FFFF80180008E908000834
:1018A000E00C0008FC0C00080C0200083C090008D1
:1018B000584000088C110008F80900089C0A00082C
:1018C00010000000541C0008C8110008CC0E0008CD
:1018D0003C090008D0BB0120341E00089C0A000807
:1018E0006C0000003C09000850190008801700082F
:1018F0003C300008103100089C0A0008F8FFFFFF88
:10190000D83000083C0900084300000048290008BE
:101910009C0A0008E0FFFFFFD83000083C090008DF
:101920004F000000482900089C0A0008C8FFFFFF7C
:10193000D83000083C0900080D00000048290008C4
:101940009C0A0008B0FFFFFF6C310008EC0500089E
:10195000204572726F722048616C74202845484F90
:101960004E2F45484F464629202D20546F20434F87
:101970006E74696E7565205479706520434F2074CC
:1019800068656E20456E7465723A200084434F4C42
:10199000C4FFFFFF90180008E908000804070008CA
:1019A000C4060008EC050008900D0A46495348207B
:1019B00053797374656D3A0D8AFFFFFF8C19000827
:1019C000832E53C8A8190008E90800083C0900083C
:1019D0001000000020020008FC080008832E53C4F9
:1019E000C0190008E90800083C0900080A000000C6
:1019F00020020008FC080008832E53C2DC190008EE
:101A0000E90800089827000820020008FC080008E0
:101A1000822ED3FFF8190008E9080008180300080F
:101A2000341E0008501B0008302700084829000811
:101A3000142A00089C0A000868000000F803000847
:101A400005544F533E20FFFF18030008341E0008C2
:101A5000501B000830270008140B0008301B00083A
:101A6000341E0008680F0008341E00083C090008F6
:101A70000A000000482900089C0A00081000000025
:101A8000A4020008840A000808000000BC02000844
:101A9000982F0008B8270008080B0008C0FFFFFFB8
:101AA000FC08000884324455D0FFFFFF101A0008DC
:101AB000B51A000838687A6847F8042D47F8040D0D
:101AC00055F8042B22F0030252F8043B184700009B
:101AD000842D4455D0FFFFFFA41A0008E908000830
:101AE000A01C00089C0A000808000000A01C0008B8
:101AF000FC08000883524FD4D01A0008011B0008CC
:101B000057F8042B57F8041B57F8040B47F8041D2B
:101B100047F8042D47F8040D55F8042B22F0030272
:101B200052F8043B1847000081C9FFFFF41A00086F
:101B3000351B0008306847F8040D55F8042B22F0D7
:101B4000030252F8043B1847835350C0281B000877
:101B5000551B0008384647F8040D55F8042B22F0B1
:101B6000030252F8043B1847835250C0481B000838
:101B7000751B0008304647F8040D55F8042B22F079
:101B8000030252F8043B1847854C454156C5FFFFF8
:101B9000681B0008991B00083268726055F8042B16
:101BA00022F0030252F8043B184700008252BEFFA5
:101BB000881B0008B91B000856F8040B47F8040DF1
:101BC00055F8042B22F0030252F8043B184700009A
:101BD00081D2FFFFAC1B0008DD1B0008306847F80E
:101BE000040D55F8042B22F0030252F8043B184769
:101BF000823ED2FFD01B0008FD1B000857F8041BD3
:101C000046F8041D55F8042B22F0030252F8043B59
:101C100018470000844F5645D2FFFFFFF01B000815
:101C2000251C000857F8042B57F8040B47F8040D3F
:101C300047F8042D47F8040D55F8042B22F0030251
:101C400052F8043B184700008444524FD0FFFFFF76
:101C5000141C0008591C00083F1D55F8042B22F0E5
:101C6000030252F8043B184784535741D0FFFFFF4B
:101C7000481C0008791C000857F8042B57F8040B7F
:101C800047F8042D47F8040D55F8042B22F0030201
:101C900052F8043B18470000834455D0681C0008E4
:101CA000A51C0008386847F8040D55F8042B22F0ED
:101CB000030252F8043B1847900D0A537461636B9A
:101CC0002053747566663A0D8AFFFFFF981C000862
:101CD00087414E44424954D3B81C0008E11C000817
:101CE00057F8042B57F8041B08681040086055F893
:101CF000042B22F0030252F8043B18478753455443
:101D0000424954D3D01C00080D1D000857F8042B7D
:101D100057F8041B08681043086055F8042B22F09C
:101D2000030252F8043B184787434C52424954D3AC
:101D3000FC1C0008391D000857F8042B57F8041B39
:101D400008689043086055F8042B22F0030252F80B
:101D5000043B184785434D4F56C5FFFF281D00081B
:101D6000651D000857F8041B57F8042B57F8043B6F
:101D7000002907D018781070491E002902D0521C83
:101D80005B1CF7D155F8042B22F0030252F8043BF8
:101D9000184700008446494CCCFFFFFF541D000843
:101DA000A51D000857F8040B57F8041B57F8042B1F
:101DB000002904D08B181070521C9A42FBD155F8A0
:101DC000042B22F0030252F8043B18478545524188
:101DD00053C5FFFF941D0008E90800087827000894
:101DE000A01D0008FC08000886424C414E4BD3FF62
:101DF000CC1D0008E9080008200F0008A01D0008FD
:101E0000FC080008822BA1FFE81D0008111E000835
:101E100057F8041B57F8040B0A688018086055F837
:101E2000042B22F0030252F8043B184781C0FFFF45
:101E3000041E0008391E000857F8041B086847F8FC
:101E4000040D55F8042B22F0030252F8043B184706
:101E50008243C0FF2C1E00085D1E000857F8041BBB
:101E6000087847F8040D55F8042B22F0030252F8C5
:101E7000043B184781A1FFFF501E0008811E000887
:101E800057F8040B57F8041B016055F8042B22F097
:101E9000030252F8043B18478243A1FF741E000856
:101EA000A51E000857F8040B57F8041B017055F8DD
:101EB000042B22F0030252F8043B18479F0D0A52EC
:101EC00065616420616E64205772697465204D6598
:101ED0006D6F727920576974683A0D8A981E0008F0
:101EE00081DDFFFFBC1E0008E90800085C07000850
:101EF000C0000000A8BB0120FC080008C1DBFFFFF8
:101F0000E01E0008E90800085C0700080000000067
:101F1000A8BB0120FC080008C95B434F4D50494C49
:101F200045DDFFFFFC1E0008E9080008C8040008A2
:101F3000142A00083C0900085B410008D812000878
:101F4000541C0008C8110008C4100008FC08000850
:101F5000C8444C4954455241CCFFFFFF181F0008AC
:101F6000E9080008900F0008341E00089C0A0008C9
:101F700010000000741C0008901F0008901F00084B
:101F8000FC080008C74C4954455241CC501F00087A
:101F9000E9080008900F0008341E00089C0A000899
:101FA00010000000E40400083C090008C410000808
:101FB000FC0800088223BEFF841F0008E90800080F
:101FC000541C0008541C000830030008341E00088C
:101FD000C00F0008201C000820290008FC08000889
:101FE00084484F4CC4FFFFFFB41F0008E9080008F5
:101FF0003C090008FFFFFFFF300300080C1E00082B
:1020000030030008341E0008A01E0008FC08000869
:1020100084534947CEFFFFFFE01F0008E90800088E
:10202000FC1A0008402A00089C0A00081000000062
:102030003C0900082D000000EC1F0008FC08000807
:102040008223D3FF10200008E9080008742000084C
:10205000201C0008201C0008802B0008142A0008FF
:102060009C0A0008E8FFFFFFFC08000881A3FFFFAF
:1020700040200008E9080008680F0008341E000826
:1020800004050008FC1A00083C09000809000000CB
:10209000201C00088C2900089C0A00081000000081
:1020A0003C09000807000000F82800083C09000867
:1020B00030000000F8280008EC1F0008FC080008A9
:1020C000823CA3FF6C200008E90800085C070008B8
:1020D00010FA0020DCBB0120FC08000885444F45B5
:1020E00053BEFFFFC0200008E9080008B41B000829
:1020F0008C11000830120008A01C0008C81100084C
:102100003C0900088B090008741C00087C1E0008AC
:102110007C1E0008FC080008873C4255494C44D30B
:10212000DC200008E908000864230008FC08000817
:10213000C52B4C4F4FD0FFFF18210008E9080008BD
:10214000A8270008B8030008E4040008080B0008EA
:1021500064060008FC080008C44C4F4FD0FFFFFF86
:1021600030210008E9080008A8270008B803000883
:10217000E4040008DC0A000864060008FC08000803
:10218000C244CFFF58210008E9080008E404000811
:10219000140B0008E40F0008A8270008FC0800083A
:1021A000C5454E4449C6FFFF80210008E9080008E4
:1021B0007C03000898270008B8030008E40F000813
:1021C000201C000820290008741C00087C1E000840
:1021D000FC080008C4544845CEFFFFFFA0210008BA
:1021E000E9080008AC210008FC080008C4454C536D
:1021F000C5FFFFFFD4210008E90800089827000860
:10220000B8030008E4040008840A0008E40F00088A
:1022100078270008C4100008741C000898270008DC
:10222000AC21000898270008FC080008C249C6FF36
:10223000EC210008E9080008E40400089C0A0008F2
:10224000E40F000878270008C41000089827000849
:10225000FC080008C5554E5449CCFFFF2C2200084D
:10226000E908000888270008B8030008E40400080B
:102270009C0A000864060008FC080008C5414741A4
:1022800049CEFFFF54220008E9080008882700080B
:10229000B8030008E4040008840A00086406000883
:1022A000FC080008C65245504541D4FF7C22000876
:1022B000E9080008F81B0008F81B0008882200083D
:1022C000B41B0008B41B0008982700082029000848
:1022D000AC210008FC080008C55748494CC5FFFF61
:1022E000A4220008E9080008342200080C2700088E
:1022F000FC080008C542454749CEFFFFD822000828
:10230000E90800087C030008E40F0008882700089B
:10231000FC080008970D0A496E7369646520436FD5
:102320006C6F6E20574F5244533A0D8AF4220008C6
:1023300089494D4D4544494154C5FFFF14230008C8
:10234000E90800088C1100083C0900084000000062
:10235000980B0008FC080008864352454154C5FF0D
:1023600030230008E9080008A80900083C09000813
:102370000F00000020290008402A00089C0A0008DD
:102380000800000038030008C80400089C0A000880
:1023900024000000541C0008EC110008B02F0008B5
:1023A0003C0900081F410008801700083C30000865
:1023B0009C180008E40F0008A01C00088C06000808
:1023C0007C1E0008A01C0008581E00083C090008DC
:1023D0001F000000082B000850030008A01C000884
:1023E0003C09000880000000980B0008E40F00087A
:1023F0003C09000880000000980B000888270008AE
:10240000540F00080C1E00088C110008C4100008AE
:102410007C0F00087C1E0008E4040008290900085D
:10242000E40F000830270008C4100008FC0800086A
:1024300088434F4E5354414ED4FFFFFF58230008AA
:10244000E908000854240008FC08000883434FCE24
:1024500030240008E9080008642300083C0900084B
:10246000FCFFFFFF540F00080C1E0008C4100008FA
:1024700078060008FC080008885641524941424C41
:10248000C5FFFFFF4C240008E90800089C24000851
:10249000FC080008835641D278240008E9080008A7
:1024A000642300083C090008F8FFFFFF540F0008F0
:1024B0000C1E0008E404000815090008882700081D
:1024C00028110008C410000878060008FC0800085D
:1024D000C1BBFFFF94240008E90800084405000878
:1024E000E4040008FC080008041F0008780600083F
:1024F000FC080008C1BAFFFFD0240008E908000862
:102500009C0300083005000864230008E81E00084A
:102510003C090008F8FFFFFF540F00080C1E0008DC
:10252000E4040008E9080008FC080008960D0A43C6
:10253000524541544520574F5244532057697468BF
:102540003A0D8AFFF424000884444142D3FFFFFF80
:102550002C250008E9080008A01C0008AC060008AB
:10256000FC08000887444E45474154C548250008EB
:102570007525000857F8040B57F8042BC043D243C5
:10258000521C47F8042D47F8040D55F8042B22F08F
:10259000030252F8043B1847834450CC64250008DA
:1025A00029090008D8BB012083442ED298250008B1
:1025B000E9080008F81B0008741C0008201C00082B
:1025C00054250008C8200008482000081C200008E6
:1025D000BC1F0008B41B0008201C000820290008AC
:1025E0005C2F00083C300008FC0800088244AEFF65
:1025F000A8250008E908000878270008B025000889
:10260000982F0008FC0800088244ABFFEC25000866
:102610001526000857F8040B57F8041B57F8043B1D
:1026200057F8042B5218584147F8042D47F8040D69
:1026300055F8042B22F0030252F8043B184700001F
:1026400084532D3EC4FFFFFF0826000851260008D2
:1026500057F8042B4040124300D5401E47F8042D84
:1026600047F8040D55F8042B22F0030252F8043BFE
:10267000184700008232AAFF402600088126000881
:1026800057F8040B400047F8040D55F8042B22F0CE
:10269000030252F8043B18478232AFFF7426000849
:1026A000A526000857F8040B401047F8040D55F80C
:1026B000042B22F0030252F8043B18478231ADFF8D
:1026C00098260008C926000857F8040B401E47F852
:1026D000040D55F8042B22F0030252F8043B18476E
:1026E0008231ABFFBC260008ED26000857F8040B2A
:1026F000401C47F8040D55F8042B22F0030252F851
:10270000043B18478232ABFFE0260008112700087F
:1027100057F8040B801C47F8040D55F8042B22F0E1
:10272000030252F8043B18478234ABFF0427000829
:102730003527000857F8040B001D47F8040D55F81D
:10274000042B22F0030252F8043B18478234ADFFF9
:10275000282700085927000857F8040B001F47F8DE
:10276000040D55F8042B22F0030252F8043B1847DD
:1027700081B0FFFF4C270008290900080000000075
:1027800081B1FFFF7027000829090008010000003F
:1027900081B2FFFF8027000829090008020000001D
:1027A00081B3FFFF902700082909000803000000FB
:1027B00081B4FFFFA02700082909000804000000D9
:1027C000824DAAFFB0270008E9080008B01A0008E7
:1027D000CC2B0008F81B0008F02A0008741C000825
:1027E000F02A0008600C0008B41B0008AC060008C2
:1027F000FC080008824DAFFFC0270008E908000868
:10280000201C0008F81B0008F81B000854250008CD
:10281000D81B0008F02A0008880C0008B41B000828
:10282000D81B0008CC2B000894060008741C000874
:10283000B41B000894060008741C0008FC0800087B
:1028400081AAFFFFF4270008E9080008C82700084C
:10285000541C0008FC080008842F4D4FC4FFFFFFE4
:1028600040280008E9080008F81B00084C2600086A
:10287000B41B0008FC270008FC08000881AFFFFF1C
:1028800058280008E908000864280008741C00089B
:10289000541C0008FC080008834D4FC47C28000825
:1028A000E908000864280008541C0008FC08000817
:1028B000852A2F4D4FC4FFFF98280008E90800081B
:1028C000F81B0008C8270008B41B0008FC270008F4
:1028D000FC080008822AAFFFB0280008E9080008B9
:1028E000BC280008741C0008541C0008FC080008E0
:1028F00081ABFFFFD4280008FD28000857F8040B1F
:1029000057F8041B401847F8040D55F8042B22F023
:10291000030252F8043B184781ADFFFFF02800087E
:102920002529000857F8040B57F8041B081A47F824
:10293000040D55F8042B22F0030252F8043B18470B
:1029400081BDFFFF182900084D290008404057F8B5
:10295000040B57F8041B401A09D0404047F8040DF7
:1029600055F8042B22F0030252F8043B18470138B3
:1029700047F8040D55F8042B22F0030252F8043BEB
:102980001847000081BCFFFF40290008912900087A
:102990004040013857F8041B57F8042B914200DCE3
:1029A000404047F8040D55F8042B22F0030252F87A
:1029B000043B18478255BCFF84290008E908000839
:1029C000B01A0008CC2B0008402A00089C0A000816
:1029D00018000000541C0008402A0008142A0008AF
:1029E000840A00080C00000020290008402A000882
:1029F000FC08000881BEFFFFB4290008E9080008B0
:102A0000741C00088C290008FC0800088230BDFFF7
:102A1000F4290008192A0008404057F8041B00292F
:102A200000D1401E47F8040D55F8042B22F0030294
:102A300052F8043B184700008230BCFF0C2A000803
:102A4000452A000857F8041B40400138094300D4C8
:102A5000404047F8040D55F8042B22F0030252F8C9
:102A6000043B1847834249CE382A0008E908000889
:102A70005C070008020000009CBB0120FC08000865
:102A8000834845D8642A0008E90800085C07000864
:102A9000100000009CBB0120FC080008874445434F
:102AA000494D41CC802A0008E90800085C0700086D
:102AB0000A0000009CBB0120FC080008864E454728
:102AC0004154C5FF9C2A0008CD2A000857F8040B82
:102AD000C043401C47F8040D55F8042B22F00302B4
:102AE00052F8043B18470000834142D3BC2A000837
:102AF000E9080008A01C000894060008FC0800086B
:102B0000834D49CEE82A0008E9080008B01A0008F9
:102B1000FC2900089C0A000808000000741C00083A
:102B2000541C0008FC080008834D41D8002B000805
:102B3000E9080008B01A00088C2900089C0A00085F
:102B400008000000741C0008541C0008FC08000861
:102B500083414EC4282B00085D2B000857F8040B56
:102B600057F8041B084047F8040D55F8042B22F0D1
:102B7000030252F8043B1847824FD2FF502B000843
:102B8000852B000857F8040B57F8041B084347F837
:102B9000040D55F8042B22F0030252F8043B1847A9
:102BA000834E4FD4782B0008AD2B000857F8040B48
:102BB000C04347F8040D55F8042B22F0030252F8E5
:102BC000043B184783584FD2A02B0008D12B000894
:102BD00057F8040B57F8041B484047F8040D55F804
:102BE000042B22F0030252F8043B18478453585434
:102BF000C8FFFFFFC42B0008FD2B000857F8040B8B
:102C000000B247F8040D55F8042B22F0030252F8E5
:102C1000043B184784535854C2FFFFFFEC2B0008B5
:102C2000252C000857F8040B40B247F8040D55F85E
:102C3000042B22F0030252F8043B184784524556F5
:102C4000D7FFFFFF142C00084D2C000857F8040B89
:102C500000BA47F8040D55F8042B22F0030252F88D
:102C6000043B1847834153D23C2C0008712C0008C8
:102C700057F8042B57F8040B104147F8040D55F88A
:102C8000042B22F0030252F8043B1847834C53D222
:102C9000642C0008992C000857F8042B57F8040BF3
:102CA000D04047F8040D55F8042B22F0030252F8E7
:102CB000043B1847834C53CC8C2C0008C12C0008D3
:102CC00057F8042B57F8040B904047F8040D55F8BB
:102CD000042B22F0030252F8043B1847822ED2FF45
:102CE000B42C0008E9080008F81B00084C2600086E
:102CF000B41B0008B0250008FC080008832E52D53C
:102D0000DC2C0008E9080008F81B000878270008F8
:102D1000C820000848200008BC1F0008A01C0008AC
:102D2000B41B0008741C0008202900085C2F000850
:102D30003C300008FC0800088255AEFFFC2C00085F
:102D4000E908000878270008F4250008FC080008B6
:102D500081BFFFFF382D0008E9080008341E000875
:102D6000702D0008FC08000881AEFFFF502D000800
:102D7000E90800084C260008F4250008FC080008B3
:102D8000822EC2FF682D0008E90800089827000875
:102D9000D4020008FC080008822EC8FF802D00081D
:102DA000E90800083C09000810000000D4020008EF
:102DB000FC080008822EC4FF982D0008E9080008CE
:102DC0003C0900080A000000D4020008FC080008C2
:102DD000834F46C6B42D00082909000800000000F2
:102DE000824FCEFFD02D000829090008FFFFFFFF0A
:102DF000910D0A4E554D4245522053747566663A00
:102E00000D8AFFFFE02D00088A55415254335F4977
:102E10004E49D4FFF02D0008E90800083C090008DD
:102E200000C20120341E0008142A00089C0A000871
:102E30001C0000003C09000804C20120341E0008E8
:102E4000F81B0008840A0008100000003C09000874
:102E500000C20100F81B00083C0900086022C20102
:102E6000B41B0008842800083C09000808480040FA
:102E70007C1E0008FC080008864D59424155C4FFDD
:102E8000082E0008E90800085C07000800000000A0
:102E900000C201203C09000804C201207C1E000879
:102EA000FC0800088955415254335F4C53D2FFFF50
:102EB000782E0008B92E00080549087847F8040D57
:102EC00055F8042B22F0030252F8043B1847000087
:102ED000004800408855415254335F52D8FFFFFFED
:102EE000A42E0008290900080448004088554152D2
:102EF00054335F54D8FFFFFFD42E0008290900087F
:102F00000448004084584F46C6FFFFFFEC2E0008DF
:102F1000152F0008FDF7E8FFFDF7EEFF55F8042B2D
:102F200022F0030252F8043B1847000083584FCEAA
:102F3000042F0008392F0008FDF7D6FFFDF7E4FF46
:102F400055F8042B22F0030252F8043B1847000006
:102F5000865350414345D3FF2C2F0008E908000851
:102F600078270008302B0008DC1A00089C0A0008AB
:102F70001800000078270008140B0008982F00089C
:102F8000DC0A0008F8FFFFFFFC08000885535041E9
:102F900043C5FFFF502F0008E9080008200F000874
:102FA00090300008FC080008834944AE8C2F0008CC
:102FB000E90800085C1700083C0900081F00000031
:102FC000582B00083C300008982F0008FC08000827
:102FD000C22EA2FFA82F0008E90800083C0900083B
:102FE00022000000900F0008341E00089C0A000810
:102FF0002C000000E4040008F8030008F0130008A7
:10300000E40F0008581E0008E826000838100008E1
:1030100050030008840A000814000000F0130008A0
:10302000E40F00085C1700083C300008FC080008AA
:1030300084545950C5FFFFFFD02F0008E90800084D
:10304000DC1A00089C0A000834000000102F000859
:10305000201C0008F8280008741C0008140B000845
:10306000301B0008380B000890300008DC0A00080C
:10307000F0FFFFFF840A000808000000541C00084D
:10308000FC08000884454D49D4FFFFFF303000089C
:103090009530000857F8040BFDF726FF0649087025
:1030A00006490868401C086055F8042B22F003020A
:1030B00052F8043B1847000004480040A4BB01201C
:1030C000834B45D984300008E9080008342F0008F4
:1030D000D8300008FC080008DD300008074A084B1B
:1030E00019688909FCD3106847F8040D55F8042BBA
:1030F00022F0030252F8043B184700000448004045
:1031000000480040843F4B45D9FFFFFFC030000816
:1031100015310008FDF7E8FEFDF7F6FE4040074BCD
:103120001968890900D3013847F8040D55F8042BB4
:1031300022F0030252F8043B184700000048004008
:10314000834352D304310008E908000878270008B7
:10315000140B00086C310008DC0A0008F8FFFFFFC0
:10316000FC0800088243D2FF40310008E90800084B
:103170000C020008F8030008020D0AFFFC08000812
:103180008C0D0A4649534820494F3A0D8AFFFFFFEC
:10319000643100088B495251535F524553554DC518
:1031A00080310008A931000801F0D4F955F8042B4A
:1031B00022F0030252F8043B184700008C49525198
:1031C000535F53555350454EC4FFFFFF94310008E1
:1031D000D531000801F0BCF955F8042B22F00302A8
:1031E00052F8043B184700008F5359535449434B3E
:1031F0005F4952515F4F46C6BC310008013200089A
:1032000004490520086055F8042B22F0030252F807
:10321000043B184710E000E08E5359535449434B88
:103220005F4952515F4FCEFFE8310008313200084C
:1032300004490720086055F8042B22F0030252F8D5
:10324000043B184710E000E08F0D0A494E544552E8
:1032500052555054533A0D8A183200088A464C4150
:1032600053485F534156C5FF48320008E90800083B
:103270008C110008843B00088C2900089C0A000877
:10328000200000006C310008F80300080F4E4F5476
:1032900048494E4720544F2053415645FC080008EA
:1032A0006C330008341E00083C09000800001008B8
:1032B000482900089C0A0008280000006C3100081A
:1032C000F8030008144C41535420464C4153482005
:1032D000415641494C2055534544FFFFFC08000826
:1032E00068100008300F0008341E00087C33000806
:1032F0007C1E00088C110008843300087433000819
:103300007C1E00088C110008843B00084829000836
:103310009C0A00084800000020380008843B000890
:10332000540F00087C1E00087C330008341E00087F
:10333000300F00087C1E000874330008341E00089B
:103340007C0F00087C1E0008303500086C31000836
:10335000A43A0008743A0008FC0800088C11000820
:10336000B0330008840A00089CFFFFFF2909000809
:10337000040000202909000808000020290900088D
:103380000C0000208933000857F8040B064A10404F
:10339000064A1268801847F8040D55F8042B22F0ED
:1033A000030252F8043B1847FFFF0F0004000020FF
:1033B000E908000830120008A01C0008F81B0008EB
:1033C000C8110008A01C0008341E00083C090008B1
:1033D0008B090008482900089C0A00082800000002
:1033E00030270008A01C0008A01C0008341E00089C
:1033F00084330008741C00087C1E0008840A00083E
:1034000000010000A01C0008341E00083C09000850
:103410002909000848290008201C0008341E00085B
:103420003C0900081509000848290008802B0008FD
:103430009C0A000810000000541C0008840A0008C0
:10344000C400000030270008A01C0008341E00083B
:103450003C0900083C090008482900089C0A0008AB
:103460001000000030270008840A0008D8FFFFFF82
:10347000A01C0008341E00083C090008F8030008DE
:10348000482900089C0A000820000000A01C000831
:1034900030270008581E0008F828000838100008D7
:1034A000840A0008A0FFFFFFA01C0008341E0008CB
:1034B0003C090008FC08000848290008142A0008F4
:1034C0009C0A00083C000000A01C0008341E0008F4
:1034D000843B0008FC2900089C0A000868FFFFFFE5
:1034E000A01C0008A01C0008341E0008843300083B
:1034F000741C00087C1E0008840A000848FFFFFFB7
:10350000541C0008B41B0008A4110008A01C0008EB
:10351000341E0008A01C00087C0F00087C1E000858
:1035200084330008741C00087C1E0008FC08000896
:10353000E90800083C09000800000208A01C000877
:103540003C090008040000207C1E0008A01C0008A4
:10355000F81B0008341E00086C3C000820290008F5
:103560009C0A000810000000B41B0008541C00084E
:10357000FC080008D81B00086C3300087C1E0008FB
:10358000D81B00083C09000808000000F8280008C3
:10359000A01C0008341E00087C0F00087C1E0008D8
:1035A00030270008341E0008300F00087C1E000879
:1035B0006C310008F8030008174144444544205783
:1035C0004F5244532046524F4D204144445220FF15
:1035D000D81B0008A02D0008B41B000830270008E5
:1035E000341E0008840A000854FFFFFFE9080008A1
:1035F000A01C0008F8280008F81B0008A01C000800
:10360000341E0008E82600089C0A00083800000064
:103610006C310008F8030008174552415345442017
:1036200042414420464C41534820504147452020C8
:10363000A02D0008541C0008B41B0008541C0008EE
:10364000FC08000830270008A01C0008A01C000887
:10365000D81B0008741C0008202900089C0A0008D8
:103660000C000000840A000898FFFFFF6C3100087E
:10367000F80300080E464C4153482050414745206E
:103680004F4B20FF20290008A02D0008B41B000884
:10369000541C0008FC0800088C464C4153485F4607
:1036A0004F524745D4FFFFFF5C320008E90800088D
:1036B000F80300081754414B45532041424F5554DD
:1036C0002036205345434F4E44532120D03100082B
:1036D000A4390008843900085C0700082A020100A8
:1036E000103C0240843900085C07000832020100E7
:1036F000103C0240843900085C0700083A020100CF
:10370000103C0240843900085C07000842020100B6
:10371000103C0240843900085C0700084A0201009E
:10372000103C0240843900085C0700085202010086
:10373000103C0240843900085C0700085A0201006E
:10374000103C024084390008C4390008A431000844
:10375000983B00088C110008FC2900089C0A00080E
:10376000100000000C3F0008840A00081C00000044
:103770003C090008943F0008843B00083012000810
:10378000A41100087C1E00085C0700080000020865
:10379000040000203C09000811111111A01C0008B0
:1037A000743300087C1E00087C3300087C1E00086F
:1037B000303500086C310008A43A0008743A00085B
:1037C000FC080008C937000857F8040B57F8041B19
:1037D000064A50F8044B42F8044B8842F9D155F898
:1037E000042B22F0030252F8043B1847D0FE0020BD
:1037F0003C090008D0FE0020CC0E0008FC080008A0
:10380000E90800083C090008D83900083C0900080C
:103810002C390008C4370008F0370008FC080008FD
:10382000E9080008D0310008A439000884390008EC
:103830005C07000801020000103C02406C330008E5
:10384000341E0008F81B00083C09000810000000A6
:103850006C3300080C1E0008E40F0008F81B000879
:10386000843B0008A01C0008341E00086C330008CC
:10387000341E00087C1E000884390008B8270008A0
:103880006C3300080C1E000830270008A01C00083C
:10389000D81B0008202900089C0A00080C00000022
:1038A000840A0008C0FFFFFFB41B0008541C000876
:1038B000541C00083C09000800000020341E0008C9
:1038C000D81B00087C1E0008843900086C330008EF
:1038D000341E0008D81B0008302700087C1E000892
:1038E0008439000874330008341E0008D81B00080F
:1038F0009C010008F82800087C1E00088439000894
:103900007C330008341E0008B41B00083C09000882
:103910000C000000F82800087C1E0008843900080C
:10392000C4390008A4310008FC080008E9080008B0
:10393000AC360008D0310008A439000884390008EA
:103940005C07000801020000103C02405C07000810
:1039500000000208040000203C09000810000000DC
:10396000540F00080C1E0008AC0E00082038000898
:10397000AC0E0008AC360008C4390008A4310008B9
:10398000FC08000889390008054908680004FCD2D1
:1039900055F8042B22F0030252F8043B18470000AC
:1039A0000C3C0240E90800085C0700082301674559
:1039B000043C02405C070008AB89EFCD043C0240A8
:1039C000FC080008E90800085C0700080000008007
:1039D000103C0240FC08000884504F46C6FFFFFF21
:1039E00098360008E90800085C070008000000009D
:1039F000CCBB0120FC08000883504FCED83900080A
:103A0000E90800085C070008870E0008CCBB01200D
:103A1000FC08000881D0FFFFF839000829090008D8
:103A2000CCBB01208545484F46C6FFFF143A00082D
:103A3000E9080008782700083C090008D0BB0120ED
:103A40007C1E0008FC0800088445484FCEFFFFFF9D
:103A5000243A0008E9080008882700083C09000803
:103A6000D0BB01207C1E0008FC080008832E44D334
:103A7000483A0008E9080008A8090008180D0008DD
:103A8000BC2D0008340D00083C09000874400008F3
:103A9000801700083C300008FC080008832E56D32D
:103AA0006C3A0008E9080008D0090008180D000861
:103AB000B827000884280008BC2D0008340D000831
:103AC0003C09000869400008801700083C300008E5
:103AD000FC0800088444554DD0FFFFFF9C3A0008C5
:103AE000E9080008201C000878120008180D0008DA
:103AF000882A000878270008140B00086C31000899
:103B0000A01C00083C0900080A000000042D000861
:103B1000B827000878270008140B0008A01C00082C
:103B2000341E00083C0900080E000000042D0008A7
:103B300030270008DC0A0008E4FFFFFF103100080E
:103B40009C0A000808000000941B0008DC0A00081A
:103B5000ACFFFFFF541C00086C310008340D000856
:103B6000FC0800088556424153C5FFFFD43A0008BF
:103B7000290900089CBA01208544424153C5FFFF32
:103B8000643B0008290900081000002085524241CA
:103B900053C5FFFF783B00082909000800000020FA
:103BA00083434CD38C3B0008E9080008F803000865
:103BB000041B5B324AFFFFFFF8030008041B5B3B5A
:103BC00048FFFFFF6C310008FC080008C1A8FFFF98
:103BD000A03B0008E90800083C0900082900000093
:103BE000580B0008142A00089C0A00083400000042
:103BF0006C3100083C0900081000000090300008FB
:103C0000200400083C09000871FA0020581E000832
:103C10009C0A000810000000840A0008BCFFFFFF97
:103C2000FC0800083C0900088640000880170008CE
:103C30003C300008FC080008C1DCFFFFCC3B00085A
:103C4000E908000878270008D00F0008B00F000826
:103C5000341E0008F8280008A01E0008FC08000810
:103C600086535953434CCBFF383C0008713C000845
:103C70000549086847F8040D55F8042B22F00302A3
:103C800052F8043B184700000000002085535443BD
:103C900054D2FFFF603C00082909000898BA0120AF
:103CA0008544454C41D9FFFF8C3C0008B13C0008DD
:103CB00057F8041B57F8040B0C4CC043401C206001
:103CC0000B4A11600B4A1160002806D00A4A10689E
:103CD0000721116021680029FCD1106055F8042BE0
:103CE00022F0030252F8043B1847000098BA012062
:103CF00014E000E018E000E010E000E0824DD3FFA7
:103D0000A03C0008E90800083C090008EFCC0100CD
:103D1000AC3C0008FC08000887574F52444341D48C
:103D2000FC3C0008E9080008E40F0008F81B000844
:103D300078270008EC1000083C0900080D0000007E
:103D4000EC100008E40F00083C0900080D0000001A
:103D5000F0130008A01C0008581E00083C090008C9
:103D60000A000000FC1A0008A01E0008A01C0008A1
:103D7000E8260008001000083C0900088400000044
:103D8000F8280008D81B0008A01E00083C090008FD
:103D90000D000000EC1000083C0900088A0000003B
:103DA000EC100008681000088C110008C41000080E
:103DB000B41B00083C090008C8BB01207C1E000899
:103DC000FC08000885574F5244D3FFFF183D0008F8
:103DD000E9080008A82700085C2F00088C110008DB
:103DE000102F000878270008201C0008E82600088B
:103DF000581E00083C0900080D0000004829000872
:103E0000142A00089C0A00081C000000541C00082A
:103E1000A01C000830120008A4110008201C000893
:103E200020290008A00F0008341E0008F828000808
:103E30003C0900084A000000FC2900089C0A000810
:103E4000100000006C310008A82700085C2F000853
:103E5000A01C0008440F0008341E00088C2900082C
:103E60009C0A00080C000000840A000854000000AE
:103E7000A01C0008B02F0008982700085C2F00083D
:103E8000A01C0008E8260008581E00083C0900088D
:103E90000D000000482900089C0A000808000000E6
:103EA0000C02000830120008A4110008341E00089B
:103EB000A01C0008142A00089C0A000828FFFFFF25
:103EC000541C00086C310008FC080008874D595745
:103ED0004F5244D3C43D0008E90800085C070008BD
:103EE00000000208C4BB0120D03D00085C070008A8
:103EF00000000000C4BB0120FC08000889464953AB
:103F0000485F4F4E4CD9FFFFCC3E0008113F0008E0
:103F100009490A4C21600A4C21600A490A4C216077
:103F20000A4C21600A490B4C216055F8042B22F001
:103F3000030252F8043B1847943F0008C8BB012015
:103F4000080000209CBA0120B8BB01200C00002012
:103F500010000020BCBB012084464953C8FFFFFF6E
:103F6000FC3E0008E908000830350008C4060008D7
:103F7000FC080008990D0A464953482052656665B9
:103F800072656E6365204D6F64656C3A0D8AFFFF44
:103F9000583F0008890D0A4750494F3A0D8AFFFFE4
:103FA000743F0008A93F000880468946AA46264873
:103FB000264C03680021016002684A4042D124492E
:103FC000016002684A403DD10100016002684A4038
:103FD00038D1C143016002684A4033D11D492025D0
:103FE000016002684A402DD14900491C6D1EF7D17D
:103FF00001212025016002684A4023D149006D1E3D
:10400000F8D114492025016002684A401AD14900BC
:104010006D1EF8D101212025016002684A4011D1AE
:104020004900491C6D1EF7D10360001DA042C0D39A
:1040300040464946554655F8042B22F0030252F8F3
:10404000043B1847FEE700000000002000C00120EC
:10405000FFFFFFFFFEFFFFFF0352554E2000203FF2
:104060002000203C43523E20005641522043454C04
:104070004C53200044494354494F4E415259204229
:1040800059544553200020434F4D4D454E54204C2C
:10409000494E452043414E4E4F5420424520454D08
:1040A0005054592015002043414E5420464F52474A
:1040B0004554204649534820494E20464C415348D8
:1040C00020150020494E20464C415348202D2053B6
:1040D000454520464C4153485F464F524745542082
:1040E00015002044494354494F4E415259204655EA
:1040F0004C4C202D20534545202E445320150020A4
:1041000052414D205641522053504143452046557F
:104110004C4C202D20534545202E56532015002071
:10412000495320414C524541445920444546494E4B
:104130004544201500203F204E4F5420574F5244F5
:10414000201500203F204E4F5420574F5244204FFF
:1041500052204E554D4245522015002043415553A3
:104160004544204120535441434B204552524F5225
:1041700020150020535441434B204552524F5220AA
:104180005748494C4520455845435554494E4720CA
:104190004F5220434F4D50494C494E472015002067
:1041A0004552524F52202D204E4F5420434F4D50D8
:1041B000494C494E47201500204552524F52202D60
:1041C000204558454355544544205748494C4520BF
:1041D000434F4D50494C494E47201500E90800080F
:1041E0005C07000805070000003C0240FC080008CE
:1041F000F54100084CF20004C2F201044FF0000344
:104200004FF0800C53F8042B44F8042BBCF1010C44
:10421000F8D155F8042B22F0030252F8043B18475A
:10422000E9080008F04100085C07000800C0012010
:1042300008ED00E07407000800380240900700080D
:1042400001000000D0070008003802405C070008A9
:1042500000000000083802407407000800380240DF
:10426000B0070008FFFFF6FED00700080038024044
:104270005C0700081030002404380240740700086E
:1042800000380240B0070008FFFFFBFFD00700081E
:10429000003802405C070008000000000C380240B3
:1042A0007407000800380240900700080000010071
:1042B000D0070008003802404C08000874070008C6
:1042C00000380240B007000800000200640800083F
:1042D00074070008403802409007000800000010F2
:1042E000D007000840380240740700080070004002
:1042F0009007000800400000D00700080070004050
:104300003C090008083802403C0900080000000091
:10431000081D00083C090008083802403C09000854
:1043200000800000081D00083C0900080838024011
:104330003C09000800140000081D00085C07000884
:104340000A3B400504380240740700080038024068
:104350009007000800000001D00700080038024064
:104360004C0800087407000800380240B007000835
:104370000000000264080008DC410008740700081F
:1043800008380240B0070008FCFFFFFFD007000814
:1043900008380240740700080838024090070008F7
:1043A00002000000D0070008083802404C0800084E
:1043B0007407000808380240B00700080C0000002D
:1043C0003C090008080000004829000864080008AB
:1043D0005C07000800300050843802407407000871
:1043E000003802409007000800000004D0070008D1
:1043F000003802404C0800087407000800380240EA
:10440000B007000800000008640800085C07000806
:1044100080890807000000203C090008303802406D
:104420003C09000887000000081D00083C0900083E
:10443000403802403C09000800000400081D000844
:104440005C07000800770000240802401C080008F0
:10445000000802400300F0000100A0005C07000813
:104460000C2000000C4800405C070008070000001A
:1044700010E000E03C090008303802403C09000828
:1044800002000000081D00083C09000844380240F2
:104490003C09000800100000081D00083C09000845
:1044A000200402403C09000800505500081D000887
:1044B0003C090008000402403C090008850A005538
:1044C000081D00083C090008003001403C090008B4
:1044D0003D030000081D00083C09000800300140B1
:1044E0003C09000840000000081D00083C090008C5
:1044F000140402403C09000801700000081D000877
:104500003C090008000802403C0900081554050059
:10451000081D00083C090008140802403C09000876
:10452000C0030000081D0008FC080008BFF34F8FFF
:104530000548016811F4E061044801430248016044
:10454000BFF34F8FFEE700000CED00E00400FA051A
:1045500072B6704762B6704780B5FFF7E7FF01BDDE
:10456000FCF7F6BBFFF7FEBFFFF7FEBFFFF7FEBF8E
:10457000FFF7FEBFFFF7FEBFFFF7FEBFFFF7FEBF6F
:10458000FCF720BCFFF7FEBFFFF7FEBFFFF7FEBF43
:10459000FFF7FEBFFFF7FEBFFFF7FEBFFFF7FEBF4F
:1045A000FFF7FEBFFFF7FEBFFFF7FEBFFFF7FEBF3F
:1045B000FFF7FEBFFFF7FEBFFFF7FEBFFFF7FEBF2F
:1045C000FFF7FEBFFFF7FEBFFFF7FEBFFFF7FEBF1F
:1045D000FFF7FEBFFFF7FEBFFFF7FEBFFFF7FEBF0F
:1045E000FFF7FEBFFFF7FEBFFFF7FEBFFFF7FEBFFF
:1045F000FFF7FEBFFFF7FEBFFFF7FEBFFFF7FEBFEF
:10460000FFF7FEBFFFF7FEBFFFF7FEBFFFF7FEBFDE
:10461000FFF7FEBFFFF7FEBFFFF7FEBFFFF7FEBFCE
:10462000FFF7FEBFFFF7FEBFFFF7FEBFFFF7FEBFBE
:10463000FFF7FEBFFFF7FEBFFFF7FEBFFFF7FEBFAE
:10464000FFF7FEBFFFF7FEBFFFF7FEBFFFF7FEBF9E
:10465000FFF7FEBFFFF7FEBFFFF7FEBFFFF7FEBF8E
:10466000FFF7FEBFFFF7FEBFFFF7FEBFFFF7FEBF7E
:10467000FFF7FEBFFFF7FEBFFFF7FEBFFFF7FEBF6E
:10468000FFF7FEBFFFF7FEBFFFF7FEBFFFF7FEBF5E
:10469000FFF7FEBFFFF7FEBFFFF7FEBFFFF7FEBF4E
:1046A000FFF7FEBFFFF7FEBFFFF7FEBFFFF7FEBF3E
:1046B000FFF7FEBFFFF7FEBFFFF7FEBFFFF7FEBF2E
:0C46C000FFF7FEBFFFF7FEBFFFF7FEBFD5
:0400000500000000F7
:00000001FF
