:020000040800F2
:1000000000000220A1440008A5440008994400080B
:10001000A9440008AD440008B144000800000000F5
:10002000000000000000000000000000B5440008CF
:10003000B944000800000000BD440008C1440008A5
:10004000C5440008C9440008CD440008D144000854
:10005000D5440008D9440008DD440008E144000804
:10006000E5440008E9440008ED440008F1440008B4
:10007000F5440008F9440008FD4400080145000863
:1000800005450008094500080D4500081145000810
:1000900015450008194500081D45000821450008C0
:1000A00025450008294500082D4500083145000870
:1000B00035450008394500083D4500084145000820
:1000C00045450008494500084D45000851450008D0
:1000D00055450008594500085D4500086145000880
:1000E00065450008694500086D4500087145000830
:1000F00075450008794500087D45000881450008E0
:1001000085450008894500088D450008914500088F
:1001100095450008994500089D450008A14500083F
:10012000A5450008A9450008AD450008B1450008EF
:10013000B5450008B9450008BD450008C14500089F
:10014000C5450008C9450008CD450008D14500084F
:10015000D5450008D9450008DD450008E1450008FF
:10016000E5450008E9450008ED450008F1450008AF
:10017000F5450008F9450008FD450008014600085E
:100180000546000809460008E90800083C0900087F
:100190000700000084300008FC0800082909000856
:1001A00008000000E90800089C01000884300008ED
:1001B0008C2F00089C01000884300008941C000863
:1001C000A40F0008281E0008EC2800086C2700086F
:1001D000681C0008941E00083C090008FCFFFFFF93
:1001E000940F0008001E0008DC2D0008A40F000872
:1001F000001E0008FC080008E90800085C07000869
:1002000000000000A0BB0120FC080008E90800086D
:100210005C07000800000000A4BB0120FC080008E7
:10022000E9080008180D00085C0F0008701E00089F
:100230000C1A0008340D0008FC080008E908000842
:100240005C0F0008281E0008941C00088C2700087A
:100250003C2900089C0A0008180000003C0900081E
:100260006200000084300008481C0008FC080008F8
:100270003C0900080A0000003C2900089C0A00080C
:10028000140000003C0900086400000084300008ED
:10029000FC0800083C0900086800000084300008E1
:1002A000FC080008E9080008402600086C27000840
:1002B000A42500083C020008FC080008E908000822
:1002C0006C2700086C270008A42500083C020008E1
:1002D000FC080008E9080008180D0008941C000834
:1002E0005C0F0008701E00083C0900080A000000AE
:1002F0003C2900089C0A000810000000A402000825
:10030000840A000808000000BC0200088C2F0008C6
:10031000340D0008FC08000829090008ACBB0120C6
:1003200029090008B0BB012029090008D4BB01201D
:1003300029090008DCBB0120E90800083C09000885
:10034000D6400008741700083030000890180008E4
:10035000E9080008480F0008001E0008FC08000813
:10036000E90800085C100008D80F0008701E00089B
:10037000AC27000850030008FC080008E908000842
:10038000840F0008281E0008082A00083C090008FD
:1003900093410008CC120008FC080008E908000896
:1003A000840F0008281E00083C090008AC41000822
:1003B000CC120008FC080008E9080008142900080D
:1003C0003C09000867410008CC120008FC0800083E
:1003D000E9080008441B000818030008281E00084C
:1003E000681C0008B02900083C0900084F410008BB
:1003F000CC120008FC080008E9080008A81B000847
:10040000941C0008501700083030000850170008EE
:10041000EC2800082C100008EC1B0008FC08000861
:10042000E9080008C40F00083C0900085E0000004D
:10043000001600085C07000801000000A0BB0120B6
:10044000FC080008E9080008DC260008941C0008E5
:10045000EC1B00084C1E00085C0F0008281E00085A
:10046000FC1200089C0A000858000000681C0008E4
:100470005C0F0008281E0008600C0008481C0008DB
:10048000F01A00085C0F0008281E0008600C000825
:100490000426000894250008281E0008DC26000811
:1004A0009C0A0008100000007C2700089425000822
:1004B000001E0008A81B0008840A00088CFFFFFF2C
:1004C000A81B0008FC080008E9080008140F000831
:1004D000E4130008D80F000880110008F80900088C
:1004E000FC080008E9080008A81B0008941C000884
:1004F00024270008EC1B0008281E000860030008E1
:10050000FC080008E9080008EC1B00086C2700083C
:10051000CC1B0008880C0008A81B0008681C0008F9
:10052000EC1B0008880C0008A81B0008FC08000849
:10053000E9080008441B000828030008701E000892
:10054000FC080008E9080008441B0008280300080C
:10055000281E0008142900083C0900084F41000823
:10056000CC120008FC080008E9080008C8040008CC
:100570009C0A00083C000000840F0008281E0008A8
:10058000802900089C0A000814000000BC11000823
:1005900060030008840A00080C000000BC11000879
:1005A000C00E0008D0030008840A0008C0FFFFFF47
:1005B000D80F00085C14000894250008281E0008C5
:1005C000DC2600089C0A000810000000541F0008E8
:1005D000840A00080C000000481C0008841F000862
:1005E000D0030008840A000884FFFFFFE908000820
:1005F000F81E0008E00C0008FC0C000820040008AD
:1006000068050008840F0008281E0008082A000852
:100610009C0A0008380000003C090008CCBB0120FF
:10062000281E00089C0A0008240000003C0900085D
:10063000CCBB0120281E00087417000830300008C9
:100640005C0F0008281E0008B02D00083C090008B7
:10065000100000008430000860310008840A00089F
:1006600098FFFFFFE9080008D80F000814290008C8
:10067000B8100008FC080008E90800085C0700083A
:1006800000000000C0BB0120FC0800082909000888
:10069000C0BB0120E9080008342A00089C0A0008B1
:1006A00008000000BC2A0008FC080008E90800084F
:1006B000342A00089C0A000808000000642500088D
:1006C000FC080008E9080008603100083C0900083F
:1006D000E00D000874170008303000083C090008DD
:1006E0006F0E000874170008303000083C0900083D
:1006F0007C0E0008741700083030000860310008D4
:10070000FC080008E9080008BC08000824350008B7
:10071000FC080008E9080008681C0008141C000810
:10072000EC2800083C0900087F000000141C0008A9
:100730004C1E0008802900089C0A0008E0FFFFFF0B
:10074000681C0008481C0008FC080008013055F827
:10075000042B22F0030252F8043B184761070008FB
:1007600002CD04CD116055F8042B22F0030252F89B
:10077000043B18477907000855F8040B006847F850
:10078000040D55F8042B22F0030252F8043B1847DD
:100790009507000855F8042B57F8040B104347F849
:1007A000040D55F8042B22F0030252F8043B1847BD
:1007B000B507000855F8042B57F8040B104047F80C
:1007C000040D55F8042B22F0030252F8043B18479D
:1007D000D507000855F8043B57F8040B186055F886
:1007E000042B22F0030252F8043B1847F1070008DB
:1007F00057F8043B57F8041B57F8040B1A6822EA11
:10080000010200EA010042EA00021A6055F8042BD6
:1008100022F0030252F8043B1847000021080008A8
:1008200055F8043B55F8044B55F804CB1A6822EAF6
:1008300004020CEA040C42EA0C021A6055F8042B7C
:1008400022F0030252F8043B184700005108000848
:1008500046F8045D55F8042B22F0030252F8043BDD
:10086000184700006908000857F8040B00280CBF5F
:100870003568361D55F8042B22F0030252F8043B6C
:10088000184700000A0000000000000000000000FF
:100890000000000000C00120F0BD012070FA00201F
:1008A0009CBA0120100000200000000000000000A1
:1008B000883F00087E0E000800000000C108000804
:1008C000074808490E2203680B60001D091D521ECF
:1008D000F9D155F8042B22F0030252F8043B1847D3
:1008E000840800089CBB012046F8045D154655F8B5
:1008F000042B22F0030252F8043B184701090008B8
:1009000056F8045B55F8042B22F0030252F8043B1E
:100910001847000001CA47F8040D55F8042B22F0CF
:10092000030252F8043B184701CA47F8040D55F872
:10093000042B22F0030252F8043B18474109000837
:1009400055F8040B47F8040D55F8042B22F0030268
:1009500052F8043B184700005D09000855F8040BE5
:1009600047F8040D55F8042B22F0030252F8043B1B
:10097000184700007909000857F8045B55F8042B64
:1009800022F0030252F8043B1847000046F8045DC9
:100990004568083047F8040D55F8042B22F003028F
:1009A00052F8043B18470000AD0900080648074903
:1009B0000968401A47F8040D55F8042B22F0030289
:1009C00052F8043B1847000010FA0020BCBB01207D
:1009D000D5090008064807490968401A47F8040D78
:1009E00055F8042B22F0030252F8043B184700008C
:1009F0009CBB0120B8BB0120FD09000857F8043B4F
:100A000057F8042B93465A46187884461178484084
:100A10003F2420401DD1521C5B1C1878117888425D
:100A2000F9D08024001B884214D15B1C1878FF2861
:100A3000FBD0083347F8043D0120624647F8042DF7
:100A400047F8040D55F8042B22F0030252F8043B3A
:100A500018475B1C187880242042FAD01B1D0848D8
:100A600003401B68002B00D0CDE7002047F8040DA1
:100A700055F8042B22F0030252F8043B18470000FB
:100A8000FCFFFFFF890A00082B68ED1855F8042BBE
:100A900022F0030252F8043B18470000A10A0008A4
:100AA00057F8040B00283FF4EFAF2D1D55F8042B29
:100AB00022F0030252F8043B18470000C10A000864
:100AC00057F8040B00287FF4DFAF2D1D55F8042BD9
:100AD00022F0030252F8043B18470000E10A000824
:100AE000012374683268944204D0D2183260A41A88
:100AF0007FF4CAAF08362D1D55F8042B22F00302EF
:100B000052F8043B184700000D0B000857F8043B4F
:100B1000FFF7E7BF190B000857F8040B57F8042B31
:100B200046F8042D46F8040D55F8042B22F0030274
:100B300052F8043B184700003D0B000857F8040B1F
:100B400000787F21084047F8040D55F8042B22F067
:100B5000030252F8043B18475D0B000857F8041BCA
:100B60000B4A92460B4B1C6812191078521C884293
:100B700001D00028F9D15446121B1A7047F8040D11
:100B800055F8042B22F0030252F8043B18470000EA
:100B900070FA0020A0BB01209D0B000857F8041B31
:100BA00057F8042B10784840107055F8042B22F0A9
:100BB000030252F8043B1847BD0B00080A21884283
:100BC00005D157F8040B0D2047F8040D02E00D2164
:100BD000884203D100F082F900F088F955F8042B1F
:100BE00022F0030252F8043B18470000F10B000802
:100BF0003868017801290FD0022914D001440A78FD
:100C0000622A1AD0252A18D0642A18D0232A16D08E
:100C1000682A16D0242A14D055F8042B22F0030297
:100C200052F8043B184782782E2AE7D155F8042B56
:100C300022F0030252F8043B1847022402E00A247F
:100C400000E0102400220A70044A146055F8042BB6
:100C500022F0030252F8043B184700009CBB01201D
:100C6000650C000857F8040B57F8041BA0FB012083
:100C700047F8042D47F8040D55F8042B22F0030221
:100C800052F8043B184700008D0C000857F8040B7D
:100C900057F8043B57F8042B002812D093F0000FAC
:100CA0000FD10146B2FBF0F000FB112247F8042DF2
:100CB00047F8040D55F8042B22F0030252F8043BC8
:100CC00018474040401E024647F8042D47F8040DDF
:100CD00055F8042B22F0030252F8043B1847000099
:100CE000E50C0008044A176855F8042B22F00302AB
:100CF00052F8043B18470000ACBB0120010D00086E
:100D0000044A166855F8042B22F0030252F8043BFB
:100D100018470000B0BB01201D0D0008044A1168EF
:100D20008C4655F8042B22F0030252F8043B184776
:100D30009CBB0120390D0008044A6146116055F83A
:100D4000042B22F0030252F8043B18479CBB0120FD
:100D500009490A480A4C0160001DA042FBD3094F13
:100D6000094E0FF2280546F8045D55F8042B22F0D1
:100D7000030252F8043B1847111111110000002022
:100D800000C2012000C00120F0BD0120983F0008F2
:100D9000BC080008144200080C2E0008603100084E
:100DA0003C090008FB000000843000083C090008F2
:100DB000F700000084300008603100088C1900083A
:100DC00008CA9F4603B502490868401C086003BD75
:100DD00098BA0120D90D000856F8045BBDE83F9C85
:100DE0004649534820524D2056347468204F454D93
:100DF000207E2041524D2044656275675372632006
:100E000020313031302C31313030202D2045484FC9
:100E10004E2F45484F4646202D312054727565208F
:100E2000466C61672053544D33324632303552435D
:100E3000205354502052504D20426F617264204024
:100E40003131384D687A20284329323031342D32FF
:100E500030313820412D5445414D20464F525448A1
:100E6000203A204F6374203238203230313800204D
:100E700061742031393A34353A3430001500206F2E
:100E80006B2C20676F206669736820696E20424171
:100E900053452000844E4F4FD0FFFFFF000000005D
:100EA000A50E000855F8042B22F0030252F8043B6B
:100EB0001847000087455845435554C5940E00080F
:100EC000C50E000800F00AF800F010F857F8042BDF
:100ED00022F0030252F8043B184700007246024C0D
:100EE0002168090AFCD310470048004072460249B5
:100EF00013240C7010470000044800407246024959
:100F000011240C7010470000044800408242CCFFBE
:100F1000B40E000829090008200000008255D0FF07
:100F20000C0F000829090008B8BB01208546454E72
:100F300043C5FFFF1C0F000829090008C4BB01209E
:100F40008244D0FF2C0F000829090008BCBB0120F7
:100F500084424153C5FFFFFF400F000829090008E4
:100F60009CBB01208743555252454ED4500F000878
:100F700029090008C8BB01208553544154C5FFFF0F
:100F8000640F000829090008A8BB0120834F55D42D
:100F9000780F000829090008A4BB01208249CEFF70
:100FA0008C0F000829090008A0BB0120835041C410
:100FB0009C0F00082909000810FA0020835449C238
:100FC000AC0F00082909000870FA00208448455237
:100FD000C5FFFFFFBC0F0008E9080008480F000824
:100FE000281E0008FC08000885414C4C4FD4FFFF28
:100FF000CC0F0008E9080008A8090008141C000824
:1010000014290008342A00089C0A0008080000007F
:1010100038030008480F0008001E0008FC080008FC
:1010200087414C49474E45C4E80F0008311000087D
:1010300057F8040BC01C0549084047F8040D55F843
:10104000042B22F0030252F8043B1847FCFFFFFF79
:1010500085414C4947CEFFFF20100008E9080008F1
:10106000D80F00089C270008EC280008941C0008F2
:10107000EC1B0008D80F0008140B00083C090008FE
:10108000FF000000241B0008941E0008DC0A000872
:10109000ECFFFFFFA81B00083C090008FCFFFFFF56
:1010A0004C2B0008480F0008701E0008FC080008C0
:1010B00081ACFFFF50100008E9080008A8090008EB
:1010C000342A00089C0A00080800000038030008C1
:1010D00060030008FC0800088243ACFFB010000861
:1010E000E9080008A8090008342A00089C0A00083A
:1010F0000800000038030008D80F0008941E0008FC
:101100007C27000850030008FC080008885641525C
:10111000414C4C4FD4FFFFFFD8100008E9080008ED
:10112000D0090008AC27000878280008141C000823
:1011300014290008342A00089C0A0008180000003E
:101140003C090008F340000874170008303000081C
:1011500090180008240F0008281E0008681C0008CA
:10116000AC2700083C280008240F0008001E0008D7
:10117000FC080008864C41544553D4FF0C1100086C
:10118000E9080008700F0008281E0008FC08000885
:10119000834C46C1741100089D11000857F8040BD8
:1011A000083847F8040D55F8042B22F0030252F8D2
:1011B000043B1847834346C190110008C111000841
:1011C00057F8040B001F47F8040D55F8042B22F0C4
:1011D000030252F8043B1847834E46C1B41100087D
:1011E000E90800089C01000814290008B826000836
:1011F000941C00084C1E00083C090008FF00000079
:10120000142900089C0A0008E4FFFFFF3C090008BD
:10121000FFFFFFFF14070008FC080008835046C1C9
:10122000D8110008E90800087C2700081407000806
:10123000DC260008941C00084C1E00083C0900082D
:10124000FF000000142900089C0A0008E4FFFFFFCB
:101250009C010008EC280008FC080008883F414C6D
:1012600049474E45C4FFFFFF1C120008E90800086B
:101270003C090008030000004C2B00089C0A0008F1
:101280003C000000F80300082E56414C5545204D07
:10129000555354204245204556454E204E4F54202C
:1012A0004F444420414E44204D554C5449504C45E8
:1012B000204F4620342120FF90180008FC08000829
:1012C000863F4552524FD2FF5C120008E9080008E1
:1012D000681C00089C0A000810000000581500084F
:1012E000840A000808000000481C0008FC080008E8
:1012F0008544494749D4FFFFC01200080113000884
:1013000057F8042B57F8040B303813D4092802DDA2
:10131000C01F0A280EDB90420CDA0246012047F873
:10132000042D47F8040D55F8042B22F0030252F85F
:10133000043B1847002047F8040D55F8042B22F011
:10134000030252F8043B184787454E434C4F53C5A0
:10135000F01200085913000857F8040B39680022EE
:10136000521E491E491C521C0B789842FAD047F86D
:10137000042D002B0CD11846521C47F8042D47F8B9
:10138000040D55F8042B22F0030252F8043B1847D1
:10139000491C521C0B78984201D0002BF8D1104602
:1013A000401C47F8042D47F8040D55F8042B22F093
:1013B000030252F8043B1847C180FFFF481300089E
:1013C000C513000856F8045B55F8042B22F00302FD
:1013D00052F8043B1847000084574F52C4FFFFFFE8
:1013E000B8130008E9080008C40F0008A40F00089B
:1013F000281E0008EC280008681C00085413000888
:10140000A40F0008001E0008141C0008142900087E
:10141000EC1B0008CC1B0008D80F0008941E000825
:10142000EC280008D80F0008DC260008CC1B0008B8
:10143000541D00086C270008D80F0008DC2600089F
:10144000A81B0008EC280008941E0008FC080008EF
:10145000864E554D4245D2FFD8130008E9080008D2
:10146000180D0008EC0B00086C2700086C2700081A
:10147000F01A0008941C0008DC2600084C1E000826
:101480003C0900082D0000003C2900087C270008CA
:101490004C2B0008941C0008EC1B0008EC280008EA
:1014A0003C090008FFFFFFFF94250008701E00089C
:1014B00044040008941C00084C1E00086C27000817
:1014C000142900089C0A000868000000941C000809
:1014D0004C1E00083C0900082E00000014290008DA
:1014E0009C0A000840000000941C00084C1E0008E4
:1014F0003C0900082C0000003C2900089C0A000858
:1015000010000000DC2D0008840A00089CFFFFFF8B
:10151000340D00087C2700083C090008374100080A
:10152000CC1200086C270008840A00087CFFFFFF2B
:10153000481C0008A81B00089C0A000808000000BE
:1015400064250008340D0008FC0800088545525247
:101550004FD2FFFF50140008E9080008D80F000818
:1015600050170008303000087417000830300008A9
:10157000042F0008840F0008281E00089C0A000899
:10158000400000008C060008281E00089C0A000885
:10159000300000008C060008281E000824120008F5
:1015A00098110008281E0008700F0008701E00081F
:1015B0008C060008281E0008480F0008701E00084E
:1015C0007806000890180008C1A7FFFF4C15000816
:1015D000E9080008C8040008082A00083C090008B7
:1015E00029410008CC120008481C0008841F00088C
:1015F000FC080008864558504543D4FFC81500082C
:10160000E90800080C020008F8010008DC260008C0
:10161000141C0008EC280008141C0008DC26000834
:10162000282F0008140B0008CC300008B80B000865
:10163000941C00083C090008090000003C2900082F
:101640009C0A00080C000000481C0008140F000849
:10165000941C00089C0100083C290008141C000888
:101660003C0900087F0000003C290008742B00089A
:101670009C0A000850000000481C0008941C000848
:10168000241B0008B82600083C290008941C000808
:10169000A81B00088C27000814290008EC28000863
:1016A000EC1B00089C0A00081000000088010008DC
:1016B000840A00086C000000A4010008840A0008E5
:1016C00060000000941C00083C0900080D000000A8
:1016D0003C2900089C0A00081C000000881B000828
:1016E000481C0008140F00086C270008840A000832
:1016F00008000000941C0008241B0008941E000829
:101700007C270008A40F0008001E00086C270008B2
:10171000241B0008DC260008941E00088430000802
:10172000DC0A000804FFFFFF042F0008DC26000885
:1017300074170008681C0008B8260008941E0008EA
:10174000FC08000885434F554ED4FFFFF4150008F0
:10175000E9080008941C0008DC260008681C000842
:101760004C1E0008FC08000884244C45CEFFFFFFF7
:1017700044170008791700083A684040115C094393
:1017800001D0401CFAE747F8040D55F8042B22F06D
:10179000030252F8043B184786464F524745D4FF90
:1017A00068170008E9080008D0150008941C000814
:1017B0003C09000800000208802900083C090008D4
:1017C0009A400008CC120008941C00083C0900084C
:1017D00000001008802900083C090008B7400008F4
:1017E000CC120008941C000898110008EC1B00089B
:1017F000801100082412000898110008941C0008A9
:10180000281E0008700F0008701E0008941C0008B5
:1018100024270008281E00083C09000815090008B4
:101820003C2900089C0A0008140000003C0900083C
:10183000FCFFFFFF240F0008001E0008CC1B00085F
:101840003C2900089C0A0008A8FFFFFFA81B00080D
:10185000281E0008700F0008701E0008E011000824
:10186000480F0008701E0008983A0008683A0008FF
:10187000FC080008834259C5981700088118000821
:10188000FFF766BA8541424F52D4FFFF7418000833
:10189000E9080008E00C0008FC0C00080C02000835
:1018A0003C0900084C40000880110008F8090008B5
:1018B0009C0A000810000000481C0008BC11000829
:1018C000C00E00083C090008D0BB0120281E0008FB
:1018D0009C0A00086C0000003C090008441900083C
:1018E0007417000830300008043100089C0A000812
:1018F000F8FFFFFFCC3000083C090008430000005F
:101900003C2900089C0A0008E0FFFFFFCC300008DB
:101910003C0900084F0000003C2900089C0A000810
:10192000C8FFFFFFCC3000083C0900080D00000094
:101930003C2900089C0A0008B0FFFFFF6031000846
:10194000EC050008204572726F722048616C7420AB
:101950002845484F4E2F45484F464629202D2054B4
:101960006F20434F6E74696E7565205479706520E1
:10197000434F207468656E20456E7465723A20008E
:1019800084434F4CC4FFFFFF84180008E908000897
:1019900004070008C4060008EC050008900D0A467C
:1019A0004953482053797374656D3A0D8AFFFFFFE0
:1019B00080190008832E53C89C190008E908000804
:1019C0003C0900081000000020020008FC08000884
:1019D000832E53C4B4190008E90800083C09000824
:1019E0000A00000020020008FC080008832E53C2F1
:1019F000D0190008E90800088C2700082002000818
:101A0000FC080008822ED3FFEC190008E908000842
:101A100018030008281E0008441B0008242700089B
:101A20003C290008082A00089C0A000868000000F9
:101A3000F803000805544F533E20FFFF1803000829
:101A4000281E0008441B000824270008140B000867
:101A5000241B0008281E00085C0F0008281E000830
:101A60003C0900080A0000003C2900089C0A000804
:101A700010000000A4020008840A0008080000000A
:101A8000BC0200088C2F0008AC270008080B0008D7
:101A9000C0FFFFFFFC08000884324455D0FFFFFF61
:101AA000041A0008A91A000838687A6847F8042D53
:101AB00047F8040D55F8042B22F0030252F8043BBA
:101AC00018470000842D4455D0FFFFFF981A0008E6
:101AD000E9080008941C00089C0A0008080000009F
:101AE000941C0008FC08000883524FD4C41A000854
:101AF000F51A000857F8042B57F8041B57F8040B85
:101B000047F8041D47F8042D47F8040D55F8042B39
:101B100022F0030252F8043B1847000081C9FFFF7E
:101B2000E81A0008291B0008306847F8040D55F82A
:101B3000042B22F0030252F8043B1847835350C091
:101B40001C1B0008491B0008384647F8040D55F8CF
:101B5000042B22F0030252F8043B1847835250C072
:101B60003C1B0008691B0008304647F8040D55F877
:101B7000042B22F0030252F8043B1847854C4541E0
:101B800056C5FFFF5C1B00088D1B000832687260A1
:101B900055F8042B22F0030252F8043B18470000CA
:101BA0008252BEFF7C1B0008AD1B000856F8040BD8
:101BB00047F8040D55F8042B22F0030252F8043BB9
:101BC0001847000081D2FFFFA01B0008D11B0008AE
:101BD000306847F8040D55F8042B22F0030252F840
:101BE000043B1847823ED2FFC41B0008F11B0008CB
:101BF00057F8041B46F8041D55F8042B22F0030285
:101C000052F8043B18470000844F5645D2FFFFFFAF
:101C1000E41B0008191C000857F8042B57F8040BA4
:101C200047F8040D47F8042D47F8040D55F8042B28
:101C300022F0030252F8043B184700008444524F3C
:101C4000D0FFFFFF081C00084D1C00083F1D55F881
:101C5000042B22F0030252F8043B184784535741E7
:101C6000D0FFFFFF3C1C00086D1C000857F8042B38
:101C700057F8040B47F8042D47F8040D55F8042BCA
:101C800022F0030252F8043B18470000834455D069
:101C90005C1C0008991C0008386847F8040D55F8CA
:101CA000042B22F0030252F8043B1847900D0A530C
:101CB0007461636B2053747566663A0D8AFFFFFF8B
:101CC0008C1C000887414E44424954D3AC1C000888
:101CD000D51C000857F8042B57F8041B086810405F
:101CE000086055F8042B22F0030252F8043B184711
:101CF00087534554424954D3C41C0008011D0008B1
:101D000057F8042B57F8041B08681043086055F86F
:101D1000042B22F0030252F8043B184787434C522D
:101D2000424954D3F01C00082D1D000857F8042B1D
:101D300057F8041B08689043086055F8042B22F0FC
:101D4000030252F8043B184785434D4F56C5FFFF29
:101D50001C1D0008591D000857F8041B57F8042BD8
:101D600057F8043B002907D018781070491E002945
:101D700002D0521C5B1CF7D155F8042B22F0030251
:101D800052F8043B184700008446494CCCFFFFFF43
:101D9000481D0008991D000857F8040B57F8041B4C
:101DA00057F8042B002904D08B181070521C9A424B
:101DB000FBD155F8042B22F0030252F8043B1847DC
:101DC0008545524153C5FFFF881D0008E9080008FA
:101DD0006C270008941D0008FC08000886424C414E
:101DE0004E4BD3FFC01D0008E9080008140F00087F
:101DF000941D0008FC080008822BA1FFDC1D0008D0
:101E0000051E000857F8041B57F8040B0A688018D1
:101E1000086055F8042B22F0030252F8043B1847DF
:101E200081C0FFFFF81D00082D1E000857F8041B95
:101E3000086847F8040D55F8042B22F0030252F805
:101E4000043B18478243C0FF201E0008511E0008B3
:101E500057F8041B087847F8040D55F8042B22F0B6
:101E6000030252F8043B184781A1FFFF441E0008FB
:101E7000751E000857F8040B57F8041B016055F84D
:101E8000042B22F0030252F8043B18478243A1FFBF
:101E9000681E0008991E000857F8040B57F8041B29
:101EA000017055F8042B22F0030252F8043B184746
:101EB0009F0D0A5265616420616E642057726974D7
:101EC00065204D656D6F727920576974683A0D8A87
:101ED0008C1E000881DDFFFFB01E0008E908000825
:101EE0005C070008C0000000A8BB0120FC08000837
:101EF000C1DBFFFFD41E0008E90800085C070008EA
:101F000000000000A8BB0120FC080008C95B434F8B
:101F10004D50494C45DDFFFFF01E0008E908000860
:101F2000C8040008082A00083C0900084F410008BE
:101F3000CC120008481C0008BC110008B8100008AA
:101F4000FC080008C8444C4954455241CCFFFFFFEF
:101F50000C1F0008E9080008840F0008281E00086C
:101F60009C0A000810000000681C0008841F00087C
:101F7000841F0008FC080008C74C4954455241CC56
:101F8000441F0008E9080008840F0008281E000804
:101F90009C0A000810000000E40400083C09000846
:101FA000B8100008FC0800088223BEFF781F000854
:101FB000E9080008481C0008481C00083003000815
:101FC000281E0008B40F0008141C0008142900087B
:101FD000FC08000884484F4CC4FFFFFFA81F0008FE
:101FE000E90800083C090008FFFFFFFF3003000874
:101FF000001E000830030008281E0008941E000878
:10200000FC08000884534947CEFFFFFFD41F000897
:10201000E9080008F01A0008342A00089C0A0008A1
:10202000100000003C0900082D000000E01F00081F
:10203000FC0800088223D3FF04200008E9080008F8
:1020400068200008141C0008141C0008742B0008E9
:10205000082A00089C0A0008E8FFFFFFFC080008A7
:1020600081A3FFFF34200008E90800085C0F000886
:10207000281E000804050008F01A00083C090008A2
:1020800009000000141C0008802900089C0A0008B0
:10209000100000003C09000807000000EC280008C0
:1020A0003C09000830000000EC280008E01F000890
:1020B000FC080008823CA3FF60200008E908000833
:1020C0005C07000810FA0020DCBB0120FC080008B7
:1020D00085444F4553BEFFFFB4200008E9080008BF
:1020E000A81B00088011000824120008941C000896
:1020F000BC1100083C0900088B090008681C000896
:10210000701E0008701E0008FC080008873C42553D
:10211000494C44D3D0200008E9080008582300089F
:10212000FC080008C52B4C4F4FD0FFFF0C210008C6
:10213000E90800089C270008B8030008E404000828
:10214000080B000864060008FC080008C44C4F4F48
:10215000D0FFFFFF24210008E90800089C270008A1
:10216000B8030008E4040008DC0A0008640600085C
:10217000FC080008C244CFFF4C210008E908000811
:10218000E4040008140B0008D80F00089C2700087E
:10219000FC080008C5454E4449C6FFFF74210008ED
:1021A000E90800087C0300088C270008B803000831
:1021B000D80F0008141C000814290008681C000827
:1021C000701E0008FC080008C4544845CEFFFFFFFD
:1021D00094210008E9080008A0210008FC08000874
:1021E000C4454C53C5FFFFFFC8210008E90800089B
:1021F0008C270008B8030008E4040008840A0008DB
:10220000D80F00086C270008B8100008681C0008E8
:102210008C270008A02100088C270008FC08000873
:10222000C249C6FFE0210008E9080008E4040008EC
:102230009C0A0008D80F00086C270008B810000896
:102240008C270008FC080008C5554E5449CCFFFFF8
:1022500020220008E90800087C270008B8030008CD
:10226000E40400089C0A000864060008FC08000852
:10227000C541474149CEFFFF48220008E908000850
:102280007C270008B8030008E4040008840A00085A
:1022900064060008FC080008C65245504541D4FFBA
:1022A00070220008E9080008EC1B0008EC1B00087D
:1022B0007C220008A81B0008A81B00088C27000827
:1022C00014290008A0210008FC080008C557484947
:1022D0004CC5FFFF98220008E908000828220008E2
:1022E00000270008FC080008C542454749CEFFFF0B
:1022F000CC220008E90800087C030008D80F000879
:102300007C270008FC080008970D0A496E73696471
:102310006520436F6C6F6E20574F5244533A0D8ABD
:10232000E822000889494D4D4544494154C5FFFF05
:1023300008230008E9080008801100083C0900088B
:1023400040000000980B0008FC0800088643524536
:102350004154C5FF24230008E9080008A809000823
:102360003C0900080F00000014290008342A000866
:102370009C0A00080800000038030008C804000890
:102380009C0A000824000000481C0008E011000816
:10239000A42F00083C090008134100087417000826
:1023A0003030000890180008D80F0008941C00086E
:1023B0008C060008701E0008941C00084C1E0008C3
:1023C0003C0900081F000000FC2A00085003000818
:1023D000941C00083C09000880000000980B0008CD
:1023E000D80F00083C09000880000000980B000886
:1023F0007C270008480F0008001E00088011000814
:10240000B8100008700F0008701E0008E4040008EF
:1024100029090008D80F000824270008B810000870
:10242000FC08000888434F4E5354414ED4FFFFFF31
:102430004C230008E908000848240008FC080008AC
:1024400083434FCE24240008E908000858230008DD
:102450003C090008FCFFFFFF480F0008001E0008B1
:10246000B810000878060008FC0800088856415299
:102470004941424CC5FFFFFF40240008E90800081D
:1024800090240008FC080008835641D26C24000800
:10249000E9080008582300083C090008F8FFFFFF7E
:1024A000480F0008001E0008E40400081509000891
:1024B0007C2700081C110008B810000878060008E6
:1024C000FC080008C1BBFFFF88240008E9080008D9
:1024D00044050008E4040008FC080008F81E000891
:1024E00078060008FC080008C1BAFFFFC4240008F1
:1024F000E90800089C03000830050008582300087C
:10250000DC1E00083C090008F8FFFFFF480F000828
:10251000001E0008E4040008E9080008FC080008A0
:10252000960D0A43524541544520574F524453207B
:10253000576974683A0D8AFFE824000884444142D0
:10254000D3FFFFFF20250008E9080008941C0008BD
:10255000AC060008FC08000887444E45474154C5B6
:102560003C2500086925000857F8040B57F8042B90
:10257000C043D243521C47F8042D47F8040D55F8C8
:10258000042B22F0030252F8043B1847834450CC3A
:102590005825000829090008D8BB012083442ED201
:1025A0008C250008E9080008EC1B0008681C0008DE
:1025B000141C000848250008BC2000083C20000826
:1025C00010200008B01F0008A81B0008141C0008F9
:1025D00014290008502F000830300008FC080008BB
:1025E0008244AEFF9C250008E90800086C2700081B
:1025F000A42500088C2F0008FC0800088244ABFFCB
:10260000E02500080926000857F8040B57F8041BBA
:1026100057F8043B57F8042B5218584147F8042D3B
:1026200047F8040D55F8042B22F0030252F8043B3E
:102630001847000084532D3EC4FFFFFFFC2500080F
:102640004526000857F8042B4040124300D5401E91
:1026500047F8042D47F8040D55F8042B22F0030227
:1026600052F8043B184700008232AAFF34260008C3
:102670007526000857F8040B400047F8040D55F87C
:10268000042B22F0030252F8043B18478232AFFFBA
:10269000682600089926000857F8040B401047F8F0
:1026A000040D55F8042B22F0030252F8043B18479E
:1026B0008231ADFF8C260008BD26000857F8040BB8
:1026C000401E47F8040D55F8042B22F0030252F87F
:1026D000043B18478231ABFFB0260008E126000812
:1026E00057F8040B401C47F8040D55F8042B22F052
:1026F000030252F8043B18478232ABFFD42600088D
:102700000527000857F8040B801C47F8040D55F8FE
:10271000042B22F0030252F8043B18478234ABFF2B
:10272000F82600082927000857F8040B001D47F871
:10273000040D55F8042B22F0030252F8043B18470D
:102740008234ADFF1C2700084D27000857F8040B02
:10275000001F47F8040D55F8042B22F0030252F82D
:10276000043B184781B0FFFF4027000829090008F3
:102770000000000081B1FFFF64270008290900085C
:102780000100000081B2FFFF74270008290900083A
:102790000200000081B3FFFF842700082909000818
:1027A0000300000081B4FFFF9427000829090008F6
:1027B00004000000824DAAFFA4270008E9080008D1
:1027C000A41A0008C02B0008EC1B0008E42A00082B
:1027D000681C0008E42A0008600C0008A81B000818
:1027E000AC060008FC080008824DAFFFB4270008C3
:1027F000E9080008141C0008EC1B0008EC1B00088A
:1028000048250008CC1B0008E42A0008880C0008B2
:10281000A81B0008CC1B0008C02B00089406000869
:10282000681C0008A81B000894060008681C000823
:10283000FC08000881AAFFFFE8270008E908000853
:10284000BC270008481C0008FC080008842F4D4FD6
:10285000C4FFFFFF34280008E9080008EC1B00084B
:1028600040260008A81B0008F0270008FC08000804
:1028700081AFFFFF4C280008E9080008582800082D
:10288000681C0008481C0008FC080008834D4FC461
:1028900070280008E908000858280008481C0008AB
:1028A000FC080008852A2F4D4FC4FFFF8C28000824
:1028B000E9080008EC1B0008BC270008A81B00085A
:1028C000F0270008FC080008822AAFFFA4280008AF
:1028D000E9080008B0280008681C0008481C000827
:1028E000FC08000881ABFFFFC8280008F128000899
:1028F00057F8040B57F8041B401847F8040D55F817
:10290000042B22F0030252F8043B184781ADFFFF6D
:10291000E42800081929000857F8040B57F8041B8D
:10292000081A47F8040D55F8042B22F0030252F858
:10293000043B184781BDFFFF0C290008412900080E
:10294000404057F8040B57F8041B401A09D0404088
:1029500047F8040D55F8042B22F0030252F8043B0B
:102960001847013847F8040D55F8042B22F00302EC
:1029700052F8043B1847000081BCFFFF34290008CF
:10298000852900084040013857F8041B57F8042BEC
:10299000914200DC404047F8040D55F8042B22F02A
:1029A000030252F8043B18478255BCFF78290008FF
:1029B000E9080008A41A0008C02B0008342A0008FF
:1029C0009C0A000818000000481C0008342A00086F
:1029D000082A0008840A00080C00000014290008D6
:1029E000342A0008FC08000881BEFFFFA82900085F
:1029F000E9080008681C000880290008FC08000895
:102A00008230BDFFE82900080D2A0008404057F831
:102A1000041B002900D1401E47F8040D55F8042B73
:102A200022F0030252F8043B184700008230BCFF3A
:102A3000002A0008392A000857F8041B40400138D2
:102A4000094300D4404047F8040D55F8042B22F008
:102A5000030252F8043B1847834249CE2C2A00084F
:102A6000E90800085C070008020000009CBB012088
:102A7000FC080008834845D8582A0008E9080008DF
:102A80005C070008100000009CBB0120FC08000847
:102A900087444543494D41CC742A0008E9080008A1
:102AA0005C0700080A0000009CBB0120FC0800082D
:102AB000864E45474154C5FF902A0008C12A0008A8
:102AC00057F8040BC043401C47F8040D55F8042B7D
:102AD00022F0030252F8043B18470000834142D31E
:102AE000B02A0008E9080008941C000894060008B1
:102AF000FC080008834D49CEDC2A0008E9080008DC
:102B0000A41A0008F02900089C0A00080800000028
:102B1000681C0008481C0008FC080008834D41D8C8
:102B2000F42A0008E9080008A41A0008802900080F
:102B30009C0A000808000000681C0008481C0008E7
:102B4000FC08000883414EC41C2B0008512B0008D0
:102B500057F8040B57F8041B084047F8040D55F8C4
:102B6000042B22F0030252F8043B1847824FD2FF95
:102B7000442B0008792B000857F8040B57F8041B66
:102B8000084347F8040D55F8042B22F0030252F8CD
:102B9000043B1847834E4FD46C2B0008A12B000830
:102BA00057F8040BC04347F8040D55F8042B22F0E6
:102BB000030252F8043B184783584FD2942B000865
:102BC000C52B000857F8040B57F8041B484047F87A
:102BD000040D55F8042B22F0030252F8043B184769
:102BE00084535854C8FFFFFFB82B0008F12B00088E
:102BF00057F8040B00B247F8040D55F8042B22F0E7
:102C0000030252F8043B184784535854C2FFFFFF95
:102C1000E02B0008192C000857F8040B40B247F8C5
:102C2000040D55F8042B22F0030252F8043B184718
:102C300084524556D7FFFFFF082C0008412C00089E
:102C400057F8040B00BA47F8040D55F8042B22F08E
:102C5000030252F8043B1847834153D2302C00083A
:102C6000652C000857F8042B57F8040B104147F85F
:102C7000040D55F8042B22F0030252F8043B1847C8
:102C8000834C53D2582C00088D2C000857F8042B85
:102C900057F8040BD04047F8040D55F8042B22F0E8
:102CA000030252F8043B1847834C53CC802C000895
:102CB000B52C000857F8042B57F8040B904047F840
:102CC000040D55F8042B22F0030252F8043B184778
:102CD000822ED2FFA82C0008E9080008EC1B00088F
:102CE00040260008A81B0008A4250008FC080008CE
:102CF000832E52D5D02C0008E9080008EC1B0008F0
:102D00006C270008BC2000083C200008B01F000809
:102D1000941C0008A81B0008681C0008142900085F
:102D2000502F000830300008FC0800088255AEFF24
:102D3000F02C0008E90800086C270008E8250008C6
:102D4000FC08000881BFFFFF2C2D0008E9080008DF
:102D5000281E0008642D0008FC08000881AEFFFF53
:102D6000442D0008E908000840260008E82500086E
:102D7000FC080008822EC2FF5C2D0008E90800084C
:102D80008C270008D4020008FC080008822EC8FF27
:102D9000742D0008E90800083C0900081000000034
:102DA000D4020008FC080008822EC4FF8C2D000805
:102DB000E90800083C0900080A000000D4020008E5
:102DC000FC080008834F46C6A82D00082909000802
:102DD00000000000824FCEFFC42D00082909000822
:102DE000FFFFFFFF910D0A4E554D4245522053748F
:102DF0007566663A0D8AFFFFD42D00088A55415248
:102E000054335F494E49D4FFE42D0008E908000817
:102E10003C09000800C20120281E0008082A0008FA
:102E20009C0A00081C0000003C09000804C20120A4
:102E3000281E0008EC1B0008840A0008100000008F
:102E40003C09000800C20100EC1B00083C09000816
:102E50006022C201A81B0008782800083C0900086D
:102E600008480040701E0008FC080008864D5942C2
:102E70004155C4FFFC2D0008E90800085C07000864
:102E80000000000000C201203C09000804C201202B
:102E9000701E0008FC0800088955415254335F4CED
:102EA00053D2FFFF6C2E0008AD2E000805490878AC
:102EB00047F8040D55F8042B22F0030252F8043BA6
:102EC00018470000004800408855415254335F5273
:102ED000D8FFFFFF982E0008290900080448004089
:102EE0008855415254335F54D8FFFFFFC82E000865
:102EF000290900080448004084584F46C6FFFFFFD8
:102F0000E02E0008092F0008FDF7E8FFFDF7EEFFAF
:102F100055F8042B22F0030252F8043B1847000036
:102F200083584FCEF82E00082D2F0008FDF7D6FF4E
:102F3000FDF7E4FF55F8042B22F0030252F8043B9E
:102F400018470000865350414345D3FF202F000807
:102F5000E90800086C270008242B0008D01A000894
:102F60009C0A0008180000006C270008140B0008D9
:102F70008C2F0008DC0A0008F8FFFFFFFC0800089F
:102F80008553504143C5FFFF442F0008E90800085E
:102F9000140F000884300008FC080008834944AE80
:102FA000802F0008E9080008501700083C090008B5
:102FB0001F0000004C2B0008303000088C2F000848
:102FC000FC080008C22EA2FF9C2F0008E908000898
:102FD0003C09000822000000840F0008281E000899
:102FE0009C0A00082C000000E4040008F803000814
:102FF000E4130008D80F00084C1E0008DC26000867
:103000002C10000850030008840A00081400000077
:10301000E4130008D80F00085017000830300008EB
:10302000FC08000884545950C5FFFFFFC42F000856
:10303000E9080008D01A00089C0A000834000000C3
:10304000042F0008141C0008EC280008681C000865
:10305000140B0008241B0008380B000884300008FB
:10306000DC0A0008F0FFFFFF840A000808000000E7
:10307000481C0008FC08000884454D49D4FFFFFFA8
:10308000243000088930000857F8040BFDF726FFAC
:103090000649087006490868401C086055F8042B6A
:1030A00022F0030252F8043B184700000448004095
:1030B000A4BB0120834B45D978300008E9080008FB
:1030C000282F0008CC300008FC080008D130000888
:1030D000074A084B19688909FCD3106847F8040DA2
:1030E00055F8042B22F0030252F8043B1847000065
:1030F0000448004000480040843F4B45D9FFFFFF93
:10310000B430000809310008FDF7E8FEFDF7F6FECF
:103110004040074B1968890900D3013847F8040D6E
:1031200055F8042B22F0030252F8043B1847000024
:1031300000480040834352D3F8300008E9080008F3
:103140006C270008140B000860310008DC0A000836
:10315000F8FFFFFFFC0800088243D2FF343100086B
:10316000E90800080C020008F8030008020D0AFF35
:10317000FC0800088C0D0A4649534820494F3A0D77
:103180008AFFFFFF583100088B495251535F524567
:1031900053554DC5743100089D31000801F07AF98E
:1031A00055F8042B22F0030252F8043B18470000A4
:1031B0008C495251535F53555350454EC4FFFFFF46
:1031C00088310008C931000801F062F955F8042B74
:1031D00022F0030252F8043B184700008F53595362
:1031E0005449434B5F4952515F4F46C6B0310008C6
:1031F000F531000804490520086055F8042B22F039
:10320000030252F8043B184710E000E08E53595374
:103210005449434B5F4952515F4FCEFFDC310008A8
:103220002532000804490720086055F8042B22F0D5
:10323000030252F8043B184710E000E08F0D0A49E2
:103240004E54455252555054533A0D8A0C32000890
:103250008A464C4153485F534156C5FF3C320008F3
:10326000E908000880110008783B00088029000860
:103270009C0A00082000000060310008F8030008E4
:103280000F4E4F5448494E4720544F205341564506
:10329000FC08000860330008281E00083C090008EC
:1032A000000010083C2900089C0A000828000000C3
:1032B00060310008F8030008144C41535420464C78
:1032C00041534820415641494C2055534544FFFF46
:1032D000FC0800085C100008240F0008281E0008E5
:1032E00070330008701E0008801100087833000851
:1032F00068330008701E000880110008783B000841
:103300003C2900089C0A0008480000001438000806
:10331000783B0008480F0008701E00087033000852
:10332000281E0008240F0008701E000868330008DB
:10333000281E0008700F0008701E000824350008C1
:1033400060310008983A0008683A0008FC08000854
:1033500080110008A4330008840A00089CFFFFFFC6
:10336000290900080400002029090008080000209D
:10337000290900080C0000207D33000857F8040BD1
:10338000064A1040064A1268801847F8040D55F89E
:10339000042B22F0030252F8043B1847FFFF0F00F2
:1033A00004000020E908000824120008941C00080A
:1033B000EC1B0008BC110008941C0008281E000823
:1033C0003C0900088B0900083C2900089C0A0008F9
:1033D0002800000024270008941C0008941C000802
:1033E000281E000878330008681C0008701E0008BA
:1033F000840A000800010000941C0008281E000830
:103400003C090008290900083C290008141C000890
:10341000281E00083C090008150900083C2900087E
:10342000742B00089C0A000810000000481C0008CB
:10343000840A0008C400000024270008941C000827
:10344000281E00083C0900083C0900083C29000827
:103450009C0A00081000000024270008840A0008C5
:10346000D8FFFFFF941C0008281E00083C09000834
:10347000F80300083C2900089C0A0008200000000E
:10348000941C0008242700084C1E0008EC280008A3
:103490002C100008840A0008A0FFFFFF941C0008FD
:1034A000281E00083C090008FC0800083C29000808
:1034B000082A00089C0A00083C000000941C000830
:1034C000281E0008783B0008F02900089C0A000824
:1034D00068FFFFFF941C0008941C0008281E0008C9
:1034E00078330008681C0008701E0008840A000871
:1034F00048FFFFFF481C0008A81B0008981100089F
:10350000941C0008281E0008941C0008700F000876
:10351000701E000878330008681C0008701E000840
:10352000FC080008E90800083C090008000002083F
:10353000941C00083C09000804000020701E0008CC
:10354000941C0008EC1B0008281E0008603C0008C2
:10355000142900089C0A000810000000A81B00089D
:10356000481C0008FC080008CC1B00086033000859
:10357000701E0008CC1B00083C0900080800000071
:10358000EC280008941C0008281E0008700F000892
:10359000701E000824270008281E0008240F0008B9
:1035A000701E000860310008F80300081741444409
:1035B000454420574F5244532046524F4D204144DA
:1035C000445220FFCC1B0008942D0008A81B0008C3
:1035D00024270008281E0008840A000854FFFFFF63
:1035E000E9080008941C0008EC280008EC1B0008FF
:1035F000941C0008281E0008DC2600089C0A00080D
:103600003800000060310008F803000817455241F7
:103610005345442042414420464C415348205041A8
:1036200047452020942D0008481C0008A81B0008CE
:10363000481C0008FC08000824270008941C000807
:10364000941C0008CC1B0008681C00081429000802
:103650009C0A00080C000000840A000898FFFFFF85
:1036600060310008F80300080E464C4153482050D2
:10367000414745204F4B20FF14290008942D000896
:10368000A81B0008481C0008FC0800088C464C4198
:1036900053485F464F524745D4FFFFFF5032000862
:1036A000E9080008F80300081754414B455320412E
:1036B000424F55542036205345434F4E445321200A
:1036C000C431000898390008783900085C07000800
:1036D0002A020100103C0240783900085C0700080B
:1036E00032020100103C0240783900085C070008F3
:1036F0003A020100103C0240783900085C070008DB
:1037000042020100103C0240783900085C070008C2
:103710004A020100103C0240783900085C070008AA
:1037200052020100103C0240783900085C07000892
:103730005A020100103C024078390008B8390008EC
:10374000983100088C3B000880110008F02900081F
:103750009C0A000810000000003F0008840A0008CE
:103760001C0000003C090008883F0008783B000866
:103770002412000898110008701E00085C07000859
:1037800000000208040000203C090008111111117A
:10379000941C000868330008701E0008703300088D
:1037A000701E00082435000860310008983A0008AF
:1037B000683A0008FC080008BD37000857F8040BF9
:1037C00057F8041B064A50F8044B42F8044B884251
:1037D000F9D155F8042B22F0030252F8043B1847A4
:1037E000D0FE00203C090008D0FE0020C00E0008DA
:1037F000FC080008E90800083C090008CC3900086A
:103800003C09000820390008B8370008E4370008F0
:10381000FC080008E9080008C431000898390008CD
:10382000783900085C07000801020000103C0240E3
:1038300060330008281E0008EC1B00083C09000843
:103840001000000060330008001E0008D80F0008B8
:10385000EC1B0008783B0008941C0008281E000898
:1038600060330008281E0008701E00087839000820
:10387000AC27000860330008001E00082427000859
:10388000941C0008CC1B0008142900089C0A00089E
:103890000C000000840A0008C0FFFFFFA81B0008FE
:1038A000481C0008481C00083C09000800000020D3
:1038B000281E0008CC1B0008701E0008783900087C
:1038C00060330008281E0008CC1B000824270008CD
:1038D000701E00087839000868330008281E0008A8
:1038E000CC1B00089C010008EC280008701E000892
:1038F0007839000870330008281E0008A81B00084B
:103900003C0900080C000000EC280008701E0008AC
:1039100078390008B839000898310008FC08000818
:10392000E9080008A0360008C431000898390008EA
:10393000783900085C07000801020000103C0240D2
:103940005C07000800000208040000203C09000891
:1039500010000000480F0008001E0008A00E00081C
:1039600014380008A00E0008A0360008B839000876
:1039700098310008FC0800087D39000805490868EE
:103980000004FCD255F8042B22F0030252F8043B49
:10399000184700000C3C0240E90800085C070008DA
:1039A00023016745043C02405C070008AB89EFCD6A
:1039B000043C0240FC080008E90800085C07000815
:1039C00000000080103C0240FC08000884504F4674
:1039D000C6FFFFFF8C360008E90800085C070008F6
:1039E00000000000CCBB0120FC08000883504FCE33
:1039F000CC390008E90800085C0700087E0E0008C2
:103A0000CCBB0120FC08000881D0FFFFEC39000886
:103A100029090008CCBB01208545484F46C6FFFF59
:103A2000083A0008E90800086C2700083C0900086B
:103A3000D0BB0120701E0008FC0800088445484FD8
:103A4000CEFFFFFF183A0008E90800087C270008AD
:103A50003C090008D0BB0120701E0008FC080008CB
:103A6000832E44D33C3A0008E9080008A80900085E
:103A7000180D0008B02D0008340D00083C0900089E
:103A8000684000087417000830300008FC0800087F
:103A9000832E56D3603A0008E9080008D0090008D0
:103AA000180D0008AC27000878280008B02D000881
:103AB000340D00083C0900085D4000087417000838
:103AC00030300008FC0800088444554DD0FFFFFF4B
:103AD000903A0008E9080008141C00086C1200085D
:103AE000180D00087C2A00086C270008140B000839
:103AF00060310008941C00083C0900080A0000001E
:103B0000F82C0008AC2700086C270008140B0008EC
:103B1000941C0008281E00083C0900080E00000044
:103B2000F82C000824270008DC0A0008E4FFFFFF47
:103B3000043100089C0A000808000000881B0008E7
:103B4000DC0A0008ACFFFFFF481C000860310008D9
:103B5000340D0008FC0800088556424153C5FFFF9C
:103B6000C83A0008290900089CBA0120854442414E
:103B700053C5FFFF583B000829090008100000202A
:103B80008552424153C5FFFF6C3B000829090008DC
:103B90000000002083434CD3803B0008E908000864
:103BA000F8030008041B5B324AFFFFFFF80300081C
:103BB000041B5B3B48FFFFFF60310008FC08000866
:103BC000C1A8FFFF943B0008E90800083C09000871
:103BD00029000000580B0008082A00089C0A000869
:103BE00034000000603100083C09000810000000AB
:103BF00084300008200400083C09000871FA002005
:103C00004C1E00089C0A000810000000840A0008EE
:103C1000BCFFFFFFFC0800083C0900087A400008D0
:103C20007417000830300008FC080008C1DCFFFFF2
:103C3000C03B0008E90800086C270008C40F000812
:103C4000A40F0008281E0008EC280008941E000895
:103C5000FC08000886535953434CCBFF2C3C00080A
:103C6000653C00080549086847F8040D55F8042B21
:103C700022F0030252F8043B184700000000002025
:103C80008553544354D2FFFF543C000829090008CF
:103C900098BA01208544454C41D9FFFF803C00087B
:103CA000A53C000857F8041B57F8040B0C4CC04304
:103CB000401C20600B4A11600B4A1160002806D09E
:103CC0000A4A10680721116021680029FCD11060A0
:103CD00055F8042B22F0030252F8043B1847000069
:103CE00098BA012014E000E018E000E010E000E0E5
:103CF000824DD3FF943C0008E90800083C09000805
:103D0000EFCC0100A03C0008FC08000887574F5288
:103D1000444341D4F03C0008E9080008D80F0008EB
:103D2000EC1B00086C270008E01000083C090008A4
:103D30000D000000E0100008D80F00083C09000842
:103D40000D000000E4130008941C00084C1E00083D
:103D50003C0900080A000000F01A0008941E000840
:103D6000941C0008DC260008F40F00083C09000839
:103D700084000000EC280008CC1B0008941E0008FA
:103D80003C0900080D000000E01000083C09000894
:103D90008A000000E01000085C1000088011000894
:103DA000B8100008A81B00083C090008C8BB012087
:103DB000701E0008FC08000885574F5244D3FFFFCF
:103DC0000C3D0008E90800089C270008502F000857
:103DD00080110008042F00086C270008141C00083C
:103DE000DC2600084C1E00083C0900080D000000FD
:103DF0003C290008082A00089C0A00081C00000052
:103E0000481C0008941C000824120008981100089F
:103E1000141C000814290008940F0008281E00082C
:103E2000EC2800083C0900084A000000F0290008BE
:103E30009C0A000810000000603100089C27000860
:103E4000502F0008941C0008380F0008281E000896
:103E5000802900089C0A00080C000000840A000861
:103E600054000000941C0008A42F00088C270008B0
:103E7000502F0008941C0008DC2600084C1E000887
:103E80003C0900080D0000003C2900089C0A0008BD
:103E9000080000000C020008241200089811000815
:103EA000281E0008941C0008082A00089C0A000824
:103EB00028FFFFFF481C000860310008FC080008CC
:103EC000874D59574F5244D3B83D0008E9080008C0
:103ED0005C07000800000208C4BB0120C43D0008C4
:103EE0005C07000800000000C4BB0120FC080008BB
:103EF00089464953485F4F4E4CD9FFFFC03E0008EA
:103F0000053F000809490A4C21600A4C21600A4912
:103F10000A4C21600A4C21600A490B4C216055F87B
:103F2000042B22F0030252F8043B1847883F000894
:103F3000C8BB0120080000209CBA0120B8BB0120AA
:103F40000C00002010000020BCBB01208446495317
:103F5000C8FFFFFFF03E0008E9080008243500080C
:103F6000C4060008FC080008990D0A464953482079
:103F70005265666572656E6365204D6F64656C3A67
:103F80000D8AFFFF4C3F0008890D0A4750494F3A00
:103F90000D8AFFFF683F00089D3F00088046894664
:103FA000AA462648264C03680021016002684A4060
:103FB00042D12449016002684A403DD101000160BC
:103FC00002684A4038D1C143016002684A4033D197
:103FD0001D492025016002684A402DD14900491C35
:103FE0006D1EF7D101212025016002684A4023D1CE
:103FF00049006D1EF8D114492025016002684A402D
:104000001AD149006D1EF8D10121202501600268F6
:104010004A4011D14900491C6D1EF7D10360001DB3
:10402000A042C0D340464946554655F8042B22F0DD
:10403000030252F8043B1847FEE70000000000208E
:1040400000C00120FFFFFFFFFEFFFFFF0352554EA0
:104050002000203F2000203C43523E200056415289
:104060002043454C4C53200044494354494F4E4152
:104070005259204259544553200020434F4D4D453D
:104080004E54204C494E452043414E4E4F54204201
:104090004520454D5054592015002043414E542091
:1040A000464F52474554204649534820494E2046E2
:1040B0004C41534820150020494E20464C4153485E
:1040C000202D2053454520464C4153485F464F52D2
:1040D0004745542015002044494354494F4E41520E
:1040E000592046554C4C202D20534545202E4453F5
:1040F0002015002052414D2056415220535041433B
:10410000452046554C4C202D20534545202E5653D6
:1041100020150020495320414C5245414459204428
:104120004546494E4544201500203F204E4F54201F
:10413000574F5244201500203F204E4F5420574FD8
:104140005244204F52204E554D42455220150020DA
:10415000434155534544204120535441434B20454E
:1041600052524F5220150020535441434B20455288
:10417000524F52205748494C4520455845435554C5
:10418000494E47204F5220434F4D50494C494E47CE
:10419000201500204552524F52202D204E4F5420C2
:1041A000434F4D50494C494E47201500204552522F
:1041B0004F52202D204558454355544544205748DB
:1041C000494C4520434F4D50494C494E472015001E
:1041D000E90800085C07000805070000003C0240F1
:1041E000FC080008E94100084CF20004C2F2010496
:1041F0004FF000034FF0800C53F8042B44F8042BCD
:10420000BCF1010CF8D155F8042B22F0030252F84E
:10421000043B1847E9080008E44100085C0700086F
:1042200000C0012008ED00E07407000800380240DB
:104230009007000801000000D00700080038024085
:104240005C070008000000000838024074070008FE
:1042500000380240B0070008FFFFF6FED007000854
:10426000003802405C070008103000240438024087
:104270007407000800380240B0070008FFFFFBFF8A
:10428000D0070008003802405C070008000000006A
:104290000C380240740700080038024090070008FC
:1042A00000000100D0070008003802404C08000858
:1042B0007407000800380240B00700080000020040
:1042C000640800087407000840380240900700089E
:1042D00000000010D00700084038024074070008B2
:1042E000007000409007000800400000D007000860
:1042F000007000403C090008083802403C090008F2
:1043000000000000FC1C00083C09000808380240BE
:104310003C09000800800000FC1C00083C09000863
:10432000083802403C09000800140000FC1C00088A
:104330005C0700080A3B4005043802407407000887
:10434000003802409007000800000001D007000874
:10435000003802404C08000874070008003802408A
:10436000B00700080000000264080008D0410008FF
:104370007407000808380240B0070008FCFFFFFF80
:10438000D0070008083802407407000808380240C7
:104390009007000802000000D0070008083802401B
:1043A0004C0800087407000808380240B0070008ED
:1043B0000C0000003C090008080000003C2900082F
:1043C000640800085C070008003000508438024090
:1043D000740700080038024090070008000000043D
:1043E000D0070008003802404C0800087407000895
:1043F00000380240B0070008000000086408000808
:104400005C07000880890807000000203C090008BC
:10441000303802403C09000887000000FC1C0008FE
:104420003C090008403802403C0900080000040034
:10443000FC1C00085C07000800770000240802400C
:104440001C080008000802400300F0000100A00062
:104450005C0700080C2000000C4800405C070008C6
:104460000700000010E000E0FC080008BFF34F8FD9
:104470000548016811F4E061044801430248016005
:10448000BFF34F8FFEE700000CED00E00400FA05DB
:1044900072B6704762B6704780B5FFF7E7FF01BD9F
:1044A000FCF756BCFFF7FEBFFFF7FEBFFFF7FEBFEE
:1044B000FFF7FEBFFFF7FEBFFFF7FEBFFFF7FEBF30
:1044C000FCF780BCFFF7FEBFFFF7FEBFFFF7FEBFA4
:1044D000FFF7FEBFFFF7FEBFFFF7FEBFFFF7FEBF10
:1044E000FFF7FEBFFFF7FEBFFFF7FEBFFFF7FEBF00
:1044F000FFF7FEBFFFF7FEBFFFF7FEBFFFF7FEBFF0
:10450000FFF7FEBFFFF7FEBFFFF7FEBFFFF7FEBFDF
:10451000FFF7FEBFFFF7FEBFFFF7FEBFFFF7FEBFCF
:10452000FFF7FEBFFFF7FEBFFFF7FEBFFFF7FEBFBF
:10453000FFF7FEBFFFF7FEBFFFF7FEBFFFF7FEBFAF
:10454000FFF7FEBFFFF7FEBFFFF7FEBFFFF7FEBF9F
:10455000FFF7FEBFFFF7FEBFFFF7FEBFFFF7FEBF8F
:10456000FFF7FEBFFFF7FEBFFFF7FEBFFFF7FEBF7F
:10457000FFF7FEBFFFF7FEBFFFF7FEBFFFF7FEBF6F
:10458000FFF7FEBFFFF7FEBFFFF7FEBFFFF7FEBF5F
:10459000FFF7FEBFFFF7FEBFFFF7FEBFFFF7FEBF4F
:1045A000FFF7FEBFFFF7FEBFFFF7FEBFFFF7FEBF3F
:1045B000FFF7FEBFFFF7FEBFFFF7FEBFFFF7FEBF2F
:1045C000FFF7FEBFFFF7FEBFFFF7FEBFFFF7FEBF1F
:1045D000FFF7FEBFFFF7FEBFFFF7FEBFFFF7FEBF0F
:1045E000FFF7FEBFFFF7FEBFFFF7FEBFFFF7FEBFFF
:1045F000FFF7FEBFFFF7FEBFFFF7FEBFFFF7FEBFEF
:0C460000FFF7FEBFFFF7FEBFFFF7FEBF95
:0400000500000000F7
:00000001FF
