:020000040800F2
:10000000000002207D440008814400087544000877
:1000100085440008894400088D4400080000000061
:1000200000000000000000000000000091440008F3
:100030009544000800000000994400089D44000811
:10004000A1440008A5440008A9440008AD440008E4
:10005000B1440008B5440008B9440008BD44000894
:10006000C1440008C5440008C9440008CD44000844
:10007000D1440008D5440008D9440008DD440008F4
:10008000E1440008E5440008E9440008ED440008A4
:10009000F1440008F5440008F9440008FD44000854
:1000A0000145000805450008094500080D45000800
:1000B0001145000815450008194500081D450008B0
:1000C0002145000825450008294500082D45000860
:1000D0003145000835450008394500083D45000810
:1000E0004145000845450008494500084D450008C0
:1000F0005145000855450008594500085D45000870
:100100006145000865450008694500086D4500081F
:100110007145000875450008794500087D450008CF
:100120008145000885450008894500088D4500087F
:100130009145000895450008994500089D4500082F
:10014000A1450008A5450008A9450008AD450008DF
:10015000B1450008B5450008B9450008BD4500088F
:10016000C1450008C5450008C9450008CD4500083F
:10017000D1450008D5450008D9450008DD450008EF
:10018000E1450008E5450008E90800083C090008C9
:100190000700000060300008FC080008290900087A
:1001A00008000000E90800089C0100086030000811
:1001B000682F00089C01000860300008701C0008CF
:1001C0007C0F0008041E0008C82800084827000803
:1001D000441C0008701E00083C090008FCFFFFFFDB
:1001E0006C0F0008DC1D0008B82D00087C0F00080B
:1001F000DC1D0008FC080008E90800085C0700088E
:1002000000000000A0BB0120FC080008E90800086D
:100210005C07000800000000A4BB0120FC080008E7
:10022000E9080008180D0008340F00084C1E0008EB
:10023000E8190008340D0008FC080008E908000867
:10024000340F0008041E0008701C0008682700080E
:10025000182900089C0A0008180000003C09000842
:100260006200000060300008241C0008FC08000840
:100270003C0900080A000000182900089C0A000830
:10028000140000003C090008640000006030000811
:10029000FC0800083C090008680000006030000805
:1002A000FC080008E90800081C2600084827000888
:1002B000802500083C020008FC080008E908000846
:1002C0004827000848270008802500083C0200084D
:1002D000FC080008E9080008180D0008701C000858
:1002E000340F00084C1E00083C0900080A000000FA
:1002F000182900089C0A000810000000A402000849
:10030000840A000808000000BC020008682F0008EA
:10031000340D0008FC08000829090008ACBB0120C6
:1003200029090008B0BB012029090008D4BB01201D
:1003300029090008DCBB0120E90800083C09000885
:10034000FE3F00084C1700080C3000086818000831
:10035000E9080008200F0008DC1D0008FC08000860
:10036000E908000834100008B00F00084C1E00080F
:100370008827000850030008FC080008E908000866
:100380005C0F0008041E0008E42900083C0900086E
:10039000BB400008A4120008FC080008E908000897
:1003A0005C0F0008041E00083C090008D440000847
:1003B000A4120008FC080008E9080008F02800085A
:1003C0003C0900088F400008A4120008FC0800083F
:1003D000E9080008201B000818030008041E000894
:1003E000441C00088C2900083C09000877400008DC
:1003F000A4120008FC080008E9080008841B000893
:10040000701C0008281700080C3000082817000886
:10041000C828000804100008C81B0008FC080008D1
:10042000E90800089C0F00083C0900085E00000075
:10043000D81500085C07000801000000A0BB0120DF
:10044000FC080008E9080008B8260008701C00082D
:10045000C81B0008281E0008340F0008041E0008EE
:10046000D41200089C0A000858000000441C000830
:10047000340F0008041E0008600C0008241C00084B
:10048000CC1A0008340F0008041E0008600C000895
:10049000E025000870250008041E0008B8260008A2
:1004A0009C0A00081000000058270008702500086A
:1004B000DC1D0008841B0008840A00088CFFFFFF75
:1004C000841B0008FC080008E9080008EC0E00087E
:1004D000BC130008B00F000858110008F809000804
:1004E000FC080008E9080008841B0008701C0008CC
:1004F00000270008C81B0008041E0008600300084D
:10050000FC080008E9080008C81B00084827000884
:10051000A81B0008880C0008841B0008441C000865
:10052000C81B0008880C0008841B0008FC08000891
:10053000E9080008201B0008280300084C1E0008DA
:10054000FC080008E9080008201B00082803000830
:10055000041E0008F02800083C0900087740000845
:10056000A4120008FC080008E9080008C8040008F4
:100570009C0A00083C0000005C0F0008041E0008F4
:100580005C2900089C0A000814000000941100086F
:1005900060030008840A00080C00000094110008A1
:1005A000980E0008D0030008840A0008C0FFFFFF6F
:1005B000B00F00083414000870250008041E00085D
:1005C000B82600089C0A000810000000301F000830
:1005D000840A00080C000000241C0008601F0008AA
:1005E000D0030008840A000884FFFFFFE908000820
:1005F000D41E0008E00C0008FC0C000820040008D1
:10060000680500085C0F0008041E0008E4290008C3
:100610009C0A0008380000003C090008CCBB0120FF
:10062000041E00089C0A0008240000003C09000881
:10063000CCBB0120041E00084C1700080C30000839
:10064000340F0008041E00088C2D00083C09000827
:1006500010000000603000083C310008840A0008E7
:1006600098FFFFFFE9080008B00F0008F028000815
:1006700090100008FC080008E90800085C07000862
:1006800000000000C0BB0120FC0800082909000888
:10069000C0BB0120E9080008102A00089C0A0008D5
:1006A00008000000982A0008FC080008E908000873
:1006B000102A00089C0A00080800000040250008D5
:1006C000FC080008E90800083C3100083C09000863
:1006D000DC0D00084C1700080C3000083C0900082D
:1006E000460E00084C1700080C3000083C090008B2
:1006F000530E00084C1700080C3000083C3100086D
:10070000FC080008E9080008BC08000800350008DB
:10071000FC080008E9080008441C0008F01B000859
:10072000C82800083C0900087F000000F01B0008F2
:10073000281E00085C2900089C0A0008E0FFFFFF53
:10074000441C0008241C0008FC080008013055F86F
:10075000042B22F0030252F8043B184761070008FB
:1007600002CD04CD116055F8042B22F0030252F89B
:10077000043B18477907000855F8040B006847F850
:10078000040D55F8042B22F0030252F8043B1847DD
:100790009507000855F8042B57F8040B104347F849
:1007A000040D55F8042B22F0030252F8043B1847BD
:1007B000B507000855F8042B57F8040B104047F80C
:1007C000040D55F8042B22F0030252F8043B18479D
:1007D000D507000855F8043B57F8040B186055F886
:1007E000042B22F0030252F8043B1847F1070008DB
:1007F00057F8043B57F8041B57F8040B1A6822EA11
:10080000010200EA010042EA00021A6055F8042BD6
:1008100022F0030252F8043B1847000021080008A8
:1008200055F8043B55F8044B55F804CB1A6822EAF6
:1008300004020CEA040C42EA0C021A6055F8042B7C
:1008400022F0030252F8043B184700005108000848
:1008500046F8045D55F8042B22F0030252F8043BDD
:10086000184700006908000857F8040B00280CBF5F
:100870003568361D55F8042B22F0030252F8043B6C
:1008800018470000100000000000000000000000F9
:100890000000000000C00120F0BD012070FA00201F
:1008A0009CBA0120100000200000000000000000A1
:1008B000643F0008550E000800000000C108000851
:1008C000074808490E2203680B60001D091D521ECF
:1008D000F9D155F8042B22F0030252F8043B1847D3
:1008E000840800089CBB012046F8045D154655F8B5
:1008F000042B22F0030252F8043B184701090008B8
:1009000056F8045B55F8042B22F0030252F8043B1E
:100910001847000001CA47F8040D55F8042B22F0CF
:10092000030252F8043B184701CA47F8040D55F872
:10093000042B22F0030252F8043B18474109000837
:1009400055F8040B47F8040D55F8042B22F0030268
:1009500052F8043B184700005D09000855F8040BE5
:1009600047F8040D55F8042B22F0030252F8043B1B
:10097000184700007909000857F8045B55F8042B64
:1009800022F0030252F8043B1847000046F8045DC9
:100990004568083047F8040D55F8042B22F003028F
:1009A00052F8043B18470000AD0900080648074903
:1009B0000968401A47F8040D55F8042B22F0030289
:1009C00052F8043B1847000010FA0020BCBB01207D
:1009D000D5090008064807490968401A47F8040D78
:1009E00055F8042B22F0030252F8043B184700008C
:1009F0009CBB0120B8BB0120FD09000857F8043B4F
:100A000057F8042B93465A46187884461178484084
:100A10003F2420401DD1521C5B1C1878117888425D
:100A2000F9D08024001B884214D15B1C1878FF2861
:100A3000FBD0083347F8043D0120624647F8042DF7
:100A400047F8040D55F8042B22F0030252F8043B3A
:100A500018475B1C187880242042FAD01B1D0848D8
:100A600003401B68002B00D0CDE7002047F8040DA1
:100A700055F8042B22F0030252F8043B18470000FB
:100A8000FCFFFFFF890A00082B68ED1855F8042BBE
:100A900022F0030252F8043B18470000A10A0008A4
:100AA00057F8040B00283FF4EFAF2D1D55F8042B29
:100AB00022F0030252F8043B18470000C10A000864
:100AC00057F8040B00287FF4DFAF2D1D55F8042BD9
:100AD00022F0030252F8043B18470000E10A000824
:100AE000012374683268944204D0D2183260A41A88
:100AF0007FF4CAAF08362D1D55F8042B22F00302EF
:100B000052F8043B184700000D0B000857F8043B4F
:100B1000FFF7E7BF190B000857F8040B57F8042B31
:100B200046F8042D46F8040D55F8042B22F0030274
:100B300052F8043B184700003D0B000857F8040B1F
:100B400000787F21084047F8040D55F8042B22F067
:100B5000030252F8043B18475D0B000857F8041BCA
:100B60000B4A92460B4B1C6812191078521C884293
:100B700001D00028F9D15446121B1A7047F8040D11
:100B800055F8042B22F0030252F8043B18470000EA
:100B900070FA0020A0BB01209D0B000857F8041B31
:100BA00057F8042B10784840107055F8042B22F0A9
:100BB000030252F8043B1847BD0B00080A21884283
:100BC00005D157F8040B0D2047F8040D02E00D2164
:100BD000884203D100F06EF900F074F955F8042B47
:100BE00022F0030252F8043B18470000F10B000802
:100BF0003868017801290FD0022914D001440A78FD
:100C0000622A1AD0252A18D0642A18D0232A16D08E
:100C1000682A16D0242A14D055F8042B22F0030297
:100C200052F8043B184782782E2AE7D155F8042B56
:100C300022F0030252F8043B1847022402E00A247F
:100C400000E0102400220A70044A146055F8042BB6
:100C500022F0030252F8043B184700009CBB01201D
:100C6000650C000857F8040B57F8041BA0FB012083
:100C700047F8042D47F8040D55F8042B22F0030221
:100C800052F8043B184700008D0C000857F8040B7D
:100C900057F8043B57F8042B002812D093F0000FAC
:100CA0000FD10146B2FBF0F000FB112247F8042DF2
:100CB00047F8040D55F8042B22F0030252F8043BC8
:100CC00018474040401E024647F8042D47F8040DDF
:100CD00055F8042B22F0030252F8043B1847000099
:100CE000E50C0008044A176855F8042B22F00302AB
:100CF00052F8043B18470000ACBB0120010D00086E
:100D0000044A166855F8042B22F0030252F8043BFB
:100D100018470000B0BB01201D0D0008044A1168EF
:100D20008C4655F8042B22F0030252F8043B184776
:100D30009CBB0120390D0008044A6146116055F83A
:100D4000042B22F0030252F8043B18479CBB0120FD
:100D500009490A480A4C0160001DA042FBD3094F13
:100D6000094E0FF2280546F8045D55F8042B22F0D1
:100D7000030252F8043B1847111111110000002022
:100D800000C2012000C00120F0BD0120BC08000805
:100D90003C410008E82D00083C3100083C090008EF
:100DA000FB000000603000083C090008F70000006C
:100DB000603000083C3100086419000808CA9F46EA
:100DC00003B502490868401C086003BD98BA0120B9
:100DD000D50D000856F8045BBDE83F9C46495348D2
:100DE00020524D2056347468204F454D207E2041BE
:100DF000524D2053544D33324632303552432050F9
:100E000053544154206F72205354502052504D205F
:100E1000426F61726420403131384D687A20284336
:100E200029323031342D3230313820412D54454172
:100E30004D20464F525448203A204E6F7620313391
:100E40002032303138002061742031373A31353A60
:100E50003137001500206F6B2C20676F2066697397
:100E60006820696E2042415345200000844E4F4F58
:100E7000D0FFFFFF000000007D0E000855F8042B96
:100E800022F0030252F8043B1847000087455845FA
:100E9000435554C56C0E00089D0E000800F00AF87A
:100EA00000F010F857F8042B22F0030252F8043B2C
:100EB000184700007246024C2168090AFCD310470B
:100EC000004800407246024913240C70104700008D
:100ED000044800407246024911240C70104700007B
:100EE000044800408242CCFF8C0E0008290900080B
:100EF000200000008255D0FFE40E000829090008F8
:100F0000B8BB01208546454E43C5FFFFF40E0008DF
:100F100029090008C4BB01208244D0FF040F000847
:100F200029090008BCBB012084424153C5FFFFFFD3
:100F3000180F0008290900089CBB0120874355525F
:100F400052454ED4280F000829090008C8BB0120CB
:100F50008553544154C5FFFF3C0F00082909000880
:100F6000A8BB0120834F55D4500F00082909000861
:100F7000A4BB01208249CEFF640F000829090008A4
:100F8000A0BB0120835041C4740F00082909000848
:100F900010FA0020835449C2840F00082909000870
:100FA00070FA002084484552C5FFFFFF940F0008E7
:100FB000E9080008200F0008041E0008FC080008CB
:100FC00085414C4C4FD4FFFFA40F0008E9080008EE
:100FD000A8090008F01B0008F0280008102A0008E3
:100FE0009C0A00080800000038030008200F0008D1
:100FF000DC1D0008FC08000887414C49474E45C4E9
:10100000C00F00080910000857F8040BC01C054960
:10101000084047F8040D55F8042B22F0030252F85B
:10102000043B1847FCFFFFFF85414C4947CEFFFFBB
:10103000F80F0008E9080008B00F0008782700083A
:10104000C8280008701C0008C81B0008B00F000862
:10105000140B00083C090008FF000000001B0008FA
:10106000701E0008DC0A0008ECFFFFFF841B00086C
:101070003C090008FCFFFFFF282B0008200F000898
:101080004C1E0008FC08000881ACFFFF2810000877
:10109000E9080008A8090008102A00089C0A0008AE
:1010A000080000003803000860030008FC0800087E
:1010B0008243ACFF88100008E9080008A80900086E
:1010C000102A00089C0A00080800000038030008E5
:1010D000B00F0008701E00085827000850030008D1
:1010E000FC08000888564152414C4C4FD4FFFFFF8A
:1010F000B0100008E9080008D00900088827000897
:1011000054280008F01B0008F0280008102A0008E6
:101110009C0A0008180000003C0900081B40000859
:101120004C1700080C30000868180008FC0E000876
:10113000041E0008441C000888270008182800081E
:10114000FC0E0008DC1D0008FC080008864C415419
:101150004553D4FFE4100008E9080008480F0008D0
:10116000041E0008FC080008834C46C14C1100080E
:101170007511000857F8040B083847F8040D55F8A6
:10118000042B22F0030252F8043B1847834346C164
:10119000681100089911000857F8040B001F47F860
:1011A000040D55F8042B22F0030252F8043B1847B3
:1011B000834E46C18C110008E90800089C01000814
:1011C000F028000894260008701C0008281E00085B
:1011D0003C090008FF000000F02800089C0A0008F5
:1011E000E4FFFFFF3C090008FFFFFFFF14070008B2
:1011F000FC080008835046C1B0110008E908000847
:101200005827000814070008B8260008701C0008BA
:10121000281E00083C090008FF000000F028000814
:101220009C0A0008E4FFFFFF9C010008C828000892
:10123000FC080008883F414C49474E45C4FFFFFF6A
:10124000F4110008E90800083C0900080300000048
:10125000282B00089C0A00083C000000F803000846
:101260002E56414C5545204D55535420424520455E
:1012700056454E204E4F54204F444420414E44206A
:101280004D554C5449504C45204F4620342120FFA9
:1012900068180008FC080008863F4552524FD2FFEC
:1012A00034120008E9080008441C00089C0A0008E1
:1012B0001000000030150008840A00080800000033
:1012C000241C0008FC0800088544494749D4FFFF56
:1012D00098120008D912000857F8042B57F8040B8D
:1012E000303813D4092802DDC01F0A280EDB9042D3
:1012F0000CDA0246012047F8042D47F8040D55F892
:10130000042B22F0030252F8043B1847002047F850
:10131000040D55F8042B22F0030252F8043B184741
:1013200087454E434C4F53C5C8120008311300087F
:1013300057F8040B39680022521E491E491C521CE2
:101340000B789842FAD047F8042D002B0CD11846A0
:10135000521C47F8042D47F8040D55F8042B22F0D1
:10136000030252F8043B1847491C521C0B78984260
:1013700001D0002BF8D11046401C47F8042D47F847
:10138000040D55F8042B22F0030252F8043B1847D1
:10139000C180FFFF201300089D13000856F8045B6E
:1013A00055F8042B22F0030252F8043B18470000C2
:1013B00084574F52C4FFFFFF90130008E90800084C
:1013C0009C0F00087C0F0008041E0008C8280008B5
:1013D000441C00082C1300087C0F0008DC1D0008CA
:1013E000F01B0008F0280008C81B0008A81B000814
:1013F000B00F0008701E0008C8280008B00F0008D1
:10140000B8260008A81B0008301D0008482700085F
:10141000B00F0008B8260008841B0008C828000880
:10142000701E0008FC080008864E554D4245D2FF4C
:10143000B0130008E9080008180D0008EC0B0008BC
:101440004827000848270008CC1A0008701C00082C
:10145000B8260008281E00083C0900082D000000DE
:101460001829000858270008282B0008701C0008BD
:10147000C81B0008C82800083C090008FFFFFFFF40
:10148000702500084C1E000844040008701C000869
:10149000281E000848270008F02800089C0A0008B9
:1014A00068000000701C0008281E00083C090008A5
:1014B0002E000000F02800089C0A000840000000F0
:1014C000701C0008281E00083C0900082C000000C1
:1014D000182900089C0A000810000000B82D000818
:1014E000840A00089CFFFFFF340D000858270008FD
:1014F0003C0900085F400008A412000848270008C3
:10150000840A00087CFFFFFF241C0008841B0008DD
:101510009C0A00080800000040250008340D00085F
:10152000FC080008854552524FD2FFFF28140008DE
:10153000E9080008B00F0008281700080C30000860
:101540004C1700080C300008E02E00085C0F000863
:10155000041E00089C0A0008400000008C060008D9
:10156000041E00089C0A0008300000008C060008D9
:10157000041E0008FC11000870110008041E000879
:10158000480F00084C1E00088C060008041E0008C6
:10159000200F00084C1E0008780600086818000894
:1015A000C1A7FFFF24150008E9080008C8040008C7
:1015B000E42900083C09000851400008A412000872
:1015C000241C0008601F0008FC08000886455850CD
:1015D0004543D4FFA0150008E90800080C020008E4
:1015E000F8010008B8260008F01B0008C828000809
:1015F000F01B0008B8260008042F0008140B000890
:10160000A8300008B80B0008701C00083C0900084E
:1016100009000000182900089C0A00080C000000BE
:10162000241C0008EC0E0008701C00089C01000837
:1016300018290008F01B00083C0900087F00000082
:1016400018290008502B00089C0A000850000000D0
:10165000241C0008701C0008001B000894260008C9
:1016600018290008701C0008841B0008682700085F
:10167000F0280008C8280008C81B00089C0A0008B9
:101680001000000088010008840A00086C000000B7
:10169000A4010008840A000860000000701C000813
:1016A0003C0900080D000000182900089C0A0008E9
:1016B0001C000000641B0008241C0008EC0E00083D
:1016C00048270008840A000808000000701C000871
:1016D000001B0008701E0008582700087C0F000837
:1016E000DC1D000848270008001B0008B826000879
:1016F000701E000860300008DC0A000804FFFFFFCD
:10170000E02E0008B82600084C170008441C00080A
:1017100094260008701E0008FC08000885434F55F9
:101720004ED4FFFFCC150008E9080008701C000823
:10173000B8260008441C0008281E0008FC08000801
:1017400084244C45CEFFFFFF1C17000851170008EA
:101750003A684040115C094301D0401CFAE747F861
:10176000040D55F8042B22F0030252F8043B1847ED
:1017700086464F524745D4FF40170008E908000845
:10178000A8150008701C00083C09000800000208A9
:101790005C2900083C090008C23F0008A4120008A8
:1017A000701C00083C090008000010085C290008B3
:1017B0003C090008DF3F0008A4120008701C000864
:1017C00070110008C81B000858110008FC1100081F
:1017D00070110008701C0008041E0008480F000863
:1017E0004C1E0008701C000800270008041E00089A
:1017F0003C09000815090008182900089C0A00087F
:10180000140000003C090008FCFFFFFFFC0E00086C
:10181000DC1D0008A81B0008182900089C0A000805
:10182000A8FFFFFF841B0008041E0008480F0008E3
:101830004C1E0008B8110008200F00084C1E0008BC
:10184000743A0008443A0008FC080008834259C56D
:101850007017000859180008FFF77ABA8541424FFF
:1018600052D4FFFF4C180008E9080008E00C0008FB
:10187000FC0C00080C0200083C090008743F00083A
:1018800058110008F80900089C0A00081000000020
:10189000241C000894110008980E00083C09000858
:1018A000D0BB0120041E00089C0A00086C00000048
:1018B0003C0900081C1900084C1700080C300008EF
:1018C000E03000089C0A0008F8FFFFFFA83000087D
:1018D0003C09000843000000182900089C0A000881
:1018E000E0FFFFFFA83000083C0900084F0000009F
:1018F000182900089C0A0008C8FFFFFFA83000084C
:101900003C0900080D000000182900089C0A000886
:10191000B0FFFFFF3C310008EC0500082045727263
:101920006F722048616C74202845484F4E2F4548FF
:101930004F464629202D20546F20434F6E74696E08
:101940007565205479706520434F207468656E205A
:10195000456E7465723A200084434F4CC4FFFFFF0C
:101960005C180008E908000804070008783B000834
:10197000C4060008EC050008900D0A4649534820AB
:1019800053797374656D3A0D8AFFFFFF581900088B
:10199000832E53C878190008E90800083C0900089C
:1019A0001000000020020008FC080008832E53C429
:1019B00090190008E90800083C0900080A00000026
:1019C00020020008FC080008832E53C2AC1900084E
:1019D000E90800086827000820020008FC08000841
:1019E000822ED3FFC8190008E90800081803000870
:1019F000041E0008201B0008002700081829000802
:101A0000E42900089C0A000868000000F8030008A8
:101A100005544F533E20FFFF18030008041E000822
:101A2000201B000800270008140B0008001B0008FA
:101A3000041E0008340F0008041E00083C090008BA
:101A40000A000000182900089C0A00081000000085
:101A5000A4020008840A000808000000BC02000874
:101A6000682F000888270008080B0008C0FFFFFF48
:101A7000FC08000884324455D0FFFFFFE01900083D
:101A8000851A000838687A6847F8042D47F8040D6D
:101A900055F8042B22F0030252F8043B18470000CB
:101AA000842D4455D0FFFFFF741A0008E908000890
:101AB000701C00089C0A000808000000701C000848
:101AC000FC08000883524FD4A01A0008D11A00085D
:101AD00057F8042B57F8041B57F8040B47F8041D5C
:101AE00047F8042D47F8040D55F8042B22F00302A3
:101AF00052F8043B1847000081C9FFFFC41A0008D0
:101B0000051B0008306847F8040D55F8042B22F037
:101B1000030252F8043B1847835350C0F81A0008D8
:101B2000251B0008384647F8040D55F8042B22F011
:101B3000030252F8043B1847835250C0181B000898
:101B4000451B0008304647F8040D55F8042B22F0D9
:101B5000030252F8043B1847854C454156C5FFFF28
:101B6000381B0008691B00083268726055F8042BA6
:101B700022F0030252F8043B184700008252BEFFD5
:101B8000581B0008891B000856F8040B47F8040D81
:101B900055F8042B22F0030252F8043B18470000CA
:101BA00081D2FFFF7C1B0008AD1B0008306847F89E
:101BB000040D55F8042B22F0030252F8043B184799
:101BC000823ED2FFA01B0008CD1B000857F8041B63
:101BD00046F8041D55F8042B22F0030252F8043B8A
:101BE00018470000844F5645D2FFFFFFC01B000876
:101BF000F51B000857F8042B57F8040B47F8040DA1
:101C000047F8042D47F8040D55F8042B22F0030281
:101C100052F8043B184700008444524FD0FFFFFFA6
:101C2000E41B0008291C00083F1D55F8042B22F076
:101C3000030252F8043B184784535741D0FFFFFF7B
:101C4000181C0008491C000857F8042B57F8040B0F
:101C500047F8042D47F8040D55F8042B22F0030231
:101C600052F8043B18470000834455D0381C000844
:101C7000751C0008386847F8040D55F8042B22F04D
:101C8000030252F8043B1847900D0A537461636BCA
:101C90002053747566663A0D8AFFFFFF681C0008C2
:101CA00087414E44424954D3881C0008B11C0008A7
:101CB00057F8042B57F8041B08681040086055F8C3
:101CC000042B22F0030252F8043B18478753455473
:101CD000424954D3A01C0008DD1C000857F8042B0F
:101CE00057F8041B08681043086055F8042B22F0CD
:101CF000030252F8043B184787434C52424954D3DD
:101D0000CC1C0008091D000857F8042B57F8041BC9
:101D100008689043086055F8042B22F0030252F83B
:101D2000043B184785434D4F56C5FFFFF81C00087C
:101D3000351D000857F8041B57F8042B57F8043BCF
:101D4000002907D018781070491E002902D0521CB3
:101D50005B1CF7D155F8042B22F0030252F8043B28
:101D6000184700008446494CCCFFFFFF241D0008A3
:101D7000751D000857F8040B57F8041B57F8042B7F
:101D8000002904D08B181070521C9A42FBD155F8D0
:101D9000042B22F0030252F8043B184785455241B8
:101DA00053C5FFFF641D0008E90800084827000824
:101DB000701D0008FC08000886424C414E4BD3FFC2
:101DC0009C1D0008E9080008EC0E0008701D0008C2
:101DD000FC080008822BA1FFB81D0008E11D0008C7
:101DE00057F8041B57F8040B0A688018086055F868
:101DF000042B22F0030252F8043B184781C0FFFF76
:101E0000D41D0008091E000857F8041B086847F88D
:101E1000040D55F8042B22F0030252F8043B184736
:101E20008243C0FFFC1D00082D1E000857F8041B4C
:101E3000087847F8040D55F8042B22F0030252F8F5
:101E4000043B184781A1FFFF201E0008511E000817
:101E500057F8040B57F8041B016055F8042B22F0C7
:101E6000030252F8043B18478243A1FF441E0008B6
:101E7000751E000857F8040B57F8041B017055F83D
:101E8000042B22F0030252F8043B18479F0D0A521C
:101E900065616420616E64205772697465204D65C8
:101EA0006D6F727920576974683A0D8A681E000850
:101EB00081DDFFFF8C1E0008E90800085C070008B0
:101EC000C0000000A8BB0120FC080008C1DBFFFF28
:101ED000B01E0008E90800085C07000800000000C8
:101EE000A8BB0120FC080008C95B434F4D50494C7A
:101EF00045DDFFFFCC1E0008E9080008C804000803
:101F0000E42900083C09000877400008A4120008F2
:101F1000241C00089411000890100008FC08000818
:101F2000C8444C4954455241CCFFFFFFE81E00080D
:101F3000E90800085C0F0008041E00089C0A00085D
:101F400010000000441C0008601F0008601F00080B
:101F5000FC080008C74C4954455241CC201F0008DA
:101F6000E90800085C0F0008041E00089C0A00082D
:101F700010000000E40400083C090008901000086C
:101F8000FC0800088223BEFF541F0008E90800086F
:101F9000241C0008241C000830030008041E00084C
:101FA0008C0F0008F01B0008F0280008FC0800084F
:101FB00084484F4CC4FFFFFF841F0008E908000855
:101FC0003C090008FFFFFFFF30030008DC1D00088C
:101FD00030030008041E0008701E0008FC080008FA
:101FE00084534947CEFFFFFFB01F0008E9080008EF
:101FF000CC1A0008102A00089C0A000810000000F3
:102000003C0900082D000000BC1F0008FC08000867
:102010008223D3FFE01F0008E908000844200008DD
:10202000F01B0008F01B0008502B0008E4290008F2
:102030009C0A0008E8FFFFFFFC08000881A3FFFFDF
:1020400010200008E9080008340F0008041E0008EA
:1020500004050008CC1A00083C090008090000002B
:10206000F01B00085C2900089C0A00081000000012
:102070003C09000807000000C82800083C090008C7
:1020800030000000C8280008BC1F0008FC08000839
:10209000823CA3FF3C200008E90800085C07000818
:1020A00010FA0020DCBB0120FC08000885444F45E5
:1020B00053BEFFFF90200008E9080008841B0008B9
:1020C00058110008FC110008701C00089411000849
:1020D0003C0900088B090008441C00084C1E00083D
:1020E0004C1E0008FC080008873C4255494C44D36C
:1020F000AC200008E908000834230008FC080008A8
:10210000C52B4C4F4FD0FFFFE8200008E90800081E
:1021100078270008B8030008E4040008080B00084A
:1021200064060008FC080008C44C4F4FD0FFFFFFB6
:1021300000210008E908000878270008B803000813
:10214000E4040008DC0A000864060008FC08000833
:10215000C244CFFF28210008E9080008E404000871
:10216000140B0008B00F000878270008FC080008CE
:10217000C5454E4449C6FFFF50210008E908000844
:102180007C03000868270008B8030008B00F0008A7
:10219000F01B0008F0280008441C00084C1E000832
:1021A000FC080008C4544845CEFFFFFF702100081A
:1021B000E90800087C210008FC080008C4454C53CD
:1021C000C5FFFFFFA4210008E908000868270008F0
:1021D000B8030008E4040008840A0008B00F0008EF
:1021E0004827000890100008441C000868270008D1
:1021F0007C21000868270008FC080008C249C6FFC7
:10220000BC210008E9080008E40400089C0A000852
:10221000B00F000848270008901000086827000841
:10222000FC080008C5554E5449CCFFFFFC210008AE
:10223000E908000858270008B8030008E40400086B
:102240009C0A000864060008FC080008C5414741D4
:1022500049CEFFFF24220008E9080008582700089B
:10226000B8030008E4040008840A000864060008B3
:10227000FC080008C65245504541D4FF4C220008D6
:10228000E9080008C81B0008C81B000858220008FD
:10229000841B0008841B000868270008F028000839
:1022A0007C210008FC080008C55748494CC5FFFFC1
:1022B00074220008E908000804220008DC2600084F
:1022C000FC080008C542454749CEFFFFA822000888
:1022D000E90800087C030008B00F00085827000830
:1022E000FC080008970D0A496E7369646520436F06
:1022F0006C6F6E20574F5244533A0D8AC422000827
:1023000089494D4D4544494154C5FFFFE422000829
:10231000E9080008581100083C09000840000000C6
:10232000980B0008FC080008864352454154C5FF3D
:1023300000230008E9080008A80900083C09000873
:102340000F000000F0280008102A00089C0A00086E
:102350000800000038030008C80400089C0A0008B0
:1023600024000000241C0008B8110008802F000879
:102370003C0900083B4000084C1700080C300008DE
:1023800068180008B00F0008701C00088C060008D0
:102390004C1E0008701C0008281E00083C0900089C
:1023A0001F000000D82A000850030008701C000815
:1023B0003C09000880000000980B0008B00F0008DE
:1023C0003C09000880000000980B0008582700080E
:1023D000200F0008DC1D00085811000890100008AC
:1023E000480F00084C1E0008E404000829090008F2
:1023F000B00F00080027000890100008FC08000833
:1024000088434F4E5354414ED4FFFFFF282300080A
:10241000E908000824240008FC08000883434FCE84
:1024200000240008E9080008342300083C090008DB
:10243000FCFFFFFF200F0008DC1D000890100008C3
:1024400078060008FC080008885641524941424C71
:10245000C5FFFFFF1C240008E90800086C240008E1
:10246000FC080008835641D248240008E908000807
:10247000342300083C090008F8FFFFFF200F000884
:10248000DC1D0008E40400081509000858270008AE
:10249000F41000089010000878060008FC080008F6
:1024A000C1BBFFFF64240008E908000844050008D8
:1024B000E4040008FC080008D41E000878060008A0
:1024C000FC080008C1BAFFFFA0240008E9080008C2
:1024D0009C0300083005000834230008B81E0008DB
:1024E0003C090008F8FFFFFF200F0008DC1D000872
:1024F000E4040008E9080008FC080008960D0A43F7
:10250000524541544520574F5244532057697468EF
:102510003A0D8AFFC424000884444142D3FFFFFFE0
:10252000FC240008E9080008701C0008AC0600083C
:10253000FC08000887444E45474154C5182500084B
:102540004525000857F8040B57F8042BC043D24325
:10255000521C47F8042D47F8040D55F8042B22F0BF
:10256000030252F8043B1847834450CC342500083A
:1025700029090008D8BB012083442ED26825000811
:10258000E9080008C81B0008441C0008F01B0008EC
:10259000242500089820000818200008EC1F0008D7
:1025A0008C1F0008841B0008F01B0008F02800089E
:1025B0002C2F00080C300008FC0800088244AEFFF5
:1025C00078250008E9080008482700088025000849
:1025D000682F0008FC0800088244ABFFBC250008F7
:1025E000E525000857F8040B57F8041B57F8043B7F
:1025F00057F8042B5218584147F8042D47F8040D9A
:1026000055F8042B22F0030252F8043B184700004F
:1026100084532D3EC4FFFFFFD82500082126000863
:1026200057F8042B4040124300D5401E47F8042DB4
:1026300047F8040D55F8042B22F0030252F8043B2E
:10264000184700008232AAFF102600085126000811
:1026500057F8040B400047F8040D55F8042B22F0FE
:10266000030252F8043B18478232AFFF44260008A9
:102670007526000857F8040B401047F8040D55F86C
:10268000042B22F0030252F8043B18478231ADFFBD
:10269000682600089926000857F8040B401E47F8E2
:1026A000040D55F8042B22F0030252F8043B18479E
:1026B0008231ABFF8C260008BD26000857F8040BBA
:1026C000401C47F8040D55F8042B22F0030252F881
:1026D000043B18478232ABFFB0260008E126000811
:1026E00057F8040B801C47F8040D55F8042B22F012
:1026F000030252F8043B18478234ABFFD42600088B
:102700000527000857F8040B001D47F8040D55F87D
:10271000042B22F0030252F8043B18478234ADFF29
:10272000F82600082927000857F8040B001F47F86F
:10273000040D55F8042B22F0030252F8043B18470D
:1027400081B0FFFF1C2700082909000800000000D5
:1027500081B1FFFF4027000829090008010000009F
:1027600081B2FFFF5027000829090008020000007D
:1027700081B3FFFF6027000829090008030000005B
:1027800081B4FFFF70270008290900080400000039
:10279000824DAAFF80270008E9080008801A000877
:1027A0009C2B0008C81B0008C02A0008441C000815
:1027B000C02A0008600C0008841B0008AC06000852
:1027C000FC080008824DAFFF90270008E9080008C8
:1027D000F01B0008C81B0008C81B000824250008BF
:1027E000A81B0008C02A0008880C0008841B0008E9
:1027F000A81B00089C2B000894060008441C000835
:10280000841B000894060008441C0008FC0800080B
:1028100081AAFFFFC4270008E908000898270008DC
:10282000241C0008FC080008842F4D4FC4FFFFFF44
:1028300010280008E9080008C81B00081C2600082A
:10284000841B0008CC270008FC08000881AFFFFFAC
:1028500028280008E908000834280008441C00085B
:10286000241C0008FC080008834D4FC44C280008B5
:10287000E908000834280008241C0008FC080008A7
:10288000852A2F4D4FC4FFFF68280008E90800087B
:10289000C81B000898270008841B0008CC270008E4
:1028A000FC080008822AAFFF80280008E908000819
:1028B0008C280008441C0008241C0008FC080008A0
:1028C00081ABFFFFA4280008CD28000857F8040BAF
:1028D00057F8041B401847F8040D55F8042B22F054
:1028E000030252F8043B184781ADFFFFC0280008DF
:1028F000F528000857F8040B57F8041B081A47F886
:10290000040D55F8042B22F0030252F8043B18473B
:1029100081BDFFFFE82800081D290008404057F846
:10292000040B57F8041B401A09D0404047F8040D27
:1029300055F8042B22F0030252F8043B18470138E3
:1029400047F8040D55F8042B22F0030252F8043B1B
:102950001847000081BCFFFF10290008612900080A
:102960004040013857F8041B57F8042B914200DC13
:10297000404047F8040D55F8042B22F0030252F8AA
:10298000043B18478255BCFF54290008E908000899
:10299000801A00089C2B0008102A00089C0A0008D6
:1029A00018000000241C0008102A0008E429000870
:1029B000840A00080C000000F0280008102A000813
:1029C000FC08000881BEFFFF84290008E908000810
:1029D000441C00085C290008FC0800088230BDFF88
:1029E000C4290008E9290008404057F8041B0029C1
:1029F00000D1401E47F8040D55F8042B22F00302C5
:102A000052F8043B184700008230BCFFDC29000864
:102A1000152A000857F8041B40400138094300D428
:102A2000404047F8040D55F8042B22F0030252F8F9
:102A3000043B1847834249CE082A0008E9080008E9
:102A40005C070008020000009CBB0120FC08000895
:102A5000834845D8342A0008E90800085C070008C4
:102A6000100000009CBB0120FC080008874445437F
:102A7000494D41CC502A0008E90800085C070008CD
:102A80000A0000009CBB0120FC080008864E454758
:102A90004154C5FF6C2A00089D2A000857F8040B12
:102AA000C043401C47F8040D55F8042B22F00302E4
:102AB00052F8043B18470000834142D38C2A000897
:102AC000E9080008701C000894060008FC080008CB
:102AD000834D49CEB82A0008E9080008801A00088A
:102AE000CC2900089C0A000808000000441C0008CB
:102AF000241C0008FC080008834D41D8D02A000897
:102B0000E9080008801A00085C2900089C0A0008EF
:102B100008000000441C0008241C0008FC080008F1
:102B200083414EC4F82A00082D2B000857F8040BE7
:102B300057F8041B084047F8040D55F8042B22F001
:102B4000030252F8043B1847824FD2FF202B0008A3
:102B5000552B000857F8040B57F8041B084347F897
:102B6000040D55F8042B22F0030252F8043B1847D9
:102B7000834E4FD4482B00087D2B000857F8040BD8
:102B8000C04347F8040D55F8042B22F0030252F815
:102B9000043B184783584FD2702B0008A12B000824
:102BA00057F8040B57F8041B484047F8040D55F834
:102BB000042B22F0030252F8043B18478453585464
:102BC000C8FFFFFF942B0008CD2B000857F8040B1B
:102BD00000B247F8040D55F8042B22F0030252F816
:102BE000043B184784535854C2FFFFFFBC2B000816
:102BF000F52B000857F8040B40B247F8040D55F8C0
:102C0000042B22F0030252F8043B18478452455625
:102C1000D7FFFFFFE42B00081D2C000857F8040B1A
:102C200000BA47F8040D55F8042B22F0030252F8BD
:102C3000043B1847834153D20C2C0008412C000858
:102C400057F8042B57F8040B104147F8040D55F8BA
:102C5000042B22F0030252F8043B1847834C53D252
:102C6000342C0008692C000857F8042B57F8040B83
:102C7000D04047F8040D55F8042B22F0030252F817
:102C8000043B1847834C53CC5C2C0008912C000863
:102C900057F8042B57F8040B904047F8040D55F8EB
:102CA000042B22F0030252F8043B1847822ED2FF75
:102CB000842C0008E9080008C81B00081C2600082E
:102CC000841B000880250008FC080008832E52D5CC
:102CD000AC2C0008E9080008C81B000848270008B9
:102CE00098200008182000088C1F0008701C00089D
:102CF000841B0008441C0008F02800082C2F000842
:102D00000C300008FC0800088255AEFFCC2C0008EF
:102D1000E908000848270008C4250008FC08000846
:102D200081BFFFFF082D0008E9080008041E000805
:102D3000402D0008FC08000881AEFFFF202D000890
:102D4000E90800081C260008C4250008FC08000843
:102D5000822EC2FF382D0008E90800086827000805
:102D6000D4020008FC080008822EC8FF502D00087D
:102D7000E90800083C09000810000000D40200081F
:102D8000FC080008822EC4FF682D0008E90800082E
:102D90003C0900080A000000D4020008FC080008F2
:102DA000834F46C6842D0008290900080000000052
:102DB000824FCEFFA02D000829090008FFFFFFFF6A
:102DC000910D0A4E554D4245522053747566663A30
:102DD0000D8AFFFFB02D00088A55415254335F49D8
:102DE0004E49D4FFC02D0008E90800083C0900083E
:102DF00000C20120041E0008E42900089C0A000803
:102E00001C0000003C09000804C20120041E000848
:102E1000C81B0008840A0008100000003C090008D4
:102E200000C20100C81B00083C0900086022C20162
:102E3000841B0008542800083C090008084800408A
:102E40004C1E0008FC080008864D59424155C4FF3D
:102E5000D82D0008E90800085C0700080000000001
:102E600000C201203C09000804C201204C1E0008D9
:102E7000FC0800088955415254335F4C53D2FFFF80
:102E8000482E0008892E00080549087847F8040DE7
:102E900055F8042B22F0030252F8043B18470000B7
:102EA000004800408855415254335F52D8FFFFFF1D
:102EB000742E000829090008044800408855415232
:102EC00054335F54D8FFFFFFA42E000829090008DF
:102ED0000448004084584F46C6FFFFFFBC2E000840
:102EE000E52E0008FDF7E6FFFDF7ECFF55F8042B93
:102EF00022F0030252F8043B1847000083584FCEDB
:102F0000D42E0008092F0008FDF7D4FFFDF7E2FFDB
:102F100055F8042B22F0030252F8043B1847000036
:102F2000865350414345D3FFFC2E0008E9080008B2
:102F300048270008002B0008AC1A00089C0A00086B
:102F40001800000048270008140B0008682F00082C
:102F5000DC0A0008F8FFFFFFFC0800088553504119
:102F600043C5FFFF202F0008E9080008EC0E000809
:102F700060300008FC080008834944AE5C2F00085C
:102F8000E9080008281700083C0900081F00000095
:102F9000282B00080C300008682F0008FC080008E7
:102FA000C22EA2FF782F0008E90800083C0900089B
:102FB000220000005C0F0008041E00089C0A0008A4
:102FC0002C000000E4040008F8030008BC1300080B
:102FD000B00F0008281E0008B826000804100008DA
:102FE00050030008840A000814000000BC13000805
:102FF000B00F0008281700080C300008FC08000873
:1030000084545950C5FFFFFFA02F0008E9080008AD
:10301000AC1A00089C0A000834000000E02E0008EA
:10302000F01B0008C8280008441C0008140B000806
:10303000001B0008380B000860300008DC0A00089C
:10304000F0FFFFFF840A000808000000241C0008AD
:10305000FC08000884454D49D4FFFFFF00300008FC
:103060006530000857F8040BFDF724FF0649087087
:1030700006490868401C086055F8042B22F003023A
:1030800052F8043B1847000004480040A4BB01204C
:10309000834B45D954300008E9080008042F000884
:1030A000A8300008FC080008AD300008074A084BAB
:1030B00019688909FCD3106847F8040D55F8042BEA
:1030C00022F0030252F8043B184700000448004075
:1030D00000480040843F4B45D9FFFFFF9030000877
:1030E000E5300008FDF7E6FEFDF7F4FE4040074B33
:1030F0001968890900D3013847F8040D55F8042BE5
:1031000022F0030252F8043B184700000048004038
:10311000834352D3D4300008E90800084827000848
:10312000140B00083C310008DC0A0008F8FFFFFF20
:10313000FC0800088243D2FF10310008E9080008AB
:103140000C020008F8030008020D0AFFFC08000842
:103150008C0D0A4649534820494F3A0D8AFFFFFF1C
:10316000343100088B495251535F524553554DC578
:10317000503100087931000801F07AF955F8042B34
:1031800022F0030252F8043B184700008C495251C8
:10319000535F53555350454EC4FFFFFF6431000841
:1031A000A531000801F062F955F8042B22F0030262
:1031B00052F8043B184700008F5359535449434B6E
:1031C0005F4952515F4F46C68C310008D13100082B
:1031D00004490520086055F8042B22F0030252F838
:1031E000043B184710E000E08E5359535449434BB9
:1031F0005F4952515F4FCEFFB831000801320008DD
:1032000004490720086055F8042B22F0030252F805
:10321000043B184710E000E08F0D0A494E54455218
:1032200052555054533A0D8AE83100088A464C41B1
:1032300053485F534156C5FF18320008E90800089B
:1032400058110008543B00085C2900089C0A00083B
:10325000200000003C310008F80300080F4E4F54D6
:1032600048494E4720544F2053415645FC0800081A
:103270003C330008041E00083C0900080000100848
:10328000182900089C0A0008280000003C310008AA
:10329000F8030008144C41535420464C4153482035
:1032A000415641494C2055534544FFFFFC08000856
:1032B00034100008FC0E0008041E00084C330008FF
:1032C0004C1E00085811000854330008443300080D
:1032D0004C1E000858110008543B0008182900082B
:1032E0009C0A000848000000F0370008543B000822
:1032F000200F00084C1E00084C330008041E000874
:10330000FC0E00084C1E000844330008041E000890
:10331000480F00084C1E0008003500083C3100082A
:10332000743A0008443A0008FC08000858110008E4
:1033300080330008840A00089CFFFFFF2909000869
:1033400004000020290900080800002029090008BD
:103350000C0000205933000857F8040B064A1040AF
:10336000064A1268801847F8040D55F8042B22F01D
:10337000030252F8043B1847FFFF0F00040000202F
:10338000E9080008FC110008701C0008C81B0008B0
:1033900094110008701C0008041E00083C09000875
:1033A0008B090008182900089C0A00082800000062
:1033B00000270008701C0008701C0008041E00088C
:1033C00054330008441C00084C1E0008840A0008FE
:1033D00000010000701C0008041E00083C090008E1
:1033E0002909000818290008F01B0008041E00081D
:1033F0003C0900081509000818290008502B00088E
:103400009C0A000810000000241C0008840A000820
:10341000C400000000270008701C0008041E0008FB
:103420003C0900083C090008182900089C0A00080B
:103430001000000000270008840A0008D8FFFFFFE2
:10344000701C0008041E00083C090008F80300086E
:10345000182900089C0A000820000000701C0008C1
:1034600000270008281E0008C828000804100008CB
:10347000840A0008A0FFFFFF701C0008041E00085B
:103480003C090008FC08000818290008E429000885
:103490009C0A00083C000000701C0008041E000884
:1034A000543B0008CC2900089C0A000868FFFFFF75
:1034B000701C0008701C0008041E0008543300082B
:1034C000441C00084C1E0008840A000848FFFFFF47
:1034D000241C0008841B000870110008701C0008E0
:1034E000041E0008701C0008480F00084C1E00084D
:1034F00054330008441C00084C1E0008FC08000857
:10350000E90800083C09000800000208701C0008D7
:103510003C090008040000204C1E0008701C000834
:10352000C81B0008041E00083C3C0008F0280008E6
:103530009C0A000810000000841B0008241C0008DE
:10354000FC080008A81B00083C3300084C1E0008BB
:10355000A81B00083C09000808000000C828000853
:10356000701C0008041E0008480F00084C1E0008CC
:1035700000270008041E0008FC0E00084C1E00086E
:103580003C310008F80300081741444445442057E3
:103590004F5244532046524F4D204144445220FF45
:1035A000A81B0008702D0008841B000800270008D5
:1035B000041E0008840A000854FFFFFFE908000801
:1035C000701C0008C8280008C81B0008701C0008F0
:1035D000041E0008B82600089C0A000838000000F5
:1035E0003C310008F8030008174552415345442078
:1035F00042414420464C41534820504147452020F9
:10360000702D0008241C0008841B0008241C0008DE
:10361000FC08000800270008701C0008701C000847
:10362000A81B0008441C0008F02800089C0A000899
:103630000C000000840A000898FFFFFF3C310008DE
:10364000F80300080E464C4153482050414745209E
:103650004F4B20FFF0280008702D0008841B000845
:10366000241C0008FC0800088C464C4153485F4667
:103670004F524745D4FFFFFF2C320008E9080008ED
:10368000F80300081754414B45532041424F55540D
:103690002036205345434F4E44532120A03100088B
:1036A00074390008543900085C0700082A02010038
:1036B000103C0240543900085C0700083202010047
:1036C000103C0240543900085C0700083A0201002F
:1036D000103C0240543900085C0700084202010017
:1036E000103C0240543900085C0700084A020100FF
:1036F000103C0240543900085C07000852020100E7
:10370000103C0240543900085C0700085A020100CE
:10371000103C024054390008943900087431000804
:10372000683B000858110008CC2900089C0A0008D2
:1037300010000000DC3E0008840A00081C000000A5
:103740003C090008643F0008543B0008FC110008D5
:10375000701100084C1E00085C07000800000208F9
:10376000040000203C09000811111111701C000810
:10377000443300084C1E00084C3300084C1E00085F
:10378000003500083C310008743A0008443A00084B
:10379000FC0800089937000857F8040B57F8041B79
:1037A000064A50F8044B42F8044B8842F9D155F8C8
:1037B000042B22F0030252F8043B1847D0FE0020ED
:1037C0003C090008D0FE0020980E0008FC08000804
:1037D000E90800083C090008A83900083C0900086D
:1037E000FC38000894370008C0370008FC080008BF
:1037F000E9080008A03100087439000854390008AD
:103800005C07000801020000103C02403C33000845
:10381000041E0008C81B00083C0900081000000036
:103820003C330008DC1D0008B00F0008C81B00086E
:10383000543B0008701C0008041E00083C330008BC
:10384000041E00084C1E0008543900088827000890
:103850003C330008DC1D000800270008701C00082D
:10386000A81B0008F02800089C0A00080C000000B3
:10387000840A0008C0FFFFFF841B0008241C000806
:10388000241C00083C09000800000020041E000859
:10389000A81B00084C1E0008543900083C330008DF
:1038A000041E0008A81B0008002700084C1E000882
:1038B0005439000844330008041E0008A81B0008FF
:1038C0009C010008C82800084C1E00085439000854
:1038D0004C330008041E0008841B00083C09000843
:1038E0000C000000C82800084C1E000854390008CD
:1038F0009439000874310008FC080008E908000841
:103900007C360008A03100087439000854390008DA
:103910005C07000801020000103C02405C07000840
:1039200000000208040000203C090008100000000C
:10393000200F0008DC1D0008780E0008F037000892
:10394000780E00087C3600089439000874310008AD
:10395000FC08000859390008054908680004FCD231
:1039600055F8042B22F0030252F8043B18470000DC
:103970000C3C0240E90800085C0700082301674589
:10398000043C02405C070008AB89EFCD043C0240D8
:10399000FC080008E90800085C0700080000008037
:1039A000103C0240FC08000884504F46C6FFFFFF51
:1039B00068360008E90800085C07000800000000FD
:1039C000CCBB0120FC08000883504FCEA83900086A
:1039D000E90800085C070008550E0008CCBB012070
:1039E000FC08000881D0FFFFC83900082909000839
:1039F000CCBB01208545484F46C6FFFFE43900088F
:103A0000E9080008482700083C090008D0BB01204D
:103A10004C1E0008FC0800088445484FCEFFFFFFFD
:103A2000F4390008E9080008582700083C09000894
:103A3000D0BB01204C1E0008FC080008832E44D394
:103A4000183A0008E9080008A8090008180D00083D
:103A50008C2D0008340D00083C090008903F000838
:103A60004C1700080C300008FC080008832E56D3C1
:103A70003C3A0008E9080008D0090008180D0008C1
:103A800088270008542800088C2D0008340D0008F1
:103A90003C090008853F00084C1700080C3000085E
:103AA000FC0800088444554DD0FFFFFF6C3A000825
:103AB000E9080008F01B000844120008180D00086F
:103AC000582A000848270008140B00083C31000859
:103AD000701C00083C0900080A000000D42C0008F3
:103AE0008827000848270008140B0008701C0008ED
:103AF000041E00083C0900080E000000D42C000839
:103B000000270008DC0A0008E4FFFFFFE03000089F
:103B10009C0A000808000000641B0008DC0A00087A
:103B2000ACFFFFFF241C00083C310008340D0008E6
:103B3000FC0800088556424153C5FFFFA43A00081F
:103B4000290900089CBA01208544424153C5FFFF62
:103B5000343B00082909000810000020855242412A
:103B600053C5FFFF483B000829090008000000205A
:103B700083434CD35C3B0008E9080008F8030008C5
:103B8000041B5B324AFFFFFFF8030008041B5B3B8A
:103B900048FFFFFF3C310008FC080008C1A8FFFFF8
:103BA000703B0008E90800083C09000829000000F3
:103BB000580B0008E42900089C0A000834000000A3
:103BC0003C3100083C09000810000000603000088B
:103BD000200400083C09000871FA0020281E000893
:103BE0009C0A000810000000840A0008BCFFFFFFC8
:103BF000FC0800083C090008A23F00084C17000818
:103C00000C300008FC080008C1DCFFFF9C3B0008EA
:103C1000E9080008482700089C0F00087C0F0008EE
:103C2000041E0008C8280008701E0008FC080008D0
:103C300086535953434CCBFF083C0008413C0008D5
:103C40000549086847F8040D55F8042B22F00302D3
:103C500052F8043B184700000000002085535443ED
:103C600054D2FFFF303C00082909000898BA01200F
:103C70008544454C41D9FFFF5C3C0008813C00086D
:103C800057F8041B57F8040B0C4CC043401C206031
:103C90000B4A11600B4A1160002806D00A4A1068CE
:103CA0000721116021680029FCD1106055F8042B10
:103CB00022F0030252F8043B1847000098BA012092
:103CC00014E000E018E000E010E000E0824DD3FFD7
:103CD000703C0008E90800083C090008EFCC01002E
:103CE0007C3C0008FC08000887574F52444341D4ED
:103CF000CC3C0008E9080008B00F0008C81B000809
:103D000048270008B81000083C0900080D00000012
:103D1000B8100008B00F00083C0900080D000000B2
:103D2000BC130008701C0008281E00083C0900088D
:103D30000A000000CC1A0008701E0008701C000861
:103D4000B8260008CC0F00083C09000884000000D9
:103D5000C8280008A81B0008701E00083C090008BD
:103D60000D000000B81000083C0900088A0000009F
:103D7000B81000083410000858110008901000080E
:103D8000841B00083C090008C8BB01204C1E000829
:103D9000FC08000885574F5244D3FFFFE83C000859
:103DA000E9080008782700082C2F0008581100089F
:103DB000E02E000848270008F01B0008B82600087D
:103DC000281E00083C0900080D0000001829000802
:103DD000E42900089C0A00081C000000241C0008BC
:103DE000701C0008FC11000870110008F01B00088E
:103DF000F02800086C0F0008041E0008C8280008FE
:103E00003C0900084A000000CC2900089C0A000870
:103E1000100000003C310008782700082C2F000813
:103E2000701C0008100F0008041E00085C29000820
:103E30009C0A00080C000000840A000854000000DE
:103E4000701C0008802F0008682700082C2F00082D
:103E5000701C0008B8260008281E00083C0900084D
:103E60000D000000182900089C0A00080800000046
:103E70000C020008FC11000870110008041E000864
:103E8000701C0008E42900089C0A000828FFFFFFB6
:103E9000241C00083C310008FC080008874D5957D5
:103EA0004F5244D3943D0008E90800085C0700081D
:103EB00000000208C4BB0120A03D00085C07000808
:103EC00000000000C4BB0120FC08000889464953DB
:103ED000485F4F4E4CD9FFFF9C3E0008E13E000872
:103EE00009490A4C21600A4C21600A490A4C2160A8
:103EF0000A4C21600A490B4C216055F8042B22F032
:103F0000030252F8043B1847643F0008C8BB012075
:103F1000080000209CBA0120B8BB01200C00002042
:103F200010000020BCBB012084464953C8FFFFFF9E
:103F3000CC3E0008E908000800350008C406000867
:103F4000FC080008990D0A464953482052656665E9
:103F500072656E6365204D6F64656C3A0D8AFFFF74
:103F6000283F0008890D0A4750494F3A0D8AFFFF44
:103F7000443F00080352554E2000203F2000203CC3
:103F800043523E20005641522043454C4C532000A2
:103F900044494354494F4E41525920425954455384
:103FA000200020434F4D4D454E54204C494E452056
:103FB00043414E4E4F5420424520454D50545920C8
:103FC00015002043414E5420464F52474554204649
:103FD00049534820494E20464C4153482015002063
:103FE000494E20464C415348202D205345452046FC
:103FF0004C4153485F464F524745542015002044DA
:10400000494354494F4E4152592046554C4C202D5E
:1040100020534545202E44532015002052414D2069
:104020005641522053504143452046554C4C202D7B
:1040300020534545202E565320150020495320413A
:104040004C524541445920444546494E454420156B
:1040500000203F204E4F5420574F5244201500203F
:104060003F204E4F5420574F5244204F52204E5520
:104070004D424552201500204341555345442041AF
:1040800020535441434B204552524F52201500209B
:10409000535441434B204552524F52205748494CAC
:1040A0004520455845435554494E47204F522043DB
:1040B0004F4D50494C494E47201500204552524F14
:1040C00052202D204E4F5420434F4D50494C494EC5
:1040D00047201500204552524F52202D204558456B
:1040E0004355544544205748494C4520434F4D5073
:1040F000494C494E47201500E90800085C070008B4
:1041000005070000003C0240FC08000811410008BF
:104110004CF20004C2F201044FF000034FF0800C97
:1041200053F8042B44F8042BBCF1010CF8D155F8DA
:10413000042B22F0030252F8043B1847E908000858
:104140000C4100085C07000800C0012008ED00E0F9
:1041500074070008003802409007000801000000C2
:10416000D0070008003802405C070008000000008B
:10417000083802407407000800380240B007000801
:10418000FFFFF6FED0070008003802405C07000879
:104190001030002404380240740700080038024040
:1041A000B0070008FFFFFBFFD007000800380240FF
:1041B0005C070008000000000C380240740700088B
:1041C000003802409007000800000100D0070008F6
:1041D000003802404C08000874070008003802400C
:1041E000B007000800000200640800087407000817
:1041F000403802409007000800000010D007000877
:104200004038024074070008007000409007000822
:1042100000400000D0070008007000403C09000882
:10422000083802403C09000800000000D81C0008C3
:104230003C090008083802403C09000800800000E2
:10424000D81C00083C090008083802403C09000856
:1042500000140000D81C00085C0700080A3B400559
:104260000438024074070008003802409007000834
:1042700000000001D0070008003802404C08000888
:104280007407000800380240B00700080000000270
:1042900064080008F8400008740700080838024065
:1042A000B0070008FCFFFFFFD007000808380240F5
:1042B0007407000808380240900700080200000058
:1042C000D0070008083802404C08000874070008AE
:1042D00008380240B00700080C0000003C09000844
:1042E0000800000018290008640800085C0700089E
:1042F0000030005084380240740700080038024043
:104300009007000800000004D007000800380240B1
:104310004C0800087407000800380240B007000885
:1043200000000008640800085C070008808908078E
:10433000000000203C090008303802403C09000819
:1043400087000000D81C00083C09000840380240E3
:104350003C09000800000400D81C00085C070008A5
:1043600000770000240802401C08000800080240F2
:104370000300F0000100A0005C0700080C20000012
:104380000C4800405C0700080700000010E000E057
:104390003C090008303802403C09000802000000D7
:1043A000D81C00083C090008443802403C090008B9
:1043B00000100000D81C00083C090008200402403E
:1043C0003C09000800505500D81C00083C090008B2
:1043D000000402403C090008850A0055D81C00086A
:1043E0003C090008003001403C0900083D03000082
:1043F000D81C00083C090008003001403C090008B6
:1044000040000000D81C00083C09000814040240C9
:104410003C09000801700000D81C00083C09000895
:10442000000802403C09000815540500D81C00088B
:104430003C090008140802403C090008C0030000C1
:10444000D81C0008FC080008BFF34F8F054801681E
:1044500011F4E0610448014302480160BFF34F8F4B
:10446000FEE700000CED00E00400FA0572B67047AC
:1044700062B6704780B5FFF7E7FF01BDFCF768BC87
:10448000FFF7FEBFFFF7FEBFFFF7FEBFFFF7FEBF60
:10449000FFF7FEBFFFF7FEBFFFF7FEBFFCF790BCC4
:1044A000FFF7FEBFFFF7FEBFFFF7FEBFFFF7FEBF40
:1044B000FFF7FEBFFFF7FEBFFFF7FEBFFFF7FEBF30
:1044C000FFF7FEBFFFF7FEBFFFF7FEBFFFF7FEBF20
:1044D000FFF7FEBFFFF7FEBFFFF7FEBFFFF7FEBF10
:1044E000FFF7FEBFFFF7FEBFFFF7FEBFFFF7FEBF00
:1044F000FFF7FEBFFFF7FEBFFFF7FEBFFFF7FEBFF0
:10450000FFF7FEBFFFF7FEBFFFF7FEBFFFF7FEBFDF
:10451000FFF7FEBFFFF7FEBFFFF7FEBFFFF7FEBFCF
:10452000FFF7FEBFFFF7FEBFFFF7FEBFFFF7FEBFBF
:10453000FFF7FEBFFFF7FEBFFFF7FEBFFFF7FEBFAF
:10454000FFF7FEBFFFF7FEBFFFF7FEBFFFF7FEBF9F
:10455000FFF7FEBFFFF7FEBFFFF7FEBFFFF7FEBF8F
:10456000FFF7FEBFFFF7FEBFFFF7FEBFFFF7FEBF7F
:10457000FFF7FEBFFFF7FEBFFFF7FEBFFFF7FEBF6F
:10458000FFF7FEBFFFF7FEBFFFF7FEBFFFF7FEBF5F
:10459000FFF7FEBFFFF7FEBFFFF7FEBFFFF7FEBF4F
:1045A000FFF7FEBFFFF7FEBFFFF7FEBFFFF7FEBF3F
:1045B000FFF7FEBFFFF7FEBFFFF7FEBFFFF7FEBF2F
:1045C000FFF7FEBFFFF7FEBFFFF7FEBFFFF7FEBF1F
:1045D000FFF7FEBFFFF7FEBFFFF7FEBFFFF7FEBF0F
:0845E000FFF7FEBFFFF7FEBF6D
:0400000500000000F7
:00000001FF
