:020000040800F2
:1000000000000220D54A0008D94A0008CD4A00085D
:10001000DD4A0008E14A0008E54A00080000000047
:10002000000000000000000000000000E94A000895
:10003000ED4A000800000000F14A0008F54A0008F7
:10004000F94A0008FD4A0008014B0008054B00086A
:10005000094B00080D4B0008114B0008154B000818
:10006000194B00081D4B0008214B0008254B0008C8
:10007000294B00082D4B0008314B0008354B000878
:10008000394B00083D4B0008414B0008454B000828
:10009000494B00084D4B0008514B0008554B0008D8
:1000A000594B00085D4B0008614B0008654B000888
:1000B000694B00086D4B0008714B0008754B000838
:1000C000794B00087D4B0008814B0008854B0008E8
:1000D000894B00088D4B0008914B0008954B000898
:1000E000994B00089D4B0008A14B0008A54B000848
:1000F000A94B0008AD4B0008B14B0008B54B0008F8
:10010000B94B0008BD4B0008C14B0008C54B0008A7
:10011000C94B0008CD4B0008D14B0008D54B000857
:10012000D94B0008DD4B0008E14B0008E54B000807
:10013000E94B0008ED4B0008F14B0008F54B0008B7
:10014000F94B0008FD4B0008014C0008054C000865
:10015000094C00080D4C0008114C0008154C000813
:10016000194C00081D4C0008214C0008254C0008C3
:10017000294C00082D4C0008314C0008354C000873
:10018000394C00083D4C0008E90800083C0900080B
:1001900007000000CC2F0008FC080008290900080F
:1001A00008000000E90800089C010008CC2F0008A6
:1001B000D42E00089C010008CC2F0008601C000809
:1001C0006C0F0008701D000834280008B4260008D1
:1001D000341C0008DC1D00083C090008FCFFFFFF80
:1001E0005C0F0008481D0008242D00086C0F000853
:1001F000481D0008FC080008E90800085C07000822
:1002000000000000A0BB0120FC080008E90800086D
:100210005C07000800000000A4BB0120FC080008E7
:10022000E9080008180D0008240F0008B81D000890
:10023000D8190008340D0008FC080008E908000877
:10024000240F0008701D0008601C0008D426000858
:10025000842800089C0A0008180000003C090008D7
:1002600062000000CC2F0008141C0008FC080008E5
:100270003C0900080A000000842800089C0A0008C5
:10028000140000003C09000864000000CC2F0008A6
:10029000FC0800083C09000868000000CC2F00089A
:1002A000FC080008E908000888250008B4260008B2
:1002B000EC2400083C020008FC080008E9080008DB
:1002C000B4260008B4260008EC2400083C0200080C
:1002D000FC080008E9080008180D0008601C000868
:1002E000240F0008B81D00083C0900080A0000009F
:1002F000842800089C0A000810000000A4020008DE
:10030000840A000808000000BC020008D42E00087F
:10031000340D0008FC08000829090008ACBB0120C6
:1003200029090008B0BB012029090008D4BB01201D
:1003300029090008DCBB0120E90800083C09000885
:10034000F44500083C170008782F000858180008EA
:10035000E9080008100F0008481D0008FC08000804
:10036000E908000824100008A00F0008B81D0008C4
:10037000F426000850030008FC080008E9080008FB
:100380004C0F0008701D0008502900083C090008A7
:10039000BF46000894120008FC080008E90800089D
:1003A0004C0F0008701D00083C090008DA460008E0
:1003B00094120008FC080008E90800085C280008FE
:1003C0003C0900089146000894120008FC08000847
:1003D000E9080008101B000818030008701D000839
:1003E000341C0008F82800083C090008774600087B
:1003F00094120008FC080008E9080008741B0008B3
:10040000601C000818170008782F0008181700084B
:1004100034280008F40F0008B81B0008FC08000886
:10042000E90800088C0F00083C0900085E00000085
:10043000C81500085C07000801000000A0BB0120EF
:10044000FC080008E908000824260008601C0008D1
:10045000B81B0008941D0008240F0008701D000838
:10046000C41200089C0A000858000000341C000850
:10047000240F0008701D0008600C0008141C000800
:10048000BC1A0008240F0008701D0008600C00084A
:100490004C250008DC240008701D000824260008F4
:1004A0009C0A000810000000C4260008DC24000894
:1004B000481D0008741B0008840A00088CFFFFFF19
:1004C000741B0008FC080008E9080008DC0E00089E
:1004D000AC130008A00F000848110008F809000834
:1004E000FC080008E9080008741B0008601C0008EC
:1004F0006C260008B81B0008701D00086003000887
:10050000FC080008E9080008B81B0008B426000829
:10051000981B0008880C0008741B0008341C000895
:10052000B81B0008880C0008741B0008FC080008B1
:10053000E9080008101B000828030008B81D00087F
:10054000FC080008E9080008101B00082803000840
:10055000701D00085C2800083C0900087746000868
:1005600094120008FC080008E9080008C804000804
:100570009C0A00083C0000004C0F0008701D000899
:10058000C82800089C0A0008140000008411000814
:1005900060030008840A00080C00000084110008B1
:1005A000880E0008D0030008840A0008C0FFFFFF7F
:1005B000A00F000824140008DC240008701D0008A7
:1005C000242600089C0A0008100000009C1E000859
:1005D000840A00080C000000141C0008CC1E00084F
:1005E000D0030008840A000884FFFFFFE908000820
:1005F000401E0008E00C0008FC0C00082004000865
:10060000680500084C0F0008701D000850290008FC
:100610009C0A0008380000003C090008CCBB0120FF
:10062000701D00089C0A0008240000003C09000816
:10063000CCBB0120701D00083C170008782F000873
:10064000240F0008701D0008F82C00083C09000861
:1006500010000000CC2F0008A8300008840A000811
:1006600098FFFFFFE9080008A00F00085C280008B9
:1006700080100008FC080008E90800085C07000872
:1006800000000000C0BB0120FC0800082909000888
:10069000C0BB0120E90800087C2900089C0A00086A
:1006A00008000000042A0008FC080008E908000807
:1006B0007C2900089C0A000808000000AC240008FF
:1006C000FC080008E9080008A83000083C090008F8
:1006D000CC0D00083C170008782F00083C090008E2
:1006E000360E00083C170008782F00083C09000867
:1006F000430E00083C170008782F0008A8300008B7
:10070000FC080008E9080008BC0800086C34000870
:10071000FC080008E9080008341C0008E01B000879
:10072000342800083C0900087F000000E01B000896
:10073000941D0008C82800089C0A0008E0FFFFFF7D
:10074000341C0008141C0008FC080008013055F88F
:10075000042B22F0030252F8043B184761070008FB
:1007600002CD04CD116055F8042B22F0030252F89B
:10077000043B18477907000855F8040B006847F850
:10078000040D55F8042B22F0030252F8043B1847DD
:100790009507000855F8042B57F8040B104347F849
:1007A000040D55F8042B22F0030252F8043B1847BD
:1007B000B507000855F8042B57F8040B104047F80C
:1007C000040D55F8042B22F0030252F8043B18479D
:1007D000D507000855F8043B57F8040B186055F886
:1007E000042B22F0030252F8043B1847F1070008DB
:1007F00057F8043B57F8041B57F8040B1A6822EA11
:10080000010200EA010042EA00021A6055F8042BD6
:1008100022F0030252F8043B1847000021080008A8
:1008200055F8043B55F8044B55F804CB1A6822EAF6
:1008300004020CEA040C42EA0C021A6055F8042B7C
:1008400022F0030252F8043B184700005108000848
:1008500046F8045D55F8042B22F0030252F8043BDD
:10086000184700006908000857F8040B00280CBF5F
:100870003568361D55F8042B22F0030252F8043B6C
:1008800018470000100000000000000000000000F9
:100890000000000000C00120F0BD012070FA00201F
:1008A0009CBA0120100000200000000000000000A1
:1008B00044450008450E000800000000C10800087B
:1008C000074808490E2203680B60001D091D521ECF
:1008D000F9D155F8042B22F0030252F8043B1847D3
:1008E000840800089CBB012046F8045D154655F8B5
:1008F000042B22F0030252F8043B184701090008B8
:1009000056F8045B55F8042B22F0030252F8043B1E
:100910001847000001CA47F8040D55F8042B22F0CF
:10092000030252F8043B184701CA47F8040D55F872
:10093000042B22F0030252F8043B18474109000837
:1009400055F8040B47F8040D55F8042B22F0030268
:1009500052F8043B184700005D09000855F8040BE5
:1009600047F8040D55F8042B22F0030252F8043B1B
:10097000184700007909000857F8045B55F8042B64
:1009800022F0030252F8043B1847000046F8045DC9
:100990004568083047F8040D55F8042B22F003028F
:1009A00052F8043B18470000AD0900080648074903
:1009B0000968401A47F8040D55F8042B22F0030289
:1009C00052F8043B1847000010FA0020BCBB01207D
:1009D000D5090008064807490968401A47F8040D78
:1009E00055F8042B22F0030252F8043B184700008C
:1009F0009CBB0120B8BB0120FD09000857F8043B4F
:100A000057F8042B93465A46187884461178484084
:100A10003F2420401DD1521C5B1C1878117888425D
:100A2000F9D08024001B884214D15B1C1878FF2861
:100A3000FBD0083347F8043D0120624647F8042DF7
:100A400047F8040D55F8042B22F0030252F8043B3A
:100A500018475B1C187880242042FAD01B1D0848D8
:100A600003401B68002B00D0CDE7002047F8040DA1
:100A700055F8042B22F0030252F8043B18470000FB
:100A8000FCFFFFFF890A00082B68ED1855F8042BBE
:100A900022F0030252F8043B18470000A10A0008A4
:100AA00057F8040B00283FF4EFAF2D1D55F8042B29
:100AB00022F0030252F8043B18470000C10A000864
:100AC00057F8040B00287FF4DFAF2D1D55F8042BD9
:100AD00022F0030252F8043B18470000E10A000824
:100AE000012374683268944204D0D2183260A41A88
:100AF0007FF4CAAF08362D1D55F8042B22F00302EF
:100B000052F8043B184700000D0B000857F8043B4F
:100B1000FFF7E7BF190B000857F8040B57F8042B31
:100B200046F8042D46F8040D55F8042B22F0030274
:100B300052F8043B184700003D0B000857F8040B1F
:100B400000787F21084047F8040D55F8042B22F067
:100B5000030252F8043B18475D0B000857F8041BCA
:100B60000B4A92460B4B1C6812191078521C884293
:100B700001D00028F9D15446121B1A7047F8040D11
:100B800055F8042B22F0030252F8043B18470000EA
:100B900070FA0020A0BB01209D0B000857F8041B31
:100BA00057F8042B10784840107055F8042B22F0A9
:100BB000030252F8043B1847BD0B00080A21884283
:100BC00005D157F8040B0D2047F8040D02E00D2164
:100BD000884203D100F066F900F06CF955F8042B57
:100BE00022F0030252F8043B18470000F10B000802
:100BF0003868017801290FD0022914D001440A78FD
:100C0000622A1AD0252A18D0642A18D0232A16D08E
:100C1000682A16D0242A14D055F8042B22F0030297
:100C200052F8043B184782782E2AE7D155F8042B56
:100C300022F0030252F8043B1847022402E00A247F
:100C400000E0102400220A70044A146055F8042BB6
:100C500022F0030252F8043B184700009CBB01201D
:100C6000650C000857F8040B57F8041BA0FB012083
:100C700047F8042D47F8040D55F8042B22F0030221
:100C800052F8043B184700008D0C000857F8040B7D
:100C900057F8043B57F8042B002812D093F0000FAC
:100CA0000FD10146B2FBF0F000FB112247F8042DF2
:100CB00047F8040D55F8042B22F0030252F8043BC8
:100CC00018474040401E024647F8042D47F8040DDF
:100CD00055F8042B22F0030252F8043B1847000099
:100CE000E50C0008044A176855F8042B22F00302AB
:100CF00052F8043B18470000ACBB0120010D00086E
:100D0000044A166855F8042B22F0030252F8043BFB
:100D100018470000B0BB01201D0D0008044A1168EF
:100D20008C4655F8042B22F0030252F8043B184776
:100D30009CBB0120390D0008044A6146116055F83A
:100D4000042B22F0030252F8043B18479CBB0120FD
:100D500081B070460090064F064E0FF21C0546F813
:100D6000045D55F8042B22F0030252F8043B1847A7
:100D700000C00120F0BD0120BC0800084447000865
:100D8000542D0008A83000083C090008FB000000B2
:100D9000CC2F00083C090008F7000000CC2F000809
:100DA000A8300008541900085845000808CA9F4692
:100DB00003B502490868401C086003BD98BA0120C9
:100DC000C50D000856F8045BBDE83F9C46495348F2
:100DD00020524D2056347468204F454D207E2041CE
:100DE000524D2053544D3332463230355243205009
:100DF00053544154206F72205354502052504D2070
:100E0000426F61726420403131384D687A20284346
:100E100029323031342D3230313820412D54454182
:100E20004D20464F525448203A20466562203139C1
:100E30002032303139002061742031363A31323A73
:100E40003234001500206F6B2C20676F20666973A9
:100E50006820696E2042415345200000844E4F4F68
:100E6000D0FFFFFF000000006D0E000855F8042BB6
:100E700022F0030252F8043B18470000874558450A
:100E8000435554C55C0E00088D0E000800F00AF8AA
:100E900000F010F857F8042B22F0030252F8043B3C
:100EA000184700007246024C2168090AFCD310471B
:100EB000004800407246024913240C70104700009D
:100EC000044800407246024911240C70104700008B
:100ED000044800408242CCFF7C0E0008290900082B
:100EE000200000008255D0FFD40E00082909000818
:100EF000B8BB01208546454E43C5FFFFE40E000800
:100F000029090008C4BB01208244D0FFF40E000868
:100F100029090008BCBB012084424153C5FFFFFFE3
:100F2000080F0008290900089CBB0120874355527F
:100F300052454ED4180F000829090008C8BB0120EB
:100F40008553544154C5FFFF2C0F000829090008A0
:100F5000A8BB0120834F55D4400F00082909000881
:100F6000A4BB01208249CEFF540F000829090008C4
:100F7000A0BB0120835041C4640F00082909000868
:100F800010FA0020835449C2740F00082909000890
:100F900070FA002084484552C5FFFFFF840F000807
:100FA000E9080008100F0008701D0008FC08000880
:100FB00085414C4C4FD4FFFF940F0008E90800080E
:100FC000A8090008E01B00085C2800087C2900082C
:100FD0009C0A00080800000038030008100F0008F1
:100FE000481D0008FC08000887414C49474E45C48D
:100FF000B00F0008F90F000857F8040BC01C054992
:10100000084047F8040D55F8042B22F0030252F86B
:10101000043B1847FCFFFFFF85414C4947CEFFFFCB
:10102000E80F0008E9080008A00F0008E4260008FF
:1010300034280008601C0008B81B0008A00F000836
:10104000140B00083C090008FF000000F01A00081B
:10105000DC1D0008DC0A0008ECFFFFFF741B000821
:101060003C090008FCFFFFFF942A0008100F00084D
:10107000B81D0008FC08000881ACFFFF181000082C
:10108000E9080008A80900087C2900089C0A000853
:10109000080000003803000860030008FC0800088E
:1010A0008243ACFF78100008E9080008A80900088E
:1010B0007C2900089C0A000808000000380300088A
:1010C000A00F0008DC1D0008C4260008500300081B
:1010D000FC08000888564152414C4C4FD4FFFFFF9A
:1010E000A0100008E9080008D0090008F42600084C
:1010F000C0270008E01B00085C2800087C290008C5
:101100009C0A0008180000003C090008134600086B
:101110003C170008782F000858180008EC0E00084B
:10112000701D0008341C0008F426000884270008FD
:10113000EC0E0008481D0008FC080008864C4154CD
:101140004553D4FFD4100008E9080008380F000800
:10115000701D0008FC080008834C46C13C110008C3
:101160006511000857F8040B083847F8040D55F8C6
:10117000042B22F0030252F8043B1847834346C174
:10118000581100088911000857F8040B001F47F890
:10119000040D55F8042B22F0030252F8043B1847C3
:1011A000834E46C17C110008E90800089C01000834
:1011B0005C28000800260008601C0008941D000838
:1011C0003C090008FF0000005C2800089C0A000899
:1011D000E4FFFFFF3C090008FFFFFFFF14070008C2
:1011E000FC080008835046C1A0110008E908000867
:1011F000C42600081407000824260008601C000804
:10120000941D00083C090008FF0000005C2800084D
:101210009C0A0008E4FFFFFF9C0100083428000836
:10122000FC080008883F414C49474E45C4FFFFFF7A
:10123000E4110008E90800083C0900080300000068
:10124000942A00089C0A00083C000000F8030008EB
:101250002E56414C5545204D55535420424520456E
:1012600056454E204E4F54204F444420414E44207A
:101270004D554C5449504C45204F4620342120FFB9
:1012800058180008FC080008863F4552524FD2FF0C
:1012900024120008E9080008341C00089C0A000811
:1012A0001000000020150008840A00080800000053
:1012B000141C0008FC0800088544494749D4FFFF76
:1012C00088120008C912000857F8042B57F8040BBD
:1012D000303813D4092802DDC01F0A280EDB9042E3
:1012E0000CDA0246012047F8042D47F8040D55F8A2
:1012F000042B22F0030252F8043B1847002047F861
:10130000040D55F8042B22F0030252F8043B184751
:1013100087454E434C4F53C5B812000821130008AF
:1013200057F8040B39680022521E491E491C521CF2
:101330000B789842FAD047F8042D002B0CD11846B0
:10134000521C47F8042D47F8040D55F8042B22F0E1
:10135000030252F8043B1847491C521C0B78984270
:1013600001D0002BF8D11046401C47F8042D47F857
:10137000040D55F8042B22F0030252F8043B1847E1
:10138000C180FFFF101300088D13000856F8045B9E
:1013900055F8042B22F0030252F8043B18470000D2
:1013A00084574F52C4FFFFFF80130008E90800086C
:1013B0008C0F00086C0F0008701D0008342800080E
:1013C000341C00081C1300086C0F0008481D00089E
:1013D000E01B00085C280008B81B0008981B0008E8
:1013E000A00F0008DC1D000834280008A00F00082A
:1013F00024260008981B00089C1C0008B42600083E
:10140000A00F000824260008741B000834280008D8
:10141000DC1D0008FC080008864E554D4245D2FFF1
:10142000A0130008E9080008180D0008EC0B0008DC
:10143000B4260008B4260008BC1A0008601C000886
:1014400024260008941D00083C0900082D00000017
:1014500084280008C4260008942A0008601C00089C
:10146000B81B0008342800083C090008FFFFFFFFF4
:10147000DC240008B81D000844040008601C0008B3
:10148000941D0008B42600085C2800089C0A000887
:1014900068000000601C0008941D00083C0900085A
:1014A0002E0000005C2800089C0A00084000000094
:1014B000601C0008941D00083C0900082C00000076
:1014C000842800089C0A000810000000242D000851
:1014D000840A00089CFFFFFF340D0008C4260008A2
:1014E0003C0900085D46000894120008B426000874
:1014F000840A00087CFFFFFF141C0008741B00080E
:101500009C0A000808000000AC240008340D000804
:10151000FC080008854552524FD2FFFF18140008FE
:10152000E9080008A00F000818170008782F000825
:101530003C170008782F00084C2E00084C0F0008BC
:10154000701D00089C0A0008400000008C0600087E
:10155000701D00089C0A0008300000008C0600087E
:10156000701D0008EC11000860110008701D0008D3
:10157000380F0008B81D00088C060008701D000810
:10158000100F0008B81D0008780600085818000859
:10159000C1A7FFFF14150008E9080008C8040008E7
:1015A000502900083C0900084D4600089412000824
:1015B000141C0008CC1E0008FC0800088645585082
:1015C0004543D4FF90150008E90800080C02000804
:1015D000F801000824260008E01B00083428000851
:1015E000E01B000824260008702E0008140B0008D9
:1015F00014300008B80B0008601C00083C09000803
:1016000009000000842800089C0A00080C00000063
:10161000141C0008DC0E0008601C00089C01000877
:1016200084280008E01B00083C0900087F00000037
:1016300084280008BC2A00089C0A0008500000000A
:10164000141C0008601C0008F01A0008002600089E
:1016500084280008601C0008741B0008D4260008B9
:101660005C28000834280008B81B00089C0A000801
:101670001000000088010008840A00086C000000C7
:10168000A4010008840A000860000000601C000833
:101690003C0900080D000000842800089C0A00088E
:1016A0001C000000541B0008141C0008DC0E00087D
:1016B000B4260008840A000808000000601C000826
:1016C000F01A0008DC1D0008C42600086C0F000892
:1016D000481D0008B4260008F01A00082426000857
:1016E000DC1D0008CC2F0008DC0A000804FFFFFF07
:1016F0004C2E0008242600083C170008341C000863
:1017000000260008DC1D0008FC08000885434F5532
:101710004ED4FFFFBC150008E9080008601C000853
:1017200024260008341C0008941D0008FC0800084A
:1017300084244C45CEFFFFFF0C170008411700081A
:101740003A684040115C094301D0401CFAE747F871
:10175000040D55F8042B22F0030252F8043B1847FD
:1017600086464F524745D4FF30170008E908000865
:1017700098150008601C00083C09000800000208D9
:10178000C82800083C090008B44500089412000865
:10179000601C00083C09000800001008C828000868
:1017A0003C090008D345000894120008601C00089A
:1017B00060110008B81B000848110008EC1100086F
:1017C00060110008601C0008701D0008380F000838
:1017D000B81D0008601C00086C260008701D000879
:1017E0003C09000815090008842800089C0A000824
:1017F000140000003C090008FCFFFFFFEC0E00088D
:10180000481D0008981B0008842800089C0A00084E
:10181000A8FFFFFF741B0008701D0008380F0008A8
:10182000B81D0008A8110008100F0008B81D000816
:10183000E0390008B0390008FC080008834259C5A7
:101840006017000849180008FFF785BA8541424F24
:1018500052D4FFFF3C180008E9080008E00C00081B
:10186000FC0C00080C0200083C0900086445000854
:1018700048110008F80900089C0A00081000000040
:10188000141C000884110008880E00083C09000898
:10189000D0BB0120701D00089C0A00086C000000ED
:1018A0003C0900080C1900083C170008782F0008B4
:1018B0004C3000089C0A0008F8FFFFFF14300008B5
:1018C0003C09000843000000842800089C0A000826
:1018D000E0FFFFFF143000083C0900084F00000043
:1018E000842800089C0A0008C8FFFFFF1430000885
:1018F0003C0900080D000000842800089C0A00082C
:10190000B0FFFFFFA8300008EC0500082045727208
:101910006F722048616C74202845484F4E2F45480F
:101920004F464629202D20546F20434F6E74696E18
:101930007565205479706520434F207468656E206A
:10194000456E7465723A200084434F4CC4FFFFFF1C
:101950004C180008E908000804070008E43A0008E9
:10196000C4060008EC050008900D0A4649534820BB
:1019700053797374656D3A0D8AFFFFFF48190008AB
:10198000832E53C868190008E90800083C090008BC
:101990001000000020020008FC080008832E53C439
:1019A00080190008E90800083C0900080A00000046
:1019B00020020008FC080008832E53C29C1900086E
:1019C000E9080008D426000820020008FC080008E6
:1019D000822ED3FFB8190008E90800081803000890
:1019E000701D0008101B00086C26000884280008E1
:1019F000502900089C0A000868000000F80300084D
:101A000005544F533E20FFFF18030008701D0008C7
:101A1000101B00086C260008140B0008F01A0008C0
:101A2000701D0008240F0008701D00083C09000804
:101A30000A000000842800089C0A0008100000002A
:101A4000A4020008840A000808000000BC02000884
:101A5000D42E0008F4260008080B0008C0FFFFFF82
:101A6000FC08000884324455D0FFFFFFD01900085D
:101A7000751A000838687A6847F8042D47F8040D8D
:101A800055F8042B22F0030252F8043B18470000DB
:101A9000842D4455D0FFFFFF641A0008E9080008B0
:101AA000601C00089C0A000808000000601C000878
:101AB000FC08000883524FD4901A0008C11A00088D
:101AC00057F8042B57F8041B57F8040B47F8041D6C
:101AD00047F8042D47F8040D55F8042B22F00302B3
:101AE00052F8043B1847000081C9FFFFB41A0008F0
:101AF000F51A0008306847F8040D55F8042B22F059
:101B0000030252F8043B1847835350C0E81A0008F8
:101B1000151B0008384647F8040D55F8042B22F031
:101B2000030252F8043B1847835250C0081B0008B8
:101B3000351B0008304647F8040D55F8042B22F0F9
:101B4000030252F8043B1847854C454156C5FFFF38
:101B5000281B0008591B00083268726055F8042BD6
:101B600022F0030252F8043B184700008252BEFFE5
:101B7000481B0008791B000856F8040B47F8040DB1
:101B800055F8042B22F0030252F8043B18470000DA
:101B900081D2FFFF6C1B00089D1B0008306847F8CE
:101BA000040D55F8042B22F0030252F8043B1847A9
:101BB000823ED2FF901B0008BD1B000857F8041B93
:101BC00046F8041D55F8042B22F0030252F8043B9A
:101BD00018470000844F5645D2FFFFFFB01B000896
:101BE000E51B000857F8042B57F8040B47F8040DC1
:101BF00047F8042D47F8040D55F8042B22F0030292
:101C000052F8043B184700008444524FD0FFFFFFB6
:101C1000D41B0008191C00083F1D55F8042B22F0A6
:101C2000030252F8043B184784535741D0FFFFFF8B
:101C3000081C0008391C000857F8042B57F8040B3F
:101C400047F8042D47F8040D55F8042B22F0030241
:101C500052F8043B18470000834455D0281C000864
:101C6000651C0008386847F8040D55F8042B22F06D
:101C7000030252F8043B1847900D0A537461636BDA
:101C80002053747566663A0D8AFFFFFF581C0008E2
:101C900085434D4F56C5FFFF781C0008A11C000866
:101CA00057F8041B57F8042B57F8043B002907D0BA
:101CB00018781070491E002902D0521C5B1CF7D105
:101CC00055F8042B22F0030252F8043B1847000099
:101CD0008446494CCCFFFFFF901C0008E11C000823
:101CE00057F8040B57F8041B57F8042B002904D0AD
:101CF0008B181070521C9A42FBD155F8042B22F01D
:101D0000030252F8043B18478545524153C5FFFF73
:101D1000D01C0008E9080008B4260008DC1C0008F4
:101D2000FC08000886424C414E4BD3FF081D0008BA
:101D3000E9080008DC0E0008DC1C0008FC080008AC
:101D4000822BA1FF241D00084D1D000857F8041B1D
:101D500057F8040B0A688018086055F8042B22F025
:101D6000030252F8043B184781C0FFFF401D0008E2
:101D7000751D000857F8041B086847F8040D55F84E
:101D8000042B22F0030252F8043B18478243C0FFA1
:101D9000681D0008991D000857F8041B087847F8CB
:101DA000040D55F8042B22F0030252F8043B1847A7
:101DB00081A1FFFF8C1D0008BD1D000857F8040B12
:101DC00057F8041B016055F8042B22F0030252F867
:101DD000043B18478243A1FFB01D0008E11D000825
:101DE00057F8040B57F8041B017055F8042B22F028
:101DF000030252F8043B18479F0D0A5265616420A4
:101E0000616E64205772697465204D656D6F7279DB
:101E100020576974683A0D8AD41D000881DDFFFFE0
:101E2000F81D0008E90800085C070008C000000071
:101E3000A8BB0120FC080008C1DBFFFF1C1E000836
:101E4000E90800085C07000800000000A8BB0120AA
:101E5000FC080008C95B434F4D50494C45DDFFFF6E
:101E6000381E0008E9080008C804000850290008C6
:101E70003C0900087746000894120008141C00086A
:101E80008411000880100008FC080008C8444C4970
:101E900054455241CCFFFFFF541E0008E9080008DA
:101EA0004C0F0008701D00089C0A0008100000007C
:101EB000341C0008CC1E0008CC1E0008FC080008DA
:101EC000C74C4954455241CC8C1E0008E908000813
:101ED0004C0F0008701D00089C0A0008100000004C
:101EE000E40400083C09000880100008FC08000811
:101EF0008223BEFFC01E0008E9080008141C000869
:101F0000141C000830030008701D00087C0F000836
:101F1000E01B00085C280008FC08000884484F4CBF
:101F2000C4FFFFFFF01E0008E90800083C09000894
:101F3000FFFFFFFF30030008481D000830030008C2
:101F4000701D0008DC1D0008FC0800088453494788
:101F5000CEFFFFFF1C1F0008E9080008BC1A00089C
:101F60007C2900089C0A0008100000003C090008B9
:101F70002D000000281F0008FC0800088223D3FF62
:101F80004C1F0008E9080008B01F0008E01B00080B
:101F9000E01B0008BC2A0008502900089C0A000821
:101FA000E8FFFFFFFC08000881A3FFFF7C1F00087B
:101FB000E9080008240F0008701D00080405000847
:101FC000BC1A00083C09000809000000E01B0008DA
:101FD000C82800089C0A0008100000003C090008FE
:101FE00007000000342800083C0900083000000009
:101FF00034280008281F0008FC080008823CA3FFC2
:10200000A81F0008E90800085C07000810FA002073
:10201000DCBB0120FC08000885444F4553BEFFFF90
:10202000FC1F0008E9080008741B0008481100089C
:10203000EC110008601C0008841100083C0900082D
:102040008B090008341C0008B81D0008B81D0008E2
:10205000FC080008873C4255494C44D3182000082E
:10206000E9080008A0220008FC080008C52B4C4F16
:102070004FD0FFFF54200008E9080008E4260008BC
:10208000B8030008E4040008080B00086406000810
:10209000FC080008C44C4F4FD0FFFFFF6C20000825
:1020A000E9080008E4260008B8030008E404000872
:1020B000DC0A000864060008FC080008C244CFFFE0
:1020C00094200008E9080008E4040008140B000844
:1020D000A00F0008E4260008FC080008C5454E448F
:1020E00049C6FFFFBC200008E90800087C0300087F
:1020F000D4260008B8030008A00F0008E01B000861
:102100005C280008341C0008B81D0008FC08000802
:10211000C4544845CEFFFFFFDC200008E908000852
:10212000E8200008FC080008C4454C53C5FFFFFF29
:1021300010210008E9080008D4260008B8030008A8
:10214000E4040008840A0008A00F0008B426000870
:1021500080100008341C0008D4260008E82000087D
:10216000D4260008FC080008C249C6FF2821000840
:10217000E9080008E40400089C0A0008A00F000811
:10218000B426000880100008D4260008FC080008C7
:10219000C5554E5449CCFFFF68210008E9080008E6
:1021A000C4260008B8030008E40400089C0A0008DC
:1021B00064060008FC080008C541474149CEFFFFFE
:1021C00090210008E9080008C4260008B8030008A8
:1021D000E4040008840A000864060008FC080008FB
:1021E000C65245504541D4FFB8210008E90800080F
:1021F000B81B0008B81B0008C4210008741B0008A5
:10220000741B0008D42600085C280008E820000899
:10221000FC080008C55748494CC5FFFFE0210008ED
:10222000E90800087021000848260008FC0800089A
:10223000C542454749CEFFFF14220008E9080008BF
:102240007C030008A00F0008C4260008FC08000852
:10225000970D0A496E7369646520436F6C6F6E2039
:10226000574F5244533A0D8A3022000889494D4D48
:102270004544494154C5FFFF50220008E9080008C1
:10228000481100083C09000840000000980B0008B5
:10229000FC080008864352454154C5FF6C220008E3
:1022A000E9080008A80900083C0900080F00000020
:1022B0005C2800087C2900089C0A0008080000002F
:1022C00038030008C80400089C0A00082400000025
:1022D000141C0008A8110008EC2E00083C09000896
:1022E000354600083C170008782F000858180008E9
:1022F000A00F0008601C00088C060008B81D00082C
:10230000601C0008941D00083C0900081F00000024
:10231000442A000850030008601C00083C0900081B
:1023200080000000980B0008A00F00083C0900087E
:1023300080000000980B0008C4260008100F000859
:10234000481D00084811000880100008380F0008D8
:10235000B81D0008E404000829090008A00F0008BF
:102360006C26000880100008FC08000888434F4EC7
:102370005354414ED4FFFFFF94220008E90800089F
:1023800090230008FC08000883434FCE6C2300080C
:10239000E9080008A02200083C090008FCFFFFFF34
:1023A000100F0008481D000880100008780600087B
:1023B000FC080008885641524941424CC5FFFFFFC6
:1023C00088230008E9080008D8230008FC08000852
:1023D000835641D2B4230008E9080008A02200086F
:1023E0003C090008F8FFFFFF100F0008481D000817
:1023F000E404000815090008C4260008E4100008D9
:102400008010000878060008FC080008C1BBFFFF28
:10241000D0230008E908000844050008E404000887
:10242000FC080008401E000878060008FC080008A8
:10243000C1BAFFFF0C240008E90800089C0300084B
:1024400030050008A0220008241E00083C090008EE
:10245000F8FFFFFF100F0008481D0008E404000803
:10246000E9080008FC080008960D0A43524541544B
:102470004520574F52445320576974683A0D8AFFDC
:102480003024000884444142D3FFFFFF6824000841
:10249000E9080008601C0008AC060008FC080008F9
:1024A00087444E45474154C584240008B1240008A0
:1024B00057F8040B57F8042BC043D243521C47F87B
:1024C000042D47F8040D55F8042B22F0030252F8AE
:1024D000043B1847834450CCA02400082909000875
:1024E000D8BB012083442ED2D4240008E908000878
:1024F000B81B0008341C0008E01B000890240008EA
:1025000004200008841F0008581F0008F81E000857
:10251000741B0008E01B00085C280008982E0008C7
:10252000782F0008FC0800088244AEFFE42400086D
:10253000E9080008B4260008EC240008D42E00089E
:10254000FC0800088244ABFF28250008512500083C
:1025500057F8040B57F8041B57F8043B57F8042BA3
:102560005218584147F8042D47F8040D55F8042B2C
:1025700022F0030252F8043B1847000084532D3E1A
:10258000C4FFFFFF442500088D25000857F8042BE1
:102590004040124300D5401E47F8042D47F8040D73
:1025A00055F8042B22F0030252F8043B18470000B0
:1025B0008232AAFF7C250008BD25000857F8040BCD
:1025C000400047F8040D55F8042B22F0030252F89E
:1025D000043B18478232AFFFB0250008E125000810
:1025E00057F8040B401047F8040D55F8042B22F05F
:1025F000030252F8043B18478231ADFFD42500088E
:102600000526000857F8040B401E47F8040D55F83E
:10261000042B22F0030252F8043B18478231ABFF2F
:10262000F82500082926000857F8040B401C47F835
:10263000040D55F8042B22F0030252F8043B18470E
:102640008232ABFF1C2600084D26000857F8040B09
:10265000801C47F8040D55F8042B22F0030252F8B1
:10266000043B18478234ABFF40260008712600085F
:1026700057F8040B001D47F8040D55F8042B22F001
:10268000030252F8043B18478234ADFF6426000869
:102690009526000857F8040B001F47F8040D55F85D
:1026A000042B22F0030252F8043B184781B0FFFFCD
:1026B00088260008290900080000000081B1FFFFFA
:1026C000AC260008290900080100000081B2FFFFC4
:1026D000BC260008290900080200000081B3FFFFA2
:1026E000CC260008290900080300000081B4FFFF80
:1026F000DC2600082909000804000000824DAAFF1A
:10270000EC260008E9080008701A0008082B0008E9
:10271000B81B00082C2A0008341C00082C2A0008CA
:10272000600C0008741B0008AC060008FC080008D8
:10273000824DAFFFFC260008E9080008E01B0008F6
:10274000B81B0008B81B000890240008981B00085C
:102750002C2A0008880C0008741B0008981B00082D
:10276000082B000894060008341C0008741B00089D
:1027700094060008341C0008FC08000881AAFFFF2A
:1027800030270008E908000804270008141C000886
:10279000FC080008842F4D4FC4FFFFFF7C27000872
:1027A000E9080008B81B000888250008741B000809
:1027B00038270008FC08000881AFFFFF94270008B5
:1027C000E9080008A0270008341C0008141C0008B1
:1027D000FC080008834D4FC4B8270008E90800082A
:1027E000A0270008141C0008FC080008852A2F4DAB
:1027F0004FC4FFFFD4270008E9080008B81B0008F1
:1028000004270008741B000838270008FC0800088B
:10281000822AAFFFEC270008E9080008F827000823
:10282000341C0008141C0008FC08000881ABFFFFE2
:10283000102800083928000857F8040B57F8041B23
:10284000401847F8040D55F8042B22F0030252F803
:10285000043B184781ADFFFF2C28000861280008C1
:1028600057F8040B57F8041B081A47F8040D55F8DD
:10287000042B22F0030252F8043B184781BDFFFFEE
:102880005428000889280008404057F8040B57F8DE
:10289000041B401A09D0404047F8040D55F8042B9A
:1028A00022F0030252F8043B1847013847F8040DA0
:1028B00055F8042B22F0030252F8043B184700009D
:1028C00081BCFFFF7C280008CD280008404001386B
:1028D00057F8041B57F8042B914200DC404047F89E
:1028E000040D55F8042B22F0030252F8043B18475C
:1028F0008255BCFFC0280008E9080008701A0008CB
:10290000082B00087C2900089C0A00081800000019
:10291000141C00087C29000850290008840A0008BB
:102920000C0000005C2800087C290008FC08000856
:1029300081BEFFFFF0280008E9080008341C0008E9
:10294000C8280008FC0800088230BDFF30290008B4
:1029500055290008404057F8041B002900D1401EAB
:1029600047F8040D55F8042B22F0030252F8043BFB
:10297000184700008230BCFF482900088129000860
:1029800057F8041B40400138094300D4404047F841
:10299000040D55F8042B22F0030252F8043B1847AB
:1029A000834249CE74290008E90800085C07000842
:1029B000020000009CBB0120FC080008834845D8A9
:1029C000A0290008E90800085C07000810000000C2
:1029D0009CBB0120FC08000887444543494D41CC7D
:1029E000BC290008E90800085C0700080A0000008C
:1029F0009CBB0120FC080008864E45474154C5FF9A
:102A0000D8290008092A000857F8040BC043401CC5
:102A100047F8040D55F8042B22F0030252F8043B4A
:102A200018470000834142D3F8290008E90800084C
:102A3000601C000894060008FC080008834D49CE7D
:102A4000242A0008E9080008701A0008382900083C
:102A50009C0A000808000000341C0008141C000830
:102A6000FC080008834D41D83C2A0008E90800080A
:102A7000701A0008C82800089C0A00080800000016
:102A8000341C0008141C0008FC08000883414EC4D4
:102A9000642A0008992A000857F8040B57F8041B09
:102AA000084047F8040D55F8042B22F0030252F8B1
:102AB000043B1847824FD2FF8C2A0008C12A000825
:102AC00057F8040B57F8041B084347F8040D55F852
:102AD000042B22F0030252F8043B1847834E4FD4D4
:102AE000B42A0008E92A000857F8040BC04347F845
:102AF000040D55F8042B22F0030252F8043B18474A
:102B000083584FD2DC2A00080D2B000857F8040B1D
:102B100057F8041B484047F8040D55F8042B22F0E1
:102B2000030252F8043B184784535854C8FFFFFF70
:102B3000002B0008392B000857F8040B00B247F8A7
:102B4000040D55F8042B22F0030252F8043B1847F9
:102B500084535854C2FFFFFF282B0008612B000844
:102B600057F8040B40B247F8040D55F8042B22F037
:102B7000030252F8043B184784524556D7FFFFFF23
:102B8000502B0008892B000857F8040B00BA47F8AF
:102B9000040D55F8042B22F0030252F8043B1847A9
:102BA000834153D2782B0008AD2B000857F8042B33
:102BB00057F8040B104147F8040D55F8042B22F088
:102BC000030252F8043B1847834C53D2A02B000851
:102BD000D52B000857F8042B57F8040BD04047F8C2
:102BE000040D55F8042B22F0030252F8043B184759
:102BF000834C53CCC82B0008FD2B000857F8042B3E
:102C000057F8040B904047F8040D55F8042B22F0B8
:102C1000030252F8043B1847822ED2FFF02B000823
:102C2000E9080008B81B000888250008741B000884
:102C3000EC240008FC080008832E52D5182C00084C
:102C4000E9080008B81B0008B426000804200008A2
:102C5000841F0008F81E0008601C0008741B000890
:102C6000341C00085C280008982E0008782F000803
:102C7000FC0800088255AEFF382C0008E90800085F
:102C8000B426000830250008FC08000881BFFFFFBB
:102C9000742C0008E9080008701D0008AC2C00081E
:102CA000FC08000881AEFFFF8C2C0008E908000832
:102CB0008825000830250008FC080008822EC2FF85
:102CC000A42C0008E9080008D4260008D402000853
:102CD000FC080008822EC8FFBC2C0008E908000888
:102CE0003C09000810000000D4020008FC0800089D
:102CF000822EC4FFD42C0008E90800083C09000813
:102D00000A000000D4020008FC080008834F46C6F1
:102D1000F02C00082909000800000000824FCEFFB7
:102D20000C2D000829090008FFFFFFFF910D0A4E36
:102D3000554D4245522053747566663A0D8AFFFF21
:102D40001C2D00088A55415254335F494E49D4FF27
:102D50002C2D0008E90800083C09000800C20120E9
:102D6000701D0008502900089C0A00081C00000083
:102D70003C09000804C20120701D0008B81B0008AF
:102D8000840A0008100000003C09000800C201008D
:102D9000B81B00083C0900086022C201741B00082F
:102DA000C02700083C09000808480040B81D00087A
:102DB000FC080008864D59424155C4FF442D0008C7
:102DC000E90800085C0700080000000000C20120BC
:102DD0003C09000804C20120B81D0008FC080008D6
:102DE0008955415254335F4C53D2FFFFB42D000834
:102DF000F52D00080549087847F8040D55F8042B0F
:102E000022F0030252F8043B18470000004800403B
:102E10008855415254335F52D8FFFFFFE02D000820
:102E200029090008044800408855415254335F5432
:102E3000D8FFFFFF102E00082909000804480040B1
:102E400084584F46C6FFFFFF282E0008512E000869
:102E5000FEF728F8FEF72EF855F8042B22F00302AF
:102E600052F8043B1847000083584FCE402E00080C
:102E7000752E0008FEF716F8FEF724F855F8042B17
:102E800022F0030252F8043B1847000086535041D9
:102E90004345D3FF682E0008E9080008B42600085F
:102EA0006C2A00089C1A00089C0A00081800000000
:102EB000B4260008140B0008D42E0008DC0A000811
:102EC000F8FFFFFFFC0800088553504143C5FFFF92
:102ED0008C2E0008E9080008DC0E0008CC2F000842
:102EE000FC080008834944AEC82E0008E908000821
:102EF000181700083C0900081F000000942A000869
:102F0000782F0008D42E0008FC080008C22EA2FF6B
:102F1000E42E0008E90800083C090008220000002F
:102F20004C0F0008701D00089C0A00082C000000CF
:102F3000E4040008F8030008AC130008A00F000820
:102F4000941D000824260008F40F00085003000810
:102F5000840A000814000000AC130008A00F000849
:102F600018170008782F0008FC08000884545950EE
:102F7000C5FFFFFF0C2F0008E90800089C1A000895
:102F80009C0A0008340000004C2E0008E01B0008DA
:102F900034280008341C0008140B0008F01A00083C
:102FA000380B0008CC2F0008DC0A0008F0FFFFFFF8
:102FB000840A000808000000141C0008FC0800082F
:102FC00084454D49D4FFFFFF6C2F0008D12F000826
:102FD00057F8040BFDF766FF0649087006490868B4
:102FE000401C086055F8042B22F0030252F8043B01
:102FF0001847000004480040A4BB0120834B45D97A
:10300000C02F0008E9080008702E000814300008DE
:10301000FC08000819300008074A084B196889099C
:10302000FCD3106847F8040D55F8042B22F0030276
:1030300052F8043B18470000044800400048004094
:10304000843F4B45D9FFFFFFFC2F0008513000089B
:10305000FDF728FFFDF736FF4040074B1968890947
:1030600000D3013847F8040D55F8042B22F0030271
:1030700052F8043B1847000000480040834352D3F5
:1030800040300008E9080008B4260008140B0008C6
:10309000A8300008DC0A0008F8FFFFFFFC08000861
:1030A0008243D2FF7C300008E90800080C020008C7
:1030B000F8030008020D0AFFFC0800088C0D0A4600
:1030C00049534820494F3A0D8AFFFFFFA0300008BE
:1030D0008B495251535F524553554DC5BC30000882
:1030E000E530000801F0F0FC55F8042B22F0030253
:1030F00052F8043B184700008C495251535F535516
:103100005350454EC4FFFFFFD03000081131000876
:1031100001F0D8FC55F8042B22F0030252F8043BCE
:10312000184700008F5359535449434B5F4952513C
:103130005F4F46C6F83000083D31000804490520BD
:10314000086055F8042B22F0030252F8043B18479C
:1031500010E000E08E5359535449434B5F4952519C
:103160005F4FCEFF243100086D310008044907206D
:10317000086055F8042B22F0030252F8043B18476C
:1031800010E000E08F0D0A494E54455252555054FC
:10319000533A0D8A543100088A464C4153485F53D4
:1031A0004156C5FF84310008E908000848110008AD
:1031B000C03A0008C82800089C0A00082000000047
:1031C000A8300008F80300080F4E4F5448494E47F6
:1031D00020544F2053415645FC080008A8320008EF
:1031E000701D00083C090008000010088428000831
:1031F0009C0A000828000000A8300008F803000816
:10320000144C41535420464C4153482041564149A7
:103210004C2055534544FFFFFC08000824100008CB
:10322000EC0E0008701D0008B8320008B81D000838
:1032300048110008C0320008B0320008B81D00086C
:1032400048110008C03A0008842800089C0A0008B9
:10325000480000005C370008C03A0008100F000862
:10326000B81D0008B8320008701D0008EC0E0008F8
:10327000B81D0008B0320008701D0008380F0008A3
:10328000B81D00086C340008A8300008E0390008B8
:10329000B0390008FC08000848110008EC320008AA
:1032A000840A00089CFFFFFF290900080400002091
:1032B0002909000808000020290900080C00002046
:1032C000C532000857F8040B064A1040064A126837
:1032D000801847F8040D55F8042B22F0030252F829
:1032E000043B1847FFFF0F0004000020E908000816
:1032F000EC110008601C0008B81B000884110008CD
:10330000601C0008701D00083C0900088B090008BB
:10331000842800089C0A0008280000006C26000889
:10332000601C0008601C0008701D0008C032000806
:10333000341C0008B81D0008840A000800010000C1
:10334000601C0008701D00083C09000829090008DD
:1033500084280008E01B0008701D00083C090008D4
:103360001509000884280008BC2A00089C0A0008E7
:1033700010000000141C0008840A0008C4000000AB
:103380006C260008601C0008701D00083C0900083D
:103390003C090008842800089C0A0008100000006E
:1033A0006C260008840A0008D8FFFFFF601C000894
:1033B000701D00083C090008F80300088428000874
:1033C0009C0A000820000000601C00086C26000811
:1033D000941D000834280008F40F0008840A00082F
:1033E000A0FFFFFF601C0008701D00083C090008DA
:1033F000FC08000884280008502900089C0A0008DE
:103400003C000000601C0008701D0008C03A000865
:10341000382900089C0A000868FFFFFF601C0008AC
:10342000601C0008701D0008C0320008341C000831
:10343000B81D0008840A000848FFFFFF141C00089C
:10344000741B000860110008601C0008701D000853
:10345000601C0008380F0008B81D0008C0320008C2
:10346000341C0008B81D0008FC080008E908000822
:103470003C09000800000208601C00083C09000824
:1034800004000020B81D0008601C0008B81B0008DC
:10349000701D0008A83B00085C2800089C0A000872
:1034A00010000000741B0008141C0008FC08000831
:1034B000981B0008A8320008B81D0008981B0008D7
:1034C0003C0900080800000034280008601C0008BF
:1034D000701D0008380F0008B81D00086C26000891
:1034E000701D0008EC0E0008B81D0008A830000888
:1034F000F803000817414444454420574F524453B1
:103500002046524F4D204144445220FF981B000852
:10351000DC2C0008741B00086C260008701D0008D5
:10352000840A000854FFFFFFE9080008601C000837
:1035300034280008B81B0008601C0008701D000833
:10354000242600089C0A000838000000A830000863
:10355000F803000817455241534544204241442096
:10356000464C41534820504147452020DC2C000860
:10357000141C0008741B0008141C0008FC08000838
:103580006C260008601C0008601C0008981B0008DE
:10359000341C00085C2800089C0A00080C0000008D
:1035A000840A000898FFFFFFA8300008F80300080D
:1035B0000E464C4153482050414745204F4B20FF79
:1035C0005C280008DC2C0008741B0008141C000890
:1035D000FC0800088C464C4153485F464F52474513
:1035E000D4FFFFFF98310008E9080008F80300083D
:1035F0001754414B45532041424F555420362053D8
:1036000045434F4E445321200C310008E038000858
:10361000C03800085C0700082A020100103C024084
:10362000C03800085C07000832020100103C02406C
:10363000C03800085C0700083A020100103C024054
:10364000C03800085C07000842020100103C02403C
:10365000C03800085C0700084A020100103C024024
:10366000C03800085C07000852020100103C02400C
:10367000C03800085C0700085A020100103C0240F4
:10368000C038000800390008E0300008D43A0008CB
:1036900048110008382900089C0A000810000000A2
:1036A000483E0008840A00081C0000003C0900088D
:1036B00004440008C03A0008EC110008601100083A
:1036C000B81D00085C070008000002080400002084
:1036D0003C09000811111111601C0008B0320008EB
:1036E000B81D0008B8320008B81D00086C34000886
:1036F000A8300008E0390008B0390008FC080008CC
:103700000537000857F8040B57F8041B064A50F811
:10371000044B42F8044B8842F9D155F8042B22F0AF
:10372000030252F8043B1847D4FE00203C0900086D
:10373000D4FE0020880E0008FC080008E9080008F4
:103740003C090008143900083C09000868380008E2
:10375000003700082C370008FC080008E9080008BA
:103760000C310008E0380008C03800085C07000889
:1037700001020000103C0240A8320008701D000841
:10378000B81B00083C09000810000000A83200081F
:10379000481D0008A00F0008B81B0008C03A000828
:1037A000601C0008701D0008A8320008701D000889
:1037B000B81D0008C0380008F4260008A832000828
:1037C000481D00086C260008601C0008981B0008B3
:1037D0005C2800089C0A00080C000000840A00080D
:1037E000C0FFFFFF741B0008141C0008141C000815
:1037F0003C09000800000020701D0008981B00080C
:10380000B81D0008C0380008A8320008701D000864
:10381000981B00086C260008B81D0008C038000876
:10382000B0320008701D0008981B00089C010008B9
:1038300034280008B81D0008C0380008B832000855
:10384000701D0008741B00083C0900080C000000F3
:1038500034280008B81D0008C038000800390008E6
:10386000E0300008FC080008E9080008E835000816
:103870000C310008E0380008C03800085C07000878
:1038800001020000103C02405C0700080000020832
:10389000040000203C09000810000000100F000880
:1038A000481D0008680E00085C370008680E000814
:1038B000E835000800390008E0300008FC0800087E
:1038C000C5380008054908680004FCD255F8042BE7
:1038D00022F0030252F8043B184700000C3C02405F
:1038E000E90800085C07000823016745043C024022
:1038F0005C070008AB89EFCD043C0240FC080008DF
:10390000E90800085C07000800000080103C024045
:10391000FC08000884504F46C6FFFFFFD43500085E
:10392000E90800085C07000800000000CCBB01208B
:10393000FC08000883504FCE14390008E90800083D
:103940005C070008450E0008CCBB0120FC080008FD
:1039500081D0FFFF3439000829090008CCBB0120C1
:103960008545484F46C6FFFF50390008E908000862
:10397000B42600083C090008D0BB0120B81D00088F
:10398000FC0800088445484FCEFFFFFF603900085F
:10399000E9080008C42600083C090008D0BB012043
:1039A000B81D0008FC080008832E44D384390008A1
:1039B000E9080008A8090008180D0008F82C0008FC
:1039C000340D00083C090008804500083C17000839
:1039D000782F0008FC080008832E56D3A839000869
:1039E000E9080008D0090008180D0008F4260008AE
:1039F000C0270008F82C0008340D00083C09000816
:103A0000754500083C170008782F0008FC080008DE
:103A10008444554DD0FFFFFFD8390008E90800085D
:103A2000E01B000834120008180D0008C429000823
:103A3000B4260008140B0008A8300008601C000819
:103A40003C0900080A000000402C0008F426000889
:103A5000B4260008140B0008601C0008701D000844
:103A60003C0900080E000000402C00086C260008ED
:103A7000DC0A0008E4FFFFFF4C3000089C0A000845
:103A800008000000541B0008DC0A0008ACFFFFFF20
:103A9000141C0008A8300008340D0008FC080008B9
:103AA0008556424153C5FFFF103A00082909000816
:103AB0009CBA01208544424153C5FFFFA03A00084B
:103AC00029090008100000208552424153C5FFFF1C
:103AD000B43A0008290900080000002083434CD3B1
:103AE000C83A0008E9080008F8030008041B5B3224
:103AF0004AFFFFFFF8030008041B5B3B48FFFFFF82
:103B0000A8300008FC080008C1A8FFFFDC3A000844
:103B1000E90800083C09000829000000580B0008CB
:103B2000502900089C0A000834000000A830000852
:103B30003C09000810000000CC2F000820040008F9
:103B40003C09000871FA0020941D00089C0A000836
:103B500010000000840A0008BCFFFFFFFC080008FA
:103B60003C090008924500083C170008782F00081F
:103B7000FC080008C1DCFFFF083B0008E90800085A
:103B8000B42600088C0F00086C0F0008701D000898
:103B900034280008DC1D0008FC080008865359532F
:103BA000434CCBFF743B0008AD3B00080549086857
:103BB00047F8040D55F8042B22F0030252F8043B99
:103BC00018470000000000208553544354D2FFFFE3
:103BD0009C3B00082909000898BA01208544454CFF
:103BE00041D9FFFFC83B0008ED3B000857F8041B14
:103BF00057F8040B0C4CC043401C20600B4A11606A
:103C00000B4A1160002806D00A4A1068072111608B
:103C100021680029FCD1106055F8042B22F0030222
:103C200052F8043B1847000098BA012014E000E065
:103C300018E000E010E000E0824DD3FFDC3B00081C
:103C4000E90800083C090008EFCC0100E83B000847
:103C5000FC08000887574F52444341D4383C0008C1
:103C6000E9080008A00F0008B81B0008B4260008E7
:103C7000A81000083C0900080D000000A81000086A
:103C8000A00F00083C0900080D000000AC1300085C
:103C9000601C0008941D00083C0900080A00000090
:103CA000BC1A0008DC1D0008601C0008242600085F
:103CB000BC0F00083C0900088400000034280008FC
:103CC000981B0008DC1D00083C0900080D000000DE
:103CD000A81000083C0900088A000000A81000088D
:103CE000241000084811000880100008741B000808
:103CF0003C090008C8BB0120B81D0008FC080008EA
:103D000085574F5244D3FFFF543C0008E908000890
:103D1000E4260008982E0008481100084C2E0008E0
:103D2000B4260008E01B000824260008941D0008A3
:103D30003C0900080D0000008428000850290008F4
:103D40009C0A00081C000000141C0008601C0008ED
:103D5000EC11000860110008E01B00085C28000856
:103D60005C0F0008701D0008342800083C0900089A
:103D70004A000000382900089C0A000810000000D2
:103D8000A8300008E4260008982E0008601C0008EF
:103D9000000F0008701D0008C82800089C0A0008D1
:103DA0000C000000840A000854000000601C000899
:103DB000EC2E0008D4260008982E0008601C00088D
:103DC00024260008941D00083C0900080D0000008E
:103DD000842800089C0A0008080000000C02000863
:103DE000EC11000860110008701D0008601C00083C
:103DF000502900089C0A000828FFFFFF141C000837
:103E0000A8300008FC080008874D59574F5244D38A
:103E1000003D0008E90800085C07000800000208EF
:103E2000C4BB01200C3D00085C0700080000000036
:103E3000C4BB0120FC08000889464953485F4F4E27
:103E40004CD9FFFF083E00084D3E000809490A4CC6
:103E500021600A4C21600A490A4C21600A4C216009
:103E60000A490B4C216055F8042B22F0030252F84A
:103E7000043B184744450008C8BB01200800002047
:103E80009CBA0120B8BB01200C00002010000020CB
:103E9000BCBB012084464953C8FFFFFF383E0008E1
:103EA000E90800086C340008C4060008FC08000893
:103EB000990D0A46495348205265666572656E63DE
:103EC00065204D6F64656C3A0D8AFFFF943E0008D3
:103ED000894750494F422D4F44D2FFFFB03E000862
:103EE0002909000814040240894750494F422D49CE
:103EF00044D2FFFFD03E0008290900081004024008
:103F00008B4750494F422D4D4F4445D2E83E000863
:103F10002909000800040240894750494F432D4FAA
:103F200044D2FFFF003F000829090008140802409E
:103F3000894750494F432D4944D2FFFF183F00089D
:103F400029090008100802408B4750494F432D4D66
:103F50004F4445D2303F00082909000800080240BC
:103F6000865345454249D4FF483F0008E908000808
:103F7000B81B0008C4260008341C0008F82B0008F1
:103F8000741B0008701D0008942A00089C0A000891
:103F900010000000F8030008024F4EFFFC08000864
:103FA000F8030008034F4646FC08000886534554B2
:103FB0004249D4FF603F0008BD3F000857F8042B7A
:103FC00057F8041B10684FF001038B401843106032
:103FD00055F8042B22F0030252F8043B1847000066
:103FE00086434C524249D4FFAC3F0008F13F0008E1
:103FF00057F8042B57F8041B10684FF001038B404F
:1040000020EA0300106055F8042B22F0030252F856
:10401000043B184787414E44424954D3E03F0008CF
:104020002540000857F8042B57F8041B0868104077
:10403000086055F8042B22F0030252F8043B18479D
:1040400087534554424954D3144000085140000856
:1040500057F8042B57F8041B08681043086055F8FC
:10406000042B22F0030252F8043B184787434C52BA
:10407000424954D3404000087D40000857F8042BC3
:1040800057F8041B08689043086055F8042B22F089
:10409000030252F8043B1847834753B06C400008B2
:1040A000E90800089C0A00081C0000003C09000800
:1040B000000000003C09000814080240B83F000856
:1040C000FC0800083C090008000000003C0900084A
:1040D00014080240EC3F0008FC080008834753B175
:1040E00098400008E90800089C0A00081C0000002D
:1040F0003C090008010000003C09000814080240C7
:10410000B83F0008FC0800083C0900080100000056
:104110003C09000814080240EC3F0008FC080008B5
:10412000834753B2DC400008E90800089C0A0008F5
:104130001C0000003C090008020000003C090008C7
:1041400014080240B83F0008FC0800083C090008B9
:10415000020000003C09000814080240EC3F00087F
:10416000FC080008835357B420410008E908000800
:104170009C0A00081C0000003C090008090000001F
:104180003C09000814080240B83F0008FC08000879
:104190003C090008090000003C090008140802401E
:1041A000EC3F0008FC080008835357B36441000843
:1041B000E90800089C0A00081C0000003C090008EF
:1041C000080000003C09000814080240B83F00083D
:1041D000FC0800083C090008080000003C09000831
:1041E00014080240EC3F0008FC080008835357B253
:1041F000A8410008E90800089C0A00081C0000000B
:104200003C090008070000003C09000814080240AF
:10421000B83F0008FC0800083C090008070000003F
:104220003C09000814080240EC3F0008FC080008A4
:10423000835357B1EC410008E90800089C0A0008C4
:104240001C0000003C090008060000003C090008B2
:1042500014080240B83F0008FC0800083C090008A8
:10426000060000003C09000814080240EC3F00086A
:10427000FC0800088643532D4441C3FF3042000828
:10428000E90800089C0A0008440000003C090008F6
:10429000140402403C090008004000004C400008A3
:1042A0003C090008140402403C09000800200000FA
:1042B000784000083C090008140402403C0900084A
:1042C000001000004C400008FC0800083C090008F1
:1042D000140402403C090008002000004C40000883
:1042E000FC0800088543532D42D4FFFF74420008A8
:1042F000E90800089C0A0008440000003C09000886
:10430000140402403C090008004000007840000806
:104310003C090008140402403C0900080020000089
:104320004C4000083C090008140402403C09000805
:10433000001000004C400008FC0800083C09000880
:10434000140402403C090008004000004C400008F2
:10435000FC0800088643532D4144C3FFE442000893
:10436000E90800089C0A0008440000003C09000815
:10437000140402403C090008004000004C400008C2
:104380003C090008140402403C0900080020000019
:104390004C4000083C090008140402403C09000895
:1043A0000010000078400008FC0800083C090008E4
:1043B000140402403C090008001000004C400008B2
:1043C000FC080008853F545255C5FFFF54430008C0
:1043D000D543000857F8040B00280AD04040401E7F
:1043E00047F8040D55F8042B22F0030252F8043B61
:1043F000184747F8040D55F8042B22F0030252F831
:10440000043B18478F0D0A505354415420475049DC
:104410004F3A0D8AC443000887535049332D44D284
:1044200004440008290900080C3C00408753504907
:10443000332D53D21844000829090008083C0040D5
:1044400088535049332D4352B2FFFFFF2C440008DC
:1044500029090008043C004088535049332D435239
:10446000B1FFFFFF4044000829090008003C00405C
:1044700087444143574F52C4584400082909000853
:10448000D0FE0020844F5652BFFFFFFF704400084B
:10449000954400081449086810F0400010D14040CD
:1044A00047F8040D55F8042B22F0030252F8043BA0
:1044B000184755F8042B22F0030252F8043B184722
:1044C0004040A0F1010047F8040D55F8042B22F0FC
:1044D000030252F8043B184755F8042B22F003025C
:1044E00052F8043B18470000083C0040857E5258B3
:1044F0004EC5FFFF84440008FD44000805490868D4
:1045000010F00100FAD055F8042B22F0030252F803
:10451000043B1847083C0040847E5458C5FFFFFF09
:10452000EC440008294500080549086810F002001D
:10453000FAD055F8042B22F0030252F8043B184736
:10454000083C00408F0D0A505354415420535049A9
:104550003A0D8AFF184500085D450008009801B033
:10456000874600000352554E2000203F2000203C8B
:1045700043523E20005641522043454C4C532000AC
:1045800044494354494F4E4152592042595445538E
:10459000200020434F4D4D454E54204C494E452060
:1045A00043414E4E4F5420424520454D50545920D2
:1045B0000D0A15002043414E5420464F52474554A2
:1045C000204649534820494E20464C415348200D2F
:1045D0000A150020494E20464C415348202D2053B7
:1045E000454520464C4153485F464F52474554206D
:1045F0000D0A15002044494354494F4E4152592059
:1046000046554C4C202D20534545202E4453200D1B
:104610000A15002052414D2056415220535041432B
:10462000452046554C4C202D20534545202E5653B1
:10463000200D0A150020495320414C524541445950
:1046400020444546494E4544200D0A1500203F2090
:104650004E4F5420574F5244200D0A1500203F2042
:104660004E4F5420574F5244204F52204E554D42EA
:104670004552200D0A150020434155534544204121
:1046800020535441434B204552524F52200D0A159E
:104690000020535441434B204552524F522057481B
:1046A000494C4520455845435554494E47204F52A3
:1046B00020434F4D50494C494E47200D0A150020CC
:1046C0004552524F52202D204E4F5420434F4D50B3
:1046D000494C494E47200D0A1500204552524F5271
:1046E000202D204558454355544544205748494CB2
:1046F0004520434F4D50494C494E47200D0A150067
:10470000E90800085C07000805070000003C0240BB
:10471000FC080008194700084CF20004C2F201042A
:104720004FF000034FF0800C53F8042B44F8042B97
:10473000BCF1010CF8D155F8042B22F0030252F819
:10474000043B1847E9080008144700085C07000804
:1047500000C0012008ED00E07407000800380240A6
:104760009007000801000000D00700080038024050
:104770005C070008000000000838024074070008C9
:1047800000380240B0070008FFFFF6FED00700081F
:10479000003802405C070008103000240438024052
:1047A0007407000800380240B0070008FFFFFBFF55
:1047B000D0070008003802405C0700080000000035
:1047C0000C380240740700080038024090070008C7
:1047D00000000100D0070008003802404C08000823
:1047E0007407000800380240B0070008000002000B
:1047F0006408000874070008403802409007000869
:1048000000000010D007000840380240740700087C
:10481000007000409007000800400000D00700082A
:10482000007000403C090008083802403C090008BC
:10483000000000004C4000083C0900080838024015
:104840003C090008008000004C4000083C090008BA
:10485000083802403C090008001400004C400008E1
:104860005C0700080A3B4005043802407407000852
:10487000003802409007000800000001D00700083F
:10488000003802404C080008740700080038024055
:10489000B007000800000002640800080047000894
:1048A0007407000808380240B0070008FCFFFFFF4B
:1048B000D007000808380240740700080838024092
:1048C0009007000802000000D007000808380240E6
:1048D0004C0800087407000808380240B0070008B8
:1048E0000C0000003C0900080800000084280008B3
:1048F000640800085C07000800300050843802405B
:104900007407000800380240900700080000000407
:10491000D0070008003802404C080008740700085F
:1049200000380240B00700080000000864080008D2
:104930005C07000880890807000000203C09000887
:10494000303802403C090008870000004C40000855
:104950003C090008403802403C09000800000400FF
:104960004C4000085C070008007700002408024063
:104970001C080008000802400300F0000100A0002D
:104980005C0700080C2000000C4800405C07000891
:104990000700000010E000E03C0900083038024049
:1049A0003C090008020000004C4000083C090008D7
:1049B000403802403C090008008004104C400008C8
:1049C0003C090008000402403C090008850A005523
:1049D0004C4000083C090008200402403C09000843
:1049E000006066004C4000083C090008003C0040A4
:1049F0003C0900083D0300004C4000083C09000849
:104A0000003C00403C090008400000004C40000809
:104A10003C090008000000003C09000808040240AE
:104A2000B81D00083C090008800400003C0900088B
:104A30000C040240B81D00083C09000814040240A0
:104A40003C09000803F000004C4000083C09000845
:104A5000000802403C090008155005004C400008C1
:104A60003C090008080802403C0900080000F0006A
:104A70004C4000083C0900080C0802403C090008B2
:104A8000000050004C4000083C0900081408024097
:104A90003C090008C00300004C400008FC08000866
:104AA000BFF34F8F0548016811F4E06104480143EA
:104AB00002480160BFF34F8FFEE700000CED00E0FD
:104AC0000400FA0572B6704762B6704780B5FFF70A
:104AD000E7FF01BDFCF73CB9FFF7FEBFFFF7FEBFE4
:104AE000FFF7FEBFFFF7FEBFFFF7FEBFFFF7FEBFFA
:104AF000FFF7FEBFFCF75CB9FFF7FEBFFFF7FEBF95
:104B0000FFF7FEBFFFF7FEBFFFF7FEBFFFF7FEBFD9
:104B1000FFF7FEBFFFF7FEBFFFF7FEBFFFF7FEBFC9
:104B2000FFF7FEBFFFF7FEBFFFF7FEBFFFF7FEBFB9
:104B3000FFF7FEBFFFF7FEBFFFF7FEBFFFF7FEBFA9
:104B4000FFF7FEBFFFF7FEBFFFF7FEBFFFF7FEBF99
:104B5000FFF7FEBFFFF7FEBFFFF7FEBFFFF7FEBF89
:104B6000FFF7FEBFFFF7FEBFFFF7FEBFFFF7FEBF79
:104B7000FFF7FEBFFFF7FEBFFFF7FEBFFFF7FEBF69
:104B8000FFF7FEBFFFF7FEBFFFF7FEBFFFF7FEBF59
:104B9000FFF7FEBFFFF7FEBFFFF7FEBFFFF7FEBF49
:104BA000FFF7FEBFFFF7FEBFFFF7FEBFFFF7FEBF39
:104BB000FFF7FEBFFFF7FEBFFFF7FEBFFFF7FEBF29
:104BC000FFF7FEBFFFF7FEBFFFF7FEBFFFF7FEBF19
:104BD000FFF7FEBFFFF7FEBFFFF7FEBFFFF7FEBF09
:104BE000FFF7FEBFFFF7FEBFFFF7FEBFFFF7FEBFF9
:104BF000FFF7FEBFFFF7FEBFFFF7FEBFFFF7FEBFE9
:104C0000FFF7FEBFFFF7FEBFFFF7FEBFFFF7FEBFD8
:104C1000FFF7FEBFFFF7FEBFFFF7FEBFFFF7FEBFC8
:104C2000FFF7FEBFFFF7FEBFFFF7FEBFFFF7FEBFB8
:104C3000FFF7FEBFFFF7FEBFFFF7FEBFFFF7FEBFA8
:0400000500000000F7
:00000001FF
