:020000040800F2
:10000000000002201D4A0008214A0008154A000885
:10001000254A0008294A00082D4A0008000000006F
:10002000000000000000000000000000314A00084D
:10003000354A000800000000394A00083D4A00081F
:10004000414A0008454A0008494A00084D4A00084C
:10005000514A0008554A0008594A00085D4A0008FC
:10006000614A0008654A0008694A00086D4A0008AC
:10007000714A0008754A0008794A00087D4A00085C
:10008000814A0008854A0008894A00088D4A00080C
:10009000914A0008954A0008994A00089D4A0008BC
:1000A000A14A0008A54A0008A94A0008AD4A00086C
:1000B000B14A0008B54A0008B94A0008BD4A00081C
:1000C000C14A0008C54A0008C94A0008CD4A0008CC
:1000D000D14A0008D54A0008D94A0008DD4A00087C
:1000E000E14A0008E54A0008E94A0008ED4A00082C
:1000F000F14A0008F54A0008F94A0008FD4A0008DC
:10010000014B0008054B0008094B00080D4B000887
:10011000114B0008154B0008194B00081D4B000837
:10012000214B0008254B0008294B00082D4B0008E7
:10013000314B0008354B0008394B00083D4B000897
:10014000414B0008454B0008494B00084D4B000847
:10015000514B0008554B0008594B00085D4B0008F7
:10016000614B0008654B0008694B00086D4B0008A7
:10017000714B0008754B0008794B00087D4B000857
:10018000814B0008854B0008E90800083C0900087D
:1001900007000000E82F0008FC08000829090008F3
:1001A00008000000E90800089C010008E82F00088A
:1001B000F02E00089C010008E82F00087C1C0008B5
:1001C000880F00088C1D000850280008D026000861
:1001D000501C0008F81D00083C090008FCFFFFFF48
:1001E000780F0008641D0008402D0008880F0008E3
:1001F000641D0008FC080008E90800085C07000806
:1002000000000000A0BB0120FC080008E90800086D
:100210005C07000800000000A4BB0120FC080008E7
:10022000E9080008180D0008400F0008D41D000858
:10023000F4190008340D0008FC080008E90800085B
:10024000400F00088C1D00087C1C0008F0260008E8
:10025000A02800089C0A0008180000003C090008BB
:1002600062000000E82F0008301C0008FC080008AD
:100270003C0900080A000000A02800089C0A0008A9
:10028000140000003C09000864000000E82F00088A
:10029000FC0800083C09000868000000E82F00087E
:1002A000FC080008E9080008A4250008D02600087A
:1002B000082500083C020008FC080008E9080008BE
:1002C000D0260008D0260008082500083C020008B7
:1002D000FC080008E9080008180D00087C1C00084C
:1002E000400F0008D41D00083C0900080A00000067
:1002F000A02800089C0A000810000000A4020008C2
:10030000840A000808000000BC020008F02E000863
:10031000340D0008FC08000829090008ACBB0120C6
:1003200029090008B0BB012029090008D4BB01201D
:1003300029090008DCBB0120E90800083C09000885
:100340003C45000858170008942F0008741800084E
:10035000E90800082C0F0008641D0008FC080008CC
:10036000E908000840100008BC0F0008D41D000870
:100370001027000850030008FC080008E9080008DE
:10038000680F00088C1D00086C2900083C09000853
:1003900007460008B0120008FC080008E908000839
:1003A000680F00088C1D00083C0900082246000860
:1003B000B0120008FC080008E908000878280008C6
:1003C0003C090008D9450008B0120008FC080008E4
:1003D000E90800082C1B0008180300088C1D000801
:1003E000501C0008142900083C090008BF450008FB
:1003F000B0120008FC080008E9080008901B00087B
:100400007C1C000834170008942F000834170008DB
:100410005028000810100008D41B0008FC08000831
:10042000E9080008A80F00083C0900085E00000069
:10043000E41500085C07000801000000A0BB0120D3
:10044000FC080008E9080008402600087C1C000899
:10045000D41B0008B01D0008400F00088C1D0008C8
:10046000E01200089C0A000858000000501C000818
:10047000400F00088C1D0008600C0008301C0008AC
:10048000D81A0008400F00088C1D0008600C0008F6
:1004900068250008F82400088C1D00084026000884
:1004A0009C0A000810000000E0260008F82400085C
:1004B000641D0008901B0008840A00088CFFFFFFE1
:1004C000901B0008FC080008E9080008F80E000866
:1004D000C8130008BC0F000864110008F8090008E0
:1004E000FC080008E9080008901B00087C1C0008B4
:1004F00088260008D41B00088C1D00086003000833
:10050000FC080008E9080008D41B0008D0260008F1
:10051000B41B0008880C0008901B0008501C000841
:10052000D41B0008880C0008901B0008FC08000879
:10053000E90800082C1B000828030008D41D000847
:10054000FC080008E90800082C1B00082803000824
:100550008C1D0008782800083C090008BF450008E9
:10056000B0120008FC080008E9080008C8040008E8
:100570009C0A00083C000000680F00088C1D000861
:10058000E42800089C0A000814000000A0110008DC
:1005900060030008840A00080C000000A011000895
:1005A000A40E0008D0030008840A0008C0FFFFFF63
:1005B000BC0F000840140008F82400088C1D000837
:1005C000402600089C0A000810000000B81E000821
:1005D000840A00080C000000301C0008E81E000817
:1005E000D0030008840A000884FFFFFFE908000820
:1005F0005C1E0008E00C0008FC0C00082004000849
:1006000068050008680F00088C1D00086C290008A8
:100610009C0A0008380000003C090008CCBB0120FF
:100620008C1D00089C0A0008240000003C090008FA
:10063000CCBB01208C1D000858170008942F00081F
:10064000400F00088C1D0008142D00083C0900080C
:1006500010000000E82F0008C4300008840A0008D9
:1006600098FFFFFFE9080008BC0F00087828000881
:100670009C100008FC080008E90800085C07000856
:1006800000000000C0BB0120FC0800082909000888
:10069000C0BB0120E9080008982900089C0A00084E
:1006A00008000000202A0008FC080008E9080008EB
:1006B000982900089C0A000808000000C8240008C7
:1006C000FC080008E9080008C43000083C090008DC
:1006D000E80D000858170008942F00083C0900088E
:1006E000520E000858170008942F00083C09000813
:1006F0005F0E000858170008942F0008C430000847
:10070000FC080008E9080008BC0800088834000854
:10071000FC080008E9080008501C0008FC1B000841
:10072000502800083C0900087F000000FC1B00085E
:10073000B01D0008E42800089C0A0008E0FFFFFF45
:10074000501C0008301C0008FC080008013055F857
:10075000042B22F0030252F8043B184761070008FB
:1007600002CD04CD116055F8042B22F0030252F89B
:10077000043B18477907000855F8040B006847F850
:10078000040D55F8042B22F0030252F8043B1847DD
:100790009507000855F8042B57F8040B104347F849
:1007A000040D55F8042B22F0030252F8043B1847BD
:1007B000B507000855F8042B57F8040B104047F80C
:1007C000040D55F8042B22F0030252F8043B18479D
:1007D000D507000855F8043B57F8040B186055F886
:1007E000042B22F0030252F8043B1847F1070008DB
:1007F00057F8043B57F8041B57F8040B1A6822EA11
:10080000010200EA010042EA00021A6055F8042BD6
:1008100022F0030252F8043B1847000021080008A8
:1008200055F8043B55F8044B55F804CB1A6822EAF6
:1008300004020CEA040C42EA0C021A6055F8042B7C
:1008400022F0030252F8043B184700005108000848
:1008500046F8045D55F8042B22F0030252F8043BDD
:10086000184700006908000857F8040B00280CBF5F
:100870003568361D55F8042B22F0030252F8043B6C
:1008800018470000100000000000000000000000F9
:100890000000000000C00120F0BD012070FA00201F
:1008A0009CBA0120100000200000000000000000A1
:1008B0008C440008610E000800000000C108000818
:1008C000074808490E2203680B60001D091D521ECF
:1008D000F9D155F8042B22F0030252F8043B1847D3
:1008E000840800089CBB012046F8045D154655F8B5
:1008F000042B22F0030252F8043B184701090008B8
:1009000056F8045B55F8042B22F0030252F8043B1E
:100910001847000001CA47F8040D55F8042B22F0CF
:10092000030252F8043B184701CA47F8040D55F872
:10093000042B22F0030252F8043B18474109000837
:1009400055F8040B47F8040D55F8042B22F0030268
:1009500052F8043B184700005D09000855F8040BE5
:1009600047F8040D55F8042B22F0030252F8043B1B
:10097000184700007909000857F8045B55F8042B64
:1009800022F0030252F8043B1847000046F8045DC9
:100990004568083047F8040D55F8042B22F003028F
:1009A00052F8043B18470000AD0900080648074903
:1009B0000968401A47F8040D55F8042B22F0030289
:1009C00052F8043B1847000010FA0020BCBB01207D
:1009D000D5090008064807490968401A47F8040D78
:1009E00055F8042B22F0030252F8043B184700008C
:1009F0009CBB0120B8BB0120FD09000857F8043B4F
:100A000057F8042B93465A46187884461178484084
:100A10003F2420401DD1521C5B1C1878117888425D
:100A2000F9D08024001B884214D15B1C1878FF2861
:100A3000FBD0083347F8043D0120624647F8042DF7
:100A400047F8040D55F8042B22F0030252F8043B3A
:100A500018475B1C187880242042FAD01B1D0848D8
:100A600003401B68002B00D0CDE7002047F8040DA1
:100A700055F8042B22F0030252F8043B18470000FB
:100A8000FCFFFFFF890A00082B68ED1855F8042BBE
:100A900022F0030252F8043B18470000A10A0008A4
:100AA00057F8040B00283FF4EFAF2D1D55F8042B29
:100AB00022F0030252F8043B18470000C10A000864
:100AC00057F8040B00287FF4DFAF2D1D55F8042BD9
:100AD00022F0030252F8043B18470000E10A000824
:100AE000012374683268944204D0D2183260A41A88
:100AF0007FF4CAAF08362D1D55F8042B22F00302EF
:100B000052F8043B184700000D0B000857F8043B4F
:100B1000FFF7E7BF190B000857F8040B57F8042B31
:100B200046F8042D46F8040D55F8042B22F0030274
:100B300052F8043B184700003D0B000857F8040B1F
:100B400000787F21084047F8040D55F8042B22F067
:100B5000030252F8043B18475D0B000857F8041BCA
:100B60000B4A92460B4B1C6812191078521C884293
:100B700001D00028F9D15446121B1A7047F8040D11
:100B800055F8042B22F0030252F8043B18470000EA
:100B900070FA0020A0BB01209D0B000857F8041B31
:100BA00057F8042B10784840107055F8042B22F0A9
:100BB000030252F8043B1847BD0B00080A21884283
:100BC00005D157F8040B0D2047F8040D02E00D2164
:100BD000884203D100F074F900F07AF955F8042B3B
:100BE00022F0030252F8043B18470000F10B000802
:100BF0003868017801290FD0022914D001440A78FD
:100C0000622A1AD0252A18D0642A18D0232A16D08E
:100C1000682A16D0242A14D055F8042B22F0030297
:100C200052F8043B184782782E2AE7D155F8042B56
:100C300022F0030252F8043B1847022402E00A247F
:100C400000E0102400220A70044A146055F8042BB6
:100C500022F0030252F8043B184700009CBB01201D
:100C6000650C000857F8040B57F8041BA0FB012083
:100C700047F8042D47F8040D55F8042B22F0030221
:100C800052F8043B184700008D0C000857F8040B7D
:100C900057F8043B57F8042B002812D093F0000FAC
:100CA0000FD10146B2FBF0F000FB112247F8042DF2
:100CB00047F8040D55F8042B22F0030252F8043BC8
:100CC00018474040401E024647F8042D47F8040DDF
:100CD00055F8042B22F0030252F8043B1847000099
:100CE000E50C0008044A176855F8042B22F00302AB
:100CF00052F8043B18470000ACBB0120010D00086E
:100D0000044A166855F8042B22F0030252F8043BFB
:100D100018470000B0BB01201D0D0008044A1168EF
:100D20008C4655F8042B22F0030252F8043B184776
:100D30009CBB0120390D0008044A6146116055F83A
:100D4000042B22F0030252F8043B18479CBB0120FD
:100D50000B490C480C4C0160001DA042FBD381B034
:100D600070460090094F0A4E0FF2280546F8045DC0
:100D700055F8042B22F0030252F8043B18470000F8
:100D8000111111110000002000C2012000C001203B
:100D9000F0BD0120BC0800088C460008702D00083A
:100DA000C43000083C090008FB000000E82F0008E0
:100DB0003C090008F7000000E82F0008C4300008D4
:100DC00070190008A044000808CA9F4603B50249EC
:100DD0000868401C086003BD98BA0120E10D0008B6
:100DE00056F8045BBDE83F9C4649534820524D20CD
:100DF00056347468204F454D207E2041524D20537B
:100E0000544D3332463230355243205053544154BE
:100E1000206F72205354502052504D20426F617207
:100E20006420403131384D687A20284329323031EE
:100E3000342D3230313820412D5445414D20464F1C
:100E4000525448203A204A616E20203420323031FA
:100E500039002061742031333A33323A303400158E
:100E600000206F6B2C20676F206669736820696EA5
:100E70002042415345200000844E4F4FD0FFFFFFDA
:100E800000000000890E000855F8042B22F0030230
:100E900052F8043B1847000087455845435554C550
:100EA000780E0008A90E000800F00AF800F010F80B
:100EB00057F8042B22F0030252F8043B18470000B5
:100EC0007246024C2168090AFCD3104700480040D2
:100ED0007246024913240C70104700000448004079
:100EE0007246024911240C7010470000044800406B
:100EF0008242CCFF980E000829090008200000005B
:100F00008255D0FFF00E000829090008B8BB012067
:100F10008546454E43C5FFFF000F0008290900081C
:100F2000C4BB01208244D0FF100F0008290900082B
:100F3000BCBB012084424153C5FFFFFF240F0008C2
:100F4000290900089CBB01208743555252454ED4C5
:100F5000340F000829090008C8BB012085535441FB
:100F600054C5FFFF480F000829090008A8BB01204D
:100F7000834F55D45C0F000829090008A4BB012049
:100F80008249CEFF700F000829090008A0BB01208C
:100F9000835041C4800F00082909000810FA00207E
:100FA000835449C2900F00082909000870FA0020F4
:100FB00084484552C5FFFFFFA00F0008E90800085C
:100FC0002C0F00088C1D0008FC08000885414C4CC3
:100FD0004FD4FFFFB00F0008E9080008A809000877
:100FE000FC1B000878280008982900089C0A0008C3
:100FF00008000000380300082C0F0008641D0008DA
:10100000FC08000887414C49474E45C4CC0F0008F6
:101010001510000857F8040BC01C0549084047F894
:10102000040D55F8042B22F0030252F8043B184734
:10103000FCFFFFFF85414C4947CEFFFF041000082D
:10104000E9080008BC0F0008002700085028000825
:101050007C1C0008D41B0008BC0F0008140B0008FF
:101060003C090008FF0000000C1B0008F81D0008E8
:10107000DC0A0008ECFFFFFF901B00083C09000899
:10108000FCFFFFFFB02A00082C0F0008D41D000849
:10109000FC08000881ACFFFF34100008E9080008D4
:1010A000A8090008982900089C0A00080800000008
:1010B0003803000860030008FC0800088243ACFF06
:1010C00094100008E9080008A809000898290008F9
:1010D0009C0A00080800000038030008BC0F000844
:1010E000F81D0008E026000850030008FC0800086E
:1010F00088564152414C4C4FD4FFFFFFBC100008B2
:10110000E9080008D009000810270008DC270008BB
:10111000FC1B000878280008982900089C0A000891
:10112000180000003C0900085B450008581700083B
:10113000942F000874180008080F00088C1D000880
:10114000501C000810270008A0270008080F0008FE
:10115000641D0008FC080008864C41544553D4FF28
:10116000F0100008E9080008540F00088C1D000862
:10117000FC080008834C46C1581100088111000882
:1011800057F8040B083847F8040D55F8042B22F0E3
:10119000030252F8043B1847834346C17411000808
:1011A000A511000857F8040B001F47F8040D55F867
:1011B000042B22F0030252F8043B1847834E46C129
:1011C00098110008E90800089C0100087828000828
:1011D0001C2600087C1C0008B01D00083C09000803
:1011E000FF000000782800089C0A0008E4FFFFFFC9
:1011F0003C090008FFFFFFFF14070008FC08000877
:10120000835046C1BC110008E9080008E026000828
:1012100014070008402600087C1C0008B01D0008C8
:101220003C090008FF000000782800089C0A00081C
:10123000E4FFFFFF9C01000850280008FC0800089C
:10124000883F414C49474E45C4FFFFFF001200084C
:10125000E90800083C09000803000000B02A000863
:101260009C0A00083C000000F80300082E56414C80
:101270005545204D555354204245204556454E2056
:101280004E4F54204F444420414E44204D554C5421
:1012900049504C45204F4620342120FF7418000847
:1012A000FC080008863F4552524FD2FF401200080A
:1012B000E9080008501C00089C0A00081000000003
:1012C0003C150008840A000808000000301C0008D3
:1012D000FC0800088544494749D4FFFFA4120008D0
:1012E000E512000857F8042B57F8040B303813D4D4
:1012F000092802DDC01F0A280EDB90420CDA0246E4
:10130000012047F8042D47F8040D55F8042B22F06E
:10131000030252F8043B1847002047F8040D55F823
:10132000042B22F0030252F8043B184787454E4332
:101330004C4F53C5D41200083D13000857F8040B56
:1013400039680022521E491E491C521C0B789842D3
:10135000FAD047F8042D002B0CD11846521C47F840
:10136000042D47F8040D55F8042B22F0030252F81F
:10137000043B1847491C521C0B78984201D0002BA3
:10138000F8D11046401C47F8042D47F8040D55F8D5
:10139000042B22F0030252F8043B1847C180FFFFE0
:1013A0002C130008A913000856F8045B55F8042B09
:1013B00022F0030252F8043B1847000084574F52B2
:1013C000C4FFFFFF9C130008E9080008A80F0008ED
:1013D000880F00088C1D000850280008501C0008C9
:1013E00038130008880F0008641D0008FC1B000863
:1013F00078280008D41B0008B41B0008BC0F0008A4
:10140000F81D000850280008BC0F000840260008FE
:10141000B41B0008B81C0008D0260008BC0F000848
:1014200040260008901B000850280008F81D0008FE
:10143000FC080008864E554D4245D2FFBC130008FB
:10144000E9080008180D0008EC0B0008D026000879
:10145000D0260008D81A00087C1C00084026000886
:10146000B01D00083C0900082D000000A02800085D
:10147000E0260008B02A00087C1C0008D41B0008E5
:10148000502800083C090008FFFFFFFFF82400086F
:10149000D41D0008440400087C1C0008B01D00088E
:1014A000D0260008782800089C0A00086800000080
:1014B0007C1C0008B01D00083C0900082E0000003C
:1014C000782800089C0A0008400000007C1C0008E6
:1014D000B01D00083C0900082C000000A0280008EE
:1014E0009C0A000810000000402D0008840A000833
:1014F0009CFFFFFF340D0008E02600083C090008AF
:10150000A5450008B0120008D0260008840A00088B
:101510007CFFFFFF301C0008901B00089C0A00089D
:1015200008000000C8240008340D0008FC0800086A
:10153000854552524FD2FFFF34140008E9080008D5
:10154000BC0F000834170008942F00085817000833
:10155000942F0008682E0008680F00088C1D0008F2
:101560009C0A0008400000008C0600088C1D000842
:101570009C0A0008300000008C0600088C1D000842
:10158000081200087C1100088C1D0008540F000888
:10159000D41D00088C0600088C1D00082C0F0008C4
:1015A000D41D00087806000874180008C1A7FFFFC2
:1015B00030150008E9080008C80400086C29000874
:1015C0003C09000895450008B0120008301C0008CE
:1015D000E81E0008FC080008864558504543D4FF23
:1015E000AC150008E90800080C020008F801000822
:1015F00040260008FC1B000850280008FC1B0008BF
:10160000402600088C2E0008140B0008303000081B
:10161000B80B00087C1C00083C0900080900000009
:10162000A02800089C0A00080C000000301C0008DC
:10163000F80E00087C1C00089C010008A028000887
:10164000FC1B00083C0900087F000000A0280008DF
:10165000D82A00089C0A000850000000301C00082E
:101660007C1C00080C1B00081C260008A028000891
:101670007C1C0008901B0008F02600087828000851
:1016800050280008D41B00089C0A00081000000025
:1016900088010008840A00086C000000A40100080A
:1016A000840A0008600000007C1C00083C09000857
:1016B0000D000000A02800089C0A00081C00000083
:1016C000701B0008301C0008F80E0008D026000827
:1016D000840A0008080000007C1C00080C1B00089D
:1016E000F81D0008E0260008880F0008641D0008A7
:1016F000D02600080C1B000840260008F81D000832
:10170000E82F0008DC0A000804FFFFFF682E00082D
:101710004026000858170008501C00081C26000826
:10172000F81D0008FC08000885434F554ED4FFFF04
:10173000D8150008E90800087C1C000840260008AD
:10174000501C0008B01D0008FC08000884244C450B
:10175000CEFFFFFF281700085D1700083A684040D9
:10176000115C094301D0401CFAE747F8040D55F815
:10177000042B22F0030252F8043B184786464F52CE
:101780004745D4FF4C170008E9080008B4150008C5
:101790007C1C00083C09000800000208E42800083E
:1017A0003C090008FC440008B01200087C1C00083A
:1017B0003C09000800001008E42800083C09000863
:1017C0001B450008B01200087C1C00087C110008B2
:1017D000D41B000864110008081200087C110008DE
:1017E0007C1C00088C1D0008540F0008D41D000844
:1017F0007C1C0008882600088C1D00083C09000895
:1018000015090008A02800089C0A00081400000020
:101810003C090008FCFFFFFF080F0008641D0008DA
:10182000B41B0008A02800089C0A0008A8FFFFFFBE
:10183000901B00088C1D0008540F0008D41D0008E0
:10184000C41100082C0F0008D41D0008FC39000842
:10185000CC390008FC080008834259C57C170008F1
:1018600065180008FFF774BA8541424F52D4FFFF54
:1018700058180008E9080008E00C0008FC0C0008F3
:101880000C0200083C090008AC4400086411000880
:10189000F80900089C0A000810000000301C00082D
:1018A000A0110008A40E00083C090008D0BB0120CC
:1018B0008C1D00089C0A00086C0000003C09000810
:1018C0002819000858170008942F000868300008ED
:1018D0009C0A0008F8FFFFFF303000083C090008B0
:1018E00043000000A02800089C0A0008E0FFFFFF5A
:1018F000303000083C0900084F000000A028000814
:101900009C0A0008C8FFFFFF303000083C090008AF
:101910000D000000A02800089C0A0008B0FFFFFF8F
:10192000C4300008EC050008204572726F72204830
:10193000616C74202845484F4E2F45484F46462934
:10194000202D20546F20434F6E74696E75652054AE
:1019500079706520434F207468656E20456E74650C
:10196000723A200084434F4CC4FFFFFF6818000800
:10197000E908000804070008003B0008C406000846
:10198000EC050008900D0A464953482053797374BA
:10199000656D3A0D8AFFFFFF64190008832E53C856
:1019A00084190008E90800083C090008100000003C
:1019B00020020008FC080008832E53C49C1900086C
:1019C000E90800083C0900080A000000200200089D
:1019D000FC080008832E53C2B8190008E908000863
:1019E000F026000820020008FC080008822ED3FF21
:1019F000D4190008E9080008180300088C1D000825
:101A00002C1B000888260008A02800086C29000864
:101A10009C0A000868000000F803000805544F53B2
:101A20003E20FFFF180300088C1D00082C1B000837
:101A300088260008140B00080C1B00088C1D0008E9
:101A4000400F00088C1D00083C0900080A00000037
:101A5000A02800089C0A000810000000A40200084A
:101A6000840A000808000000BC020008F02E0008EC
:101A700010270008080B0008C0FFFFFFFC08000843
:101A800084324455D0FFFFFFEC190008911A00087A
:101A900038687A6847F8042D47F8040D55F8042B88
:101AA00022F0030252F8043B18470000842D4455ED
:101AB000D0FFFFFF801A0008E90800087C1C00081E
:101AC0009C0A0008080000007C1C0008FC080008B4
:101AD00083524FD4AC1A0008DD1A000857F8042BC3
:101AE00057F8041B57F8040B47F8041D47F8042D5A
:101AF00047F8040D55F8042B22F0030252F8043B7A
:101B00001847000081C9FFFFD01A0008111B000808
:101B1000306847F8040D55F8042B22F0030252F800
:101B2000043B1847835350C0041B0008311B0008B6
:101B3000384647F8040D55F8042B22F0030252F8FA
:101B4000043B1847835250C0241B0008511B000857
:101B5000304647F8040D55F8042B22F0030252F8E2
:101B6000043B1847854C454156C5FFFF441B000800
:101B7000751B00083268726055F8042B22F00302CE
:101B800052F8043B184700008252BEFF641B000855
:101B9000951B000856F8040B47F8040D55F8042B64
:101BA00022F0030252F8043B1847000081D2FFFFE5
:101BB000881B0008B91B0008306847F8040D55F869
:101BC000042B22F0030252F8043B1847823ED2FF56
:101BD000AC1B0008D91B000857F8041B46F8041D6D
:101BE00055F8042B22F0030252F8043B184700007A
:101BF000844F5645D2FFFFFFCC1B0008011C000894
:101C000057F8042B57F8040B47F8040D47F8042D38
:101C100047F8040D55F8042B22F0030252F8043B58
:101C2000184700008444524FD0FFFFFFF01B00080C
:101C3000351C00083F1D55F8042B22F0030252F812
:101C4000043B184784535741D0FFFFFF241C000872
:101C5000551C000857F8042B57F8040B47F8042DBF
:101C600047F8040D55F8042B22F0030252F8043B08
:101C700018470000834455D0441C0008811C00080C
:101C8000386847F8040D55F8042B22F0030252F887
:101C9000043B1847900D0A537461636B20537475AD
:101CA00066663A0D8AFFFFFF741C000885434D4F9E
:101CB00056C5FFFF941C0008BD1C000857F8041B04
:101CC00057F8042B57F8043B002907D018781070F8
:101CD000491E002902D0521C5B1CF7D155F8042B79
:101CE00022F0030252F8043B184700008446494C96
:101CF000CCFFFFFFAC1C0008FD1C000857F8040BCC
:101D000057F8041B57F8042B002904D08B181070C7
:101D1000521C9A42FBD155F8042B22F0030252F8D0
:101D2000043B18478545524153C5FFFFEC1C000892
:101D3000E9080008D0260008F81C0008FC08000884
:101D400086424C414E4BD3FF241D0008E908000891
:101D5000F80E0008F81C0008FC080008822BA1FF00
:101D6000401D0008691D000857F8041B57F8040BB4
:101D70000A688018086055F8042B22F0030252F814
:101D8000043B184781C0FFFF5C1D0008911D00083F
:101D900057F8041B086847F8040D55F8042B22F087
:101DA000030252F8043B18478243C0FF841D000819
:101DB000B51D000857F8041B087847F8040D55F8BE
:101DC000042B22F0030252F8043B184781A1FFFFC5
:101DD000A81D0008D91D000857F8040B57F8041B6C
:101DE000016055F8042B22F0030252F8043B184717
:101DF0008243A1FFCC1D0008FD1D000857F8040B0D
:101E000057F8041B017055F8042B22F0030252F816
:101E1000043B18479F0D0A5265616420616E64207F
:101E20005772697465204D656D6F727920576974BA
:101E3000683A0D8AF01D000881DDFFFF141E0008BE
:101E4000E90800085C070008C0000000A8BB0120EA
:101E5000FC080008C1DBFFFF381E0008E908000885
:101E60005C07000800000000A8BB0120FC08000877
:101E7000C95B434F4D50494C45DDFFFF541E0008E0
:101E8000E9080008C80400086C2900083C0900089B
:101E9000BF450008B0120008301C0008A01100085F
:101EA0009C100008FC080008C8444C4954455241A5
:101EB000CCFFFFFF701E0008E9080008680F00084B
:101EC0008C1D00089C0A000810000000501C00082F
:101ED000E81E0008E81E0008FC080008C74C49542A
:101EE000455241CCA81E0008E9080008680F000808
:101EF0008C1D00089C0A000810000000E404000883
:101F00003C0900089C100008FC0800088223BEFF62
:101F1000DC1E0008E9080008301C0008301C00081E
:101F2000300300088C1D0008980F0008FC1B0008F7
:101F300078280008FC08000884484F4CC4FFFFFFC5
:101F40000C1F0008E90800083C090008FFFFFFFF1C
:101F500030030008641D0008300300088C1D0008D1
:101F6000F81D0008FC08000884534947CEFFFFFF16
:101F7000381F0008E9080008D81A00089829000846
:101F80009C0A0008100000003C0900082D00000019
:101F9000441F0008FC0800088223D3FF681F0008C4
:101FA000E9080008CC1F0008FC1B0008FC1B000807
:101FB000D82A00086C2900089C0A0008E8FFFFFFE7
:101FC000FC08000881A3FFFF981F0008E90800082B
:101FD000400F00088C1D000804050008D81A0008EE
:101FE0003C09000809000000FC1B0008E428000868
:101FF0009C0A0008100000003C09000807000000CF
:10200000502800083C090008300000005028000853
:10201000441F0008FC080008823CA3FFC41F0008FE
:10202000E90800085C07000810FA0020DCBB01206A
:10203000FC08000885444F4553BEFFFF18200008E8
:10204000E9080008901B0008641100080812000845
:102050007C1C0008A01100083C0900088B0900083E
:10206000501C0008D41D0008D41D0008FC080008FE
:10207000873C4255494C44D334200008E908000805
:10208000BC220008FC080008C52B4C4F4FD0FFFFB6
:1020900070200008E908000800270008B8030008BD
:1020A000E4040008080B000864060008FC080008A7
:1020B000C44C4F4FD0FFFFFF88200008E9080008FC
:1020C00000270008B8030008E4040008DC0A000840
:1020D00064060008FC080008C244CFFFB0200008D6
:1020E000E9080008E4040008140B0008BC0F00080D
:1020F00000270008FC080008C5454E4449C6FFFFFC
:10210000D8200008E90800087C030008F026000831
:10211000B8030008BC0F0008FC1B00087828000862
:10212000501C0008D41D0008FC080008C454484591
:10213000CEFFFFFFF8200008E9080008042100088E
:10214000FC080008C4454C53C5FFFFFF2C210008C4
:10215000E9080008F0260008B8030008E4040008B5
:10216000840A0008BC0F0008D02600089C10000854
:10217000501C0008F026000804210008F026000882
:10218000FC080008C249C6FF44210008E90800080D
:10219000E40400089C0A0008BC0F0008D0260008D0
:1021A0009C100008F0260008FC080008C5554E5495
:1021B00049CCFFFF84210008E9080008E026000858
:1021C000B8030008E40400089C0A0008640600083C
:1021D000FC080008C541474149CEFFFFAC2100087B
:1021E000E9080008E0260008B8030008E404000835
:1021F000840A000864060008FC080008C65245501E
:102200004541D4FFD4210008E9080008D41B000888
:10221000D41B0008E0210008901B0008901B000858
:10222000F02600087828000804210008FC080008AF
:10223000C55748494CC5FFFFFC210008E9080008C4
:102240008C21000864260008FC080008C5424547A8
:1022500049CEFFFF30220008E90800087C0300088F
:10226000BC0F0008E0260008FC080008970D0A498A
:102270006E7369646520436F6C6F6E20574F5244D4
:10228000533A0D8A4C22000889494D4D4544494135
:1022900054C5FFFF6C220008E9080008641100081B
:1022A0003C09000840000000980B0008FC080008EA
:1022B000864352454154C5FF88220008E9080008BA
:1022C000A80900083C0900080F0000007828000851
:1022D000982900089C0A000808000000380300083C
:1022E000C80400089C0A000824000000301C0008F4
:1022F000C4110008082F00083C0900087D450008AB
:1023000058170008942F000874180008BC0F000824
:102310007C1C00088C060008D41D00087C1C0008EA
:10232000B01D00083C0900081F000000602A0008DA
:10233000500300087C1C00083C09000880000000D5
:10234000980B0008BC0F00083C0900088000000042
:10235000980B0008E02600082C0F0008641D0008F8
:10236000641100089C100008540F0008D41D0008D8
:10237000E404000829090008BC0F000888260008AA
:102380009C100008FC08000888434F4E5354414EEF
:10239000D4FFFFFFB0220008E9080008AC230008C2
:1023A000FC08000883434FCE88230008E908000892
:1023B000BC2200083C090008FCFFFFFF2C0F0008AE
:1023C000641D00089C10000878060008FC0800083E
:1023D000885641524941424CC5FFFFFFA4230008E3
:1023E000E9080008F4230008FC080008835641D2DD
:1023F000D0230008E9080008BC2200083C090008B6
:10240000F8FFFFFF2C0F0008641D0008E40400081B
:1024100015090008E0260008001100089C100008BB
:1024200078060008FC080008C1BBFFFFEC23000889
:10243000E908000844050008E4040008FC08000856
:102440005C1E000878060008FC080008C1BAFFFFFF
:1024500028240008E90800089C030008300500084B
:10246000BC220008401E00083C090008F8FFFFFFDE
:102470002C0F0008641D0008E4040008E9080008A7
:10248000FC080008960D0A43524541544520574F19
:1024900052445320576974683A0D8AFF4C2400084F
:1024A00084444142D3FFFFFF84240008E908000868
:1024B0007C1C0008AC060008FC08000887444E4558
:1024C000474154C5A0240008CD24000857F8040B48
:1024D00057F8042BC043D243521C47F8042D47F849
:1024E000040D55F8042B22F0030252F8043B184760
:1024F000834450CCBC24000829090008D8BB012023
:1025000083442ED2F0240008E9080008D41B0008F8
:10251000501C0008FC1B0008AC2400082020000808
:10252000A01F0008741F0008141F0008901B00085B
:10253000FC1B000878280008B42E0008942F00081F
:10254000FC0800088244AEFF00250008E9080008E6
:10255000D026000808250008F02E0008FC08000816
:102560008244ABFF442500086D25000857F8040B92
:1025700057F8041B57F8043B57F8042B52185841DE
:1025800047F8042D47F8040D55F8042B22F00302F8
:1025900052F8043B1847000084532D3EC4FFFFFF50
:1025A00060250008A925000857F8042B4040124375
:1025B00000D5401E47F8042D47F8040D55F8042BAC
:1025C00022F0030252F8043B184700008232AAFFAF
:1025D00098250008D925000857F8040B400047F853
:1025E000040D55F8042B22F0030252F8043B18475F
:1025F0008232AFFFCC250008FD25000857F8040BF8
:10260000401047F8040D55F8042B22F0030252F84D
:10261000043B18478231ADFFF02500082126000851
:1026200057F8040B401E47F8040D55F8042B22F010
:10263000030252F8043B18478231ABFF142600080E
:102640004526000857F8040B401C47F8040D55F8C0
:10265000042B22F0030252F8043B18478232ABFFEE
:10266000382600086926000857F8040B801C47F834
:10267000040D55F8042B22F0030252F8043B1847CE
:102680008234ABFF5C2600088D26000857F8040B47
:10269000001D47F8040D55F8042B22F0030252F8F0
:1026A000043B18478234ADFF80260008B12600089D
:1026B00057F8040B001F47F8040D55F8042B22F0BF
:1026C000030252F8043B184781B0FFFFA42600081C
:1026D000290900080000000081B1FFFFC82600089A
:1026E000290900080100000081B2FFFFD826000878
:1026F000290900080200000081B3FFFFE826000856
:10270000290900080300000081B4FFFFF826000833
:102710002909000804000000824DAAFF08270008CC
:10272000E90800088C1A0008242B0008D41B0008B4
:10273000482A0008501C0008482A0008600C0008BD
:10274000901B0008AC060008FC080008824DAFFF93
:1027500018270008E9080008FC1B0008D41B000823
:10276000D41B0008AC240008B41B0008482A000849
:10277000880C0008901B0008B41B0008242B0008DC
:1027800094060008501C0008901B000894060008DE
:10279000501C0008FC08000881AAFFFF4C27000815
:1027A000E908000820270008301C0008FC08000881
:1027B000842F4D4FC4FFFFFF98270008E908000849
:1027C000D41B0008A4250008901B0008542700080B
:1027D000FC08000881AFFFFFB0270008E9080008E7
:1027E000BC270008501C0008301C0008FC0800082A
:1027F000834D4FC4D4270008E9080008BC2700080F
:10280000301C0008FC080008852A2F4D4FC4FFFF2C
:10281000F0270008E9080008D41B0008202700085A
:10282000901B000854270008FC080008822AAFFF0C
:1028300008280008E908000814280008501C0008AF
:10284000301C0008FC08000881ABFFFF2C280008A2
:102850005528000857F8040B57F8041B401847F890
:10286000040D55F8042B22F0030252F8043B1847DC
:1028700081ADFFFF482800087D28000857F8040BA9
:1028800057F8041B081A47F8040D55F8042B22F0DA
:10289000030252F8043B184781BDFFFF702800086F
:1028A000A5280008404057F8040B57F8041B401AAD
:1028B00009D0404047F8040D55F8042B22F00302DC
:1028C00052F8043B1847013847F8040D55F8042B1B
:1028D00022F0030252F8043B1847000081BCFFFFBE
:1028E00098280008E92800084040013857F8041BE0
:1028F00057F8042B914200DC404047F8040D55F88E
:10290000042B22F0030252F8043B18478255BCFF07
:10291000DC280008E90800088C1A0008242B0008AD
:10292000982900089C0A000818000000301C0008C4
:10293000982900086C290008840A00080C0000008F
:102940007828000898290008FC08000881BEFFFFCD
:102950000C290008E9080008501C0008E4280008B9
:10296000FC0800088230BDFF4C29000871290008CE
:10297000404057F8041B002900D1401E47F8040DC1
:1029800055F8042B22F0030252F8043B18470000CC
:102990008230BCFF642900089D29000857F8041BF9
:1029A00040400138094300D4404047F8040D55F831
:1029B000042B22F0030252F8043B1847834249CE0D
:1029C00090290008E90800085C07000802000000E0
:1029D0009CBB0120FC080008834845D8BC2900089E
:1029E000E90800085C070008100000009CBB0120FB
:1029F000FC08000887444543494D41CCD8290008CC
:102A0000E90800085C0700080A0000009CBB0120E0
:102A1000FC080008864E45474154C5FFF4290008CC
:102A2000252A000857F8040BC043401C47F8040D42
:102A300055F8042B22F0030252F8043B184700001B
:102A4000834142D3142A0008E90800087C1C0008CE
:102A500094060008FC080008834D49CE402A00086F
:102A6000E90800088C1A0008542900089C0A00088C
:102A700008000000501C0008301C0008FC0800087A
:102A8000834D41D8582A0008E90800088C1A00082C
:102A9000E42800089C0A000808000000501C0008F8
:102AA000301C0008FC08000883414EC4802A00083E
:102AB000B52A000857F8040B57F8041B084047F8DC
:102AC000040D55F8042B22F0030252F8043B18477A
:102AD000824FD2FFA82A0008DD2A000857F8040B0D
:102AE00057F8041B084347F8040D55F8042B22F04F
:102AF000030252F8043B1847834E4FD4D02A0008F3
:102B0000052B000857F8040BC04347F8040D55F88F
:102B1000042B22F0030252F8043B184783584FD28B
:102B2000F82A0008292B000857F8040B57F8041B53
:102B3000484047F8040D55F8042B22F0030252F8E0
:102B4000043B184784535854C8FFFFFF1C2B000850
:102B5000552B000857F8040B00B247F8040D55F840
:102B6000042B22F0030252F8043B184784535854B4
:102B7000C2FFFFFF442B00087D2B000857F8040B11
:102B800040B247F8040D55F8042B22F0030252F826
:102B9000043B184784524556D7FFFFFF6C2B0008B3
:102BA000A52B000857F8040B00BA47F8040D55F898
:102BB000042B22F0030252F8043B1847834153D2FE
:102BC000942B0008C92B000857F8042B57F8040B66
:102BD000104147F8040D55F8042B22F0030252F877
:102BE000043B1847834C53D2BC2B0008F12B000840
:102BF00057F8042B57F8040BD04047F8040D55F84C
:102C0000042B22F0030252F8043B1847834C53CCA8
:102C1000E42B0008192C000857F8042B57F8040B74
:102C2000904047F8040D55F8042B22F0030252F8A7
:102C3000043B1847822ED2FF0C2C0008E90800083C
:102C4000D41B0008A4250008901B000808250008D4
:102C5000FC080008832E52D5342C0008E90800082F
:102C6000D41B0008D026000820200008A01F000860
:102C7000141F00087C1C0008901B0008501C000852
:102C800078280008B42E0008942F0008FC080008DB
:102C90008255AEFF542C0008E9080008D026000831
:102CA0004C250008FC08000881BFFFFF902C00089D
:102CB000E90800088C1D0008C82C0008FC08000862
:102CC00081AEFFFFA82C0008E9080008A425000831
:102CD0004C250008FC080008822EC2FFC02C00080A
:102CE000E9080008F0260008D4020008FC080008E3
:102CF000822EC8FFD82C0008E90800083C0900080B
:102D000010000000D4020008FC080008822EC4FF56
:102D1000F02C0008E90800083C0900080A0000003F
:102D2000D4020008FC080008834F46C60C2D00089A
:102D30002909000800000000824FCEFF282D00085E
:102D400029090008FFFFFFFF910D0A4E554D42452E
:102D5000522053747566663A0D8AFFFF382D0008BD
:102D60008A55415254335F494E49D4FF482D0008DB
:102D7000E90800083C09000800C201208C1D000879
:102D80006C2900089C0A00081C0000003C0900088F
:102D900004C201208C1D0008D41B0008840A00080E
:102DA000100000003C09000800C20100D41B00080C
:102DB0003C0900086022C201901B0008DC270008C3
:102DC0003C09000808480040D41D0008FC08000821
:102DD000864D59424155C4FF602D0008E90800089E
:102DE0005C0700080000000000C201203C09000848
:102DF00004C20120D41D0008FC0800088955415276
:102E000054335F4C53D2FFFFD02D0008112E000821
:102E10000549087847F8040D55F8042B22F0030201
:102E200052F8043B184700000048004088554152C2
:102E300054335F52D8FFFFFFFC2D0008290900081A
:102E4000044800408855415254335F54D8FFFFFF77
:102E50002C2E0008290900080448004084584F46D9
:102E6000C6FFFFFF442E00086D2E0008FEF728F86D
:102E7000FEF72EF855F8042B22F0030252F8043B1B
:102E80001847000083584FCE5C2E0008912E000892
:102E9000FEF716F8FEF724F855F8042B22F003028B
:102EA00052F8043B18470000865350414345D3FF76
:102EB000842E0008E9080008D0260008882A0008A7
:102EC000B81A00089C0A000818000000D026000864
:102ED000140B0008F02E0008DC0A0008F8FFFFFFC2
:102EE000FC0800088553504143C5FFFFA82E000889
:102EF000E9080008F80E0008E82F0008FC080008A0
:102F0000834944AEE42E0008E9080008341700089D
:102F10003C0900081F000000B02A0008942F000898
:102F2000F02E0008FC080008C22EA2FF002F0008A7
:102F3000E90800083C09000822000000680F0008AA
:102F40008C1D00089C0A00082C000000E404000806
:102F5000F8030008C8130008BC0F0008B01D0008E3
:102F6000402600081010000850030008840A0008DA
:102F700014000000C8130008BC0F00083417000834
:102F8000942F0008FC08000884545950C5FFFFFF27
:102F9000282F0008E9080008B81A00089C0A000851
:102FA00034000000682E0008FC1B000850280008B0
:102FB000501C0008140B00080C1B0008380B0008FC
:102FC000E82F0008DC0A0008F0FFFFFF840A000871
:102FD00008000000301C0008FC08000884454D492A
:102FE000D4FFFFFF882F0008ED2F000857F8040BCF
:102FF000FDF766FF0649087006490868401C08602E
:1030000055F8042B22F0030252F8043B1847000045
:1030100004480040A4BB0120834B45D9DC2F0008A5
:10302000E90800088C2E000830300008FC08000871
:1030300035300008074A084B19688909FCD3106825
:1030400047F8040D55F8042B22F0030252F8043B14
:10305000184700000448004000480040843F4B45AA
:10306000D9FFFFFF183000086D300008FDF728FF7A
:10307000FDF736FF4040074B1968890900D3013836
:1030800047F8040D55F8042B22F0030252F8043BD4
:103090001847000000480040834352D35C300008CA
:1030A000E9080008D0260008140B0008C430000806
:1030B000DC0A0008F8FFFFFFFC0800088243D2FF8B
:1030C00098300008E90800080C020008F80300081E
:1030D000020D0AFFFC0800088C0D0A4649534820DF
:1030E000494F3A0D8AFFFFFFBC3000088B4952510F
:1030F000535F524553554DC5D83000080131000883
:1031000001F086FC55F8042B22F0030252F8043B30
:10311000184700008C495251535F53555350454E48
:10312000C4FFFFFFEC3000082D31000801F06EFCF9
:1031300055F8042B22F0030252F8043B1847000014
:103140008F5359535449434B5F4952515F4F46C6C1
:10315000143100085931000804490520086055F869
:10316000042B22F0030252F8043B184710E000E061
:103170008E5359535449434B5F4952515F4FCEFFD1
:10318000403100088931000804490720086055F8DB
:10319000042B22F0030252F8043B184710E000E031
:1031A0008F0D0A494E54455252555054533A0D8A88
:1031B000703100088A464C4153485F534156C5FF61
:1031C000A0310008E908000864110008DC3A000892
:1031D000E42800089C0A000820000000C430000811
:1031E000F80300080F4E4F5448494E4720544F20D3
:1031F00053415645FC080008C43200088C1D0008E5
:103200003C09000800001008A02800089C0A0008DB
:1032100028000000C4300008F8030008144C415393
:103220005420464C41534820415641494C20555367
:103230004544FFFFFC08000840100008080F000884
:103240008C1D0008D4320008D41D00086411000849
:10325000DC320008CC320008D41D000864110008DC
:10326000DC3A0008A02800089C0A0008480000007A
:1032700078370008DC3A00082C0F0008D41D00083D
:10328000D43200088C1D0008080F0008D41D000867
:10329000CC3200088C1D0008540F0008D41D000813
:1032A00088340008C4300008FC390008CC39000814
:1032B000FC0800086411000808330008840A0008AC
:1032C0009CFFFFFF290900080400002029090008CD
:1032D00008000020290900080C000020E132000845
:1032E00057F8040B064A1040064A1268801847F83F
:1032F000040D55F8042B22F0030252F8043B184742
:10330000FFFF0F0004000020E90800080812000871
:103310007C1C0008D41B0008A01100087C1C0008BD
:103320008C1D00083C0900088B090008A028000833
:103330009C0A000828000000882600087C1C000861
:103340007C1C00088C1D0008DC320008501C0008A2
:10335000D41D0008840A0008000100007C1C00083D
:103360008C1D00083C09000829090008A028000855
:10337000FC1B00088C1D00083C090008150900080A
:10338000A0280008D82A00089C0A000810000000A5
:10339000301C0008840A0008C400000088260008C9
:1033A0007C1C00088C1D00083C0900083C09000832
:1033B000A02800089C0A00081000000088260008C9
:1033C000840A0008D8FFFFFF7C1C00088C1D000841
:1033D0003C090008F8030008A02800089C0A00081F
:1033E000200000007C1C000888260008B01D000892
:1033F0005028000810100008840A0008A0FFFFFFF2
:103400007C1C00088C1D00083C090008FC08000812
:10341000A02800086C2900089C0A00083C00000055
:103420007C1C00088C1D0008DC3A000854290008A8
:103430009C0A000868FFFFFF7C1C00087C1C000839
:103440008C1D0008DC320008501C0008D41D000848
:10345000840A000848FFFFFF301C0008901B00088A
:103460007C1100087C1C00088C1D00087C1C0008D6
:10347000540F0008D41D0008DC320008501C00085E
:10348000D41D0008FC080008E90800083C090008F1
:10349000000002087C1C00083C0900080400002011
:1034A000D41D00087C1C0008D41B00088C1D0008DB
:1034B000C43B0008782800089C0A0008100000009F
:1034C000901B0008301C0008FC080008B41B000812
:1034D000C4320008D41D0008B41B00083C090008D1
:1034E00008000000502800087C1C00088C1D000803
:1034F000540F0008D41D0008882600088C1D000801
:10350000080F0008D41D0008C4300008F8030008A4
:1035100017414444454420574F5244532046524F8C
:103520004D204144445220FFB41B0008F82C0008F1
:10353000901B0008882600088C1D0008840A0008DB
:1035400054FFFFFFE90800087C1C00085028000811
:10355000D41B00087C1C00088C1D000840260008B5
:103560009C0A000838000000C4300008F803000876
:10357000174552415345442042414420464C415353
:103580004820504147452020F82C0008301C0008F6
:10359000901B0008301C0008FC0800088826000862
:1035A0007C1C00087C1C0008B41B0008501C000890
:1035B000782800089C0A00080C000000840A000813
:1035C00098FFFFFFC4300008F80300080E464C4186
:1035D00053482050414745204F4B20FF7828000892
:1035E000F82C0008901B0008301C0008FC0800089C
:1035F0008C464C4153485F464F524745D4FFFFFF2E
:10360000B4310008E9080008F80300081754414BDA
:1036100045532041424F55542036205345434F4E89
:103620004453212028310008FC380008DC38000809
:103630005C0700082A020100103C0240DC38000848
:103640005C07000832020100103C0240DC38000830
:103650005C0700083A020100103C0240DC38000818
:103660005C07000842020100103C0240DC38000800
:103670005C0700084A020100103C0240DC380008E8
:103680005C07000852020100103C0240DC380008D0
:103690005C0700085A020100103C0240DC380008B8
:1036A0001C390008FC300008F03A000864110008DA
:1036B000542900089C0A000810000000643E00081D
:1036C000840A00081C0000003C0900088C44000823
:1036D000DC3A0008081200087C110008D41D00081C
:1036E0005C07000800000208040000203C090008F4
:1036F000111111117C1C0008CC320008D41D0008E7
:10370000D4320008D41D000888340008C4300008F2
:10371000FC390008CC390008FC08000821370008F3
:1037200057F8040B57F8041B064A50F8044B42F8AC
:10373000044B8842F9D155F8042B22F0030252F8C9
:10374000043B1847D4FE00203C090008D4FE0020AA
:10375000A40E0008FC080008E90800083C0900085D
:10376000303900083C090008843800081C3700087C
:1037700048370008FC080008E9080008283100085C
:10378000FC380008DC3800085C0700080102000073
:10379000103C0240C43200088C1D0008D41B0008F5
:1037A0003C09000810000000C4320008641D000835
:1037B000BC0F0008D41B0008DC3A00087C1C000881
:1037C0008C1D0008C43200088C1D0008D41D0008A0
:1037D000DC38000810270008C4320008641D000807
:1037E000882600087C1C0008B41B00087828000804
:1037F0009C0A00080C000000840A0008C0FFFFFFBC
:10380000901B0008301C0008301C00083C09000810
:10381000000000208C1D0008B41B0008D41D000807
:10382000DC380008C43200088C1D0008B41B0008F6
:1038300088260008D41D0008DC380008CC320008B7
:103840008C1D0008B41B00089C01000850280008CB
:10385000D41D0008DC380008D43200088C1D000894
:10386000901B00083C0900080C00000050280008CC
:10387000D41D0008DC3800081C390008FC300008A2
:10388000FC080008E9080008043600082831000890
:10389000FC380008DC3800085C0700080102000062
:1038A000103C02405C0700080000020804000020F1
:1038B0003C090008100000002C0F0008641D0008DF
:1038C000840E000878370008840E000804360008CB
:1038D0001C390008FC300008FC080008E13800082A
:1038E000054908680004FCD255F8042B22F00302B5
:1038F00052F8043B184700000C3C0240E90800085D
:103900005C07000823016745043C02405C0700088F
:10391000AB89EFCD043C0240FC080008E908000830
:103920005C07000800000080103C0240FC08000812
:1039300084504F46C6FFFFFFF0350008E908000835
:103940005C07000800000000CCBB0120FC08000858
:1039500083504FCE30390008E90800085C070008A2
:10396000610E0008CCBB0120FC08000881D0FFFFDD
:103970005039000829090008CCBB01208545484F73
:1039800046C6FFFF6C390008E9080008D026000889
:103990003C090008D0BB0120D41D0008FC08000829
:1039A0008445484FCEFFFFFF7C390008E908000836
:1039B000E02600083C090008D0BB0120D41D000807
:1039C000FC080008832E44D3A0390008E908000849
:1039D000A8090008180D0008142D0008340D00086F
:1039E0003C090008C844000858170008942F000834
:1039F000FC080008832E56D3C4390008E9080008E3
:103A0000D0090008180D000810270008DC2700085E
:103A1000142D0008340D00083C090008BD440008BE
:103A200058170008942F0008FC0800088444554DDE
:103A3000D0FFFFFFF4390008E9080008FC1B00086C
:103A400050120008180D0008E0290008D0260008D0
:103A5000140B0008C43000087C1C00083C09000856
:103A60000A0000005C2C000810270008D02600087F
:103A7000140B00087C1C00088C1D00083C09000881
:103A80000E0000005C2C000888260008DC0A0008F4
:103A9000E4FFFFFF683000089C0A000808000000EF
:103AA000701B0008DC0A0008ACFFFFFF301C000898
:103AB000C4300008340D0008FC0800088556424157
:103AC00053C5FFFF2C3A0008290900089CBA0120C1
:103AD0008544424153C5FFFFBC3A0008290900084C
:103AE000100000208552424153C5FFFFD03A000824
:103AF000290900080000002083434CD3E43A000861
:103B0000E9080008F8030008041B5B324AFFFFFFC6
:103B1000F8030008041B5B3B48FFFFFFC4300008AC
:103B2000FC080008C1A8FFFFF83A0008E9080008EF
:103B30003C09000829000000580B00086C29000807
:103B40009C0A000834000000C43000083C0900084A
:103B500010000000E82F0008200400083C090008BD
:103B600071FA0020B01D00089C0A00081000000037
:103B7000840A0008BCFFFFFFFC0800083C0900089D
:103B8000DA44000858170008942F0008FC080008C1
:103B9000C1DCFFFF243B0008E9080008D02600082C
:103BA000A80F0008880F00088C1D00085028000886
:103BB000F81D0008FC08000886535953434CCBFFFE
:103BC000903B0008C93B00080549086847F8040D08
:103BD00055F8042B22F0030252F8043B184700006A
:103BE000000000208553544354D2FFFFB83B000827
:103BF0002909000898BA01208544454C41D9FFFFA6
:103C0000E43B0008093C000857F8041B57F8040B74
:103C10000C4CC043401C20600B4A11600B4A1160E1
:103C2000002806D00A4A106807211160216800297F
:103C3000FCD1106055F8042B22F0030252F8043B2B
:103C40001847000098BA012014E000E018E000E0F6
:103C500010E000E0824DD3FFF83B0008E9080008BF
:103C60003C090008EFCC0100043C0008FC080008F7
:103C700087574F52444341D4543C0008E908000898
:103C8000BC0F0008D41B0008D0260008C410000890
:103C90003C0900080D000000C4100008BC0F00081B
:103CA0003C0900080D000000C81300087C1C000837
:103CB000B01D00083C0900080A000000D81A0008DE
:103CC000F81D00087C1C000840260008D80F0008DA
:103CD0003C0900088400000050280008B41B0008BC
:103CE000F81D00083C0900080D000000C410000881
:103CF0003C0900088A000000C410000840100008B9
:103D0000641100089C100008901B00083C09000882
:103D1000C8BB0120D41D0008FC08000885574F527D
:103D200044D3FFFF703C0008E908000800270008A2
:103D3000B42E000864110008682E0008D026000880
:103D4000FC1B000840260008B01D00083C090008C4
:103D50000D000000A02800086C2900089C0A00083B
:103D60001C000000301C00087C1C00080812000821
:103D70007C110008FC1B000878280008780F000858
:103D80008C1D0008502800083C0900084A0000006B
:103D9000542900089C0A000810000000C4300008E4
:103DA00000270008B42E00087C1C00081C0F000827
:103DB0008C1D0008E42800089C0A00080C00000084
:103DC000840A0008540000007C1C0008082F00082A
:103DD000F0260008B42E00087C1C000840260008CD
:103DE000B01D00083C0900080D000000A0280008D4
:103DF0009C0A0008080000000C02000808120008D5
:103E00007C1100088C1D00087C1C00086C2900082F
:103E10009C0A000828FFFFFF301C0008C43000087F
:103E2000FC080008874D59574F5244D31C3D0008E9
:103E3000E90800085C07000800000208C4BB012074
:103E4000283D00085C07000800000000C4BB0120FA
:103E5000FC08000889464953485F4F4E4CD9FFFF84
:103E6000243E0008693E000809490A4C21600A4CBA
:103E700021600A490A4C21600A4C21600A490B4C16
:103E8000216055F8042B22F0030252F8043B184736
:103E90008C440008C8BB0120080000209CBA012007
:103EA000B8BB01200C00002010000020BCBB01208A
:103EB00084464953C8FFFFFF543E0008E908000844
:103EC00088340008C4060008FC080008990D0A465A
:103ED000495348205265666572656E6365204D6F73
:103EE00064656C3A0D8AFFFFB03E0008894750496F
:103EF0004F432D4F44D2FFFFCC3E00082909000854
:103F000014080240894750494F432D4944D2FFFFCE
:103F1000EC3E000829090008100802408B47504970
:103F20004F432D4D4F4445D2043F00082909000856
:103F300000080240894750494F422D4F44D2FFFFAD
:103F40001C3F000829090008140402408947504911
:103F50004F422D4944D2FFFF343F00082909000891
:103F6000100402408B4750494F422D4D4F4445D2DB
:103F70004C3F0008290900080004024086534545CB
:103F80004249D4FF643F0008E9080008D41B000838
:103F9000E0260008501C0008142C0008901B0008A4
:103FA0008C1D0008B02A00089C0A000810000000C0
:103FB000F8030008024F4EFFFC080008F803000851
:103FC000034F4646FC080008865345544249D4FF37
:103FD0007C3F0008D93F000857F8042B57F8041B12
:103FE00010684FF001038B401843106055F8042B04
:103FF00022F0030252F8043B1847000086434C525B
:104000004249D4FFC83F00080D40000857F8042B70
:1040100057F8041B10684FF001038B4020EA03009F
:10402000106055F8042B22F0030252F8043B1847A5
:1040300087414E44424954D3FC3F000841400008A8
:1040400057F8042B57F8041B08681040086055F80F
:10405000042B22F0030252F8043B184787534554BF
:10406000424954D3304000086D40000857F8042BF3
:1040700057F8041B08681043086055F8042B22F019
:10408000030252F8043B184787434C52424954D329
:104090005C4000089940000857F8042B57F8041BAF
:1040A00008689043086055F8042B22F0030252F888
:1040B000043B1847834753B088400008E9080008CC
:1040C0009C0A00081C0000003C09000800000000D9
:1040D0003C09000814080240D43F0008FC0800080E
:1040E0003C090008000000003C09000814080240D8
:1040F00008400008FC080008834753B1B44000089A
:10410000E90800089C0A00081C0000003C0900089F
:10411000010000003C09000814080240D43F0008D8
:10412000FC0800083C090008010000003C090008E8
:104130001408024008400008FC080008834753B2F6
:10414000F8400008E90800089C0A00081C0000006C
:104150003C090008020000003C0900081408024065
:10416000D43F0008FC0800083C09000802000000D9
:104170003C0900081408024008400008FC08000838
:10418000835357B43C410008E90800089C0A000822
:104190001C0000003C090008090000003C09000860
:1041A00014080240D43F0008FC0800083C0900083D
:1041B000090000003C0900081408024008400008FB
:1041C000FC080008835357B380410008E908000841
:1041D0009C0A00081C0000003C09000808000000C0
:1041E0003C09000814080240D43F0008FC080008FD
:1041F0003C090008080000003C09000814080240BF
:1042000008400008FC080008835357B2C441000866
:10421000E90800089C0A00081C0000003C0900088E
:10422000070000003C09000814080240D43F0008C1
:10423000FC0800083C090008070000003C090008D1
:104240001408024008400008FC080008835357B1D6
:1042500008420008E90800089C0A00081C00000049
:104260003C090008060000003C0900081408024050
:10427000D43F0008FC0800083C09000806000000C4
:104280003C0900081408024008400008FC08000827
:104290008643532D4441C3FF4C420008E9080008FF
:1042A0009C0A0008440000003C0900081404024075
:1042B0003C09000800400000684000083C09000874
:1042C000140402403C09000800200000944000084B
:1042D0003C090008140402403C09000800100000DA
:1042E00068400008FC0800083C090008140402406B
:1042F0003C0900080020000068400008FC08000895
:104300008543532D42D4FFFF90420008E90800087E
:104310009C0A0008440000003C0900081404024004
:104320003C09000800400000944000083C090008D7
:10433000140402403C090008002000006840000806
:104340003C090008140402403C0900080010000069
:1043500068400008FC0800083C09000814040240FA
:104360003C0900080040000068400008FC08000804
:104370008643532D4144C3FF00430008E908000869
:104380009C0A0008440000003C0900081404024094
:104390003C09000800400000684000083C09000893
:1043A000140402403C090008002000006840000896
:1043B0003C090008140402403C09000800100000F9
:1043C00094400008FC0800083C090008140402405E
:1043D0003C0900080010000068400008FC080008C4
:1043E00087444143574F52C47043000829090008CD
:1043F000D0FE0020853F545255C5FFFFE043000822
:104400000544000857F8040B00280AD04040401E1D
:1044100047F8040D55F8042B22F0030252F8043B30
:10442000184747F8040D55F8042B22F0030252F800
:10443000043B18478544414357D4FFFFF443000829
:10444000E9080008402D00089C4200083C090008CB
:10445000770000003C0900080C3C0040F81D0008F3
:104460003C090008770000003C0900080C3C0040B3
:10447000F81D00083C090008770000003C0900080E
:104480000C3C0040F81D0008FC0800088F0D0A5085
:1044900053544154204750494F3A0D8A3444000840
:1044A000A5440008009801B0874600000352554E0D
:1044B0002000203F2000203C43523E200056415225
:1044C0002043454C4C53200044494354494F4E41EE
:1044D0005259204259544553200020434F4D4D45D9
:1044E0004E54204C494E452043414E4E4F5420429D
:1044F0004520454D505459200D0A15002043414E8A
:104500005420464F52474554204649534820494E6F
:1045100020464C415348200D0A150020494E2046A4
:104520004C415348202D2053454520464C4153488B
:104530005F464F52474554200D0A15002044494319
:1045400054494F4E4152592046554C4C202D205332
:104550004545202E4453200D0A15002052414D2080
:104560005641522053504143452046554C4C202D36
:1045700020534545202E5653200D0A15002049533F
:1045800020414C524541445920444546494E4544FA
:10459000200D0A1500203F204E4F5420574F524403
:1045A000200D0A1500203F204E4F5420574F5244F3
:1045B000204F52204E554D424552200D0A150020E5
:1045C000434155534544204120535441434B2045DA
:1045D00052524F52200D0A150020535441434B2094
:1045E0004552524F52205748494C45204558454363
:1045F0005554494E47204F5220434F4D50494C4946
:104600004E47200D0A1500204552524F52202D20B2
:104610004E4F5420434F4D50494C494E47200D0AB0
:104620001500204552524F52202D204558454355E4
:10463000544544205748494C4520434F4D50494C20
:10464000494E47200D0A1500E90800085C070008DC
:1046500005070000003C0240FC0800086146000815
:104660004CF20004C2F201044FF000034FF0800C42
:1046700053F8042B44F8042BBCF1010CF8D155F885
:10468000042B22F0030252F8043B1847E908000803
:104690005C4600085C07000800C0012008ED00E04F
:1046A000740700080038024090070008010000006D
:1046B000D0070008003802405C0700080000000036
:1046C000083802407407000800380240B0070008AC
:1046D000FFFFF6FED0070008003802405C07000824
:1046E00010300024043802407407000800380240EB
:1046F000B0070008FFFFFBFFD007000800380240AA
:104700005C070008000000000C3802407407000835
:10471000003802409007000800000100D0070008A0
:10472000003802404C0800087407000800380240B6
:10473000B0070008000002006408000874070008C1
:10474000403802409007000800000010D007000821
:1047500040380240740700080070004090070008CD
:1047600000400000D0070008007000403C0900082D
:10477000083802403C0900080000000068400008BA
:104780003C090008083802403C090008008000008D
:10479000684000083C090008083802403C0900084D
:1047A00000140000684000085C0700080A3B400550
:1047B00004380240740700080038024090070008DF
:1047C00000000001D0070008003802404C08000833
:1047D0007407000800380240B0070008000000021B
:1047E00064080008484600087407000808380240BA
:1047F000B0070008FCFFFFFFD007000808380240A0
:104800007407000808380240900700080200000002
:10481000D0070008083802404C0800087407000858
:1048200008380240B00700080C0000003C090008EE
:1048300008000000A0280008640800085C070008C1
:1048400000300050843802407407000800380240ED
:104850009007000800000004D0070008003802405C
:104860004C0800087407000800380240B007000830
:1048700000000008640800085C0700088089080739
:10488000000000203C090008303802403C090008C4
:1048900087000000684000083C09000840380240DA
:1048A0003C09000800000400684000085C0700089C
:1048B00000770000240802401C080008000802409D
:1048C0000300F0000100A0005C0700080C200000BD
:1048D0000C4800405C0700080700000010E000E002
:1048E0003C090008303802403C0900080200000082
:1048F000684000083C090008403802403C090008B4
:1049000000800410684000083C09000800040240D0
:104910003C090008850A0055684000083C09000869
:10492000200402403C09000800606600684000085E
:104930003C090008003C00403C0900082503000039
:10494000684000083C090008003C00403C090008A1
:1049500040000000684000083C09000808040240CC
:104960003C090008C00F0000684000083C0900082E
:104970000C0802403C090008800000006840000864
:104980003C090008140402403C09000803700000C0
:10499000684000083C090008000802403C09000883
:1049A00015540500684000083C090008080802404A
:1049B0003C0900080000F000684000083C090008BD
:1049C0000C0802403C090008000050006840000844
:1049D0003C090008140802403C090008C00300001C
:1049E00068400008FC080008BFF34F8F05480168C5
:1049F00011F4E0610448014302480160BFF34F8FA6
:104A0000FEE700000CED00E00400FA0572B6704706
:104A100062B6704780B5FFF7E7FF01BDFCF798B9B4
:104A2000FFF7FEBFFFF7FEBFFFF7FEBFFFF7FEBFBA
:104A3000FFF7FEBFFFF7FEBFFFF7FEBFFCF7C6B9EB
:104A4000FFF7FEBFFFF7FEBFFFF7FEBFFFF7FEBF9A
:104A5000FFF7FEBFFFF7FEBFFFF7FEBFFFF7FEBF8A
:104A6000FFF7FEBFFFF7FEBFFFF7FEBFFFF7FEBF7A
:104A7000FFF7FEBFFFF7FEBFFFF7FEBFFFF7FEBF6A
:104A8000FFF7FEBFFFF7FEBFFFF7FEBFFFF7FEBF5A
:104A9000FFF7FEBFFFF7FEBFFFF7FEBFFFF7FEBF4A
:104AA000FFF7FEBFFFF7FEBFFFF7FEBFFFF7FEBF3A
:104AB000FFF7FEBFFFF7FEBFFFF7FEBFFFF7FEBF2A
:104AC000FFF7FEBFFFF7FEBFFFF7FEBFFFF7FEBF1A
:104AD000FFF7FEBFFFF7FEBFFFF7FEBFFFF7FEBF0A
:104AE000FFF7FEBFFFF7FEBFFFF7FEBFFFF7FEBFFA
:104AF000FFF7FEBFFFF7FEBFFFF7FEBFFFF7FEBFEA
:104B0000FFF7FEBFFFF7FEBFFFF7FEBFFFF7FEBFD9
:104B1000FFF7FEBFFFF7FEBFFFF7FEBFFFF7FEBFC9
:104B2000FFF7FEBFFFF7FEBFFFF7FEBFFFF7FEBFB9
:104B3000FFF7FEBFFFF7FEBFFFF7FEBFFFF7FEBFA9
:104B4000FFF7FEBFFFF7FEBFFFF7FEBFFFF7FEBF99
:104B5000FFF7FEBFFFF7FEBFFFF7FEBFFFF7FEBF89
:104B6000FFF7FEBFFFF7FEBFFFF7FEBFFFF7FEBF79
:104B7000FFF7FEBFFFF7FEBFFFF7FEBFFFF7FEBF69
:084B8000FFF7FEBFFFF7FEBFC7
:0400000500000000F7
:00000001FF
