:020000040800F2
:1000000000000220C1430008C543000895430008D2
:10001000C9430008CD430008D14300080000000098
:10002000000000000000000000000000D5430008B0
:10003000D943000800000000DD430008E143000848
:10004000E5430008E9430008ED430008F1430008D8
:10005000F5430008F9430008FD4300080144000887
:1000600005440008094400080D4400081144000834
:1000700015440008194400081D44000821440008E4
:1000800025440008294400082D4400083144000894
:1000900035440008394400083D4400084144000844
:1000A00045440008494400084D44000851440008F4
:1000B00055440008594400085D44000861440008A4
:1000C00065440008694400086D4400087144000854
:1000D00075440008794400087D4400088144000804
:1000E00085440008894400088D44000891440008B4
:1000F00095440008994400089D440008A144000864
:10010000A5440008A9440008AD440008B144000813
:10011000B5440008B9440008BD440008C1440008C3
:10012000C5440008C9440008CD440008D144000873
:10013000D5440008D9440008DD440008E144000823
:10014000E5440008E9440008ED440008F1440008D3
:10015000F5440008F9440008FD4400080145000882
:1001600005450008094500080D450008114500082F
:1001700015450008194500081D45000821450008DF
:100180002545000829450008DD0800083009000859
:100190000700000034300008F00800081D090008BE
:1001A00008000000DD0800089C0100083430000849
:1001B0003C2F00089C01000834300008641C000833
:1001C0006C0F0008F81D0008BC2800083C27000838
:1001D000381C0008641E000830090008FCFFFFFFFF
:1001E0005C0F0008D01D000830090008FFFFFFFF6A
:1001F0006C0F0008D01D0008F0080008DD0800089A
:10020000500700080000000008010010F008000876
:10021000DD08000850070008000000000C01001075
:10022000F0080008DD080008EC0C0008240F0008A6
:10023000401E0008DC190008080D0008F00800083E
:10024000DD080008240F0008F81D0008641C0008E1
:100250005C2700080C290008900A0008180000001C
:10026000300900086200000034300008181C000843
:10027000F0080008300900080A0000000C290008F6
:10028000900A000814000000300900086400000013
:1002900034300008F0080008300900086800000049
:1002A00034300008F0080008DD08000810260008B7
:1002B0003C2700087425000840020008F0080008E8
:1002C000DD0800083C2700083C27000874250008CA
:1002D00040020008F0080008DD080008EC0C0008E7
:1002E000641C0008240F0008401E000830090008A4
:1002F0000A0000000C290008900A00081000000005
:10030000A8020008780A000808000000C0020008DF
:100310003C2F0008080D0008F00800081D0900081F
:10032000140100101D090008180100101D09000823
:100330003C0100101D09000844010010DD08000800
:1003400030090008D23F000844170008E02F0008D9
:1003500060180008DD080008100F0008D01D000814
:10036000F0080008DD08000824100008A00F0008AD
:10037000401E00087C27000854030008F00800080D
:10038000DD0800084C0F0008F81D0008D8290008F7
:10039000300900088F40000898120008F008000893
:1003A000DD0800084C0F0008F81D0008300900089F
:1003B000A840000898120008F0080008DD080008AE
:1003C000E42800083009000863400008981200087B
:1003D000F0080008DD080008141B00081C030008D2
:1003E000F81D0008381C00088029000830090008A2
:1003F0004B40000898120008F0080008DD080008CB
:10040000781B0008641C000820170008E02F000873
:1004100020170008BC280008F40F0008BC1B0008C7
:10042000F0080008DD0800088C0F000830090008FB
:100430005E000000D0150008500700080100000011
:1004400008010010F0080008DD080008AC260008CC
:10045000641C0008BC1B00081C1E0008240F0008B8
:10046000F81D0008C8120008900A00085800000093
:10047000381C0008240F0008F81D0008340C000880
:10048000181C0008C01A0008240F0008F81D0008F6
:10049000340C0008D425000864250008F81D000865
:1004A000AC260008900A0008100000004C27000845
:1004B00064250008D01D0008781B0008780A000891
:1004C0008CFFFFFF781B0008F0080008DD0800081B
:1004D000DC0E0008B0130008A00F00084811000847
:1004E000EC090008F0080008DD080008781B000887
:1004F000641C0008F4260008BC1B0008F81D000856
:1005000064030008F0080008DD080008BC1B0008B0
:100510003C2700089C1B00085C0C0008781B0008A6
:10052000381C0008BC1B00085C0C0008781B000885
:10053000F0080008DD080008141B00082C03000860
:10054000401E0008F0080008DD080008141B000821
:100550002C030008F81D0008E428000830090008F2
:100560004B40000898120008F0080008DD08000859
:10057000CC040008900A00083C0000004C0F000862
:10058000F81D000850290008900A00081400000017
:100590008411000864030008780A00080C000000B9
:1005A00084110008880E0008D4030008780A0008A7
:1005B000C0FFFFFFA00F00082814000864250008F2
:1005C000F81D0008AC260008900A00081000000082
:1005D000241F0008780A00080C000000181C0008FE
:1005E000541F0008D4030008780A000884FFFFFFA6
:1005F000DD080008C81E0008B40C0008D00C000874
:10060000240400086C0500084C0F0008F81D0008C1
:10061000D8290008900A00083800000030090008B6
:1006200034010010F81D0008900A000824000000A2
:100630003009000834010010F81D000844170008B4
:10064000E02F0008240F0008F81D0008802D000886
:100650003009000810000000343000081031000894
:10066000780A000898FFFFFFDD080008A00F0008C7
:10067000E428000880100008F0080008DD080008E1
:10068000500700080000000028010010F0080008D2
:100690001D09000828010010DD080008042A0008D0
:1006A000900A0008080000008C2A0008F0080008E2
:1006B000DD080008042A0008900A0008080000006D
:1006C00034250008F0080008DD0800081031000893
:1006D00030090008B00D000844170008E02F00089A
:1006E00030090008350E000844170008E02F000804
:1006F00030090008420E000844170008E02F0008E7
:1007000010310008F0080008DD080008B0080008F3
:10071000D4340008F0080008DD080008381C000880
:10072000E41B0008BC280008300900087F00000016
:10073000E41B00081C1E000850290008900A00084D
:10074000E0FFFFFF381C0008181C0008F008000834
:100750005507000802CD04CD116055F8042B22F096
:10076000030252F8043B18476D07000855F8040BC4
:10077000006847F8040D55F8042B22F0030252F8E4
:10078000043B18478907000855F8042B57F8040B59
:10079000104347F8040D55F8042B22F0030252F8D9
:1007A000043B1847A907000855F8042B57F8040B19
:1007B000104047F8040D55F8042B22F0030252F8BC
:1007C000043B1847C907000855F8043B57F8040BC9
:1007D000186055F8042B22F0030252F8043B184726
:1007E000E507000857F8043B57F8041B57F8040BBB
:1007F0001A6822EA010200EA010042EA00021A60D5
:1008000055F8042B22F0030252F8043B184700006D
:100810001508000855F8043B55F8044B55F804CB6F
:100820001A6822EA04020CEA040C42EA0C021A607A
:1008300055F8042B22F0030252F8043B184700003D
:100840004508000846F8045D55F8042B22F0030221
:1008500052F8043B184700005D08000857F8040BE5
:1008600000280CBF3568361D55F8042B22F0030212
:1008700052F8043B184700000A0000000000000086
:100880000000000000000000680500105803001080
:1008900070FA00200400001010000020000000008A
:1008A00000000000383F0008440E0008000000006F
:1008B000B5080008074808490E2203680B60001DB0
:1008C000091D521EF9D155F8042B22F0030252F8EB
:1008D000043B1847780800080401001046F8045D3E
:1008E000154655F8042B22F0030252F8043B184732
:1008F000F508000856F8045B55F8042B22F00302B3
:1009000052F8043B1847000001CA47F8040D55F897
:10091000042B22F0030252F8043B184701CA47F89F
:10092000040D55F8042B22F0030252F8043B18473B
:100930003509000855F8040B47F8040D55F8042B49
:1009400022F0030252F8043B184700005109000846
:1009500055F8040B47F8040D55F8042B22F0030258
:1009600052F8043B184700006D09000857F8045B73
:1009700055F8042B22F0030252F8043B18470000FC
:1009800046F8045D4568083047F8040D55F8042B17
:1009900022F0030252F8043B18470000A1090008A6
:1009A000064807490968401A47F8040D55F8042B12
:1009B00022F0030252F8043B1847000010FA00200E
:1009C00024010010C9090008064807490968401AAF
:1009D00047F8040D55F8042B22F0030252F8043BAB
:1009E000184700000401001020010010F109000860
:1009F00057F8043B57F8042B93465A461878844618
:100A0000117848403F2420401DD1521C5B1C1878AF
:100A100011788842F9D08024001B884214D15B1CD5
:100A20001878FF28FBD0083347F8043D01206246C0
:100A300047F8042D47F8040D55F8042B22F0030263
:100A400052F8043B18475B1C187880242042FAD0E7
:100A50001B1D084803401B68002B00D0CDE7002079
:100A600047F8040D55F8042B22F0030252F8043B1A
:100A700018470000FCFFFFFF7D0A00082B68ED18F7
:100A800055F8042B22F0030252F8043B18470000EB
:100A9000950A000857F8040B00283FF4EFAF2D1D0E
:100AA00055F8042B22F0030252F8043B18470000CB
:100AB000B50A0008012374683268944204D0D21841
:100AC0003260A41A7FF4DAAF08362D1D55F8042BD6
:100AD00022F0030252F8043B18470000E10A000824
:100AE00057F8043BFFF7E7BFED0A000857F8040B7F
:100AF00057F8042B46F8042D46F8040D55F8042B3E
:100B000022F0030252F8043B18470000110B0008C2
:100B100057F8040B00787F21084047F8040D55F87A
:100B2000042B22F0030252F8043B1847310B000853
:100B300057F8041B0B4A92460B4B1C68121910788D
:100B4000521C884201D00028F9D15446121B1A7059
:100B500047F8040D55F8042B22F0030252F8043B29
:100B60001847000070FA002008010010710B0008FF
:100B700057F8041B57F8042B10784840107055F8AC
:100B8000042B22F0030252F8043B1847910B000893
:100B90000A21884205D157F8040B0D2047F8040DAF
:100BA00002E00D21884203D100F07CF900F082F9C7
:100BB00055F8042B22F0030252F8043B18470000BA
:100BC000C50B00083868017801290FD0022914D01C
:100BD00001440A78622A1AD0252A18D0642A18D02B
:100BE000232A16D0682A16D0242A14D055F8042BAC
:100BF00022F0030252F8043B184782782E2AE7D1EC
:100C000055F8042B22F0030252F8043B1847022443
:100C100002E00A2400E0102400220A70044A146052
:100C200055F8042B22F0030252F8043B1847000049
:100C300004010010390C000857F8040B57F8041B86
:100C4000A0FB012047F8042D47F8040D55F8042BAC
:100C500022F0030252F8043B18470000610C000820
:100C600057F8040B57F8043B57F8042B002812D010
:100C700093F0000F0FD10146B2FBF0F000FB112200
:100C800047F8042D47F8040D55F8042B22F0030211
:100C900052F8043B18474040401E024647F8042DD6
:100CA00047F8040D55F8042B22F0030252F8043BD8
:100CB00018470000B90C0008044A176855F8042BBF
:100CC00022F0030252F8043B184700001401001000
:100CD000D50C0008044A166855F8042B22F00302CC
:100CE00052F8043B1847000018010010F10C0008EE
:100CF000044A11688C4655F8042B22F0030252F87E
:100D0000043B1847040100100D0D0008044A614619
:100D1000116055F8042B22F0030252F8043B1847E7
:100D20000401001009490A480A4C0160001DA04254
:100D3000FBD3094F094E0FF2280546F8045D55F81C
:100D4000042B22F0030252F8043B18471111111131
:100D50000000002000020120680500105803001068
:100D6000B008000810410008BC2D00081031000830
:100D700030090008FB00000034300008300900088A
:100D8000F700000034300008103100085C1900083A
:100D900008CA9F4603B502490868401C086003BDA5
:100DA00000000010A90D000856F8045BBDE83F9C48
:100DB000464953482041524D2020313031302C31AA
:100DC000313030202D2045484F4E2F45484F464664
:100DD000202D31205472756520466C616720446572
:100DE0006275675372632053544D33324634303743
:100DF000564720444953434F20403136384D687A96
:100E000020524D2056347468204F454D20284329E8
:100E1000323031342D3230313820412D5445414D5E
:100E200020464F525448203A2041707220323920D7
:100E300032303138002061742031323A31343A3462
:100E400037001500206F6B2C20676F206669736870
:100E500020696E204241534520000000844E4F4FD0
:100E6000D0FFFFFF000000006D0E000855F8042BB6
:100E700022F0030252F8043B18470000874558450A
:100E8000435554C55C0E00088D0E000800F00AF8AA
:100E900000F010F857F8042B22F0030252F8043B3C
:100EA000184700007246024C2168090AFCD310471B
:100EB000004800407246024913240C70104700009D
:100EC000044800407246024911240C70104700008B
:100ED000044800408242CCFF7C0E00081D09000837
:100EE000200000008255D0FFD40E00081D09000824
:100EF000200100108546454E43C5FFFFE40E000863
:100F00001D0900082C0100108244D0FFF40E0008D7
:100F10001D0900082401001084424153C5FFFFFF52
:100F2000080F00081D0900080401001087435552EE
:100F300052454ED4180F00081D090008300100105A
:100F40008553544154C5FFFF2C0F00081D090008AC
:100F500010010010834F55D4400F00081D090008F0
:100F60000C0100108249CEFF540F00081D09000833
:100F700008010010835041C4640F00081D090008D7
:100F800010FA0020835449C2740F00081D0900089C
:100F900070FA002084484552C5FFFFFF840F000807
:100FA000DD080008100F0008F81D0008F008000810
:100FB00085414C4C4FD4FFFF940F0008DD0800081A
:100FC0009C090008E41B0008E4280008042A000823
:100FD000900A0008080000003C030008100F0008F9
:100FE000D01D0008F008000887414C49474E45C411
:100FF000B00F0008F90F000857F8040BC01C054992
:10100000084047F8040D55F8042B22F0030252F86B
:10101000043B1847FCFFFFFF85414C4947CEFFFFCB
:10102000E80F0008DD080008A00F00086C27000882
:10103000BC280008641C0008BC1B0008A00F0008A6
:10104000E80A000830090008FF000000F41A000850
:10105000641E0008B00A0008ECFFFFFF781B0008C0
:1010600030090008FCFFFFFF1C2B0008100F0008D0
:10107000401E0008F008000881ACFFFF18100008AF
:10108000DD0800089C090008042A0008900A0008EE
:10109000080000003C03000864030008F008000892
:1010A0008243ACFF78100008DD0800089C090008A6
:1010B000042A0008900A0008080000003C03000809
:1010C000A00F0008641E00084C2700085403000805
:1010D000F008000888564152414C4C4FD4FFFFFFA6
:1010E000A0100008DD080008C40900087C270008DB
:1010F00048280008E41B0008E4280008042A000827
:10110000900A00081800000030090008EF3F0008AE
:1011100044170008E02F000860180008EC0E0008D3
:10112000F81D0008381C00087C2700080C2800085F
:10113000EC0E0008D01D0008F0080008864C415451
:101140004553D4FFD4100008DD080008380F00080C
:10115000F81D0008F0080008834C46C13C11000847
:101160006511000857F8040B083847F8040D55F8C6
:10117000042B22F0030252F8043B1847834346C174
:10118000581100088911000857F8040B001F47F890
:10119000040D55F8042B22F0030252F8043B1847C3
:1011A000834E46C17C110008DD0800089C01000840
:1011B000E42800084C270008E4280008641C000804
:1011C0001C1E000830090008FF000000E428000889
:1011D000900A0008E0FFFFFF30090008FFFFFFFF53
:1011E00018070008F0080008835046C1A011000845
:1011F000DD0800084C27000818070008AC26000886
:10120000641C00081C1E000830090008FF000000D4
:10121000E4280008900A0008E4FFFFFF9C01000892
:10122000BC280008F0080008883F414C49474E455B
:10123000C4FFFFFFE8110008DD08000830090008BE
:10124000030000001C2B0008900A00083C0000006E
:10125000FC0300082E56414C5545204D5553542053
:101260004245204556454E204E4F54204F44442081
:10127000414E44204D554C5449504C45204F46203A
:10128000342120FF60180008F0080008863F45520E
:10129000524FD2FF28120008DD080008381C000851
:1012A000900A00081000000028150008780A0008BD
:1012B00008000000181C0008F00800088544494791
:1012C00049D4FFFF8C120008CD12000857F8042BF8
:1012D00057F8040B303813D4092802DDC01F0A2840
:1012E0000EDB90420CDA0246012047F8042D47F845
:1012F000040D55F8042B22F0030252F8043B184762
:10130000002047F8040D55F8042B22F0030252F890
:10131000043B184787454E434C4F53C5BC12000849
:101320002513000857F8040B39680022521E491E85
:10133000491C521C0B789842FAD047F8042D002B18
:101340000CD11846521C47F8042D47F8040D55F8E7
:10135000042B22F0030252F8043B1847491C521C8C
:101360000B78984201D0002BF8D11046401C47F86A
:10137000042D47F8040D55F8042B22F0030252F80F
:10138000043B1847C180FFFF1413000891130008A5
:1013900056F8045B55F8042B22F0030252F8043B84
:1013A0001847000084574F52C4FFFFFF8413000802
:1013B000DD0800088C0F00086C0F0008F81D0008FD
:1013C000BC280008381C0008201300086C0F000817
:1013D000D01D0008E41B0008E4280008BC1B00081E
:1013E0009C1B0008A00F0008641E0008BC28000811
:1013F000A00F0008AC2600089C1B0008241D000854
:101400003C270008A00F0008AC260008781B000845
:10141000BC280008641E0008F0080008864E554DE0
:101420004245D2FFA4130008DD080008EC0C0008B8
:10143000C00B00083C2700083C270008C01A000821
:10144000641C0008AC2600081C1E000830090008B7
:101450002D0000000C2900084C2700081C2B000858
:10146000641C0008BC1B0008BC28000830090008E8
:10147000FFFFFFFF64250008401E00084804000825
:10148000641C00081C1E00083C270008E428000813
:10149000900A00086C000000641C00081C1E000874
:1014A000300900082E000000E4280008900A000817
:1014B00044000000641C00081C1E000830090008DD
:1014C0002C0000000C290008900A000814000000FD
:1014D00030090008FFFFFFFF780A000898FFFFFFB0
:1014E000080D00084C2700083009000833400008A8
:1014F000981200083C270008780A000878FFFFFFD0
:10150000181C0008781B0008900A0008080000005A
:1015100034250008080D0008F008000885455252DF
:101520004FD2FFFF1C140008DD080008A00F0008C0
:1015300020170008E02F000844170008E02F0008DB
:10154000B42E00084C0F0008F81D0008900A00088F
:101550004000000090060008F81D0008900A0008EE
:101560003000000090060008F81D0008F011000887
:1015700060110008F81D0008380F0008401E000820
:1015800090060008F81D0008100F0008401E000813
:101590007C06000860180008C1A7FFFF1C150008A2
:1015A000DD080008CC040008D8290008300900082C
:1015B0002540000898120008181C0008541F000855
:1015C000F0080008864558504543D4FF9815000898
:1015D000DD08000810020008FC010008AC26000825
:1015E000E41B0008BC280008E41B0008AC26000827
:1015F000D82E0008E80A00087C3000088C0B000890
:10160000641C000830090008090000000C290008CB
:10161000900A00080C000000181C0008DC0E0008EE
:10162000641C00089C0100080C290008E41B000849
:10163000300900087F0000000C290008442B000836
:10164000900A000850000000181C0008641C0008E4
:10165000F41A0008882600080C290008641C0008F9
:10166000781B00085C270008E4280008BC28000854
:10167000BC1B0008900A0008100000008801000848
:10168000780A00086C000000A4010008780A00082D
:1016900060000000641C0008300900080D00000014
:1016A0000C290008900A00081C000000581B0008C4
:1016B000181C0008DC0E00083C270008780A000807
:1016C00008000000641C0008F41A0008641E0008EA
:1016D0004C2700086C0F0008D01D00083C270008AC
:1016E000F41A0008AC260008641E00083430000814
:1016F000B00A000804FFFFFFB42E0008AC26000863
:1017000044170008381C000888260008641E0008DA
:10171000F008000885434F554ED4FFFFC41500085C
:10172000DD080008641C0008AC260008381C00080E
:101730001C1E0008F008000884244C45CEFFFFFF63
:1017400014170008491700083A684040115C094323
:1017500001D0401CFAE747F8040D55F8042B22F09D
:10176000030252F8043B184786464F524745D4FFC0
:1017700038170008DD080008A0150008641C0008E0
:10178000300900080000020850290008300900084C
:10179000963F000898120008641C000830090008F1
:1017A000000010085029000830090008B33F000865
:1017B00098120008641C000860110008BC1B000897
:1017C00048110008F011000860110008641C0008AE
:1017D000F81D0008380F0008401E0008641C0008AF
:1017E000F4260008F81D000830090008090900085F
:1017F0000C290008900A00081400000030090008B5
:10180000FCFFFFFFEC0E0008D01D00089C1B000829
:101810000C290008900A0008A8FFFFFF781B0008A9
:10182000F81D0008380F0008401E0008A811000825
:10183000100F0008401E0008483A0008183A000837
:10184000F0080008834259C56817000851180008BD
:10185000FFF768BA8541424F52D4FFFF4418000891
:10186000DD080008B40C0008D00C000810020008C5
:1018700030090008483F000848110008EC0900083A
:10188000900A000810000000181C000884110008CD
:10189000880E00083009000838010010F81D000803
:1018A000900A00086C0000003009000814190008B4
:1018B00044170008E02F0008B4300008900A000820
:1018C000F8FFFFFF7C3000083009000843000000EB
:1018D0000C290008900A0008E0FFFFFF7C30000898
:1018E000300900084F0000000C290008900A000889
:1018F000C8FFFFFF7C300008300900080D00000021
:101900000C290008900A0008B0FFFFFF1031000802
:10191000F0050008204572726F722048616C7420D7
:101920002845484F4E2F45484F464629202D2054E4
:101930006F20434F6E74696E756520547970652011
:10194000434F207468656E20456E7465723A2000BE
:1019500084434F4CC4FFFFFF54180008DD08000803
:1019600008070008C8060008F0050008900D0A46A0
:101970004953482053797374656D3A0D8AFFFFFF10
:1019800050190008832E53C86C190008DD080008A0
:10199000300900081000000024020008F0080008C8
:1019A000832E53C484190008DD080008300900089C
:1019B0000A00000024020008F0080008832E53C229
:1019C000A0190008DD0800085C27000824020008B0
:1019D000F0080008822ED3FFBC190008DD080008BB
:1019E0001C030008F81D0008141B0008F42600085A
:1019F0000C290008D8290008900A00086800000097
:101A0000FC03000805544F533E20FFFF1C03000851
:101A1000F81D0008141B0008F4260008E80A000856
:101A2000F41A0008F81D0008240F0008F81D00082B
:101A3000300900080A0000000C290008900A00087C
:101A400010000000A8020008780A00080800000042
:101A5000C00200083C2F00087C270008DC0A0008B0
:101A6000C0FFFFFFF008000884324455D0FFFFFF9D
:101A7000D4190008791A000838687A6847F8042DE4
:101A800047F8040D55F8042B22F0030252F8043BEA
:101A900018470000842D4455D0FFFFFF681A000846
:101AA000DD080008641C0008900A00080800000017
:101AB000641C0008F008000883524FD4941A0008F0
:101AC000C51A000857F8042B57F8041B57F8040BE5
:101AD00047F8041D47F8042D47F8040D55F8042B6A
:101AE00022F0030252F8043B1847000081C9FFFFAF
:101AF000B81A0008F91A0008306847F8040D55F8BC
:101B0000042B22F0030252F8043B1847835350C0C1
:101B1000EC1A0008191B0008384647F8040D55F860
:101B2000042B22F0030252F8043B1847835250C0A2
:101B30000C1B0008391B0008304647F8040D55F807
:101B4000042B22F0030252F8043B1847854C454110
:101B500056C5FFFF2C1B00085D1B00083268726031
:101B600055F8042B22F0030252F8043B18470000FA
:101B70008252BEFF4C1B00087D1B000856F8040B68
:101B800047F8040D55F8042B22F0030252F8043BE9
:101B90001847000081D2FFFF701B0008A11B00083E
:101BA000306847F8040D55F8042B22F0030252F870
:101BB000043B1847823ED2FF941B0008C11B00085B
:101BC00057F8041B46F8041D55F8042B22F00302B5
:101BD00052F8043B18470000844F5645D2FFFFFFE0
:101BE000B41B0008E91B000857F8042B57F8040B36
:101BF00047F8040D47F8042D47F8040D55F8042B59
:101C000022F0030252F8043B184700008444524F6C
:101C1000D0FFFFFFD81B00081D1C00083F1D55F812
:101C2000042B22F0030252F8043B18478453574117
:101C3000D0FFFFFF0C1C00083D1C000857F8042BC8
:101C400057F8040B47F8042D47F8040D55F8042BFA
:101C500022F0030252F8043B18470000834455D099
:101C60002C1C0008691C0008386847F8040D55F85A
:101C7000042B22F0030252F8043B1847900D0A533C
:101C80007461636B2053747566663A0D8AFFFFFFBB
:101C90005C1C000887414E44424954D37C1C000818
:101CA000A51C000857F8042B57F8041B08681040BF
:101CB000086055F8042B22F0030252F8043B184741
:101CC00087534554424954D3941C0008D11C000842
:101CD00057F8042B57F8041B08681043086055F8A0
:101CE000042B22F0030252F8043B184787434C525E
:101CF000424954D3C01C0008FD1C000857F8042BAF
:101D000057F8041B08689043086055F8042B22F02C
:101D1000030252F8043B184785434D4F56C5FFFF59
:101D2000EC1C0008291D000857F8041B57F8042B69
:101D300057F8043B002907D018781070491E002975
:101D400002D0521C5B1CF7D155F8042B22F0030281
:101D500052F8043B184700008446494CCCFFFFFF73
:101D6000181D0008691D000857F8040B57F8041BDC
:101D700057F8042B002904D08B181070521C9A427B
:101D8000FBD155F8042B22F0030252F8043B18470C
:101D90008545524153C5FFFF581D0008DD08000866
:101DA0003C270008641D0008F008000886424C41EA
:101DB0004E4BD3FF901D0008DD080008DC0E000824
:101DC000641D0008F0080008822BA1FFAC1D00086C
:101DD000D51D000857F8041B57F8040B0A68801833
:101DE000086055F8042B22F0030252F8043B184710
:101DF00081C0FFFFC81D0008FD1D000857F8041B27
:101E0000086847F8040D55F8042B22F0030252F835
:101E1000043B18478243C0FFF01D0008211E000844
:101E200057F8041B087847F8040D55F8042B22F0E6
:101E3000030252F8043B184781A1FFFF141E00085B
:101E4000451E000857F8040B57F8041B016055F8AD
:101E5000042B22F0030252F8043B18478243A1FFEF
:101E6000381E0008691E000857F8040B57F8041BB9
:101E7000017055F8042B22F0030252F8043B184776
:101E80009F0D0A5265616420616E64205772697407
:101E900065204D656D6F727920576974683A0D8AB7
:101EA0005C1E000881DDFFFF801E0008DD080008C1
:101EB00050070008C000000010010010F0080008E2
:101EC000C1DBFFFFA41E0008DD0800085007000862
:101ED0000000000010010010F0080008C95B434F2B
:101EE0004D50494C45DDFFFFC01E0008DD080008CD
:101EF000CC040008D8290008300900084B4000082D
:101F000098120008181C00088411000880100008AE
:101F1000F0080008C8444C4954455241CCFFFFFF2B
:101F2000DC1E0008DD0800084C0F0008F81D000842
:101F3000900A000810000000381C0008541F000818
:101F4000541F0008F0080008C74C4954455241CCC2
:101F5000141F0008DD0800084C0F0008F81D0008D9
:101F6000900A000810000000E8040008300900088A
:101F700080100008F00800088223BEFF481F0008F8
:101F8000DD080008181C0008181C000834030008AD
:101F9000F81D00087C0F0008E41B0008E428000876
:101FA000F008000884484F4CC4FFFFFF781F00086A
:101FB000DD08000830090008FFFFFFFF34030008B8
:101FC000D01D000834030008F81D0008641E000836
:101FD000F008000884534947CEFFFFFFA41F000804
:101FE000DD080008C01A0008042A0008900A00084A
:101FF00010000000300900082D000000B01F00088C
:10200000F00800088223D3FFD41F0008DD08000871
:1020100038200008E41B0008E41B0008442B0008DB
:10202000D8290008900A0008E8FFFFFFF008000820
:1020300081A3FFFF04200008DD080008240F00082A
:10204000F81D000808050008C01A0008300900083B
:1020500009000000E41B000850290008900A00084D
:10206000100000003009000807000000BC2800082C
:102070003009000830000000BC280008B01F00082C
:10208000F0080008823CA3FF30200008DD080008AB
:102090005007000810FA002044010010F008000862
:1020A00085444F4553BEFFFF84200008DD0800082B
:1020B000781B000848110008F0110008641C000893
:1020C00084110008300900087F090008381C000846
:1020D000401E0008401E0008F0080008873C4255DA
:1020E000494C44D3A0200008DD080008282300083C
:1020F000F0080008C52B4C4F4FD0FFFFDC20000834
:10210000DD0800086C270008BC030008E80400088C
:10211000DC0A000868060008F0080008C44C4F4FAD
:10212000D0FFFFFFF4200008DD0800086C2700083E
:10213000BC030008E8040008B00A000868060008AC
:10214000F0080008C244CFFF1C210008DD08000889
:10215000E8040008E80A0008A00F00086C2700083F
:10216000F0080008C5454E4449C6FFFF4421000859
:10217000DD080008800300085C270008BC03000895
:10218000A00F0008E41B0008E4280008381C000821
:10219000401E0008F0080008C4544845CEFFFFFF69
:1021A00064210008DD08000870210008F00800081C
:1021B000C4454C53C5FFFFFF98210008DD08000807
:1021C0005C270008BC030008E8040008780A00083F
:1021D000A00F00083C27000880100008381C0008E9
:1021E0005C270008702100085C270008F008000840
:1021F000C249C6FFB0210008DD080008E804000855
:10220000900A0008A00F00083C2700088010000872
:102210005C270008F0080008C5554E5449CCFFFF64
:10222000F0210008DD0800084C270008BC03000866
:10223000E8040008900A000868060008F008000892
:10224000C541474149CEFFFF18220008DD080008BC
:102250004C270008BC030008E8040008780A0008BE
:1022600068060008F0080008C65245504541D4FFF2
:1022700040220008DD080008BC1B0008BC1B000849
:102280004C220008781B0008781B00085C27000817
:10229000E428000870210008F0080008C5574849E4
:1022A0004CC5FFFF68220008DD080008F82100087F
:1022B000D0260008F0080008C542454749CEFFFF78
:1022C0009C220008DD08000880030008A00F000819
:1022D0004C270008F0080008970D0A496E736964DE
:1022E0006520436F6C6F6E20574F5244533A0D8AEE
:1022F000B822000889494D4D4544494154C5FFFF66
:10230000D8220008DD08000848110008300900083C
:10231000400000006C0B0008F0080008864352459E
:102320004154C5FFF4220008DD0800089C0900089C
:10233000300900080F000000E4280008042A000803
:10234000900A0008080000003C030008CC040008C4
:10235000900A000824000000181C0008A8110008BA
:10236000542F0008300900080F40000844170008E7
:10237000E02F000860180008A00F0008641C000887
:1023800090060008401E0008641C00081C1E00087F
:10239000300900081F000000CC2A00085403000880
:1023A000641C000830090008800000006C0B000865
:1023B000A00F000830090008800000006C0B000826
:1023C0004C270008100F0008D01D00084811000815
:1023D00080100008380F0008401E0008E8040008BC
:1023E0001D090008A00F0008F4260008801000084E
:1023F000F008000888434F4E5354414ED4FFFFFF6E
:102400001C230008DD08000818240008F008000854
:1024100083434FCEF4230008DD080008282300087A
:1024200030090008FCFFFFFF100F0008D01D000856
:10243000801000087C060008F00800088856415209
:102440004941424CC5FFFFFF10240008DD08000889
:1024500060240008F0080008835641D23C2400089C
:10246000DD0800082823000830090008F8FFFFFFF6
:10247000100F0008D01D0008E80400080909000832
:102480004C270008E4100008801000087C060008B3
:10249000F0080008C1BBFFFF58240008DD08000851
:1024A00048050008E8040008F0080008C81E0008F5
:1024B0007C060008F0080008C1BAFFFF9424000859
:1024C000DD080008A00300083405000828230008E0
:1024D000AC1E000830090008F8FFFFFF100F0008CD
:1024E000D01D0008E8040008DD080008F008000816
:1024F000960D0A43524541544520574F52445320AC
:10250000576974683A0D8AFFB82400088444414230
:10251000D3FFFFFFF0240008DD080008641C00085A
:10252000B0060008F008000887444E45474154C5EE
:102530000C2500083925000857F8040B57F8042B20
:10254000C043D243521C47F8042D47F8040D55F8F8
:10255000042B22F0030252F8043B1847834450CC6A
:10256000282500081D0900084001001083442ED2D0
:102570005C250008DD080008BC1B0008381C0008AA
:10258000E41B0008182500088C2000080C20000817
:10259000E01F0008801F0008781B0008E41B0008EB
:1025A000E4280008002F0008E02F0008F0080008C9
:1025B0008244AEFF6C250008DD0800083C270008B7
:1025C000742500083C2F0008F00800088244ABFF87
:1025D000B0250008D925000857F8040B57F8041B4C
:1025E00057F8043B57F8042B5218584147F8042D6C
:1025F00047F8040D55F8042B22F0030252F8043B6F
:102600001847000084532D3EC4FFFFFFCC2500086F
:102610001526000857F8042B4040124300D5401EF1
:1026200047F8042D47F8040D55F8042B22F0030257
:1026300052F8043B184700008232AAFF0426000823
:102640004526000857F8040B400047F8040D55F8DC
:10265000042B22F0030252F8043B18478232AFFFEA
:10266000382600086926000857F8040B401047F880
:10267000040D55F8042B22F0030252F8043B1847CE
:102680008231ADFF5C2600088D26000857F8040B48
:10269000401E47F8040D55F8042B22F0030252F8AF
:1026A000043B18478231ABFF80260008B1260008A2
:1026B00057F8040B401C47F8040D55F8042B22F082
:1026C000030252F8043B18478232ABFFA4260008ED
:1026D000D526000857F8040B801C47F8040D55F860
:1026E000042B22F0030252F8043B18478234ABFF5C
:1026F000C8260008F926000857F8040B001D47F803
:10270000040D55F8042B22F0030252F8043B18473D
:102710008234ADFFEC2600081D27000857F8040B93
:10272000001F47F8040D55F8042B22F0030252F85D
:10273000043B184781B0FFFF102700081D0900085F
:102740000000000081B1FFFF342700081D090008C8
:102750000100000081B2FFFF442700081D090008A6
:102760000200000081B3FFFF542700081D09000884
:102770000300000081B4FFFF642700081D09000862
:1027800004000000824DAAFF74270008DD0800083D
:10279000741A0008902B0008BC1B0008B42A00081B
:1027A000381C0008B42A0008340C0008781B000804
:1027B000B0060008F0080008824DAFFF842700082B
:1027C000DD080008E41B0008BC1B0008BC1B000857
:1027D000182500089C1B0008B42A00085C0C00089F
:1027E000781B00089C1B0008902B00089806000826
:1027F000381C0008781B000898060008381C0008E0
:10280000F008000881AAFFFFB8270008DD080008CB
:102810008C270008181C0008F0080008842F4D4F72
:10282000C4FFFFFF04280008DD080008BC1B0008E7
:1028300010260008781B0008C0270008F0080008D0
:1028400081AFFFFF1C280008DD08000828280008C9
:10285000381C0008181C0008F0080008834D4FC4FD
:1028600040280008DD08000828280008181C000877
:10287000F0080008852A2F4D4FC4FFFF5C28000890
:10288000DD080008BC1B00088C270008781B000826
:10289000C0270008F0080008822AAFFF742800084B
:1028A000DD08000880280008381C0008181C0008F3
:1028B000F008000881ABFFFF98280008C128000835
:1028C00057F8040B57F8041B401847F8040D55F847
:1028D000042B22F0030252F8043B184781ADFFFF9E
:1028E000B4280008E928000857F8040B57F8041B1F
:1028F000081A47F8040D55F8042B22F0030252F889
:10290000043B184781BDFFFFDC280008112900089F
:10291000404057F8040B57F8041B401A09D04040B8
:1029200047F8040D55F8042B22F0030252F8043B3B
:102930001847013847F8040D55F8042B22F003021C
:1029400052F8043B1847000081BCFFFF042900082F
:10295000552900084040013857F8041B57F8042B4C
:10296000914200DC404047F8040D55F8042B22F05A
:10297000030252F8043B18478255BCFF482900085F
:10298000DD080008741A0008902B0008042A0008CB
:10299000900A000818000000181C0008042A00080B
:1029A000D8290008780A00080C000000E428000874
:1029B000042A0008F008000881BEFFFF78290008FB
:1029C000DD080008381C000850290008F00800083D
:1029D0008230BDFFB8290008DD290008404057F8C3
:1029E000041B002900D1401E47F8040D55F8042BA4
:1029F00022F0030252F8043B184700008230BCFF6B
:102A0000D0290008092A000857F8041B4040013863
:102A1000094300D4404047F8040D55F8042B22F038
:102A2000030252F8043B1847834249CEFC290008B0
:102A3000DD08000850070008020000000401001033
:102A4000F0080008834845D8282A0008DD08000857
:102A5000500700081000000004010010F0080008F2
:102A600087444543494D41CC442A0008DD0800080D
:102A7000500700080A00000004010010F0080008D8
:102A8000864E45474154C5FF602A0008912A000838
:102A900057F8040BC043401C47F8040D55F8042BAD
:102AA00022F0030252F8043B18470000834142D34E
:102AB000802A0008DD080008641C00089806000849
:102AC000F0080008834D49CEAC2A0008DD08000854
:102AD000741A0008C0290008900A000808000000C5
:102AE000381C0008181C0008F0080008834D41D865
:102AF000C42A0008DD080008741A000850290008DC
:102B0000900A000808000000381C0008181C000883
:102B1000F008000883414EC4EC2A0008212B00086D
:102B200057F8040B57F8041B084047F8040D55F8F4
:102B3000042B22F0030252F8043B1847824FD2FFC5
:102B4000142B0008492B000857F8040B57F8041BF6
:102B5000084347F8040D55F8042B22F0030252F8FD
:102B6000043B1847834E4FD43C2B0008712B0008C0
:102B700057F8040BC04347F8040D55F8042B22F016
:102B8000030252F8043B184783584FD2642B0008C5
:102B9000952B000857F8040B57F8041B484047F8DA
:102BA000040D55F8042B22F0030252F8043B184799
:102BB00084535854C8FFFFFF882B0008C12B00081E
:102BC00057F8040B00B247F8040D55F8042B22F017
:102BD000030252F8043B184784535854C2FFFFFFC6
:102BE000B02B0008E92B000857F8040B40B247F857
:102BF000040D55F8042B22F0030252F8043B184749
:102C000084524556D7FFFFFFD82B0008112C00082F
:102C100057F8040B00BA47F8040D55F8042B22F0BE
:102C2000030252F8043B1847834153D2002C00089A
:102C3000352C000857F8042B57F8040B104147F8BF
:102C4000040D55F8042B22F0030252F8043B1847F8
:102C5000834C53D2282C00085D2C000857F8042B15
:102C600057F8040BD04047F8040D55F8042B22F018
:102C7000030252F8043B1847834C53CC502C0008F5
:102C8000852C000857F8042B57F8040B904047F8A0
:102C9000040D55F8042B22F0030252F8043B1847A8
:102CA000822ED2FF782C0008DD080008BC1B00082B
:102CB00010260008781B000874250008F00800089A
:102CC000832E52D5A02C0008DD080008BC1B00088C
:102CD0003C2700088C2000080C200008801F0008FA
:102CE000641C0008781B0008381C0008E428000851
:102CF000002F0008E02F0008F00800088255AEFF02
:102D0000C02C0008DD0800083C270008B825000892
:102D1000F008000881BFFFFFFC2C0008DD08000858
:102D2000F81D0008342D0008F008000881AEFFFFF0
:102D3000142D0008DD08000810260008B82500083A
:102D4000F0080008822EC2FF2C2D0008DD080008C4
:102D50005C270008D8020008F0080008822EC8FF8F
:102D6000442D0008DD0800083009000810000000AC
:102D7000D8020008F0080008822EC4FF5C2D00086D
:102D8000DD080008300900080A000000D802000829
:102D9000F0080008910D0A4E554D424552205374DB
:102DA0007566663A0D8AFFFF782D00088A554152F4
:102DB00054335F494E49D4FF942D0008DD080008C4
:102DC0003009000800020120F81D0008D829000879
:102DD000900A00081C0000003009000804020120CD
:102DE000F81D0008BC1B0008780A0008100000004D
:102DF0003009000880250000BC1B000830090008CD
:102E000080DE8002781B000848280008300900088E
:102E100008480040401E0008F0080008864D59424E
:102E20004155C4FFAC2D0008DD080008500700081C
:102E30000000000000020120300900080402012007
:102E4000401E0008F00800088955415254335F4C79
:102E500053D2FFFF1C2E00085D2E0008054908789C
:102E600047F8040D55F8042B22F0030252F8043BF6
:102E700018470000004800408855415254335F52C3
:102E8000D8FFFFFF482E00081D0900080448004035
:102E90008855415254335F54D8FFFFFF782E000805
:102EA0001D0900080448004084584F46C6FFFFFF34
:102EB000902E0008B92E0008FDF7F4FFFDF7FAFF89
:102EC00055F8042B22F0030252F8043B1847000087
:102ED00083584FCEA82E0008DD2E0008FDF7E2FF34
:102EE000FDF7F0FF55F8042B22F0030252F8043BE3
:102EF00018470000865350414345D3FFD02E0008A9
:102F0000DD0800083C270008F42A0008A01A000881
:102F1000900A0008180000003C270008E80A000892
:102F20003C2F0008B00A0008F8FFFFFFF008000877
:102F30008553504143C5FFFFF42E0008DD0800080B
:102F4000DC0E000834300008F0080008834944AE65
:102F5000302F0008DD08000820170008300900089D
:102F60001F0000001C2B0008E02F00083C2F000869
:102F7000F0080008C22EA2FF4C2F0008DD08000850
:102F800030090008220000004C0F0008F81D00085E
:102F9000900A00082C000000E8040008FC03000868
:102FA000B0130008A00F00081C1E0008AC26000883
:102FB000F40F000854030008780A00081400000009
:102FC000B0130008A00F000820170008E02F000829
:102FD000F008000884545950C5FFFFFF742F000803
:102FE000DD080008A01A0008900A0008340000005C
:102FF000B42E0008E41B0008BC280008381C000898
:10300000E80A0008F41A00080C0B00083430000825
:10301000B00A0008F0FFFFFF780A0008080000006F
:10302000181C0008F008000884454D49D4FFFFFF34
:10303000D42F00083930000857F8040BFDF732FF91
:103040000649087006490868401C086055F8042BBA
:1030500022F0030252F8043B1847000004480040E5
:103060000C010010834B45D928300008DD0800080A
:10307000D82E00087C300008F008000881300008D5
:10308000074A084B19688909FCD3106847F8040DF2
:1030900055F8042B22F0030252F8043B18470000B5
:1030A0000448004000480040843F4B45D9FFFFFFE3
:1030B00064300008B9300008FDF7F4FEFDF702FFA8
:1030C0004040074B1968890900D3013847F8040DBF
:1030D00055F8042B22F0030252F8043B1847000075
:1030E00000480040834352D3A8300008DD080008A0
:1030F0003C270008E80A000810310008B00A000860
:10310000F8FFFFFFF00800088243D2FFE430000818
:10311000DD08000810020008FC030008020D0AFF89
:10312000F00800088C0D0A4649534820494F3A0DD3
:103130008AFFFFFF083100088B495251535F524507
:1031400053554DC5243100084D31000801F020F9D8
:1031500055F8042B22F0030252F8043B18470000F4
:103160008C495251535F53555350454EC4FFFFFF96
:10317000383100087931000801F008F955F8042BBE
:1031800022F0030252F8043B184700008F535953B2
:103190005449434B5F4952515F4F46C66031000866
:1031A000A531000804490520086055F8042B22F0D9
:1031B000030252F8043B184710E000E08E535953C5
:1031C0005449434B5F4952515F4FCEFF8C31000849
:1031D000D531000804490720086055F8042B22F077
:1031E000030252F8043B184710E000E08F0D0A4933
:1031F0004E54455252555054533A0D8ABC31000832
:103200008A464C4153485F534156C5FFEC31000894
:10321000DD08000848110008283B00085029000874
:10322000900A00082000000010310008FC0300088C
:103230000F4E4F5448494E4720544F205341564556
:10324000F008000810330008F81D000830090008D5
:10325000000010080C290008900A0008280000004F
:1032600010310008FC030008144C41535420464C14
:1032700041534820415641494C2055534544FFFF96
:10328000F008000824100008EC0E0008F81D0008E3
:1032900020330008401E00084811000828330008A9
:1032A00018330008401E000848110008283B000899
:1032B0000C290008900A000848000000C4370008E4
:1032C000283B0008100F0008401E000820330008AB
:1032D000F81D0008EC0E0008401E00081833000816
:1032E000F81D0008380F0008401E0008D4340008FC
:1032F00010310008483A0008183A0008F0080008A1
:103300004811000854330008780A00089CFFFFFFAA
:103310001D090008040000201D0900080800002005
:103320001D0900080C0000202D33000857F8040B7D
:10333000064A1040064A1268801847F8040D55F8EE
:10334000042B22F0030252F8043B1847FFFF0F0042
:1033500004000020DD080008F0110008641C0008CB
:10336000BC1B000884110008641C0008F81D00083C
:10337000300900087F0900080C290008900A00089D
:1033800028000000F4260008641C0008641C0008E3
:10339000F81D000828330008381C0008401E0008EB
:1033A000780A000800010000641C0008F81D0008ED
:1033B000300900081D0900080C290008E41B00085A
:1033C000F81D000830090008090900080C29000848
:1033D000442B0008900A000810000000181C000888
:1033E000780A0008C4000000F4260008641C0008E5
:1033F000F81D000830090008300900080C290008F1
:10340000900A000810000000F4260008780A00085E
:10341000D8FFFFFF641C0008F81D000830090008F1
:10342000FC0300080C290008900A00082000000096
:10343000641C0008F42600081C1E0008BC280008B4
:10344000F40F0008780A0008A0FFFFFF641C0008C2
:10345000F81D000830090008F00800080C290008D1
:10346000D8290008900A00083C000000641C0008ED
:10347000F81D0008283B0008C0290008900A000831
:1034800068FFFFFF641C0008641C0008F81D0008AA
:1034900028330008381C0008401E0008780A00087D
:1034A00048FFFFFF181C0008781B00086011000887
:1034B000641C0008F81D0008641C0008380F000890
:1034C000401E000828330008381C0008401E000871
:1034D000F0080008DD0800083009000800000208B4
:1034E000641C00083009000804000020401E000889
:1034F000641C0008BC1B0008F81D0008103C0008F4
:10350000E4280008900A000810000000781B00085A
:10351000181C0008F00800089C1B00081033000865
:10352000401E00089C1B000830090008080000002D
:10353000BC280008641C0008F81D0008380F0008AB
:10354000401E0008F4260008F81D0008EC0E0008D4
:10355000401E000810310008FC03000817414444D5
:10356000454420574F5244532046524F4D2041442A
:10357000445220FF9C1B0008642D0008781B0008A3
:10358000F4260008F81D0008780A000854FFFFFF21
:10359000DD080008641C0008BC280008BC1B0008EB
:1035A000641C0008F81D0008AC260008900A0008FA
:1035B0003800000010310008FC0300081745524194
:1035C0005345442042414420464C415348205041F9
:1035D00047452020642D0008181C0008781B0008AF
:1035E000181C0008F0080008F4260008641C0008F5
:1035F000641C00089C1B0008381C0008E428000814
:10360000900A00080C000000780A000898FFFFFFED
:1036100010310008FC0300080E464C41534820506E
:10362000414745204F4B20FFE4280008642D000847
:10363000781B0008181C0008F00800088C464C4154
:1036400053485F464F524745D4FFFFFF0032000802
:10365000DD080008FC0300081754414B4553204186
:10366000424F55542036205345434F4E445321205A
:10367000743100084839000828390008500700084C
:103680002A020100103C02402839000850070008B7
:1036900032020100103C024028390008500700089F
:1036A0003A020100103C0240283900085007000887
:1036B00042020100103C024028390008500700086F
:1036C0004A020100103C0240283900085007000857
:1036D00052020100103C024028390008500700083F
:1036E0005A020100103C02402839000868390008DD
:1036F000483100083C3B000848110008C029000878
:10370000900A000810000000B03E0008780A000887
:103710001C00000030090008383F0008283B000862
:10372000F011000860110008401E00085007000852
:1037300000000208040000203009000811111111D6
:10374000641C000818330008401E000820330008DD
:10375000401E0008D434000810310008483A000820
:10376000183A0008F00800086D37000857F8040BF5
:1037700057F8041B064A50F8044B42F8044B8842A1
:10378000F9D155F8042B22F0030252F8043B1847F4
:10379000D0FE002030090008D0FE0020880E00086E
:1037A000F0080008DD080008300900087C3900082E
:1037B00030090008D038000868370008943700083E
:1037C000F0080008DD0800087431000848390008D6
:1037D000283900085007000801020000103C024090
:1037E00010330008F81D0008BC1B00083009000851
:1037F0001000000010330008D01D0008A00F0008C2
:10380000BC1B0008283B0008641C0008F81D0008C9
:1038100010330008F81D0008401E00082839000871
:103820007C27000810330008D01D0008F42600088B
:10383000641C00089C1B0008E4280008900A00088B
:103840000C000000780A0008C0FFFFFF781B00088A
:10385000181C0008181C000830090008000000208F
:10386000F81D00089C1B0008401E000828390008AD
:1038700010330008F81D00089C1B0008F4260008FF
:10388000401E00082839000818330008F81D0008F9
:103890009C1B00089C010008BC280008401E000872
:1038A0002839000820330008F81D0008781B00089C
:1038B000300900080C000000BC280008401E000869
:1038C000283900086839000848310008F008000865
:1038D000DD08000850360008743100084839000837
:1038E000283900085007000801020000103C02407F
:1038F00050070008000002080400002030090008FA
:1039000010000000100F0008D01D0008680E00080D
:10391000C4370008680E00085036000868390008EF
:1039200048310008F00800082D39000805490868EA
:103930000004FCD255F8042B22F0030252F8043B99
:10394000184700000C3C0240DD0800085007000842
:1039500023016745043C024050070008AB89EFCDC6
:10396000043C0240F0080008DD0800085007000889
:1039700000000080103C0240F008000884504F46D0
:10398000C6FFFFFF3C360008DD08000850070008AE
:103990000000000034010010F008000883504FCEF2
:1039A0007C390008DD08000850070008440E0008B4
:1039B00034010010F008000881D0FFFF9C39000896
:1039C0001D090008340100108545484F46C6FFFF19
:1039D000B8390008DD0800083C2700083009000855
:1039E00038010010401E0008F00800088445484FC8
:1039F000CEFFFFFFC8390008DD0800084C2700088B
:103A00003009000838010010401E0008F0080008C6
:103A1000832E44D3EC390008DD0800089C09000817
:103A2000EC0C0008802D0008080D00083009000883
:103A3000643F000844170008E02F0008F008000861
:103A4000832E56D3103A0008DD080008C409000888
:103A5000EC0C00087C27000848280008802D00088E
:103A6000080D000830090008593F000844170008F5
:103A7000E02F0008F00800088444554DD0FFFFFFF8
:103A8000403A0008DD080008E41B0008381200086E
:103A9000EC0C00084C2A00083C270008E80A000843
:103AA00010310008641C0008300900080A000000FA
:103AB000C82C00087C2700083C270008E80A0008FA
:103AC000641C0008F81D0008300900080E00000002
:103AD000C82C0008F4260008B00A0008E4FFFFFF25
:103AE000B4300008900A000808000000581B0008C5
:103AF000B00A0008ACFFFFFF181C000810310008D6
:103B0000080D0008F00800088556424153C5FFFF24
:103B1000783A00081D09000804000010854442415D
:103B200053C5FFFF083B00081D09000810000020D6
:103B30008552424153C5FFFF1C3B00081D09000888
:103B40000000002083434CD3303B0008DD08000810
:103B5000FC030008041B5B324AFFFFFFFC03000864
:103B6000041B5B3B48FFFFFF10310008F008000812
:103B7000C1A8FFFF443B0008DD0800083009000829
:103B8000290000002C0B0008D8290008900A000822
:103B90003400000010310008300900081000000057
:103BA00034300008240400083009000871FA0020AD
:103BB0001C1E0008900A000810000000780A000887
:103BC000BCFFFFFFF008000830090008763F00083E
:103BD00044170008E02F0008F0080008C1DCFFFFD0
:103BE000703B0008DD0800083C2700088C0F000827
:103BF0006C0F0008F81D0008BC280008641E0008AF
:103C0000F008000886535953434CCBFFDC3B0008B7
:103C1000153C00080549086847F8040D55F8042BC1
:103C200022F0030252F8043B184700000000002075
:103C30008553544354D2FFFF043C00081D0900087B
:103C4000000000108544454C41D9FFFF303C00087E
:103C5000553C000857F8041B57F8040B0C4CC043A4
:103C6000401C20600B4A11600B4A1160002806D0EE
:103C70000A4A10680721116021680029FCD11060F0
:103C800055F8042B22F0030252F8043B18470000B9
:103C90000000001014E000E018E000E010E000E098
:103CA000824DD3FF443C0008DD08000830090008BD
:103CB0003F900200503C0008F008000887574F5220
:103CC000444341D4A03C0008DD080008A00F0008D0
:103CD000BC1B00083C270008A81000083009000899
:103CE0000D000000A8100008A00F0008300900080F
:103CF0000D000000B0130008641C00081C1E000822
:103D0000300900080A000000C01A0008641E0008FC
:103D1000641C0008AC260008BC0F0008300900082D
:103D200084000000BC2800089C1B0008641E0008DA
:103D3000300900080D000000A81000083009000834
:103D40008A000000A810000824100008481100088C
:103D500080100008781B00083009000830010010AE
:103D6000401E0008F008000885574F5244D3FFFF5B
:103D7000BC3C0008DD0800086C270008002F000884
:103D800048110008B42E00083C270008E41B000876
:103D9000AC2600081C1E0008300900080D000000B9
:103DA0000C290008D8290008900A00081C0000000F
:103DB000181C0008641C0008F011000860110008BD
:103DC000E41B0008E42800085C0F0008F81D000848
:103DD000BC280008300900084A000000C02900087B
:103DE000900A000810000000103100086C2700083D
:103DF000002F0008641C0008000F0008F81D0008D0
:103E000050290008900A00080C000000780A0008F9
:103E100054000000641C0008542F00085C270008B0
:103E2000002F0008641C0008AC2600081C1E0008B7
:103E3000300900080D0000000C290008900A000855
:103E40000800000010020008F011000860110008CE
:103E5000F81D0008641C0008D8290008900A000812
:103E600028FFFFFF181C000810310008F0080008A8
:103E7000874D59574F5244D3683D0008DD0800086C
:103E800050070008000002082C010010743D0008D3
:103E900050070008000000002C010010F008000886
:103EA00089464953485F4F4E4CD9FFFF703E00088A
:103EB000B53E000809490A4C21600A4C21600A49B4
:103EC0000A4C21600A4C21600A490B4C216055F8CC
:103ED000042B22F0030252F8043B1847383F000835
:103EE0003001001008000020040000102001001024
:103EF0000C000020100000202401001084464953CB
:103F0000C8FFFFFFA03E0008DD080008D434000809
:103F1000C8060008F0080008990D0A4649534820D1
:103F20005265666572656E6365204D6F64656C3AB7
:103F30000D8AFFFFFC3E0008890D0A4750494F3AA1
:103F40000D8AFFFF183F00080352554E2000203F06
:103F50002000203C43523E20005641522043454C15
:103F60004C53200044494354494F4E41525920423A
:103F700059544553200020434F4D4D454E54204C3D
:103F8000494E452043414E4E4F5420424520454D19
:103F90005054592015002043414E5420464F52475B
:103FA0004554204649534820494E20464C415348E9
:103FB00020150020494E20464C415348202D2053C7
:103FC000454520464C4153485F464F524745542093
:103FD00015002044494354494F4E415259204655FB
:103FE0004C4C202D20534545202E445320150020B5
:103FF00052414D2056415220535041434520465591
:104000004C4C202D20534545202E56532015002082
:10401000495320414C524541445920444546494E5C
:104020004544201500203F204E4F5420574F524406
:10403000201500203F204E4F5420574F5244204F10
:1040400052204E554D4245522015002043415553B4
:104050004544204120535441434B204552524F5236
:1040600020150020535441434B204552524F5220BB
:104070005748494C4520455845435554494E4720DB
:104080004F5220434F4D50494C494E472015002078
:104090004552524F52202D204E4F5420434F4D50E9
:1040A000494C494E47201500204552524F52202D71
:1040B000204558454355544544205748494C4520D0
:1040C000434F4D50494C494E47201500DD0800082C
:1040D0005007000805070000003C0240F0080008F7
:1040E000E540000840F20004C2F201044FF0000372
:1040F0004FF0800C53F8042B44F8042BBCF1010C56
:10410000F8D155F8042B22F0030252F8043B18476B
:10411000DD080008E040000850070008000001200A
:1041200008ED00E068070008003802408407000836
:1041300001000000C40700080038024050070008D2
:1041400000000000083802406807000800380240FC
:10415000A4070008FFFFF6FEC4070008003802406D
:104160005007000810300024043802406807000897
:1041700000380240A4070008FFFFFBFFC407000847
:104180000038024050070008000000000C380240D0
:10419000680700080038024084070008000001009A
:1041A000C4070008003802404008000868070008FB
:1041B00000380240A4070008000002005808000868
:1041C000680700084038024084070008000000101B
:1041D000C40700084038024068070008007000402B
:1041E0008407000800400000C40700080070004079
:1041F00030090008083802403009000800000000BB
:10420000CC1C0008300900080838024030090008BA
:1042100000800000CC1C000830090008083802406B
:104220003009000800140000CC1C000850070008EA
:10423000085440070438024068070008003802406C
:104240008407000800000001C4070008003802408D
:10425000400800086807000800380240A40700086A
:104260000000000258080008CC4000086807000859
:1042700008380240A4070008FCFFFFFFC40700083D
:104280000838024068070008083802408407000820
:1042900002000000C4070008083802404008000877
:1042A0006807000808380240A40700080C00000056
:1042B00030090008080000000C2900085808000810
:1042C000500700080030005084380240680700089A
:1042D000003802408407000800000004C4070008FA
:1042E0000038024040080008680700080038024013
:1042F000A40700080000000858080008500700083C
:10430000007A030A0000002030090008303802401B
:104310003009000887000000CC1C000830090008A4
:10432000403802403009000800000400CC1C00089E
:104330005007000800770000240802401008000819
:10434000000802400300F0000100A0005007000830
:104350000C2000000C480040500700080700000037
:1043600010E000E0F0080008BFF34F8F0548016837
:1043700011F4E0610448014302480160BFF34F8F2C
:10438000FEE700000CED00E00400FA0572B670478D
:1043900062B6704780B5FFF7E7FF01BD4EF6885162
:1043A000CEF20001086840F470000860BFF34F8F40
:1043B000BFF36F8F4FF00070E1EE100A70470000FE
:1043C000FCF7B0BCFFF7FEBFFFF7FEBFFFF7FEBF75
:1043D000FFF7FEBFFFF7FEBFFFF7FEBFFFF7FEBF11
:1043E000FCF7D8BCFFF7FEBFFFF7FEBFFFF7FEBF2D
:1043F000FFF7FEBFFFF7FEBFFFF7FEBFFFF7FEBFF1
:10440000FFF7FEBFFFF7FEBFFFF7FEBFFFF7FEBFE0
:10441000FFF7FEBFFFF7FEBFFFF7FEBFFFF7FEBFD0
:10442000FFF7FEBFFFF7FEBFFFF7FEBFFFF7FEBFC0
:10443000FFF7FEBFFFF7FEBFFFF7FEBFFFF7FEBFB0
:10444000FFF7FEBFFFF7FEBFFFF7FEBFFFF7FEBFA0
:10445000FFF7FEBFFFF7FEBFFFF7FEBFFFF7FEBF90
:10446000FFF7FEBFFFF7FEBFFFF7FEBFFFF7FEBF80
:10447000FFF7FEBFFFF7FEBFFFF7FEBFFFF7FEBF70
:10448000FFF7FEBFFFF7FEBFFFF7FEBFFFF7FEBF60
:10449000FFF7FEBFFFF7FEBFFFF7FEBFFFF7FEBF50
:1044A000FFF7FEBFFFF7FEBFFFF7FEBFFFF7FEBF40
:1044B000FFF7FEBFFFF7FEBFFFF7FEBFFFF7FEBF30
:1044C000FFF7FEBFFFF7FEBFFFF7FEBFFFF7FEBF20
:1044D000FFF7FEBFFFF7FEBFFFF7FEBFFFF7FEBF10
:1044E000FFF7FEBFFFF7FEBFFFF7FEBFFFF7FEBF00
:1044F000FFF7FEBFFFF7FEBFFFF7FEBFFFF7FEBFF0
:10450000FFF7FEBFFFF7FEBFFFF7FEBFFFF7FEBFDF
:10451000FFF7FEBFFFF7FEBFFFF7FEBFFFF7FEBFCF
:0C452000FFF7FEBFFFF7FEBFFFF7FEBF76
:0400000500000000F7
:00000001FF
