:020000040800F2
:1000000000000220154A0008194A0008E9490008C2
:100010001D4A0008214A0008254A00080000000087
:10002000000000000000000000000000294A000855
:100030002D4A000800000000314A0008354A000837
:10004000394A00083D4A0008414A0008454A00086C
:10005000494A00084D4A0008514A0008554A00081C
:10006000594A00085D4A0008614A0008654A0008CC
:10007000694A00086D4A0008714A0008754A00087C
:10008000794A00087D4A0008814A0008854A00082C
:10009000894A00088D4A0008914A0008954A0008DC
:1000A000994A00089D4A0008A14A0008A54A00088C
:1000B000A94A0008AD4A0008B14A0008B54A00083C
:1000C000B94A0008BD4A0008C14A0008C54A0008EC
:1000D000C94A0008CD4A0008D14A0008D54A00089C
:1000E000D94A0008DD4A0008E14A0008E54A00084C
:1000F000E94A0008ED4A0008F14A0008F54A0008FC
:10010000F94A0008FD4A0008014B0008054B0008A9
:10011000094B00080D4B0008114B0008154B000857
:10012000194B00081D4B0008214B0008254B000807
:10013000294B00082D4B0008314B0008354B0008B7
:10014000394B00083D4B0008414B0008454B000867
:10015000494B00084D4B0008514B0008554B000817
:10016000594B00085D4B0008614B0008654B0008C7
:10017000694B00086D4B0008714B0008754B000877
:10018000794B00087D4B0008E90800083C0900088D
:1001900007000000BC2F0008FC080008290900081F
:1001A00008000000E90800089C010008BC2F0008B6
:1001B000C42E00089C010008BC2F0008501C000839
:1001C0005C0F0008601D000824280008A426000811
:1001D000241C0008CC1D00083C090008FCFFFFFFA0
:1001E0004C0F0008381D0008142D00085C0F000893
:1001F000381D0008FC080008E90800085C07000832
:100200000000000008010010FC080008E9080008D0
:100210005C070008000000000C010010FC0800084A
:10022000E9080008180D0008140F0008A81D0008B0
:10023000C8190008340D0008FC080008E908000887
:10024000140F0008601D0008501C0008C426000898
:10025000742800089C0A0008180000003C090008E7
:1002600062000000BC2F0008041C0008FC08000805
:100270003C0900080A000000742800089C0A0008D5
:10028000140000003C09000864000000BC2F0008B6
:10029000FC0800083C09000868000000BC2F0008AA
:1002A000FC080008E908000878250008A4260008D2
:1002B000DC2400083C020008FC080008E9080008EB
:1002C000A4260008A4260008DC2400083C0200083C
:1002D000FC080008E9080008180D0008501C000878
:1002E000140F0008A81D00083C0900080A000000BF
:1002F000742800089C0A000810000000A4020008EE
:10030000840A000808000000BC020008C42E00088F
:10031000340D0008FC080008290900081401001029
:100320002909000818010010290900083C010010E3
:100330002909000844010010E90800083C090008E8
:10034000104500082C170008682F000848180008FE
:10035000E9080008000F0008381D0008FC08000824
:10036000E908000814100008900F0008A81D0008F4
:10037000E426000850030008FC080008E90800080B
:100380003C0F0008601D0008402900083C090008D7
:10039000DB45000884120008FC080008E908000892
:1003A0003C0F0008601D00083C090008F6450008E5
:1003B00084120008FC080008E90800084C2800081E
:1003C0003C090008AD45000884120008FC0800083C
:1003D000E9080008001B000818030008601D000859
:1003E000241C0008E82800083C0900089345000880
:1003F00084120008FC080008E9080008641B0008D3
:10040000501C000808170008682F0008081700088B
:1004100024280008E40F0008A81B0008FC080008B6
:10042000E90800087C0F00083C0900085E00000095
:10043000B81500085C070008010000000801001062
:10044000FC080008E908000814260008501C0008F1
:10045000A81B0008841D0008140F0008601D000878
:10046000B41200089C0A000858000000241C000870
:10047000140F0008601D0008600C0008041C000830
:10048000AC1A0008140F0008601D0008600C00087A
:100490003C250008CC240008601D00081426000834
:1004A0009C0A000810000000B4260008CC240008B4
:1004B000381D0008641B0008840A00088CFFFFFF39
:1004C000641B0008FC080008E9080008CC0E0008BE
:1004D0009C130008900F000838110008F809000864
:1004E000FC080008E9080008641B0008501C00080C
:1004F0005C260008A81B0008601D000860030008B7
:10050000FC080008E9080008A81B0008A426000849
:10051000881B0008880C0008641B0008241C0008C5
:10052000A81B0008880C0008641B0008FC080008D1
:10053000E9080008001B000828030008A81D00089F
:10054000FC080008E9080008001B00082803000850
:10055000601D00084C2800083C090008934500086D
:1005600084120008FC080008E9080008C804000814
:100570009C0A00083C0000003C0F0008601D0008B9
:10058000B82800089C0A0008140000007411000834
:1005900060030008840A00080C00000074110008C1
:1005A000780E0008D0030008840A0008C0FFFFFF8F
:1005B000900F000814140008CC240008601D0008E7
:1005C000142600089C0A0008100000008C1E000879
:1005D000840A00080C000000041C0008BC1E00086F
:1005E000D0030008840A000884FFFFFFE908000820
:1005F000301E0008E00C0008FC0C00082004000875
:10060000680500083C0F0008601D0008402900082C
:100610009C0A0008380000003C0900083401001062
:10062000601D00089C0A0008240000003C09000826
:1006300034010010601D00082C170008682F000806
:10064000140F0008601D0008E82C00083C09000891
:1006500010000000BC2F000898300008840A000831
:1006600098FFFFFFE9080008900F00084C280008D9
:1006700070100008FC080008E90800085C07000882
:100680000000000028010010FC08000829090008EB
:1006900028010010E90800086C2900089C0A0008DD
:1006A00008000000F4290008FC080008E908000818
:1006B0006C2900089C0A0008080000009C2400081F
:1006C000FC080008E9080008983000083C09000808
:1006D000CC0D00082C170008682F00083C09000802
:1006E000250E00082C170008682F00083C09000898
:1006F000320E00082C170008682F000898300008F8
:10070000FC080008E9080008BC0800085C34000880
:10071000FC080008E9080008241C0008D01B000899
:10072000242800083C0900087F000000D01B0008B6
:10073000841D0008B82800089C0A0008E0FFFFFF9D
:10074000241C0008041C0008FC080008013055F8AF
:10075000042B22F0030252F8043B184761070008FB
:1007600002CD04CD116055F8042B22F0030252F89B
:10077000043B18477907000855F8040B006847F850
:10078000040D55F8042B22F0030252F8043B1847DD
:100790009507000855F8042B57F8040B104347F849
:1007A000040D55F8042B22F0030252F8043B1847BD
:1007B000B507000855F8042B57F8040B104047F80C
:1007C000040D55F8042B22F0030252F8043B18479D
:1007D000D507000855F8043B57F8040B186055F886
:1007E000042B22F0030252F8043B1847F1070008DB
:1007F00057F8043B57F8041B57F8040B1A6822EA11
:10080000010200EA010042EA00021A6055F8042BD6
:1008100022F0030252F8043B1847000021080008A8
:1008200055F8043B55F8044B55F804CB1A6822EAF6
:1008300004020CEA040C42EA0C021A6055F8042B7C
:1008400022F0030252F8043B184700005108000848
:1008500046F8045D55F8042B22F0030252F8043BDD
:10086000184700006908000857F8040B00280CBF5F
:100870003568361D55F8042B22F0030252F8043B6C
:1008800018470000100000000000000000000000F9
:1008900000000000680500105803001070FA0020E6
:1008A0000400001010000020000000000000000004
:1008B00060440008340E000800000000C108000871
:1008C000074808490E2203680B60001D091D521ECF
:1008D000F9D155F8042B22F0030252F8043B1847D3
:1008E000840800080401001046F8045D154655F818
:1008F000042B22F0030252F8043B184701090008B8
:1009000056F8045B55F8042B22F0030252F8043B1E
:100910001847000001CA47F8040D55F8042B22F0CF
:10092000030252F8043B184701CA47F8040D55F872
:10093000042B22F0030252F8043B18474109000837
:1009400055F8040B47F8040D55F8042B22F0030268
:1009500052F8043B184700005D09000855F8040BE5
:1009600047F8040D55F8042B22F0030252F8043B1B
:10097000184700007909000857F8045B55F8042B64
:1009800022F0030252F8043B1847000046F8045DC9
:100990004568083047F8040D55F8042B22F003028F
:1009A00052F8043B18470000AD0900080648074903
:1009B0000968401A47F8040D55F8042B22F0030289
:1009C00052F8043B1847000010FA002024010010E0
:1009D000D5090008064807490968401A47F8040D78
:1009E00055F8042B22F0030252F8043B184700008C
:1009F0000401001020010010FD09000857F8043B15
:100A000057F8042B93465A46187884461178484084
:100A10003F2420401DD1521C5B1C1878117888425D
:100A2000F9D08024001B884214D15B1C1878FF2861
:100A3000FBD0083347F8043D0120624647F8042DF7
:100A400047F8040D55F8042B22F0030252F8043B3A
:100A500018475B1C187880242042FAD01B1D0848D8
:100A600003401B68002B00D0CDE7002047F8040DA1
:100A700055F8042B22F0030252F8043B18470000FB
:100A8000FCFFFFFF890A00082B68ED1855F8042BBE
:100A900022F0030252F8043B18470000A10A0008A4
:100AA00057F8040B00283FF4EFAF2D1D55F8042B29
:100AB00022F0030252F8043B18470000C10A000864
:100AC00057F8040B00287FF4DFAF2D1D55F8042BD9
:100AD00022F0030252F8043B18470000E10A000824
:100AE000012374683268944204D0D2183260A41A88
:100AF0007FF4CAAF08362D1D55F8042B22F00302EF
:100B000052F8043B184700000D0B000857F8043B4F
:100B1000FFF7E7BF190B000857F8040B57F8042B31
:100B200046F8042D46F8040D55F8042B22F0030274
:100B300052F8043B184700003D0B000857F8040B1F
:100B400000787F21084047F8040D55F8042B22F067
:100B5000030252F8043B18475D0B000857F8041BCA
:100B60000B4A92460B4B1C6812191078521C884293
:100B700001D00028F9D15446121B1A7047F8040D11
:100B800055F8042B22F0030252F8043B18470000EA
:100B900070FA0020080100109D0B000857F8041B94
:100BA00057F8042B10784840107055F8042B22F0A9
:100BB000030252F8043B1847BD0B00080A21884283
:100BC00005D157F8040B0D2047F8040D02E00D2164
:100BD000884203D100F05EF900F064F955F8042B67
:100BE00022F0030252F8043B18470000F10B000802
:100BF0003868017801290FD0022914D001440A78FD
:100C0000622A1AD0252A18D0642A18D0232A16D08E
:100C1000682A16D0242A14D055F8042B22F0030297
:100C200052F8043B184782782E2AE7D155F8042B56
:100C300022F0030252F8043B1847022402E00A247F
:100C400000E0102400220A70044A146055F8042BB6
:100C500022F0030252F8043B184700000401001080
:100C6000650C000857F8040B57F8041BA0FB012083
:100C700047F8042D47F8040D55F8042B22F0030221
:100C800052F8043B184700008D0C000857F8040B7D
:100C900057F8043B57F8042B002812D093F0000FAC
:100CA0000FD10146B2FBF0F000FB112247F8042DF2
:100CB00047F8040D55F8042B22F0030252F8043BC8
:100CC00018474040401E024647F8042D47F8040DDF
:100CD00055F8042B22F0030252F8043B1847000099
:100CE000E50C0008044A176855F8042B22F00302AB
:100CF00052F8043B1847000014010010010D0008D1
:100D0000044A166855F8042B22F0030252F8043BFB
:100D100018470000180100101D0D0008044A116852
:100D20008C4655F8042B22F0030252F8043B184776
:100D300004010010390D0008044A6146116055F89D
:100D4000042B22F0030252F8043B18470401001060
:100D500081B070460090064F064E0FF21C0546F813
:100D6000045D55F8042B22F0030252F8043B1847A7
:100D70006805001058030010BC0800086046000811
:100D8000442D0008983000083C090008FB000000D2
:100D9000BC2F00083C090008F7000000BC2F000829
:100DA00098300008441900087444000808CA9F4697
:100DB00003B502490868401C086003BD000000102C
:100DC000C50D000856F8045BBDE83F9C46495348F2
:100DD00020524D2056347468204F454D207E2041CE
:100DE000524D2053544D3332463430375647204409
:100DF0004953434F20403136384D687A20284329E3
:100E0000323031342D3230313820412D5445414D6E
:100E100020464F525448203A204A616E20333120F8
:100E200032303139002061742032323A31353A3271
:100E300037001500206F6B2C20676F206669736880
:100E400020696E204241534520000000844E4F4FE0
:100E5000D0FFFFFF000000005D0E000855F8042BD6
:100E600022F0030252F8043B18470000874558451A
:100E7000435554C54C0E00087D0E000800F00AF8DA
:100E800000F010F857F8042B22F0030252F8043B4C
:100E9000184700007246024C2168090AFCD310472B
:100EA000004800407246024913240C7010470000AD
:100EB000044800407246024911240C70104700009B
:100EC000044800408242CCFF6C0E0008290900084B
:100ED000200000008255D0FFC40E00082909000838
:100EE000200100108546454E43C5FFFFD40E000883
:100EF000290900082C0100108244D0FFE40E0008EC
:100F0000290900082401001084424153C5FFFFFF56
:100F1000F80E000829090008040100108743555203
:100F200052454ED4080F000829090008300100106E
:100F30008553544154C5FFFF1C0F000829090008C0
:100F400010010010834F55D4300F00082909000804
:100F50000C0100108249CEFF440F00082909000847
:100F600008010010835041C4540F000829090008EB
:100F700010FA0020835449C2640F000829090008B0
:100F800070FA002084484552C5FFFFFF740F000827
:100F9000E9080008000F0008601D0008FC080008B0
:100FA00085414C4C4FD4FFFF840F0008E90800082E
:100FB000A8090008D01B00084C2800086C2900086C
:100FC0009C0A00080800000038030008000F000811
:100FD000381D0008FC08000887414C49474E45C4AD
:100FE000A00F0008E90F000857F8040BC01C0549C2
:100FF000084047F8040D55F8042B22F0030252F87C
:10100000043B1847FCFFFFFF85414C4947CEFFFFDB
:10101000D80F0008E9080008900F0008D42600083F
:1010200024280008501C0008A81B0008900F000886
:10103000140B00083C090008FF000000E01A00083B
:10104000CC1D0008DC0A0008ECFFFFFF641B000851
:101050003C090008FCFFFFFF842A0008000F00087D
:10106000A81D0008FC08000881ACFFFF081000085C
:10107000E9080008A80900086C2900089C0A000873
:10108000080000003803000860030008FC0800089E
:101090008243ACFF68100008E9080008A8090008AE
:1010A0006C2900089C0A00080800000038030008AA
:1010B000900F0008CC1D0008B4260008500300085B
:1010C000FC08000888564152414C4C4FD4FFFFFFAA
:1010D00090100008E9080008D0090008E42600087C
:1010E000B0270008D01B00084C2800086C29000815
:1010F0009C0A0008180000003C0900082F45000861
:101100002C170008682F000848180008DC0E00089B
:10111000601D0008241C0008E4260008742700084D
:10112000DC0E0008381D0008FC080008864C4154FD
:101130004553D4FFC4100008E9080008280F000830
:10114000601D0008FC080008834C46C12C110008F3
:101150005511000857F8040B083847F8040D55F8E6
:10116000042B22F0030252F8043B1847834346C184
:10117000481100087911000857F8040B001F47F8C0
:10118000040D55F8042B22F0030252F8043B1847D3
:10119000834E46C16C110008E90800089C01000854
:1011A0004C280008F0250008501C0008841D000889
:1011B0003C090008FF0000004C2800089C0A0008B9
:1011C000E4FFFFFF3C090008FFFFFFFF14070008D2
:1011D000FC080008835046C190110008E908000887
:1011E000B42600081407000814260008501C000844
:1011F000841D00083C090008FF0000004C2800087E
:101200009C0A0008E4FFFFFF9C0100082428000856
:10121000FC080008883F414C49474E45C4FFFFFF8A
:10122000D4110008E90800083C0900080300000088
:10123000842A00089C0A00083C000000F80300080B
:101240002E56414C5545204D55535420424520457E
:1012500056454E204E4F54204F444420414E44208A
:101260004D554C5449504C45204F4620342120FFC9
:1012700048180008FC080008863F4552524FD2FF2C
:1012800014120008E9080008241C00089C0A000841
:101290001000000010150008840A00080800000073
:1012A000041C0008FC0800088544494749D4FFFF96
:1012B00078120008B912000857F8042B57F8040BED
:1012C000303813D4092802DDC01F0A280EDB9042F3
:1012D0000CDA0246012047F8042D47F8040D55F8B2
:1012E000042B22F0030252F8043B1847002047F871
:1012F000040D55F8042B22F0030252F8043B184762
:1013000087454E434C4F53C5A812000811130008DF
:1013100057F8040B39680022521E491E491C521C02
:101320000B789842FAD047F8042D002B0CD11846C0
:10133000521C47F8042D47F8040D55F8042B22F0F1
:10134000030252F8043B1847491C521C0B78984280
:1013500001D0002BF8D11046401C47F8042D47F867
:10136000040D55F8042B22F0030252F8043B1847F1
:10137000C180FFFF001300087D13000856F8045BCE
:1013800055F8042B22F0030252F8043B18470000E2
:1013900084574F52C4FFFFFF70130008E90800088C
:1013A0007C0F00085C0F0008601D0008242800085E
:1013B000241C00080C1300085C0F0008381D0008EE
:1013C000D01B00084C280008A81B0008881B000838
:1013D000900F0008CC1D000824280008900F00087A
:1013E00014260008881B00088C1C0008A42600088E
:1013F000900F000814260008641B00082428000829
:10140000CC1D0008FC080008864E554D4245D2FF11
:1014100090130008E9080008180D0008EC0B0008FC
:10142000A4260008A4260008AC1A0008501C0008D6
:1014300014260008841D00083C0900082D00000047
:1014400074280008B4260008842A0008501C0008EC
:10145000A81B0008242800083C090008FFFFFFFF24
:10146000CC240008A81D000844040008501C0008F3
:10147000841D0008A42600084C2800089C0A0008C7
:1014800068000000501C0008841D00083C0900088A
:101490002E0000004C2800089C0A000840000000B4
:1014A000501C0008841D00083C0900082C000000A6
:1014B000742800089C0A000810000000142D000881
:1014C000840A00089CFFFFFF340D0008B4260008C2
:1014D0003C0900087945000884120008A426000889
:1014E000840A00087CFFFFFF041C0008641B00083E
:1014F0009C0A0008080000009C240008340D000825
:10150000FC080008854552524FD2FFFF081400081E
:10151000E9080008900F000808170008682F000865
:101520002C170008682F00083C2E00083C0F00080C
:10153000601D00089C0A0008400000008C0600089E
:10154000601D00089C0A0008300000008C0600089E
:10155000601D0008DC11000850110008601D000823
:10156000280F0008A81D00088C060008601D000850
:10157000000F0008A81D0008780600084818000899
:10158000C1A7FFFF04150008E9080008C804000807
:10159000402900083C090008694500088412000839
:1015A000041C0008BC1E0008FC08000886455850B2
:1015B0004543D4FF80150008E90800080C02000824
:1015C000F801000814260008D01B00082428000891
:1015D000D01B000814260008602E0008140B000819
:1015E00004300008B80B0008501C00083C09000833
:1015F00009000000742800089C0A00080C00000084
:10160000041C0008CC0E0008501C00089C010008B7
:1016100074280008D01B00083C0900087F00000067
:1016200074280008AC2A00089C0A0008500000003A
:10163000041C0008501C0008E01A0008F0250008EF
:1016400074280008501C0008641B0008C426000809
:101650004C28000824280008A81B00089C0A000841
:101660001000000088010008840A00086C000000D7
:10167000A4010008840A000860000000501C000853
:101680003C0900080D000000742800089C0A0008AE
:101690001C000000441B0008041C0008CC0E0008BD
:1016A000A4260008840A000808000000501C000856
:1016B000E01A0008CC1D0008B42600085C0F0008E2
:1016C000381D0008A4260008E01A000814260008A7
:1016D000CC1D0008BC2F0008DC0A000804FFFFFF37
:1016E0003C2E0008142600082C170008241C0008B3
:1016F000F0250008CC1D0008FC08000885434F5564
:101700004ED4FFFFAC150008E9080008501C000883
:1017100014260008241C0008841D0008FC0800088A
:1017200084244C45CEFFFFFFFC160008311700084B
:101730003A684040115C094301D0401CFAE747F881
:10174000040D55F8042B22F0030252F8043B18470D
:1017500086464F524745D4FF20170008E908000885
:1017600088150008501C00083C0900080000020809
:10177000B82800083C090008D0440008841200087A
:10178000501C00083C09000800001008B828000898
:101790003C090008EF44000884120008501C0008AF
:1017A00050110008A81B000838110008DC110008BF
:1017B00050110008501C0008601D0008280F000888
:1017C000A81D0008501C00085C260008601D0008C9
:1017D0003C09000815090008742800089C0A000844
:1017E000140000003C090008FCFFFFFFDC0E0008AD
:1017F000381D0008881B0008742800089C0A00088F
:10180000A8FFFFFF641B0008601D0008280F0008E8
:10181000A81D000898110008000F0008A81D000866
:10182000D0390008A0390008FC080008834259C5D7
:101830005017000839180008FFF78DBA8541424F4C
:1018400052D4FFFF2C180008E9080008E00C00083B
:10185000FC0C00080C0200083C0900088044000849
:1018600038110008F80900089C0A00081000000060
:10187000041C000874110008780E00083C090008D8
:1018800038010010601D00089C0A00086C00000070
:101890003C090008FC1800082C170008682F0008F5
:1018A0003C3000089C0A0008F8FFFFFF04300008E5
:1018B0003C09000843000000742800089C0A000846
:1018C000E0FFFFFF043000083C0900084F00000063
:1018D000742800089C0A0008C8FFFFFF04300008B5
:1018E0003C0900080D000000742800089C0A00084C
:1018F000B0FFFFFF98300008EC0500082045727229
:101900006F722048616C74202845484F4E2F45481F
:101910004F464629202D20546F20434F6E74696E28
:101920007565205479706520434F207468656E207A
:10193000456E7465723A200084434F4CC4FFFFFF2C
:101940003C180008E908000804070008D43A000819
:10195000C4060008EC050008900D0A4649534820CB
:1019600053797374656D3A0D8AFFFFFF38190008CB
:10197000832E53C858190008E90800083C090008DC
:101980001000000020020008FC080008832E53C449
:1019900070190008E90800083C0900080A00000066
:1019A00020020008FC080008832E53C28C1900088E
:1019B000E9080008C426000820020008FC08000806
:1019C000822ED3FFA8190008E908000818030008B0
:1019D000601D0008001B00085C2600087428000831
:1019E000402900089C0A000868000000F80300086D
:1019F00005544F533E20FFFF18030008601D0008E8
:101A0000001B00085C260008140B0008E01A000800
:101A1000601D0008140F0008601D00083C09000844
:101A20000A000000742800089C0A0008100000004A
:101A3000A4020008840A000808000000BC02000894
:101A4000C42E0008E4260008080B0008C0FFFFFFB2
:101A5000FC08000884324455D0FFFFFFC01900087D
:101A6000651A000838687A6847F8042D47F8040DAD
:101A700055F8042B22F0030252F8043B18470000EB
:101A8000842D4455D0FFFFFF541A0008E9080008D0
:101A9000501C00089C0A000808000000501C0008A8
:101AA000FC08000883524FD4801A0008B11A0008BD
:101AB00057F8042B57F8041B57F8040B47F8041D7C
:101AC00047F8042D47F8040D55F8042B22F00302C3
:101AD00052F8043B1847000081C9FFFFA41A000810
:101AE000E51A0008306847F8040D55F8042B22F079
:101AF000030252F8043B1847835350C0D81A000819
:101B0000051B0008384647F8040D55F8042B22F051
:101B1000030252F8043B1847835250C0F81A0008D9
:101B2000251B0008304647F8040D55F8042B22F019
:101B3000030252F8043B1847854C454156C5FFFF48
:101B4000181B0008491B00083268726055F8042B06
:101B500022F0030252F8043B184700008252BEFFF5
:101B6000381B0008691B000856F8040B47F8040DE1
:101B700055F8042B22F0030252F8043B18470000EA
:101B800081D2FFFF5C1B00088D1B0008306847F8FE
:101B9000040D55F8042B22F0030252F8043B1847B9
:101BA000823ED2FF801B0008AD1B000857F8041BC3
:101BB00046F8041D55F8042B22F0030252F8043BAA
:101BC00018470000844F5645D2FFFFFFA01B0008B6
:101BD000D51B000857F8042B57F8040B47F8040DE1
:101BE00047F8042D47F8040D55F8042B22F00302A2
:101BF00052F8043B184700008444524FD0FFFFFFC7
:101C0000C41B0008091C00083F1D55F8042B22F0D6
:101C1000030252F8043B184784535741D0FFFFFF9B
:101C2000F81B0008291C000857F8042B57F8040B70
:101C300047F8042D47F8040D55F8042B22F0030251
:101C400052F8043B18470000834455D0181C000884
:101C5000551C0008386847F8040D55F8042B22F08D
:101C6000030252F8043B1847900D0A537461636BEA
:101C70002053747566663A0D8AFFFFFF481C000802
:101C800085434D4F56C5FFFF681C0008911C000896
:101C900057F8041B57F8042B57F8043B002907D0CA
:101CA00018781070491E002902D0521C5B1CF7D115
:101CB00055F8042B22F0030252F8043B18470000A9
:101CC0008446494CCCFFFFFF801C0008D11C000853
:101CD00057F8040B57F8041B57F8042B002904D0BD
:101CE0008B181070521C9A42FBD155F8042B22F02D
:101CF000030252F8043B18478545524153C5FFFF84
:101D0000C01C0008E9080008A4260008CC1C000834
:101D1000FC08000886424C414E4BD3FFF81C0008DB
:101D2000E9080008CC0E0008CC1C0008FC080008DC
:101D3000822BA1FF141D00083D1D000857F8041B4D
:101D400057F8040B0A688018086055F8042B22F035
:101D5000030252F8043B184781C0FFFF301D000802
:101D6000651D000857F8041B086847F8040D55F86E
:101D7000042B22F0030252F8043B18478243C0FFB1
:101D8000581D0008891D000857F8041B087847F8FB
:101D9000040D55F8042B22F0030252F8043B1847B7
:101DA00081A1FFFF7C1D0008AD1D000857F8040B42
:101DB00057F8041B016055F8042B22F0030252F877
:101DC000043B18478243A1FFA01D0008D11D000855
:101DD00057F8040B57F8041B017055F8042B22F038
:101DE000030252F8043B18479F0D0A5265616420B4
:101DF000616E64205772697465204D656D6F7279EC
:101E000020576974683A0D8AC41D000881DDFFFF00
:101E1000E81D0008E90800085C070008C000000091
:101E200010010010FC080008C1DBFFFF0C1E0008B9
:101E3000E90800085C07000800000000100100101D
:101E4000FC080008C95B434F4D50494C45DDFFFF7E
:101E5000281E0008E9080008C804000840290008F6
:101E60003C0900089345000884120008041C00087F
:101E70007411000870100008FC080008C8444C49A0
:101E800054455241CCFFFFFF441E0008E9080008FA
:101E90003C0F0008601D00089C0A000810000000AC
:101EA000241C0008BC1E0008BC1E0008FC0800081A
:101EB000C74C4954455241CC7C1E0008E908000833
:101EC0003C0F0008601D00089C0A0008100000007C
:101ED000E40400083C09000870100008FC08000831
:101EE0008223BEFFB01E0008E9080008041C000899
:101EF000041C000830030008601D00086C0F000877
:101F0000D01B00084C280008FC08000884484F4CEF
:101F1000C4FFFFFFE01E0008E90800083C090008B4
:101F2000FFFFFFFF30030008381D000830030008E2
:101F3000601D0008CC1D0008FC08000884534947B8
:101F4000CEFFFFFF0C1F0008E9080008AC1A0008CC
:101F50006C2900089C0A0008100000003C090008D9
:101F60002D000000181F0008FC0800088223D3FF82
:101F70003C1F0008E9080008A01F0008D01B00084B
:101F8000D01B0008AC2A0008402900089C0A000861
:101F9000E8FFFFFFFC08000881A3FFFF6C1F00089B
:101FA000E9080008140F0008601D00080405000877
:101FB000AC1A00083C09000809000000D01B00080A
:101FC000B82800089C0A0008100000003C0900081E
:101FD00007000000242800083C0900083000000029
:101FE00024280008181F0008FC080008823CA3FFF2
:101FF000981F0008E90800085C07000810FA002094
:1020000044010010FC08000885444F4553BEFFFF03
:10201000EC1F0008E9080008641B000838110008DC
:10202000DC110008501C0008741100083C0900086D
:102030008B090008241C0008A81D0008A81D000822
:10204000FC080008873C4255494C44D3082000084E
:10205000E908000890220008FC080008C52B4C4F36
:102060004FD0FFFF44200008E9080008D4260008EC
:10207000B8030008E4040008080B00086406000820
:10208000FC080008C44C4F4FD0FFFFFF5C20000845
:10209000E9080008D4260008B8030008E404000892
:1020A000DC0A000864060008FC080008C244CFFFF0
:1020B00084200008E9080008E4040008140B000864
:1020C000900F0008D4260008FC080008C5454E44BF
:1020D00049C6FFFFAC200008E90800087C0300089F
:1020E000C4260008B8030008900F0008D01B0008A1
:1020F0004C280008241C0008A81D0008FC08000843
:10210000C4544845CEFFFFFFCC200008E908000872
:10211000D8200008FC080008C4454C53C5FFFFFF49
:1021200000210008E9080008C4260008B8030008D8
:10213000E4040008840A0008900F0008A4260008A0
:1021400070100008241C0008C4260008D8200008CD
:10215000C4260008FC080008C249C6FF1821000870
:10216000E9080008E40400089C0A0008900F000831
:10217000A426000870100008C4260008FC08000807
:10218000C5554E5449CCFFFF58210008E908000806
:10219000B4260008B8030008E40400089C0A0008FC
:1021A00064060008FC080008C541474149CEFFFF0E
:1021B00080210008E9080008B4260008B8030008D8
:1021C000E4040008840A000864060008FC0800080B
:1021D000C65245504541D4FFA8210008E90800082F
:1021E000A81B0008A81B0008B4210008641B0008F5
:1021F000641B0008C42600084C280008D8200008EA
:10220000FC080008C55748494CC5FFFFD02100080D
:10221000E90800086021000838260008FC080008CA
:10222000C542454749CEFFFF04220008E9080008DF
:102230007C030008900F0008B4260008FC08000882
:10224000970D0A496E7369646520436F6C6F6E2049
:10225000574F5244533A0D8A2022000889494D4D68
:102260004544494154C5FFFF40220008E9080008E1
:10227000381100083C09000840000000980B0008D5
:10228000FC080008864352454154C5FF5C22000803
:10229000E9080008A80900083C0900080F00000030
:1022A0004C2800086C2900089C0A0008080000005F
:1022B00038030008C80400089C0A00082400000035
:1022C000041C000898110008DC2E00083C090008D6
:1022D000514500082C170008682F0008481800080E
:1022E000900F0008501C00088C060008A81D00086C
:1022F000501C0008841D00083C0900081F00000055
:10230000342A000850030008501C00083C0900084B
:1023100080000000980B0008900F00083C0900089E
:1023200080000000980B0008B4260008000F000889
:10233000381D00083811000870100008280F000828
:10234000A81D0008E404000829090008900F0008EF
:102350005C26000870100008FC08000888434F4EF7
:102360005354414ED4FFFFFF84220008E9080008BF
:1023700080230008FC08000883434FCE5C2300083C
:10238000E9080008902200083C090008FCFFFFFF54
:10239000000F0008381D00087010000878060008BB
:1023A000FC080008885641524941424CC5FFFFFFD6
:1023B00078230008E9080008C8230008FC08000882
:1023C000835641D2A4230008E9080008902200089F
:1023D0003C090008F8FFFFFF000F0008381D000847
:1023E000E404000815090008B4260008D410000809
:1023F0007010000878060008FC080008C1BBFFFF49
:10240000C0230008E908000844050008E4040008A7
:10241000FC080008301E000878060008FC080008C8
:10242000C1BAFFFFFC230008E90800089C0300086C
:102430003005000890220008141E00083C0900081E
:10244000F8FFFFFF000F0008381D0008E404000833
:10245000E9080008FC080008960D0A43524541545B
:102460004520574F52445320576974683A0D8AFFEC
:102470002024000884444142D3FFFFFF5824000871
:10248000E9080008501C0008AC060008FC08000819
:1024900087444E45474154C574240008A1240008D0
:1024A00057F8040B57F8042BC043D243521C47F88B
:1024B000042D47F8040D55F8042B22F0030252F8BE
:1024C000043B1847834450CC902400082909000895
:1024D0004001001083442ED2C4240008E9080008FB
:1024E000A81B0008241C0008D01B0008802400083A
:1024F000F41F0008741F0008481F0008E81E0008A9
:10250000641B0008D01B00084C280008882E000817
:10251000682F0008FC0800088244AEFFD42400089D
:10252000E9080008A4260008DC240008C42E0008DE
:10253000FC0800088244ABFF18250008412500086C
:1025400057F8040B57F8041B57F8043B57F8042BB3
:102550005218584147F8042D47F8040D55F8042B3C
:1025600022F0030252F8043B1847000084532D3E2A
:10257000C4FFFFFF342500087D25000857F8042B11
:102580004040124300D5401E47F8042D47F8040D83
:1025900055F8042B22F0030252F8043B18470000C0
:1025A0008232AAFF6C250008AD25000857F8040BFD
:1025B000400047F8040D55F8042B22F0030252F8AE
:1025C000043B18478232AFFFA0250008D125000840
:1025D00057F8040B401047F8040D55F8042B22F06F
:1025E000030252F8043B18478231ADFFC4250008AE
:1025F000F525000857F8040B401E47F8040D55F860
:10260000042B22F0030252F8043B18478231ABFF3F
:10261000E82500081926000857F8040B401C47F865
:10262000040D55F8042B22F0030252F8043B18471E
:102630008232ABFF0C2600083D26000857F8040B39
:10264000801C47F8040D55F8042B22F0030252F8C1
:10265000043B18478234ABFF30260008612600088F
:1026600057F8040B001D47F8040D55F8042B22F011
:10267000030252F8043B18478234ADFF5426000889
:102680008526000857F8040B001F47F8040D55F87D
:10269000042B22F0030252F8043B184781B0FFFFDD
:1026A00078260008290900080000000081B1FFFF1A
:1026B0009C260008290900080100000081B2FFFFE4
:1026C000AC260008290900080200000081B3FFFFC2
:1026D000BC260008290900080300000081B4FFFFA0
:1026E000CC2600082909000804000000824DAAFF3A
:1026F000DC260008E9080008601A0008F82A00082B
:10270000A81B00081C2A0008241C00081C2A00081A
:10271000600C0008641B0008AC060008FC080008F8
:10272000824DAFFFEC260008E9080008D01B000826
:10273000A81B0008A81B000880240008881B0008AC
:102740001C2A0008880C0008641B0008881B00086D
:10275000F82A000894060008241C0008641B0008DE
:1027600094060008241C0008FC08000881AAFFFF4A
:1027700020270008E9080008F4260008041C0008C7
:10278000FC080008842F4D4FC4FFFFFF6C27000892
:10279000E9080008A81B000878250008641B000849
:1027A00028270008FC08000881AFFFFF84270008E5
:1027B000E908000890270008241C0008041C0008F1
:1027C000FC080008834D4FC4A8270008E90800084A
:1027D00090270008041C0008FC080008852A2F4DDB
:1027E0004FC4FFFFC4270008E9080008A81B000821
:1027F000F4260008641B000828270008FC080008CD
:10280000822AAFFFDC270008E9080008E827000853
:10281000241C0008041C0008FC08000881ABFFFF12
:10282000002800082928000857F8040B57F8041B53
:10283000401847F8040D55F8042B22F0030252F813
:10284000043B184781ADFFFF1C28000851280008F1
:1028500057F8040B57F8041B081A47F8040D55F8ED
:10286000042B22F0030252F8043B184781BDFFFFFE
:102870004428000879280008404057F8040B57F80E
:10288000041B401A09D0404047F8040D55F8042BAA
:1028900022F0030252F8043B1847013847F8040DB0
:1028A00055F8042B22F0030252F8043B18470000AD
:1028B00081BCFFFF6C280008BD280008404001389B
:1028C00057F8041B57F8042B914200DC404047F8AE
:1028D000040D55F8042B22F0030252F8043B18476C
:1028E0008255BCFFB0280008E9080008601A0008FB
:1028F000F82A00086C2900089C0A0008180000004B
:10290000041C00086C29000840290008840A0008FB
:102910000C0000004C2800086C290008FC08000886
:1029200081BEFFFFE0280008E9080008241C000819
:10293000B8280008FC0800088230BDFF20290008E4
:1029400045290008404057F8041B002900D1401ECB
:1029500047F8040D55F8042B22F0030252F8043B0B
:10296000184700008230BCFF382900087129000890
:1029700057F8041B40400138094300D4404047F851
:10298000040D55F8042B22F0030252F8043B1847BB
:10299000834249CE64290008E90800085C07000862
:1029A0000200000004010010FC080008834845D81C
:1029B00090290008E90800085C07000810000000E2
:1029C00004010010FC08000887444543494D41CCF0
:1029D000AC290008E90800085C0700080A000000AC
:1029E00004010010FC080008864E45474154C5FF0D
:1029F000C8290008F929000857F8040BC043401CF7
:102A000047F8040D55F8042B22F0030252F8043B5A
:102A100018470000834142D3E8290008E90800086C
:102A2000501C000894060008FC080008834D49CE9D
:102A3000142A0008E9080008601A0008282900087C
:102A40009C0A000808000000241C0008041C000860
:102A5000FC080008834D41D82C2A0008E90800082A
:102A6000601A0008B82800089C0A00080800000046
:102A7000241C0008041C0008FC08000883414EC404
:102A8000542A0008892A000857F8040B57F8041B39
:102A9000084047F8040D55F8042B22F0030252F8C1
:102AA000043B1847824FD2FF7C2A0008B12A000855
:102AB00057F8040B57F8041B084347F8040D55F862
:102AC000042B22F0030252F8043B1847834E4FD4E4
:102AD000A42A0008D92A000857F8040BC04347F875
:102AE000040D55F8042B22F0030252F8043B18475A
:102AF00083584FD2CC2A0008FD2A000857F8040B4F
:102B000057F8041B484047F8040D55F8042B22F0F1
:102B1000030252F8043B184784535854C8FFFFFF80
:102B2000F02A0008292B000857F8040B00B247F8D8
:102B3000040D55F8042B22F0030252F8043B184709
:102B400084535854C2FFFFFF182B0008512B000874
:102B500057F8040B40B247F8040D55F8042B22F047
:102B6000030252F8043B184784524556D7FFFFFF33
:102B7000402B0008792B000857F8040B00BA47F8DF
:102B8000040D55F8042B22F0030252F8043B1847B9
:102B9000834153D2682B00089D2B000857F8042B63
:102BA00057F8040B104147F8040D55F8042B22F098
:102BB000030252F8043B1847834C53D2902B000871
:102BC000C52B000857F8042B57F8040BD04047F8E2
:102BD000040D55F8042B22F0030252F8043B184769
:102BE000834C53CCB82B0008ED2B000857F8042B6E
:102BF00057F8040B904047F8040D55F8042B22F0C9
:102C0000030252F8043B1847822ED2FFE02B000843
:102C1000E9080008A81B000878250008641B0008C4
:102C2000DC240008FC080008832E52D5082C00087C
:102C3000E9080008A81B0008A4260008F41F0008E3
:102C4000741F0008E81E0008501C0008641B0008E0
:102C5000241C00084C280008882E0008682F000853
:102C6000FC0800088255AEFF282C0008E90800087F
:102C7000A426000820250008FC08000881BFFFFFEB
:102C8000642C0008E9080008601D00089C2C00085E
:102C9000FC08000881AEFFFF7C2C0008E908000852
:102CA0007825000820250008FC080008822EC2FFB5
:102CB000942C0008E9080008C4260008D402000883
:102CC000FC080008822EC8FFAC2C0008E9080008A8
:102CD0003C09000810000000D4020008FC080008AD
:102CE000822EC4FFC42C0008E90800083C09000833
:102CF0000A000000D4020008FC080008834F46C602
:102D0000E02C00082909000800000000824FCEFFD7
:102D1000FC2C000829090008FFFFFFFF910D0A4E57
:102D2000554D4245522053747566663A0D8AFFFF31
:102D30000C2D00088A55415254335F494E49D4FF47
:102D40001C2D0008E90800083C09000800020120C9
:102D5000601D0008402900089C0A00081C000000B3
:102D60003C09000804020120601D0008A81B00089F
:102D7000840A0008100000003C09000800C201009D
:102D8000A81B00083C09000880DE8002641B0008C4
:102D9000B02700083C09000808480040A81D0008AA
:102DA000FC080008864D59424155C4FF342D0008E7
:102DB000E90800085C07000800000000000201208C
:102DC0003C09000804020120A81D0008FC080008B6
:102DD0008955415254335F4C53D2FFFFA42D000854
:102DE000E52D00080549087847F8040D55F8042B2F
:102DF00022F0030252F8043B18470000004800404C
:102E00008855415254335F52D8FFFFFFD02D000840
:102E100029090008044800408855415254335F5442
:102E2000D8FFFFFF002E00082909000804480040D1
:102E300084584F46C6FFFFFF182E0008412E000899
:102E4000FEF728F8FEF72EF855F8042B22F00302BF
:102E500052F8043B1847000083584FCE302E00082C
:102E6000652E0008FEF716F8FEF724F855F8042B37
:102E700022F0030252F8043B1847000086535041E9
:102E80004345D3FF582E0008E9080008A42600088F
:102E90005C2A00088C1A00089C0A00081800000030
:102EA000A4260008140B0008C42E0008DC0A000841
:102EB000F8FFFFFFFC0800088553504143C5FFFFA2
:102EC0007C2E0008E9080008CC0E0008BC2F000882
:102ED000FC080008834944AEB82E0008E908000841
:102EE000081700083C0900081F000000842A000899
:102EF000682F0008C42E0008FC080008C22EA2FF9C
:102F0000D42E0008E90800083C090008220000004F
:102F10003C0F0008601D00089C0A00082C000000FF
:102F2000E4040008F80300089C130008900F000850
:102F3000841D000814260008E40F00085003000850
:102F4000840A0008140000009C130008900F000879
:102F500008170008682F0008FC080008845459501E
:102F6000C5FFFFFFFC2E0008E90800088C1A0008C6
:102F70009C0A0008340000003C2E0008D01B00080A
:102F800024280008241C0008140B0008E01A00087C
:102F9000380B0008BC2F0008DC0A0008F0FFFFFF18
:102FA000840A000808000000041C0008FC0800084F
:102FB00084454D49D4FFFFFF5C2F0008C12F000856
:102FC00057F8040BFDF766FF0649087006490868C4
:102FD000401C086055F8042B22F0030252F8043B11
:102FE00018470000044800400C010010834B45D9ED
:102FF000B02F0008E9080008602E0008043000081F
:10300000FC08000809300008074A084B19688909BC
:10301000FCD3106847F8040D55F8042B22F0030286
:1030200052F8043B184700000448004000480040A4
:10303000843F4B45D9FFFFFFEC2F000841300008CB
:10304000FDF728FFFDF736FF4040074B1968890957
:1030500000D3013847F8040D55F8042B22F0030281
:1030600052F8043B1847000000480040834352D305
:1030700030300008E9080008A4260008140B0008F6
:1030800098300008DC0A0008F8FFFFFFFC08000881
:103090008243D2FF6C300008E90800080C020008E7
:1030A000F8030008020D0AFFFC0800088C0D0A4610
:1030B00049534820494F3A0D8AFFFFFF90300008DE
:1030C0008B495251535F524553554DC5AC300008A2
:1030D000D530000801F086FC55F8042B22F00302DD
:1030E00052F8043B184700008C495251535F535526
:1030F0005350454EC4FFFFFFC030000801310008A7
:1031000001F06EFC55F8042B22F0030252F8043B48
:10311000184700008F5359535449434B5F4952514C
:103120005F4F46C6E83000082D31000804490520ED
:10313000086055F8042B22F0030252F8043B1847AC
:1031400010E000E08E5359535449434B5F495251AC
:103150005F4FCEFF143100085D310008044907209D
:10316000086055F8042B22F0030252F8043B18477C
:1031700010E000E08F0D0A494E544552525550540C
:10318000533A0D8A443100088A464C4153485F53F4
:103190004156C5FF74310008E908000838110008DD
:1031A000B03A0008B82800089C0A00082000000077
:1031B00098300008F80300080F4E4F5448494E4716
:1031C00020544F2053415645FC080008983200080F
:1031D000601D00083C090008000010087428000861
:1031E0009C0A00082800000098300008F803000836
:1031F000144C41535420464C4153482041564149B8
:103200004C2055534544FFFFFC08000814100008EB
:10321000DC0E0008601D0008A8320008A81D000888
:1032200038110008B0320008A0320008A81D0008BC
:1032300038110008B03A0008742800089C0A0008F9
:10324000480000004C370008B03A0008000F0008A2
:10325000A81D0008A8320008601D0008DC0E000848
:10326000A81D0008A0320008601D0008280F0008F3
:10327000A81D00085C34000898300008D039000808
:10328000A0390008FC08000838110008DC320008EA
:10329000840A00089CFFFFFF2909000804000020A1
:1032A0002909000808000020290900080C00002056
:1032B000B532000857F8040B064A1040064A126857
:1032C000801847F8040D55F8042B22F0030252F839
:1032D000043B1847FFFF0F0004000020E908000826
:1032E000DC110008501C0008A81B0008741100081D
:1032F000501C0008601D00083C0900088B090008EC
:10330000742800089C0A0008280000005C260008B9
:10331000501C0008501C0008601D0008B032000856
:10332000241C0008A81D0008840A000800010000F1
:10333000501C0008601D00083C090008290900080D
:1033400074280008D01B0008601D00083C09000814
:103350001509000874280008AC2A00089C0A000817
:1033600010000000041C0008840A0008C4000000CB
:103370005C260008501C0008601D00083C0900087D
:103380003C090008742800089C0A0008100000008E
:103390005C260008840A0008D8FFFFFF501C0008C4
:1033A000601D00083C090008F803000874280008A4
:1033B0009C0A000820000000501C00085C26000841
:1033C000841D000824280008E40F0008840A00086F
:1033D000A0FFFFFF501C0008601D00083C0900080A
:1033E000FC08000874280008402900089C0A00080E
:1033F0003C000000501C0008601D0008B03A0008A6
:10340000282900089C0A000868FFFFFF501C0008DC
:10341000501C0008601D0008B0320008241C000881
:10342000A81D0008840A000848FFFFFF041C0008CC
:10343000641B000850110008501C0008601D0008A3
:10344000501C0008280F0008A81D0008B032000812
:10345000241C0008A81D0008FC080008E908000852
:103460003C09000800000208501C00083C09000844
:1034700004000020A81D0008501C0008A81B00081C
:10348000601D0008983B00084C2800089C0A0008B2
:1034900010000000641B0008041C0008FC08000861
:1034A000881B000898320008A81D0008881B000827
:1034B0003C0900080800000024280008501C0008EF
:1034C000601D0008280F0008A81D00085C260008E1
:1034D000601D0008DC0E0008A81D000898300008D8
:1034E000F803000817414444454420574F524453C1
:1034F0002046524F4D204144445220FF881B000873
:10350000CC2C0008641B00085C260008601D000825
:10351000840A000854FFFFFFE9080008501C000857
:1035200024280008A81B0008501C0008601D000883
:10353000142600089C0A0008380000009830000893
:10354000F8030008174552415345442042414420A6
:10355000464C41534820504147452020CC2C000880
:10356000041C0008641B0008041C0008FC08000878
:103570005C260008501C0008501C0008881B00082E
:10358000241C00084C2800089C0A00080C000000BD
:10359000840A000898FFFFFF98300008F80300082D
:1035A0000E464C4153482050414745204F4B20FF89
:1035B0004C280008CC2C0008641B0008041C0008E0
:1035C000FC0800088C464C4153485F464F52474523
:1035D000D4FFFFFF88310008E9080008F80300085D
:1035E0001754414B45532041424F555420362053E8
:1035F00045434F4E44532120FC300008D03800088A
:10360000B03800085C0700082A020100103C0240A4
:10361000B03800085C07000832020100103C02408C
:10362000B03800085C0700083A020100103C024074
:10363000B03800085C07000842020100103C02405C
:10364000B03800085C0700084A020100103C024044
:10365000B03800085C07000852020100103C02402C
:10366000B03800085C0700085A020100103C024014
:10367000B0380008F0380008D0300008C43A00081C
:1036800038110008282900089C0A000810000000D2
:10369000383E0008840A00081C0000003C090008AD
:1036A00060440008B03A0008DC110008501100081E
:1036B000A81D00085C0700080000020804000020A4
:1036C0003C09000811111111501C0008A03200081B
:1036D000A81D0008A8320008A81D00085C340008D6
:1036E00098300008D0390008A0390008FC0800080C
:1036F000F536000857F8040B57F8041B064A50F833
:10370000044B42F8044B8842F9D155F8042B22F0BF
:10371000030252F8043B1847D4FE00203C0900087D
:10372000D4FE0020780E0008FC080008E908000814
:103730003C090008043900083C0900085838000812
:10374000F03600081C370008FC080008E9080008EB
:10375000FC300008D0380008B03800085C070008CA
:1037600001020000103C024098320008601D000871
:10377000A81B00083C09000810000000983200084F
:10378000381D0008900F0008A81B0008B03A000878
:10379000501C0008601D000898320008601D0008D9
:1037A000A81D0008B0380008E42600089832000878
:1037B000381D00085C260008501C0008881B000803
:1037C0004C2800089C0A00080C000000840A00082D
:1037D000C0FFFFFF641B0008041C0008041C000855
:1037E0003C09000800000020601D0008881B00083C
:1037F000A81D0008B038000898320008601D0008B5
:10380000881B00085C260008A81D0008B0380008C6
:10381000A0320008601D0008881B00089C010008F9
:1038200024280008A81D0008B0380008A8320008A5
:10383000601D0008641B00083C0900080C00000023
:1038400024280008A81D0008B0380008F038000837
:10385000D0300008FC080008E9080008D835000846
:10386000FC300008D0380008B03800085C070008B9
:1038700001020000103C02405C0700080000020842
:10388000040000203C09000810000000000F0008A0
:10389000381D0008580E00084C370008580E000864
:1038A000D8350008F0380008D0300008FC080008BF
:1038B000B5380008054908680004FCD255F8042B07
:1038C00022F0030252F8043B184700000C3C02406F
:1038D000E90800085C07000823016745043C024032
:1038E0005C070008AB89EFCD043C0240FC080008EF
:1038F000E90800085C07000800000080103C024056
:10390000FC08000884504F46C6FFFFFFC43500087E
:10391000E90800085C0700080000000034010010FE
:10392000FC08000883504FCE04390008E90800085D
:103930005C070008340E000834010010FC08000881
:1039400081D0FFFF24390008290900083401001044
:103950008545484F46C6FFFF40390008E908000882
:10396000A42600083C09000838010010A81D000822
:10397000FC0800088445484FCEFFFFFF503900087F
:10398000E9080008B42600083C09000838010010C6
:10399000A81D0008FC080008832E44D374390008D1
:1039A000E9080008A8090008180D0008E82C00081C
:1039B000340D00083C0900089C4400082C1700083E
:1039C000682F0008FC080008832E56D39839000899
:1039D000E9080008D0090008180D0008E4260008CE
:1039E000B0270008E82C0008340D00083C09000846
:1039F000914400082C170008682F0008FC080008F4
:103A00008444554DD0FFFFFFC8390008E90800087D
:103A1000D01B000824120008180D0008B429000863
:103A2000A4260008140B000898300008501C000859
:103A30003C0900080A000000302C0008E4260008B9
:103A4000A4260008140B0008501C0008601D000884
:103A50003C0900080E000000302C00085C2600081D
:103A6000DC0A0008E4FFFFFF3C3000089C0A000865
:103A700008000000441B0008DC0A0008ACFFFFFF40
:103A8000041C000898300008340D0008FC080008E9
:103A90008556424153C5FFFF003A00082909000836
:103AA000040000108544424153C5FFFF903A0008CE
:103AB00029090008100000208552424153C5FFFF2C
:103AC000A43A0008290900080000002083434CD3D1
:103AD000B83A0008E9080008F8030008041B5B3244
:103AE0004AFFFFFFF8030008041B5B3B48FFFFFF92
:103AF00098300008FC080008C1A8FFFFCC3A000875
:103B0000E90800083C09000829000000580B0008DB
:103B1000402900089C0A0008340000009830000882
:103B20003C09000810000000BC2F00082004000819
:103B30003C09000871FA0020841D00089C0A000856
:103B400010000000840A0008BCFFFFFFFC0800080A
:103B50003C090008AE4400082C170008682F000834
:103B6000FC080008C1DCFFFFF83A0008E90800087B
:103B7000A42600087C0F00085C0F0008601D0008E8
:103B800024280008CC1D0008FC080008865359535F
:103B9000434CCBFF643B00089D3B00080549086887
:103BA00047F8040D55F8042B22F0030252F8043BA9
:103BB00018470000000000208553544354D2FFFFF3
:103BC0008C3B000829090008000000108544454C82
:103BD00041D9FFFFB83B0008DD3B000857F8041B44
:103BE00057F8040B0C4CC043401C20600B4A11607A
:103BF0000B4A1160002806D00A4A1068072111609C
:103C000021680029FCD1106055F8042B22F0030232
:103C100052F8043B184700000000001014E000E0D8
:103C200018E000E010E000E0824DD3FFCC3B00083C
:103C3000E90800083C0900083F900200D83B000852
:103C4000FC08000887574F52444341D4283C0008E1
:103C5000E9080008900F0008A81B0008A426000827
:103C6000981000083C0900080D000000981000089A
:103C7000900F00083C0900080D0000009C1300088C
:103C8000501C0008841D00083C0900080A000000C0
:103C9000AC1A0008CC1D0008501C000814260008AF
:103CA000AC0F00083C09000884000000242800082C
:103CB000881B0008CC1D00083C0900080D0000000E
:103CC000981000083C0900088A00000098100008BD
:103CD000141000083811000870100008641B000858
:103CE0003C09000830010010A81D0008FC0800086D
:103CF00085574F5244D3FFFF443C0008E9080008B1
:103D0000D4260008882E0008381100083C2E000830
:103D1000A4260008D01B000814260008841D0008F3
:103D20003C0900080D000000742800084029000824
:103D30009C0A00081C000000041C0008501C00081D
:103D4000DC11000850110008D01B00084C280008A6
:103D50004C0F0008601D0008242800083C090008DA
:103D60004A000000282900089C0A000810000000F2
:103D700098300008D4260008882E0008501C00083F
:103D8000F00E0008601D0008B82800089C0A000812
:103D90000C000000840A000854000000501C0008B9
:103DA000DC2E0008C4260008882E0008501C0008DD
:103DB00014260008841D00083C0900080D000000BE
:103DC000742800089C0A0008080000000C02000883
:103DD000DC11000850110008601D0008501C00088C
:103DE000402900089C0A000828FFFFFF041C000867
:103DF00098300008FC080008874D59574F5244D3AB
:103E0000F03C0008E90800085C0700080000020810
:103E10002C010010FC3C00085C07000800000000BA
:103E20002C010010FC08000889464953485F4F4E9A
:103E30004CD9FFFFF83D00083D3E000809490A4CF7
:103E400021600A4C21600A490A4C21600A4C216019
:103E50000A490B4C216055F8042B22F0030252F85A
:103E6000043B18476044000830010010080000209F
:103E700004000010200100100C00002010000020A1
:103E80002401001084464953C8FFFFFF283E000864
:103E9000E90800085C340008C4060008FC080008B3
:103EA000990D0A46495348205265666572656E63EE
:103EB00065204D6F64656C3A0D8AFFFF843E0008F3
:103EC000894750494F432D4F44D2FFFFA03E000881
:103ED0002909000814080240894750494F432D49D9
:103EE00044D2FFFFC03E0008290900081008024024
:103EF0008B4750494F432D4D4F4445D2D83E000883
:103F00002909000800080240894750494F422D4FB7
:103F100044D2FFFFF03E00082909000814040240C3
:103F2000894750494F422D4944D2FFFF083F0008BE
:103F300029090008100402408B4750494F422D4D7B
:103F40004F4445D2203F00082909000800040240E0
:103F5000865345454249D4FF383F0008E908000828
:103F6000A81B0008B4260008241C0008E82B000841
:103F7000641B0008601D0008842A00089C0A0008D1
:103F800010000000F8030008024F4EFFFC08000874
:103F9000F8030008034F4646FC08000886534554C2
:103FA0004249D4FF503F0008AD3F000857F8042BAA
:103FB00057F8041B10684FF001038B401843106042
:103FC00055F8042B22F0030252F8043B1847000076
:103FD00086434C524249D4FF9C3F0008E13F000811
:103FE00057F8042B57F8041B10684FF001038B405F
:103FF00020EA0300106055F8042B22F0030252F867
:10400000043B184787414E44424954D3D03F0008EF
:104010001540000857F8042B57F8041B0868104097
:10402000086055F8042B22F0030252F8043B1847AD
:1040300087534554424954D3044000084140000886
:1040400057F8042B57F8041B08681043086055F80C
:10405000042B22F0030252F8043B184787434C52CA
:10406000424954D3304000086D40000857F8042BF3
:1040700057F8041B08689043086055F8042B22F099
:10408000030252F8043B1847834753B05C400008D2
:10409000E90800089C0A00081C0000003C09000810
:1040A000000000003C09000814080240A83F000876
:1040B000FC0800083C090008000000003C0900085A
:1040C00014080240DC3F0008FC080008834753B195
:1040D00088400008E90800089C0A00081C0000004D
:1040E0003C090008010000003C09000814080240D7
:1040F000A83F0008FC0800083C0900080100000077
:104100003C09000814080240DC3F0008FC080008D5
:10411000834753B2CC400008E90800089C0A000815
:104120001C0000003C090008020000003C090008D7
:1041300014080240A83F0008FC0800083C090008D9
:10414000020000003C09000814080240DC3F00089F
:10415000FC080008835357B410410008E908000820
:104160009C0A00081C0000003C090008090000002F
:104170003C09000814080240A83F0008FC08000899
:104180003C090008090000003C090008140802402E
:10419000DC3F0008FC080008835357B35441000873
:1041A000E90800089C0A00081C0000003C090008FF
:1041B000080000003C09000814080240A83F00085D
:1041C000FC0800083C090008080000003C09000841
:1041D00014080240DC3F0008FC080008835357B273
:1041E00098410008E90800089C0A00081C0000002B
:1041F0003C090008070000003C09000814080240C0
:10420000A83F0008FC0800083C090008070000005F
:104210003C09000814080240DC3F0008FC080008C4
:10422000835357B1DC410008E90800089C0A0008E4
:104230001C0000003C090008060000003C090008C2
:1042400014080240A83F0008FC0800083C090008C8
:10425000060000003C09000814080240DC3F00088A
:10426000FC0800088643532D4441C3FF2042000848
:10427000E90800089C0A0008440000003C09000806
:10428000140402403C090008004000003C400008C3
:104290003C090008140402403C090008002000000A
:1042A000684000083C090008140402403C0900086A
:1042B000001000003C400008FC0800083C09000811
:1042C000140402403C090008002000003C400008A3
:1042D000FC0800088543532D42D4FFFF64420008C8
:1042E000E90800089C0A0008440000003C09000896
:1042F000140402403C090008004000006840000827
:104300003C090008140402403C0900080020000099
:104310003C4000083C090008140402403C09000825
:10432000001000003C400008FC0800083C090008A0
:10433000140402403C090008004000003C40000812
:10434000FC0800088643532D4144C3FFD4420008B3
:10435000E90800089C0A0008440000003C09000825
:10436000140402403C090008004000003C400008E2
:104370003C090008140402403C0900080020000029
:104380003C4000083C090008140402403C090008B5
:104390000010000068400008FC0800083C09000804
:1043A000140402403C090008001000003C400008D2
:1043B000FC08000887444143574F52C44443000857
:1043C00029090008D0FE0020853F545255C5FFFF43
:1043D000B4430008D943000857F8040B00280AD05A
:1043E0004040401E47F8040D55F8042B22F003020C
:1043F00052F8043B184747F8040D55F8042B22F0F7
:10440000030252F8043B18478544414357D4FFFF49
:10441000C8430008E9080008142D0008704200088D
:104420003C090008770000003C0900080C3C0040F3
:10443000CC1D00083C090008770000003C0900087A
:104440000C3C0040CC1D00083C090008770000002F
:104450003C0900080C3C0040CC1D0008FC0800088A
:104460008F0D0A5053544154204750494F3A0D8AFA
:104470000844000879440008009801B0874600000D
:104480000352554E2000203F2000203C43523E2046
:10449000005641522043454C4C532000444943545C
:1044A000494F4E4152592042595445532000204310
:1044B0004F4D4D454E54204C494E452043414E4EA4
:1044C0004F5420424520454D505459200D0A1500A7
:1044D0002043414E5420464F5247455420464953AD
:1044E0004820494E20464C415348200D0A150020D3
:1044F000494E20464C415348202D205345452046E7
:104500004C4153485F464F52474554200D0A150011
:104510002044494354494F4E4152592046554C4C32
:10452000202D20534545202E4453200D0A150020F0
:1045300052414D205641522053504143452046554B
:104540004C4C202D20534545202E5653200D0A1546
:104550000020495320414C5245414459204445468E
:10456000494E4544200D0A1500203F204E4F54204F
:10457000574F5244200D0A1500203F204E4F542023
:10458000574F5244204F52204E554D424552200D18
:104590000A150020434155534544204120535441BE
:1045A000434B204552524F52200D0A1500205354C0
:1045B00041434B204552524F52205748494C4520C9
:1045C000455845435554494E47204F5220434F4D7F
:1045D00050494C494E47200D0A1500204552524F74
:1045E00052202D204E4F5420434F4D50494C494EA0
:1045F00047200D0A1500204552524F52202D2045CC
:1046000058454355544544205748494C4520434F4D
:104610004D50494C494E47200D0A1500E908000845
:104620005C07000805070000003C0240FC08000889
:104630003546000840F20004C2F201044FF00003C6
:104640004FF0800C53F8042B44F8042BBCF1010C00
:10465000F8D155F8042B22F0030252F8043B184716
:10466000E9080008304600085C0700080000012047
:1046700008ED00E0740700080038024090070008C9
:1046800001000000D0070008003802405C07000865
:10469000000000000838024074070008003802409B
:1046A000B0070008FFFFF6FED00700080038024000
:1046B0005C0700081030002404380240740700082A
:1046C00000380240B0070008FFFFFBFFD0070008DA
:1046D000003802405C070008000000000C3802406F
:1046E000740700080038024090070008000001002D
:1046F000D0070008003802404C0800087407000882
:1047000000380240B00700080000020064080008FA
:1047100074070008403802409007000800000010AD
:10472000D0070008403802407407000800700040BD
:104730009007000800400000D0070008007000400B
:104740003C090008083802403C090008000000004D
:104750003C4000083C090008083802403C090008B9
:10476000008000003C4000083C0900080838024076
:104770003C090008001400003C4000085C070008E9
:10478000085440070438024074070008003802400B
:104790009007000800000001D00700080038024020
:1047A0004C0800087407000800380240B0070008F1
:1047B00000000002640800081C4600087407000896
:1047C00008380240B0070008FCFFFFFFD0070008D0
:1047D00008380240740700080838024090070008B3
:1047E00002000000D0070008083802404C0800080A
:1047F0007407000808380240B00700080C000000E9
:104800003C0900080800000074280008640800083B
:104810005C0700080030005084380240740700082C
:10482000003802409007000800000004D00700088C
:10483000003802404C0800087407000800380240A5
:10484000B007000800000008640800085C070008C2
:10485000007A030A000000203C09000830380240BA
:104860003C090008870000003C4000083C090008A3
:10487000403802403C090008000004003C400008A9
:104880005C07000800770000240802401C080008AC
:10489000000802400300F0000100A0005C070008CF
:1048A0000C2000000C4800405C07000807000000D6
:1048B00010E000E03C090008303802403C090008E4
:1048C000020000003C4000083C090008403802405B
:1048D0003C090008008004103C4000083C09000826
:1048E000000402403C090008850A00553C400008CD
:1048F0003C090008200402403C09000800606600F2
:104900003C4000083C090008003C00403C0900080D
:104910003D0300003C4000083C090008003C00400A
:104920003C090008400000003C4000083C09000829
:10493000000000003C09000808040240A81D00080F
:104940003C090008800400003C0900080C040240F7
:10495000A81D00083C090008140402403C09000896
:1049600003F000003C4000083C0900080008024039
:104970003C090008155405003C4000083C090008AB
:10498000080802403C0900080000F0003C40000814
:104990003C0900080C0802403C09000800005000D7
:1049A0003C4000083C090008140802403C0900088B
:1049B000C00300003C400008FC080008BFF34F8F14
:1049C0000548016811F4E0610448014302480160B0
:1049D000BFF34F8FFEE700000CED00E00400FA0586
:1049E00072B6704762B6704780B5FFF7E7FF01BD4A
:1049F0004EF68851CEF20001086840F4700008605D
:104A0000BFF34F8FBFF36F8F4FF00070E1EE100ACE
:104A100070470000FCF79CB9FFF7FEBFFFF7FEBF31
:104A2000FFF7FEBFFFF7FEBFFFF7FEBFFFF7FEBFBA
:104A3000FFF7FEBFFCF7BCB9FFF7FEBFFFF7FEBFF5
:104A4000FFF7FEBFFFF7FEBFFFF7FEBFFFF7FEBF9A
:104A5000FFF7FEBFFFF7FEBFFFF7FEBFFFF7FEBF8A
:104A6000FFF7FEBFFFF7FEBFFFF7FEBFFFF7FEBF7A
:104A7000FFF7FEBFFFF7FEBFFFF7FEBFFFF7FEBF6A
:104A8000FFF7FEBFFFF7FEBFFFF7FEBFFFF7FEBF5A
:104A9000FFF7FEBFFFF7FEBFFFF7FEBFFFF7FEBF4A
:104AA000FFF7FEBFFFF7FEBFFFF7FEBFFFF7FEBF3A
:104AB000FFF7FEBFFFF7FEBFFFF7FEBFFFF7FEBF2A
:104AC000FFF7FEBFFFF7FEBFFFF7FEBFFFF7FEBF1A
:104AD000FFF7FEBFFFF7FEBFFFF7FEBFFFF7FEBF0A
:104AE000FFF7FEBFFFF7FEBFFFF7FEBFFFF7FEBFFA
:104AF000FFF7FEBFFFF7FEBFFFF7FEBFFFF7FEBFEA
:104B0000FFF7FEBFFFF7FEBFFFF7FEBFFFF7FEBFD9
:104B1000FFF7FEBFFFF7FEBFFFF7FEBFFFF7FEBFC9
:104B2000FFF7FEBFFFF7FEBFFFF7FEBFFFF7FEBFB9
:104B3000FFF7FEBFFFF7FEBFFFF7FEBFFFF7FEBFA9
:104B4000FFF7FEBFFFF7FEBFFFF7FEBFFFF7FEBF99
:104B5000FFF7FEBFFFF7FEBFFFF7FEBFFFF7FEBF89
:104B6000FFF7FEBFFFF7FEBFFFF7FEBFFFF7FEBF79
:104B7000FFF7FEBFFFF7FEBFFFF7FEBFFFF7FEBF69
:0400000508000D5191
:00000001FF
