:020000040800F2
:100000000000022095430008994300086943000856
:100010009D430008A1430008A5430008000000001C
:10002000000000000000000000000000A9430008DC
:10003000AD43000800000000B1430008B5430008CC
:10004000B9430008BD430008C1430008C543000888
:10005000C9430008CD430008D1430008D543000838
:10006000D9430008DD430008E1430008E5430008E8
:10007000E9430008ED430008F1430008F543000898
:10008000F9430008FD430008014400080544000846
:10009000094400080D4400081144000815440008F4
:1000A000194400081D4400082144000825440008A4
:1000B000294400082D440008314400083544000854
:1000C000394400083D440008414400084544000804
:1000D000494400084D4400085144000855440008B4
:1000E000594400085D440008614400086544000864
:1000F000694400086D440008714400087544000814
:10010000794400087D4400088144000885440008C3
:10011000894400088D440008914400089544000873
:10012000994400089D440008A1440008A544000823
:10013000A9440008AD440008B1440008B5440008D3
:10014000B9440008BD440008C1440008C544000883
:10015000C9440008CD440008D1440008D544000833
:10016000D9440008DD440008E1440008E5440008E3
:10017000E9440008ED440008F1440008F544000893
:10018000F9440008FD440008DD08000830090008B3
:100190000700000008300008F00800081D090008EA
:1001A00008000000DD0800089C0100080830000875
:1001B000102F00089C01000808300008381C0008B7
:1001C000400F0008CC1D00089028000810270008E8
:1001D0000C1C0008381E000830090008FCFFFFFF57
:1001E000300F0008A41D000830090008FFFFFFFFC2
:1001F000400F0008A41D0008F0080008DD080008F2
:10020000500700080000000008010010F008000876
:10021000DD08000850070008000000000C01001075
:10022000F0080008DD080008EC0C0008F80E0008D3
:10023000141E0008B0190008080D0008F008000896
:10024000DD080008F80E0008CC1D0008381C000866
:1002500030270008E0280008900A00081800000075
:10026000300900086200000008300008EC1B00089C
:10027000F0080008300900080A000000E028000823
:10028000900A000814000000300900086400000013
:1002900008300008F0080008300900086800000075
:1002A00008300008F0080008DD080008E425000810
:1002B000102700084825000840020008F008000840
:1002C000DD0800081027000810270008482500084E
:1002D00040020008F0080008DD080008EC0C0008E7
:1002E000381C0008F80E0008141E00083009000829
:1002F0000A000000E0280008900A00081000000032
:10030000A8020008780A000808000000C0020008DF
:10031000102F0008080D0008F00800081D0900084B
:10032000140100101D090008180100101D09000823
:100330003C0100101D09000844010010DD08000800
:1003400030090008A63F000818170008B42F00085D
:1003500034180008DD080008E40E0008A41D000899
:10036000F0080008DD080008F80F0008740F000806
:10037000141E00085027000854030008F008000865
:10038000DD080008200F0008CC1D0008AC2900087B
:1003900030090008634000086C120008F0080008EB
:1003A000DD080008200F0008CC1D000830090008F7
:1003B0007C4000086C120008F0080008DD08000806
:1003C000B828000830090008374000086C120008FF
:1003D000F0080008DD080008E81A00081C030008FF
:1003E000CC1D00080C1C0008542900083009000826
:1003F0001F4000086C120008F0080008DD08000823
:100400004C1B0008381C0008F4160008B42F000824
:10041000F416000890280008C80F0008901B000878
:10042000F0080008DD080008600F00083009000827
:100430005E000000A415000850070008010000003D
:1004400008010010F0080008DD08000880260008F8
:10045000381C0008901B0008F01D0008F80E00086A
:10046000CC1D00089C120008900A000858000000EB
:100470000C1C0008F80E0008CC1D0008340C000805
:10048000EC1B0008941A0008F80E0008CC1D0008A8
:10049000340C0008A825000838250008CC1D0008E9
:1004A00080260008900A000810000000202700089D
:1004B00038250008A41D00084C1B0008780A000815
:1004C0008CFFFFFF4C1B0008F0080008DD08000847
:1004D000B00E000884130008740F00081C110008F7
:1004E000EC090008F0080008DD0800084C1B0008B3
:1004F000381C0008C8260008901B0008CC1D000806
:1005000064030008F0080008DD080008901B0008DC
:1005100010270008701B00085C0C00084C1B00082A
:100520000C1C0008901B00085C0C00084C1B000809
:10053000F0080008DD080008E81A00082C0300088D
:10054000141E0008F0080008DD080008E81A00087A
:100550002C030008CC1D0008B8280008300900084A
:100560001F4000086C120008F0080008DD080008B1
:10057000CC040008900A00083C000000200F00088E
:10058000CC1D000824290008900A0008140000006F
:100590005811000864030008780A00080C000000E5
:1005A000581100085C0E0008D4030008780A0008FF
:1005B000C0FFFFFF740F0008FC1300083825000877
:1005C000CC1D000880260008900A000810000000DA
:1005D000F81E0008780A00080C000000EC1B000858
:1005E000281F0008D4030008780A000884FFFFFFD2
:1005F000DD0800089C1E0008B40C0008D00C0008A0
:10060000240400086C050008200F0008CC1D000819
:10061000AC290008900A00083800000030090008E2
:1006200034010010CC1D0008900A000824000000CE
:100630003009000834010010CC1D0008181700080C
:10064000B42F0008F80E0008CC1D0008542D000837
:10065000300900081000000008300008E4300008ED
:10066000780A000898FFFFFFDD080008740F0008F3
:10067000B828000854100008F0080008DD08000839
:10068000500700080000000028010010F0080008D2
:100690001D09000828010010DD080008D8290008FD
:1006A000900A000808000000602A0008F00800080E
:1006B000DD080008D8290008900A0008080000009A
:1006C00008250008F0080008DD080008E4300008EC
:1006D00030090008B00D000818170008B42F0008F2
:1006E00030090008090E000818170008B42F000888
:1006F00030090008160E000818170008B42F00086B
:10070000E4300008F0080008DD080008B008000820
:10071000A8340008F0080008DD0800080C1C0008D8
:10072000B81B000890280008300900087F0000006E
:10073000B81B0008F01D000824290008900A0008D2
:10074000E0FFFFFF0C1C0008EC1B0008F00800088D
:100750005507000802CD04CD116055F8042B22F096
:10076000030252F8043B18476D07000855F8040BC4
:10077000006847F8040D55F8042B22F0030252F8E4
:10078000043B18478907000855F8042B57F8040B59
:10079000104347F8040D55F8042B22F0030252F8D9
:1007A000043B1847A907000855F8042B57F8040B19
:1007B000104047F8040D55F8042B22F0030252F8BC
:1007C000043B1847C907000855F8043B57F8040BC9
:1007D000186055F8042B22F0030252F8043B184726
:1007E000E507000857F8043B57F8041B57F8040BBB
:1007F0001A6822EA010200EA010042EA00021A60D5
:1008000055F8042B22F0030252F8043B184700006D
:100810001508000855F8043B55F8044B55F804CB6F
:100820001A6822EA04020CEA040C42EA0C021A607A
:1008300055F8042B22F0030252F8043B184700003D
:100840004508000846F8045D55F8042B22F0030221
:1008500052F8043B184700005D08000857F8040BE5
:1008600000280CBF3568361D55F8042B22F0030212
:1008700052F8043B184700000A0000000000000086
:100880000000000000000000680500105803001080
:1008900070FA00200400001010000020000000008A
:1008A000000000000C3F0008180E000800000000C7
:1008B000B5080008074808490E2203680B60001DB0
:1008C000091D521EF9D155F8042B22F0030252F8EB
:1008D000043B1847780800080401001046F8045D3E
:1008E000154655F8042B22F0030252F8043B184732
:1008F000F508000856F8045B55F8042B22F00302B3
:1009000052F8043B1847000001CA47F8040D55F897
:10091000042B22F0030252F8043B184701CA47F89F
:10092000040D55F8042B22F0030252F8043B18473B
:100930003509000855F8040B47F8040D55F8042B49
:1009400022F0030252F8043B184700005109000846
:1009500055F8040B47F8040D55F8042B22F0030258
:1009600052F8043B184700006D09000857F8045B73
:1009700055F8042B22F0030252F8043B18470000FC
:1009800046F8045D4568083047F8040D55F8042B17
:1009900022F0030252F8043B18470000A1090008A6
:1009A000064807490968401A47F8040D55F8042B12
:1009B00022F0030252F8043B1847000010FA00200E
:1009C00024010010C9090008064807490968401AAF
:1009D00047F8040D55F8042B22F0030252F8043BAB
:1009E000184700000401001020010010F109000860
:1009F00057F8043B57F8042B93465A461878844618
:100A0000117848403F2420401DD1521C5B1C1878AF
:100A100011788842F9D08024001B884214D15B1CD5
:100A20001878FF28FBD0083347F8043D01206246C0
:100A300047F8042D47F8040D55F8042B22F0030263
:100A400052F8043B18475B1C187880242042FAD0E7
:100A50001B1D084803401B68002B00D0CDE7002079
:100A600047F8040D55F8042B22F0030252F8043B1A
:100A700018470000FCFFFFFF7D0A00082B68ED18F7
:100A800055F8042B22F0030252F8043B18470000EB
:100A9000950A000857F8040B00283FF4EFAF2D1D0E
:100AA00055F8042B22F0030252F8043B18470000CB
:100AB000B50A0008012374683268944204D0D21841
:100AC0003260A41A7FF4DAAF08362D1D55F8042BD6
:100AD00022F0030252F8043B18470000E10A000824
:100AE00057F8043BFFF7E7BFED0A000857F8040B7F
:100AF00057F8042B46F8042D46F8040D55F8042B3E
:100B000022F0030252F8043B18470000110B0008C2
:100B100057F8040B00787F21084047F8040D55F87A
:100B2000042B22F0030252F8043B1847310B000853
:100B300057F8041B0B4A92460B4B1C68121910788D
:100B4000521C884201D00028F9D15446121B1A7059
:100B500047F8040D55F8042B22F0030252F8043B29
:100B60001847000070FA002008010010710B0008FF
:100B700057F8041B57F8042B10784840107055F8AC
:100B8000042B22F0030252F8043B1847910B000893
:100B90000A21884205D157F8040B0D2047F8040DAF
:100BA00002E00D21884203D100F066F900F06CF9F3
:100BB00055F8042B22F0030252F8043B18470000BA
:100BC000C50B00083868017801290FD0022914D01C
:100BD00001440A78622A1AD0252A18D0642A18D02B
:100BE000232A16D0682A16D0242A14D055F8042BAC
:100BF00022F0030252F8043B184782782E2AE7D1EC
:100C000055F8042B22F0030252F8043B1847022443
:100C100002E00A2400E0102400220A70044A146052
:100C200055F8042B22F0030252F8043B1847000049
:100C300004010010390C000857F8040B57F8041B86
:100C4000A0FB012047F8042D47F8040D55F8042BAC
:100C500022F0030252F8043B18470000610C000820
:100C600057F8040B57F8043B57F8042B002812D010
:100C700093F0000F0FD10146B2FBF0F000FB112200
:100C800047F8042D47F8040D55F8042B22F0030211
:100C900052F8043B18474040401E024647F8042DD6
:100CA00047F8040D55F8042B22F0030252F8043BD8
:100CB00018470000B90C0008044A176855F8042BBF
:100CC00022F0030252F8043B184700001401001000
:100CD000D50C0008044A166855F8042B22F00302CC
:100CE00052F8043B1847000018010010F10C0008EE
:100CF000044A11688C4655F8042B22F0030252F87E
:100D0000043B1847040100100D0D0008044A614619
:100D1000116055F8042B22F0030252F8043B1847E7
:100D20000401001009490A480A4C0160001DA04254
:100D3000FBD3094F094E0FF2280546F8045D55F81C
:100D4000042B22F0030252F8043B18471111111131
:100D50000000002000020120680500105803001068
:100D6000B0080008E4400008902D0008E4300008B6
:100D700030090008FB0000000830000830090008B6
:100D8000F700000008300008E430000830190008BF
:100D900008CA9F4603B502490868401C086003BDA5
:100DA00000000010A90D000856F8045BBDE83F9C48
:100DB0004649534820524D2056347468204F454DC3
:100DC000207E2041524D2053544D3332463430372B
:100DD000564720444953434F20403136384D687AB6
:100DE00020284329323031342D3230313820412D02
:100DF0005445414D20464F525448203A204170728C
:100E00002032392032303138002061742031333AB9
:100E100031313A3337001500206F6B2C20676F207B
:100E20006669736820696E204241534520000000C6
:100E3000844E4F4FD0FFFFFF00000000410E00081E
:100E400055F8042B22F0030252F8043B1847000027
:100E500087455845435554C5300E0008610E0008BB
:100E600000F00AF800F010F857F8042B22F0030203
:100E700052F8043B184700007246024C2168090AE8
:100E8000FCD31047004800407246024913240C70FE
:100E900010470000044800407246024911240C70BB
:100EA00010470000044800408242CCFF500E00086A
:100EB0001D090008200000008255D0FFA80E000880
:100EC0001D090008200100108546454E43C5FFFF5F
:100ED000B80E00081D0900082C0100108244D0FF44
:100EE000C80E00081D090008240100108442415367
:100EF000C5FFFFFFDC0E00081D09000804010010FB
:100F00008743555252454ED4EC0E00081D09000887
:100F1000300100108553544154C5FFFF000F0008F5
:100F20001D09000810010010834F55D4140F00084C
:100F30001D0900080C0100108249CEFF280F00088F
:100F40001D09000808010010835041C4380F000833
:100F50001D09000810FA0020835449C2480F0008F8
:100F60001D09000870FA002084484552C5FFFFFFA4
:100F7000580F0008DD080008E40E0008CC1D00082A
:100F8000F008000885414C4C4FD4FFFF680F000863
:100F9000DD0800089C090008B81B0008B8280008F4
:100FA000D8290008900A0008080000003C03000847
:100FB000E40E0008A41D0008F008000887414C4911
:100FC000474E45C4840F0008CD0F000857F8040BA6
:100FD000C01C0549084047F8040D55F8042B22F0C1
:100FE000030252F8043B1847FCFFFFFF85414C49C0
:100FF00047CEFFFFBC0F0008DD080008740F000893
:101000004027000890280008381C0008901B0008A2
:10101000740F0008E80A000830090008FF0000000B
:10102000C81A0008381E0008B00A0008ECFFFFFFCD
:101030004C1B000830090008FCFFFFFFF02A0008E5
:10104000E40E0008141E0008F008000881ACFFFF41
:10105000EC0F0008DD0800089C090008D8290008EA
:10106000900A0008080000003C0300086403000820
:10107000F00800088243ACFF4C100008DD080008AF
:101080009C090008D8290008900A00080800000000
:101090003C030008740F0008381E000820270008D1
:1010A00054030008F008000888564152414C4C4F48
:1010B000D4FFFFFF74100008DD080008C409000811
:1010C000502700081C280008B81B0008B828000892
:1010D000D8290008900A000818000000300900080C
:1010E000C33F000818170008B42F00083418000880
:1010F000C00E0008CC1D00080C1C0008502700087A
:10110000E0270008C00E0008A41D0008F008000831
:10111000864C41544553D4FFA8100008DD08000850
:101120000C0F0008CC1D0008F0080008834C46C1D5
:10113000101100083911000857F8040B083847F857
:10114000040D55F8042B22F0030252F8043B184713
:10115000834346C12C1100085D11000857F8040BA9
:10116000001F47F8040D55F8042B22F0030252F833
:10117000043B1847834E46C150110008DD080008A3
:101180009C010008B828000820270008B82800089B
:10119000381C0008F01D000830090008FF0000009E
:1011A000B8280008900A0008E0FFFFFF3009000897
:1011B000FFFFFFFF18070008F0080008835046C132
:1011C00074110008DD08000820270008180700082F
:1011D00080260008381C0008F01D000830090008AF
:1011E000FF000000B8280008900A0008E4FFFFFF95
:1011F0009C01000890280008F0080008883F414C36
:1012000049474E45C4FFFFFFBC110008DD08000838
:101210003009000803000000F02A0008900A0008C6
:101220003C000000FC0300082E56414C5545204D63
:10123000555354204245204556454E204E4F54208C
:101240004F444420414E44204D554C5449504C4548
:10125000204F4620342120FF34180008F0080008F1
:10126000863F4552524FD2FFFC110008DD080008AE
:101270000C1C0008900A000810000000FC14000874
:10128000780A000808000000EC1B0008F0080008BD
:101290008544494749D4FFFF60120008A1120008A5
:1012A00057F8042B57F8040B303813D4092802DD03
:1012B000C01F0A280EDB90420CDA0246012047F8D4
:1012C000042D47F8040D55F8042B22F0030252F8C0
:1012D000043B1847002047F8040D55F8042B22F072
:1012E000030252F8043B184787454E434C4F53C501
:1012F00090120008F912000857F8040B3968002210
:10130000521E491E491C521C0B789842FAD047F8CD
:10131000042D002B0CD11846521C47F8042D47F819
:10132000040D55F8042B22F0030252F8043B184731
:10133000491C521C0B78984201D0002BF8D1104662
:10134000401C47F8042D47F8040D55F8042B22F0F3
:10135000030252F8043B1847C180FFFFE81200085F
:101360006513000856F8045B55F8042B22F00302BD
:1013700052F8043B1847000084574F52C4FFFFFF48
:1013800058130008DD080008600F0008400F00082F
:10139000CC1D0008902800080C1C0008F41200085E
:1013A000400F0008A41D0008B81B0008B82800085A
:1013B000901B0008701B0008740F0008381E0008FE
:1013C00090280008740F000880260008701B000891
:1013D000F81C000810270008740F00088026000879
:1013E0004C1B000890280008381E0008F008000870
:1013F000864E554D4245D2FF78130008DD0800089F
:10140000EC0C0008C00B000810270008102700088B
:10141000941A0008381C000880260008F01D0008F7
:10142000300900082D000000E028000820270008EF
:10143000F02A0008381C0008901B000890280008BB
:1014400030090008FFFFFFFF38250008141E0008C0
:1014500048040008381C0008F01D00081027000888
:10146000B8280008900A00086C000000381C00082A
:10147000F01D0008300900082E000000B828000800
:10148000900A000844000000381C0008F01D000805
:10149000300900082C000000E0280008900A00082D
:1014A0001400000030090008FFFFFFFF780A000861
:1014B00098FFFFFF080D00082027000830090008EA
:1014C000074000086C12000810270008780A00087E
:1014D00078FFFFFFEC1B00084C1B0008900A000877
:1014E0000800000008250008080D0008F0080008A2
:1014F000854552524FD2FFFFF0130008DD08000867
:10150000740F0008F4160008B42F0008181700081C
:10151000B42F0008882E0008200F0008CC1D0008FA
:10152000900A00084000000090060008CC1D00084A
:10153000900A00083000000090060008CC1D00084A
:10154000C411000834110008CC1D00080C0F00085D
:10155000141E000890060008CC1D0008E40E0008C8
:10156000141E00087C06000834180008C1A7FFFFFD
:10157000F0140008DD080008CC040008AC290008BD
:1015800030090008F93F00086C120008EC1B000845
:10159000281F0008F0080008864558504543D4FF2E
:1015A0006C150008DD08000810020008FC010008A6
:1015B00080260008B81B000890280008B81B000807
:1015C00080260008AC2E0008E80A00085030000809
:1015D0008C0B0008381C00083009000809000000C6
:1015E000E0280008900A00080C000000EC1B00082E
:1015F000B00E0008381C00089C010008E028000814
:10160000B81B0008300900087F000000E02800082F
:10161000182B0008900A000850000000EC1B00087E
:10162000381C0008C81A00085C260008E0280008DA
:10163000381C00084C1B000830270008B828000898
:1016400090280008901B0008900A00081000000075
:1016500088010008780A00086C000000A401000856
:10166000780A000860000000381C000830090008F3
:101670000D000000E0280008900A00081C0000008F
:101680002C1B0008EC1B0008B00E000810270008F7
:10169000780A000808000000381C0008C81A000872
:1016A000381E000820270008400F0008A41D00086D
:1016B00010270008C81A000880260008381E0008F5
:1016C00008300008B00A000804FFFFFF882E000859
:1016D00080260008181700080C1C00085C2600086B
:1016E000381E0008F008000885434F554ED4FFFF10
:1016F00098150008DD080008381C0008802600083E
:101700000C1C0008F01D0008F008000884244C455B
:10171000CEFFFFFFE81600081D1700083A6840409A
:10172000115C094301D0401CFAE747F8040D55F855
:10173000042B22F0030252F8043B184786464F520E
:101740004745D4FF0C170008DD0800087415000891
:10175000381C00083009000800000208242900088D
:10176000300900086A3F00086C120008381C0008A5
:10177000300900080000100824290008300900087A
:10178000873F00086C120008381C0008341100085C
:10179000901B00081C110008C41100083411000837
:1017A000381C0008CC1D00080C0F0008141E00088F
:1017B000381C0008C8260008CC1D000830090008A5
:1017C00009090008E0280008900A00081400000039
:1017D00030090008FCFFFFFFC00E0008A41D000830
:1017E000701B0008E0280008900A0008A8FFFFFF0F
:1017F0004C1B0008CC1D00080C0F0008141E00082C
:101800007C110008E40E0008141E00081C3A0008B1
:10181000EC390008F0080008834259C53C1700085D
:1018200025180008FFF77EBA8541424F52D4FFFFCA
:1018300018180008DD080008B40C0008D00C0008D7
:1018400010020008300900081C3F00081C110008A5
:10185000EC090008900A000810000000EC1B0008CA
:10186000581100085C0E000830090008380100100B
:10187000CC1D0008900A00086C0000003009000828
:10188000E818000818170008B42F0008883000086E
:10189000900A0008F8FFFFFF5030000830090008E8
:1018A00043000000E0280008900A0008E0FFFFFF66
:1018B00050300008300900084F000000E028000800
:1018C000900A0008C8FFFFFF5030000830090008E8
:1018D0000D000000E0280008900A0008B0FFFFFF9C
:1018E000E4300008F0050008204572726F7220484D
:1018F000616C74202845484F4E2F45484F46462975
:10190000202D20546F20434F6E74696E75652054EE
:1019100079706520434F207468656E20456E74654C
:10192000723A200084434F4CC4FFFFFF2818000880
:10193000DD08000808070008C8060008F0050008D0
:10194000900D0A464953482053797374656D3A0DDA
:101950008AFFFFFF24190008832E53C8401900088E
:10196000DD0800083009000810000000240200080B
:10197000F0080008832E53C458190008DD08000839
:10198000300900080A00000024020008F0080008DE
:10199000832E53C274190008DD08000830270008A0
:1019A00024020008F0080008822ED3FF90190008D6
:1019B000DD0800081C030008CC1D0008E81A000818
:1019C000C8260008E0280008AC290008900A000892
:1019D00068000000FC03000805544F533E20FFFF41
:1019E0001C030008CC1D0008E81A0008C8260008DF
:1019F000E80A0008C81A0008CC1D0008F80E000804
:101A0000CC1D0008300900080A000000E02800088A
:101A1000900A000810000000A8020008780A0008D8
:101A200008000000C0020008102F0008502700081E
:101A3000DC0A0008C0FFFFFFF008000884324455AC
:101A4000D0FFFFFFA81900084D1A000838687A680F
:101A500047F8042D47F8040D55F8042B22F0030233
:101A600052F8043B18470000842D4455D0FFFFFF77
:101A70003C1A0008DD080008381C0008900A00081D
:101A800008000000381C0008F008000883524FD4FA
:101A9000681A0008991A000857F8042B57F8041B15
:101AA00057F8040B47F8041D47F8042D47F8040DB8
:101AB00055F8042B22F0030252F8043B18470000AB
:101AC00081C9FFFF8C1A0008CD1A0008306847F85A
:101AD000040D55F8042B22F0030252F8043B18477A
:101AE000835350C0C01A0008ED1A0008384647F862
:101AF000040D55F8042B22F0030252F8043B18475A
:101B0000835250C0E01A00080D1B0008304647F809
:101B1000040D55F8042B22F0030252F8043B184739
:101B2000854C454156C5FFFF001B0008311B0008CE
:101B30003268726055F8042B22F0030252F8043B1D
:101B4000184700008252BEFF201B0008511B0008EE
:101B500056F8040B47F8040D55F8042B22F0030245
:101B600052F8043B1847000081D2FFFF441B0008D5
:101B7000751B0008306847F8040D55F8042B22F057
:101B8000030252F8043B1847823ED2FF681B00084C
:101B9000951B000857F8041B46F8041D55F8042B44
:101BA00022F0030252F8043B18470000844F5645C8
:101BB000D2FFFFFF881B0008BD1B000857F8042B4D
:101BC00057F8040B47F8040D47F8042D47F8040DA7
:101BD00055F8042B22F0030252F8043B184700008A
:101BE0008444524FD0FFFFFFAC1B0008F11B0008DC
:101BF0003F1D55F8042B22F0030252F8043B18470E
:101C000084535741D0FFFFFFE01B0008111C000860
:101C100057F8042B57F8040B47F8042D47F8040D28
:101C200055F8042B22F0030252F8043B1847000039
:101C3000834455D0001C00083D1C0008386847F854
:101C4000040D55F8042B22F0030252F8043B184708
:101C5000900D0A537461636B2053747566663A0D78
:101C60008AFFFFFF301C000887414E44424954D38D
:101C7000501C0008791C000857F8042B57F8041B67
:101C800008681040086055F8042B22F0030252F84F
:101C9000043B184787534554424954D3681C0008F5
:101CA000A51C000857F8042B57F8041B08681043BC
:101CB000086055F8042B22F0030252F8043B184741
:101CC00087434C52424954D3941C0008D11C00084D
:101CD00057F8042B57F8041B08689043086055F820
:101CE000042B22F0030252F8043B184785434D4F62
:101CF00056C5FFFFC01C0008FD1C000857F8041B58
:101D000057F8042B57F8043B002907D018781070B7
:101D1000491E002902D0521C5B1CF7D155F8042B38
:101D200022F0030252F8043B184700008446494C55
:101D3000CCFFFFFFEC1C00083D1D000857F8040B0A
:101D400057F8041B57F8042B002904D08B18107087
:101D5000521C9A42FBD155F8042B22F0030252F890
:101D6000043B18478545524153C5FFFF2C1D000811
:101D7000DD08000810270008381D0008F0080008DA
:101D800086424C414E4BD3FF641D0008DD0800081D
:101D9000B00E0008381D0008F0080008822BA1FFD3
:101DA000801D0008A91D000857F8041B57F8040BF4
:101DB0000A688018086055F8042B22F0030252F8D4
:101DC000043B184781C0FFFF9C1D0008D11D00087F
:101DD00057F8041B086847F8040D55F8042B22F047
:101DE000030252F8043B18478243C0FFC41D000899
:101DF000F51D000857F8041B087847F8040D55F83E
:101E0000042B22F0030252F8043B184781A1FFFF84
:101E1000E81D0008191E000857F8040B57F8041BAA
:101E2000016055F8042B22F0030252F8043B1847D6
:101E30008243A1FF0C1E00083D1E000857F8040B4A
:101E400057F8041B017055F8042B22F0030252F8D6
:101E5000043B18479F0D0A5265616420616E64203F
:101E60005772697465204D656D6F7279205769747A
:101E7000683A0D8A301E000881DDFFFF541E0008FD
:101E8000DD08000850070008C00000001001001025
:101E9000F0080008C1DBFFFF781E0008DD0800081D
:101EA000500700080000000010010010F0080008B2
:101EB000C95B434F4D50494C45DDFFFF941E000860
:101EC000DD080008CC040008AC290008300900082F
:101ED0001F4000086C120008EC1B00085811000895
:101EE00054100008F0080008C8444C4954455241B9
:101EF000CCFFFFFFB01E0008DD080008200F00081F
:101F0000CC1D0008900A0008100000000C1C0008FE
:101F1000281F0008281F0008F0080008C74C495473
:101F2000455241CCE81E0008DD080008200F0008DB
:101F3000CC1D0008900A000810000000E80400080A
:101F40003009000854100008F00800088223BEFF82
:101F50001C1F0008DD080008EC1B0008EC1B000833
:101F600034030008CC1D0008500F0008B81B0008FF
:101F7000B8280008F008000884484F4CC4FFFFFF51
:101F80004C1F0008DD08000830090008FFFFFFFFB4
:101F900034030008A41D000834030008CC1D000809
:101FA000381E0008F008000884534947CEFFFFFFA1
:101FB000781F0008DD080008941A0008D8290008D6
:101FC000900A000810000000300900082D000000F1
:101FD000841F0008F00800088223D3FFA81F000810
:101FE000DD0800080C200008B81B0008B81B00081A
:101FF000182B0008AC290008900A0008E8FFFFFF32
:10200000F008000881A3FFFFD81F0008DD080008C2
:10201000F80E0008CC1D000808050008941A0008F6
:102020003009000809000000B81B00082429000836
:10203000900A0008100000003009000807000000A6
:10204000902800083009000830000000902800089F
:10205000841F0008F0080008823CA3FF0420000849
:10206000DD0800085007000810FA002044010010A5
:10207000F008000885444F4553BEFFFF5820000874
:10208000DD0800084C1B00081C110008C4110008E2
:10209000381C000858110008300900087F090008A2
:1020A0000C1C0008141E0008141E0008F00800088C
:1020B000873C4255494C44D374200008DD08000891
:1020C000FC220008F0080008C52B4C4F4FD0FFFF42
:1020D000B0200008DD08000840270008BC03000805
:1020E000E8040008DC0A000868060008F008000898
:1020F000C44C4F4FD0FFFFFFC8200008DD08000888
:1021000040270008BC030008E8040008B00A0008E3
:1021100068060008F0080008C244CFFFF02000085D
:10212000DD080008E8040008E80A0008740F000849
:1021300040270008F0080008C5454E4449C6FFFF87
:1021400018210008DD080008800300083027000877
:10215000BC030008740F0008B81B0008B82800086A
:102160000C1C0008141E0008F0080008C454484560
:10217000CEFFFFFF38210008DD08000844210008D9
:10218000F0080008C4454C53C5FFFFFF6C21000850
:10219000DD08000830270008BC030008E804000838
:1021A000780A0008740F000810270008541000086F
:1021B0000C1C0008302700084421000830270008C4
:1021C000F0080008C249C6FF84210008DD080008A5
:1021D000E8040008900A0008740F0008102700089F
:1021E0005410000830270008F0080008C5554E5468
:1021F00049CCFFFFC4210008DD08000820270008A3
:10220000BC030008E8040008900A000868060008FB
:10221000F0080008C541474149CEFFFFEC21000806
:10222000DD08000820270008BC030008E8040008B7
:10223000780A000868060008F0080008C6524550F1
:102240004541D4FF14220008DD080008901B000857
:10225000901B0008202200084C1B00084C1B0008A3
:1022600030270008B828000844210008F0080008BA
:10227000C55748494CC5FFFF3C220008DD0800084F
:10228000CC210008A4260008F0080008C5424547F4
:1022900049CEFFFF70220008DD0800088003000817
:1022A000740F000820270008F0080008970D0A495D
:1022B0006E7369646520436F6C6F6E20574F524494
:1022C000533A0D8A8C22000889494D4D45444941B5
:1022D00054C5FFFFAC220008DD0800081C110008EF
:1022E00030090008400000006C0B0008F0080008EE
:1022F000864352454154C5FFC8220008DD08000846
:102300009C090008300900080F000000B8280008E8
:10231000D8290008900A0008080000003C030008C3
:10232000CC040008900A000824000000EC1B000800
:102330007C110008282F000830090008E33F00083E
:1023400018170008B42F000834180008740F00088C
:10235000381C000890060008141E0008381C0008ED
:10236000F01D0008300900081F000000A02A000826
:1023700054030008381C00083009000880000000E1
:102380006C0B0008740F0008300900088000000082
:102390006C0B000820270008E40E0008A41D0008AC
:1023A0001C110008541000080C0F0008141E00082F
:1023B000E80400081D090008740F0008C82600087A
:1023C00054100008F008000888434F4E5354414E03
:1023D000D4FFFFFFF0220008DD080008EC2300080E
:1023E000F008000883434FCEC8230008DD0800082A
:1023F000FC22000830090008FCFFFFFFE40E000883
:10240000A41D0008541000087C060008F00800080D
:10241000885641524941424CC5FFFFFFE423000862
:10242000DD08000834240008F0080008835641D273
:1024300010240008DD080008FC220008300900080C
:10244000F8FFFFFFE40E0008A41D0008E8040008E0
:102450000909000820270008B810000854100008D7
:102460007C060008F0080008C1BBFFFF2C24000810
:10247000DD08000848050008E8040008F008000826
:102480009C1E00087C060008F0080008C1BAFFFF87
:1024900068240008DD080008A003000834050008CF
:1024A000FC220008801E000830090008F8FFFFFF2A
:1024B000E40E0008A41D0008E8040008DD08000878
:1024C000F0080008960D0A43524541544520574FE5
:1024D00052445320576974683A0D8AFF8C240008CF
:1024E00084444142D3FFFFFFC4240008DD080008F4
:1024F000381C0008B0060008F008000887444E4564
:10250000474154C5E02400080D25000857F8040B86
:1025100057F8042BC043D243521C47F8042D47F808
:10252000040D55F8042B22F0030252F8043B18471F
:10253000834450CCFC2400081D0900084001001011
:1025400083442ED230250008DD080008901B0008C7
:102550000C1C0008B81B0008EC24000860200008D0
:10256000E01F0008B41F0008541F00084C1B00089F
:10257000B81B0008B8280008D42E0008B42F0008A3
:10258000F00800088244AEFF40250008DD0800087E
:102590001027000848250008102F0008F008000840
:1025A0008244ABFF84250008AD25000857F8040BD2
:1025B00057F8041B57F8043B57F8042B521858419E
:1025C00047F8042D47F8040D55F8042B22F00302B8
:1025D00052F8043B1847000084532D3EC4FFFFFF10
:1025E000A0250008E925000857F8042B40401243B5
:1025F00000D5401E47F8042D47F8040D55F8042B6C
:1026000022F0030252F8043B184700008232AAFF6E
:10261000D82500081926000857F8040B400047F891
:10262000040D55F8042B22F0030252F8043B18471E
:102630008232AFFF0C2600083D26000857F8040B35
:10264000401047F8040D55F8042B22F0030252F80D
:10265000043B18478231ADFF302600086126000890
:1026600057F8040B401E47F8040D55F8042B22F0D0
:10267000030252F8043B18478231ABFF542600088E
:102680008526000857F8040B401C47F8040D55F840
:10269000042B22F0030252F8043B18478232ABFFAE
:1026A00078260008A926000857F8040B801C47F874
:1026B000040D55F8042B22F0030252F8043B18478E
:1026C0008234ABFF9C260008CD26000857F8040B87
:1026D000001D47F8040D55F8042B22F0030252F8B0
:1026E000043B18478234ADFFC0260008F1260008DD
:1026F00057F8040B001F47F8040D55F8042B22F07F
:10270000030252F8043B184781B0FFFFE42600089B
:102710001D0900080000000081B1FFFF0827000824
:102720001D0900080100000081B2FFFF1827000802
:102730001D0900080200000081B3FFFF28270008E0
:102740001D0900080300000081B4FFFF38270008BE
:102750001D09000804000000824DAAFF4827000858
:10276000DD080008481A0008642B0008901B0008C8
:10277000882A00080C1C0008882A0008340C00086D
:102780004C1B0008B0060008F0080008824DAFFF9F
:1027900058270008DD080008B81B0008901B000837
:1027A000901B0008EC240008701B0008882A000811
:1027B0005C0C00084C1B0008701B0008642B000810
:1027C000980600080C1C00084C1B0008980600081E
:1027D0000C1C0008F008000881AAFFFF8C270008E5
:1027E000DD08000860270008EC1B0008F00800085E
:1027F000842F4D4FC4FFFFFFD8270008DD080008D5
:10280000901B0008E42500084C1B000894270008D2
:10281000F008000881AFFFFFF0270008DD0800087E
:10282000FC2700080C1C0008EC1B0008F00800083E
:10283000834D4FC414280008DD080008FC27000859
:10284000EC1B0008F0080008852A2F4D4FC4FFFF3D
:1028500030280008DD080008901B000860270008E9
:102860004C1B000894270008F0080008822AAFFFDC
:1028700048280008DD080008542800080C1C00083F
:10288000EC1B0008F008000881ABFFFF6C28000873
:102890009528000857F8040B57F8041B401847F810
:1028A000040D55F8042B22F0030252F8043B18479C
:1028B00081ADFFFF88280008BD28000857F8040BE9
:1028C00057F8041B081A47F8040D55F8042B22F09A
:1028D000030252F8043B184781BDFFFFB0280008EF
:1028E000E5280008404057F8040B57F8041B401A2D
:1028F00009D0404047F8040D55F8042B22F003029C
:1029000052F8043B1847013847F8040D55F8042BDA
:1029100022F0030252F8043B1847000081BCFFFF7D
:10292000D8280008292900084040013857F8041B1E
:1029300057F8042B914200DC404047F8040D55F84D
:10294000042B22F0030252F8043B18478255BCFFC7
:102950001C290008DD080008481A0008642B00083C
:10296000D8290008900A000818000000EC1B000895
:10297000D8290008AC290008780A00080C000000DB
:10298000B8280008D8290008F008000881BEFFFF19
:102990004C290008DD0800080C1C00082429000848
:1029A000F00800088230BDFF8C290008B12900081A
:1029B000404057F8041B002900D1401E47F8040D81
:1029C00055F8042B22F0030252F8043B184700008C
:1029D0008230BCFFA4290008DD29000857F8041B39
:1029E00040400138094300D4404047F8040D55F8F1
:1029F000042B22F0030252F8043B1847834249CECD
:102A0000D0290008DD080008500700080200000077
:102A100004010010F0080008834845D8FC2900088C
:102A2000DD08000850070008100000000401001035
:102A3000F008000887444543494D41CC182A000856
:102A4000DD080008500700080A000000040100101B
:102A5000F0080008864E45474154C5FF342A000857
:102A6000652A000857F8040BC043401C47F8040DC2
:102A700055F8042B22F0030252F8043B18470000DB
:102A8000834142D3542A0008DD080008381C00089E
:102A900098060008F0080008834D49CE802A0008F7
:102AA000DD080008481A000894290008900A000868
:102AB000080000000C1C0008EC1B0008F0080008CF
:102AC000834D41D8982A0008DD080008481A0008FC
:102AD00024290008900A0008080000000C1C0008C7
:102AE000EC1B0008F008000883414EC4C02A00080F
:102AF000F52A000857F8040B57F8041B084047F85C
:102B0000040D55F8042B22F0030252F8043B184739
:102B1000824FD2FFE82A00081D2B000857F8040B4B
:102B200057F8041B084347F8040D55F8042B22F00E
:102B3000030252F8043B1847834E4FD4102B000871
:102B4000452B000857F8040BC04347F8040D55F80F
:102B5000042B22F0030252F8043B184783584FD24B
:102B6000382B0008692B000857F8040B57F8041B92
:102B7000484047F8040D55F8042B22F0030252F8A0
:102B8000043B184784535854C8FFFFFF5C2B0008D0
:102B9000952B000857F8040B00B247F8040D55F8C0
:102BA000042B22F0030252F8043B18478453585474
:102BB000C2FFFFFF842B0008BD2B000857F8040B51
:102BC00040B247F8040D55F8042B22F0030252F8E6
:102BD000043B184784524556D7FFFFFFAC2B000833
:102BE000E52B000857F8040B00BA47F8040D55F818
:102BF000042B22F0030252F8043B1847834153D2BE
:102C0000D42B0008092C000857F8042B57F8040BA4
:102C1000104147F8040D55F8042B22F0030252F836
:102C2000043B1847834C53D2FC2B0008312C00087E
:102C300057F8042B57F8040BD04047F8040D55F80B
:102C4000042B22F0030252F8043B1847834C53CC68
:102C5000242C0008592C000857F8042B57F8040BB3
:102C6000904047F8040D55F8042B22F0030252F867
:102C7000043B1847822ED2FF4C2C0008DD080008C8
:102C8000901B0008E42500084C1B0008482500089C
:102C9000F0080008832E52D5742C0008DD080008C7
:102CA000901B00081027000860200008E01F0008A3
:102CB000541F0008381C00084C1B00080C1C00089E
:102CC000B8280008D42E0008B42F0008F008000827
:102CD0008255AEFF942C0008DD080008102700087C
:102CE0008C250008F008000881BFFFFFD02C0008E9
:102CF000DD080008CC1D0008082D0008F0080008B9
:102D000081AEFFFFE82C0008DD080008E42500087C
:102D10008C250008F0080008822EC2FF002D000854
:102D2000DD08000830270008D8020008F008000875
:102D3000822EC8FF182D0008DD08000830090008A1
:102D400010000000D8020008F0080008822EC4FF1E
:102D5000302D0008DD080008300900080A000000D6
:102D6000D8020008F0080008910D0A4E554D424562
:102D7000522053747566663A0D8AFFFF4C2D000889
:102D80008A55415254335F494E49D4FF682D00089B
:102D9000DD0800083009000800020120CC1D0008F1
:102DA000AC290008900A00081C0000003009000847
:102DB00004020120CC1D0008901B0008780A0008BE
:102DC000100000003009000880250000901B00085A
:102DD0003009000880DE80024C1B00081C28000817
:102DE0003009000808480040141E0008F0080008D8
:102DF000864D59424155C4FF802D0008DD0800086A
:102E000050070008000000000002012030090008FF
:102E100004020120141E0008F008000889554152E0
:102E200054335F4C53D2FFFFF02D0008312E0008C1
:102E30000549087847F8040D55F8042B22F00302E1
:102E400052F8043B184700000048004088554152A2
:102E500054335F52D8FFFFFF1C2E00081D090008E5
:102E6000044800408855415254335F54D8FFFFFF57
:102E70004C2E00081D0900080448004084584F46A5
:102E8000C6FFFFFF642E00088D2E0008FDF7F4FF3B
:102E9000FDF7FAFF55F8042B22F0030252F8043B29
:102EA0001847000083584FCE7C2E0008B12E000832
:102EB000FDF7E2FFFDF7F0FF55F8042B22F00302C7
:102EC00052F8043B18470000865350414345D3FF56
:102ED000A42E0008DD08000810270008C82A0008F2
:102EE000741A0008900A0008180000001027000853
:102EF000E80A0008102F0008B00A0008F8FFFFFFDA
:102F0000F00800088553504143C5FFFFC82E000854
:102F1000DD080008B00E000808300008F0080008BE
:102F2000834944AE042F0008DD080008F4160008A9
:102F3000300900081F000000F02A0008B42F000824
:102F4000102F0008F0080008C22EA2FF202F000852
:102F5000DD0800083009000822000000200F0008EA
:102F6000CC1D0008900A00082C000000E8040008AE
:102F7000FC03000884130008740F0008F01D00080B
:102F800080260008C80F000854030008780A0008CB
:102F90001400000084130008740F0008F4160008E1
:102FA000B42F0008F008000884545950C5FFFFFFF3
:102FB000482F0008DD080008741A0008900A00086D
:102FC00034000000882E0008B81B00089028000874
:102FD0000C1C0008E80A0008C81A00080C0B0008BE
:102FE00008300008B00A0008F0FFFFFF780A000868
:102FF00008000000EC1B0008F008000884454D495B
:10300000D4FFFFFFA82F00080D30000857F8040B6D
:10301000FDF732FF0649087006490868401C086041
:1030200055F8042B22F0030252F8043B1847000025
:10303000044800400C010010834B45D9FC2F0008C8
:10304000DD080008AC2E000850300008F008000829
:1030500055300008074A084B19688909FCD31068E5
:1030600047F8040D55F8042B22F0030252F8043BF4
:10307000184700000448004000480040843F4B458A
:10308000D9FFFFFF383000088D300008FDF7F4FE4F
:10309000FDF702FF4040074B1968890900D301384A
:1030A00047F8040D55F8042B22F0030252F8043BB4
:1030B0001847000000480040834352D37C3000088A
:1030C000DD08000810270008E80A0008E4300008BE
:1030D000B00A0008F8FFFFFFF00800088243D2FFA3
:1030E000B8300008DD08000810020008FC030008E2
:1030F000020D0AFFF00800088C0D0A4649534820CB
:10310000494F3A0D8AFFFFFFDC3000088B495251CE
:10311000535F524553554DC5F83000082131000822
:1031200001F020F955F8042B22F0030252F8043B79
:10313000184700008C495251535F53555350454E28
:10314000C4FFFFFF0C3100084D31000801F008F901
:1031500055F8042B22F0030252F8043B18470000F4
:103160008F5359535449434B5F4952515F4F46C6A1
:10317000343100087931000804490520086055F809
:10318000042B22F0030252F8043B184710E000E041
:103190008E5359535449434B5F4952515F4FCEFFB1
:1031A00060310008A931000804490720086055F87B
:1031B000042B22F0030252F8043B184710E000E011
:1031C0008F0D0A494E54455252555054533A0D8A68
:1031D000903100088A464C4153485F534156C5FF21
:1031E000C0310008DD0800081C110008FC3A000886
:1031F00024290008900A000820000000E43000089C
:10320000FC0300080F4E4F5448494E4720544F20AE
:1032100053415645F0080008E4320008CC1D000870
:103220003009000800001008E0280008900A000893
:1032300028000000E4300008FC030008144C41534F
:103240005420464C41534820415641494C20555347
:103250004544FFFFF0080008F80F0008C00E000802
:10326000CC1D0008F4320008141E00081C110008D0
:10327000FC320008EC320008141E00081C11000883
:10328000FC3A0008E0280008900A00084800000006
:1032900098370008FC3A0008E40E0008141E0008E5
:1032A000F4320008CC1D0008C00E0008141E0008EF
:1032B000EC320008CC1D00080C0F0008141E00089A
:1032C000A8340008E43000081C3A0008EC39000873
:1032D000F00800081C11000828330008780A0008CC
:1032E0009CFFFFFF1D090008040000201D090008C5
:1032F000080000201D0900080C0000200133000810
:1033000057F8040B064A1040064A1268801847F81E
:10331000040D55F8042B22F0030252F8043B184721
:10332000FFFF0F0004000020DD080008C4110008A2
:10333000381C0008901B000858110008381C0008B1
:10334000CC1D0008300900087F090008E0280008AB
:10335000900A000828000000C8260008381C000851
:10336000381C0008CC1D0008FC3200080C1C0008AA
:10337000141E0008780A000800010000381C00082C
:10338000CC1D0008300900081D090008E0280008CD
:10339000B81B0008CC1D0008300900080909000806
:1033A000E0280008182B0008900A00081000000010
:1033B000EC1B0008780A0008C4000000C8260008BA
:1033C000381C0008CC1D000830090008300900082E
:1033D000E0280008900A000810000000C826000835
:1033E000780A0008D8FFFFFF381C0008CC1D000831
:1033F00030090008FC030008E0280008900A0008D3
:1034000020000000381C0008C8260008F01D000835
:1034100090280008C80F0008780A0008A0FFFFFFE6
:10342000381C0008CC1D000830090008F00800080E
:10343000E0280008AC290008900A00083C000000C1
:10344000381C0008CC1D0008FC3A0008942900082C
:10345000900A000868FFFFFF381C0008381C0008AD
:10346000CC1D0008FC3200080C1C0008141E0008CB
:10347000780A000848FFFFFFEC1B00084C1B0008FF
:1034800034110008381C0008CC1D0008381C000846
:103490000C0F0008141E0008FC3200080C1C000869
:1034A000141E0008F0080008DD08000830090008B4
:1034B00000000208381C0008300900080400002041
:1034C000141E0008381C0008901B0008CC1D0008C2
:1034D000E43B0008B8280008900A0008100000002B
:1034E0004C1B0008EC1B0008F0080008701B0008CB
:1034F000E4320008141E0008701B000830090008A0
:103500000800000090280008381C0008CC1D0008A6
:103510000C0F0008141E0008C8260008CC1D000867
:10352000C00E0008141E0008E4300008FC03000868
:1035300017414444454420574F5244532046524F6C
:103540004D204144445220FF701B0008382D0008D4
:103550004C1B0008C8260008CC1D0008780A00088B
:1035600054FFFFFFDD080008381C00089028000801
:10357000901B0008381C0008CC1D0008802600089D
:10358000900A000838000000E4300008FC0300083E
:10359000174552415345442042414420464C415333
:1035A0004820504147452020382D0008EC1B0008DA
:1035B0004C1B0008EC1B0008F0080008C826000897
:1035C000381C0008381C0008701B00080C1C000880
:1035D000B8280008900A00080C000000780A0008CB
:1035E00098FFFFFFE4300008FC0300080E464C4142
:1035F00053482050414745204F4B20FFB828000832
:10360000382D00084C1B0008EC1B0008F0080008CF
:103610008C464C4153485F464F524745D4FFFFFF0D
:10362000D4310008DD080008FC0300081754414BA2
:1036300045532041424F55542036205345434F4E69
:1036400044532120483100081C390008FC38000888
:10365000500700082A020100103C0240FC38000814
:103660005007000832020100103C0240FC380008FC
:10367000500700083A020100103C0240FC380008E4
:103680005007000842020100103C0240FC380008CC
:10369000500700084A020100103C0240FC380008B4
:1036A0005007000852020100103C0240FC3800089C
:1036B000500700085A020100103C0240FC38000884
:1036C0003C3900081C310008103B00081C110008A0
:1036D00094290008900A000810000000843E0008A9
:1036E000780A00081C000000300900080C3F0008A0
:1036F000FC3A0008C411000834110008141E000828
:1037000050070008000002080400002030090008EB
:1037100011111111381C0008EC320008141E0008A9
:10372000F4320008141E0008A8340008E430000831
:103730001C3A0008EC390008F0080008413700087E
:1037400057F8040B57F8041B064A50F8044B42F88C
:10375000044B8842F9D155F8042B22F0030252F8A9
:10376000043B1847D0FE002030090008D0FE00209E
:103770005C0E0008F0080008DD08000830090008A9
:103780005039000830090008A43800083C37000808
:1037900068370008F0080008DD0800084831000814
:1037A0001C390008FC38000850070008010200001E
:1037B000103C0240E4320008CC1D0008901B0008B9
:1037C0003009000810000000E4320008A41D0008C1
:1037D000740F0008901B0008FC3A0008381C000811
:1037E000CC1D0008E4320008CC1D0008141E00089F
:1037F000FC38000850270008E4320008A41D000827
:10380000C8260008381C0008701B0008B8280008EB
:10381000900A00080C000000780A0008C0FFFFFFB3
:103820004C1B0008EC1B0008EC1B000830090008CA
:1038300000000020CC1D0008701B0008141E0008AA
:10384000FC380008E4320008CC1D0008701B00089A
:10385000C8260008141E0008FC380008EC320008D6
:10386000CC1D0008701B00089C010008902800086F
:10387000141E0008FC380008F4320008CC1D0008B3
:103880004C1B0008300900080C00000090280008BC
:10389000141E0008FC3800083C3900081C310008E0
:1038A000F0080008DD080008243600084831000848
:1038B0001C390008FC38000850070008010200000D
:1038C000103C0240500700080000020804000020DD
:1038D0003009000810000000E40E0008A41D0008D4
:1038E0003C0E0008983700083C0E000824360008FB
:1038F0003C3900081C310008F008000801390008B4
:10390000054908680004FCD255F8042B22F0030294
:1039100052F8043B184700000C3C0240DD08000848
:103920005007000823016745043C02405007000887
:10393000AB89EFCD043C0240F0080008DD08000828
:103940005007000800000080103C0240F00800080A
:1039500084504F46C6FFFFFF10360008DD08000800
:10396000500700080000000034010010F0080008B3
:1039700083504FCE50390008DD080008500700087A
:10398000180E000834010010F008000881D0FFFF75
:10399000703900081D090008340100108545484FA2
:1039A00046C6FFFF8C390008DD0800081027000814
:1039B0003009000838010010141E0008F008000843
:1039C0008445484FCEFFFFFF9C390008DD08000802
:1039D000202700083009000838010010141E0008D4
:1039E000F0080008832E44D3C0390008DD08000821
:1039F0009C090008EC0C0008542D0008080D000874
:103A000030090008383F000818170008B42F0008D4
:103A1000F0080008832E56D3E4390008DD080008BA
:103A2000C4090008EC0C0008502700081C280008F6
:103A3000542D0008080D0008300900082D3F00082B
:103A400018170008B42F0008F00800088444554DEA
:103A5000D0FFFFFF143A0008DD080008B81B00087B
:103A60000C120008EC0C0008202A0008102700089F
:103A7000E80A0008E4300008381C00083009000893
:103A80000A0000009C2C000850270008102700089E
:103A9000E80A0008381C0008CC1D0008300900089E
:103AA0000E0000009C2C0008C8260008B00A000880
:103AB000E4FFFFFF88300008900A000808000000BB
:103AC0002C1B0008B00A0008ACFFFFFFEC1B00082D
:103AD000E4300008080D0008F0080008855642414F
:103AE00053C5FFFF4C3A00081D09000804000010F0
:103AF0008544424153C5FFFFDC3A00081D09000818
:103B0000100000208552424153C5FFFFF03A0008E3
:103B10001D0900080000002083434CD3043B00082B
:103B2000DD080008FC030008041B5B324AFFFFFFAE
:103B3000FC030008041B5B3B48FFFFFFE430000868
:103B4000F0080008C1A8FFFF183B0008DD080008C6
:103B500030090008290000002C0B0008AC290008DF
:103B6000900A000834000000E43000083009000822
:103B70001000000008300008240400083009000884
:103B800071FA0020F01D0008900A000810000000E3
:103B9000780A0008BCFFFFFFF008000830090008A1
:103BA0004A3F000818170008B42F0008F008000862
:103BB000C1DCFFFF443B0008DD08000810270008B7
:103BC000600F0008400F0008CC1D00089028000876
:103BD000381E0008F008000886535953434CCBFFA9
:103BE000B03B0008E93B00080549086847F8040DA8
:103BF00055F8042B22F0030252F8043B184700004A
:103C0000000000208553544354D2FFFFD83B0008E6
:103C10001D090008000000108544454C41D9FFFFF4
:103C2000043C0008293C000857F8041B57F8040B13
:103C30000C4CC043401C20600B4A11600B4A1160C1
:103C4000002806D00A4A106807211160216800295F
:103C5000FCD1106055F8042B22F0030252F8043B0B
:103C6000184700000000001014E000E018E000E039
:103C700010E000E0824DD3FF183C0008DD0800088A
:103C8000300900083F900200243C0008F0080008BA
:103C900087574F52444341D4743C0008DD08000864
:103CA000740F0008901B0008102700087C10000803
:103CB000300900080D0000007C100008740F000897
:103CC000300900080D00000084130008381C0008AB
:103CD000F01D0008300900080A000000941A0008CE
:103CE000381E0008381C000880260008900F0008C5
:103CF000300900088400000090280008701B0008AC
:103D0000381E0008300900080D0000007C10000873
:103D1000300900088A0000007C100008F80F000835
:103D20001C110008541000084C1B00083009000842
:103D300030010010141E0008F008000885574F528B
:103D400044D3FFFF903C0008DD080008402700082E
:103D5000D42E00081C110008882E00081027000827
:103D6000B81B000880260008F01D00083009000874
:103D70000D000000E0280008AC290008900A0008A7
:103D80001C000000EC1B0008381C0008C4110008CF
:103D900034110008B81B0008B8280008300F0008CC
:103DA000CC1D000890280008300900084A000000D7
:103DB00094290008900A000810000000E430000870
:103DC00040270008D42E0008381C0008D40E000834
:103DD000CC1D000824290008900A00080C000000EF
:103DE000780A000854000000381C0008282F00083A
:103DF00030270008D42E0008381C00088026000850
:103E0000F01D0008300900080D000000E02800083F
:103E1000900A00080800000010020008C411000801
:103E200034110008CC1D0008381C0008AC2900081B
:103E3000900A000828FFFFFFEC1B0008E430000890
:103E4000F0080008874D59574F5244D33C3D0008B5
:103E5000DD08000850070008000002082C010010CF
:103E6000483D000850070008000000002C01001029
:103E7000F008000889464953485F4F4E4CD9FFFF70
:103E8000443E0008893E000809490A4C21600A4C5A
:103E900021600A490A4C21600A4C21600A490B4CF6
:103EA000216055F8042B22F0030252F8043B184716
:103EB0000C3F000830010010080000200400001032
:103EC000200100100C000020100000202401001030
:103ED00084464953C8FFFFFF743E0008DD08000810
:103EE000A8340008C8060008F0080008990D0A4622
:103EF000495348205265666572656E6365204D6F53
:103F000064656C3A0D8AFFFFD03E0008890D0A47B0
:103F100050494F3A0D8AFFFFEC3E00080352554EC0
:103F20002000203F2000203C43523E2000564152BA
:103F30002043454C4C53200044494354494F4E4183
:103F40005259204259544553200020434F4D4D456E
:103F50004E54204C494E452043414E4E4F54204232
:103F60004520454D5054592015002043414E5420C2
:103F7000464F52474554204649534820494E204613
:103F80004C41534820150020494E20464C4153488F
:103F9000202D2053454520464C4153485F464F5203
:103FA0004745542015002044494354494F4E41523F
:103FB000592046554C4C202D20534545202E445326
:103FC0002015002052414D2056415220535041436C
:103FD000452046554C4C202D20534545202E565308
:103FE00020150020495320414C524541445920445A
:103FF0004546494E4544201500203F204E4F542051
:10400000574F5244201500203F204E4F5420574F09
:104010005244204F52204E554D424552201500200B
:10402000434155534544204120535441434B20457F
:1040300052524F5220150020535441434B204552B9
:10404000524F52205748494C4520455845435554F6
:10405000494E47204F5220434F4D50494C494E47FF
:10406000201500204552524F52202D204E4F5420F3
:10407000434F4D50494C494E472015002045525260
:104080004F52202D2045584543555445442057480C
:10409000494C4520434F4D50494C494E472015004F
:1040A000DD0800085007000805070000003C02403A
:1040B000F0080008B940000840F20004C2F2010410
:1040C0004FF000034FF0800C53F8042B44F8042BFE
:1040D000BCF1010CF8D155F8042B22F0030252F880
:1040E000043B1847DD080008B440000850070008EA
:1040F0000000012008ED00E06807000800380240D9
:104100008407000801000000C407000800380240CE
:104110005007000800000000083802406807000847
:1041200000380240A4070008FFFFF6FEC40700089D
:1041300000380240500700081030002404380240C4
:104140006807000800380240A4070008FFFFFBFFD3
:10415000C4070008003802405007000800000000B3
:104160000C38024068070008003802408407000845
:1041700000000100C40700080038024040080008A1
:104180006807000800380240A40700080000020089
:1041900058080008680700084038024084070008F3
:1041A00000000010C40700084038024068070008FB
:1041B000007000408407000800400000C4070008A9
:1041C000007000403009000808380240300900083B
:1041D00000000000A01C0008300900080838024058
:1041E0003009000800800000A01C00083009000809
:1041F000083802403009000800140000A01C000824
:1042000050070008085440070438024068070008B7
:10421000003802408407000800000001C4070008BD
:1042200000380240400800086807000800380240D3
:10423000A40700080000000258080008A040000879
:104240006807000808380240A4070008FCFFFFFFC9
:10425000C407000808380240680700080838024010
:104260008407000802000000C40700080838024064
:10427000400800086807000808380240A407000842
:104280000C0000003009000808000000E0280008C9
:1042900058080008500700080030005084380240D9
:1042A0006807000800380240840700080000000486
:1042B000C4070008003802404008000868070008EA
:1042C00000380240A4070008000000085808000851
:1042D00050070008007A030A000000203009000897
:1042E000303802403009000887000000A01C000898
:1042F000300900084038024030090008000004007E
:10430000A01C0008500700080077000024080240A5
:1043100010080008000802400300F0000100A0009F
:10432000500700080C2000000C480040500700080F
:104330000700000010E000E0F0080008BFF34F8F16
:104340000548016811F4E061044801430248016036
:10435000BFF34F8FFEE700000CED00E00400FA050C
:1043600072B6704762B6704780B5FFF7E7FF01BDD0
:104370004EF68851CEF20001086840F470000860E3
:10438000BFF34F8FBFF36F8F4FF00070E1EE100A55
:1043900070470000FCF7C6BCFFF7FEBFFFF7FEBF8B
:1043A000FFF7FEBFFFF7FEBFFFF7FEBFFFF7FEBF41
:1043B000FFF7FEBFFCF7EEBCFFF7FEBFFFF7FEBF47
:1043C000FFF7FEBFFFF7FEBFFFF7FEBFFFF7FEBF21
:1043D000FFF7FEBFFFF7FEBFFFF7FEBFFFF7FEBF11
:1043E000FFF7FEBFFFF7FEBFFFF7FEBFFFF7FEBF01
:1043F000FFF7FEBFFFF7FEBFFFF7FEBFFFF7FEBFF1
:10440000FFF7FEBFFFF7FEBFFFF7FEBFFFF7FEBFE0
:10441000FFF7FEBFFFF7FEBFFFF7FEBFFFF7FEBFD0
:10442000FFF7FEBFFFF7FEBFFFF7FEBFFFF7FEBFC0
:10443000FFF7FEBFFFF7FEBFFFF7FEBFFFF7FEBFB0
:10444000FFF7FEBFFFF7FEBFFFF7FEBFFFF7FEBFA0
:10445000FFF7FEBFFFF7FEBFFFF7FEBFFFF7FEBF90
:10446000FFF7FEBFFFF7FEBFFFF7FEBFFFF7FEBF80
:10447000FFF7FEBFFFF7FEBFFFF7FEBFFFF7FEBF70
:10448000FFF7FEBFFFF7FEBFFFF7FEBFFFF7FEBF60
:10449000FFF7FEBFFFF7FEBFFFF7FEBFFFF7FEBF50
:1044A000FFF7FEBFFFF7FEBFFFF7FEBFFFF7FEBF40
:1044B000FFF7FEBFFFF7FEBFFFF7FEBFFFF7FEBF30
:1044C000FFF7FEBFFFF7FEBFFFF7FEBFFFF7FEBF20
:1044D000FFF7FEBFFFF7FEBFFFF7FEBFFFF7FEBF10
:1044E000FFF7FEBFFFF7FEBFFFF7FEBFFFF7FEBF00
:1044F000FFF7FEBFFFF7FEBFFFF7FEBFFFF7FEBFF0
:0400000500000000F7
:00000001FF
