:020000040800F2
:1000000000000220794400087D4400084D440008A7
:10001000814400088544000889440008000000006D
:100020000000000000000000000000008D440008F7
:10003000914400080000000095440008994400081D
:100040009D440008A1440008A5440008A9440008F4
:10005000AD440008B1440008B5440008B9440008A4
:10006000BD440008C1440008C5440008C944000854
:10007000CD440008D1440008D5440008D944000804
:10008000DD440008E1440008E5440008E9440008B4
:10009000ED440008F1440008F5440008F944000864
:1000A000FD44000801450008054500080945000811
:1000B0000D450008114500081545000819450008C0
:1000C0001D45000821450008254500082945000870
:1000D0002D45000831450008354500083945000820
:1000E0003D450008414500084545000849450008D0
:1000F0004D45000851450008554500085945000880
:100100005D4500086145000865450008694500082F
:100110006D450008714500087545000879450008DF
:100120007D4500088145000885450008894500088F
:100130008D4500089145000895450008994500083F
:100140009D450008A1450008A5450008A9450008EF
:10015000AD450008B1450008B5450008B94500089F
:10016000BD450008C1450008C5450008C94500084F
:10017000CD450008D1450008D5450008D9450008FF
:10018000DD450008E1450008DD08000830090008E9
:100190000700000038300008F00800081D090008BA
:1001A00008000000DD0800089C0100083830000845
:1001B000402F00089C01000838300008681C000827
:1001C000700F0008FC1D0008C02800084027000828
:1001D0003C1C0008681E000830090008FCFFFFFFF7
:1001E000600F0008D41D000830090008FFFFFFFF62
:1001F000700F0008D41D0008F0080008DD08000892
:10020000500700080000000008010010F008000876
:10021000DD08000850070008000000000C01001075
:10022000F0080008DD080008EC0C0008280F0008A2
:10023000441E0008E0190008080D0008F008000836
:10024000DD080008280F0008FC1D0008681C0008D5
:100250006027000810290008900A00081800000014
:100260003009000862000000383000081C1C00083B
:10027000F0080008300900080A00000010290008F2
:10028000900A000814000000300900086400000013
:1002900038300008F0080008300900086800000045
:1002A00038300008F0080008DD08000814260008AF
:1002B000402700087825000840020008F0080008E0
:1002C000DD080008402700084027000878250008BE
:1002D00040020008F0080008DD080008EC0C0008E7
:1002E000681C0008280F0008441E00083009000898
:1002F0000A00000010290008900A00081000000001
:10030000A8020008780A000808000000C0020008DF
:10031000402F0008080D0008F00800081D0900081B
:10032000140100101D090008180100101D09000823
:100330003C0100101D09000844010010DD08000800
:10034000300900088A40000848170008E42F000818
:1003500064180008DD080008140F0008D41D000808
:10036000F0080008DD08000828100008A40F0008A5
:10037000441E00088027000854030008F008000805
:10038000DD080008500F0008FC1D0008DC290008EB
:1003900030090008474100089C120008F0080008D6
:1003A000DD080008500F0008FC1D00083009000897
:1003B000604100089C120008F0080008DD080008F1
:1003C000E8280008300900081B4100089C120008BA
:1003D000F0080008DD080008181B00081C030008CE
:1003E000FC1D00083C1C0008842900083009000896
:1003F000034100089C120008F0080008DD0800080E
:100400007C1B0008681C000824170008E42F000863
:1004100024170008C0280008F80F0008C01B0008B7
:10042000F0080008DD080008900F000830090008F7
:100430005E000000D415000850070008010000000D
:1004400008010010F0080008DD080008B0260008C8
:10045000681C0008C01B0008201E0008280F0008A8
:10046000FC1D0008CC120008900A0008580000008B
:100470003C1C0008280F0008FC1D0008340C000874
:100480001C1C0008C41A0008280F0008FC1D0008E6
:10049000340C0008D825000868250008FC1D000859
:1004A000B0260008900A000810000000502700083D
:1004B00068250008D41D00087C1B0008780A000885
:1004C0008CFFFFFF7C1B0008F0080008DD08000817
:1004D000E00E0008B4130008A40F00084C11000837
:1004E000EC090008F0080008DD0800087C1B000883
:1004F000681C0008F8260008C01B0008FC1D000846
:1005000064030008F0080008DD080008C01B0008AC
:1005100040270008A01B00085C0C00087C1B00089A
:100520003C1C0008C01B00085C0C00087C1B000879
:10053000F0080008DD080008181B00082C0300085C
:10054000441E0008F0080008DD080008181B000819
:100550002C030008FC1D0008E828000830090008EA
:10056000034100089C120008F0080008DD0800089C
:10057000CC040008900A00083C000000500F00085E
:10058000FC1D000854290008900A0008140000000F
:100590008811000864030008780A00080C000000B5
:1005A000881100088C0E0008D4030008780A00089F
:1005B000C0FFFFFFA40F00082C14000868250008E6
:1005C000FC1D0008B0260008900A0008100000007A
:1005D000281F0008780A00080C0000001C1C0008F6
:1005E000581F0008D4030008780A000884FFFFFFA2
:1005F000DD080008CC1E0008B40C0008D00C000870
:10060000240400086C050008500F0008FC1D0008B9
:10061000DC290008900A00083800000030090008B2
:1006200034010010FC1D0008900A0008240000009E
:100630003009000834010010FC1D000848170008AC
:10064000E42F0008280F0008FC1D0008842D000876
:10065000300900081000000038300008143100088C
:10066000780A000898FFFFFFDD080008A40F0008C3
:10067000E828000884100008F0080008DD080008D9
:10068000500700080000000028010010F0080008D2
:100690001D09000828010010DD080008082A0008CC
:1006A000900A000808000000902A0008F0080008DE
:1006B000DD080008082A0008900A00080800000069
:1006C00038250008F0080008DD080008143100088B
:1006D00030090008B40D000848170008E42F00088E
:1006E000300900083B0E000848170008E42F0008F6
:1006F00030090008480E000848170008E42F0008D9
:1007000014310008F0080008DD080008B0080008EF
:10071000D8340008F0080008DD0800083C1C000878
:10072000E81B0008C0280008300900087F0000000E
:10073000E81B0008201E000854290008900A000841
:10074000E0FFFFFF3C1C00081C1C0008F00800082C
:100750005507000802CD04CD116055F8042B22F096
:10076000030252F8043B18476D07000855F8040BC4
:10077000006847F8040D55F8042B22F0030252F8E4
:10078000043B18478907000855F8042B57F8040B59
:10079000104347F8040D55F8042B22F0030252F8D9
:1007A000043B1847A907000855F8042B57F8040B19
:1007B000104047F8040D55F8042B22F0030252F8BC
:1007C000043B1847C907000855F8043B57F8040BC9
:1007D000186055F8042B22F0030252F8043B184726
:1007E000E507000857F8043B57F8041B57F8040BBB
:1007F0001A6822EA010200EA010042EA00021A60D5
:1008000055F8042B22F0030252F8043B184700006D
:100810001508000855F8043B55F8044B55F804CB6F
:100820001A6822EA04020CEA040C42EA0C021A607A
:1008300055F8042B22F0030252F8043B184700003D
:100840004508000846F8045D55F8042B22F0030221
:1008500052F8043B184700005D08000857F8040BE5
:1008600000280CBF3568361D55F8042B22F0030212
:1008700052F8043B184700000A0000000000000086
:100880000000000000000000680500105803001080
:1008900070FA00200400001010000020000000008A
:1008A000000000003C3F00084A0E00080000000065
:1008B000B5080008074808490E2203680B60001DB0
:1008C000091D521EF9D155F8042B22F0030252F8EB
:1008D000043B1847780800080401001046F8045D3E
:1008E000154655F8042B22F0030252F8043B184732
:1008F000F508000856F8045B55F8042B22F00302B3
:1009000052F8043B1847000001CA47F8040D55F897
:10091000042B22F0030252F8043B184701CA47F89F
:10092000040D55F8042B22F0030252F8043B18473B
:100930003509000855F8040B47F8040D55F8042B49
:1009400022F0030252F8043B184700005109000846
:1009500055F8040B47F8040D55F8042B22F0030258
:1009600052F8043B184700006D09000857F8045B73
:1009700055F8042B22F0030252F8043B18470000FC
:1009800046F8045D4568083047F8040D55F8042B17
:1009900022F0030252F8043B18470000A1090008A6
:1009A000064807490968401A47F8040D55F8042B12
:1009B00022F0030252F8043B1847000010FA00200E
:1009C00024010010C9090008064807490968401AAF
:1009D00047F8040D55F8042B22F0030252F8043BAB
:1009E000184700000401001020010010F109000860
:1009F00057F8043B57F8042B93465A461878844618
:100A0000117848403F2420401DD1521C5B1C1878AF
:100A100011788842F9D08024001B884214D15B1CD5
:100A20001878FF28FBD0083347F8043D01206246C0
:100A300047F8042D47F8040D55F8042B22F0030263
:100A400052F8043B18475B1C187880242042FAD0E7
:100A50001B1D084803401B68002B00D0CDE7002079
:100A600047F8040D55F8042B22F0030252F8043B1A
:100A700018470000FCFFFFFF7D0A00082B68ED18F7
:100A800055F8042B22F0030252F8043B18470000EB
:100A9000950A000857F8040B00283FF4EFAF2D1D0E
:100AA00055F8042B22F0030252F8043B18470000CB
:100AB000B50A0008012374683268944204D0D21841
:100AC0003260A41A7FF4DAAF08362D1D55F8042BD6
:100AD00022F0030252F8043B18470000E10A000824
:100AE00057F8043BFFF7E7BFED0A000857F8040B7F
:100AF00057F8042B46F8042D46F8040D55F8042B3E
:100B000022F0030252F8043B18470000110B0008C2
:100B100057F8040B00787F21084047F8040D55F87A
:100B2000042B22F0030252F8043B1847310B000853
:100B300057F8041B0B4A92460B4B1C68121910788D
:100B4000521C884201D00028F9D15446121B1A7059
:100B500047F8040D55F8042B22F0030252F8043B29
:100B60001847000070FA002008010010710B0008FF
:100B700057F8041B57F8042B10784840107055F8AC
:100B8000042B22F0030252F8043B1847910B000893
:100B90000A21884205D157F8040B0D2047F8040DAF
:100BA00002E00D21884203D100F07EF900F084F9C3
:100BB00055F8042B22F0030252F8043B18470000BA
:100BC000C50B00083868017801290FD0022914D01C
:100BD00001440A78622A1AD0252A18D0642A18D02B
:100BE000232A16D0682A16D0242A14D055F8042BAC
:100BF00022F0030252F8043B184782782E2AE7D1EC
:100C000055F8042B22F0030252F8043B1847022443
:100C100002E00A2400E0102400220A70044A146052
:100C200055F8042B22F0030252F8043B1847000049
:100C300004010010390C000857F8040B57F8041B86
:100C4000A0FB012047F8042D47F8040D55F8042BAC
:100C500022F0030252F8043B18470000610C000820
:100C600057F8040B57F8043B57F8042B002812D010
:100C700093F0000F0FD10146B2FBF0F000FB112200
:100C800047F8042D47F8040D55F8042B22F0030211
:100C900052F8043B18474040401E024647F8042DD6
:100CA00047F8040D55F8042B22F0030252F8043BD8
:100CB00018470000B90C0008044A176855F8042BBF
:100CC00022F0030252F8043B184700001401001000
:100CD000D50C0008044A166855F8042B22F00302CC
:100CE00052F8043B1847000018010010F10C0008EE
:100CF000044A11688C4655F8042B22F0030252F87E
:100D0000043B1847040100100D0D0008044A614619
:100D1000116055F8042B22F0030252F8043B1847E7
:100D20000401001009490A480A4C0160001DA04254
:100D3000FBD3094F094E0FF2280546F8045D55F81C
:100D4000042B22F0030252F8043B18471111111131
:100D50000000002000020120680500105803001068
:100D60004C3F0008B0080008C8410008C02D00082A
:100D70001431000830090008FB000000383000087A
:100D800030090008F700000038300008143100086E
:100D90006019000808CA9F4603B502490868401C4C
:100DA000086003BD00000010AD0D000856F8045B9C
:100DB000BDE83F9C4649534820524D205634746844
:100DC000204F454D207E2041524D2044656275677D
:100DD0005372632020313031302C31313030202DAE
:100DE0002045484F4E2F45484F4646202D31205430
:100DF00072756520466C61672053544D333246341A
:100E00003037564720444953434F20403136384D00
:100E1000687A20284329323031342D32303138205D
:100E2000412D5445414D20464F525448203A204FC1
:100E30006374203234203230313800206174203223
:100E4000313A33353A3339001500206F6B2C206767
:100E50006F206669736820696E2042415345200007
:100E6000844E4F4FD0FFFFFF00000000710E0008BE
:100E700055F8042B22F0030252F8043B18470000F7
:100E800087455845435554C5600E0008910E00082B
:100E900000F00AF800F010F857F8042B22F00302D3
:100EA00052F8043B184700007246024C2168090AB8
:100EB000FCD31047004800407246024913240C70CE
:100EC00010470000044800407246024911240C708B
:100ED00010470000044800408242CCFF800E00080A
:100EE0001D090008200000008255D0FFD80E000820
:100EF0001D090008200100108546454E43C5FFFF2F
:100F0000E80E00081D0900082C0100108244D0FFE3
:100F1000F80E00081D090008240100108442415306
:100F2000C5FFFFFF0C0F00081D0900080401001099
:100F30008743555252454ED41C0F00081D09000826
:100F4000300100108553544154C5FFFF300F000895
:100F50001D09000810010010834F55D4440F0008EC
:100F60001D0900080C0100108249CEFF580F00082F
:100F70001D09000808010010835041C4680F0008D3
:100F80001D09000810FA0020835449C2780F000898
:100F90001D09000870FA002084484552C5FFFFFF74
:100FA000880F0008DD080008140F0008FC1D000869
:100FB000F008000885414C4C4FD4FFFF980F000803
:100FC000DD0800089C090008E81B0008E828000864
:100FD000082A0008900A0008080000003C030008E6
:100FE000140F0008D41D0008F008000887414C4980
:100FF000474E45C4B40F0008FD0F000857F8040B16
:10100000C01C0549084047F8040D55F8042B22F090
:10101000030252F8043B1847FCFFFFFF85414C498F
:1010200047CEFFFFEC0F0008DD080008A40F000802
:1010300070270008C0280008681C0008C01B0008B2
:10104000A40F0008E80A000830090008FF000000AB
:10105000F81A0008681E0008B00A0008ECFFFFFF3D
:101060007C1B000830090008FCFFFFFF202B000854
:10107000140F0008441E0008F008000881ACFFFFB0
:101080001C100008DD0800089C090008082A000858
:10109000900A0008080000003C03000864030008F0
:1010A000F00800088243ACFF7C100008DD0800084F
:1010B0009C090008082A0008900A0008080000009F
:1010C0003C030008A40F0008681E00085027000811
:1010D00054030008F008000888564152414C4C4F18
:1010E000D4FFFFFFA4100008DD080008C4090008B1
:1010F000802700084C280008E81B0008E8280008A2
:10110000082A0008900A00081800000030090008AA
:10111000A740000848170008E42F000864180008DA
:10112000F00E0008FC1D00083C1C00088027000889
:1011300010280008F00E0008D41D0008F008000870
:10114000864C41544553D4FFD8100008DD080008F0
:101150003C0F0008FC1D0008F0080008834C46C145
:10116000401100086911000857F8040B083847F8C7
:10117000040D55F8042B22F0030252F8043B1847E3
:10118000834346C15C1100088D11000857F8040B19
:10119000001F47F8040D55F8042B22F0030252F803
:1011A000043B1847834E46C180110008DD08000843
:1011B0009C010008E828000850270008E8280008DB
:1011C000681C0008201E000830090008FF0000000D
:1011D000E8280008900A0008E0FFFFFF3009000837
:1011E000FFFFFFFF18070008F0080008835046C102
:1011F000A4110008DD08000850270008180700089F
:10120000B0260008681C0008201E000830090008ED
:10121000FF000000E8280008900A0008E4FFFFFF34
:101220009C010008C0280008F0080008883F414CD5
:1012300049474E45C4FFFFFFEC110008DD080008D8
:101240003009000803000000202B0008900A000865
:101250003C000000FC0300082E56414C5545204D33
:10126000555354204245204556454E204E4F54205C
:101270004F444420414E44204D554C5449504C4518
:10128000204F4620342120FF64180008F008000891
:10129000863F4552524FD2FF2C120008DD0800084D
:1012A0003C1C0008900A0008100000002C150008E3
:1012B000780A0008080000001C1C0008F00800085C
:1012C0008544494749D4FFFF90120008D112000815
:1012D00057F8042B57F8040B303813D4092802DDD3
:1012E000C01F0A280EDB90420CDA0246012047F8A4
:1012F000042D47F8040D55F8042B22F0030252F890
:10130000043B1847002047F8040D55F8042B22F041
:10131000030252F8043B184787454E434C4F53C5D0
:10132000C01200082913000857F8040B396800227E
:10133000521E491E491C521C0B789842FAD047F89D
:10134000042D002B0CD11846521C47F8042D47F8E9
:10135000040D55F8042B22F0030252F8043B184701
:10136000491C521C0B78984201D0002BF8D1104632
:10137000401C47F8042D47F8040D55F8042B22F0C3
:10138000030252F8043B1847C180FFFF18130008FE
:101390009513000856F8045B55F8042B22F003025D
:1013A00052F8043B1847000084574F52C4FFFFFF18
:1013B00088130008DD080008900F0008700F00086F
:1013C000FC1D0008C02800083C1C0008241300086D
:1013D000700F0008D41D0008E81B0008E82800086A
:1013E000C01B0008A01B0008A40F0008681E00080E
:1013F000C0280008A40F0008B0260008A01B0008A1
:10140000281D000840270008A40F0008B026000887
:101410007C1B0008C0280008681E0008F0080008AF
:10142000864E554D4245D2FFA8130008DD0800083E
:10143000EC0C0008C00B00084027000840270008FB
:10144000C41A0008681C0008B0260008201E000806
:10145000300900082D00000010290008502700085E
:10146000202B0008681C0008C01B0008C0280008CA
:1014700030090008FFFFFFFF68250008441E000830
:1014800048040008681C0008201E000840270008C7
:10149000E8280008900A00086C000000681C00089A
:1014A000201E0008300900082E000000E82800086F
:1014B000900A000844000000681C0008201E000874
:1014C000300900082C00000010290008900A0008CC
:1014D0001400000030090008FFFFFFFF780A000831
:1014E00098FFFFFF080D000850270008300900088A
:1014F000EB4000089C12000840270008780A00080A
:1015000078FFFFFF1C1C00087C1B0008900A0008E5
:101510000800000038250008080D0008F008000841
:10152000854552524FD2FFFF20140008DD08000805
:10153000A40F000824170008E42F0008481700082B
:10154000E42F0008B82E0008500F0008FC1D00080A
:10155000900A00084000000090060008FC1D0008EA
:10156000900A00083000000090060008FC1D0008EA
:10157000F411000864110008FC1D00083C0F00086D
:10158000441E000890060008FC1D0008140F000807
:10159000441E00087C06000864180008C1A7FFFF6D
:1015A00020150008DD080008CC040008DC2900082C
:1015B00030090008DD4000089C1200081C1C0008CF
:1015C000581F0008F0080008864558504543D4FFCE
:1015D0009C150008DD08000810020008FC01000846
:1015E000B0260008E81B0008C0280008E81B000817
:1015F000B0260008DC2E0008E80A00088030000849
:101600008C0B0008681C0008300900080900000065
:1016100010290008900A00080C0000001C1C00089B
:10162000E00E0008681C00089C0100081029000852
:10163000E81B0008300900087F000000102900089E
:10164000482B0008900A0008500000001C1C0008ED
:10165000681C0008F81A00088C26000810290008E9
:10166000681C00087C1B000860270008E8280008A8
:10167000C0280008C01B0008900A000810000000E5
:1016800088010008780A00086C000000A401000826
:10169000780A000860000000681C00083009000893
:1016A0000D00000010290008900A00081C0000002E
:1016B0005C1B00081C1C0008E00E00084027000806
:1016C000780A000808000000681C0008F81A0008E2
:1016D000681E000850270008700F0008D41D00087D
:1016E00040270008F81A0008B0260008681E000805
:1016F00038300008B00A000804FFFFFFB82E0008C9
:10170000B0260008481700083C1C00088C2600087A
:10171000681E0008F008000885434F554ED4FFFFAF
:10172000C8150008DD080008681C0008B02600087D
:101730003C1C0008201E0008F008000884244C45CA
:10174000CEFFFFFF181700084D1700083A68404009
:10175000115C094301D0401CFAE747F8040D55F825
:10176000042B22F0030252F8043B184786464F52DE
:101770004745D4FF3C170008DD080008A415000801
:10178000681C0008300900080000020854290008FD
:10179000300900084E4000089C120008681C000830
:1017A000300900080000100854290008300900081A
:1017B0006B4000089C120008681C000864110008B7
:1017C000C01B00084C110008F41100086411000847
:1017D000681C0008FC1D00083C0F0008441E00089F
:1017E000681C0008F8260008FC1D000830090008E5
:1017F0000909000810290008900A000814000000D8
:1018000030090008FCFFFFFFF00E0008D41D00089F
:10181000A01B000810290008900A0008A8FFFFFF7D
:101820007C1B0008FC1D00083C0F0008441E00083B
:10183000AC110008140F0008441E00084C3A0008C0
:101840001C3A0008F0080008834259C56C170008CC
:1018500055180008FFF766BA8541424F52D4FFFF82
:1018600048180008DD080008B40C0008D00C000877
:101870001002000830090008004000084C11000860
:10188000EC090008900A0008100000001C1C000869
:10189000881100088C0E000830090008380100107B
:1018A000FC1D0008900A00086C00000030090008C8
:1018B0001819000848170008E42F0008B83000087D
:1018C000900A0008F8FFFFFF803000083009000888
:1018D0004300000010290008900A0008E0FFFFFF05
:1018E00080300008300900084F000000102900086F
:1018F000900A0008C8FFFFFF803000083009000888
:101900000D00000010290008900A0008B0FFFFFF3A
:1019100014310008F0050008204572726F722048EB
:10192000616C74202845484F4E2F45484F46462944
:10193000202D20546F20434F6E74696E75652054BE
:1019400079706520434F207468656E20456E74651C
:10195000723A200084434F4CC4FFFFFF5818000820
:10196000DD08000808070008C8060008F0050008A0
:10197000900D0A464953482053797374656D3A0DAA
:101980008AFFFFFF54190008832E53C870190008FE
:10199000DD080008300900081000000024020008DB
:1019A000F0080008832E53C488190008DD080008D9
:1019B000300900080A00000024020008F0080008AE
:1019C000832E53C2A4190008DD0800086027000810
:1019D00024020008F0080008822ED3FFC019000876
:1019E000DD0800081C030008FC1D0008181B000887
:1019F000F826000810290008DC290008900A0008D1
:101A000068000000FC03000805544F533E20FFFF10
:101A10001C030008FC1D0008181B0008F82600081D
:101A2000E80A0008F81A0008FC1D0008280F000842
:101A3000FC1D0008300900080A00000010290008F9
:101A4000900A000810000000A8020008780A0008A8
:101A500008000000C0020008402F0008802700088E
:101A6000DC0A0008C0FFFFFFF0080008843244557C
:101A7000D0FFFFFFD81900087D1A000838687A687F
:101A800047F8042D47F8040D55F8042B22F0030203
:101A900052F8043B18470000842D4455D0FFFFFF47
:101AA0006C1A0008DD080008681C0008900A00088D
:101AB00008000000681C0008F008000883524FD49A
:101AC000981A0008C91A000857F8042B57F8041B85
:101AD00057F8040B47F8041D47F8042D47F8040D88
:101AE00055F8042B22F0030252F8043B184700007B
:101AF00081C9FFFFBC1A0008FD1A0008306847F8CA
:101B0000040D55F8042B22F0030252F8043B184749
:101B1000835350C0F01A00081D1B0008384647F8D0
:101B2000040D55F8042B22F0030252F8043B184729
:101B3000835250C0101B00083D1B0008304647F878
:101B4000040D55F8042B22F0030252F8043B184709
:101B5000854C454156C5FFFF301B0008611B00083E
:101B60003268726055F8042B22F0030252F8043BED
:101B7000184700008252BEFF501B0008811B00085E
:101B800056F8040B47F8040D55F8042B22F0030215
:101B900052F8043B1847000081D2FFFF741B000875
:101BA000A51B0008306847F8040D55F8042B22F0F7
:101BB000030252F8043B1847823ED2FF981B0008EC
:101BC000C51B000857F8041B46F8041D55F8042BE4
:101BD00022F0030252F8043B18470000844F564598
:101BE000D2FFFFFFB81B0008ED1B000857F8042BBD
:101BF00057F8040B47F8040D47F8042D47F8040D77
:101C000055F8042B22F0030252F8043B1847000059
:101C10008444524FD0FFFFFFDC1B0008211C00084A
:101C20003F1D55F8042B22F0030252F8043B1847DD
:101C300084535741D0FFFFFF101C0008411C0008CF
:101C400057F8042B57F8040B47F8042D47F8040DF8
:101C500055F8042B22F0030252F8043B1847000009
:101C6000834455D0301C00086D1C0008386847F8C4
:101C7000040D55F8042B22F0030252F8043B1847D8
:101C8000900D0A537461636B2053747566663A0D48
:101C90008AFFFFFF601C000887414E44424954D32D
:101CA000801C0008A91C000857F8042B57F8041BD7
:101CB00008681040086055F8042B22F0030252F81F
:101CC000043B184787534554424954D3981C000895
:101CD000D51C000857F8042B57F8041B086810435C
:101CE000086055F8042B22F0030252F8043B184711
:101CF00087434C52424954D3C41C0008011D0008BC
:101D000057F8042B57F8041B08689043086055F8EF
:101D1000042B22F0030252F8043B184785434D4F31
:101D200056C5FFFFF01C00082D1D000857F8041BC6
:101D300057F8042B57F8043B002907D01878107087
:101D4000491E002902D0521C5B1CF7D155F8042B08
:101D500022F0030252F8043B184700008446494C25
:101D6000CCFFFFFF1C1D00086D1D000857F8040B79
:101D700057F8041B57F8042B002904D08B18107057
:101D8000521C9A42FBD155F8042B22F0030252F860
:101D9000043B18478545524153C5FFFF5C1D0008B1
:101DA000DD08000840270008681D0008F00800084A
:101DB00086424C414E4BD3FF941D0008DD080008BD
:101DC000E00E0008681D0008F0080008822BA1FF43
:101DD000B01D0008D91D000857F8041B57F8040B64
:101DE0000A688018086055F8042B22F0030252F8A4
:101DF000043B184781C0FFFFCC1D0008011E0008EE
:101E000057F8041B086847F8040D55F8042B22F016
:101E1000030252F8043B18478243C0FFF41D000838
:101E2000251E000857F8041B087847F8040D55F8DC
:101E3000042B22F0030252F8043B184781A1FFFF54
:101E4000181E0008491E000857F8040B57F8041B19
:101E5000016055F8042B22F0030252F8043B1847A6
:101E60008243A1FF3C1E00086D1E000857F8040BBA
:101E700057F8041B017055F8042B22F0030252F8A6
:101E8000043B18479F0D0A5265616420616E64200F
:101E90005772697465204D656D6F7279205769744A
:101EA000683A0D8A601E000881DDFFFF841E00086D
:101EB000DD08000850070008C000000010010010F5
:101EC000F0080008C1DBFFFFA81E0008DD080008BD
:101ED000500700080000000010010010F008000882
:101EE000C95B434F4D50494C45DDFFFFC41E000800
:101EF000DD080008CC040008DC29000830090008CF
:101F0000034100089C1200081C1C000888110008EE
:101F100084100008F0080008C8444C495445524158
:101F2000CCFFFFFFE01E0008DD080008500F00088E
:101F3000FC1D0008900A0008100000003C1C00086E
:101F4000581F0008581F0008F0080008C74C4954E3
:101F5000455241CC181F0008DD080008500F00084A
:101F6000FC1D0008900A000810000000E8040008AA
:101F70003009000884100008F00800088223BEFF22
:101F80004C1F0008DD0800081C1C00081C1C000871
:101F900034030008FC1D0008800F0008E81B00083F
:101FA000E8280008F008000884484F4CC4FFFFFFF1
:101FB0007C1F0008DD08000830090008FFFFFFFF54
:101FC00034030008D41D000834030008FC1D000879
:101FD000681E0008F008000884534947CEFFFFFF41
:101FE000A81F0008DD080008C41A0008082A000815
:101FF000900A000810000000300900082D000000C1
:10200000B41F0008F00800088223D3FFD81F00087F
:10201000DD0800083C200008E81B0008E81B000859
:10202000482B0008DC290008900A0008E8FFFFFFA1
:10203000F008000881A3FFFF08200008DD08000861
:10204000280F0008FC1D000808050008C41A000835
:102050003009000809000000E81B000854290008A6
:10206000900A000810000000300900080700000076
:10207000C02800083009000830000000C02800080F
:10208000B41F0008F0080008823CA3FF34200008B9
:10209000DD0800085007000810FA00204401001075
:1020A000F008000885444F4553BEFFFF8820000814
:1020B000DD0800087C1B00084C110008F411000822
:1020C000681C000888110008300900087F09000812
:1020D0003C1C0008441E0008441E0008F0080008CC
:1020E000873C4255494C44D3A4200008DD08000831
:1020F0002C230008F0080008C52B4C4F4FD0FFFFE1
:10210000E0200008DD08000870270008BC03000874
:10211000E8040008DC0A000868060008F008000867
:10212000C44C4F4FD0FFFFFFF8200008DD08000827
:1021300070270008BC030008E8040008B00A000883
:1021400068060008F0080008C244CFFF20210008FC
:10215000DD080008E8040008E80A0008A40F0008E9
:1021600070270008F0080008C5454E4449C6FFFF27
:1021700048210008DD0800088003000860270008E7
:10218000BC030008A40F0008E81B0008E8280008AA
:102190003C1C0008441E0008F0080008C4544845D0
:1021A000CEFFFFFF68210008DD0800087421000849
:1021B000F0080008C4454C53C5FFFFFF9C210008F0
:1021C000DD08000860270008BC030008E8040008D8
:1021D000780A0008A40F00084027000884100008AF
:1021E0003C1C0008602700087421000860270008D4
:1021F000F0080008C249C6FFB4210008DD08000845
:10220000E8040008900A0008A40F0008402700080E
:102210008410000860270008F0080008C5554E54D7
:1022200049CCFFFFF4210008DD0800085027000812
:10223000BC030008E8040008900A000868060008CB
:10224000F0080008C541474149CEFFFF1C220008A5
:10225000DD08000850270008BC030008E804000857
:10226000780A000868060008F0080008C6524550C1
:102270004541D4FF44220008DD080008C01B0008C7
:10228000C01B0008502200087C1B00087C1B0008B3
:1022900060270008E828000874210008F0080008FA
:1022A000C55748494CC5FFFF6C220008DD080008EF
:1022B000FC210008D4260008F0080008C542454764
:1022C00049CEFFFFA0220008DD08000880030008B7
:1022D000A40F000850270008F0080008970D0A49CD
:1022E0006E7369646520436F6C6F6E20574F524464
:1022F000533A0D8ABC22000889494D4D4544494155
:1023000054C5FFFFDC220008DD0800084C1100085E
:1023100030090008400000006C0B0008F0080008BD
:10232000864352454154C5FFF8220008DD080008E5
:102330009C090008300900080F000000E828000888
:10234000082A0008900A0008080000003C03000862
:10235000CC040008900A0008240000001C1C00089F
:10236000AC110008582F000830090008C7400008C9
:1023700048170008E42F000864180008A40F00089C
:10238000681C000890060008441E0008681C00082D
:10239000201E0008300900081F000000D02A000895
:1023A00054030008681C0008300900088000000081
:1023B0006C0B0008A40F0008300900088000000022
:1023C0006C0B000850270008140F0008D41D0008EB
:1023D0004C110008841000083C0F0008441E00083F
:1023E000E80400081D090008A40F0008F8260008EA
:1023F00084100008F008000888434F4E5354414EA3
:10240000D4FFFFFF20230008DD0800081C2400087B
:10241000F008000883434FCEF8230008DD080008C9
:102420002C23000830090008FCFFFFFF140F0008F0
:10243000D41D0008841000087C060008F00800087D
:10244000885641524941424CC5FFFFFF1424000801
:10245000DD08000864240008F0080008835641D213
:1024600040240008DD0800082C230008300900087B
:10247000F8FFFFFF140F0008D41D0008E80400084F
:102480000909000850270008E81000088410000817
:102490007C060008F0080008C1BBFFFF5C240008B0
:1024A000DD08000848050008E8040008F0080008F6
:1024B000CC1E00087C060008F0080008C1BAFFFF27
:1024C00098240008DD080008A0030008340500086F
:1024D0002C230008B01E000830090008F8FFFFFF99
:1024E000140F0008D41D0008E8040008DD080008E7
:1024F000F0080008960D0A43524541544520574FB5
:1025000052445320576974683A0D8AFFBC2400086E
:1025100084444142D3FFFFFFF4240008DD08000893
:10252000681C0008B0060008F008000887444E4503
:10253000474154C5102500083D25000857F8040BF5
:1025400057F8042BC043D243521C47F8042D47F8D8
:10255000040D55F8042B22F0030252F8043B1847EF
:10256000834450CC2C2500081D09000840010010B0
:1025700083442ED260250008DD080008C01B000837
:102580003C1C0008E81B00081C25000890200008DF
:1025900010200008E41F0008841F00087C1B0008AE
:1025A000E81B0008E8280008042F0008E42F0008B2
:1025B000F00800088244AEFF70250008DD0800081E
:1025C0004027000878250008402F0008F008000880
:1025D0008244ABFFB4250008DD25000857F8040B42
:1025E00057F8041B57F8043B57F8042B521858416E
:1025F00047F8042D47F8040D55F8042B22F0030288
:1026000052F8043B1847000084532D3EC4FFFFFFDF
:10261000D02500081926000857F8042B4040124323
:1026200000D5401E47F8042D47F8040D55F8042B3B
:1026300022F0030252F8043B184700008232AAFF3E
:10264000082600084926000857F8040B400047F800
:10265000040D55F8042B22F0030252F8043B1847EE
:102660008232AFFF3C2600086D26000857F8040BA5
:10267000401047F8040D55F8042B22F0030252F8DD
:10268000043B18478231ADFF602600089126000800
:1026900057F8040B401E47F8040D55F8042B22F0A0
:1026A000030252F8043B18478231ABFF842600082E
:1026B000B526000857F8040B401C47F8040D55F8E0
:1026C000042B22F0030252F8043B18478232ABFF7E
:1026D000A8260008D926000857F8040B801C47F8E4
:1026E000040D55F8042B22F0030252F8043B18475E
:1026F0008234ABFFCC260008FD26000857F8040BF7
:10270000001D47F8040D55F8042B22F0030252F87F
:10271000043B18478234ADFFF0260008212700084B
:1027200057F8040B001F47F8040D55F8042B22F04E
:10273000030252F8043B184781B0FFFF142700083A
:102740001D0900080000000081B1FFFF38270008C4
:102750001D0900080100000081B2FFFF48270008A2
:102760001D0900080200000081B3FFFF5827000880
:102770001D0900080300000081B4FFFF682700085E
:102780001D09000804000000824DAAFF78270008F8
:10279000DD080008781A0008942B0008C01B000808
:1027A000B82A00083C1C0008B82A0008340C0008AD
:1027B0007C1B0008B0060008F0080008824DAFFF3F
:1027C00088270008DD080008E81B0008C01B000877
:1027D000C01B00081C250008A01B0008B82A000820
:1027E0005C0C00087C1B0008A01B0008942B000850
:1027F000980600083C1C00087C1B0008980600088E
:102800003C1C0008F008000881AAFFFFBC27000854
:10281000DD080008902700081C1C0008F0080008CC
:10282000842F4D4FC4FFFFFF08280008DD08000873
:10283000C01B0008142600087C1B0008C4270008E1
:10284000F008000881AFFFFF20280008DD0800081D
:102850002C2800083C1C00081C1C0008F00800087C
:10286000834D4FC444280008DD0800082C280008C8
:102870001C1C0008F0080008852A2F4D4FC4FFFFDC
:1028800060280008DD080008C01B00089027000829
:102890007C1B0008C4270008F0080008822AAFFF4C
:1028A00078280008DD080008842800083C1C00087F
:1028B0001C1C0008F008000881ABFFFF9C280008E2
:1028C000C528000857F8040B57F8041B401847F8B0
:1028D000040D55F8042B22F0030252F8043B18476C
:1028E00081ADFFFFB8280008ED28000857F8040B59
:1028F00057F8041B081A47F8040D55F8042B22F06A
:10290000030252F8043B184781BDFFFFE02800088E
:1029100015290008404057F8040B57F8041B401ACB
:1029200009D0404047F8040D55F8042B22F003026B
:1029300052F8043B1847013847F8040D55F8042BAA
:1029400022F0030252F8043B1847000081BCFFFF4D
:1029500008290008592900084040013857F8041B8D
:1029600057F8042B914200DC404047F8040D55F81D
:10297000042B22F0030252F8043B18478255BCFF97
:102980004C290008DD080008781A0008942B00087C
:10299000082A0008900A0008180000001C1C000803
:1029A000082A0008DC290008780A00080C0000004A
:1029B000E8280008082A0008F008000881BEFFFF88
:1029C0007C290008DD0800083C1C00085429000888
:1029D000F00800088230BDFFBC290008E12900088A
:1029E000404057F8041B002900D1401E47F8040D51
:1029F00055F8042B22F0030252F8043B184700005C
:102A00008230BCFFD42900080D2A000857F8041BA7
:102A100040400138094300D4404047F8040D55F8C0
:102A2000042B22F0030252F8043B1847834249CE9C
:102A3000002A0008DD080008500700080200000016
:102A400004010010F0080008834845D82C2A00082B
:102A5000DD08000850070008100000000401001005
:102A6000F008000887444543494D41CC482A0008F6
:102A7000DD080008500700080A00000004010010EB
:102A8000F0080008864E45474154C5FF642A0008F7
:102A9000952A000857F8040BC043401C47F8040D62
:102AA00055F8042B22F0030252F8043B18470000AB
:102AB000834142D3842A0008DD080008681C00080E
:102AC00098060008F0080008834D49CEB02A000897
:102AD000DD080008781A0008C4290008900A0008D8
:102AE000080000003C1C00081C1C0008F00800083E
:102AF000834D41D8C82A0008DD080008781A00086C
:102B000054290008900A0008080000003C1C000836
:102B10001C1C0008F008000883414EC4F02A00087D
:102B2000252B000857F8040B57F8041B084047F8FA
:102B3000040D55F8042B22F0030252F8043B184709
:102B4000824FD2FF182B00084D2B000857F8040BBA
:102B500057F8041B084347F8040D55F8042B22F0DE
:102B6000030252F8043B1847834E4FD4402B000811
:102B7000752B000857F8040BC04347F8040D55F8AF
:102B8000042B22F0030252F8043B184783584FD21B
:102B9000682B0008992B000857F8040B57F8041B02
:102BA000484047F8040D55F8042B22F0030252F870
:102BB000043B184784535854C8FFFFFF8C2B000870
:102BC000C52B000857F8040B00B247F8040D55F860
:102BD000042B22F0030252F8043B18478453585444
:102BE000C2FFFFFFB42B0008ED2B000857F8040BC1
:102BF00040B247F8040D55F8042B22F0030252F8B6
:102C0000043B184784524556D7FFFFFFDC2B0008D2
:102C1000152C000857F8040B00BA47F8040D55F8B6
:102C2000042B22F0030252F8043B1847834153D28D
:102C3000042C0008392C000857F8042B57F8040B13
:102C4000104147F8040D55F8042B22F0030252F806
:102C5000043B1847834C53D22C2C0008612C0008ED
:102C600057F8042B57F8040BD04047F8040D55F8DB
:102C7000042B22F0030252F8043B1847834C53CC38
:102C8000542C0008892C000857F8042B57F8040B23
:102C9000904047F8040D55F8042B22F0030252F837
:102CA000043B1847822ED2FF7C2C0008DD08000868
:102CB000C01B0008142600087C1B000878250008AB
:102CC000F0080008832E52D5A42C0008DD08000867
:102CD000C01B0008402700089020000810200008B2
:102CE000841F0008681C00087C1B00083C1C0008AE
:102CF000E8280008042F0008E42F0008F008000866
:102D00008255AEFFC42C0008DD08000840270008EB
:102D1000BC250008F008000881BFFFFF002D000857
:102D2000DD080008FC1D0008382D0008F008000828
:102D300081AEFFFF182D0008DD08000814260008EA
:102D4000BC250008F0080008822EC2FF302D0008C4
:102D5000DD08000860270008D8020008F008000815
:102D6000822EC8FF482D0008DD0800083009000841
:102D700010000000D8020008F0080008822EC4FFEE
:102D8000602D0008DD080008300900080A00000076
:102D9000D8020008F0080008910D0A4E554D424532
:102DA000522053747566663A0D8AFFFF7C2D000829
:102DB0008A55415254335F494E49D4FF982D00083B
:102DC000DD0800083009000800020120FC1D000891
:102DD000DC290008900A00081C00000030090008E7
:102DE00004020120FC1D0008C01B0008780A00082E
:102DF000100000003009000800C20100C01B0008DC
:102E00003009000880DE80027C1B00084C28000886
:102E10003009000808480040441E0008F008000877
:102E2000864D59424155C4FFB02D0008DD08000809
:102E300050070008000000000002012030090008CF
:102E400004020120441E0008F00800088955415280
:102E500054335F4C53D2FFFF202E0008612E000830
:102E60000549087847F8040D55F8042B22F00302B1
:102E700052F8043B18470000004800408855415272
:102E800054335F52D8FFFFFF4C2E00081D09000885
:102E9000044800408855415254335F54D8FFFFFF27
:102EA0007C2E00081D0900080448004084584F4645
:102EB000C6FFFFFF942E0008BD2E0008FDF7F4FFAB
:102EC000FDF7FAFF55F8042B22F0030252F8043BF9
:102ED0001847000083584FCEAC2E0008E12E0008A2
:102EE000FDF7E2FFFDF7F0FF55F8042B22F0030297
:102EF00052F8043B18470000865350414345D3FF26
:102F0000D42E0008DD08000840270008F82A000831
:102F1000A41A0008900A00081800000040270008C2
:102F2000E80A0008402F0008B00A0008F8FFFFFF79
:102F3000F00800088553504143C5FFFFF82E0008F4
:102F4000DD080008E00E000838300008F00800082E
:102F5000834944AE342F0008DD0800082417000818
:102F6000300900081F000000202B0008E42F000893
:102F7000402F0008F0080008C22EA2FF502F0008C2
:102F8000DD0800083009000822000000500F00088A
:102F9000FC1D0008900A00082C000000E80400084E
:102FA000FC030008B4130008A40F0008201E00084A
:102FB000B0260008F80F000854030008780A00083B
:102FC00014000000B4130008A40F00082417000820
:102FD000E42F0008F008000884545950C5FFFFFF93
:102FE000782F0008DD080008A41A0008900A0008DD
:102FF00034000000B82E0008E81B0008C0280008B4
:103000003C1C0008E80A0008F81A00080C0B00082D
:1030100038300008B00A0008F0FFFFFF780A000807
:10302000080000001C1C0008F008000884454D49F9
:10303000D4FFFFFFD82F00083D30000857F8040BDD
:10304000FDF732FF0649087006490868401C086011
:1030500055F8042B22F0030252F8043B18470000F5
:10306000044800400C010010834B45D92C30000867
:10307000DD080008DC2E000880300008F008000899
:1030800085300008074A084B19688909FCD3106885
:1030900047F8040D55F8042B22F0030252F8043BC4
:1030A000184700000448004000480040843F4B455A
:1030B000D9FFFFFF68300008BD300008FDF7F4FEBF
:1030C000FDF702FF4040074B1968890900D301381A
:1030D00047F8040D55F8042B22F0030252F8043B84
:1030E0001847000000480040834352D3AC3000082A
:1030F000DD08000840270008E80A0008143100082D
:10310000B00A0008F8FFFFFFF00800088243D2FF72
:10311000E8300008DD08000810020008FC03000881
:10312000020D0AFFF00800088C0D0A46495348209A
:10313000494F3A0D8AFFFFFF0C3100088B4952516D
:10314000535F524553554DC5283100085131000891
:1031500001F07AF955F8042B22F0030252F8043BEF
:10316000184700008C495251535F53555350454EF8
:10317000C4FFFFFF3C3100087D31000801F062F917
:1031800055F8042B22F0030252F8043B18470000C4
:103190008F5359535449434B5F4952515F4F46C671
:1031A00064310008A931000804490520086055F879
:1031B000042B22F0030252F8043B184710E000E011
:1031C0008E5359535449434B5F4952515F4FCEFF81
:1031D00090310008D931000804490720086055F8EB
:1031E000042B22F0030252F8043B184710E000E0E1
:1031F0008F0D0A494E54455252555054533A0D8A38
:10320000C03100088A464C4153485F534156C5FFC0
:10321000F0310008DD0800084C1100082C3B0008C4
:1032200054290008900A000820000000143100080A
:10323000FC0300080F4E4F5448494E4720544F207E
:1032400053415645F008000814330008FC1D0008DF
:10325000300900080000100810290008900A000832
:103260002800000014310008FC030008144C4153EE
:103270005420464C41534820415641494C20555317
:103280004544FFFFF008000828100008F00E000871
:10329000FC1D000824330008441E00084C110008DF
:1032A0002C3300081C330008441E00084C11000891
:1032B0002C3B000810290008900A00084800000074
:1032C000C83700082C3B0008140F0008441E0008F3
:1032D00024330008FC1D0008F00E0008441E0008FE
:1032E0001C330008FC1D00083C0F0008441E0008A9
:1032F000D8340008143100084C3A00081C3A000881
:10330000F00800084C11000858330008780A00083B
:103310009CFFFFFF1D090008040000201D09000894
:10332000080000201D0900080C00002031330008AF
:1033300057F8040B064A1040064A1268801847F8EE
:10334000040D55F8042B22F0030252F8043B1847F1
:10335000FFFF0F0004000020DD080008F411000842
:10336000681C0008C01B000888110008681C0008C1
:10337000FC1D0008300900087F090008102900081A
:10338000900A000828000000F8260008681C0008C1
:10339000681C0008FC1D00082C3300083C1C0008B9
:1033A000441E0008780A000800010000681C00089C
:1033B000FC1D0008300900081D090008102900083C
:1033C000E81B0008FC1D0008300900080909000876
:1033D00010290008482B0008900A0008100000007F
:1033E0001C1C0008780A0008C4000000F826000829
:1033F000681C0008FC1D000830090008300900089E
:1034000010290008900A000810000000F8260008A3
:10341000780A0008D8FFFFFF681C0008FC1D0008A0
:1034200030090008FC03000810290008900A000871
:1034300020000000681C0008F8260008201E000874
:10344000C0280008F80F0008780A0008A0FFFFFF56
:10345000681C0008FC1D000830090008F00800087E
:1034600010290008DC290008900A00083C00000030
:10347000681C0008FC1D00082C3B0008C42900083B
:10348000900A000868FFFFFF681C0008681C00081D
:10349000FC1D00082C3300083C1C0008441E0008DA
:1034A000780A000848FFFFFF1C1C00087C1B00086E
:1034B00064110008681C0008FC1D0008681C000856
:1034C0003C0F0008441E00082C3300083C1C000878
:1034D000441E0008F0080008DD0800083009000854
:1034E00000000208681C00083009000804000020E1
:1034F000441E0008681C0008C01B0008FC1D0008D2
:10350000143C0008E8280008900A00081000000099
:103510007C1B00081C1C0008F0080008A01B000809
:1035200014330008441E0008A01B000830090008DE
:1035300008000000C0280008681C0008FC1D0008E6
:103540003C0F0008441E0008F8260008FC1D000877
:10355000F00E0008441E000814310008FC030008A7
:1035600017414444454420574F5244532046524F3C
:103570004D204144445220FFA01B0008682D000844
:103580007C1B0008F8260008FC1D0008780A0008CB
:1035900054FFFFFFDD080008681C0008C028000871
:1035A000C01B0008681C0008FC1D0008B0260008AD
:1035B000900A00083800000014310008FC030008DD
:1035C000174552415345442042414420464C415303
:1035D0004820504147452020682D00081C1C000849
:1035E0007C1B00081C1C0008F0080008F8260008D6
:1035F000681C0008681C0008A01B00083C1C000890
:10360000E8280008900A00080C000000780A00086A
:1036100098FFFFFF14310008FC0300080E464C41E0
:1036200053482050414745204F4B20FFE8280008D1
:10363000682D00087C1B00081C1C0008F00800080E
:103640008C464C4153485F464F524745D4FFFFFFDD
:1036500004320008DD080008FC0300081754414B41
:1036600045532041424F55542036205345434F4E39
:1036700044532120783100084C3900082C390008C7
:10368000500700082A020100103C02402C390008B3
:103690005007000832020100103C02402C3900089B
:1036A000500700083A020100103C02402C39000883
:1036B0005007000842020100103C02402C3900086B
:1036C000500700084A020100103C02402C39000853
:1036D0005007000852020100103C02402C3900083B
:1036E000500700085A020100103C02402C39000823
:1036F0006C3900084C310008403B00084C110008B0
:10370000C4290008900A000810000000B43E000818
:10371000780A00081C000000300900083C3F00083F
:103720002C3B0008F411000864110008441E000836
:1037300050070008000002080400002030090008BB
:1037400011111111681C00081C330008441E0008E8
:1037500024330008441E0008D8340008143100083F
:103760004C3A00081C3A0008F008000871370008BD
:1037700057F8040B57F8041B064A50F8044B42F85C
:10378000044B8842F9D155F8042B22F0030252F879
:10379000043B1847D0FE002030090008D0FE00206E
:1037A0008C0E0008F0080008DD0800083009000849
:1037B0008039000830090008D43800086C37000848
:1037C00098370008F0080008DD0800087831000884
:1037D0004C3900082C39000850070008010200008D
:1037E000103C024014330008FC1D0008C01B0008F8
:1037F000300900081000000014330008D41D000830
:10380000A40F0008C01B00082C3B0008681C00081F
:10381000FC1D000814330008FC1D0008441E0008AD
:103820002C3900088027000814330008D41D000834
:10383000F8260008681C0008A01B0008E8280008FB
:10384000900A00080C000000780A0008C0FFFFFF83
:103850007C1B00081C1C00081C1C00083009000808
:1038600000000020FC1D0008A01B0008441E0008EA
:103870002C39000814330008FC1D0008A01B0008A8
:10388000F8260008441E00082C3900081C330008E4
:10389000FC1D0008A01B00089C010008C0280008AF
:1038A000441E00082C39000824330008FC1D0008C1
:1038B0007C1B0008300900080C000000C02800082C
:1038C000441E00082C3900086C3900084C310008EF
:1038D000F0080008DD0800085436000878310008B8
:1038E0004C3900082C39000850070008010200007C
:1038F000103C0240500700080000020804000020AD
:103900003009000810000000140F0008D41D000842
:103910006C0E0008C83700086C0E0008543600080A
:103920006C3900084C310008F008000831390008F3
:10393000054908680004FCD255F8042B22F0030264
:1039400052F8043B184700000C3C0240DD08000818
:103950005007000823016745043C02405007000857
:10396000AB89EFCD043C0240F0080008DD080008F8
:103970005007000800000080103C0240F0080008DA
:1039800084504F46C6FFFFFF40360008DD080008A0
:10399000500700080000000034010010F008000883
:1039A00083504FCE80390008DD080008500700081A
:1039B0004A0E000834010010F008000881D0FFFF13
:1039C000A03900081D090008340100108545484F42
:1039D00046C6FFFFBC390008DD0800084027000884
:1039E0003009000838010010441E0008F0080008E3
:1039F0008445484FCEFFFFFFCC390008DD080008A2
:103A0000502700083009000838010010441E000843
:103A1000F0080008832E44D3F0390008DD080008C0
:103A20009C090008EC0C0008842D0008080D000813
:103A3000300900081C40000848170008E42F00085F
:103A4000F0080008832E56D3143A0008DD08000859
:103A5000C4090008EC0C0008802700084C28000866
:103A6000842D0008080D00083009000811400008E6
:103A700048170008E42F0008F00800088444554D5A
:103A8000D0FFFFFF443A0008DD080008E81B0008EB
:103A90003C120008EC0C0008502A000840270008DF
:103AA000E80A000814310008681C00083009000802
:103AB0000A000000CC2C00088027000840270008DE
:103AC000E80A0008681C0008FC1D0008300900080E
:103AD0000E000000CC2C0008F8260008B00A0008F0
:103AE000E4FFFFFFB8300008900A0008080000005B
:103AF0005C1B0008B00A0008ACFFFFFF1C1C00089C
:103B000014310008080D0008F008000885564241ED
:103B100053C5FFFF7C3A00081D090008040000108F
:103B20008544424153C5FFFF0C3B00081D090008B6
:103B3000100000208552424153C5FFFF203B000882
:103B40001D0900080000002083434CD3343B0008CB
:103B5000DD080008FC030008041B5B324AFFFFFF7E
:103B6000FC030008041B5B3B48FFFFFF1431000807
:103B7000F0080008C1A8FFFF483B0008DD08000866
:103B800030090008290000002C0B0008DC2900087F
:103B9000900A0008340000001431000830090008C1
:103BA0001000000038300008240400083009000824
:103BB00071FA0020201E0008900A00081000000082
:103BC000780A0008BCFFFFFFF00800083009000871
:103BD0002E40000848170008E42F0008F0080008ED
:103BE000C1DCFFFF743B0008DD0800084027000827
:103BF000900F0008700F0008FC1D0008C028000886
:103C0000681E0008F008000886535953434CCBFF48
:103C1000E03B0008193C00080549086847F8040D16
:103C200055F8042B22F0030252F8043B1847000019
:103C3000000000208553544354D2FFFF083C000885
:103C40001D090008000000108544454C41D9FFFFC4
:103C5000343C0008593C000857F8041B57F8040B83
:103C60000C4CC043401C20600B4A11600B4A116091
:103C7000002806D00A4A106807211160216800292F
:103C8000FCD1106055F8042B22F0030252F8043BDB
:103C9000184700000000001014E000E018E000E009
:103CA00010E000E0824DD3FF483C0008DD0800082A
:103CB000300900083F900200543C0008F00800085A
:103CC00087574F52444341D4A43C0008DD08000804
:103CD000A40F0008C01B000840270008AC10000813
:103CE000300900080D000000AC100008A40F000807
:103CF000300900080D000000B4130008681C00081B
:103D0000201E0008300900080A000000C41A00083C
:103D1000681E0008681C0008B0260008C00F0008D4
:103D20003009000884000000C0280008A01B00081B
:103D3000681E0008300900080D000000AC100008E3
:103D4000300900088A000000AC10000828100008A4
:103D50004C110008841000087C1B00083009000882
:103D600030010010441E0008F008000885574F522B
:103D700044D3FFFFC03C0008DD080008702700089E
:103D8000042F00084C110008B82E00084027000836
:103D9000E81B0008B0260008201E000830090008B3
:103DA0000D00000010290008DC290008900A000816
:103DB0001C0000001C1C0008681C0008F41100080E
:103DC00064110008E81B0008E8280008600F0008DC
:103DD000FC1D0008C0280008300900084A00000047
:103DE000C4290008900A00081000000014310008DF
:103DF00070270008042F0008681C0008040F000842
:103E0000FC1D000854290008900A00080C0000005E
:103E1000780A000854000000681C0008582F0008A9
:103E200060270008042F0008681C0008B02600085E
:103E3000201E0008300900080D00000010290008AD
:103E4000900A00080800000010020008F4110008A1
:103E500064110008FC1D0008681C0008DC2900082B
:103E6000900A000828FFFFFF1C1C000814310008FE
:103E7000F0080008874D59574F5244D36C3D000855
:103E8000DD08000850070008000002082C0100109F
:103E9000783D000850070008000000002C010010C9
:103EA000F008000889464953485F4F4E4CD9FFFF40
:103EB000743E0008B93E000809490A4C21600A4CCA
:103EC00021600A490A4C21600A4C21600A490B4CC6
:103ED000216055F8042B22F0030252F8043B1847E6
:103EE0003C3F0008300100100800002004000010D2
:103EF000200100100C000020100000202401001000
:103F000084464953C8FFFFFFA43E0008DD080008AF
:103F1000D8340008C8060008F0080008990D0A46C1
:103F2000495348205265666572656E6365204D6F22
:103F300064656C3A0D8AFFFF003F0008890D0A474F
:103F400050494F3A0D8AFFFF1C3F0008513F0008BF
:103F500080468946AA462648264C0368002101600F
:103F600002684A4042D12449016002684A403DD17A
:103F70000100016002684A4038D1C1430160026813
:103F80004A4033D11D492025016002684A402DD1A5
:103F90004900491C6D1EF7D10121202501600268EE
:103FA0004A4023D149006D1EF8D1144920250160F3
:103FB00002684A401AD149006D1EF8D1012120251E
:103FC000016002684A4011D14900491C6D1EF7D1B9
:103FD0000360001DA042C0D340464946554655F8EF
:103FE000042B22F0030252F8043B1847FEE70000BE
:103FF0000000002068050010FFFFFFFFFEFFFFFF2D
:104000000352554E2000203F2000203C43523E20CA
:10401000005641522043454C4C53200044494354E0
:10402000494F4E4152592042595445532000204394
:104030004F4D4D454E54204C494E452043414E4E28
:104040004F5420424520454D5054592015002043DF
:10405000414E5420464F524745542046495348202C
:10406000494E20464C41534820150020494E2046D9
:104070004C415348202D2053454520464C41534840
:104080005F464F5247455420150020444943544948
:104090004F4E4152592046554C4C202D20534545FA
:1040A000202E44532015002052414D2056415220CD
:1040B00053504143452046554C4C202D20534545F7
:1040C000202E565320150020495320414C52454183
:1040D000445920444546494E4544201500203F2080
:1040E0004E4F5420574F5244201500203F204E4F32
:1040F0005420574F5244204F52204E554D42455266
:10410000201500204341555345442041205354413C
:10411000434B204552524F522015002053544143E7
:104120004B204552524F52205748494C4520455844
:1041300045435554494E47204F5220434F4D504917
:104140004C494E47201500204552524F52202D20F9
:104150004E4F5420434F4D50494C494E4720150077
:10416000204552524F52202D204558454355544525
:1041700044205748494C4520434F4D50494C494EE7
:1041800047201500DD08000850070008050700005B
:10419000003C0240F00800089D41000840F2000485
:1041A000C2F201044FF000034FF0800C53F8042BCF
:1041B00044F8042BBCF1010CF8D155F8042B22F083
:1041C000030252F8043B1847DD0800089841000834
:1041D000500700080000012008ED00E06807000813
:1041E000003802408407000801000000C4070008EE
:1041F0000038024050070008000000000838024064
:104200006807000800380240A4070008FFFFF6FE18
:10421000C40700080038024050070008103000248E
:10422000043802406807000800380240A40700086C
:10423000FFFFFBFFC40700080038024050070008DA
:10424000000000000C3802406807000800380240F7
:104250008407000800000100C4070008003802407D
:10426000400800086807000800380240A40700085A
:1042700000000200580800086807000840380240A3
:104280008407000800000010C407000840380240FE
:104290006807000800700040840700080040000024
:1042A000C4070008007000403009000808380240C8
:1042B0003009000800000000D01C00083009000888
:1042C000083802403009000800800000D01C0008B7
:1042D00030090008083802403009000800140000C6
:1042E000D01C00085007000808544007043802405A
:1042F0006807000800380240840700080000000139
:10430000C407000800380240400800086807000899
:1043100000380240A4070008000000025808000806
:10432000844100086807000808380240A407000814
:10433000FCFFFFFFC40700080838024068070008B8
:10434000083802408407000802000000C407000883
:104350000838024040080008680700080838024092
:10436000A40700080C000000300900080800000045
:1043700010290008580800085007000800300050B5
:1043800084380240680700080038024084070008AB
:1043900000000004C407000800380240400800087C
:1043A0006807000800380240A40700080000000861
:1043B0005808000850070008007A030A000000208F
:1043C000300900083038024030090008870000003A
:1043D000D01C0008300900084038024030090008AD
:1043E00000000400D01C00085007000800770000FF
:1043F0002408024010080008000802400300F000F2
:104400000100A000500700080C2000000C480040EC
:10441000500700080700000010E000E0F008000866
:10442000BFF34F8F0548016811F4E0610448014370
:1044300002480160BFF34F8FFEE700000CED00E083
:104440000400FA0572B6704762B6704780B5FFF790
:10445000E7FF01BD4EF68851CEF20001086840F436
:1044600070000860BFF34F8FBFF36F8F4FF0007085
:10447000E1EE100A70470000FCF754BCFFF7FEBFE6
:10448000FFF7FEBFFFF7FEBFFFF7FEBFFFF7FEBF60
:10449000FFF7FEBFFFF7FEBFFCF77EBCFFF7FEBFD6
:1044A000FFF7FEBFFFF7FEBFFFF7FEBFFFF7FEBF40
:1044B000FFF7FEBFFFF7FEBFFFF7FEBFFFF7FEBF30
:1044C000FFF7FEBFFFF7FEBFFFF7FEBFFFF7FEBF20
:1044D000FFF7FEBFFFF7FEBFFFF7FEBFFFF7FEBF10
:1044E000FFF7FEBFFFF7FEBFFFF7FEBFFFF7FEBF00
:1044F000FFF7FEBFFFF7FEBFFFF7FEBFFFF7FEBFF0
:10450000FFF7FEBFFFF7FEBFFFF7FEBFFFF7FEBFDF
:10451000FFF7FEBFFFF7FEBFFFF7FEBFFFF7FEBFCF
:10452000FFF7FEBFFFF7FEBFFFF7FEBFFFF7FEBFBF
:10453000FFF7FEBFFFF7FEBFFFF7FEBFFFF7FEBFAF
:10454000FFF7FEBFFFF7FEBFFFF7FEBFFFF7FEBF9F
:10455000FFF7FEBFFFF7FEBFFFF7FEBFFFF7FEBF8F
:10456000FFF7FEBFFFF7FEBFFFF7FEBFFFF7FEBF7F
:10457000FFF7FEBFFFF7FEBFFFF7FEBFFFF7FEBF6F
:10458000FFF7FEBFFFF7FEBFFFF7FEBFFFF7FEBF5F
:10459000FFF7FEBFFFF7FEBFFFF7FEBFFFF7FEBF4F
:1045A000FFF7FEBFFFF7FEBFFFF7FEBFFFF7FEBF3F
:1045B000FFF7FEBFFFF7FEBFFFF7FEBFFFF7FEBF2F
:1045C000FFF7FEBFFFF7FEBFFFF7FEBFFFF7FEBF1F
:1045D000FFF7FEBFFFF7FEBFFFF7FEBFFFF7FEBF0F
:0445E000FFF7FEBF24
:0400000500000000F7
:00000001FF
