:020000040800F2
:1000000000000220714500087545000845450008BC
:10001000794500087D450008814500080000000082
:1000200000000000000000000000000085450008FE
:1000300089450008000000008D4500089145000832
:1000400095450008994500089D450008A145000810
:10005000A5450008A9450008AD450008B1450008C0
:10006000B5450008B9450008BD450008C145000870
:10007000C5450008C9450008CD450008D145000820
:10008000D5450008D9450008DD450008E1450008D0
:10009000E5450008E9450008ED450008F145000880
:1000A000F5450008F9450008FD450008014600082F
:1000B00005460008094600080D46000811460008DC
:1000C00015460008194600081D460008214600088C
:1000D00025460008294600082D460008314600083C
:1000E00035460008394600083D46000841460008EC
:1000F00045460008494600084D460008514600089C
:1001000055460008594600085D460008614600084B
:1001100065460008694600086D46000871460008FB
:1001200075460008794600087D46000881460008AB
:1001300085460008894600088D460008914600085B
:1001400095460008994600089D460008A14600080B
:10015000A5460008A9460008AD460008B1460008BB
:10016000B5460008B9460008BD460008C14600086B
:10017000C5460008C9460008CD460008D14600081B
:10018000D5460008D9460008E90800083C090008DF
:10019000070000007C300008FC080008290900085E
:1001A00008000000E90800089C0100087C300008F5
:1001B000842F00089C0100087C3000088C1C00087B
:1001C0009C0F0008201E0008E4280008642700088F
:1001D000601C00088C1E00083C090008FCFFFFFFA3
:1001E0008C0F0008F81D0008D42D00089C0F000893
:1001F000F81D0008FC080008E90800085C07000872
:100200000000000008010010FC080008E9080008D0
:100210005C070008000000000C010010FC0800084A
:10022000E9080008180D0008540F0008681E0008AF
:10023000041A0008340D0008FC080008E90800084A
:10024000540F0008201E00088C1C0008842700089A
:10025000342900089C0A0008180000003C09000826
:10026000620000007C300008401C0008FC08000808
:100270003C0900080A000000342900089C0A000814
:10028000140000003C090008640000007C300008F5
:10029000FC0800083C090008680000007C300008E9
:1002A000FC080008E9080008382600086427000850
:1002B0009C2500083C020008FC080008E90800082A
:1002C00064270008642700089C2500083C020008F9
:1002D000FC080008E9080008180D00088C1C00083C
:1002E000540F0008681E00083C0900080A000000BE
:1002F000342900089C0A000810000000A40200082D
:10030000840A000808000000BC020008842F0008CE
:10031000340D0008FC080008290900081401001029
:100320002909000818010010290900083C010010E3
:100330002909000844010010E90800083C090008E8
:10034000CE4000086C170008283000088818000804
:10035000E9080008400F0008F81D0008FC08000824
:10036000E908000854100008D00F0008681E0008B3
:10037000A427000850030008FC080008E90800084A
:100380007C0F0008201E0008002A00083C09000815
:100390008B410008C4120008FC080008E9080008A6
:1003A0007C0F0008201E00083C090008A44100083A
:1003B000C4120008FC080008E90800080C2900081D
:1003C0003C0900085F410008C4120008FC0800084E
:1003D000E90800083C1B000818030008201E00085C
:1003E000601C0008A82900083C09000847410008D3
:1003F000C4120008FC080008E9080008A01B000857
:100400008C1C00084817000828300008481700080E
:10041000E428000824100008E41B0008FC08000879
:10042000E9080008BC0F00083C0900085E00000055
:10043000F81500085C070008010000000801001022
:10044000FC080008E9080008D42600088C1C0008F5
:10045000E41B0008441E0008540F0008201E00087A
:10046000F41200089C0A000858000000601C0008F4
:10047000540F0008201E0008600C0008401C0008F3
:10048000E81A0008540F0008201E0008600C00083D
:10049000FC2500088C250008201E0008D426000832
:1004A0009C0A000810000000742700088C25000832
:1004B000F81D0008A01B0008840A00088CFFFFFF3D
:1004C000A01B0008FC080008E90800080C0F000841
:1004D000DC130008D00F000878110008F8090008A4
:1004E000FC080008E9080008A01B00088C1C000894
:1004F0001C270008E41B0008201E000860030008F9
:10050000FC080008E9080008E41B0008642700084C
:10051000C41B0008880C0008A01B0008601C000811
:10052000E41B0008880C0008A01B0008FC08000859
:10053000E90800083C1B000828030008681E0008A2
:10054000FC080008E90800083C1B00082803000814
:10055000201E00080C2900083C090008474100083B
:10056000C4120008FC080008E9080008C8040008D4
:100570009C0A00083C0000007C0F0008201E0008B8
:10058000782900089C0A000814000000B411000833
:1005900060030008840A00080C000000B411000881
:1005A000B80E0008D0030008840A0008C0FFFFFF4F
:1005B000D00F0008541400088C250008201E0008E5
:1005C000D42600089C0A0008100000004C1F0008F8
:1005D000840A00080C000000401C00087C1F000872
:1005E000D0030008840A000884FFFFFFE908000820
:1005F000F01E0008E00C0008FC0C000820040008B5
:10060000680500087C0F0008201E0008002A00086A
:100610009C0A0008380000003C0900083401001062
:10062000201E00089C0A0008240000003C09000865
:1006300034010010201E00086C1700082830000844
:10064000540F0008201E0008A82D00083C090008CF
:10065000100000007C30000858310008840A0008AF
:1006600098FFFFFFE9080008D00F00080C290008D8
:10067000B0100008FC080008E90800085C07000842
:100680000000000028010010FC08000829090008EB
:1006900028010010E90800082C2A00089C0A00081C
:1006A00008000000B42A0008FC080008E908000857
:1006B0002C2A00089C0A0008080000005C2500089D
:1006C000FC080008E9080008583100083C09000847
:1006D000E00D00086C170008283000083C090008ED
:1006E000670E00086C170008283000083C09000855
:1006F000740E00086C1700082830000858310008F4
:10070000FC080008E9080008BC0800081C350008BF
:10071000FC080008E9080008601C00080C1C000820
:10072000E42800083C0900087F0000000C1C0008B9
:10073000441E0008782900089C0A0008E0FFFFFF1B
:10074000601C0008401C0008FC080008013055F837
:10075000042B22F0030252F8043B184761070008FB
:1007600002CD04CD116055F8042B22F0030252F89B
:10077000043B18477907000855F8040B006847F850
:10078000040D55F8042B22F0030252F8043B1847DD
:100790009507000855F8042B57F8040B104347F849
:1007A000040D55F8042B22F0030252F8043B1847BD
:1007B000B507000855F8042B57F8040B104047F80C
:1007C000040D55F8042B22F0030252F8043B18479D
:1007D000D507000855F8043B57F8040B186055F886
:1007E000042B22F0030252F8043B1847F1070008DB
:1007F00057F8043B57F8041B57F8040B1A6822EA11
:10080000010200EA010042EA00021A6055F8042BD6
:1008100022F0030252F8043B1847000021080008A8
:1008200055F8043B55F8044B55F804CB1A6822EAF6
:1008300004020CEA040C42EA0C021A6055F8042B7C
:1008400022F0030252F8043B184700005108000848
:1008500046F8045D55F8042B22F0030252F8043BDD
:10086000184700006908000857F8040B00280CBF5F
:100870003568361D55F8042B22F0030252F8043B6C
:10088000184700000A0000000000000000000000FF
:1008900000000000680500105803001070FA0020E6
:1008A0000400001010000020000000000000000004
:1008B000803F0008760E000800000000C108000814
:1008C000074808490E2203680B60001D091D521ECF
:1008D000F9D155F8042B22F0030252F8043B1847D3
:1008E000840800080401001046F8045D154655F818
:1008F000042B22F0030252F8043B184701090008B8
:1009000056F8045B55F8042B22F0030252F8043B1E
:100910001847000001CA47F8040D55F8042B22F0CF
:10092000030252F8043B184701CA47F8040D55F872
:10093000042B22F0030252F8043B18474109000837
:1009400055F8040B47F8040D55F8042B22F0030268
:1009500052F8043B184700005D09000855F8040BE5
:1009600047F8040D55F8042B22F0030252F8043B1B
:10097000184700007909000857F8045B55F8042B64
:1009800022F0030252F8043B1847000046F8045DC9
:100990004568083047F8040D55F8042B22F003028F
:1009A00052F8043B18470000AD0900080648074903
:1009B0000968401A47F8040D55F8042B22F0030289
:1009C00052F8043B1847000010FA002024010010E0
:1009D000D5090008064807490968401A47F8040D78
:1009E00055F8042B22F0030252F8043B184700008C
:1009F0000401001020010010FD09000857F8043B15
:100A000057F8042B93465A46187884461178484084
:100A10003F2420401DD1521C5B1C1878117888425D
:100A2000F9D08024001B884214D15B1C1878FF2861
:100A3000FBD0083347F8043D0120624647F8042DF7
:100A400047F8040D55F8042B22F0030252F8043B3A
:100A500018475B1C187880242042FAD01B1D0848D8
:100A600003401B68002B00D0CDE7002047F8040DA1
:100A700055F8042B22F0030252F8043B18470000FB
:100A8000FCFFFFFF890A00082B68ED1855F8042BBE
:100A900022F0030252F8043B18470000A10A0008A4
:100AA00057F8040B00283FF4EFAF2D1D55F8042B29
:100AB00022F0030252F8043B18470000C10A000864
:100AC00057F8040B00287FF4DFAF2D1D55F8042BD9
:100AD00022F0030252F8043B18470000E10A000824
:100AE000012374683268944204D0D2183260A41A88
:100AF0007FF4CAAF08362D1D55F8042B22F00302EF
:100B000052F8043B184700000D0B000857F8043B4F
:100B1000FFF7E7BF190B000857F8040B57F8042B31
:100B200046F8042D46F8040D55F8042B22F0030274
:100B300052F8043B184700003D0B000857F8040B1F
:100B400000787F21084047F8040D55F8042B22F067
:100B5000030252F8043B18475D0B000857F8041BCA
:100B60000B4A92460B4B1C6812191078521C884293
:100B700001D00028F9D15446121B1A7047F8040D11
:100B800055F8042B22F0030252F8043B18470000EA
:100B900070FA0020080100109D0B000857F8041B94
:100BA00057F8042B10784840107055F8042B22F0A9
:100BB000030252F8043B1847BD0B00080A21884283
:100BC00005D157F8040B0D2047F8040D02E00D2164
:100BD000884203D100F07EF900F084F955F8042B27
:100BE00022F0030252F8043B18470000F10B000802
:100BF0003868017801290FD0022914D001440A78FD
:100C0000622A1AD0252A18D0642A18D0232A16D08E
:100C1000682A16D0242A14D055F8042B22F0030297
:100C200052F8043B184782782E2AE7D155F8042B56
:100C300022F0030252F8043B1847022402E00A247F
:100C400000E0102400220A70044A146055F8042BB6
:100C500022F0030252F8043B184700000401001080
:100C6000650C000857F8040B57F8041BA0FB012083
:100C700047F8042D47F8040D55F8042B22F0030221
:100C800052F8043B184700008D0C000857F8040B7D
:100C900057F8043B57F8042B002812D093F0000FAC
:100CA0000FD10146B2FBF0F000FB112247F8042DF2
:100CB00047F8040D55F8042B22F0030252F8043BC8
:100CC00018474040401E024647F8042D47F8040DDF
:100CD00055F8042B22F0030252F8043B1847000099
:100CE000E50C0008044A176855F8042B22F00302AB
:100CF00052F8043B1847000014010010010D0008D1
:100D0000044A166855F8042B22F0030252F8043BFB
:100D100018470000180100101D0D0008044A116852
:100D20008C4655F8042B22F0030252F8043B184776
:100D300004010010390D0008044A6146116055F89D
:100D4000042B22F0030252F8043B18470401001060
:100D500009490A480A4C0160001DA042FBD3094F13
:100D6000094E0FF2280546F8045D55F8042B22F0D1
:100D7000030252F8043B1847111111110000002022
:100D8000000201206805001058030010903F000881
:100D9000BC0800080C420008042E00085831000866
:100DA0003C090008FB0000007C3000083C090008FA
:100DB000F70000007C300008583100088419000852
:100DC00008CA9F4603B502490868401C086003BD75
:100DD00000000010D90D000856F8045BBDE83F9CE8
:100DE0004649534820524D2056347468204F454D93
:100DF000207E2041524D2044656275675372632006
:100E000020313031302C31313030202D2045484FC9
:100E10004E2F45484F4646202D312054727565208F
:100E2000466C61672053544D333246343037564751
:100E300020444953434F20403136384D687A2028AA
:100E40004329323031342D3230313820412D544550
:100E5000414D20464F525448203A204E6F76202074
:100E6000322032303138002061742032303A353946
:100E70003A3536001500206F6B2C20676F206669AD
:100E8000736820696E20424153452000844E4F4FC5
:100E9000D0FFFFFF000000009D0E000855F8042B56
:100EA00022F0030252F8043B1847000087455845DA
:100EB000435554C58C0E0008BD0E000800F00AF81A
:100EC00000F010F857F8042B22F0030252F8043B0C
:100ED000184700007246024C2168090AFCD31047EB
:100EE000004800407246024913240C70104700006D
:100EF000044800407246024911240C70104700005B
:100F0000044800408242CCFFAC0E000829090008CA
:100F1000200000008255D0FF040F000829090008B6
:100F2000200100108546454E43C5FFFF140F000801
:100F3000290900082C0100108244D0FF240F00086A
:100F4000290900082401001084424153C5FFFFFF16
:100F5000380F000829090008040100108743555282
:100F600052454ED4480F00082909000830010010EE
:100F70008553544154C5FFFF5C0F00082909000840
:100F800010010010834F55D4700F00082909000884
:100F90000C0100108249CEFF840F000829090008C7
:100FA00008010010835041C4940F0008290900086B
:100FB00010FA0020835449C2A40F00082909000830
:100FC00070FA002084484552C5FFFFFFB40F0008A7
:100FD000E9080008400F0008201E0008FC0800086F
:100FE00085414C4C4FD4FFFFC40F0008E9080008AE
:100FF000A80900080C1C00080C2900082C2A00086D
:101000009C0A00080800000038030008400F000890
:10101000F81D0008FC08000887414C49474E45C4AC
:10102000E00F00082910000857F8040BC01C054900
:10103000084047F8040D55F8042B22F0030252F83B
:10104000043B1847FCFFFFFF85414C4947CEFFFF9B
:1010500018100008E9080008D00F000894270008BD
:10106000E42800088C1C0008E41B0008D00F0008CE
:10107000140B00083C090008FF0000001C1B0008BE
:101080008C1E0008DC0A0008ECFFFFFFA01B000814
:101090003C090008FCFFFFFF442B0008400F00083C
:1010A000681E0008FC08000881ACFFFF481000081B
:1010B000E9080008A80900082C2A00089C0A000872
:1010C000080000003803000860030008FC0800085E
:1010D0008243ACFFA8100008E9080008A80900082E
:1010E0002C2A00089C0A00080800000038030008A9
:1010F000D00F00088C1E0008742700085003000859
:10110000FC08000888564152414C4C4FD4FFFFFF69
:10111000D0100008E9080008D0090008A42700083A
:10112000702800080C1C00080C2900082C2A000854
:101130009C0A0008180000003C090008EB40000869
:101140006C17000828300008881800081C0F0008D9
:10115000201E0008601C0008A4270008342800088E
:101160001C0F0008F81D0008FC080008864C4154BC
:101170004553D4FF04110008E9080008680F00086F
:10118000201E0008FC080008834C46C16C110008B2
:101190009511000857F8040B083847F8040D55F866
:1011A000042B22F0030252F8043B1847834346C144
:1011B00088110008B911000857F8040B001F47F800
:1011C000040D55F8042B22F0030252F8043B184793
:1011D000834E46C1AC110008E90800089C010008D4
:1011E0000C290008B02600088C1C0008441E0008CA
:1011F0003C090008FF0000000C2900089C0A0008B8
:10120000E4FFFFFF3C090008FFFFFFFF1407000891
:10121000FC080008835046C1D0110008E908000806
:101220007427000814070008D42600088C1C000846
:10123000441E00083C090008FF0000000C290008BB
:101240009C0A0008E4FFFFFF9C010008E428000856
:10125000FC080008883F414C49474E45C4FFFFFF4A
:1012600014120008E90800083C0900080300000007
:10127000442B00089C0A00083C000000F80300080A
:101280002E56414C5545204D55535420424520453E
:1012900056454E204E4F54204F444420414E44204A
:1012A0004D554C5449504C45204F4620342120FF89
:1012B00088180008FC080008863F4552524FD2FFAC
:1012C00054120008E9080008601C00089C0A000885
:1012D0001000000050150008840A000808000000F3
:1012E000401C0008FC0800088544494749D4FFFF1A
:1012F000B8120008F912000857F8042B57F8040B2D
:10130000303813D4092802DDC01F0A280EDB9042B2
:101310000CDA0246012047F8042D47F8040D55F871
:10132000042B22F0030252F8043B1847002047F830
:10133000040D55F8042B22F0030252F8043B184721
:1013400087454E434C4F53C5E8120008511300081F
:1013500057F8040B39680022521E491E491C521CC2
:101360000B789842FAD047F8042D002B0CD1184680
:10137000521C47F8042D47F8040D55F8042B22F0B1
:10138000030252F8043B1847491C521C0B78984240
:1013900001D0002BF8D11046401C47F8042D47F827
:1013A000040D55F8042B22F0030252F8043B1847B1
:1013B000C180FFFF40130008BD13000856F8045B0E
:1013C00055F8042B22F0030252F8043B18470000A2
:1013D00084574F52C4FFFFFFB0130008E90800080C
:1013E000BC0F00089C0F0008201E0008E42800081D
:1013F000601C00084C1300089C0F0008F81D000832
:101400000C1C00080C290008E41B0008C41B000881
:10141000D00F00088C1E0008E4280008D00F000838
:10142000D4260008C41B00084C1D000864270008CF
:10143000D00F0008D4260008A01B0008E4280008EC
:101440008C1E0008FC080008864E554D4245D2FF10
:10145000D0130008E9080008180D0008EC0B00087C
:101460006427000864270008E81A00088C1C00089C
:10147000D4260008441E00083C0900082D00000086
:101480003429000874270008442B00088C1C00082D
:10149000E41B0008E42800083C090008FFFFFFFFE8
:1014A0008C250008681E0008440400088C1C0008F5
:1014B000441E0008642700080C2900089C0A000844
:1014C000680000008C1C0008441E00083C0900084D
:1014D0002E0000000C2900089C0A000840000000B3
:1014E0008C1C0008441E00083C0900082C00000069
:1014F000342900089C0A000810000000D42D0008C0
:10150000840A00089CFFFFFF340D000874270008C0
:101510003C0900082F410008C41200086427000895
:10152000840A00087CFFFFFF401C0008A01B000885
:101530009C0A0008080000005C250008340D000823
:10154000FC080008854552524FD2FFFF481400089E
:10155000E9080008D00F00084817000828300008E4
:101560006C17000828300008FC2E00087C0F0008CB
:10157000201E00089C0A0008400000008C0600089D
:10158000201E00089C0A0008300000008C0600089D
:10159000201E00081C12000890110008201E0008E0
:1015A000680F0008681E00088C060008201E00084E
:1015B000400F0008681E0008780600088818000818
:1015C000C1A7FFFF44150008E9080008C804000887
:1015D000002A00083C09000821410008C412000844
:1015E000401C00087C1F0008FC0800088645585075
:1015F0004543D4FFC0150008E90800080C020008A4
:10160000F8010008D42600080C1C0008E428000893
:101610000C1C0008D4260008202F0008140B00081A
:10162000C4300008B80B00088C1C00083C090008F6
:1016300009000000342900089C0A00080C00000082
:10164000401C00080C0F00088C1C00089C010008BE
:10165000342900080C1C00083C0900087F00000029
:10166000342900086C2B00089C0A00085000000078
:10167000401C00088C1C00081C1B0008B026000839
:10168000342900088C1C0008A01B000884270008CF
:101690000C290008E4280008E41B00089C0A000844
:1016A0001000000088010008840A00086C00000097
:1016B000A4010008840A0008600000008C1C0008D7
:1016C0003C0900080D000000342900089C0A0008AD
:1016D0001C000000801B0008401C00080C0F0008C4
:1016E00064270008840A0008080000008C1C000819
:1016F0001C1B00088C1E0008742700089C0F0008A3
:10170000F81D0008642700081C1B0008D4260008E8
:101710008C1E00087C300008DC0A000804FFFFFF74
:10172000FC2E0008D42600086C170008601C000876
:10173000B02600088C1E0008FC08000885434F55A1
:101740004ED4FFFFEC150008E90800088C1C0008C7
:10175000D4260008601C0008441E0008FC0800088D
:1017600084244C45CEFFFFFF3C170008711700088A
:101770003A684040115C094301D0401CFAE747F841
:10178000040D55F8042B22F0030252F8043B1847CD
:1017900086464F524745D4FF60170008E908000805
:1017A000C81500088C1C00083C090008000002084D
:1017B000782900083C09000892400008C41200087B
:1017C0008C1C00083C09000800001008782900085B
:1017D0003C090008AF400008C41200088C1C000837
:1017E00090110008E41B0008781100081C12000882
:1017F000901100088C1C0008201E0008680F0008CB
:10180000681E00088C1C00081C270008201E000809
:101810003C09000815090008342900089C0A000842
:10182000140000003C090008FCFFFFFF1C0F00082B
:10183000F81D0008C41B0008342900089C0A000891
:10184000A8FFFFFFA01B0008201E0008680F00086B
:10185000681E0008D8110008400F0008681E000824
:10186000903A0008603A0008FC080008834259C515
:101870009017000879180008FFF76ABA8541424FAF
:1018800052D4FFFF6C180008E9080008E00C0008BB
:10189000FC0C00080C0200083C0900084440000849
:1018A00078110008F80900089C0A000810000000E0
:1018B000401C0008B4110008B80E00083C090008DC
:1018C00038010010201E00089C0A00086C0000006F
:1018D0003C0900083C1900086C1700082830000873
:1018E000FC3000089C0A0008F8FFFFFFC430000825
:1018F0003C09000843000000342900089C0A000845
:10190000E0FFFFFFC43000083C0900084F00000062
:10191000342900089C0A0008C8FFFFFFC4300008F3
:101920003C0900080D000000342900089C0A00084A
:10193000B0FFFFFF58310008EC0500082045727227
:101940006F722048616C74202845484F4E2F4548DF
:101950004F464629202D20546F20434F6E74696EE8
:101960007565205479706520434F207468656E203A
:10197000456E7465723A200084434F4CC4FFFFFFEC
:101980007C180008E908000804070008C4060008DD
:10199000EC050008900D0A464953482053797374AA
:1019A000656D3A0D8AFFFFFF78190008832E53C832
:1019B00094190008E90800083C090008100000001C
:1019C00020020008FC080008832E53C4AC1900084C
:1019D000E90800083C0900080A000000200200088D
:1019E000FC080008832E53C2C8190008E908000843
:1019F0008427000820020008FC080008822ED3FF7C
:101A0000E4190008E908000818030008201E00086F
:101A10003C1B00081C27000834290008002A000885
:101A20009C0A000868000000F803000805544F53A2
:101A30003E20FFFF18030008201E00083C1B000882
:101A40001C270008140B00081C1B0008201E00089F
:101A5000540F0008201E00083C0900080A0000007E
:101A6000342900089C0A000810000000A4020008A5
:101A7000840A000808000000BC020008842F000847
:101A8000A4270008080B0008C0FFFFFFFC0800089F
:101A900084324455D0FFFFFFFC190008A11A00084A
:101AA00038687A6847F8042D47F8040D55F8042B78
:101AB00022F0030252F8043B18470000842D4455DD
:101AC000D0FFFFFF901A0008E90800088C1C0008EE
:101AD0009C0A0008080000008C1C0008FC08000894
:101AE00083524FD4BC1A0008ED1A000857F8042B93
:101AF00057F8041B57F8040B47F8041D47F8042D4A
:101B000047F8040D55F8042B22F0030252F8043B69
:101B10001847000081C9FFFFE01A0008211B0008D8
:101B2000306847F8040D55F8042B22F0030252F8F0
:101B3000043B1847835350C0141B0008411B000886
:101B4000384647F8040D55F8042B22F0030252F8EA
:101B5000043B1847835250C0341B0008611B000827
:101B6000304647F8040D55F8042B22F0030252F8D2
:101B7000043B1847854C454156C5FFFF541B0008E0
:101B8000851B00083268726055F8042B22F00302AE
:101B900052F8043B184700008252BEFF741B000835
:101BA000A51B000856F8040B47F8040D55F8042B44
:101BB00022F0030252F8043B1847000081D2FFFFD5
:101BC000981B0008C91B0008306847F8040D55F839
:101BD000042B22F0030252F8043B1847823ED2FF46
:101BE000BC1B0008E91B000857F8041B46F8041D3D
:101BF00055F8042B22F0030252F8043B184700006A
:101C0000844F5645D2FFFFFFDC1B0008111C000863
:101C100057F8042B57F8040B47F8040D47F8042D28
:101C200047F8040D55F8042B22F0030252F8043B48
:101C3000184700008444524FD0FFFFFF001C0008EB
:101C4000451C00083F1D55F8042B22F0030252F8F2
:101C5000043B184784535741D0FFFFFF341C000852
:101C6000651C000857F8042B57F8040B47F8042D9F
:101C700047F8040D55F8042B22F0030252F8043BF8
:101C800018470000834455D0541C0008911C0008DC
:101C9000386847F8040D55F8042B22F0030252F877
:101CA000043B1847900D0A537461636B205374759D
:101CB00066663A0D8AFFFFFF841C000887414E4488
:101CC000424954D3A41C0008CD1C000857F8042B2B
:101CD00057F8041B08681040086055F8042B22F0E0
:101CE000030252F8043B184787534554424954D3E2
:101CF000BC1C0008F91C000857F8042B57F8041BFB
:101D000008681043086055F8042B22F0030252F8CB
:101D1000043B184787434C52424954D3E81C0008FF
:101D2000251D000857F8042B57F8041B086890433A
:101D3000086055F8042B22F0030252F8043B1847C0
:101D400085434D4F56C5FFFF141D0008511D000867
:101D500057F8041B57F8042B57F8043B002907D009
:101D600018781070491E002902D0521C5B1CF7D154
:101D700055F8042B22F0030252F8043B18470000E8
:101D80008446494CCCFFFFFF401D0008911D000810
:101D900057F8040B57F8041B57F8042B002904D0FC
:101DA0008B181070521C9A42FBD155F8042B22F06C
:101DB000030252F8043B18478545524153C5FFFFC3
:101DC000801D0008E9080008642700088C1D000831
:101DD000FC08000886424C414E4BD3FFB81D00085A
:101DE000E90800080C0F00088C1D0008FC0800081A
:101DF000822BA1FFD41D0008FD1D000857F8041B0D
:101E000057F8040B0A688018086055F8042B22F074
:101E1000030252F8043B184781C0FFFFF01D000881
:101E2000251E000857F8041B086847F8040D55F8EC
:101E3000042B22F0030252F8043B18478243C0FFF0
:101E4000181E0008491E000857F8041B087847F8B8
:101E5000040D55F8042B22F0030252F8043B1847F6
:101E600081A1FFFF3C1E00086D1E000857F8040BFF
:101E700057F8041B016055F8042B22F0030252F8B6
:101E8000043B18478243A1FF601E0008911E000812
:101E900057F8040B57F8041B017055F8042B22F077
:101EA000030252F8043B18479F0D0A5265616420F3
:101EB000616E64205772697465204D656D6F72792B
:101EC00020576974683A0D8A841E000881DDFFFF7F
:101ED000A81E0008E90800085C070008C000000010
:101EE00010010010FC080008C1DBFFFFCC1E000839
:101EF000E90800085C07000800000000100100105D
:101F0000FC080008C95B434F4D50494C45DDFFFFBD
:101F1000E81E0008E9080008C8040008002A0008B4
:101F20003C09000847410008C4120008401C000892
:101F3000B4110008B0100008FC080008C8444C495F
:101F400054455241CCFFFFFF041F0008E908000878
:101F50007C0F0008201E00089C0A000810000000EA
:101F6000601C00087C1F00087C1F0008FC0800089B
:101F7000C74C4954455241CC3C1F0008E9080008B1
:101F80007C0F0008201E00089C0A000810000000BA
:101F9000E40400083C090008B0100008FC08000830
:101FA0008223BEFF701F0008E9080008401C0008DB
:101FB000401C000830030008201E0008AC0F000879
:101FC0000C1C00080C290008FC08000884484F4C31
:101FD000C4FFFFFFA01F0008E90800083C09000833
:101FE000FFFFFFFF30030008F81D00083003000862
:101FF000201E00088C1E0008FC0800088453494776
:10200000CEFFFFFFCC1F0008E9080008E81A00080F
:102010002C2A00089C0A0008100000003C09000857
:102020002D000000D81F0008FC0800088223D3FF01
:10203000FC1F0008E9080008602000080C1C0008CC
:102040000C1C00086C2B0008002A00089C0A0008E1
:10205000E8FFFFFFFC08000881A3FFFF2C20000819
:10206000E9080008540F0008201E000804050008B5
:10207000E81A00083C090008090000000C1C0008D0
:10208000782900089C0A0008100000003C0900089C
:1020900007000000E42800083C09000830000000A8
:1020A000E4280008D81F0008FC080008823CA3FFB1
:1020B00058200008E90800085C07000810FA002012
:1020C00044010010FC08000885444F4553BEFFFF43
:1020D000AC200008E9080008A01B000878110008DF
:1020E0001C1200088C1C0008B41100083C090008F0
:1020F0008B090008601C0008681E0008681E0008A4
:10210000FC080008873C4255494C44D3C8200008CD
:10211000E908000850230008FC080008C52B4C4FB4
:102120004FD0FFFF04210008E908000894270008A9
:10213000B8030008E4040008080B0008640600085F
:10214000FC080008C44C4F4FD0FFFFFF1C210008C3
:10215000E908000894270008B8030008E404000810
:10216000DC0A000864060008FC080008C244CFFF2F
:1021700044210008E9080008E4040008140B0008E2
:10218000D00F000894270008FC080008C5454E44FD
:1021900049C6FFFF6C210008E90800087C0300081D
:1021A00084270008B8030008D00F00080C1C0008A2
:1021B0000C290008601C0008681E0008FC080008C4
:1021C000C4544845CEFFFFFF8C210008E9080008F1
:1021D00098210008FC080008C4454C53C5FFFFFFC8
:1021E000C0210008E908000884270008B803000897
:1021F000E4040008840A0008D00F000864270008DF
:10220000B0100008601C000884270008982100080E
:1022100084270008FC080008C249C6FFD82100082E
:10222000E9080008E40400089C0A0008D00F000830
:1022300064270008B010000884270008FC08000884
:10224000C5554E5449CCFFFF18220008E908000884
:1022500074270008B8030008E40400089C0A00087A
:1022600064060008FC080008C541474149CEFFFF4D
:1022700040220008E908000874270008B803000895
:10228000E4040008840A000864060008FC0800084A
:10229000C65245504541D4FF68220008E9080008AD
:1022A000E41B0008E41B000874220008A01B0008BF
:1022B000A01B0008842700080C29000898210008AA
:1022C000FC080008C55748494CC5FFFF902200088C
:1022D000E908000820220008F8260008FC08000889
:1022E000C542454749CEFFFFC4220008E90800085F
:1022F0007C030008D00F000874270008FC080008C1
:10230000970D0A496E7369646520436F6C6F6E2088
:10231000574F5244533A0D8AE022000889494D4DE7
:102320004544494154C5FFFF00230008E90800085F
:10233000781100083C09000840000000980B0008D4
:10234000FC080008864352454154C5FF1C23000881
:10235000E9080008A80900083C0900080F0000006F
:102360000C2900082C2A00089C0A0008080000001C
:1023700038030008C80400089C0A00082400000074
:10238000401C0008D81100089C2F00083C090008D8
:102390000B4100086C170008283000088818000856
:1023A000D00F00088C1C00088C060008681E00086E
:1023B0008C1C0008441E00083C0900081F00000097
:1023C000F42A0008500300088C1C00083C0900088F
:1023D00080000000980B0008D00F00083C0900089E
:1023E00080000000980B000874270008400F0008C8
:1023F000F81D000878110008B0100008680F0008E8
:10240000681E0008E404000829090008D00F00082D
:102410001C270008B0100008FC08000888434F4E35
:102420005354414ED4FFFFFF44230008E90800083D
:1024300040240008FC08000883434FCE1C240008F9
:10244000E9080008502300083C090008FCFFFFFFD2
:10245000400F0008F81D0008B010000878060008BA
:10246000FC080008885641524941424CC5FFFFFF15
:1024700038240008E908000888240008FC0800083F
:10248000835641D264240008E9080008502300085C
:102490003C090008F8FFFFFF400F0008F81D000886
:1024A000E404000815090008742700081411000846
:1024B000B010000878060008FC080008C1BBFFFF48
:1024C00080240008E908000844050008E404000826
:1024D000FC080008F01E000878060008FC08000848
:1024E000C1BAFFFFBC240008E90800089C030008EB
:1024F0003005000850230008D41E00083C090008DD
:10250000F8FFFFFF400F0008F81D0008E404000872
:10251000E9080008FC080008960D0A43524541549A
:102520004520574F52445320576974683A0D8AFF2B
:10253000E024000884444142D3FFFFFF182500082F
:10254000E90800088C1C0008AC060008FC0800081C
:1025500087444E45474154C534250008612500088D
:1025600057F8040B57F8042BC043D243521C47F8CA
:10257000042D47F8040D55F8042B22F0030252F8FD
:10258000043B1847834450CC502500082909000813
:102590004001001083442ED284250008E908000879
:1025A000E41B0008601C00080C1C00084025000803
:1025B000B42000083420000808200008A81F0008E4
:1025C000A01B00080C1C00080C290008482F00085C
:1025D00028300008FC0800088244AEFF942500085B
:1025E000E9080008642700089C250008842F0008DB
:1025F000FC0800088244ABFFD8250008012600082B
:1026000057F8040B57F8041B57F8043B57F8042BF2
:102610005218584147F8042D47F8040D55F8042B7B
:1026200022F0030252F8043B1847000084532D3E69
:10263000C4FFFFFFF42500083D26000857F8042BCF
:102640004040124300D5401E47F8042D47F8040DC2
:1026500055F8042B22F0030252F8043B18470000FF
:102660008232AAFF2C2600086D26000857F8040BBA
:10267000400047F8040D55F8042B22F0030252F8ED
:10268000043B18478232AFFF6026000891260008FD
:1026900057F8040B401047F8040D55F8042B22F0AE
:1026A000030252F8043B18478231ADFF842600082C
:1026B000B526000857F8040B401E47F8040D55F8DE
:1026C000042B22F0030252F8043B18478231ABFF7F
:1026D000A8260008D926000857F8040B401C47F824
:1026E000040D55F8042B22F0030252F8043B18475E
:1026F0008232ABFFCC260008FD26000857F8040BF9
:10270000801C47F8040D55F8042B22F0030252F800
:10271000043B18478234ABFFF0260008212700084D
:1027200057F8040B001D47F8040D55F8042B22F050
:10273000030252F8043B18478234ADFF1427000807
:102740004527000857F8040B001F47F8040D55F8FB
:10275000042B22F0030252F8043B184781B0FFFF1C
:1027600038270008290900080000000081B1FFFF98
:102770005C270008290900080100000081B2FFFF62
:102780006C270008290900080200000081B3FFFF40
:102790007C270008290900080300000081B4FFFF1E
:1027A0008C2700082909000804000000824DAAFFB8
:1027B0009C270008E90800089C1A0008B82B0008AC
:1027C000E41B0008DC2A0008601C0008DC2A000862
:1027D000600C0008A01B0008AC060008FC080008FC
:1027E000824DAFFFAC270008E90800080C1C000868
:1027F000E41B0008E41B000840250008C41B000877
:10280000DC2A0008880C0008A01B0008C41B000874
:10281000B82B000894060008601C0008A01B0008E4
:1028200094060008601C0008FC08000881AAFFFF4D
:10283000E0270008E9080008B4270008401C000849
:10284000FC080008842F4D4FC4FFFFFF2C28000810
:10285000E9080008E41B000838260008A01B00084F
:10286000E8270008FC08000881AFFFFF44280008A3
:10287000E908000850280008601C0008401C0008F7
:10288000FC080008834D4FC468280008E9080008C8
:1028900050280008401C0008FC080008852A2F4D1D
:1028A0004FC4FFFF84280008E9080008E41B000863
:1028B000B4270008A01B0008E8270008FC0800084F
:1028C000822AAFFF9C280008E9080008A828000811
:1028D000601C0008401C0008FC08000881ABFFFFDA
:1028E000C0280008E928000857F8040B57F8041B13
:1028F000401847F8040D55F8042B22F0030252F853
:10290000043B184781ADFFFFDC28000811290008AF
:1029100057F8040B57F8041B081A47F8040D55F82C
:10292000042B22F0030252F8043B184781BDFFFF3D
:102930000429000839290008404057F8040B57F8CB
:10294000041B401A09D0404047F8040D55F8042BE9
:1029500022F0030252F8043B1847013847F8040DEF
:1029600055F8042B22F0030252F8043B18470000EC
:1029700081BCFFFF2C2900087D2900084040013858
:1029800057F8041B57F8042B914200DC404047F8ED
:10299000040D55F8042B22F0030252F8043B1847AB
:1029A0008255BCFF70290008E90800089C1A00083D
:1029B000B82B00082C2A00089C0A00081800000008
:1029C000401C00082C2A0008002A0008840A00087D
:1029D0000C0000000C2900082C2A0008FC08000844
:1029E00081BEFFFFA0290008E9080008601C00085C
:1029F00078290008FC0800088230BDFFE0290008A3
:102A0000052A0008404057F8041B002900D1401E49
:102A100047F8040D55F8042B22F0030252F8043B4A
:102A2000184700008230BCFFF8290008312A00084E
:102A300057F8041B40400138094300D4404047F890
:102A4000040D55F8042B22F0030252F8043B1847FA
:102A5000834249CE242A0008E90800085C070008E0
:102A60000200000004010010FC080008834845D85B
:102A7000502A0008E90800085C0700081000000060
:102A800004010010FC08000887444543494D41CC2F
:102A90006C2A0008E90800085C0700080A0000002A
:102AA00004010010FC080008864E45474154C5FF4C
:102AB000882A0008B92A000857F8040BC043401CB4
:102AC00047F8040D55F8042B22F0030252F8043B9A
:102AD00018470000834142D3A82A0008E9080008EB
:102AE0008C1C000894060008FC080008834D49CEA1
:102AF000D42A0008E90800089C1A0008E829000800
:102B00009C0A000808000000601C0008401C000827
:102B1000FC080008834D41D8EC2A0008E9080008A9
:102B20009C1A0008782900089C0A00080800000088
:102B3000601C0008401C0008FC08000883414EC4CB
:102B4000142B0008492B000857F8040B57F8041BF6
:102B5000084047F8040D55F8042B22F0030252F800
:102B6000043B1847824FD2FF3C2B0008712B000812
:102B700057F8040B57F8041B084347F8040D55F8A1
:102B8000042B22F0030252F8043B1847834E4FD423
:102B9000642B0008992B000857F8040BC04347F832
:102BA000040D55F8042B22F0030252F8043B184799
:102BB00083584FD28C2B0008BD2B000857F8040B0C
:102BC00057F8041B484047F8040D55F8042B22F031
:102BD000030252F8043B184784535854C8FFFFFFC0
:102BE000B02B0008E92B000857F8040B00B247F897
:102BF000040D55F8042B22F0030252F8043B184749
:102C000084535854C2FFFFFFD82B0008112C000832
:102C100057F8040B40B247F8040D55F8042B22F086
:102C2000030252F8043B184784524556D7FFFFFF72
:102C3000002C0008392C000857F8040B00BA47F89C
:102C4000040D55F8042B22F0030252F8043B1847F8
:102C5000834153D2282C00085D2C000857F8042B20
:102C600057F8040B104147F8040D55F8042B22F0D7
:102C7000030252F8043B1847834C53D2502C0008EF
:102C8000852C000857F8042B57F8040BD04047F860
:102C9000040D55F8042B22F0030252F8043B1847A8
:102CA000834C53CC782C0008AD2C000857F8042B2B
:102CB00057F8040B904047F8040D55F8042B22F008
:102CC000030252F8043B1847822ED2FFA02C0008C2
:102CD000E9080008E41B000838260008A01B0008CB
:102CE0009C250008FC080008832E52D5C82C00083B
:102CF000E9080008E41B000864270008B420000865
:102D000034200008A81F00088C1C0008A01B000825
:102D1000601C00080C290008482F00082830000813
:102D2000FC0800088255AEFFE82C0008E9080008FE
:102D300064270008E0250008FC08000881BFFFFFA9
:102D4000242D0008E9080008201E00085C2D00085A
:102D5000FC08000881AEFFFF3C2D0008E9080008D0
:102D600038260008E0250008FC080008822EC2FF73
:102D7000542D0008E908000884270008D402000840
:102D8000FC080008822EC8FF6C2D0008E908000826
:102D90003C09000810000000D4020008FC080008EC
:102DA000822EC4FF842D0008E90800083C090008B1
:102DB0000A000000D4020008FC080008834F46C641
:102DC000A02D00082909000800000000824FCEFF56
:102DD000BC2D000829090008FFFFFFFF910D0A4ED6
:102DE000554D4245522053747566663A0D8AFFFF71
:102DF000CC2D00088A55415254335F494E49D4FFC7
:102E0000DC2D0008E90800083C0900080002012048
:102E1000201E0008002A00089C0A00081C00000070
:102E20003C09000804020120201E0008E41B0008E1
:102E3000840A0008100000003C09000800C20100DC
:102E4000E41B00083C09000880DE8002A01B00088B
:102E5000702800083C09000808480040681E000867
:102E6000FC080008864D59424155C4FFF42D000866
:102E7000E90800085C0700080000000000020120CB
:102E80003C09000804020120681E0008FC08000834
:102E90008955415254335F4C53D2FFFF642E0008D2
:102EA000A52E00080549087847F8040D55F8042BAD
:102EB00022F0030252F8043B18470000004800408B
:102EC0008855415254335F52D8FFFFFF902E0008BF
:102ED00029090008044800408855415254335F5482
:102EE000D8FFFFFFC02E0008290900080448004051
:102EF00084584F46C6FFFFFFD82E0008012F000858
:102F0000FDF7E8FFFDF7EEFF55F8042B22F0030272
:102F100052F8043B1847000083584FCEF02E0008AB
:102F2000252F0008FDF7D6FFFDF7E4FF55F8042B29
:102F300022F0030252F8043B184700008653504128
:102F40004345D3FF182F0008E9080008642700084C
:102F50001C2B0008C81A00089C0A00081800000072
:102F600064270008140B0008842F0008DC0A0008FE
:102F7000F8FFFFFFFC0800088553504143C5FFFFE1
:102F80003C2F0008E90800080C0F00087C300008FE
:102F9000FC080008834944AE782F0008E9080008BF
:102FA000481700083C0900081F000000442B0008D7
:102FB00028300008842F0008FC080008C22EA2FF59
:102FC000942F0008E90800083C09000822000000CE
:102FD0007C0F0008201E00089C0A00082C0000003E
:102FE000E4040008F8030008DC130008D00F000810
:102FF000441E0008D42600082410000850030008CE
:10300000840A000814000000DC130008D00F000838
:103010004817000828300008FC080008845459505C
:10302000C5FFFFFFBC2F0008E9080008C81A000808
:103030009C0A000834000000FC2E00080C1C00084C
:10304000E4280008601C0008140B00081C1B000882
:10305000380B00087C300008DC0A0008F0FFFFFF96
:10306000840A000808000000401C0008FC08000852
:1030700084454D49D4FFFFFF1C3000088130000813
:1030800057F8040BFDF726FF064908700649086843
:10309000401C086055F8042B22F0030252F8043B50
:1030A00018470000044800400C010010834B45D92C
:1030B00070300008E9080008202F0008C43000081C
:1030C000FC080008C9300008074A084B196889093C
:1030D000FCD3106847F8040D55F8042B22F00302C6
:1030E00052F8043B184700000448004000480040E4
:1030F000843F4B45D9FFFFFFAC3000080131000889
:10310000FDF7E8FEFDF7F6FE4040074B1968890918
:1031100000D3013847F8040D55F8042B22F00302C0
:1031200052F8043B1847000000480040834352D344
:10313000F0300008E908000864270008140B0008B4
:1031400058310008DC0A0008F8FFFFFFFC080008FF
:103150008243D2FF2C310008E90800080C02000865
:10316000F8030008020D0AFFFC0800088C0D0A464F
:1031700049534820494F3A0D8AFFFFFF503100085C
:103180008B495251535F524553554DC56C31000820
:103190009531000801F0D4F955F8042B22F0030210
:1031A00052F8043B184700008C495251535F535565
:1031B0005350454EC4FFFFFF80310008C131000865
:1031C00001F0BCF955F8042B22F0030252F8043B3D
:1031D000184700008F5359535449434B5F4952518C
:1031E0005F4F46C6A8310008ED31000804490520AC
:1031F000086055F8042B22F0030252F8043B1847EC
:1032000010E000E08E5359535449434B5F495251EB
:103210005F4FCEFFD43100081D320008044907205B
:10322000086055F8042B22F0030252F8043B1847BB
:1032300010E000E08F0D0A494E544552525550544B
:10324000533A0D8A043200088A464C4153485F5372
:103250004156C5FF34320008E9080008781100081B
:10326000703B0008782900089C0A00082000000034
:1032700058310008F80300080F4E4F5448494E4794
:1032800020544F2053415645FC080008583300088D
:10329000201E00083C09000800001008342900081E
:1032A0009C0A00082800000058310008F8030008B4
:1032B000144C41535420464C4153482041564149F7
:1032C0004C2055534544FFFFFC08000854100008EB
:1032D0001C0F0008201E000868330008681E000844
:1032E000781100087033000860330008681E000879
:1032F00078110008703B0008342900089C0A000877
:10330000480000000C380008703B0008400F00081F
:10331000681E000868330008201E00081C0F000803
:10332000681E000860330008201E0008680F0008AF
:10333000681E00081C35000858310008903A000843
:10334000603A0008FC080008781100089C33000867
:10335000840A00089CFFFFFF2909000804000020E0
:103360002909000808000020290900080C00002095
:103370007533000857F8040B064A1040064A1268D5
:10338000801847F8040D55F8042B22F0030252F878
:10339000043B1847FFFF0F0004000020E908000865
:1033A0001C1200088C1C0008E41B0008B411000863
:1033B0008C1C0008201E00083C0900088B0900082E
:1033C000342900089C0A0008280000001C27000877
:1033D0008C1C00088C1C0008201E0008703300089C
:1033E000601C0008681E0008840A00080001000034
:1033F0008C1C0008201E00083C0900082909000850
:10340000342900080C1C0008201E00083C09000894
:1034100015090008342900086C2B00089C0A0008D4
:1034200010000000401C0008840A0008C4000000CE
:103430001C2700088C1C0008201E00083C090008FE
:103440003C090008342900089C0A0008100000000C
:103450001C270008840A0008D8FFFFFF8C1C000806
:10346000201E00083C090008F80300083429000861
:103470009C0A0008200000008C1C00081C27000883
:10348000441E0008E428000824100008840A0008EC
:10349000A0FFFFFF8C1C0008201E00083C0900084C
:1034A000FC08000834290008002A00089C0A0008CB
:1034B0003C0000008C1C0008201E0008703B000827
:1034C000E82900089C0A000868FFFFFF8C1C000820
:1034D0008C1C0008201E000870330008601C0008C7
:1034E000681E0008840A000848FFFFFF401C00080F
:1034F000A01B0008901100088C1C0008201E00086A
:103500008C1C0008680F0008681E00087033000853
:10351000601C0008681E0008FC080008E908000894
:103520003C090008000002088C1C00083C09000847
:1035300004000020681E00088C1C0008E41B000822
:10354000201E0008583C00080C2900089C0A0008AE
:1035500010000000A01B0008401C0008FC08000828
:10356000C41B000858330008681E0008C41B00086C
:103570003C09000808000000E42800088C1C000832
:10358000201E0008680F0008681E00081C2700089D
:10359000201E00081C0F0008681E00085831000893
:1035A000F803000817414444454420574F52445300
:1035B0002046524F4D204144445220FFC41B000876
:1035C0008C2D0008A01B00081C270008201E0008E6
:1035D000840A000854FFFFFFE90800088C1C00085B
:1035E000E4280008E41B00088C1C0008201E0008CA
:1035F000D42600089C0A0008380000005831000852
:10360000F8030008174552415345442042414420E5
:10361000464C415348205041474520208C2D0008FE
:10362000401C0008A01B0008401C0008FC08000803
:103630001C2700088C1C00088C1C0008C41B0008F8
:10364000601C00080C2900089C0A00080C000000FF
:10365000840A000898FFFFFF58310008F8030008AB
:103660000E464C4153482050414745204F4B20FFC8
:103670000C2900088C2D0008A01B0008401C000825
:10368000FC0800088C464C4153485F464F52474562
:10369000D4FFFFFF48320008E9080008F8030008DB
:1036A0001754414B45532041424F55542036205327
:1036B00045434F4E44532120BC3100089039000847
:1036C000703900085C0700082A020100103C024023
:1036D000703900085C07000832020100103C02400B
:1036E000703900085C0700083A020100103C0240F3
:1036F000703900085C07000842020100103C0240DB
:10370000703900085C0700084A020100103C0240C2
:10371000703900085C07000852020100103C0240AA
:10372000703900085C0700085A020100103C024092
:1037300070390008B039000890310008843B000857
:1037400078110008E82900089C0A00081000000011
:10375000F83E0008840A00081C0000003C0900082C
:10376000803F0008703B00081C1200089011000800
:10377000681E00085C070008000002080400002022
:103780003C090008111111118C1C0008603300085D
:10379000681E000868330008681E00081C35000811
:1037A00058310008903A0008603A0008FC08000808
:1037B000B537000857F8040B57F8041B064A50F8B1
:1037C000044B42F8044B8842F9D155F8042B22F0FF
:1037D000030252F8043B1847D0FE00203C090008C1
:1037E000D0FE0020B80E0008FC080008E908000818
:1037F0003C090008C43900083C09000818390008D1
:10380000B0370008DC370008FC080008E9080008A9
:10381000BC31000890390008703900085C070008C6
:1038200001020000103C024058330008201E00082E
:10383000E41B00083C090008100000005833000891
:10384000F81D0008D00F0008E41B0008703B0008BA
:103850008C1C0008201E000858330008201E000899
:10386000681E000870390008A427000858330008B3
:10387000F81D00081C2700088C1C0008C41B000849
:103880000C2900089C0A00080C000000840A0008AB
:10389000C0FFFFFFA01B0008401C0008401C0008E0
:1038A0003C09000800000020201E0008C41B00087E
:1038B000681E00087039000858330008201E0008F0
:1038C000C41B00081C270008681E00087039000887
:1038D00060330008201E0008C41B00089C0100087B
:1038E000E4280008681E00087039000868330008E2
:1038F000201E0008A01B00083C0900080C00000066
:10390000E4280008681E000870390008B039000873
:1039100090310008FC080008E90800089836000803
:10392000BC31000890390008703900085C070008B5
:1039300001020000103C02405C0700080000020881
:10394000040000203C09000810000000400F00089F
:10395000F81D0008980E00080C380008980E0008A2
:1039600098360008B039000890310008FC080008BB
:1039700075390008054908680004FCD255F8042B85
:1039800022F0030252F8043B184700000C3C0240AE
:10399000E90800085C07000823016745043C024071
:1039A0005C070008AB89EFCD043C0240FC0800082E
:1039B000E90800085C07000800000080103C024095
:1039C000FC08000884504F46C6FFFFFF84360008FD
:1039D000E90800085C07000800000000340100103E
:1039E000FC08000883504FCEC4390008E9080008DD
:1039F0005C070008760E000834010010FC0800087F
:103A000081D0FFFFE43900082909000834010010C3
:103A10008545484F46C6FFFF003A0008E908000800
:103A2000642700083C09000838010010681E0008DF
:103A3000FC0800088445484FCEFFFFFF103A0008FD
:103A4000E9080008742700083C0900083801001044
:103A5000681E0008FC080008832E44D3343A00088E
:103A6000E9080008A8090008180D0008A82D00089A
:103A7000340D00083C090008604000086C1700087D
:103A800028300008FC080008832E56D3583A000856
:103A9000E9080008D0090008180D0008A42700084C
:103AA00070280008A82D0008340D00083C09000803
:103AB000554000086C17000828300008FC08000872
:103AC0008444554DD0FFFFFF883A0008E9080008FC
:103AD0000C1C000864120008180D0008742A000865
:103AE00064270008140B0008583100088C1C0008DB
:103AF0003C0900080A000000F02C0008A427000878
:103B000064270008140B00088C1C0008201E000805
:103B10003C0900080E000000F02C00081C270008DB
:103B2000DC0A0008E4FFFFFFFC3000089C0A0008E4
:103B300008000000801B0008DC0A0008ACFFFFFF43
:103B4000401C000858310008340D0008FC0800082B
:103B50008556424153C5FFFFC03A000829090008B5
:103B6000040000108544424153C5FFFF503B00084C
:103B700029090008100000208552424153C5FFFF6B
:103B8000643B0008290900080000002083434CD34F
:103B9000783B0008E9080008F8030008041B5B32C2
:103BA0004AFFFFFFF8030008041B5B3B48FFFFFFD1
:103BB00058310008FC080008C1A8FFFF8C3B000832
:103BC000E90800083C09000829000000580B00081B
:103BD000002A00089C0A0008340000005831000840
:103BE0003C090008100000007C3000082004000898
:103BF0003C09000871FA0020441E00089C0A0008D5
:103C000010000000840A0008BCFFFFFFFC08000849
:103C10003C090008724000086C17000828300008B2
:103C2000FC080008C1DCFFFFB83B0008E9080008F9
:103C300064270008BC0F00089C0F0008201E000825
:103C4000E42800088C1E0008FC080008865359531D
:103C5000434CCBFF243C00085D3C00080549086844
:103C600047F8040D55F8042B22F0030252F8043BE8
:103C700018470000000000208553544354D2FFFF32
:103C80004C3C000829090008000000108544454C00
:103C900041D9FFFF783C00089D3C000857F8041B01
:103CA00057F8040B0C4CC043401C20600B4A1160B9
:103CB0000B4A1160002806D00A4A106807211160DB
:103CC00021680029FCD1106055F8042B22F0030272
:103CD00052F8043B184700000000001014E000E018
:103CE00018E000E010E000E0824DD3FF8C3C0008BB
:103CF000E90800083C0900083F900200983C0008D1
:103D0000FC08000887574F52444341D4E83C000860
:103D1000E9080008D00F0008E41B00086427000829
:103D2000D81000083C0900080D000000D810000859
:103D3000D00F00083C0900080D000000DC1300084B
:103D40008C1C0008441E00083C0900080A00000002
:103D5000E81A00088C1E00088C1C0008D4260008F5
:103D6000EC0F00083C09000884000000E42800086B
:103D7000C41B00088C1E00083C0900080D00000050
:103D8000D81000083C0900088A000000D81000087C
:103D90005410000878110008B0100008A01B00089B
:103DA0003C09000830010010681E0008FC080008EB
:103DB00085574F5244D3FFFF043D0008E90800082F
:103DC00094270008482F000878110008FC2E0008EE
:103DD000642700080C1C0008D4260008441E0008B4
:103DE0003C0900080D00000034290008002A0008E2
:103DF0009C0A00081C000000401C00088C1C0008E5
:103E00001C120008901100080C1C00080C29000866
:103E10008C0F0008201E0008E42800083C09000858
:103E20004A000000E82900089C0A00081000000071
:103E30005831000894270008482F00088C1C0008FF
:103E4000300F0008201E0008782900089C0A00088E
:103E50000C000000840A0008540000008C1C0008BC
:103E60009C2F000884270008482F00088C1C00089D
:103E7000D4260008441E00083C0900080D0000007C
:103E8000342900089C0A0008080000000C02000801
:103E90001C12000890110008201E00088C1C00084D
:103EA000002A00089C0A000828FFFFFF401C0008A9
:103EB00058310008FC080008874D59574F5244D329
:103EC000B03D0008E90800085C070008000002088F
:103ED0002C010010BC3D00085C0700080000000039
:103EE0002C010010FC08000889464953485F4F4EDA
:103EF0004CD9FFFFB83E0008FD3E000809490A4CB6
:103F000021600A4C21600A490A4C21600A4C216058
:103F10000A490B4C216055F8042B22F0030252F899
:103F2000043B1847803F00083001001008000020C3
:103F300004000010200100100C00002010000020E0
:103F40002401001084464953C8FFFFFFE83E0008E3
:103F5000E90800081C350008C4060008FC08000831
:103F6000990D0A46495348205265666572656E632D
:103F700065204D6F64656C3A0D8AFFFF443F000871
:103F8000890D0A4750494F3A0D8AFFFF603F0008EC
:103F9000953F000880468946AA462648264C036875
:103FA0000021016002684A4042D124490160026850
:103FB0004A403DD10100016002684A4038D1C14306
:103FC000016002684A4033D11D4920250160026822
:103FD0004A402DD14900491C6D1EF7D101212025F1
:103FE000016002684A4023D149006D1EF8D114498E
:103FF0002025016002684A401AD149006D1EF8D19F
:1040000001212025016002684A4011D14900491C64
:104010006D1EF7D10360001DA042C0D34046494643
:10402000554655F8042B22F0030252F8043B18477A
:10403000FEE700000000002068050010FFFFFFFF02
:10404000FEFFFFFF0352554E2000203F2000203C82
:1040500043523E20005641522043454C4C532000D1
:1040600044494354494F4E415259204259544553B3
:10407000200020434F4D4D454E54204C494E452085
:1040800043414E4E4F5420424520454D50545920F7
:1040900015002043414E5420464F52474554204678
:1040A00049534820494E20464C4153482015002092
:1040B000494E20464C415348202D2053454520462B
:1040C0004C4153485F464F52474554201500204409
:1040D000494354494F4E4152592046554C4C202D8E
:1040E00020534545202E44532015002052414D2099
:1040F0005641522053504143452046554C4C202DAB
:1041000020534545202E5653201500204953204169
:104110004C524541445920444546494E454420159A
:1041200000203F204E4F5420574F5244201500206E
:104130003F204E4F5420574F5244204F52204E554F
:104140004D424552201500204341555345442041DE
:1041500020535441434B204552524F5220150020CA
:10416000535441434B204552524F52205748494CDB
:104170004520455845435554494E47204F5220430A
:104180004F4D50494C494E47201500204552524F43
:1041900052202D204E4F5420434F4D50494C494EF4
:1041A00047201500204552524F52202D204558459A
:1041B0004355544544205748494C4520434F4D50A2
:1041C000494C494E47201500E90800085C070008E3
:1041D00005070000003C0240FC080008E14100081F
:1041E00040F20004C2F201044FF000034FF0800CD3
:1041F00053F8042B44F8042BBCF1010CF8D155F80A
:10420000042B22F0030252F8043B1847E908000887
:10421000DC4100085C0700080000012008ED00E018
:1042200074070008003802409007000801000000F1
:10423000D0070008003802405C07000800000000BA
:10424000083802407407000800380240B007000830
:10425000FFFFF6FED0070008003802405C070008A8
:10426000103000240438024074070008003802406F
:10427000B0070008FFFFFBFFD0070008003802402E
:104280005C070008000000000C38024074070008BA
:10429000003802409007000800000100D007000825
:1042A000003802404C08000874070008003802403B
:1042B000B007000800000200640800087407000846
:1042C000403802409007000800000010D0070008A6
:1042D0004038024074070008007000409007000852
:1042E00000400000D0070008007000403C090008B2
:1042F000083802403C09000800000000F41C0008D7
:104300003C090008083802403C0900080080000011
:10431000F41C00083C090008083802403C09000869
:1043200000140000F41C00085C0700080854400753
:104330000438024074070008003802409007000863
:1043400000000001D0070008003802404C080008B7
:104350007407000800380240B0070008000000029F
:1043600064080008C84100087407000808380240C3
:10437000B0070008FCFFFFFFD00700080838024024
:104380007407000808380240900700080200000087
:10439000D0070008083802404C08000874070008DD
:1043A00008380240B00700080C0000003C09000873
:1043B0000800000034290008640800085C070008B1
:1043C0000030005084380240740700080038024072
:1043D0009007000800000004D007000800380240E1
:1043E0004C0800087407000800380240B0070008B5
:1043F00000000008640800085C070008007A030A4F
:10440000000000203C090008303802403C09000848
:1044100087000000F41C00083C09000840380240F6
:104420003C09000800000400F41C00085C070008B8
:1044300000770000240802401C0800080008024021
:104440000300F0000100A0005C0700080C20000041
:104450000C4800405C0700080700000010E000E086
:104460003C090008303802403C0900080200000006
:10447000F41C00083C090008443802403C090008CC
:1044800000100000F41C00083C0900082004024051
:104490003C09000800505500F41C00083C090008C5
:1044A000000402403C090008850A0055F41C00087D
:1044B0003C090008003001403C0900083C030000B2
:1044C000F41C00083C090008003001403C090008C9
:1044D00040000000F41C00083C09000814040240DD
:1044E0003C09000801700000F41C00083C090008A9
:1044F000000802403C09000815540500F41C00089F
:104500003C090008140802403C090008C0030000F0
:10451000F41C0008FC080008BFF34F8F0548016831
:1045200011F4E0610448014302480160BFF34F8F7A
:10453000FEE700000CED00E00400FA0572B67047DB
:1045400062B6704780B5FFF7E7FF01BD4EF68851B0
:10455000CEF20001086840F470000860BFF34F8F8E
:10456000BFF36F8F4FF00070E1EE100A704700004C
:10457000FCF7EEBBFFF7FEBFFFF7FEBFFFF7FEBF86
:10458000FFF7FEBFFFF7FEBFFFF7FEBFFFF7FEBF5F
:10459000FCF718BCFFF7FEBFFFF7FEBFFFF7FEBF3B
:1045A000FFF7FEBFFFF7FEBFFFF7FEBFFFF7FEBF3F
:1045B000FFF7FEBFFFF7FEBFFFF7FEBFFFF7FEBF2F
:1045C000FFF7FEBFFFF7FEBFFFF7FEBFFFF7FEBF1F
:1045D000FFF7FEBFFFF7FEBFFFF7FEBFFFF7FEBF0F
:1045E000FFF7FEBFFFF7FEBFFFF7FEBFFFF7FEBFFF
:1045F000FFF7FEBFFFF7FEBFFFF7FEBFFFF7FEBFEF
:10460000FFF7FEBFFFF7FEBFFFF7FEBFFFF7FEBFDE
:10461000FFF7FEBFFFF7FEBFFFF7FEBFFFF7FEBFCE
:10462000FFF7FEBFFFF7FEBFFFF7FEBFFFF7FEBFBE
:10463000FFF7FEBFFFF7FEBFFFF7FEBFFFF7FEBFAE
:10464000FFF7FEBFFFF7FEBFFFF7FEBFFFF7FEBF9E
:10465000FFF7FEBFFFF7FEBFFFF7FEBFFFF7FEBF8E
:10466000FFF7FEBFFFF7FEBFFFF7FEBFFFF7FEBF7E
:10467000FFF7FEBFFFF7FEBFFFF7FEBFFFF7FEBF6E
:10468000FFF7FEBFFFF7FEBFFFF7FEBFFFF7FEBF5E
:10469000FFF7FEBFFFF7FEBFFFF7FEBFFFF7FEBF4E
:1046A000FFF7FEBFFFF7FEBFFFF7FEBFFFF7FEBF3E
:1046B000FFF7FEBFFFF7FEBFFFF7FEBFFFF7FEBF2E
:1046C000FFF7FEBFFFF7FEBFFFF7FEBFFFF7FEBF1E
:0C46D000FFF7FEBFFFF7FEBFFFF7FEBFC5
:0400000500000000F7
:00000001FF
