:020000040800F2
:100000000000022091430008954300086543000862
:10001000994300089D430008A14300080000000028
:10002000000000000000000000000000A5430008E0
:10003000A943000800000000AD430008B1430008D8
:10004000B5430008B9430008BD430008C143000898
:10005000C5430008C9430008CD430008D143000848
:10006000D5430008D9430008DD430008E1430008F8
:10007000E5430008E9430008ED430008F1430008A8
:10008000F5430008F9430008FD4300080144000857
:1000900005440008094400080D4400081144000804
:1000A00015440008194400081D44000821440008B4
:1000B00025440008294400082D4400083144000864
:1000C00035440008394400083D4400084144000814
:1000D00045440008494400084D44000851440008C4
:1000E00055440008594400085D4400086144000874
:1000F00065440008694400086D4400087144000824
:1001000075440008794400087D44000881440008D3
:1001100085440008894400088D4400089144000883
:1001200095440008994400089D440008A144000833
:10013000A5440008A9440008AD440008B1440008E3
:10014000B5440008B9440008BD440008C144000893
:10015000C5440008C9440008CD440008D144000843
:10016000D5440008D9440008DD440008E1440008F3
:10017000E5440008E9440008ED440008F1440008A3
:10018000F5440008F9440008DD08000830090008BB
:100190000700000004300008F00800081D090008EE
:1001A00008000000DD0800089C0100080430000879
:1001B0000C2F00089C01000804300008341C0008C3
:1001C0003C0F0008C81D00088C2800080C270008F8
:1001D000081C0008341E000830090008FCFFFFFF5F
:1001E0002C0F0008A01D000830090008FFFFFFFFCA
:1001F0003C0F0008A01D0008F0080008DD080008FA
:10020000500700080000000008010010F008000876
:10021000DD08000850070008000000000C01001075
:10022000F0080008DD080008EC0C0008F40E0008D7
:10023000101E0008AC190008080D0008F00800089E
:10024000DD080008F40E0008C81D0008341C000872
:100250002C270008DC280008900A0008180000007D
:10026000300900086200000004300008E81B0008A4
:10027000F0080008300900080A000000DC28000827
:10028000900A000814000000300900086400000013
:1002900004300008F0080008300900086800000079
:1002A00004300008F0080008DD080008E025000818
:1002B0000C2700084425000840020008F008000848
:1002C000DD0800080C2700080C270008442500085A
:1002D00040020008F0080008DD080008EC0C0008E7
:1002E000341C0008F40E0008101E00083009000835
:1002F0000A000000DC280008900A00081000000036
:10030000A8020008780A000808000000C0020008DF
:100310000C2F0008080D0008F00800081D0900084F
:10032000140100101D090008180100101D09000823
:100330003C0100101D09000844010010DD08000800
:1003400030090008A23F000814170008B02F000869
:1003500030180008DD080008E00E0008A01D0008A5
:10036000F0080008DD080008F40F0008700F00080E
:10037000101E00084C27000854030008F00800086D
:10038000DD0800081C0F0008C81D0008A829000887
:10039000300900085F40000868120008F0080008F3
:1003A000DD0800081C0F0008C81D000830090008FF
:1003B0007840000868120008F0080008DD0800080E
:1003C000B42800083009000833400008681200080B
:1003D000F0080008DD080008E41A00081C03000803
:1003E000C81D0008081C0008502900083009000832
:1003F0001B40000868120008F0080008DD0800082B
:10040000481B0008341C0008F0160008B02F000834
:10041000F01600088C280008C40F00088C1B000888
:10042000F0080008DD0800085C0F0008300900082B
:100430005E000000A0150008500700080100000041
:1004400008010010F0080008DD0800087C260008FC
:10045000341C00088C1B0008EC1D0008F40E00087A
:10046000C81D000898120008900A000858000000F3
:10047000081C0008F40E0008C81D0008340C000811
:10048000E81B0008901A0008F40E0008C81D0008B8
:10049000340C0008A425000834250008C81D0008F5
:1004A0007C260008900A0008100000001C270008A5
:1004B00034250008A01D0008481B0008780A000821
:1004C0008CFFFFFF481B0008F0080008DD0800084B
:1004D000AC0E000880130008700F00081811000807
:1004E000EC090008F0080008DD080008481B0008B7
:1004F000341C0008C42600088C1B0008C81D000816
:1005000064030008F0080008DD0800088C1B0008E0
:100510000C2700086C1B00085C0C0008481B000836
:10052000081C00088C1B00085C0C0008481B000815
:10053000F0080008DD080008E41A00082C03000891
:10054000101E0008F0080008DD080008E41A000882
:100550002C030008C81D0008B42800083009000852
:100560001B40000868120008F0080008DD080008B9
:10057000CC040008900A00083C0000001C0F000892
:10058000C81D000820290008900A00081400000077
:100590005411000864030008780A00080C000000E9
:1005A00054110008580E0008D4030008780A000807
:1005B000C0FFFFFF700F0008F81300083425000883
:1005C000C81D00087C260008900A000810000000E2
:1005D000F41E0008780A00080C000000E81B000860
:1005E000241F0008D4030008780A000884FFFFFFD6
:1005F000DD080008981E0008B40C0008D00C0008A4
:10060000240400086C0500081C0F0008C81D000821
:10061000A8290008900A00083800000030090008E6
:1006200034010010C81D0008900A000824000000D2
:100630003009000834010010C81D00081417000814
:10064000B02F0008F40E0008C81D0008502D000847
:10065000300900081000000004300008E0300008F5
:10066000780A000898FFFFFFDD080008700F0008F7
:10067000B428000850100008F0080008DD08000841
:10068000500700080000000028010010F0080008D2
:100690001D09000828010010DD080008D429000801
:1006A000900A0008080000005C2A0008F008000812
:1006B000DD080008D4290008900A0008080000009E
:1006C00004250008F0080008DD080008E0300008F4
:1006D00030090008B00D000814170008B02F0008FA
:1006E00030090008070E000814170008B02F000892
:1006F00030090008140E000814170008B02F000875
:10070000E0300008F0080008DD080008B008000824
:10071000A4340008F0080008DD080008081C0008E0
:10072000B41B00088C280008300900087F00000076
:10073000B41B0008EC1D000820290008900A0008DE
:10074000E0FFFFFF081C0008E81B0008F008000895
:100750005507000802CD04CD116055F8042B22F096
:10076000030252F8043B18476D07000855F8040BC4
:10077000006847F8040D55F8042B22F0030252F8E4
:10078000043B18478907000855F8042B57F8040B59
:10079000104347F8040D55F8042B22F0030252F8D9
:1007A000043B1847A907000855F8042B57F8040B19
:1007B000104047F8040D55F8042B22F0030252F8BC
:1007C000043B1847C907000855F8043B57F8040BC9
:1007D000186055F8042B22F0030252F8043B184726
:1007E000E507000857F8043B57F8041B57F8040BBB
:1007F0001A6822EA010200EA010042EA00021A60D5
:1008000055F8042B22F0030252F8043B184700006D
:100810001508000855F8043B55F8044B55F804CB6F
:100820001A6822EA04020CEA040C42EA0C021A607A
:1008300055F8042B22F0030252F8043B184700003D
:100840004508000846F8045D55F8042B22F0030221
:1008500052F8043B184700005D08000857F8040BE5
:1008600000280CBF3568361D55F8042B22F0030212
:1008700052F8043B184700000A0000000000000086
:100880000000000000000000680500105803001080
:1008900070FA00200400001010000020000000008A
:1008A00000000000083F0008160E000800000000CD
:1008B000B5080008074808490E2203680B60001DB0
:1008C000091D521EF9D155F8042B22F0030252F8EB
:1008D000043B1847780800080401001046F8045D3E
:1008E000154655F8042B22F0030252F8043B184732
:1008F000F508000856F8045B55F8042B22F00302B3
:1009000052F8043B1847000001CA47F8040D55F897
:10091000042B22F0030252F8043B184701CA47F89F
:10092000040D55F8042B22F0030252F8043B18473B
:100930003509000855F8040B47F8040D55F8042B49
:1009400022F0030252F8043B184700005109000846
:1009500055F8040B47F8040D55F8042B22F0030258
:1009600052F8043B184700006D09000857F8045B73
:1009700055F8042B22F0030252F8043B18470000FC
:1009800046F8045D4568083047F8040D55F8042B17
:1009900022F0030252F8043B18470000A1090008A6
:1009A000064807490968401A47F8040D55F8042B12
:1009B00022F0030252F8043B1847000010FA00200E
:1009C00024010010C9090008064807490968401AAF
:1009D00047F8040D55F8042B22F0030252F8043BAB
:1009E000184700000401001020010010F109000860
:1009F00057F8043B57F8042B93465A461878844618
:100A0000117848403F2420401DD1521C5B1C1878AF
:100A100011788842F9D08024001B884214D15B1CD5
:100A20001878FF28FBD0083347F8043D01206246C0
:100A300047F8042D47F8040D55F8042B22F0030263
:100A400052F8043B18475B1C187880242042FAD0E7
:100A50001B1D084803401B68002B00D0CDE7002079
:100A600047F8040D55F8042B22F0030252F8043B1A
:100A700018470000FCFFFFFF7D0A00082B68ED18F7
:100A800055F8042B22F0030252F8043B18470000EB
:100A9000950A000857F8040B00283FF4EFAF2D1D0E
:100AA00055F8042B22F0030252F8043B18470000CB
:100AB000B50A0008012374683268944204D0D21841
:100AC0003260A41A7FF4DAAF08362D1D55F8042BD6
:100AD00022F0030252F8043B18470000E10A000824
:100AE00057F8043BFFF7E7BFED0A000857F8040B7F
:100AF00057F8042B46F8042D46F8040D55F8042B3E
:100B000022F0030252F8043B18470000110B0008C2
:100B100057F8040B00787F21084047F8040D55F87A
:100B2000042B22F0030252F8043B1847310B000853
:100B300057F8041B0B4A92460B4B1C68121910788D
:100B4000521C884201D00028F9D15446121B1A7059
:100B500047F8040D55F8042B22F0030252F8043B29
:100B60001847000070FA002008010010710B0008FF
:100B700057F8041B57F8042B10784840107055F8AC
:100B8000042B22F0030252F8043B1847910B000893
:100B90000A21884205D157F8040B0D2047F8040DAF
:100BA00002E00D21884203D100F064F900F06AF9F7
:100BB00055F8042B22F0030252F8043B18470000BA
:100BC000C50B00083868017801290FD0022914D01C
:100BD00001440A78622A1AD0252A18D0642A18D02B
:100BE000232A16D0682A16D0242A14D055F8042BAC
:100BF00022F0030252F8043B184782782E2AE7D1EC
:100C000055F8042B22F0030252F8043B1847022443
:100C100002E00A2400E0102400220A70044A146052
:100C200055F8042B22F0030252F8043B1847000049
:100C300004010010390C000857F8040B57F8041B86
:100C4000A0FB012047F8042D47F8040D55F8042BAC
:100C500022F0030252F8043B18470000610C000820
:100C600057F8040B57F8043B57F8042B002812D010
:100C700093F0000F0FD10146B2FBF0F000FB112200
:100C800047F8042D47F8040D55F8042B22F0030211
:100C900052F8043B18474040401E024647F8042DD6
:100CA00047F8040D55F8042B22F0030252F8043BD8
:100CB00018470000B90C0008044A176855F8042BBF
:100CC00022F0030252F8043B184700001401001000
:100CD000D50C0008044A166855F8042B22F00302CC
:100CE00052F8043B1847000018010010F10C0008EE
:100CF000044A11688C4655F8042B22F0030252F87E
:100D0000043B1847040100100D0D0008044A614619
:100D1000116055F8042B22F0030252F8043B1847E7
:100D20000401001009490A480A4C0160001DA04254
:100D3000FBD3094F094E0FF2280546F8045D55F81C
:100D4000042B22F0030252F8043B18471111111131
:100D50000000002000020120680500105803001068
:100D6000B0080008E04000088C2D0008E0300008C2
:100D700030090008FB0000000430000830090008BA
:100D8000F700000004300008E03000082C190008CB
:100D900008CA9F4603B502490868401C086003BDA5
:100DA00000000010A90D000856F8045BBDE83F9C48
:100DB000464953482041524D2053544D3332463416
:100DC0003037564720444953434F20403136384D41
:100DD000687A20524D2056347468204F454D2028A3
:100DE0004329323031342D3230313820412D5445B1
:100DF000414D20464F525448203A204170722032D3
:100E0000392032303138002061742031323A3235A5
:100E10003A3131001500206F6B2C20676F20666916
:100E2000736820696E20424153452000844E4F4F25
:100E3000D0FFFFFF000000003D0E000855F8042B16
:100E400022F0030252F8043B18470000874558453A
:100E5000435554C52C0E00085D0E000800F00AF83A
:100E600000F010F857F8042B22F0030252F8043B6C
:100E7000184700007246024C2168090AFCD310474B
:100E8000004800407246024913240C7010470000CD
:100E9000044800407246024911240C7010470000BB
:100EA000044800408242CCFF4C0E00081D09000897
:100EB000200000008255D0FFA40E00081D09000884
:100EC000200100108546454E43C5FFFFB40E0008C3
:100ED0001D0900082C0100108244D0FFC40E000838
:100EE0001D0900082401001084424153C5FFFFFF83
:100EF000D80E00081D090008040100108743555250
:100F000052454ED4E80E00081D09000830010010BB
:100F10008553544154C5FFFFFC0E00081D0900080D
:100F200010010010834F55D4100F00081D09000850
:100F30000C0100108249CEFF240F00081D09000893
:100F400008010010835041C4340F00081D09000837
:100F500010FA0020835449C2440F00081D090008FC
:100F600070FA002084484552C5FFFFFF540F000867
:100F7000DD080008E00E0008C81D0008F0080008A1
:100F800085414C4C4FD4FFFF640F0008DD0800087A
:100F90009C090008B41B0008B4280008D4290008E4
:100FA000900A0008080000003C030008E00E00085A
:100FB000A01D0008F008000887414C49474E45C471
:100FC000800F0008C90F000857F8040BC01C054922
:100FD000084047F8040D55F8042B22F0030252F89C
:100FE000043B1847FCFFFFFF85414C4947CEFFFFFC
:100FF000B80F0008DD080008700F00083C27000843
:101000008C280008341C00088C1B0008700F000896
:10101000E80A000830090008FF000000C41A0008B0
:10102000341E0008B00A0008ECFFFFFF481B000850
:1010300030090008FCFFFFFFEC2A0008E00E000862
:10104000101E0008F008000881ACFFFFE80F000840
:10105000DD0800089C090008D4290008900A00084F
:10106000080000003C03000864030008F0080008C2
:101070008243ACFF48100008DD0800089C09000806
:10108000D4290008900A0008080000003C0300086A
:10109000700F0008341E00081C27000854030008C5
:1010A000F008000888564152414C4C4FD4FFFFFFD6
:1010B00070100008DD080008C40900084C2700086B
:1010C00018280008B41B0008B4280008D429000818
:1010D000900A00081800000030090008BF3F00080F
:1010E00014170008B02F000830180008BC0E0008C4
:1010F000C81D0008081C00084C270008DC27000851
:10110000BC0E0008A01D0008F0080008864C4154E1
:101110004553D4FFA4100008DD080008080F00089C
:10112000C81D0008F0080008834C46C10C110008D7
:101130003511000857F8040B083847F8040D55F826
:10114000042B22F0030252F8043B1847834346C1A4
:10115000281100085911000857F8040B001F47F820
:10116000040D55F8042B22F0030252F8043B1847F3
:10117000834E46C14C110008DD0800089C010008A0
:10118000B42800081C270008B4280008341C0008F4
:10119000EC1D000830090008FF000000B42800081A
:1011A000900A0008E0FFFFFF30090008FFFFFFFF83
:1011B00018070008F0080008835046C170110008A5
:1011C000DD0800081C270008180700087C26000816
:1011D000341C0008EC1D000830090008FF00000066
:1011E000B4280008900A0008E4FFFFFF9C010008F3
:1011F0008C280008F0080008883F414C49474E45BC
:10120000C4FFFFFFB8110008DD080008300900081E
:1012100003000000EC2A0008900A00083C000000CF
:10122000FC0300082E56414C5545204D5553542083
:101230004245204556454E204E4F54204F444420B1
:10124000414E44204D554C5449504C45204F46206A
:10125000342120FF30180008F0080008863F45526E
:10126000524FD2FFF8110008DD080008081C0008E2
:10127000900A000810000000F8140008780A00081E
:1012800008000000E81B0008F008000885444947F2
:1012900049D4FFFF5C1200089D12000857F8042B88
:1012A00057F8040B303813D4092802DDC01F0A2870
:1012B0000EDB90420CDA0246012047F8042D47F875
:1012C000040D55F8042B22F0030252F8043B184792
:1012D000002047F8040D55F8042B22F0030252F8C1
:1012E000043B184787454E434C4F53C58C120008AA
:1012F000F512000857F8040B39680022521E491EE7
:10130000491C521C0B789842FAD047F8042D002B48
:101310000CD11846521C47F8042D47F8040D55F817
:10132000042B22F0030252F8043B1847491C521CBC
:101330000B78984201D0002BF8D11046401C47F89A
:10134000042D47F8040D55F8042B22F0030252F83F
:10135000043B1847C180FFFFE41200086113000836
:1013600056F8045B55F8042B22F0030252F8043BB4
:101370001847000084574F52C4FFFFFF5413000862
:10138000DD0800085C0F00083C0F0008C81D0008BD
:101390008C280008081C0008F01200083C0F000808
:1013A000A01D0008B41B0008B42800088C1B00080E
:1013B0006C1B0008700F0008341E00088C28000801
:1013C000700F00087C2600086C1B0008F41C000845
:1013D0000C270008700F00087C260008481B000836
:1013E0008C280008341E0008F0080008864E554D71
:1013F0004245D2FF74130008DD080008EC0C000819
:10140000C00B00080C2700080C270008901A0008E1
:10141000341C00087C260008EC1D00083009000878
:101420002D000000DC2800081C270008EC2A00081A
:10143000341C00088C1B00088C28000830090008A8
:10144000FFFFFFFF34250008101E000848040008B5
:10145000341C0008EC1D00080C270008B428000804
:10146000900A00086C000000341C0008EC1D000805
:10147000300900082E000000B4280008900A000877
:1014800044000000341C0008EC1D0008300900086E
:101490002C000000DC280008900A0008140000005E
:1014A00030090008FFFFFFFF780A000898FFFFFFE0
:1014B000080D00081C270008300900080340000838
:1014C000681200080C270008780A000878FFFFFF60
:1014D000E81B0008481B0008900A000808000000EC
:1014E00004250008080D0008F00800088545525240
:1014F0004FD2FFFFEC130008DD080008700F000852
:10150000F0160008B02F000814170008B02F0008CC
:10151000842E00081C0F0008C81D0008900A00084F
:101520004000000090060008C81D0008900A00084E
:101530003000000090060008C81D0008C011000817
:1015400030110008C81D0008080F0008101E000810
:1015500090060008C81D0008E00E0008101E0008D4
:101560007C06000830180008C1A7FFFFEC14000833
:10157000DD080008CC040008A8290008300900088C
:10158000F53F000868120008E81B0008241F000847
:10159000F0080008864558504543D4FF68150008F8
:1015A000DD08000810020008FC0100087C26000885
:1015B000B41B00088C280008B41B00087C26000817
:1015C000A82E0008E80A00084C3000088C0B000820
:1015D000341C00083009000809000000DC2800085D
:1015E000900A00080C000000E81B0008AC0E000880
:1015F000341C00089C010008DC280008B41B00080B
:10160000300900087F000000DC280008142B0008C7
:10161000900A000850000000E81B0008341C000875
:10162000C41A000858260008DC280008341C0008EA
:10163000481B00082C270008B42800088C28000844
:101640008C1B0008900A00081000000088010008A8
:10165000780A00086C000000A4010008780A00085D
:1016600060000000341C0008300900080D00000074
:10167000DC280008900A00081C000000281B000855
:10168000E81B0008AC0E00080C270008780A0008C8
:1016900008000000341C0008C41A0008341E0008AA
:1016A0001C2700083C0F0008A01D00080C2700089C
:1016B000C41A00087C260008341E00080430000804
:1016C000B00A000804FFFFFF842E00087C260008F3
:1016D00014170008081C000858260008341E0008CB
:1016E000F008000885434F554ED4FFFF94150008BD
:1016F000DD080008341C00087C260008081C0008CF
:10170000EC1D0008F008000884244C45CEFFFFFFC4
:10171000E4160008191700083A684040115C0943B4
:1017200001D0401CFAE747F8040D55F8042B22F0CD
:10173000030252F8043B184786464F524745D4FFF0
:1017400008170008DD08000870150008341C0008A0
:1017500030090008000002082029000830090008AC
:10176000663F000868120008341C000830090008B1
:10177000000010082029000830090008833F0008F5
:1017800068120008341C0008301100088C1B000887
:1017900018110008C011000830110008341C00089E
:1017A000C81D0008080F0008101E0008341C00089F
:1017B000C4260008C81D00083009000809090008EF
:1017C000DC280008900A0008140000003009000816
:1017D000FCFFFFFFBC0E0008A01D00086C1B0008EA
:1017E000DC280008900A0008A8FFFFFF481B00083B
:1017F000C81D0008080F0008101E00087811000816
:10180000E00E0008101E0008183A0008E839000829
:10181000F0080008834259C538170008211800084D
:10182000FFF780BA8541424F52D4FFFF14180008D9
:10183000DD080008B40C0008D00C000810020008F5
:1018400030090008183F000818110008EC090008CA
:10185000900A000810000000E81B0008541100085E
:10186000580E00083009000838010010C81D000893
:10187000900A00086C00000030090008E418000815
:1018800014170008B02F000884300008900A0008E0
:10189000F8FFFFFF4C30000830090008430000004B
:1018A000DC280008900A0008E0FFFFFF4C30000829
:1018B000300900084F000000DC280008900A0008EA
:1018C000C8FFFFFF4C300008300900080D00000081
:1018D000DC280008900A0008B0FFFFFFE030000895
:1018E000F0050008204572726F722048616C742008
:1018F0002845484F4E2F45484F464629202D205415
:101900006F20434F6E74696E756520547970652041
:10191000434F207468656E20456E7465723A2000EE
:1019200084434F4CC4FFFFFF24180008DD08000863
:1019300008070008C8060008F0050008900D0A46D0
:101940004953482053797374656D3A0D8AFFFFFF40
:1019500020190008832E53C83C190008DD08000830
:10196000300900081000000024020008F0080008F8
:10197000832E53C454190008DD08000830090008FC
:101980000A00000024020008F0080008832E53C259
:1019900070190008DD0800082C2700082402000840
:1019A000F0080008822ED3FF8C190008DD0800081B
:1019B0001C030008C81D0008E41A0008C42600081B
:1019C000DC280008A8290008900A00086800000028
:1019D000FC03000805544F533E20FFFF1C03000882
:1019E000C81D0008E41A0008C4260008E80A000818
:1019F000C41A0008C81D0008F40E0008C81D00081D
:101A0000300900080A000000DC280008900A0008DD
:101A100010000000A8020008780A00080800000072
:101A2000C00200080C2F00084C270008DC0A000840
:101A3000C0FFFFFFF008000884324455D0FFFFFFCD
:101A4000A4190008491A000838687A6847F8042D74
:101A500047F8040D55F8042B22F0030252F8043B1A
:101A600018470000842D4455D0FFFFFF381A0008A6
:101A7000DD080008341C0008900A00080800000077
:101A8000341C0008F008000883524FD4641A000880
:101A9000951A000857F8042B57F8041B57F8040B45
:101AA00047F8041D47F8042D47F8040D55F8042B9A
:101AB00022F0030252F8043B1847000081C9FFFFDF
:101AC000881A0008C91A0008306847F8040D55F84C
:101AD000042B22F0030252F8043B1847835350C0F2
:101AE000BC1A0008E91A0008384647F8040D55F8F2
:101AF000042B22F0030252F8043B1847835250C0D3
:101B0000DC1A0008091B0008304647F8040D55F898
:101B1000042B22F0030252F8043B1847854C454140
:101B200056C5FFFFFC1A00082D1B000832687260C2
:101B300055F8042B22F0030252F8043B184700002A
:101B40008252BEFF1C1B00084D1B000856F8040BF8
:101B500047F8040D55F8042B22F0030252F8043B19
:101B60001847000081D2FFFF401B0008711B0008CE
:101B7000306847F8040D55F8042B22F0030252F8A0
:101B8000043B1847823ED2FF641B0008911B0008EB
:101B900057F8041B46F8041D55F8042B22F00302E5
:101BA00052F8043B18470000844F5645D2FFFFFF10
:101BB000841B0008B91B000857F8042B57F8040BC6
:101BC00047F8040D47F8042D47F8040D55F8042B89
:101BD00022F0030252F8043B184700008444524F9D
:101BE000D0FFFFFFA81B0008ED1B00083F1D55F8A4
:101BF000042B22F0030252F8043B18478453574148
:101C0000D0FFFFFFDC1B00080D1C000857F8042B59
:101C100057F8040B47F8042D47F8040D55F8042B2A
:101C200022F0030252F8043B18470000834455D0C9
:101C3000FC1B0008391C0008386847F8040D55F8EB
:101C4000042B22F0030252F8043B1847900D0A536C
:101C50007461636B2053747566663A0D8AFFFFFFEB
:101C60002C1C000887414E44424954D34C1C0008A8
:101C7000751C000857F8042B57F8041B086810401F
:101C8000086055F8042B22F0030252F8043B184771
:101C900087534554424954D3641C0008A11C0008D2
:101CA00057F8042B57F8041B08681043086055F8D0
:101CB000042B22F0030252F8043B184787434C528E
:101CC000424954D3901C0008CD1C000857F8042B3F
:101CD00057F8041B08689043086055F8042B22F05D
:101CE000030252F8043B184785434D4F56C5FFFF8A
:101CF000BC1C0008F91C000857F8041B57F8042BFB
:101D000057F8043B002907D018781070491E0029A5
:101D100002D0521C5B1CF7D155F8042B22F00302B1
:101D200052F8043B184700008446494CCCFFFFFFA3
:101D3000E81C0008391D000857F8040B57F8041B6D
:101D400057F8042B002904D08B181070521C9A42AB
:101D5000FBD155F8042B22F0030252F8043B18473C
:101D60008545524153C5FFFF281D0008DD080008C6
:101D70000C270008341D0008F008000886424C417A
:101D80004E4BD3FF601D0008DD080008AC0E0008B4
:101D9000341D0008F0080008822BA1FF7C1D0008FC
:101DA000A51D000857F8041B57F8040B0A68801893
:101DB000086055F8042B22F0030252F8043B184740
:101DC00081C0FFFF981D0008CD1D000857F8041BB7
:101DD000086847F8040D55F8042B22F0030252F866
:101DE000043B18478243C0FFC01D0008F11D0008D6
:101DF00057F8041B087847F8040D55F8042B22F017
:101E0000030252F8043B184781A1FFFFE41D0008BC
:101E1000151E000857F8040B57F8041B016055F80D
:101E2000042B22F0030252F8043B18478243A1FF1F
:101E3000081E0008391E000857F8040B57F8041B49
:101E4000017055F8042B22F0030252F8043B1847A6
:101E50009F0D0A5265616420616E64205772697437
:101E600065204D656D6F727920576974683A0D8AE7
:101E70002C1E000881DDFFFF501E0008DD08000851
:101E800050070008C000000010010010F008000812
:101E9000C1DBFFFF741E0008DD08000850070008C2
:101EA0000000000010010010F0080008C95B434F5B
:101EB0004D50494C45DDFFFF901E0008DD0800082D
:101EC000CC040008A8290008300900081B400008BD
:101ED00068120008E81B00085411000850100008A0
:101EE000F0080008C8444C4954455241CCFFFFFF5C
:101EF000AC1E0008DD0800081C0F0008C81D000803
:101F0000900A000810000000081C0008241F0008A8
:101F1000241F0008F0080008C74C4954455241CC22
:101F2000E41E0008DD0800081C0F0008C81D00089A
:101F3000900A000810000000E804000830090008BA
:101F400050100008F00800088223BEFF181F000888
:101F5000DD080008E81B0008E81B0008340300083F
:101F6000C81D00084C0F0008B41B0008B428000866
:101F7000F008000884484F4CC4FFFFFF481F0008CA
:101F8000DD08000830090008FFFFFFFF34030008E8
:101F9000A01D000834030008C81D0008341E0008F6
:101FA000F008000884534947CEFFFFFF741F000864
:101FB000DD080008901A0008D4290008900A0008DB
:101FC00010000000300900082D000000801F0008EC
:101FD000F00800088223D3FFA41F0008DD080008D2
:101FE00008200008B41B0008B41B0008142B0008CC
:101FF000A8290008900A0008E8FFFFFFF008000881
:1020000081A3FFFFD41F0008DD080008F40E0008BC
:10201000C81D000808050008901A000830090008CB
:1020200009000000B41B000820290008900A0008DD
:102030001000000030090008070000008C2800088C
:1020400030090008300000008C280008801F0008BC
:10205000F0080008823CA3FF00200008DD0800080B
:102060005007000810FA002044010010F008000892
:1020700085444F4553BEFFFF54200008DD0800088B
:10208000481B000818110008C0110008341C000883
:1020900054110008300900087F090008081C0008D6
:1020A000101E0008101E0008F0080008873C42556A
:1020B000494C44D370200008DD080008F8220008CD
:1020C000F0080008C52B4C4F4FD0FFFFAC20000894
:1020D000DD0800083C270008BC030008E8040008ED
:1020E000DC0A000868060008F0080008C44C4F4FDE
:1020F000D0FFFFFFC4200008DD0800083C270008CF
:10210000BC030008E8040008B00A000868060008DC
:10211000F0080008C244CFFFEC200008DD080008EA
:10212000E8040008E80A0008700F00083C270008CF
:10213000F0080008C5454E4449C6FFFF14210008B9
:10214000DD080008800300082C270008BC030008F5
:10215000700F0008B41B0008B4280008081C000811
:10216000101E0008F0080008C4544845CEFFFFFFC9
:1021700034210008DD08000840210008F0080008AC
:10218000C4454C53C5FFFFFF68210008DD08000867
:102190002C270008BC030008E8040008780A00089F
:1021A000700F00080C27000850100008081C0008D9
:1021B0002C270008402100082C270008F008000800
:1021C000C249C6FF80210008DD080008E8040008B5
:1021D000900A0008700F00080C2700085010000833
:1021E0002C270008F0080008C5554E5449CCFFFFC5
:1021F000C0210008DD0800081C270008BC030008F7
:10220000E8040008900A000868060008F0080008C2
:10221000C541474149CEFFFFE8210008DD0800081D
:102220001C270008BC030008E8040008780A00081E
:1022300068060008F0080008C65245504541D4FF22
:1022400010220008DD0800088C1B00088C1B000809
:102250001C220008481B0008481B00082C27000807
:10226000B428000840210008F0080008C557484974
:102270004CC5FFFF38220008DD080008C82100080F
:10228000A0260008F0080008C542454749CEFFFFD8
:102290006C220008DD08000880030008700F0008A9
:1022A0001C270008F0080008970D0A496E7369643E
:1022B0006520436F6C6F6E20574F5244533A0D8A1E
:1022C0008822000889494D4D4544494154C5FFFFC6
:1022D000A8220008DD0800081811000830090008CD
:1022E000400000006C0B0008F008000886435245CF
:1022F0004154C5FFC4220008DD0800089C090008FD
:10230000300900080F000000B4280008D429000894
:10231000900A0008080000003C030008CC040008F4
:10232000900A000824000000E81B0008781100084B
:10233000242F000830090008DF3F000814170008A8
:10234000B02F000830180008700F0008341C000877
:1023500090060008101E0008341C0008EC1D000840
:10236000300900081F0000009C2A000854030008E0
:10237000341C000830090008800000006C0B0008C5
:10238000700F000830090008800000006C0B000886
:102390001C270008E00E0008A01D00081811000806
:1023A00050100008080F0008101E0008E80400087C
:1023B0001D090008700F0008C4260008501000080E
:1023C000F008000888434F4E5354414ED4FFFFFF9E
:1023D000EC220008DD080008E8230008F0080008E7
:1023E00083434FCEC4230008DD080008F82200080C
:1023F00030090008FCFFFFFFE00E0008A01D0008E8
:10240000501000087C060008F00800088856415269
:102410004941424CC5FFFFFFE0230008DD080008EA
:1024200030240008F0080008835641D20C2400082C
:10243000DD080008F822000830090008F8FFFFFF57
:10244000E00E0008A01D0008E804000809090008C3
:102450001C270008B4100008501000087C06000873
:10246000F0080008C1BBFFFF28240008DD080008B1
:1024700048050008E8040008F0080008981E000855
:102480007C060008F0080008C1BAFFFF64240008B9
:10249000DD080008A003000834050008F822000841
:1024A0007C1E000830090008F8FFFFFFE00E00085E
:1024B000A01D0008E8040008DD080008F008000876
:1024C000960D0A43524541544520574F52445320DC
:1024D000576974683A0D8AFF882400088444414291
:1024E000D3FFFFFFC0240008DD080008341C0008EB
:1024F000B0060008F008000887444E45474154C51F
:10250000DC2400080925000857F8040B57F8042BB1
:10251000C043D243521C47F8042D47F8040D55F828
:10252000042B22F0030252F8043B1847834450CC9A
:10253000F82400081D0900084001001083442ED231
:102540002C250008DD0800088C1B0008081C00086A
:10255000B41B0008E82400085C200008DC1F000809
:10256000B01F0008501F0008481B0008B41B0008DB
:10257000B4280008D02E0008B02F0008F00800088A
:102580008244AEFF3C250008DD0800080C27000847
:10259000442500080C2F0008F00800088244ABFF17
:1025A00080250008A925000857F8040B57F8041BDC
:1025B00057F8043B57F8042B5218584147F8042D9C
:1025C00047F8040D55F8042B22F0030252F8043B9F
:1025D0001847000084532D3EC4FFFFFF9C250008D0
:1025E000E525000857F8042B4040124300D5401E53
:1025F00047F8042D47F8040D55F8042B22F0030288
:1026000052F8043B184700008232AAFFD425000884
:102610001526000857F8040B400047F8040D55F83C
:10262000042B22F0030252F8043B18478232AFFF1A
:10263000082600083926000857F8040B401047F810
:10264000040D55F8042B22F0030252F8043B1847FE
:102650008231ADFF2C2600085D26000857F8040BD8
:10266000401E47F8040D55F8042B22F0030252F8DF
:10267000043B18478231ABFF502600088126000832
:1026800057F8040B401C47F8040D55F8042B22F0B2
:10269000030252F8043B18478232ABFF742600084D
:1026A000A526000857F8040B801C47F8040D55F8C0
:1026B000042B22F0030252F8043B18478234ABFF8C
:1026C00098260008C926000857F8040B001D47F893
:1026D000040D55F8042B22F0030252F8043B18476E
:1026E0008234ADFFBC260008ED26000857F8040B25
:1026F000001F47F8040D55F8042B22F0030252F88E
:10270000043B184781B0FFFFE02600081D090008C0
:102710000000000081B1FFFF042700081D09000828
:102720000100000081B2FFFF142700081D09000806
:102730000200000081B3FFFF242700081D090008E4
:102740000300000081B4FFFF342700081D090008C2
:1027500004000000824DAAFF44270008DD0800089D
:10276000441A0008602B00088C1B0008842A00080B
:10277000081C0008842A0008340C0008481B0008C4
:10278000B0060008F0080008824DAFFF542700088B
:10279000DD080008B41B00088C1B00088C1B000817
:1027A000E82400086C1B0008842A00085C0C000860
:1027B000481B00086C1B0008602B000898060008E6
:1027C000081C0008481B000898060008081C0008A0
:1027D000F008000881AAFFFF88270008DD0800082C
:1027E0005C270008E81B0008F0080008842F4D4F04
:1027F000C4FFFFFFD4270008DD0800088C1B000879
:10280000E0250008481B000890270008F008000891
:1028100081AFFFFFEC270008DD080008F82700085B
:10282000081C0008E81B0008F0080008834D4FC48E
:1028300010280008DD080008F8270008E81B000839
:10284000F0080008852A2F4D4FC4FFFF2C280008F0
:10285000DD0800088C1B00085C270008481B0008E6
:1028600090270008F0080008822AAFFF44280008DB
:10287000DD08000850280008081C0008E81B0008B4
:10288000F008000881ABFFFF6828000891280008C5
:1028900057F8040B57F8041B401847F8040D55F877
:1028A000042B22F0030252F8043B184781ADFFFFCE
:1028B00084280008B928000857F8040B57F8041BAF
:1028C000081A47F8040D55F8042B22F0030252F8B9
:1028D000043B184781BDFFFFAC280008E128000831
:1028E000404057F8040B57F8041B401A09D04040E9
:1028F00047F8040D55F8042B22F0030252F8043B6C
:102900001847013847F8040D55F8042B22F003024C
:1029100052F8043B1847000081BCFFFFD428000890
:10292000252900084040013857F8041B57F8042BAC
:10293000914200DC404047F8040D55F8042B22F08A
:10294000030252F8043B18478255BCFF18290008BF
:10295000DD080008441A0008602B0008D42900088C
:10296000900A000818000000E81B0008D42900089D
:10297000A8290008780A00080C000000B428000804
:10298000D4290008F008000881BEFFFF482900088C
:10299000DD080008081C000820290008F0080008CD
:1029A0008230BDFF88290008AD290008404057F853
:1029B000041B002900D1401E47F8040D55F8042BD4
:1029C00022F0030252F8043B184700008230BCFF9B
:1029D000A0290008D929000857F8041B40400138F5
:1029E000094300D4404047F8040D55F8042B22F069
:1029F000030252F8043B1847834249CECC29000811
:102A0000DD08000850070008020000000401001063
:102A1000F0080008834845D8F8290008DD080008B8
:102A2000500700081000000004010010F008000822
:102A300087444543494D41CC142A0008DD0800086D
:102A4000500700080A00000004010010F008000808
:102A5000864E45474154C5FF302A0008612A0008C8
:102A600057F8040BC043401C47F8040D55F8042BDD
:102A700022F0030252F8043B18470000834142D37E
:102A8000502A0008DD080008341C000898060008D9
:102A9000F0080008834D49CE7C2A0008DD080008B4
:102AA000441A000890290008900A00080800000055
:102AB000081C0008E81B0008F0080008834D41D8F6
:102AC000942A0008DD080008441A0008202900089C
:102AD000900A000808000000081C0008E81B000815
:102AE000F008000883414EC4BC2A0008F12A0008FF
:102AF00057F8040B57F8041B084047F8040D55F825
:102B0000042B22F0030252F8043B1847824FD2FFF5
:102B1000E42A0008192B000857F8040B57F8041B87
:102B2000084347F8040D55F8042B22F0030252F82D
:102B3000043B1847834E4FD40C2B0008412B000850
:102B400057F8040BC04347F8040D55F8042B22F046
:102B5000030252F8043B184783584FD2342B000825
:102B6000652B000857F8040B57F8041B484047F83A
:102B7000040D55F8042B22F0030252F8043B1847C9
:102B800084535854C8FFFFFF582B0008912B0008AE
:102B900057F8040B00B247F8040D55F8042B22F047
:102BA000030252F8043B184784535854C2FFFFFFF6
:102BB000802B0008B92B000857F8040B40B247F8E7
:102BC000040D55F8042B22F0030252F8043B184779
:102BD00084524556D7FFFFFFA82B0008E12B0008C1
:102BE00057F8040B00BA47F8040D55F8042B22F0EF
:102BF000030252F8043B1847834153D2D02B0008FC
:102C0000052C000857F8042B57F8040B104147F81F
:102C1000040D55F8042B22F0030252F8043B184728
:102C2000834C53D2F82B00082D2C000857F8042BA6
:102C300057F8040BD04047F8040D55F8042B22F048
:102C4000030252F8043B1847834C53CC202C000855
:102C5000552C000857F8042B57F8040B904047F800
:102C6000040D55F8042B22F0030252F8043B1847D8
:102C7000822ED2FF482C0008DD0800088C1B0008BB
:102C8000E0250008481B000844250008F00800085B
:102C9000832E52D5702C0008DD0800088C1B00081C
:102CA0000C2700085C200008DC1F0008501F0008EB
:102CB000341C0008481B0008081C0008B428000841
:102CC000D02E0008B02F0008F00800088255AEFF93
:102CD000902C0008DD0800080C2700088825000853
:102CE000F008000881BFFFFFCC2C0008DD080008B9
:102CF000C81D0008042D0008F008000881AEFFFF81
:102D0000E42C0008DD080008E025000888250008FC
:102D1000F0080008822EC2FFFC2C0008DD08000825
:102D20002C270008D8020008F0080008822EC8FFEF
:102D3000142D0008DD08000830090008100000000C
:102D4000D8020008F0080008822EC4FF2C2D0008CD
:102D5000DD080008300900080A000000D802000859
:102D6000F0080008910D0A4E554D4245522053740B
:102D70007566663A0D8AFFFF482D00088A55415254
:102D800054335F494E49D4FF642D0008DD08000824
:102D90003009000800020120C81D0008A829000809
:102DA000900A00081C0000003009000804020120FD
:102DB000C81D00088C1B0008780A000810000000DD
:102DC00030090008802500008C1B0008300900082D
:102DD00080DE8002481B000818280008300900081F
:102DE00008480040101E0008F0080008864D5942AF
:102DF0004155C4FF7C2D0008DD080008500700087D
:102E00000000000000020120300900080402012037
:102E1000101E0008F00800088955415254335F4CD9
:102E200053D2FFFFEC2D00082D2E0008054908782D
:102E300047F8040D55F8042B22F0030252F8043B26
:102E400018470000004800408855415254335F52F3
:102E5000D8FFFFFF182E00081D0900080448004095
:102E60008855415254335F54D8FFFFFF482E000865
:102E70001D0900080448004084584F46C6FFFFFF64
:102E8000602E0008892E0008FDF7F4FFFDF7FAFF19
:102E900055F8042B22F0030252F8043B18470000B7
:102EA00083584FCE782E0008AD2E0008FDF7E2FFC4
:102EB000FDF7F0FF55F8042B22F0030252F8043B13
:102EC00018470000865350414345D3FFA02E000809
:102ED000DD0800080C270008C42A0008701A000842
:102EE000900A0008180000000C270008E80A0008F3
:102EF0000C2F0008B00A0008F8FFFFFFF0080008D8
:102F00008553504143C5FFFFC42E0008DD0800086B
:102F1000AC0E000804300008F0080008834944AEF5
:102F2000002F0008DD080008F0160008300900082E
:102F30001F000000EC2A0008B02F00080C2F00082A
:102F4000F0080008C22EA2FF1C2F0008DD080008B0
:102F500030090008220000001C0F0008C81D0008EE
:102F6000900A00082C000000E8040008FC03000898
:102F700080130008700F0008EC1D00087C26000874
:102F8000C40F000854030008780A00081400000069
:102F900080130008700F0008F0160008B02F00081A
:102FA000F008000884545950C5FFFFFF442F000863
:102FB000DD080008701A0008900A000834000000BC
:102FC000842E0008B41B00088C280008081C000888
:102FD000E80A0008C41A00080C0B000804300008B6
:102FE000B00A0008F0FFFFFF780A000808000000A0
:102FF000E81B0008F008000884454D49D4FFFFFF96
:10300000A42F00080930000857F8040BFDF732FF21
:103010000649087006490868401C086055F8042BEA
:1030200022F0030252F8043B184700000448004015
:103030000C010010834B45D9F82F0008DD0800086B
:10304000A82E00084C300008F00800085130000895
:10305000074A084B19688909FCD3106847F8040D22
:1030600055F8042B22F0030252F8043B18470000E5
:103070000448004000480040843F4B45D9FFFFFF13
:103080003430000889300008FDF7F4FEFDF702FF38
:103090004040074B1968890900D3013847F8040DEF
:1030A00055F8042B22F0030252F8043B18470000A5
:1030B00000480040834352D378300008DD08000800
:1030C0000C270008E80A0008E0300008B00A0008F1
:1030D000F8FFFFFFF00800088243D2FFB430000879
:1030E000DD08000810020008FC030008020D0AFFBA
:1030F000F00800088C0D0A4649534820494F3A0D04
:103100008AFFFFFFD83000088B495251535F524568
:1031100053554DC5F43000081D31000801F020F969
:1031200055F8042B22F0030252F8043B1847000024
:103130008C495251535F53555350454EC4FFFFFFC6
:10314000083100084931000801F008F955F8042B4E
:1031500022F0030252F8043B184700008F535953E2
:103160005449434B5F4952515F4F46C630310008C6
:103170007531000804490520086055F8042B22F039
:10318000030252F8043B184710E000E08E535953F5
:103190005449434B5F4952515F4FCEFF5C310008A9
:1031A000A531000804490720086055F8042B22F0D7
:1031B000030252F8043B184710E000E08F0D0A4963
:1031C0004E54455252555054533A0D8A8C31000892
:1031D0008A464C4153485F534156C5FFBC310008F5
:1031E000DD08000818110008F83A00082029000836
:1031F000900A000820000000E0300008FC030008EE
:103200000F4E4F5448494E4720544F205341564586
:10321000F0080008E0320008C81D00083009000866
:1032200000001008DC280008900A000828000000B0
:10323000E0300008FC030008144C41535420464C75
:1032400041534820415641494C2055534544FFFFC6
:10325000F0080008F40F0008BC0E0008C81D0008A4
:10326000F0320008101E000818110008F83200089B
:10327000E8320008101E000818110008F83A00088B
:10328000DC280008900A0008480000009437000875
:10329000F83A0008E00E0008101E0008F03200089E
:1032A000C81D0008BC0E0008101E0008E832000807
:1032B000C81D0008080F0008101E0008A4340008EC
:1032C000E0300008183A0008E8390008F008000863
:1032D0001811000824330008780A00089CFFFFFF3B
:1032E0001D090008040000201D0900080800002036
:1032F0001D0900080C000020FD32000857F8040BDF
:10330000064A1040064A1268801847F8040D55F81E
:10331000042B22F0030252F8043B1847FFFF0F0072
:1033200004000020DD080008C0110008341C00085B
:103330008C1B000854110008341C0008C81D00082C
:10334000300900087F090008DC280008900A0008FE
:1033500028000000C4260008341C0008341C0008A3
:10336000C81D0008F8320008081C0008101E0008DC
:10337000780A000800010000341C0008C81D00087D
:10338000300900081D090008DC280008B41B0008EB
:10339000C81D00083009000809090008DC280008D9
:1033A000142B0008900A000810000000E81B000819
:1033B000780A0008C4000000C4260008341C000875
:1033C000C81D00083009000830090008DC28000882
:1033D000900A000810000000C4260008780A0008BF
:1033E000D8FFFFFF341C0008C81D00083009000882
:1033F000FC030008DC280008900A000820000000F8
:10340000341C0008C4260008EC1D00088C280008A5
:10341000C40F0008780A0008A0FFFFFF341C000852
:10342000C81D000830090008F0080008DC28000862
:10343000A8290008900A00083C000000341C00087D
:10344000C81D0008F83A000890290008900A0008F2
:1034500068FFFFFF341C0008341C0008C81D00086A
:10346000F8320008081C0008101E0008780A00083E
:1034700048FFFFFFE81B0008481B00083011000848
:10348000341C0008C81D0008341C0008080F000880
:10349000101E0008F8320008081C0008101E000862
:1034A000F0080008DD0800083009000800000208E4
:1034B000341C00083009000804000020101E000819
:1034C000341C00088C1B0008C81D0008E03B0008E5
:1034D000B4280008900A000810000000481B0008EB
:1034E000E81B0008F00800086C1B0008E032000828
:1034F000101E00086C1B00083009000808000000BE
:103500008C280008341C0008C81D0008080F00089B
:10351000101E0008C4260008C81D0008BC0E0008C4
:10352000101E0008E0300008FC0300081741444466
:10353000454420574F5244532046524F4D2041445A
:10354000445220FF6C1B0008342D0008481B000863
:10355000C4260008C81D0008780A000854FFFFFFB1
:10356000DD080008341C00088C2800088C1B0008AB
:10357000341C0008C81D00087C260008900A0008BA
:1035800038000000E0300008FC03000817455241F5
:103590005345442042414420464C41534820504129
:1035A00047452020342D0008E81B0008481B000870
:1035B000E81B0008F0080008C4260008341C0008B6
:1035C000341C00086C1B0008081C0008B428000804
:1035D000900A00080C000000780A000898FFFFFF1E
:1035E000E0300008FC0300080E464C4153482050D0
:1035F000414745204F4B20FFB4280008342D0008D8
:10360000481B0008E81B0008F00800088C464C41E5
:1036100053485F464F524745D4FFFFFFD031000863
:10362000DD080008FC0300081754414B45532041B6
:10363000424F55542036205345434F4E445321208A
:103640004431000818390008F8380008500700080D
:103650002A020100103C0240F83800085007000818
:1036600032020100103C0240F83800085007000800
:103670003A020100103C0240F838000850070008E8
:1036800042020100103C0240F838000850070008D0
:103690004A020100103C0240F838000850070008B8
:1036A00052020100103C0240F838000850070008A0
:1036B0005A020100103C0240F8380008383900086E
:1036C000183100080C3B0008181100089029000868
:1036D000900A000810000000803E0008780A0008E8
:1036E0001C00000030090008083F0008F83A0008F4
:1036F000C011000830110008101E00085007000813
:103700000000020804000020300900081111111106
:10371000341C0008E8320008101E0008F0320008CF
:10372000101E0008A4340008E0300008183A000811
:10373000E8390008F00800083D37000857F8040B86
:1037400057F8041B064A50F8044B42F8044B8842D1
:10375000F9D155F8042B22F0030252F8043B184724
:10376000D0FE002030090008D0FE0020580E0008CE
:10377000F0080008DD080008300900084C3900088E
:1037800030090008A03800083837000864370008FE
:10379000F0080008DD080008443100081839000866
:1037A000F83800085007000801020000103C0240F1
:1037B000E0320008C81D00088C1B00083009000812
:1037C00010000000E0320008A01D0008700F000883
:1037D0008C1B0008F83A0008341C0008C81D0008BB
:1037E000E0320008C81D0008101E0008F838000864
:1037F0004C270008E0320008A01D0008C42600087D
:10380000341C00086C1B0008B4280008900A00084B
:103810000C000000780A0008C0FFFFFF481B0008EA
:10382000E81B0008E81B0008300900080000002021
:10383000C81D00086C1B0008101E0008F83800089E
:10384000E0320008C81D00086C1B0008C4260008F0
:10385000101E0008F8380008E8320008C81D0008EB
:103860006C1B00089C0100088C280008101E000832
:10387000F8380008F0320008C81D0008481B00088E
:10388000300900080C0000008C280008101E0008F9
:10389000F83800083839000818310008F008000826
:1038A000DD080008203600084431000818390008F7
:1038B000F83800085007000801020000103C0240E0
:1038C000500700080000020804000020300900082A
:1038D00010000000E00E0008A01D0008380E0008CF
:1038E00094370008380E00082036000838390008E0
:1038F00018310008F0080008FD380008054908687C
:103900000004FCD255F8042B22F0030252F8043BC9
:10391000184700000C3C0240DD0800085007000872
:1039200023016745043C024050070008AB89EFCDF6
:10393000043C0240F0080008DD08000850070008B9
:1039400000000080103C0240F008000884504F4600
:10395000C6FFFFFF0C360008DD080008500700080E
:103960000000000034010010F008000883504FCE22
:103970004C390008DD08000850070008160E000842
:1039800034010010F008000881D0FFFF6C390008F6
:103990001D090008340100108545484F46C6FFFF49
:1039A00088390008DD0800080C27000830090008E5
:1039B00038010010101E0008F00800088445484F28
:1039C000CEFFFFFF98390008DD0800081C2700081B
:1039D0003009000838010010101E0008F008000827
:1039E000832E44D3BC390008DD0800089C09000878
:1039F000EC0C0008502D0008080D000830090008E4
:103A0000343F000814170008B02F0008F008000821
:103A1000832E56D3E0390008DD080008C4090008E9
:103A2000EC0C00084C27000818280008502D00084E
:103A3000080D000830090008293F00081417000885
:103A4000B02F0008F00800088444554DD0FFFFFF58
:103A5000103A0008DD080008B41B0008081200082E
:103A6000EC0C00081C2A00080C270008E80A0008D3
:103A7000E0300008341C0008300900080A0000008B
:103A8000982C00084C2700080C270008E80A0008BA
:103A9000341C0008C81D0008300900080E00000092
:103AA000982C0008C4260008B00A0008E4FFFFFFB5
:103AB00084300008900A000808000000281B000855
:103AC000B00A0008ACFFFFFFE81B0008E030000868
:103AD000080D0008F00800088556424153C5FFFF55
:103AE000483A00081D0900080400001085444241BE
:103AF00053C5FFFFD83A00081D0900081000002038
:103B00008552424153C5FFFFEC3A00081D090008E9
:103B10000000002083434CD3003B0008DD08000870
:103B2000FC030008041B5B324AFFFFFFFC03000894
:103B3000041B5B3B48FFFFFFE0300008F008000873
:103B4000C1A8FFFF143B0008DD0800083009000889
:103B5000290000002C0B0008A8290008900A000882
:103B600034000000E03000083009000810000000B8
:103B700004300008240400083009000871FA00200D
:103B8000EC1D0008900A000810000000780A0008E8
:103B9000BCFFFFFFF008000830090008463F00089E
:103BA00014170008B02F0008F0080008C1DCFFFF60
:103BB000403B0008DD0800080C2700085C0F0008E7
:103BC0003C0F0008C81D00088C280008341E00089F
:103BD000F008000886535953434CCBFFAC3B000818
:103BE000E53B00080549086847F8040D55F8042B23
:103BF00022F0030252F8043B1847000000000020A6
:103C00008553544354D2FFFFD43B00081D090008DC
:103C1000000000108544454C41D9FFFF003C0008DE
:103C2000253C000857F8041B57F8040B0C4CC04304
:103C3000401C20600B4A11600B4A1160002806D01E
:103C40000A4A10680721116021680029FCD1106020
:103C500055F8042B22F0030252F8043B18470000E9
:103C60000000001014E000E018E000E010E000E0C8
:103C7000824DD3FF143C0008DD080008300900081D
:103C80003F900200203C0008F008000887574F5280
:103C9000444341D4703C0008DD080008700F000860
:103CA0008C1B00080C270008781000083009000859
:103CB0000D00000078100008700F0008300900089F
:103CC0000D00000080130008341C0008EC1D0008E3
:103CD000300900080A000000901A0008341E00088D
:103CE000341C00087C2600088C0F000830090008EE
:103CF000840000008C2800086C1B0008341E00089B
:103D0000300900080D000000781000083009000894
:103D10008A00000078100008F40F0008181100084D
:103D200050100008481B000830090008300100103E
:103D3000101E0008F008000885574F5244D3FFFFBB
:103D40008C3C0008DD0800083C270008D02E000845
:103D500018110008842E00080C270008B41B000866
:103D60007C260008EC1D0008300900080D0000004A
:103D7000DC280008A8290008900A00081C000000A0
:103D8000E81B0008341C0008C011000830110008AE
:103D9000B41B0008B42800082C0F0008C81D000838
:103DA0008C280008300900084A000000902900080B
:103DB000900A000810000000E03000083C270008CE
:103DC000D02E0008341C0008D00E0008C81D0008C2
:103DD00020290008900A00080C000000780A00085A
:103DE00054000000341C0008242F00082C27000871
:103DF000D02E0008341C00087C260008EC1D0008AA
:103E0000300900080D000000DC280008900A0008B6
:103E10000800000010020008C0110008301100085E
:103E2000C81D0008341C0008A8290008900A0008D2
:103E300028FFFFFFE81B0008E0300008F00800083A
:103E4000874D59574F5244D3383D0008DD080008CC
:103E500050070008000002082C010010443D000833
:103E600050070008000000002C010010F0080008B6
:103E700089464953485F4F4E4CD9FFFF403E0008EA
:103E8000853E000809490A4C21600A4C21600A4914
:103E90000A4C21600A4C21600A490B4C216055F8FC
:103EA000042B22F0030252F8043B1847083F000895
:103EB0003001001008000020040000102001001054
:103EC0000C000020100000202401001084464953FB
:103ED000C8FFFFFF703E0008DD080008A43400089A
:103EE000C8060008F0080008990D0A464953482002
:103EF0005265666572656E6365204D6F64656C3AE8
:103F00000D8AFFFFCC3E0008890D0A4750494F3A01
:103F10000D8AFFFFE83E00080352554E2000203F67
:103F20002000203C43523E20005641522043454C45
:103F30004C53200044494354494F4E41525920426A
:103F400059544553200020434F4D4D454E54204C6D
:103F5000494E452043414E4E4F5420424520454D49
:103F60005054592015002043414E5420464F52478B
:103F70004554204649534820494E20464C41534819
:103F800020150020494E20464C415348202D2053F7
:103F9000454520464C4153485F464F5247455420C3
:103FA00015002044494354494F4E4152592046552B
:103FB0004C4C202D20534545202E445320150020E5
:103FC00052414D20564152205350414345204655C1
:103FD0004C4C202D20534545202E565320150020B3
:103FE000495320414C524541445920444546494E8D
:103FF0004544201500203F204E4F5420574F524437
:10400000201500203F204E4F5420574F5244204F40
:1040100052204E554D4245522015002043415553E4
:104020004544204120535441434B204552524F5266
:1040300020150020535441434B204552524F5220EB
:104040005748494C4520455845435554494E47200B
:104050004F5220434F4D50494C494E4720150020A8
:104060004552524F52202D204E4F5420434F4D5019
:10407000494C494E47201500204552524F52202DA1
:10408000204558454355544544205748494C452000
:10409000434F4D50494C494E47201500DD0800085C
:1040A0005007000805070000003C0240F008000827
:1040B000B540000840F20004C2F201044FF00003D2
:1040C0004FF0800C53F8042B44F8042BBCF1010C86
:1040D000F8D155F8042B22F0030252F8043B18479C
:1040E000DD080008B040000850070008000001206B
:1040F00008ED00E068070008003802408407000867
:1041000001000000C4070008003802405007000802
:10411000000000000838024068070008003802402C
:10412000A4070008FFFFF6FEC4070008003802409D
:1041300050070008103000240438024068070008C7
:1041400000380240A4070008FFFFFBFFC407000877
:104150000038024050070008000000000C38024000
:1041600068070008003802408407000800000100CA
:10417000C40700080038024040080008680700082B
:1041800000380240A4070008000002005808000898
:10419000680700084038024084070008000000104B
:1041A000C40700084038024068070008007000405B
:1041B0008407000800400000C407000800700040A9
:1041C00030090008083802403009000800000000EB
:1041D0009C1C00083009000808380240300900081B
:1041E000008000009C1C00083009000808380240CC
:1041F00030090008001400009C1C0008500700084B
:10420000085440070438024068070008003802409C
:104210008407000800000001C407000800380240BD
:10422000400800086807000800380240A40700089A
:1042300000000002580800089C40000868070008B9
:1042400008380240A4070008FCFFFFFFC40700086D
:104250000838024068070008083802408407000850
:1042600002000000C40700080838024040080008A7
:104270006807000808380240A40700080C00000086
:104280003009000808000000DC2800085808000871
:1042900050070008003000508438024068070008CA
:1042A000003802408407000800000004C40700082A
:1042B0000038024040080008680700080038024043
:1042C000A40700080000000858080008500700086C
:1042D000007A030A0000002030090008303802404C
:1042E00030090008870000009C1C00083009000805
:1042F0004038024030090008000004009C1C0008FF
:104300005007000800770000240802401008000849
:10431000000802400300F0000100A0005007000860
:104320000C2000000C480040500700080700000067
:1043300010E000E0F0080008BFF34F8F0548016867
:1043400011F4E0610448014302480160BFF34F8F5C
:10435000FEE700000CED00E00400FA0572B67047BD
:1043600062B6704780B5FFF7E7FF01BD4EF6885192
:10437000CEF20001086840F470000860BFF34F8F70
:10438000BFF36F8F4FF00070E1EE100A704700002E
:10439000FCF7C8BCFFF7FEBFFFF7FEBFFFF7FEBF8D
:1043A000FFF7FEBFFFF7FEBFFFF7FEBFFFF7FEBF41
:1043B000FCF7F0BCFFF7FEBFFFF7FEBFFFF7FEBF45
:1043C000FFF7FEBFFFF7FEBFFFF7FEBFFFF7FEBF21
:1043D000FFF7FEBFFFF7FEBFFFF7FEBFFFF7FEBF11
:1043E000FFF7FEBFFFF7FEBFFFF7FEBFFFF7FEBF01
:1043F000FFF7FEBFFFF7FEBFFFF7FEBFFFF7FEBFF1
:10440000FFF7FEBFFFF7FEBFFFF7FEBFFFF7FEBFE0
:10441000FFF7FEBFFFF7FEBFFFF7FEBFFFF7FEBFD0
:10442000FFF7FEBFFFF7FEBFFFF7FEBFFFF7FEBFC0
:10443000FFF7FEBFFFF7FEBFFFF7FEBFFFF7FEBFB0
:10444000FFF7FEBFFFF7FEBFFFF7FEBFFFF7FEBFA0
:10445000FFF7FEBFFFF7FEBFFFF7FEBFFFF7FEBF90
:10446000FFF7FEBFFFF7FEBFFFF7FEBFFFF7FEBF80
:10447000FFF7FEBFFFF7FEBFFFF7FEBFFFF7FEBF70
:10448000FFF7FEBFFFF7FEBFFFF7FEBFFFF7FEBF60
:10449000FFF7FEBFFFF7FEBFFFF7FEBFFFF7FEBF50
:1044A000FFF7FEBFFFF7FEBFFFF7FEBFFFF7FEBF40
:1044B000FFF7FEBFFFF7FEBFFFF7FEBFFFF7FEBF30
:1044C000FFF7FEBFFFF7FEBFFFF7FEBFFFF7FEBF20
:1044D000FFF7FEBFFFF7FEBFFFF7FEBFFFF7FEBF10
:1044E000FFF7FEBFFFF7FEBFFFF7FEBFFFF7FEBF00
:0C44F000FFF7FEBFFFF7FEBFFFF7FEBFA7
:0400000500000000F7
:00000001FF
