:020000040800F2
:1000000000000220754500087945000849450008B0
:100010007D45000881450008854500080000000076
:1000200000000000000000000000000089450008FA
:100030008D45000800000000914500089545000826
:10004000994500089D450008A1450008A545000800
:10005000A9450008AD450008B1450008B5450008B0
:10006000B9450008BD450008C1450008C545000860
:10007000C9450008CD450008D1450008D545000810
:10008000D9450008DD450008E1450008E5450008C0
:10009000E9450008ED450008F1450008F545000870
:1000A000F9450008FD45000801460008054600081E
:1000B000094600080D4600081146000815460008CC
:1000C000194600081D46000821460008254600087C
:1000D000294600082D46000831460008354600082C
:1000E000394600083D4600084146000845460008DC
:1000F000494600084D46000851460008554600088C
:10010000594600085D46000861460008654600083B
:10011000694600086D4600087146000875460008EB
:10012000794600087D46000881460008854600089B
:10013000894600088D46000891460008954600084B
:10014000994600089D460008A1460008A5460008FB
:10015000A9460008AD460008B1460008B5460008AB
:10016000B9460008BD460008C1460008C54600085B
:10017000C9460008CD460008D1460008D54600080B
:10018000D9460008DD460008E90800083C090008D7
:100190000700000080300008FC080008290900085A
:1001A00008000000E90800089C01000880300008F1
:1001B000882F00089C01000880300008901C00086F
:1001C0009C0F0008241E0008E82800086827000883
:1001D000641C0008901E00083C090008FCFFFFFF9B
:1001E0008C0F0008FC1D0008D82D00089C0F00088B
:1001F000FC1D0008FC080008E90800085C0700086E
:100200000000000008010010FC080008E9080008D0
:100210005C070008000000000C010010FC0800084A
:10022000E9080008180D0008540F00086C1E0008AB
:10023000081A0008340D0008FC080008E908000846
:10024000540F0008241E0008901C0008882700088E
:10025000382900089C0A0008180000003C09000822
:100260006200000080300008441C0008FC08000800
:100270003C0900080A000000382900089C0A000810
:10028000140000003C0900086400000080300008F1
:10029000FC0800083C0900086800000080300008E5
:1002A000FC080008E90800083C2600086827000848
:1002B000A02500083C020008FC080008E908000826
:1002C0006827000868270008A02500083C020008ED
:1002D000FC080008E9080008180D0008901C000838
:1002E000540F00086C1E00083C0900080A000000BA
:1002F000382900089C0A000810000000A402000829
:10030000840A000808000000BC020008882F0008CA
:10031000340D0008FC080008290900081401001029
:100320002909000818010010290900083C010010E3
:100330002909000844010010E90800083C090008E8
:10034000D24000086C1700082C30000888180008FC
:10035000E9080008400F0008FC1D0008FC08000820
:10036000E908000854100008D00F00086C1E0008AF
:10037000A827000850030008FC080008E908000846
:100380007C0F0008241E0008042A00083C0900080D
:100390008F410008C4120008FC080008E9080008A2
:1003A0007C0F0008241E00083C090008A841000832
:1003B000C4120008FC080008E90800081029000819
:1003C0003C09000863410008C4120008FC0800084A
:1003D000E9080008401B000818030008241E000854
:1003E000641C0008AC2900083C0900084B410008C7
:1003F000C4120008FC080008E9080008A41B000853
:10040000901C0008481700082C3000084817000806
:10041000E828000824100008E81B0008FC08000871
:10042000E9080008BC0F00083C0900085E00000055
:10043000F81500085C070008010000000801001022
:10044000FC080008E9080008D8260008901C0008ED
:10045000E81B0008481E0008540F0008241E00086E
:10046000F41200089C0A000858000000641C0008F0
:10047000540F0008241E0008600C0008441C0008EB
:10048000EC1A0008540F0008241E0008600C000835
:100490000026000890250008241E0008D826000821
:1004A0009C0A00081000000078270008902500082A
:1004B000FC1D0008A41B0008840A00088CFFFFFF35
:1004C000A41B0008FC080008E90800080C0F00083D
:1004D000DC130008D00F000878110008F8090008A4
:1004E000FC080008E9080008A41B0008901C00088C
:1004F00020270008E81B0008241E000860030008ED
:10050000FC080008E9080008E81B00086827000844
:10051000C81B0008880C0008A41B0008641C000805
:10052000E81B0008880C0008A41B0008FC08000851
:10053000E9080008401B0008280300086C1E00089A
:10054000FC080008E9080008401B00082803000810
:10055000241E0008102900083C0900084B4100082F
:10056000C4120008FC080008E9080008C8040008D4
:100570009C0A00083C0000007C0F0008241E0008B4
:100580007C2900089C0A000814000000B41100082F
:1005900060030008840A00080C000000B411000881
:1005A000B80E0008D0030008840A0008C0FFFFFF4F
:1005B000D00F00085414000890250008241E0008DD
:1005C000D82600089C0A000810000000501F0008F0
:1005D000840A00080C000000441C0008801F00086A
:1005E000D0030008840A000884FFFFFFE908000820
:1005F000F41E0008E00C0008FC0C000820040008B1
:10060000680500087C0F0008241E0008042A000862
:100610009C0A0008380000003C0900083401001062
:10062000241E00089C0A0008240000003C09000861
:1006300034010010241E00086C1700082C3000083C
:10064000540F0008241E0008AC2D00083C090008C7
:1006500010000000803000085C310008840A0008A7
:1006600098FFFFFFE9080008D00F000810290008D4
:10067000B0100008FC080008E90800085C07000842
:100680000000000028010010FC08000829090008EB
:1006900028010010E9080008302A00089C0A000818
:1006A00008000000B82A0008FC080008E908000853
:1006B000302A00089C0A0008080000006025000895
:1006C000FC080008E90800085C3100083C09000843
:1006D000E00D00086C1700082C3000083C090008E9
:1006E000670E00086C1700082C3000083C09000851
:1006F000740E00086C1700082C3000085C310008EC
:10070000FC080008E9080008BC08000820350008BB
:10071000FC080008E9080008641C0008101C000818
:10072000E82800083C0900087F000000101C0008B1
:10073000481E00087C2900089C0A0008E0FFFFFF13
:10074000641C0008441C0008FC080008013055F82F
:10075000042B22F0030252F8043B184761070008FB
:1007600002CD04CD116055F8042B22F0030252F89B
:10077000043B18477907000855F8040B006847F850
:10078000040D55F8042B22F0030252F8043B1847DD
:100790009507000855F8042B57F8040B104347F849
:1007A000040D55F8042B22F0030252F8043B1847BD
:1007B000B507000855F8042B57F8040B104047F80C
:1007C000040D55F8042B22F0030252F8043B18479D
:1007D000D507000855F8043B57F8040B186055F886
:1007E000042B22F0030252F8043B1847F1070008DB
:1007F00057F8043B57F8041B57F8040B1A6822EA11
:10080000010200EA010042EA00021A6055F8042BD6
:1008100022F0030252F8043B1847000021080008A8
:1008200055F8043B55F8044B55F804CB1A6822EAF6
:1008300004020CEA040C42EA0C021A6055F8042B7C
:1008400022F0030252F8043B184700005108000848
:1008500046F8045D55F8042B22F0030252F8043BDD
:10086000184700006908000857F8040B00280CBF5F
:100870003568361D55F8042B22F0030252F8043B6C
:10088000184700000A0000000000000000000000FF
:1008900000000000680500105803001070FA0020E6
:1008A0000400001010000020000000000000000004
:1008B000843F0008760E000800000000C108000810
:1008C000074808490E2203680B60001D091D521ECF
:1008D000F9D155F8042B22F0030252F8043B1847D3
:1008E000840800080401001046F8045D154655F818
:1008F000042B22F0030252F8043B184701090008B8
:1009000056F8045B55F8042B22F0030252F8043B1E
:100910001847000001CA47F8040D55F8042B22F0CF
:10092000030252F8043B184701CA47F8040D55F872
:10093000042B22F0030252F8043B18474109000837
:1009400055F8040B47F8040D55F8042B22F0030268
:1009500052F8043B184700005D09000855F8040BE5
:1009600047F8040D55F8042B22F0030252F8043B1B
:10097000184700007909000857F8045B55F8042B64
:1009800022F0030252F8043B1847000046F8045DC9
:100990004568083047F8040D55F8042B22F003028F
:1009A00052F8043B18470000AD0900080648074903
:1009B0000968401A47F8040D55F8042B22F0030289
:1009C00052F8043B1847000010FA002024010010E0
:1009D000D5090008064807490968401A47F8040D78
:1009E00055F8042B22F0030252F8043B184700008C
:1009F0000401001020010010FD09000857F8043B15
:100A000057F8042B93465A46187884461178484084
:100A10003F2420401DD1521C5B1C1878117888425D
:100A2000F9D08024001B884214D15B1C1878FF2861
:100A3000FBD0083347F8043D0120624647F8042DF7
:100A400047F8040D55F8042B22F0030252F8043B3A
:100A500018475B1C187880242042FAD01B1D0848D8
:100A600003401B68002B00D0CDE7002047F8040DA1
:100A700055F8042B22F0030252F8043B18470000FB
:100A8000FCFFFFFF890A00082B68ED1855F8042BBE
:100A900022F0030252F8043B18470000A10A0008A4
:100AA00057F8040B00283FF4EFAF2D1D55F8042B29
:100AB00022F0030252F8043B18470000C10A000864
:100AC00057F8040B00287FF4DFAF2D1D55F8042BD9
:100AD00022F0030252F8043B18470000E10A000824
:100AE000012374683268944204D0D2183260A41A88
:100AF0007FF4CAAF08362D1D55F8042B22F00302EF
:100B000052F8043B184700000D0B000857F8043B4F
:100B1000FFF7E7BF190B000857F8040B57F8042B31
:100B200046F8042D46F8040D55F8042B22F0030274
:100B300052F8043B184700003D0B000857F8040B1F
:100B400000787F21084047F8040D55F8042B22F067
:100B5000030252F8043B18475D0B000857F8041BCA
:100B60000B4A92460B4B1C6812191078521C884293
:100B700001D00028F9D15446121B1A7047F8040D11
:100B800055F8042B22F0030252F8043B18470000EA
:100B900070FA0020080100109D0B000857F8041B94
:100BA00057F8042B10784840107055F8042B22F0A9
:100BB000030252F8043B1847BD0B00080A21884283
:100BC00005D157F8040B0D2047F8040D02E00D2164
:100BD000884203D100F07EF900F084F955F8042B27
:100BE00022F0030252F8043B18470000F10B000802
:100BF0003868017801290FD0022914D001440A78FD
:100C0000622A1AD0252A18D0642A18D0232A16D08E
:100C1000682A16D0242A14D055F8042B22F0030297
:100C200052F8043B184782782E2AE7D155F8042B56
:100C300022F0030252F8043B1847022402E00A247F
:100C400000E0102400220A70044A146055F8042BB6
:100C500022F0030252F8043B184700000401001080
:100C6000650C000857F8040B57F8041BA0FB012083
:100C700047F8042D47F8040D55F8042B22F0030221
:100C800052F8043B184700008D0C000857F8040B7D
:100C900057F8043B57F8042B002812D093F0000FAC
:100CA0000FD10146B2FBF0F000FB112247F8042DF2
:100CB00047F8040D55F8042B22F0030252F8043BC8
:100CC00018474040401E024647F8042D47F8040DDF
:100CD00055F8042B22F0030252F8043B1847000099
:100CE000E50C0008044A176855F8042B22F00302AB
:100CF00052F8043B1847000014010010010D0008D1
:100D0000044A166855F8042B22F0030252F8043BFB
:100D100018470000180100101D0D0008044A116852
:100D20008C4655F8042B22F0030252F8043B184776
:100D300004010010390D0008044A6146116055F89D
:100D4000042B22F0030252F8043B18470401001060
:100D500009490A480A4C0160001DA042FBD3094F13
:100D6000094E0FF2280546F8045D55F8042B22F0D1
:100D7000030252F8043B1847111111110000002022
:100D8000000201206805001058030010943F00087D
:100D9000BC08000810420008082E00085C3100085A
:100DA0003C090008FB000000803000083C090008F6
:100DB000F7000000803000085C3100088819000846
:100DC00008CA9F4603B502490868401C086003BD75
:100DD00000000010D90D000856F8045BBDE83F9CE8
:100DE0004649534820524D2056347468204F454D93
:100DF000207E2041524D2044656275675372632006
:100E000020313031302C31313030202D2045484FC9
:100E10004E2F45484F4646202D312054727565208F
:100E2000466C61672053544D333246343037564751
:100E300020444953434F20403136384D687A2028AA
:100E40004329323031342D3230313820412D544550
:100E5000414D20464F525448203A204E6F76202074
:100E6000392032303138002061742031373A30393E
:100E70003A3534001500206F6B2C20676F206669AF
:100E8000736820696E20424153452000844E4F4FC5
:100E9000D0FFFFFF000000009D0E000855F8042B56
:100EA00022F0030252F8043B1847000087455845DA
:100EB000435554C58C0E0008BD0E000800F00AF81A
:100EC00000F010F857F8042B22F0030252F8043B0C
:100ED000184700007246024C2168090AFCD31047EB
:100EE000004800407246024913240C70104700006D
:100EF000044800407246024911240C70104700005B
:100F0000044800408242CCFFAC0E000829090008CA
:100F1000200000008255D0FF040F000829090008B6
:100F2000200100108546454E43C5FFFF140F000801
:100F3000290900082C0100108244D0FF240F00086A
:100F4000290900082401001084424153C5FFFFFF16
:100F5000380F000829090008040100108743555282
:100F600052454ED4480F00082909000830010010EE
:100F70008553544154C5FFFF5C0F00082909000840
:100F800010010010834F55D4700F00082909000884
:100F90000C0100108249CEFF840F000829090008C7
:100FA00008010010835041C4940F0008290900086B
:100FB00010FA0020835449C2A40F00082909000830
:100FC00070FA002084484552C5FFFFFFB40F0008A7
:100FD000E9080008400F0008241E0008FC0800086B
:100FE00085414C4C4FD4FFFFC40F0008E9080008AE
:100FF000A8090008101C000810290008302A000861
:101000009C0A00080800000038030008400F000890
:10101000FC1D0008FC08000887414C49474E45C4A8
:10102000E00F00082910000857F8040BC01C054900
:10103000084047F8040D55F8042B22F0030252F83B
:10104000043B1847FCFFFFFF85414C4947CEFFFF9B
:1010500018100008E9080008D00F000898270008B9
:10106000E8280008901C0008E81B0008D00F0008C2
:10107000140B00083C090008FF000000201B0008BA
:10108000901E0008DC0A0008ECFFFFFFA41B00080C
:101090003C090008FCFFFFFF482B0008400F000838
:1010A0006C1E0008FC08000881ACFFFF4810000817
:1010B000E9080008A8090008302A00089C0A00086E
:1010C000080000003803000860030008FC0800085E
:1010D0008243ACFFA8100008E9080008A80900082E
:1010E000302A00089C0A00080800000038030008A5
:1010F000D00F0008901E0008782700085003000851
:10110000FC08000888564152414C4C4FD4FFFFFF69
:10111000D0100008E9080008D0090008A827000836
:1011200074280008101C000810290008302A000844
:101130009C0A0008180000003C090008EF40000865
:101140006C1700082C300008881800081C0F0008D5
:10115000241E0008641C0008A8270008382800087E
:101160001C0F0008FC1D0008FC080008864C4154B8
:101170004553D4FF04110008E9080008680F00086F
:10118000241E0008FC080008834C46C16C110008AE
:101190009511000857F8040B083847F8040D55F866
:1011A000042B22F0030252F8043B1847834346C144
:1011B00088110008B911000857F8040B001F47F800
:1011C000040D55F8042B22F0030252F8043B184793
:1011D000834E46C1AC110008E90800089C010008D4
:1011E00010290008B4260008901C0008481E0008BA
:1011F0003C090008FF000000102900089C0A0008B4
:10120000E4FFFFFF3C090008FFFFFFFF1407000891
:10121000FC080008835046C1D0110008E908000806
:101220007827000814070008D8260008901C00083A
:10123000481E00083C090008FF00000010290008B3
:101240009C0A0008E4FFFFFF9C010008E828000852
:10125000FC080008883F414C49474E45C4FFFFFF4A
:1012600014120008E90800083C0900080300000007
:10127000482B00089C0A00083C000000F803000806
:101280002E56414C5545204D55535420424520453E
:1012900056454E204E4F54204F444420414E44204A
:1012A0004D554C5449504C45204F4620342120FF89
:1012B00088180008FC080008863F4552524FD2FFAC
:1012C00054120008E9080008641C00089C0A000881
:1012D0001000000050150008840A000808000000F3
:1012E000441C0008FC0800088544494749D4FFFF16
:1012F000B8120008F912000857F8042B57F8040B2D
:10130000303813D4092802DDC01F0A280EDB9042B2
:101310000CDA0246012047F8042D47F8040D55F871
:10132000042B22F0030252F8043B1847002047F830
:10133000040D55F8042B22F0030252F8043B184721
:1013400087454E434C4F53C5E8120008511300081F
:1013500057F8040B39680022521E491E491C521CC2
:101360000B789842FAD047F8042D002B0CD1184680
:10137000521C47F8042D47F8040D55F8042B22F0B1
:10138000030252F8043B1847491C521C0B78984240
:1013900001D0002BF8D11046401C47F8042D47F827
:1013A000040D55F8042B22F0030252F8043B1847B1
:1013B000C180FFFF40130008BD13000856F8045B0E
:1013C00055F8042B22F0030252F8043B18470000A2
:1013D00084574F52C4FFFFFFB0130008E90800080C
:1013E000BC0F00089C0F0008241E0008E828000815
:1013F000641C00084C1300089C0F0008FC1D00082A
:10140000101C000810290008E81B0008C81B000871
:10141000D00F0008901E0008E8280008D00F000830
:10142000D8260008C81B0008501D000868270008BF
:10143000D00F0008D8260008A41B0008E8280008E0
:10144000901E0008FC080008864E554D4245D2FF0C
:10145000D0130008E9080008180D0008EC0B00087C
:101460006827000868270008EC1A0008901C00088C
:10147000D8260008481E00083C0900082D0000007E
:101480003829000878270008482B0008901C00081D
:10149000E81B0008E82800083C090008FFFFFFFFE0
:1014A000902500086C1E000844040008901C0008E9
:1014B000481E000868270008102900089C0A000838
:1014C00068000000901C0008481E00083C09000845
:1014D0002E000000102900089C0A000840000000AF
:1014E000901C0008481E00083C0900082C00000061
:1014F000382900089C0A000810000000D82D0008B8
:10150000840A00089CFFFFFF340D000878270008BC
:101510003C09000833410008C4120008682700088D
:10152000840A00087CFFFFFF441C0008A41B00087D
:101530009C0A00080800000060250008340D00081F
:10154000FC080008854552524FD2FFFF481400089E
:10155000E9080008D00F0008481700082C300008E0
:101560006C1700082C300008002F00087C0F0008C2
:10157000241E00089C0A0008400000008C06000899
:10158000241E00089C0A0008300000008C06000899
:10159000241E00081C12000890110008241E0008D8
:1015A000680F00086C1E00088C060008241E000846
:1015B000400F00086C1E0008780600088818000814
:1015C000C1A7FFFF44150008E9080008C804000887
:1015D000042A00083C09000825410008C41200083C
:1015E000441C0008801F0008FC080008864558506D
:1015F0004543D4FFC0150008E90800080C020008A4
:10160000F8010008D8260008101C0008E828000887
:10161000101C0008D8260008242F0008140B00080E
:10162000C8300008B80B0008901C00083C090008EE
:1016300009000000382900089C0A00080C0000007E
:10164000441C00080C0F0008901C00089C010008B6
:1016500038290008101C00083C0900087F00000021
:1016600038290008702B00089C0A00085000000070
:10167000441C0008901C0008201B0008B426000829
:1016800038290008901C0008A41B000888270008BF
:1016900010290008E8280008E81B00089C0A000838
:1016A0001000000088010008840A00086C00000097
:1016B000A4010008840A000860000000901C0008D3
:1016C0003C0900080D000000382900089C0A0008A9
:1016D0001C000000841B0008441C00080C0F0008BC
:1016E00068270008840A000808000000901C000811
:1016F000201B0008901E0008782700089C0F000897
:10170000FC1D000868270008201B0008D8260008D8
:10171000901E000880300008DC0A000804FFFFFF6C
:10172000002F0008D82600086C170008641C000869
:10173000B4260008901E0008FC08000885434F5599
:101740004ED4FFFFEC150008E9080008901C0008C3
:10175000D8260008641C0008481E0008FC08000881
:1017600084244C45CEFFFFFF3C170008711700088A
:101770003A684040115C094301D0401CFAE747F841
:10178000040D55F8042B22F0030252F8043B1847CD
:1017900086464F524745D4FF60170008E908000805
:1017A000C8150008901C00083C0900080000020849
:1017B0007C2900083C09000896400008C412000873
:1017C000901C00083C090008000010087C29000853
:1017D0003C090008B3400008C4120008901C00082F
:1017E00090110008E81B0008781100081C1200087E
:1017F00090110008901C0008241E0008680F0008C3
:101800006C1E0008901C000820270008241E0008F9
:101810003C09000815090008382900089C0A00083E
:10182000140000003C090008FCFFFFFF1C0F00082B
:10183000FC1D0008C81B0008382900089C0A000885
:10184000A8FFFFFFA41B0008241E0008680F000863
:101850006C1E0008D8110008400F00086C1E00081C
:10186000943A0008643A0008FC080008834259C50D
:101870009017000879180008FFF76ABA8541424FAF
:1018800052D4FFFF6C180008E9080008E00C0008BB
:10189000FC0C00080C020008D00300083C090008FA
:1018A0004840000878110008F80900089C0A000860
:1018B00010000000441C0008B4110008B80E000815
:1018C0003C09000838010010241E00089C0A00088A
:1018D0006C0000003C090008401900086C17000863
:1018E0002C300008003100089C0A0008F8FFFFFFB8
:1018F000C83000083C0900084300000038290008EF
:101900009C0A0008E0FFFFFFC83000083C090008FF
:101910004F000000382900089C0A0008C8FFFFFF9C
:10192000C83000083C0900080D00000038290008F4
:101930009C0A0008B0FFFFFF5C310008EC050008BE
:10194000204572726F722048616C74202845484FA0
:101950004E2F45484F464629202D20546F20434F97
:101960006E74696E7565205479706520434F2074DC
:1019700068656E20456E7465723A200084434F4C52
:10198000C4FFFFFF7C180008E908000804070008EE
:10199000C4060008EC050008900D0A46495348208B
:1019A00053797374656D3A0D8AFFFFFF7C19000847
:1019B000832E53C898190008E90800083C0900085C
:1019C0001000000020020008FC080008832E53C409
:1019D000B0190008E90800083C0900080A000000E6
:1019E00020020008FC080008832E53C2CC1900080E
:1019F000E90800088827000820020008FC08000801
:101A0000822ED3FFE8190008E9080008180300082F
:101A1000241E0008401B0008202700083829000861
:101A2000042A00089C0A000868000000F803000867
:101A300005544F533E20FFFF18030008241E0008E2
:101A4000401B000820270008140B0008201B00087A
:101A5000241E0008540F0008241E00083C0900083A
:101A60000A000000382900089C0A00081000000045
:101A7000A4020008840A000808000000BC02000854
:101A8000882F0008A8270008080B0008C0FFFFFFE8
:101A9000FC08000884324455D0FFFFFF001A0008FC
:101AA000A51A000838687A6847F8042D47F8040D2D
:101AB00055F8042B22F0030252F8043B18470000AB
:101AC000842D4455D0FFFFFF941A0008E908000850
:101AD000901C00089C0A000808000000901C0008E8
:101AE000FC08000883524FD4C01A0008F11A0008FD
:101AF00057F8042B57F8041B57F8040B47F8041D3C
:101B000047F8042D47F8040D55F8042B22F0030282
:101B100052F8043B1847000081C9FFFFE41A00088F
:101B2000251B0008306847F8040D55F8042B22F0F7
:101B3000030252F8043B1847835350C0181B000897
:101B4000451B0008384647F8040D55F8042B22F0D1
:101B5000030252F8043B1847835250C0381B000858
:101B6000651B0008304647F8040D55F8042B22F099
:101B7000030252F8043B1847854C454156C5FFFF08
:101B8000581B0008891B00083268726055F8042B46
:101B900022F0030252F8043B184700008252BEFFB5
:101BA000781B0008A91B000856F8040B47F8040D21
:101BB00055F8042B22F0030252F8043B18470000AA
:101BC00081D2FFFF9C1B0008CD1B0008306847F83E
:101BD000040D55F8042B22F0030252F8043B184779
:101BE000823ED2FFC01B0008ED1B000857F8041B03
:101BF00046F8041D55F8042B22F0030252F8043B6A
:101C000018470000844F5645D2FFFFFFE01B000835
:101C1000151C000857F8042B57F8040B47F8040D5F
:101C200047F8042D47F8040D55F8042B22F0030261
:101C300052F8043B184700008444524FD0FFFFFF86
:101C4000041C0008491C00083F1D55F8042B22F015
:101C5000030252F8043B184784535741D0FFFFFF5B
:101C6000381C0008691C000857F8042B57F8040BAF
:101C700047F8042D47F8040D55F8042B22F0030211
:101C800052F8043B18470000834455D0581C000804
:101C9000951C0008386847F8040D55F8042B22F00D
:101CA000030252F8043B1847900D0A537461636BAA
:101CB0002053747566663A0D8AFFFFFF881C000882
:101CC00087414E44424954D3A81C0008D11C000847
:101CD00057F8042B57F8041B08681040086055F8A3
:101CE000042B22F0030252F8043B18478753455453
:101CF000424954D3C01C0008FD1C000857F8042BAF
:101D000057F8041B08681043086055F8042B22F0AC
:101D1000030252F8043B184787434C52424954D3BC
:101D2000EC1C0008291D000857F8042B57F8041B69
:101D300008689043086055F8042B22F0030252F81B
:101D4000043B184785434D4F56C5FFFF181D00083B
:101D5000551D000857F8041B57F8042B57F8043B8F
:101D6000002907D018781070491E002902D0521C93
:101D70005B1CF7D155F8042B22F0030252F8043B08
:101D8000184700008446494CCCFFFFFF441D000863
:101D9000951D000857F8040B57F8041B57F8042B3F
:101DA000002904D08B181070521C9A42FBD155F8B0
:101DB000042B22F0030252F8043B18478545524198
:101DC00053C5FFFF841D0008E908000868270008C4
:101DD000901D0008FC08000886424C414E4BD3FF82
:101DE000BC1D0008E90800080C0F0008901D000841
:101DF000FC080008822BA1FFD81D0008011E000866
:101E000057F8041B57F8040B0A688018086055F847
:101E1000042B22F0030252F8043B184781C0FFFF55
:101E2000F41D0008291E000857F8041B086847F82D
:101E3000040D55F8042B22F0030252F8043B184716
:101E40008243C0FF1C1E00084D1E000857F8041BEB
:101E5000087847F8040D55F8042B22F0030252F8D5
:101E6000043B184781A1FFFF401E0008711E0008B7
:101E700057F8040B57F8041B016055F8042B22F0A7
:101E8000030252F8043B18478243A1FF641E000876
:101E9000951E000857F8040B57F8041B017055F8FD
:101EA000042B22F0030252F8043B18479F0D0A52FC
:101EB00065616420616E64205772697465204D65A8
:101EC0006D6F727920576974683A0D8A881E000810
:101ED00081DDFFFFAC1E0008E90800085C07000870
:101EE000C000000010010010FC080008C1DBFFFF6B
:101EF000D01E0008E90800085C0700080000000088
:101F000010010010FC080008C95B434F4D50494CBC
:101F100045DDFFFFEC1E0008E9080008C8040008C2
:101F2000042A00083C0900084B410008C4120008BC
:101F3000441C0008B4110008B0100008FC08000898
:101F4000C8444C4954455241CCFFFFFF081F0008CC
:101F5000E90800087C0F0008241E00089C0A0008FD
:101F600010000000641C0008801F0008801F00088B
:101F7000FC080008C74C4954455241CC401F00089A
:101F8000E90800087C0F0008241E00089C0A0008CD
:101F900010000000E40400083C090008B01000082C
:101FA000FC0800088223BEFF741F0008E90800082F
:101FB000441C0008441C000830030008241E0008CC
:101FC000AC0F0008101C000810290008FC080008CD
:101FD00084484F4CC4FFFFFFA41F0008E908000815
:101FE0003C090008FFFFFFFF30030008FC1D00084C
:101FF00030030008241E0008901E0008FC0800089A
:1020000084534947CEFFFFFFD01F0008E9080008AE
:10201000EC1A0008302A00089C0A00081000000092
:102020003C0900082D000000DC1F0008FC08000827
:102030008223D3FF00200008E9080008642000087C
:10204000101C0008101C0008702B0008042A00084F
:102050009C0A0008E8FFFFFFFC08000881A3FFFFBF
:1020600030200008E9080008540F0008241E00086A
:1020700004050008EC1A00083C09000809000000EB
:10208000101C00087C2900089C0A000810000000B1
:102090003C09000807000000E82800083C09000887
:1020A00030000000E8280008DC1F0008FC080008D9
:1020B000823CA3FF5C200008E90800085C070008D8
:1020C00010FA002044010010FC08000885444F4528
:1020D00053BEFFFFB0200008E9080008A41B000859
:1020E000781100081C120008901C0008B4110008A8
:1020F0003C0900088B090008641C00086C1E0008DD
:102100006C1E0008FC080008873C4255494C44D32B
:10211000CC200008E908000854230008FC08000847
:10212000C52B4C4F4FD0FFFF08210008E9080008DD
:1021300098270008B8030008E4040008080B00080A
:1021400064060008FC080008C44C4F4FD0FFFFFF96
:1021500020210008E908000898270008B8030008B3
:10216000E4040008DC0A000864060008FC08000813
:10217000C244CFFF48210008E9080008E404000831
:10218000140B0008D00F000898270008FC0800086E
:10219000C5454E4449C6FFFF70210008E908000804
:1021A0007C03000888270008B8030008D00F000847
:1021B000101C000810290008641C00086C1E000890
:1021C000FC080008C4544845CEFFFFFF90210008DA
:1021D000E90800089C210008FC080008C4454C538D
:1021E000C5FFFFFFC4210008E90800088827000890
:1021F000B8030008E4040008840A0008D00F0008AF
:1022000068270008B0100008641C00088827000830
:102210009C21000888270008FC080008C249C6FF66
:10222000DC210008E9080008E40400089C0A000812
:10223000D00F000868270008B010000888270008A1
:10224000FC080008C5554E5449CCFFFF1C2200086D
:10225000E908000878270008B8030008E40400082B
:102260009C0A000864060008FC080008C5414741B4
:1022700049CEFFFF44220008E9080008782700083B
:10228000B8030008E4040008840A00086406000893
:10229000FC080008C65245504541D4FF6C22000896
:1022A000E9080008E81B0008E81B0008782200087D
:1022B000A41B0008A41B0008882700081029000898
:1022C0009C210008FC080008C55748494CC5FFFF81
:1022D00094220008E908000824220008FC260008CF
:1022E000FC080008C542454749CEFFFFC822000848
:1022F000E90800087C030008D00F000878270008D0
:10230000FC080008970D0A496E7369646520436FE5
:102310006C6F6E20574F5244533A0D8AE4220008E6
:1023200089494D4D4544494154C5FFFF04230008E8
:10233000E9080008781100083C0900084000000086
:10234000980B0008FC080008864352454154C5FF1D
:1023500020230008E9080008A80900083C09000833
:102360000F00000010290008302A00089C0A00080D
:102370000800000038030008C80400089C0A000890
:1023800024000000441C0008D8110008A02F0008F9
:102390003C0900080F4100086C1700082C300008A9
:1023A00088180008D00F0008901C00088C06000850
:1023B0006C1E0008901C0008481E00083C0900081C
:1023C0001F000000F82A000850030008901C0008B5
:1023D0003C09000880000000980B0008D00F00089E
:1023E0003C09000880000000980B000878270008CE
:1023F000400F0008FC1D000878110008B01000080C
:10240000680F00086C1E0008E40400082909000891
:10241000D00F000820270008B0100008FC080008B2
:1024200088434F4E5354414ED4FFFFFF48230008CA
:10243000E908000844240008FC08000883434FCE44
:1024400020240008E9080008542300083C0900087B
:10245000FCFFFFFF400F0008FC1D0008B010000843
:1024600078060008FC080008885641524941424C51
:10247000C5FFFFFF3C240008E90800088C24000881
:10248000FC080008835641D268240008E9080008C7
:10249000542300083C090008F8FFFFFF400F000824
:1024A000FC1D0008E404000815090008782700084E
:1024B00014110008B010000878060008FC08000895
:1024C000C1BBFFFF84240008E90800084405000898
:1024D000E4040008FC080008F41E00087806000860
:1024E000FC080008C1BAFFFFC0240008E908000882
:1024F0009C0300083005000854230008D81E00087B
:102500003C090008F8FFFFFF400F0008FC1D000811
:10251000E4040008E9080008FC080008960D0A43D6
:10252000524541544520574F5244532057697468CF
:102530003A0D8AFFE424000884444142D3FFFFFFA0
:102540001C250008E9080008901C0008AC060008DB
:10255000FC08000887444E45474154C5382500080B
:102560006525000857F8040B57F8042BC043D243E5
:10257000521C47F8042D47F8040D55F8042B22F09F
:10258000030252F8043B1847834450CC54250008FA
:10259000290900084001001083442ED28825000834
:1025A000E9080008E81B0008641C0008101C00086B
:1025B00044250008B8200008382000080C20000836
:1025C000AC1F0008A41B0008101C000810290008FC
:1025D0004C2F00082C300008FC0800088244AEFF95
:1025E00098250008E908000868270008A0250008C9
:1025F000882F0008FC0800088244ABFFDC25000897
:102600000526000857F8040B57F8041B57F8043B3D
:1026100057F8042B5218584147F8042D47F8040D79
:1026200055F8042B22F0030252F8043B184700002F
:1026300084532D3EC4FFFFFFF82500084126000803
:1026400057F8042B4040124300D5401E47F8042D94
:1026500047F8040D55F8042B22F0030252F8043B0E
:10266000184700008232AAFF3026000871260008B1
:1026700057F8040B400047F8040D55F8042B22F0DE
:10268000030252F8043B18478232AFFF6426000869
:102690009526000857F8040B401047F8040D55F82C
:1026A000042B22F0030252F8043B18478231ADFF9D
:1026B00088260008B926000857F8040B401E47F882
:1026C000040D55F8042B22F0030252F8043B18477E
:1026D0008231ABFFAC260008DD26000857F8040B5A
:1026E000401C47F8040D55F8042B22F0030252F861
:1026F000043B18478232ABFFD026000801270008B0
:1027000057F8040B801C47F8040D55F8042B22F0F1
:10271000030252F8043B18478234ABFFF42600084A
:102720002527000857F8040B001D47F8040D55F83D
:10273000042B22F0030252F8043B18478234ADFF09
:10274000182700084927000857F8040B001F47F80E
:10275000040D55F8042B22F0030252F8043B1847ED
:1027600081B0FFFF3C270008290900080000000095
:1027700081B1FFFF6027000829090008010000005F
:1027800081B2FFFF7027000829090008020000003D
:1027900081B3FFFF8027000829090008030000001B
:1027A00081B4FFFF902700082909000804000000F9
:1027B000824DAAFFA0270008E9080008A01A000817
:1027C000BC2B0008E81B0008E02A0008641C000875
:1027D000E02A0008600C0008A41B0008AC060008F2
:1027E000FC080008824DAFFFB0270008E908000888
:1027F000101C0008E81B0008E81B0008442500081E
:10280000C81B0008E02A0008880C0008A41B000868
:10281000C81B0008BC2B000894060008641C0008B4
:10282000A41B000894060008641C0008FC080008AB
:1028300081AAFFFFE4270008E9080008B82700087C
:10284000441C0008FC080008842F4D4FC4FFFFFF04
:1028500030280008E9080008E81B00083C260008AA
:10286000A41B0008EC270008FC08000881AFFFFF4C
:1028700048280008E908000854280008641C0008DB
:10288000441C0008FC080008834D4FC46C28000855
:10289000E908000854280008441C0008FC08000847
:1028A000852A2F4D4FC4FFFF88280008E90800083B
:1028B000E81B0008B8270008A41B0008EC27000844
:1028C000FC080008822AAFFFA0280008E9080008D9
:1028D000AC280008641C0008441C0008FC08000820
:1028E00081ABFFFFC4280008ED28000857F8040B4F
:1028F00057F8041B401847F8040D55F8042B22F034
:10290000030252F8043B184781ADFFFFE02800089E
:102910001529000857F8040B57F8041B081A47F844
:10292000040D55F8042B22F0030252F8043B18471B
:1029300081BDFFFF082900083D290008404057F8E5
:10294000040B57F8041B401A09D0404047F8040D07
:1029500055F8042B22F0030252F8043B18470138C3
:1029600047F8040D55F8042B22F0030252F8043BFB
:102970001847000081BCFFFF3029000881290008AA
:102980004040013857F8041B57F8042B914200DCF3
:10299000404047F8040D55F8042B22F0030252F88A
:1029A000043B18478255BCFF74290008E908000859
:1029B000A01A0008BC2B0008302A00089C0A000856
:1029C00018000000441C0008302A0008042A0008EF
:1029D000840A00080C00000010290008302A0008B2
:1029E000FC08000881BEFFFFA4290008E9080008D0
:1029F000641C00087C290008FC0800088230BDFF28
:102A0000E4290008092A0008404057F8041B00295F
:102A100000D1401E47F8040D55F8042B22F00302A4
:102A200052F8043B184700008230BCFFFC29000824
:102A3000352A000857F8041B40400138094300D4E8
:102A4000404047F8040D55F8042B22F0030252F8D9
:102A5000043B1847834249CE282A0008E9080008A9
:102A60005C0700080200000004010010FC080008D8
:102A7000834845D8542A0008E90800085C07000884
:102A80001000000004010010FC08000887444543C2
:102A9000494D41CC702A0008E90800085C0700088D
:102AA0000A00000004010010FC080008864E45479B
:102AB0004154C5FF8C2A0008BD2A000857F8040BB2
:102AC000C043401C47F8040D55F8042B22F00302C4
:102AD00052F8043B18470000834142D3AC2A000857
:102AE000E9080008901C000894060008FC0800088B
:102AF000834D49CED82A0008E9080008A01A00082A
:102B0000EC2900089C0A000808000000641C00086A
:102B1000441C0008FC080008834D41D8F02A000836
:102B2000E9080008A01A00087C2900089C0A00088F
:102B300008000000641C0008441C0008FC08000891
:102B400083414EC4182B00084D2B000857F8040B86
:102B500057F8041B084047F8040D55F8042B22F0E1
:102B6000030252F8043B1847824FD2FF402B000863
:102B7000752B000857F8040B57F8041B084347F857
:102B8000040D55F8042B22F0030252F8043B1847B9
:102B9000834E4FD4682B00089D2B000857F8040B78
:102BA000C04347F8040D55F8042B22F0030252F8F5
:102BB000043B184783584FD2902B0008C12B0008C4
:102BC00057F8040B57F8041B484047F8040D55F814
:102BD000042B22F0030252F8043B18478453585444
:102BE000C8FFFFFFB42B0008ED2B000857F8040BBB
:102BF00000B247F8040D55F8042B22F0030252F8F6
:102C0000043B184784535854C2FFFFFFDC2B0008D5
:102C1000152C000857F8040B40B247F8040D55F87E
:102C2000042B22F0030252F8043B18478452455605
:102C3000D7FFFFFF042C00083D2C000857F8040BB9
:102C400000BA47F8040D55F8042B22F0030252F89D
:102C5000043B1847834153D22C2C0008612C0008F8
:102C600057F8042B57F8040B104147F8040D55F89A
:102C7000042B22F0030252F8043B1847834C53D232
:102C8000542C0008892C000857F8042B57F8040B23
:102C9000D04047F8040D55F8042B22F0030252F8F7
:102CA000043B1847834C53CC7C2C0008B12C000803
:102CB00057F8042B57F8040B904047F8040D55F8CB
:102CC000042B22F0030252F8043B1847822ED2FF55
:102CD000A42C0008E9080008E81B00083C260008AE
:102CE000A41B0008A0250008FC080008832E52D56C
:102CF000CC2C0008E9080008E81B00086827000839
:102D0000B820000838200008AC1F0008901C0008FC
:102D1000A41B0008641C0008102900084C2F0008A0
:102D20002C300008FC0800088255AEFFEC2C00088F
:102D3000E908000868270008E4250008FC080008E6
:102D400081BFFFFF282D0008E9080008241E0008A5
:102D5000602D0008FC08000881AEFFFF402D000830
:102D6000E90800083C260008E4250008FC080008E3
:102D7000822EC2FF582D0008E908000888270008A5
:102D8000D4020008FC080008822EC8FF702D00083D
:102D9000E90800083C09000810000000D4020008FF
:102DA000FC080008822EC4FF882D0008E9080008EE
:102DB0003C0900080A000000D4020008FC080008D2
:102DC000834F46C6A42D0008290900080000000012
:102DD000824FCEFFC02D000829090008FFFFFFFF2A
:102DE000910D0A4E554D4245522053747566663A10
:102DF0000D8AFFFFD02D00088A55415254335F4998
:102E00004E49D4FFE02D0008E90800083C090008FD
:102E100000020120241E0008042A00089C0A000861
:102E20001C0000003C09000804020120241E0008C8
:102E3000E81B0008840A0008100000003C09000894
:102E400000C20100E81B00083C09000880DE800287
:102E5000A41B0008742800083C090008084800402A
:102E60006C1E0008FC080008864D59424155C4FFFD
:102E7000F82D0008E90800085C07000800000000C1
:102E8000000201203C090008040201206C1E000819
:102E9000FC0800088955415254335F4C53D2FFFF60
:102EA000682E0008A92E00080549087847F8040D87
:102EB00055F8042B22F0030252F8043B1847000097
:102EC000004800408855415254335F52D8FFFFFFFD
:102ED000942E0008290900080448004088554152F2
:102EE00054335F54D8FFFFFFC42E0008290900089F
:102EF0000448004084584F46C6FFFFFFDC2E000800
:102F0000052F0008FDF7E6FFFDF7ECFF55F8042B51
:102F100022F0030252F8043B1847000083584FCEBA
:102F2000F42E0008292F0008FDF7D4FFFDF7E2FF7B
:102F300055F8042B22F0030252F8043B1847000016
:102F4000865350414345D3FF1C2F0008E908000871
:102F500068270008202B0008CC1A00089C0A0008EB
:102F60001800000068270008140B0008882F0008CC
:102F7000DC0A0008F8FFFFFFFC08000885535041F9
:102F800043C5FFFF402F0008E90800080C0F0008A8
:102F900080300008FC080008834944AE7C2F0008FC
:102FA000E9080008481700083C0900081F00000055
:102FB000482B00082C300008882F0008FC08000867
:102FC000C22EA2FF982F0008E90800083C0900085B
:102FD000220000007C0F0008241E00089C0A000844
:102FE0002C000000E4040008F8030008DC130008CB
:102FF000D00F0008481E0008D8260008241000083A
:1030000050030008840A000814000000DC130008C4
:10301000D00F0008481700082C300008FC080008F2
:1030200084545950C5FFFFFFC02F0008E90800086D
:10303000CC1A00089C0A000834000000002F000889
:10304000101C0008E8280008641C0008140B000885
:10305000201B0008380B000880300008DC0A00083C
:10306000F0FFFFFF840A000808000000441C00086D
:10307000FC08000884454D49D4FFFFFF20300008BC
:103080008530000857F8040BFDF724FF0649087047
:1030900006490868401C086055F8042B22F003021A
:1030A00052F8043B18470000044800400C0100108F
:1030B000834B45D974300008E9080008242F000824
:1030C000C8300008FC080008CD300008074A084B4B
:1030D00019688909FCD3106847F8040D55F8042BCA
:1030E00022F0030252F8043B184700000448004055
:1030F00000480040843F4B45D9FFFFFFB030000837
:1031000005310008FDF7E6FEFDF7F4FE4040074BF1
:103110001968890900D3013847F8040D55F8042BC4
:1031200022F0030252F8043B184700000048004018
:10313000834352D3F4300008E908000868270008E8
:10314000140B00085C310008DC0A0008F8FFFFFFE0
:10315000FC0800088243D2FF30310008E90800086B
:103160000C020008F8030008020D0AFFFC08000822
:103170008C0D0A4649534820494F3A0D8AFFFFFFFC
:10318000543100088B495251535F524553554DC538
:10319000703100089931000801F0D4F955F8042B7A
:1031A00022F0030252F8043B184700008C495251A8
:1031B000535F53555350454EC4FFFFFF8431000801
:1031C000C531000801F0BCF955F8042B22F00302C8
:1031D00052F8043B184700008F5359535449434B4E
:1031E0005F4952515F4F46C6AC310008F1310008CB
:1031F00004490520086055F8042B22F0030252F818
:10320000043B184710E000E08E5359535449434B98
:103210005F4952515F4FCEFFD8310008213200087C
:1032200004490720086055F8042B22F0030252F8E5
:10323000043B184710E000E08F0D0A494E544552F8
:1032400052555054533A0D8A083200088A464C4170
:1032500053485F534156C5FF38320008E90800085B
:1032600078110008743B00087C2900089C0A0008BB
:10327000200000005C310008F80300080F4E4F5496
:1032800048494E4720544F2053415645FC080008FA
:103290005C330008241E00083C09000800001008E8
:1032A000382900089C0A0008280000005C3100084A
:1032B000F8030008144C41535420464C4153482015
:1032C000415641494C2055534544FFFFFC08000836
:1032D000541000081C0F0008241E00086C3300085E
:1032E0006C1E00087811000874330008643300086D
:1032F0006C1E000878110008743B0008382900088B
:103300009C0A00084800000010380008743B0008C0
:10331000400F00086C1E00086C330008241E0008D3
:103320001C0F00086C1E000864330008241E0008EF
:10333000680F00086C1E0008203500085C3100088A
:10334000943A0008643A0008FC0800087811000864
:10335000A0330008840A00089CFFFFFF2909000829
:10336000040000202909000808000020290900089D
:103370000C0000207933000857F8040B064A10406F
:10338000064A1268801847F8040D55F8042B22F0FD
:10339000030252F8043B1847FFFF0F00040000200F
:1033A000E90800081C120008901C0008E81B00082F
:1033B000B4110008901C0008241E00083C090008F5
:1033C0008B090008382900089C0A00082800000022
:1033D00020270008901C0008901C0008241E0008EC
:1033E00074330008641C00086C1E0008840A00087E
:1033F00000010000901C0008241E00083C09000881
:103400002909000838290008101C0008241E00089B
:103410003C0900081509000838290008702B00082D
:103420009C0A000810000000441C0008840A0008E0
:10343000C400000020270008901C0008241E00087B
:103440003C0900083C090008382900089C0A0008CB
:103450001000000020270008840A0008D8FFFFFFA2
:10346000901C0008241E00083C090008F80300080E
:10347000382900089C0A000820000000901C000861
:1034800020270008481E0008E8280008241000082B
:10349000840A0008A0FFFFFF901C0008241E0008FB
:1034A0003C090008FC08000838290008042A000824
:1034B0009C0A00083C000000901C0008241E000824
:1034C000743B0008EC2900089C0A000868FFFFFF15
:1034D000901C0008901C0008241E0008743300088B
:1034E000641C00086C1E0008840A000848FFFFFFE7
:1034F000441C0008A41B000890110008901C000840
:10350000241E0008901C0008680F00086C1E0008AC
:1035100074330008641C00086C1E0008FC080008D6
:10352000E90800083C09000800000208901C000897
:103530003C090008040000206C1E0008901C0008D4
:10354000E81B0008241E00085C3C00081029000845
:103550009C0A000810000000A41B0008441C00087E
:10356000FC080008C81B00085C3300086C1E00083B
:10357000C81B00083C09000808000000E8280008F3
:10358000901C0008241E0008680F00086C1E00082C
:1035900020270008241E00081C0F00086C1E0008CD
:1035A0005C310008F80300081741444445442057A3
:1035B0004F5244532046524F4D204144445220FF25
:1035C000C81B0008902D0008A41B00082027000835
:1035D000241E0008840A000854FFFFFFE9080008C1
:1035E000901C0008E8280008E81B0008901C000850
:1035F000241E0008D82600089C0A00083800000095
:103600005C310008F8030008174552415345442037
:1036100042414420464C41534820504147452020D8
:10362000902D0008441C0008A41B0008441C00083E
:10363000FC08000820270008901C0008901C0008C7
:10364000C81B0008641C0008102900089C0A000818
:103650000C000000840A000898FFFFFF5C3100089E
:10366000F80300080E464C4153482050414745207E
:103670004F4B20FF10290008902D0008A41B0008C4
:10368000441C0008FC0800088C464C4153485F4627
:103690004F524745D4FFFFFF4C320008E9080008AD
:1036A000F80300081754414B45532041424F5554ED
:1036B0002036205345434F4E44532120C03100084B
:1036C00094390008743900085C0700082A020100D8
:1036D000103C0240743900085C0700083202010007
:1036E000103C0240743900085C0700083A020100EF
:1036F000103C0240743900085C07000842020100D7
:10370000103C0240743900085C0700084A020100BE
:10371000103C0240743900085C07000852020100A6
:10372000103C0240743900085C0700085A0201008E
:10373000103C024074390008B43900089431000884
:10374000883B000878110008EC2900089C0A000852
:1037500010000000FC3E0008840A00081C00000065
:103760003C090008843F0008743B00081C12000854
:10377000901100086C1E00085C0700080000020899
:10378000040000203C09000811111111901C0008D0
:10379000643300086C1E00086C3300086C1E0008BF
:1037A000203500085C310008943A0008643A0008AB
:1037B000FC080008B937000857F8040B57F8041B39
:1037C000064A50F8044B42F8044B8842F9D155F8A8
:1037D000042B22F0030252F8043B1847D0FE0020CD
:1037E0003C090008D0FE0020B80E0008FC080008C4
:1037F000E90800083C090008C83900083C0900082D
:103800001C390008B4370008E0370008FC0800083D
:10381000E9080008C031000894390008743900082C
:103820005C07000801020000103C02405C33000805
:10383000241E0008E81B00083C09000810000000D6
:103840005C330008FC1D0008D00F0008E81B0008CE
:10385000743B0008901C0008241E00085C3300081C
:10386000241E00086C1E000874390008A8270008F0
:103870005C330008FC1D000820270008901C00088D
:10388000C81B0008102900089C0A00080C00000052
:10389000840A0008C0FFFFFFA41B0008441C0008A6
:1038A000441C00083C09000800000020241E0008F9
:1038B000C81B00086C1E0008743900085C3300083F
:1038C000241E0008C81B0008202700086C1E0008E2
:1038D0007439000864330008241E0008C81B00085F
:1038E0009C010008E82800086C1E000874390008D4
:1038F0006C330008241E0008A41B00083C090008C3
:103900000C000000E82800086C1E0008743900084C
:10391000B439000894310008FC080008E9080008E0
:103920009C360008C031000894390008743900083A
:103930005C07000801020000103C02405C07000820
:1039400000000208040000203C09000810000000EC
:10395000400F0008FC1D0008980E000810380008F1
:10396000980E00089C360008B4390008943100080D
:10397000FC08000879390008054908680004FCD2F1
:1039800055F8042B22F0030252F8043B18470000BC
:103990000C3C0240E90800085C0700082301674569
:1039A000043C02405C070008AB89EFCD043C0240B8
:1039B000FC080008E90800085C0700080000008017
:1039C000103C0240FC08000884504F46C6FFFFFF31
:1039D00088360008E90800085C07000800000000BD
:1039E00034010010FC08000883504FCEC83900088D
:1039F000E90800085C070008760E00083401001092
:103A0000FC08000881D0FFFFE839000829090008F8
:103A1000340100108545484F46C6FFFF043A0008B0
:103A2000E9080008682700083C0900083801001070
:103A30006C1E0008FC0800088445484FCEFFFFFFBD
:103A4000143A0008E9080008782700083C09000833
:103A5000380100106C1E0008FC080008832E44D3B7
:103A6000383A0008E9080008A8090008180D0008FD
:103A7000AC2D0008340D00083C0900086440000823
:103A80006C1700082C300008FC080008832E56D361
:103A90005C3A0008E9080008D0090008180D000881
:103AA000A827000874280008AC2D0008340D000871
:103AB0003C090008594000086C1700082C30000829
:103AC000FC0800088444554DD0FFFFFF8C3A0008E5
:103AD000E9080008101C000864120008180D00080E
:103AE000782A000868270008140B00085C310008D9
:103AF000901C00083C0900080A000000F42C000893
:103B0000A827000868270008140B0008901C00086C
:103B1000241E00083C0900080E000000F42C0008D8
:103B200020270008DC0A0008E4FFFFFF003100083E
:103B30009C0A000808000000841B0008DC0A00083A
:103B4000ACFFFFFF441C00085C310008340D000886
:103B5000FC0800088556424153C5FFFFC43A0008DF
:103B600029090008040000108544424153C5FFFFA5
:103B7000543B0008290900081000002085524241EA
:103B800053C5FFFF683B000829090008000000201A
:103B900083434CD37C3B0008E9080008F803000885
:103BA000041B5B324AFFFFFFF8030008041B5B3B6A
:103BB00048FFFFFF5C310008FC080008C1A8FFFFB8
:103BC000903B0008E90800083C09000829000000B3
:103BD000580B0008042A00089C0A00083400000062
:103BE0005C3100083C09000810000000803000082B
:103BF000200400083C09000871FA0020481E000853
:103C00009C0A000810000000840A0008BCFFFFFFA7
:103C1000FC0800083C090008764000086C17000802
:103C20002C300008FC080008C1DCFFFFBC3B00088A
:103C3000E908000868270008BC0F00089C0F00086E
:103C4000241E0008E8280008901E0008FC08000850
:103C500086535953434CCBFF283C0008613C000875
:103C60000549086847F8040D55F8042B22F00302B3
:103C700052F8043B184700000000002085535443CD
:103C800054D2FFFF503C0008290900080000001032
:103C90008544454C41D9FFFF7C3C0008A13C00080D
:103CA00057F8041B57F8040B0C4CC043401C206011
:103CB0000B4A11600B4A1160002806D00A4A1068AE
:103CC0000721116021680029FCD1106055F8042BF0
:103CD00022F0030252F8043B1847000000000010D5
:103CE00014E000E018E000E010E000E0824DD3FFB7
:103CF000903C0008E90800083C0900083F900200D9
:103D00009C3C0008FC08000887574F52444341D4AC
:103D1000EC3C0008E9080008D00F0008E81B000888
:103D200068270008D81000083C0900080D000000B2
:103D3000D8100008D00F00083C0900080D00000052
:103D4000DC130008901C0008481E00083C0900080D
:103D50000A000000EC1A0008901E0008901C0008E1
:103D6000D8260008EC0F00083C0900088400000079
:103D7000E8280008C81B0008901E00083C0900083D
:103D80000D000000D81000083C0900088A0000005F
:103D9000D81000085410000878110008B01000086E
:103DA000A41B00083C090008300100106C1E00082C
:103DB000FC08000885574F5244D3FFFF083D000818
:103DC000E9080008982700084C2F0008781100081F
:103DD000002F000868270008101C0008D8260008DB
:103DE000481E00083C0900080D00000038290008A2
:103DF000042A00089C0A00081C000000441C00085B
:103E0000901C00081C12000890110008101C0008EB
:103E1000102900088C0F0008241E0008E82800085C
:103E20003C0900084A000000EC2900089C0A000830
:103E3000100000005C310008982700084C2F000893
:103E4000901C0008300F0008241E00087C29000880
:103E50009C0A00080C000000840A000854000000BE
:103E6000901C0008A02F0008882700084C2F00088D
:103E7000901C0008D8260008481E00083C090008CD
:103E80000D000000382900089C0A00080800000006
:103E90000C0200081C12000890110008241E0008E3
:103EA000901C0008042A00089C0A000828FFFFFF55
:103EB000441C00085C310008FC080008874D595775
:103EC0004F5244D3B43D0008E90800085C070008DD
:103ED000000002082C010010C03D00085C0700082B
:103EE000000000002C010010FC080008894649531E
:103EF000485F4F4E4CD9FFFFBC3E0008013F000811
:103F000009490A4C21600A4C21600A490A4C216087
:103F10000A4C21600A490B4C216055F8042B22F011
:103F2000030252F8043B1847843F00083001001098
:103F30000800002004000010200100100C000020E8
:103F4000100000202401001084464953C8FFFFFFE1
:103F5000EC3E0008E908000820350008C406000807
:103F6000FC080008990D0A464953482052656665C9
:103F700072656E6365204D6F64656C3A0D8AFFFF54
:103F8000483F0008890D0A4750494F3A0D8AFFFF04
:103F9000643F0008993F000880468946AA462648A3
:103FA000264C03680021016002684A4042D124493E
:103FB000016002684A403DD10100016002684A4048
:103FC00038D1C143016002684A4033D11D492025E0
:103FD000016002684A402DD14900491C6D1EF7D18D
:103FE00001212025016002684A4023D149006D1E4D
:103FF000F8D114492025016002684A401AD14900CD
:104000006D1EF8D101212025016002684A4011D1BE
:104010004900491C6D1EF7D10360001DA042C0D3AA
:1040200040464946554655F8042B22F0030252F803
:10403000043B1847FEE70000000000206805001060
:10404000FFFFFFFFFEFFFFFF0352554E2000203F02
:104050002000203C43523E20005641522043454C14
:104060004C53200044494354494F4E415259204239
:1040700059544553200020434F4D4D454E54204C3C
:10408000494E452043414E4E4F5420424520454D18
:104090005054592015002043414E5420464F52475A
:1040A0004554204649534820494E20464C415348E8
:1040B00020150020494E20464C415348202D2053C6
:1040C000454520464C4153485F464F524745542092
:1040D00015002044494354494F4E415259204655FA
:1040E0004C4C202D20534545202E445320150020B4
:1040F00052414D2056415220535041434520465590
:104100004C4C202D20534545202E56532015002081
:10411000495320414C524541445920444546494E5B
:104120004544201500203F204E4F5420574F524405
:10413000201500203F204E4F5420574F5244204F0F
:1041400052204E554D4245522015002043415553B3
:104150004544204120535441434B204552524F5235
:1041600020150020535441434B204552524F5220BA
:104170005748494C4520455845435554494E4720DA
:104180004F5220434F4D50494C494E472015002077
:104190004552524F52202D204E4F5420434F4D50E8
:1041A000494C494E47201500204552524F52202D70
:1041B000204558454355544544205748494C4520CF
:1041C000434F4D50494C494E47201500E90800081F
:1041D0005C07000805070000003C0240FC080008DE
:1041E000E541000840F20004C2F201044FF0000370
:1041F0004FF0800C53F8042B44F8042BBCF1010C55
:10420000F8D155F8042B22F0030252F8043B18476A
:10421000E9080008E04100085C07000800000120F0
:1042200008ED00E07407000800380240900700081D
:1042300001000000D0070008003802405C070008B9
:1042400000000000083802407407000800380240EF
:10425000B0070008FFFFF6FED00700080038024054
:104260005C0700081030002404380240740700087E
:1042700000380240B0070008FFFFFBFFD00700082E
:10428000003802405C070008000000000C380240C3
:104290007407000800380240900700080000010081
:1042A000D0070008003802404C08000874070008D6
:1042B00000380240B007000800000200640800084F
:1042C0007407000840380240900700080000001002
:1042D000D007000840380240740700080070004012
:1042E0009007000800400000D00700080070004060
:1042F0003C090008083802403C09000800000000A2
:10430000F81C00083C090008083802403C09000875
:1043100000800000F81C00083C0900080838024032
:104320003C09000800140000F81C00085C070008A5
:10433000085440070438024074070008003802405F
:104340009007000800000001D00700080038024074
:104350004C0800087407000800380240B007000845
:104360000000000264080008CC410008740700083F
:1043700008380240B0070008FCFFFFFFD007000824
:104380000838024074070008083802409007000807
:1043900002000000D0070008083802404C0800085E
:1043A0007407000808380240B00700080C0000003D
:1043B0003C090008080000003829000864080008CB
:1043C0005C07000800300050843802407407000881
:1043D000003802409007000800000004D0070008E1
:1043E000003802404C0800087407000800380240FA
:1043F000B007000800000008640800085C07000817
:10440000007A030A000000203C090008303802400E
:104410003C09000887000000F81C00083C0900085F
:10442000403802403C09000800000400F81C000865
:104430005C07000800770000240802401C08000800
:10444000000802400300F0000100A0005C07000823
:104450000C2000000C4800405C070008070000002A
:1044600010E000E03C090008303802403C09000838
:1044700002000000F81C00083C0900084438024013
:104480003C09000800100000F81C00083C09000866
:10449000200402403C09000800505500F81C0008A8
:1044A0003C090008000402403C090008850A005548
:1044B000F81C00083C090008003001403C090008D5
:1044C0003D030000F81C00083C09000800300140D2
:1044D0003C09000840000000F81C00083C090008E6
:1044E000140402403C09000801700000F81C000898
:1044F0003C090008000802403C090008155405006A
:10450000F81C00083C090008140802403C09000897
:10451000C0030000F81C0008FC080008BFF34F8F20
:104520000548016811F4E061044801430248016054
:10453000BFF34F8FFEE700000CED00E00400FA052A
:1045400072B6704762B6704780B5FFF7E7FF01BDEE
:104550004EF68851CEF20001086840F47000086001
:10456000BFF34F8FBFF36F8F4FF00070E1EE100A73
:1045700070470000FCF7ECBBFFF7FEBFFFF7FEBF84
:10458000FFF7FEBFFFF7FEBFFFF7FEBFFFF7FEBF5F
:10459000FFF7FEBFFCF716BCFFF7FEBFFFF7FEBF3D
:1045A000FFF7FEBFFFF7FEBFFFF7FEBFFFF7FEBF3F
:1045B000FFF7FEBFFFF7FEBFFFF7FEBFFFF7FEBF2F
:1045C000FFF7FEBFFFF7FEBFFFF7FEBFFFF7FEBF1F
:1045D000FFF7FEBFFFF7FEBFFFF7FEBFFFF7FEBF0F
:1045E000FFF7FEBFFFF7FEBFFFF7FEBFFFF7FEBFFF
:1045F000FFF7FEBFFFF7FEBFFFF7FEBFFFF7FEBFEF
:10460000FFF7FEBFFFF7FEBFFFF7FEBFFFF7FEBFDE
:10461000FFF7FEBFFFF7FEBFFFF7FEBFFFF7FEBFCE
:10462000FFF7FEBFFFF7FEBFFFF7FEBFFFF7FEBFBE
:10463000FFF7FEBFFFF7FEBFFFF7FEBFFFF7FEBFAE
:10464000FFF7FEBFFFF7FEBFFFF7FEBFFFF7FEBF9E
:10465000FFF7FEBFFFF7FEBFFFF7FEBFFFF7FEBF8E
:10466000FFF7FEBFFFF7FEBFFFF7FEBFFFF7FEBF7E
:10467000FFF7FEBFFFF7FEBFFFF7FEBFFFF7FEBF6E
:10468000FFF7FEBFFFF7FEBFFFF7FEBFFFF7FEBF5E
:10469000FFF7FEBFFFF7FEBFFFF7FEBFFFF7FEBF4E
:1046A000FFF7FEBFFFF7FEBFFFF7FEBFFFF7FEBF3E
:1046B000FFF7FEBFFFF7FEBFFFF7FEBFFFF7FEBF2E
:1046C000FFF7FEBFFFF7FEBFFFF7FEBFFFF7FEBF1E
:1046D000FFF7FEBFFFF7FEBFFFF7FEBFFFF7FEBF0E
:0400000500000000F7
:00000001FF
