:020000040800F2
:1000000000000220C9430008CD4300089D430008BA
:10001000D1430008D5430008D94300080000000080
:10002000000000000000000000000000DD430008A8
:10003000E143000800000000E5430008E943000830
:10004000ED430008F1430008F5430008F9430008B8
:10005000FD43000801440008054400080944000865
:100060000D44000811440008154400081944000814
:100070001D440008214400082544000829440008C4
:100080002D44000831440008354400083944000874
:100090003D44000841440008454400084944000824
:1000A0004D440008514400085544000859440008D4
:1000B0005D44000861440008654400086944000884
:1000C0006D44000871440008754400087944000834
:1000D0007D440008814400088544000889440008E4
:1000E0008D44000891440008954400089944000894
:1000F0009D440008A1440008A5440008A944000844
:10010000AD440008B1440008B5440008B9440008F3
:10011000BD440008C1440008C5440008C9440008A3
:10012000CD440008D1440008D5440008D944000853
:10013000DD440008E1440008E5440008E944000803
:10014000ED440008F1440008F5440008F9440008B3
:10015000FD44000801450008054500080945000860
:100160000D4500081145000815450008194500080F
:100170001D450008214500082545000829450008BF
:100180002D45000831450008DD0800083009000849
:100190000700000028300008F00800081D090008CA
:1001A00008000000DD0800089C0100082830000855
:1001B000302F00089C01000828300008581C000857
:1001C000600F0008EC1D0008B02800083027000868
:1001D0002C1C0008581E000830090008FCFFFFFF17
:1001E000500F0008C41D000830090008FFFFFFFF82
:1001F000600F0008C41D0008F0080008DD080008B2
:10020000500700080000000008010010F008000876
:10021000DD08000850070008000000000C01001075
:10022000F0080008DD080008EC0C0008180F0008B2
:10023000341E0008D0190008080D0008F008000856
:10024000DD080008180F0008EC1D0008581C000805
:100250005027000800290008900A00081800000034
:100260003009000862000000283000080C1C00085B
:10027000F0080008300900080A0000000029000802
:10028000900A000814000000300900086400000013
:1002900028300008F0080008300900086800000055
:1002A00028300008F0080008DD08000804260008CF
:1002B000302700086825000840020008F008000800
:1002C000DD080008302700083027000868250008EE
:1002D00040020008F0080008DD080008EC0C0008E7
:1002E000581C0008180F0008341E000830090008C8
:1002F0000A00000000290008900A00081000000011
:10030000A8020008780A000808000000C0020008DF
:10031000302F0008080D0008F00800081D0900082B
:10032000140100101D090008180100101D09000823
:100330003C0100101D09000844010010DD08000800
:1003400030090008DA3F000838170008D42F0008E9
:1003500054180008DD080008040F0008C41D000838
:10036000F0080008DD08000818100008940F0008C5
:10037000341E00087027000854030008F008000825
:10038000DD080008400F0008EC1D0008CC2900081B
:1003900030090008974000088C120008F008000897
:1003A000DD080008400F0008EC1D000830090008B7
:1003B000B04000088C120008F0080008DD080008B2
:1003C000D8280008300900086B4000088C1200088B
:1003D000F0080008DD080008081B00081C030008DE
:1003E000EC1D00082C1C00087429000830090008C6
:1003F000534000088C120008F0080008DD080008CF
:100400006C1B0008581C000814170008D42F0008A3
:1004100014170008B0280008E80F0008B01B0008F7
:10042000F0080008DD080008800F00083009000807
:100430005E000000C415000850070008010000001D
:1004400008010010F0080008DD080008A0260008D8
:10045000581C0008B01B0008101E0008180F0008E8
:10046000EC1D0008BC120008900A000858000000AB
:100470002C1C0008180F0008EC1D0008340C0008A4
:100480000C1C0008B41A0008180F0008EC1D000826
:10049000340C0008C825000858250008EC1D000889
:1004A000A0260008900A000810000000402700085D
:1004B00058250008C41D00086C1B0008780A0008B5
:1004C0008CFFFFFF6C1B0008F0080008DD08000827
:1004D000D00E0008A4130008940F00083C11000877
:1004E000EC090008F0080008DD0800086C1B000893
:1004F000581C0008E8260008B01B0008EC1D000886
:1005000064030008F0080008DD080008B01B0008BC
:1005100030270008901B00085C0C00086C1B0008CA
:100520002C1C0008B01B00085C0C00086C1B0008A9
:10053000F0080008DD080008081B00082C0300086C
:10054000341E0008F0080008DD080008081B000839
:100550002C030008EC1D0008D8280008300900080A
:10056000534000088C120008F0080008DD0800085D
:10057000CC040008900A00083C000000400F00086E
:10058000EC1D000844290008900A0008140000002F
:100590007811000864030008780A00080C000000C5
:1005A000781100087C0E0008D4030008780A0008BF
:1005B000C0FFFFFF940F00081C1400085825000816
:1005C000EC1D0008A0260008900A0008100000009A
:1005D000181F0008780A00080C0000000C1C000816
:1005E000481F0008D4030008780A000884FFFFFFB2
:1005F000DD080008BC1E0008B40C0008D00C000880
:10060000240400086C050008400F0008EC1D0008D9
:10061000CC290008900A00083800000030090008C2
:1006200034010010EC1D0008900A000824000000AE
:100630003009000834010010EC1D000838170008CC
:10064000D42F0008180F0008EC1D0008742D0008B6
:1006500030090008100000002830000804310008AC
:10066000780A000898FFFFFFDD080008940F0008D3
:10067000D828000874100008F0080008DD080008F9
:10068000500700080000000028010010F0080008D2
:100690001D09000828010010DD080008F8290008DD
:1006A000900A000808000000802A0008F0080008EE
:1006B000DD080008F8290008900A0008080000007A
:1006C00028250008F0080008DD08000804310008AB
:1006D00030090008B00D000838170008D42F0008B2
:1006E00030090008280E000838170008D42F000829
:1006F00030090008350E000838170008D42F00080C
:1007000004310008F0080008DD080008B0080008FF
:10071000C8340008F0080008DD0800082C1C000898
:10072000D81B0008B0280008300900087F0000002E
:10073000D81B0008101E000844290008900A000871
:10074000E0FFFFFF2C1C00080C1C0008F00800084C
:100750005507000802CD04CD116055F8042B22F096
:10076000030252F8043B18476D07000855F8040BC4
:10077000006847F8040D55F8042B22F0030252F8E4
:10078000043B18478907000855F8042B57F8040B59
:10079000104347F8040D55F8042B22F0030252F8D9
:1007A000043B1847A907000855F8042B57F8040B19
:1007B000104047F8040D55F8042B22F0030252F8BC
:1007C000043B1847C907000855F8043B57F8040BC9
:1007D000186055F8042B22F0030252F8043B184726
:1007E000E507000857F8043B57F8041B57F8040BBB
:1007F0001A6822EA010200EA010042EA00021A60D5
:1008000055F8042B22F0030252F8043B184700006D
:100810001508000855F8043B55F8044B55F804CB6F
:100820001A6822EA04020CEA040C42EA0C021A607A
:1008300055F8042B22F0030252F8043B184700003D
:100840004508000846F8045D55F8042B22F0030221
:1008500052F8043B184700005D08000857F8040BE5
:1008600000280CBF3568361D55F8042B22F0030212
:1008700052F8043B184700000A0000000000000086
:100880000000000000000000680500105803001080
:1008900070FA00200400001010000020000000008A
:1008A00000000000203F0008370E00080000000094
:1008B000B5080008074808490E2203680B60001DB0
:1008C000091D521EF9D155F8042B22F0030252F8EB
:1008D000043B1847780800080401001046F8045D3E
:1008E000154655F8042B22F0030252F8043B184732
:1008F000F508000856F8045B55F8042B22F00302B3
:1009000052F8043B1847000001CA47F8040D55F897
:10091000042B22F0030252F8043B184701CA47F89F
:10092000040D55F8042B22F0030252F8043B18473B
:100930003509000855F8040B47F8040D55F8042B49
:1009400022F0030252F8043B184700005109000846
:1009500055F8040B47F8040D55F8042B22F0030258
:1009600052F8043B184700006D09000857F8045B73
:1009700055F8042B22F0030252F8043B18470000FC
:1009800046F8045D4568083047F8040D55F8042B17
:1009900022F0030252F8043B18470000A1090008A6
:1009A000064807490968401A47F8040D55F8042B12
:1009B00022F0030252F8043B1847000010FA00200E
:1009C00024010010C9090008064807490968401AAF
:1009D00047F8040D55F8042B22F0030252F8043BAB
:1009E000184700000401001020010010F109000860
:1009F00057F8043B57F8042B93465A461878844618
:100A0000117848403F2420401DD1521C5B1C1878AF
:100A100011788842F9D08024001B884214D15B1CD5
:100A20001878FF28FBD0083347F8043D01206246C0
:100A300047F8042D47F8040D55F8042B22F0030263
:100A400052F8043B18475B1C187880242042FAD0E7
:100A50001B1D084803401B68002B00D0CDE7002079
:100A600047F8040D55F8042B22F0030252F8043B1A
:100A700018470000FCFFFFFF7D0A00082B68ED18F7
:100A800055F8042B22F0030252F8043B18470000EB
:100A9000950A000857F8040B00283FF4EFAF2D1D0E
:100AA00055F8042B22F0030252F8043B18470000CB
:100AB000B50A0008012374683268944204D0D21841
:100AC0003260A41A7FF4DAAF08362D1D55F8042BD6
:100AD00022F0030252F8043B18470000E10A000824
:100AE00057F8043BFFF7E7BFED0A000857F8040B7F
:100AF00057F8042B46F8042D46F8040D55F8042B3E
:100B000022F0030252F8043B18470000110B0008C2
:100B100057F8040B00787F21084047F8040D55F87A
:100B2000042B22F0030252F8043B1847310B000853
:100B300057F8041B0B4A92460B4B1C68121910788D
:100B4000521C884201D00028F9D15446121B1A7059
:100B500047F8040D55F8042B22F0030252F8043B29
:100B60001847000070FA002008010010710B0008FF
:100B700057F8041B57F8042B10784840107055F8AC
:100B8000042B22F0030252F8043B1847910B000893
:100B90000A21884205D157F8040B0D2047F8040DAF
:100BA00002E00D21884203D100F076F900F07CF9D3
:100BB00055F8042B22F0030252F8043B18470000BA
:100BC000C50B00083868017801290FD0022914D01C
:100BD00001440A78622A1AD0252A18D0642A18D02B
:100BE000232A16D0682A16D0242A14D055F8042BAC
:100BF00022F0030252F8043B184782782E2AE7D1EC
:100C000055F8042B22F0030252F8043B1847022443
:100C100002E00A2400E0102400220A70044A146052
:100C200055F8042B22F0030252F8043B1847000049
:100C300004010010390C000857F8040B57F8041B86
:100C4000A0FB012047F8042D47F8040D55F8042BAC
:100C500022F0030252F8043B18470000610C000820
:100C600057F8040B57F8043B57F8042B002812D010
:100C700093F0000F0FD10146B2FBF0F000FB112200
:100C800047F8042D47F8040D55F8042B22F0030211
:100C900052F8043B18474040401E024647F8042DD6
:100CA00047F8040D55F8042B22F0030252F8043BD8
:100CB00018470000B90C0008044A176855F8042BBF
:100CC00022F0030252F8043B184700001401001000
:100CD000D50C0008044A166855F8042B22F00302CC
:100CE00052F8043B1847000018010010F10C0008EE
:100CF000044A11688C4655F8042B22F0030252F87E
:100D0000043B1847040100100D0D0008044A614619
:100D1000116055F8042B22F0030252F8043B1847E7
:100D20000401001009490A480A4C0160001DA04254
:100D3000FBD3094F094E0FF2280546F8045D55F81C
:100D4000042B22F0030252F8043B18471111111131
:100D50000000002000020120680500105803001068
:100D6000B008000818410008B02D00080431000840
:100D700030090008FB000000283000083009000896
:100D8000F70000002830000804310008501900085E
:100D900008CA9F4603B502490868401C086003BDA5
:100DA00000000010A90D000856F8045BBDE83F9C48
:100DB000464953482041524D2020313031302C31AA
:100DC000313030202D2045484F4E2F45484F464664
:100DD0002044656275675372632053544D33324625
:100DE000343037564720444953434F20403136383A
:100DF0004D687A20524D2056347468204F454D205E
:100E0000284329323031342D3230313820412D54AD
:100E100045414D20464F525448203A20417072209F
:100E200032382032303138002061742032303A308C
:100E3000393A3437001500206F6B2C20676F20661D
:100E400069736820696E204241534520000000000C
:100E5000844E4F4FD0FFFFFF00000000610E0008DE
:100E600055F8042B22F0030252F8043B1847000007
:100E700087455845435554C5500E0008810E00085B
:100E800000F00AF800F010F857F8042B22F00302E3
:100E900052F8043B184700007246024C2168090AC8
:100EA000FCD31047004800407246024913240C70DE
:100EB00010470000044800407246024911240C709B
:100EC00010470000044800408242CCFF700E00082A
:100ED0001D090008200000008255D0FFC80E000840
:100EE0001D090008200100108546454E43C5FFFF3F
:100EF000D80E00081D0900082C0100108244D0FF04
:100F0000E80E00081D090008240100108442415326
:100F1000C5FFFFFFFC0E00081D09000804010010BA
:100F20008743555252454ED40C0F00081D09000846
:100F3000300100108553544154C5FFFF200F0008B5
:100F40001D09000810010010834F55D4340F00080C
:100F50001D0900080C0100108249CEFF480F00084F
:100F60001D09000808010010835041C4580F0008F3
:100F70001D09000810FA0020835449C2680F0008B8
:100F80001D09000870FA002084484552C5FFFFFF84
:100F9000780F0008DD080008040F0008EC1D0008A9
:100FA000F008000885414C4C4FD4FFFF880F000823
:100FB000DD0800089C090008D81B0008D828000894
:100FC000F8290008900A0008080000003C03000807
:100FD000040F0008C41D0008F008000887414C49B0
:100FE000474E45C4A40F0008ED0F000857F8040B46
:100FF000C01C0549084047F8040D55F8042B22F0A1
:10100000030252F8043B1847FCFFFFFF85414C499F
:1010100047CEFFFFDC0F0008DD080008940F000832
:1010200060270008B0280008581C0008B01B000802
:10103000940F0008E80A000830090008FF000000CB
:10104000E81A0008581E0008B00A0008ECFFFFFF6D
:101050006C1B000830090008FCFFFFFF102B000884
:10106000040F0008341E0008F008000881ACFFFFE0
:101070000C100008DD0800089C090008F829000889
:10108000900A0008080000003C0300086403000800
:10109000F00800088243ACFF6C100008DD0800086F
:1010A0009C090008F8290008900A000808000000C0
:1010B0003C030008940F0008581E00084027000851
:1010C00054030008F008000888564152414C4C4F28
:1010D000D4FFFFFF94100008DD080008C4090008D1
:1010E000702700083C280008D81B0008D8280008F2
:1010F000F8290008900A00081800000030090008CC
:10110000F73F000838170008D42F000854180008CB
:10111000E00E0008EC1D00082C1C000870270008D9
:1011200000280008E00E0008C41D0008F0080008B0
:10113000864C41544553D4FFC8100008DD08000810
:101140002C0F0008EC1D0008F0080008834C46C175
:10115000301100085911000857F8040B083847F8F7
:10116000040D55F8042B22F0030252F8043B1847F3
:10117000834346C14C1100087D11000857F8040B49
:10118000001F47F8040D55F8042B22F0030252F813
:10119000043B1847834E46C170110008DD08000863
:1011A0009C010008D828000840270008D82800081B
:1011B000581C0008101E000830090008FF0000003D
:1011C000D8280008900A0008E0FFFFFF3009000857
:1011D000FFFFFFFF18070008F0080008835046C112
:1011E00094110008DD0800084027000818070008CF
:1011F000A0260008581C0008101E0008300900082E
:10120000FF000000D8280008900A0008E4FFFFFF54
:101210009C010008B0280008F0080008883F414CF5
:1012200049474E45C4FFFFFFDC110008DD080008F8
:101230003009000803000000102B0008900A000885
:101240003C000000FC0300082E56414C5545204D43
:10125000555354204245204556454E204E4F54206C
:101260004F444420414E44204D554C5449504C4528
:10127000204F4620342120FF54180008F0080008B1
:10128000863F4552524FD2FF1C120008DD0800086D
:101290002C1C0008900A0008100000001C15000813
:1012A000780A0008080000000C1C0008F00800087C
:1012B0008544494749D4FFFF80120008C112000845
:1012C00057F8042B57F8040B303813D4092802DDE3
:1012D000C01F0A280EDB90420CDA0246012047F8B4
:1012E000042D47F8040D55F8042B22F0030252F8A0
:1012F000043B1847002047F8040D55F8042B22F052
:10130000030252F8043B184787454E434C4F53C5E0
:10131000B01200081913000857F8040B39680022AE
:10132000521E491E491C521C0B789842FAD047F8AD
:10133000042D002B0CD11846521C47F8042D47F8F9
:10134000040D55F8042B22F0030252F8043B184711
:10135000491C521C0B78984201D0002BF8D1104642
:10136000401C47F8042D47F8040D55F8042B22F0D3
:10137000030252F8043B1847C180FFFF081300081E
:101380008513000856F8045B55F8042B22F003027D
:1013900052F8043B1847000084574F52C4FFFFFF28
:1013A00078130008DD080008800F0008600F0008AF
:1013B000EC1D0008B02800082C1C000814130008BD
:1013C000600F0008C41D0008D81B0008D8280008BA
:1013D000B01B0008901B0008940F0008581E00085E
:1013E000B0280008940F0008A0260008901B0008F1
:1013F000181D000830270008940F0008A0260008D8
:101400006C1B0008B0280008581E0008F0080008EF
:10141000864E554D4245D2FF98130008DD0800085E
:10142000EC0C0008C00B000830270008302700082B
:10143000B41A0008581C0008A0260008101E000856
:10144000300900082D00000000290008402700088E
:10145000102B0008581C0008B01B0008B02800081A
:1014600030090008FFFFFFFF58250008341E000860
:1014700048040008581C0008101E00083027000807
:10148000D8280008900A00086C000000581C0008CA
:10149000101E0008300900082E000000D82800089F
:1014A000900A000844000000581C0008101E0008A4
:1014B000300900082C00000000290008900A0008EC
:1014C0001400000030090008FFFFFFFF780A000841
:1014D00098FFFFFF080D00084027000830090008AA
:1014E0003B4000088C12000830270008780A0008EA
:1014F00078FFFFFF0C1C00086C1B0008900A000816
:101500000800000028250008080D0008F008000861
:10151000854552524FD2FFFF10140008DD08000825
:10152000940F000814170008D42F0008381700087B
:10153000D42F0008A82E0008400F0008EC1D00085A
:10154000900A00084000000090060008EC1D00080A
:10155000900A00083000000090060008EC1D00080A
:10156000E411000854110008EC1D00082C0F0008BD
:10157000341E000890060008EC1D0008040F000847
:10158000341E00087C06000854180008C1A7FFFF9D
:1015900010150008DD080008CC040008CC2900085C
:1015A000300900082D4000088C1200080C1C0008AF
:1015B000481F0008F0080008864558504543D4FFEE
:1015C0008C150008DD08000810020008FC01000866
:1015D000A0260008D81B0008B0280008D81B000867
:1015E000A0260008CC2E0008E80A00087030000889
:1015F0008C0B0008581C0008300900080900000086
:1016000000290008900A00080C0000000C1C0008CB
:10161000D00E0008581C00089C0100080029000892
:10162000D81B0008300900087F00000000290008CE
:10163000382B0008900A0008500000000C1C00081D
:10164000581C0008E81A00087C2600080029000839
:10165000581C00086C1B000850270008D8280008F8
:10166000B0280008B01B0008900A00081000000015
:1016700088010008780A00086C000000A401000836
:10168000780A000860000000581C000830090008B3
:101690000D00000000290008900A00081C0000004E
:1016A0004C1B00080C1C0008D00E00083027000856
:1016B000780A000808000000581C0008E81A000812
:1016C000581E000840270008600F0008C41D0008CD
:1016D00030270008E81A0008A0260008581E000855
:1016E00028300008B00A000804FFFFFFA82E0008F9
:1016F000A0260008381700082C1C00087C260008CB
:10170000581E0008F008000885434F554ED4FFFFCF
:10171000B8150008DD080008581C0008A0260008BD
:101720002C1C0008101E0008F008000884244C45FA
:10173000CEFFFFFF081700083D1700083A68404039
:10174000115C094301D0401CFAE747F8040D55F835
:10175000042B22F0030252F8043B184786464F52EE
:101760004745D4FF2C170008DD0800089415000831
:10177000581C00083009000800000208442900082D
:10178000300900089E3F00088C120008581C000811
:10179000300900080000100844290008300900083A
:1017A000BB3F00088C120008581C000854110008A8
:1017B000B01B00083C110008E41100085411000897
:1017C000581C0008EC1D00082C0F0008341E0008EF
:1017D000581C0008E8260008EC1D00083009000825
:1017E0000909000800290008900A000814000000F8
:1017F00030090008FCFFFFFFE00E0008C41D0008D0
:10180000901B000800290008900A0008A8FFFFFFAD
:101810006C1B0008EC1D00082C0F0008341E00088B
:101820009C110008040F0008341E0008443A000808
:10183000143A0008F0080008834259C55C170008F4
:1018400045180008FFF76EBA8541424F52D4FFFF9A
:1018500038180008DD080008B40C0008D00C000897
:101860001002000830090008503F00083C11000831
:10187000EC090008900A0008100000000C1C000889
:10188000781100087C0E00083009000838010010AB
:10189000EC1D0008900A00086C00000030090008E8
:1018A0000819000838170008D42F0008A8300008CD
:1018B000900A0008F8FFFFFF7030000830090008A8
:1018C0004300000000290008900A0008E0FFFFFF25
:1018D00070300008300900084F000000002900089F
:1018E000900A0008C8FFFFFF7030000830090008A8
:1018F0000D00000000290008900A0008B0FFFFFF5B
:1019000004310008F0050008204572726F7220480B
:10191000616C74202845484F4E2F45484F46462954
:10192000202D20546F20434F6E74696E75652054CE
:1019300079706520434F207468656E20456E74652C
:10194000723A200084434F4CC4FFFFFF4818000840
:10195000DD08000808070008C8060008F0050008B0
:10196000900D0A464953482053797374656D3A0DBA
:101970008AFFFFFF44190008832E53C8601900082E
:10198000DD080008300900081000000024020008EB
:10199000F0080008832E53C478190008DD080008F9
:1019A000300900080A00000024020008F0080008BE
:1019B000832E53C294190008DD0800085027000840
:1019C00024020008F0080008822ED3FFB019000896
:1019D000DD0800081C030008EC1D0008081B0008B7
:1019E000E826000800290008CC290008900A000811
:1019F00068000000FC03000805544F533E20FFFF21
:101A00001C030008EC1D0008081B0008E82600085D
:101A1000E80A0008E81A0008EC1D0008180F000882
:101A2000EC1D0008300900080A0000000029000829
:101A3000900A000810000000A8020008780A0008B8
:101A400008000000C0020008302F000870270008BE
:101A5000DC0A0008C0FFFFFFF0080008843244558C
:101A6000D0FFFFFFC81900086D1A000838687A68AF
:101A700047F8042D47F8040D55F8042B22F0030213
:101A800052F8043B18470000842D4455D0FFFFFF57
:101A90005C1A0008DD080008581C0008900A0008BD
:101AA00008000000581C0008F008000883524FD4BA
:101AB000881A0008B91A000857F8042B57F8041BB5
:101AC00057F8040B47F8041D47F8042D47F8040D98
:101AD00055F8042B22F0030252F8043B184700008B
:101AE00081C9FFFFAC1A0008ED1A0008306847F8FA
:101AF000040D55F8042B22F0030252F8043B18475A
:101B0000835350C0E01A00080D1B0008384647F800
:101B1000040D55F8042B22F0030252F8043B184739
:101B2000835250C0001B00082D1B0008304647F8A8
:101B3000040D55F8042B22F0030252F8043B184719
:101B4000854C454156C5FFFF201B0008511B00086E
:101B50003268726055F8042B22F0030252F8043BFD
:101B6000184700008252BEFF401B0008711B00088E
:101B700056F8040B47F8040D55F8042B22F0030225
:101B800052F8043B1847000081D2FFFF641B000895
:101B9000951B0008306847F8040D55F8042B22F017
:101BA000030252F8043B1847823ED2FF881B00080C
:101BB000B51B000857F8041B46F8041D55F8042B04
:101BC00022F0030252F8043B18470000844F5645A8
:101BD000D2FFFFFFA81B0008DD1B000857F8042BED
:101BE00057F8040B47F8040D47F8042D47F8040D87
:101BF00055F8042B22F0030252F8043B184700006A
:101C00008444524FD0FFFFFFCC1B0008111C00087A
:101C10003F1D55F8042B22F0030252F8043B1847ED
:101C200084535741D0FFFFFF001C0008311C0008FF
:101C300057F8042B57F8040B47F8042D47F8040D08
:101C400055F8042B22F0030252F8043B1847000019
:101C5000834455D0201C00085D1C0008386847F8F4
:101C6000040D55F8042B22F0030252F8043B1847E8
:101C7000900D0A537461636B2053747566663A0D58
:101C80008AFFFFFF501C000887414E44424954D34D
:101C9000701C0008991C000857F8042B57F8041B07
:101CA00008681040086055F8042B22F0030252F82F
:101CB000043B184787534554424954D3881C0008B5
:101CC000C51C000857F8042B57F8041B086810437C
:101CD000086055F8042B22F0030252F8043B184721
:101CE00087434C52424954D3B41C0008F11C0008ED
:101CF00057F8042B57F8041B08689043086055F800
:101D0000042B22F0030252F8043B184785434D4F41
:101D100056C5FFFFE01C00081D1D000857F8041BF6
:101D200057F8042B57F8043B002907D01878107097
:101D3000491E002902D0521C5B1CF7D155F8042B18
:101D400022F0030252F8043B184700008446494C35
:101D5000CCFFFFFF0C1D00085D1D000857F8040BA9
:101D600057F8041B57F8042B002904D08B18107067
:101D7000521C9A42FBD155F8042B22F0030252F870
:101D8000043B18478545524153C5FFFF4C1D0008D1
:101D9000DD08000830270008581D0008F00800087A
:101DA00086424C414E4BD3FF841D0008DD080008DD
:101DB000D00E0008581D0008F0080008822BA1FF73
:101DC000A01D0008C91D000857F8041B57F8040B94
:101DD0000A688018086055F8042B22F0030252F8B4
:101DE000043B184781C0FFFFBC1D0008F11D00081F
:101DF00057F8041B086847F8040D55F8042B22F027
:101E0000030252F8043B18478243C0FFE41D000858
:101E1000151E000857F8041B087847F8040D55F8FC
:101E2000042B22F0030252F8043B184781A1FFFF64
:101E3000081E0008391E000857F8040B57F8041B49
:101E4000016055F8042B22F0030252F8043B1847B6
:101E50008243A1FF2C1E00085D1E000857F8040BEA
:101E600057F8041B017055F8042B22F0030252F8B6
:101E7000043B18479F0D0A5265616420616E64201F
:101E80005772697465204D656D6F7279205769745A
:101E9000683A0D8A501E000881DDFFFF741E00089D
:101EA000DD08000850070008C00000001001001005
:101EB000F0080008C1DBFFFF981E0008DD080008DD
:101EC000500700080000000010010010F008000892
:101ED000C95B434F4D50494C45DDFFFFB41E000820
:101EE000DD080008CC040008CC29000830090008EF
:101EF000534000088C1200080C1C000878110008E0
:101F000074100008F0080008C8444C495445524178
:101F1000CCFFFFFFD01E0008DD080008400F0008BE
:101F2000EC1D0008900A0008100000002C1C00089E
:101F3000481F0008481F0008F0080008C74C495413
:101F4000455241CC081F0008DD080008400F00087A
:101F5000EC1D0008900A000810000000E8040008CA
:101F60003009000874100008F00800088223BEFF42
:101F70003C1F0008DD0800080C1C00080C1C0008B1
:101F800034030008EC1D0008700F0008D81B00087F
:101F9000D8280008F008000884484F4CC4FFFFFF11
:101FA0006C1F0008DD08000830090008FFFFFFFF74
:101FB00034030008C41D000834030008EC1D0008A9
:101FC000581E0008F008000884534947CEFFFFFF61
:101FD000981F0008DD080008B41A0008F829000856
:101FE000900A000810000000300900082D000000D1
:101FF000A41F0008F00800088223D3FFC81F0008B0
:10200000DD0800082C200008D81B0008D81B000899
:10201000382B0008CC290008900A0008E8FFFFFFD1
:10202000F008000881A3FFFFF81F0008DD08000882
:10203000180F0008EC1D000808050008B41A000875
:102040003009000809000000D81B000844290008D6
:10205000900A000810000000300900080700000086
:10206000B02800083009000830000000B02800083F
:10207000A41F0008F0080008823CA3FF24200008E9
:10208000DD0800085007000810FA00204401001085
:10209000F008000885444F4553BEFFFF7820000834
:1020A000DD0800086C1B00083C110008E411000862
:1020B000581C000878110008300900087F09000842
:1020C0002C1C0008341E0008341E0008F00800080C
:1020D000873C4255494C44D394200008DD08000851
:1020E0001C230008F0080008C52B4C4F4FD0FFFF01
:1020F000D0200008DD08000860270008BC030008A5
:10210000E8040008DC0A000868060008F008000877
:10211000C44C4F4FD0FFFFFFE8200008DD08000847
:1021200060270008BC030008E8040008B00A0008A3
:1021300068060008F0080008C244CFFF102100081C
:10214000DD080008E8040008E80A0008940F000809
:1021500060270008F0080008C5454E4449C6FFFF47
:1021600038210008DD080008800300085027000817
:10217000BC030008940F0008D81B0008D8280008EA
:102180002C1C0008341E0008F0080008C454484500
:10219000CEFFFFFF58210008DD0800086421000879
:1021A000F0080008C4454C53C5FFFFFF8C21000810
:1021B000DD08000850270008BC030008E8040008F8
:1021C000780A0008940F00083027000874100008EF
:1021D0002C1C000850270008642100085027000824
:1021E000F0080008C249C6FFA4210008DD08000865
:1021F000E8040008900A0008940F0008302700083F
:102200007410000850270008F0080008C5554E5407
:1022100049CCFFFFE4210008DD0800084027000842
:10222000BC030008E8040008900A000868060008DB
:10223000F0080008C541474149CEFFFF0C220008C5
:10224000DD08000840270008BC030008E804000877
:10225000780A000868060008F0080008C6524550D1
:102260004541D4FF34220008DD080008B01B0008F7
:10227000B01B0008402200086C1B00086C1B000803
:1022800050270008D828000864210008F00800083A
:10229000C55748494CC5FFFF5C220008DD0800080F
:1022A000EC210008C4260008F0080008C542454794
:1022B00049CEFFFF90220008DD08000880030008D7
:1022C000940F000840270008F0080008970D0A49FD
:1022D0006E7369646520436F6C6F6E20574F524474
:1022E000533A0D8AAC22000889494D4D4544494175
:1022F00054C5FFFFCC220008DD0800083C1100088F
:1023000030090008400000006C0B0008F0080008CD
:10231000864352454154C5FFE8220008DD08000805
:102320009C090008300900080F000000D8280008A8
:10233000F8290008900A0008080000003C03000883
:10234000CC040008900A0008240000000C1C0008BF
:102350009C110008482F00083009000817400008A9
:1023600038170008D42F000854180008940F0008EC
:10237000581C000890060008341E0008581C00086D
:10238000101E0008300900081F000000C02A0008C5
:1023900054030008581C00083009000880000000A1
:1023A0006C0B0008940F0008300900088000000042
:1023B0006C0B000840270008040F0008C41D00082B
:1023C0003C110008741000082C0F0008341E00088F
:1023D000E80400081D090008940F0008E82600081A
:1023E00074100008F008000888434F4E5354414EC3
:1023F000D4FFFFFF10230008DD0800080C240008AC
:10240000F008000883434FCEE8230008DD080008E9
:102410001C23000830090008FCFFFFFF040F000820
:10242000C41D0008741000087C060008F0080008AD
:10243000885641524941424CC5FFFFFF0424000821
:10244000DD08000854240008F0080008835641D233
:1024500030240008DD0800081C23000830090008AB
:10246000F8FFFFFF040F0008C41D0008E80400087F
:102470000909000840270008D81000087410000857
:102480007C060008F0080008C1BBFFFF4C240008D0
:10249000DD08000848050008E8040008F008000806
:1024A000BC1E00087C060008F0080008C1BAFFFF47
:1024B00088240008DD080008A0030008340500088F
:1024C0001C230008A01E000830090008F8FFFFFFC9
:1024D000040F0008C41D0008E8040008DD08000817
:1024E000F0080008960D0A43524541544520574FC5
:1024F00052445320576974683A0D8AFFAC2400088F
:1025000084444142D3FFFFFFE4240008DD080008B3
:10251000581C0008B0060008F008000887444E4523
:10252000474154C5002500082D25000857F8040B25
:1025300057F8042BC043D243521C47F8042D47F8E8
:10254000040D55F8042B22F0030252F8043B1847FF
:10255000834450CC1C2500081D09000840010010D0
:1025600083442ED250250008DD080008B01B000867
:102570002C1C0008D81B00080C250008802000082F
:1025800000200008D41F0008741F00086C1B0008FE
:10259000D81B0008D8280008F42E0008D42F000803
:1025A000F00800088244AEFF60250008DD0800083E
:1025B0003027000868250008302F0008F0080008C0
:1025C0008244ABFFA4250008CD25000857F8040B72
:1025D00057F8041B57F8043B57F8042B521858417E
:1025E00047F8042D47F8040D55F8042B22F0030298
:1025F00052F8043B1847000084532D3EC4FFFFFFF0
:10260000C02500080926000857F8042B4040124353
:1026100000D5401E47F8042D47F8040D55F8042B4B
:1026200022F0030252F8043B184700008232AAFF4E
:10263000F82500083926000857F8040B400047F831
:10264000040D55F8042B22F0030252F8043B1847FE
:102650008232AFFF2C2600085D26000857F8040BD5
:10266000401047F8040D55F8042B22F0030252F8ED
:10267000043B18478231ADFF502600088126000830
:1026800057F8040B401E47F8040D55F8042B22F0B0
:10269000030252F8043B18478231ABFF742600084E
:1026A000A526000857F8040B401C47F8040D55F800
:1026B000042B22F0030252F8043B18478232ABFF8E
:1026C00098260008C926000857F8040B801C47F814
:1026D000040D55F8042B22F0030252F8043B18476E
:1026E0008234ABFFBC260008ED26000857F8040B27
:1026F000001D47F8040D55F8042B22F0030252F890
:10270000043B18478234ADFFE0260008112700087B
:1027100057F8040B001F47F8040D55F8042B22F05E
:10272000030252F8043B184781B0FFFF042700085A
:102730001D0900080000000081B1FFFF28270008E4
:102740001D0900080100000081B2FFFF38270008C2
:102750001D0900080200000081B3FFFF48270008A0
:102760001D0900080300000081B4FFFF582700087E
:102770001D09000804000000824DAAFF6827000818
:10278000DD080008681A0008842B0008B01B000848
:10279000A82A00082C1C0008A82A0008340C0008ED
:1027A0006C1B0008B0060008F0080008824DAFFF5F
:1027B00078270008DD080008D81B0008B01B0008B7
:1027C000B01B00080C250008901B0008A82A000870
:1027D0005C0C00086C1B0008901B0008842B000890
:1027E000980600082C1C00086C1B000898060008BE
:1027F0002C1C0008F008000881AAFFFFAC27000885
:10280000DD080008802700080C1C0008F0080008FC
:10281000842F4D4FC4FFFFFFF8270008DD08000894
:10282000B01B0008042600086C1B0008B427000831
:10283000F008000881AFFFFF10280008DD0800083D
:102840001C2800082C1C00080C1C0008F0080008BC
:10285000834D4FC434280008DD0800081C280008F8
:102860000C1C0008F0080008852A2F4D4FC4FFFFFC
:1028700050280008DD080008B01B00088027000869
:102880006C1B0008B4270008F0080008822AAFFF7C
:1028900068280008DD080008742800082C1C0008BF
:1028A0000C1C0008F008000881ABFFFF8C28000812
:1028B000B528000857F8040B57F8041B401847F8D0
:1028C000040D55F8042B22F0030252F8043B18477C
:1028D00081ADFFFFA8280008DD28000857F8040B89
:1028E00057F8041B081A47F8040D55F8042B22F07A
:1028F000030252F8043B184781BDFFFFD0280008AF
:1029000005290008404057F8040B57F8041B401AEB
:1029100009D0404047F8040D55F8042B22F003027B
:1029200052F8043B1847013847F8040D55F8042BBA
:1029300022F0030252F8043B1847000081BCFFFF5D
:10294000F8280008492900084040013857F8041BBE
:1029500057F8042B914200DC404047F8040D55F82D
:10296000042B22F0030252F8043B18478255BCFFA7
:102970003C290008DD080008681A0008842B0008BC
:10298000F8290008900A0008180000000C1C000834
:10299000F8290008CC290008780A00080C0000007B
:1029A000D8280008F8290008F008000881BEFFFFB9
:1029B0006C290008DD0800082C1C000844290008C8
:1029C000F00800088230BDFFAC290008D1290008BA
:1029D000404057F8041B002900D1401E47F8040D61
:1029E00055F8042B22F0030252F8043B184700006C
:1029F0008230BCFFC4290008FD29000857F8041BD9
:102A000040400138094300D4404047F8040D55F8D0
:102A1000042B22F0030252F8043B1847834249CEAC
:102A2000F0290008DD080008500700080200000037
:102A300004010010F0080008834845D81C2A00084B
:102A4000DD08000850070008100000000401001015
:102A5000F008000887444543494D41CC382A000816
:102A6000DD080008500700080A00000004010010FB
:102A7000F0080008864E45474154C5FF542A000817
:102A8000852A000857F8040BC043401C47F8040D82
:102A900055F8042B22F0030252F8043B18470000BB
:102AA000834142D3742A0008DD080008581C00083E
:102AB00098060008F0080008834D49CEA02A0008B7
:102AC000DD080008681A0008B4290008900A000808
:102AD000080000002C1C00080C1C0008F00800086E
:102AE000834D41D8B82A0008DD080008681A00089C
:102AF00044290008900A0008080000002C1C000867
:102B00000C1C0008F008000883414EC4E02A0008AD
:102B1000152B000857F8040B57F8041B084047F81A
:102B2000040D55F8042B22F0030252F8043B184719
:102B3000824FD2FF082B00083D2B000857F8040BEA
:102B400057F8041B084347F8040D55F8042B22F0EE
:102B5000030252F8043B1847834E4FD4302B000831
:102B6000652B000857F8040BC04347F8040D55F8CF
:102B7000042B22F0030252F8043B184783584FD22B
:102B8000582B0008892B000857F8040B57F8041B32
:102B9000484047F8040D55F8042B22F0030252F880
:102BA000043B184784535854C8FFFFFF7C2B000890
:102BB000B52B000857F8040B00B247F8040D55F880
:102BC000042B22F0030252F8043B18478453585454
:102BD000C2FFFFFFA42B0008DD2B000857F8040BF1
:102BE00040B247F8040D55F8042B22F0030252F8C6
:102BF000043B184784524556D7FFFFFFCC2B0008F3
:102C0000052C000857F8040B00BA47F8040D55F8D6
:102C1000042B22F0030252F8043B1847834153D29D
:102C2000F42B0008292C000857F8042B57F8040B44
:102C3000104147F8040D55F8042B22F0030252F816
:102C4000043B1847834C53D21C2C0008512C00081D
:102C500057F8042B57F8040BD04047F8040D55F8EB
:102C6000042B22F0030252F8043B1847834C53CC48
:102C7000442C0008792C000857F8042B57F8040B53
:102C8000904047F8040D55F8042B22F0030252F847
:102C9000043B1847822ED2FF6C2C0008DD08000888
:102CA000B01B0008042600086C1B000868250008FB
:102CB000F0080008832E52D5942C0008DD08000887
:102CC000B01B000830270008802000080020000802
:102CD000741F0008581C00086C1B00082C1C0008FE
:102CE000D8280008F42E0008D42F0008F0080008A7
:102CF0008255AEFFB42C0008DD080008302700081C
:102D0000AC250008F008000881BFFFFFF02C000888
:102D1000DD080008EC1D0008282D0008F008000858
:102D200081AEFFFF082D0008DD080008042600081A
:102D3000AC250008F0080008822EC2FF202D0008F4
:102D4000DD08000850270008D8020008F008000835
:102D5000822EC8FF382D0008DD0800083009000861
:102D600010000000D8020008F0080008822EC4FFFE
:102D7000502D0008DD080008300900080A00000096
:102D8000D8020008F0080008910D0A4E554D424542
:102D9000522053747566663A0D8AFFFF6C2D000849
:102DA0008A55415254335F494E49D4FF882D00085B
:102DB000DD0800083009000800020120EC1D0008B1
:102DC000CC290008900A00081C0000003009000807
:102DD00004020120EC1D0008B01B0008780A00085E
:102DE000100000003009000880250000B01B00081A
:102DF0003009000880DE80026C1B00083C280008B7
:102E00003009000808480040341E0008F008000897
:102E1000864D59424155C4FFA02D0008DD08000829
:102E200050070008000000000002012030090008DF
:102E300004020120341E0008F008000889554152A0
:102E400054335F4C53D2FFFF102E0008512E000860
:102E50000549087847F8040D55F8042B22F00302C1
:102E600052F8043B18470000004800408855415282
:102E700054335F52D8FFFFFF3C2E00081D090008A5
:102E8000044800408855415254335F54D8FFFFFF37
:102E90006C2E00081D0900080448004084584F4665
:102EA000C6FFFFFF842E0008AD2E0008FDF7F4FFDB
:102EB000FDF7FAFF55F8042B22F0030252F8043B09
:102EC0001847000083584FCE9C2E0008D12E0008D2
:102ED000FDF7E2FFFDF7F0FF55F8042B22F00302A7
:102EE00052F8043B18470000865350414345D3FF36
:102EF000C42E0008DD08000830270008E82A000872
:102F0000941A0008900A00081800000030270008F2
:102F1000E80A0008302F0008B00A0008F8FFFFFF99
:102F2000F00800088553504143C5FFFFE82E000814
:102F3000DD080008D00E000828300008F00800085E
:102F4000834944AE242F0008DD0800081417000848
:102F5000300900081F000000102B0008D42F0008C3
:102F6000302F0008F0080008C22EA2FF402F0008F2
:102F7000DD0800083009000822000000400F0008AA
:102F8000EC1D0008900A00082C000000E80400086E
:102F9000FC030008A4130008940F0008101E00088A
:102FA000A0260008E80F000854030008780A00086B
:102FB00014000000A4130008940F00081417000860
:102FC000D42F0008F008000884545950C5FFFFFFB3
:102FD000682F0008DD080008941A0008900A00080D
:102FE00034000000A82E0008D81B0008B0280008F4
:102FF0002C1C0008E80A0008E81A00080C0B00085E
:1030000028300008B00A0008F0FFFFFF780A000827
:10301000080000000C1C0008F008000884454D4919
:10302000D4FFFFFFC82F00082D30000857F8040B0D
:10303000FDF732FF0649087006490868401C086021
:1030400055F8042B22F0030252F8043B1847000005
:10305000044800400C010010834B45D91C30000887
:10306000DD080008CC2E000870300008F0080008C9
:1030700075300008074A084B19688909FCD31068A5
:1030800047F8040D55F8042B22F0030252F8043BD4
:10309000184700000448004000480040843F4B456A
:1030A000D9FFFFFF58300008AD300008FDF7F4FEEF
:1030B000FDF702FF4040074B1968890900D301382A
:1030C00047F8040D55F8042B22F0030252F8043B94
:1030D0001847000000480040834352D39C3000084A
:1030E000DD08000830270008E80A0008043100085D
:1030F000B00A0008F8FFFFFFF00800088243D2FF83
:10310000D8300008DD08000810020008FC030008A1
:10311000020D0AFFF00800088C0D0A4649534820AA
:10312000494F3A0D8AFFFFFFFC3000088B4952518E
:10313000535F524553554DC51831000841310008C1
:1031400001F02AF955F8042B22F0030252F8043B4F
:10315000184700008C495251535F53555350454E08
:10316000C4FFFFFF2C3100086D31000801F012F997
:1031700055F8042B22F0030252F8043B18470000D4
:103180008F5359535449434B5F4952515F4F46C681
:10319000543100089931000804490520086055F8A9
:1031A000042B22F0030252F8043B184710E000E021
:1031B0008E5359535449434B5F4952515F4FCEFF91
:1031C00080310008C931000804490720086055F81B
:1031D000042B22F0030252F8043B184710E000E0F1
:1031E0008F0D0A494E54455252555054533A0D8A48
:1031F000B03100088A464C4153485F534156C5FFE1
:10320000E0310008DD0800083C110008243B0008FC
:1032100044290008900A000820000000043100083A
:10322000FC0300080F4E4F5448494E4720544F208E
:1032300053415645F008000804330008EC1D00080F
:10324000300900080000100800290008900A000852
:103250002800000004310008FC030008144C41530E
:103260005420464C41534820415641494C20555327
:103270004544FFFFF008000818100008E00E0008A1
:10328000EC1D000814330008341E00083C1100082F
:103290001C3300080C330008341E00083C110008E1
:1032A000243B000800290008900A0008480000009C
:1032B000C0370008243B0008040F0008341E000833
:1032C00014330008EC1D0008E00E0008341E00084E
:1032D0000C330008EC1D00082C0F0008341E0008F9
:1032E000C834000804310008443A0008143A0008C1
:1032F000F00800083C11000848330008780A00086C
:103300009CFFFFFF1D090008040000201D090008A4
:10331000080000201D0900080C00002021330008CF
:1033200057F8040B064A1040064A1268801847F8FE
:10333000040D55F8042B22F0030252F8043B184701
:10334000FFFF0F0004000020DD080008E411000862
:10335000581C0008B01B000878110008581C000811
:10336000EC1D0008300900087F090008002900084A
:10337000900A000828000000E8260008581C0008F1
:10338000581C0008EC1D00081C3300082C1C000809
:10339000341E0008780A000800010000581C0008CC
:1033A000EC1D0008300900081D090008002900086C
:1033B000D81B0008EC1D00083009000809090008A6
:1033C00000290008382B0008900A000810000000AF
:1033D0000C1C0008780A0008C4000000E826000859
:1033E000581C0008EC1D00083009000830090008CE
:1033F00000290008900A000810000000E8260008D4
:10340000780A0008D8FFFFFF581C0008EC1D0008D0
:1034100030090008FC03000800290008900A000891
:1034200020000000581C0008E8260008101E0008B4
:10343000B0280008E80F0008780A0008A0FFFFFF86
:10344000581C0008EC1D000830090008F0080008AE
:1034500000290008CC290008900A00083C00000060
:10346000581C0008EC1D0008243B0008B429000883
:10347000900A000868FFFFFF581C0008581C00084D
:10348000EC1D00081C3300082C1C0008341E00082A
:10349000780A000848FFFFFF0C1C00086C1B00089E
:1034A00054110008581C0008EC1D0008581C0008A6
:1034B0002C0F0008341E00081C3300082C1C0008C8
:1034C000341E0008F0080008DD0800083009000874
:1034D00000000208581C0008300900080400002001
:1034E000341E0008581C0008B01B0008EC1D000822
:1034F0000C3C0008D8280008900A000810000000C2
:103500006C1B00080C1C0008F0080008901B000849
:1035100004330008341E0008901B0008300900081E
:1035200008000000B0280008581C0008EC1D000826
:103530002C0F0008341E0008E8260008EC1D0008C7
:10354000E00E0008341E000804310008FC030008E7
:1035500017414444454420574F5244532046524F4C
:103560004D204144445220FF901B0008582D000874
:103570006C1B0008E8260008EC1D0008780A00080B
:1035800054FFFFFFDD080008581C0008B0280008A1
:10359000B01B0008581C0008EC1D0008A0260008FD
:1035A000900A00083800000004310008FC030008FD
:1035B000174552415345442042414420464C415313
:1035C0004820504147452020582D00080C1C000879
:1035D0006C1B00080C1C0008F0080008E826000816
:1035E000581C0008581C0008901B00082C1C0008E0
:1035F000D8280008900A00080C000000780A00088B
:1036000098FFFFFF04310008FC0300080E464C4100
:1036100053482050414745204F4B20FFD8280008F1
:10362000582D00086C1B00080C1C0008F00800084E
:103630008C464C4153485F464F524745D4FFFFFFED
:10364000F4310008DD080008FC0300081754414B62
:1036500045532041424F55542036205345434F4E49
:1036600044532120683100084439000824390008F7
:10367000500700082A020100103C024024390008CB
:103680005007000832020100103C024024390008B3
:10369000500700083A020100103C0240243900089B
:1036A0005007000842020100103C02402439000883
:1036B000500700084A020100103C0240243900086B
:1036C0005007000852020100103C02402439000853
:1036D000500700085A020100103C0240243900083B
:1036E000643900083C310008383B00083C110008F0
:1036F000B4290008900A000810000000AC3E000841
:10370000780A00082400000030090008203F000863
:1037100030090008403F0008243B0008E41100087D
:1037200054110008341E0008500700080000020869
:10373000040000203009000811111111581C000864
:103740000C330008341E000814330008341E00082F
:10375000C834000804310008443A0008143A00084C
:10376000F00800086937000857F8040B57F8041BE5
:10377000064A50F8044B42F8044B8842F9D155F8F8
:10378000042B22F0030252F8043B1847D0FE00201D
:1037900030090008D0FE00207C0E0008F008000868
:1037A000DD080008300900087839000830090008F1
:1037B000CC3800086437000890370008F00800088B
:1037C000DD08000868310008443900082439000881
:1037D0005007000801020000103C024004330008BA
:1037E000EC1D0008B01B00083009000810000000A4
:1037F00004330008C41D0008940F0008B01B000823
:10380000243B0008581C0008EC1D00080433000885
:10381000EC1D0008341E0008243900087027000839
:1038200004330008C41D0008E8260008581C0008DE
:10383000901B0008D8280008900A00080C0000001F
:10384000780A0008C0FFFFFF6C1B00080C1C000872
:103850000C1C00083009000800000020EC1D0008C6
:10386000901B0008341E00082439000804330008A7
:10387000EC1D0008901B0008E8260008341E000814
:10388000243900080C330008EC1D0008901B0008C8
:103890009C010008B0280008341E000824390008E4
:1038A00014330008EC1D00086C1B000830090008E8
:1038B0000C000000B0280008341E0008243900085D
:1038C000643900083C310008F0080008DD080008F1
:1038D00044360008683100084439000824390008DB
:1038E0005007000801020000103C02405007000889
:1038F0000000020804000020300900081000000049
:10390000040F0008C41D00085C0E0008C037000842
:103910005C0E000844360008643900083C31000899
:10392000F008000829390008054908680004FCD29D
:1039300055F8042B22F0030252F8043B184700000C
:103940000C3C0240DD0800085007000823016745D1
:10395000043C024050070008AB89EFCD043C024014
:10396000F0080008DD08000850070008000000808B
:10397000103C0240F008000884504F46C6FFFFFF8D
:1039800030360008DD08000850070008000000007D
:1039900034010010F008000883504FCE7839000839
:1039A000DD08000850070008370E00083401001039
:1039B000F008000881D0FFFF983900081D090008B1
:1039C000340100108545484F46C6FFFFB439000852
:1039D000DD08000830270008300900083801001011
:1039E000341E0008F00800088445484FCEFFFFFF52
:1039F000C4390008DD080008402700083009000825
:103A000038010010341E0008F0080008832E44D34B
:103A1000E8390008DD0800089C090008EC0C0008E3
:103A2000742D0008080D0008300900086C3F0008DC
:103A300038170008D42F0008F0080008832E56D34A
:103A40000C3A0008DD080008C4090008EC0C000866
:103A5000702700083C280008742D0008080D000895
:103A600030090008613F000838170008D42F00080B
:103A7000F00800088444554DD0FFFFFF3C3A000891
:103A8000DD080008D81B00082C120008EC0C000808
:103A9000402A000830270008E80A0008043100081E
:103AA000581C0008300900080A000000BC2C00085F
:103AB0007027000830270008E80A0008581C000892
:103AC000EC1D0008300900080E000000BC2C0008A6
:103AD000E8260008B00A0008E4FFFFFFA83000084D
:103AE000900A0008080000004C1B0008B00A0008FB
:103AF000ACFFFFFF0C1C000804310008080D000893
:103B0000F00800088556424153C5FFFF743A00088B
:103B10001D090008040000108544424153C5FFFF01
:103B2000043B00081D090008100000208552424196
:103B300053C5FFFF183B00081D09000800000020C6
:103B400083434CD32C3B0008DD080008FC0300082D
:103B5000041B5B324AFFFFFFFC030008041B5B3BB6
:103B600048FFFFFF04310008F0080008C1A8FFFF6C
:103B7000403B0008DD08000830090008290000006B
:103B80002C0B0008CC290008900A00083400000023
:103B90000431000830090008100000002830000837
:103BA000240400083009000871FA0020101E0008E3
:103BB000900A000810000000780A0008BCFFFFFF10
:103BC000F0080008300900087E3F00083817000898
:103BD000D42F0008F0080008C1DCFFFF6C3B000890
:103BE000DD08000830270008800F0008600F00087B
:103BF000EC1D0008B0280008581E0008F008000856
:103C000086535953434CCBFFD83B0008113C000866
:103C10000549086847F8040D55F8042B22F0030203
:103C200052F8043B1847000000000020855354431D
:103C300054D2FFFF003C00081D09000800000010DE
:103C40008544454C41D9FFFF2C3C0008513C0008FD
:103C500057F8041B57F8040B0C4CC043401C206061
:103C60000B4A11600B4A1160002806D00A4A1068FE
:103C70000721116021680029FCD1106055F8042B40
:103C800022F0030252F8043B184700000000001025
:103C900014E000E018E000E010E000E0824DD3FF07
:103CA000403C0008DD080008300900083F90020091
:103CB0004C3C0008F008000887574F52444341D459
:103CC0009C3C0008DD080008940F0008B01B0008A9
:103CD000302700089C100008300900080D00000083
:103CE0009C100008940F0008300900080D00000027
:103CF000A4130008581C0008101E00083009000812
:103D00000A000000B41A0008581E0008581C0008D9
:103D1000A0260008B00F0008300900088400000049
:103D2000B0280008901B0008581E00083009000841
:103D30000D0000009C100008300900088A000000F7
:103D40009C100008181000083C11000874100008AE
:103D50006C1B00083009000830010010341E0008F8
:103D6000F008000885574F5244D3FFFFB83C0008C5
:103D7000DD08000860270008F42E00083C11000848
:103D8000A82E000830270008D81B0008A02600082D
:103D9000101E0008300900080D000000002900086E
:103DA000CC290008900A00081C0000000C1C000828
:103DB000581C0008E411000854110008D81B000822
:103DC000D8280008500F0008EC1D0008B028000893
:103DD000300900084A000000B4290008900A0008D1
:103DE000100000000431000860270008F42E0008CD
:103DF000581C0008F40E0008EC1D000844290008B7
:103E0000900A00080C000000780A00085400000026
:103E1000581C0008482F000850270008F42E0008FE
:103E2000581C0008A0260008101E000830090008D1
:103E30000D00000000290008900A0008080000009A
:103E400010020008E411000854110008EC1D0008DD
:103E5000581C0008CC290008900A000828FFFFFF22
:103E60000C1C000804310008F0080008874D595761
:103E70004F5244D3643D0008DD0800085007000895
:103E8000000002082C010010703D000850070008D7
:103E9000000000002C010010F0080008894649537A
:103EA000485F4F4E4CD9FFFF6C3E0008B13E000802
:103EB0000C49000030090008403F00080A4C21600E
:103EC0000A4C21600A490B4C21600B4C21600B49C4
:103ED0000B4C216055F8042B22F0030252F8043BEE
:103EE00018470000203F00083001001008000020A3
:103EF00004000010200100100C0000201000002021
:103F00002401001084464953C8FFFFFF9C3E00086F
:103F1000DD080008C8340008C8060008F0080008DA
:103F2000990D0A46495348205265666572656E636D
:103F300065204D6F64656C3A0D8AFFFF043F0008F1
:103F4000890D0A4750494F3A0D8AFFFF203F00086C
:103F50000352554E2000203F2000203C43523E207B
:103F6000005641522043454C4C5320004449435491
:103F7000494F4E4152592042595445532000204345
:103F80004F4D4D454E54204C494E452043414E4ED9
:103F90004F5420424520454D505459201500204390
:103FA000414E5420464F52474554204649534820DD
:103FB000494E20464C41534820150020494E20468A
:103FC0004C415348202D2053454520464C415348F1
:103FD0005F464F52474554201500204449435449F9
:103FE0004F4E4152592046554C4C202D20534545AB
:103FF000202E44532015002052414D20564152207E
:1040000053504143452046554C4C202D20534545A7
:10401000202E565320150020495320414C52454133
:10402000445920444546494E4544201500203F2030
:104030004E4F5420574F5244201500203F204E4FE2
:104040005420574F5244204F52204E554D42455216
:1040500020150020434155534544204120535441ED
:10406000434B204552524F52201500205354414398
:104070004B204552524F52205748494C45204558F5
:1040800045435554494E47204F5220434F4D5049C8
:104090004C494E47201500204552524F52202D20AA
:1040A0004E4F5420434F4D50494C494E4720150028
:1040B000204552524F52202D2045584543555445D6
:1040C00044205748494C4520434F4D50494C494E98
:1040D00047201500DD08000850070008050700000C
:1040E000003C0240F0080008ED40000840F20004E7
:1040F000C2F201044FF000034FF0800C53F8042B80
:1041000044F8042BBCF1010CF8D155F8042B22F033
:10411000030252F8043B1847DD080008E840000895
:10412000500700080000012008ED00E068070008C3
:10413000003802408407000801000000C40700089E
:104140000038024050070008000000000838024014
:104150006807000800380240A4070008FFFFF6FEC9
:10416000C40700080038024050070008103000243F
:10417000043802406807000800380240A40700081D
:10418000FFFFFBFFC407000800380240500700088B
:10419000000000000C3802406807000800380240A8
:1041A0008407000800000100C4070008003802402E
:1041B000400800086807000800380240A40700080B
:1041C0000000020058080008680700084038024054
:1041D0008407000800000010C407000840380240AF
:1041E00068070008007000408407000800400000D5
:1041F000C407000800700040300900080838024079
:104200003009000800000000C01C00083009000848
:10421000083802403009000800800000C01C000877
:104220003009000808380240300900080014000076
:10423000C01C00085007000808544007043802401A
:1042400068070008003802408407000800000001E9
:10425000C40700080038024040080008680700084A
:1042600000380240A40700080000000258080008B7
:10427000D44000086807000808380240A407000876
:10428000FCFFFFFFC4070008083802406807000869
:10429000083802408407000802000000C407000834
:1042A0000838024040080008680700080838024043
:1042B000A40700080C0000003009000808000000F6
:1042C0000029000858080008500700080030005076
:1042D000843802406807000800380240840700085C
:1042E00000000004C407000800380240400800082D
:1042F0006807000800380240A40700080000000812
:104300005808000850070008007A030A000000203F
:1043100030090008303802403009000887000000EA
:10432000C01C00083009000840380240300900086D
:1043300000000400C01C00085007000800770000BF
:104340002408024010080008000802400300F000A2
:104350000100A000500700080C2000000C4800409D
:10436000500700080700000010E000E0F008000817
:10437000BFF34F8F0548016811F4E0610448014321
:1043800002480160BFF34F8FFEE700000CED00E034
:104390000400FA0572B6704762B6704780B5FFF741
:1043A000E7FF01BD4EF68851CEF20001086840F4E7
:1043B00070000860BFF34F8FBFF36F8F4FF0007036
:1043C000E1EE100A70470000FCF7ACBCFFF7FEBF3F
:1043D000FFF7FEBFFFF7FEBFFFF7FEBFFFF7FEBF11
:1043E000FFF7FEBFFFF7FEBFFCF7D4BCFFF7FEBF31
:1043F000FFF7FEBFFFF7FEBFFFF7FEBFFFF7FEBFF1
:10440000FFF7FEBFFFF7FEBFFFF7FEBFFFF7FEBFE0
:10441000FFF7FEBFFFF7FEBFFFF7FEBFFFF7FEBFD0
:10442000FFF7FEBFFFF7FEBFFFF7FEBFFFF7FEBFC0
:10443000FFF7FEBFFFF7FEBFFFF7FEBFFFF7FEBFB0
:10444000FFF7FEBFFFF7FEBFFFF7FEBFFFF7FEBFA0
:10445000FFF7FEBFFFF7FEBFFFF7FEBFFFF7FEBF90
:10446000FFF7FEBFFFF7FEBFFFF7FEBFFFF7FEBF80
:10447000FFF7FEBFFFF7FEBFFFF7FEBFFFF7FEBF70
:10448000FFF7FEBFFFF7FEBFFFF7FEBFFFF7FEBF60
:10449000FFF7FEBFFFF7FEBFFFF7FEBFFFF7FEBF50
:1044A000FFF7FEBFFFF7FEBFFFF7FEBFFFF7FEBF40
:1044B000FFF7FEBFFFF7FEBFFFF7FEBFFFF7FEBF30
:1044C000FFF7FEBFFFF7FEBFFFF7FEBFFFF7FEBF20
:1044D000FFF7FEBFFFF7FEBFFFF7FEBFFFF7FEBF10
:1044E000FFF7FEBFFFF7FEBFFFF7FEBFFFF7FEBF00
:1044F000FFF7FEBFFFF7FEBFFFF7FEBFFFF7FEBFF0
:10450000FFF7FEBFFFF7FEBFFFF7FEBFFFF7FEBFDF
:10451000FFF7FEBFFFF7FEBFFFF7FEBFFFF7FEBFCF
:10452000FFF7FEBFFFF7FEBFFFF7FEBFFFF7FEBFBF
:04453000FFF7FEBFD4
:0400000500000000F7
:00000001FF
