:020000040800F2
:10000000000002200D4A0008114A0008054A0008B5
:10001000154A0008194A00081D4A0008000000009F
:10002000000000000000000000000000214A00085D
:10003000254A000800000000294A00082D4A00084F
:10004000314A0008354A0008394A00083D4A00088C
:10005000414A0008454A0008494A00084D4A00083C
:10006000514A0008554A0008594A00085D4A0008EC
:10007000614A0008654A0008694A00086D4A00089C
:10008000714A0008754A0008794A00087D4A00084C
:10009000814A0008854A0008894A00088D4A0008FC
:1000A000914A0008954A0008994A00089D4A0008AC
:1000B000A14A0008A54A0008A94A0008AD4A00085C
:1000C000B14A0008B54A0008B94A0008BD4A00080C
:1000D000C14A0008C54A0008C94A0008CD4A0008BC
:1000E000D14A0008D54A0008D94A0008DD4A00086C
:1000F000E14A0008E54A0008E94A0008ED4A00081C
:10010000F14A0008F54A0008F94A0008FD4A0008CB
:10011000014B0008054B0008094B00080D4B000877
:10012000114B0008154B0008194B00081D4B000827
:10013000214B0008254B0008294B00082D4B0008D7
:10014000314B0008354B0008394B00083D4B000887
:10015000414B0008454B0008494B00084D4B000837
:10016000514B0008554B0008594B00085D4B0008E7
:10017000614B0008654B0008694B00086D4B000897
:10018000714B0008754B0008E90800083C0900089D
:1001900007000000D82F0008FC0800082909000803
:1001A00008000000E90800089C010008D82F00089A
:1001B000E02E00089C010008D82F00086C1C0008E5
:1001C000780F00087C1D000840280008C0260008A1
:1001D000401C0008E81D00083C090008FCFFFFFF68
:1001E000680F0008541D0008302D0008780F000823
:1001F000541D0008FC080008E90800085C07000816
:100200000000000008010010FC080008E9080008D0
:100210005C070008000000000C010010FC0800084A
:10022000E9080008180D0008300F0008C41D000878
:10023000E4190008340D0008FC080008E90800086B
:10024000300F00087C1D00086C1C0008E026000828
:10025000902800089C0A0008180000003C090008CB
:1002600062000000D82F0008201C0008FC080008CD
:100270003C0900080A000000902800089C0A0008B9
:10028000140000003C09000864000000D82F00089A
:10029000FC0800083C09000868000000D82F00088E
:1002A000FC080008E908000894250008C02600089A
:1002B000F82400083C020008FC080008E9080008CF
:1002C000C0260008C0260008F82400083C020008E8
:1002D000FC080008E9080008180D00086C1C00085C
:1002E000300F0008C41D00083C0900080A00000087
:1002F000902800089C0A000810000000A4020008D2
:10030000840A000808000000BC020008E02E000873
:10031000340D0008FC080008290900081401001029
:100320002909000818010010290900083C010010E3
:100330002909000844010010E90800083C090008E8
:100340002C45000848170008842F0008641800088E
:10035000E90800081C0F0008541D0008FC080008EC
:10036000E908000830100008AC0F0008C41D0008A0
:100370000027000850030008FC080008E9080008EE
:10038000580F00087C1D00085C2900083C09000883
:10039000F7450008A0120008FC080008E90800085A
:1003A000580F00087C1D00083C0900081246000890
:1003B000A0120008FC080008E908000868280008E6
:1003C0003C090008C9450008A0120008FC08000804
:1003D000E90800081C1B0008180300087C1D000821
:1003E000401C0008042900083C090008AF4500082B
:1003F000A0120008FC080008E9080008801B00089B
:100400006C1C000824170008842F0008241700081B
:100410004028000800100008C41B0008FC08000861
:10042000E9080008980F00083C0900085E00000079
:10043000D41500085C070008010000000801001046
:10044000FC080008E9080008302600086C1C0008B9
:10045000C41B0008A01D0008300F00087C1D000808
:10046000D01200089C0A000858000000401C000838
:10047000300F00087C1D0008600C0008201C0008DC
:10048000C81A0008300F00087C1D0008600C000826
:1004900058250008E82400087C1D000830260008C4
:1004A0009C0A000810000000D0260008E82400087C
:1004B000541D0008801B0008840A00088CFFFFFF01
:1004C000801B0008FC080008E9080008E80E000886
:1004D000B8130008AC0F000854110008F809000810
:1004E000FC080008E9080008801B00086C1C0008D4
:1004F00078260008C41B00087C1D00086003000863
:10050000FC080008E9080008C41B0008C026000811
:10051000A41B0008880C0008801B0008401C000871
:10052000C41B0008880C0008801B0008FC08000899
:10053000E90800081C1B000828030008C41D000867
:10054000FC080008E90800081C1B00082803000834
:100550007C1D0008682800083C090008AF45000819
:10056000A0120008FC080008E9080008C8040008F8
:100570009C0A00083C000000580F00087C1D000881
:10058000D42800089C0A00081400000090110008FC
:1005900060030008840A00080C00000090110008A5
:1005A000940E0008D0030008840A0008C0FFFFFF73
:1005B000AC0F000830140008E82400087C1D000877
:1005C000302600089C0A000810000000A81E000841
:1005D000840A00080C000000201C0008D81E000837
:1005E000D0030008840A000884FFFFFFE908000820
:1005F0004C1E0008E00C0008FC0C00082004000859
:1006000068050008580F00087C1D00085C290008D8
:100610009C0A0008380000003C0900083401001062
:100620007C1D00089C0A0008240000003C0900080A
:10063000340100107C1D000848170008842F0008B2
:10064000300F00087C1D0008042D00083C0900083C
:1006500010000000D82F0008B4300008840A0008F9
:1006600098FFFFFFE9080008AC0F000868280008A1
:100670008C100008FC080008E90800085C07000866
:100680000000000028010010FC08000829090008EB
:1006900028010010E9080008882900089C0A0008C1
:1006A00008000000102A0008FC080008E9080008FB
:1006B000882900089C0A000808000000B8240008E7
:1006C000FC080008E9080008B43000083C090008EC
:1006D000E80D000848170008842F00083C090008AE
:1006E000410E000848170008842F00083C09000844
:1006F0004E0E000848170008842F0008B430000888
:10070000FC080008E9080008BC0800087834000864
:10071000FC080008E9080008401C0008EC1B000861
:10072000402800083C0900087F000000EC1B00087E
:10073000A01D0008D42800089C0A0008E0FFFFFF65
:10074000401C0008201C0008FC080008013055F877
:10075000042B22F0030252F8043B184761070008FB
:1007600002CD04CD116055F8042B22F0030252F89B
:10077000043B18477907000855F8040B006847F850
:10078000040D55F8042B22F0030252F8043B1847DD
:100790009507000855F8042B57F8040B104347F849
:1007A000040D55F8042B22F0030252F8043B1847BD
:1007B000B507000855F8042B57F8040B104047F80C
:1007C000040D55F8042B22F0030252F8043B18479D
:1007D000D507000855F8043B57F8040B186055F886
:1007E000042B22F0030252F8043B1847F1070008DB
:1007F00057F8043B57F8041B57F8040B1A6822EA11
:10080000010200EA010042EA00021A6055F8042BD6
:1008100022F0030252F8043B1847000021080008A8
:1008200055F8043B55F8044B55F804CB1A6822EAF6
:1008300004020CEA040C42EA0C021A6055F8042B7C
:1008400022F0030252F8043B184700005108000848
:1008500046F8045D55F8042B22F0030252F8043BDD
:10086000184700006908000857F8040B00280CBF5F
:100870003568361D55F8042B22F0030252F8043B6C
:1008800018470000100000000000000000000000F9
:1008900000000000680500105803001070FA0020E6
:1008A0000400001010000020000000000000000004
:1008B0007C440008500E000800000000C108000839
:1008C000074808490E2203680B60001D091D521ECF
:1008D000F9D155F8042B22F0030252F8043B1847D3
:1008E000840800080401001046F8045D154655F818
:1008F000042B22F0030252F8043B184701090008B8
:1009000056F8045B55F8042B22F0030252F8043B1E
:100910001847000001CA47F8040D55F8042B22F0CF
:10092000030252F8043B184701CA47F8040D55F872
:10093000042B22F0030252F8043B18474109000837
:1009400055F8040B47F8040D55F8042B22F0030268
:1009500052F8043B184700005D09000855F8040BE5
:1009600047F8040D55F8042B22F0030252F8043B1B
:10097000184700007909000857F8045B55F8042B64
:1009800022F0030252F8043B1847000046F8045DC9
:100990004568083047F8040D55F8042B22F003028F
:1009A00052F8043B18470000AD0900080648074903
:1009B0000968401A47F8040D55F8042B22F0030289
:1009C00052F8043B1847000010FA002024010010E0
:1009D000D5090008064807490968401A47F8040D78
:1009E00055F8042B22F0030252F8043B184700008C
:1009F0000401001020010010FD09000857F8043B15
:100A000057F8042B93465A46187884461178484084
:100A10003F2420401DD1521C5B1C1878117888425D
:100A2000F9D08024001B884214D15B1C1878FF2861
:100A3000FBD0083347F8043D0120624647F8042DF7
:100A400047F8040D55F8042B22F0030252F8043B3A
:100A500018475B1C187880242042FAD01B1D0848D8
:100A600003401B68002B00D0CDE7002047F8040DA1
:100A700055F8042B22F0030252F8043B18470000FB
:100A8000FCFFFFFF890A00082B68ED1855F8042BBE
:100A900022F0030252F8043B18470000A10A0008A4
:100AA00057F8040B00283FF4EFAF2D1D55F8042B29
:100AB00022F0030252F8043B18470000C10A000864
:100AC00057F8040B00287FF4DFAF2D1D55F8042BD9
:100AD00022F0030252F8043B18470000E10A000824
:100AE000012374683268944204D0D2183260A41A88
:100AF0007FF4CAAF08362D1D55F8042B22F00302EF
:100B000052F8043B184700000D0B000857F8043B4F
:100B1000FFF7E7BF190B000857F8040B57F8042B31
:100B200046F8042D46F8040D55F8042B22F0030274
:100B300052F8043B184700003D0B000857F8040B1F
:100B400000787F21084047F8040D55F8042B22F067
:100B5000030252F8043B18475D0B000857F8041BCA
:100B60000B4A92460B4B1C6812191078521C884293
:100B700001D00028F9D15446121B1A7047F8040D11
:100B800055F8042B22F0030252F8043B18470000EA
:100B900070FA0020080100109D0B000857F8041B94
:100BA00057F8042B10784840107055F8042B22F0A9
:100BB000030252F8043B1847BD0B00080A21884283
:100BC00005D157F8040B0D2047F8040D02E00D2164
:100BD000884203D100F06CF900F072F955F8042B4B
:100BE00022F0030252F8043B18470000F10B000802
:100BF0003868017801290FD0022914D001440A78FD
:100C0000622A1AD0252A18D0642A18D0232A16D08E
:100C1000682A16D0242A14D055F8042B22F0030297
:100C200052F8043B184782782E2AE7D155F8042B56
:100C300022F0030252F8043B1847022402E00A247F
:100C400000E0102400220A70044A146055F8042BB6
:100C500022F0030252F8043B184700000401001080
:100C6000650C000857F8040B57F8041BA0FB012083
:100C700047F8042D47F8040D55F8042B22F0030221
:100C800052F8043B184700008D0C000857F8040B7D
:100C900057F8043B57F8042B002812D093F0000FAC
:100CA0000FD10146B2FBF0F000FB112247F8042DF2
:100CB00047F8040D55F8042B22F0030252F8043BC8
:100CC00018474040401E024647F8042D47F8040DDF
:100CD00055F8042B22F0030252F8043B1847000099
:100CE000E50C0008044A176855F8042B22F00302AB
:100CF00052F8043B1847000014010010010D0008D1
:100D0000044A166855F8042B22F0030252F8043BFB
:100D100018470000180100101D0D0008044A116852
:100D20008C4655F8042B22F0030252F8043B184776
:100D300004010010390D0008044A6146116055F89D
:100D4000042B22F0030252F8043B18470401001060
:100D50000B490C480C4C0160001DA042FBD381B034
:100D600070460090094F0A4E0FF2280546F8045DC0
:100D700055F8042B22F0030252F8043B18470000F8
:100D8000111111110000002000020120680500105F
:100D900058030010BC0800087C460008602D0008BD
:100DA000B43000083C090008FB000000D82F000800
:100DB0003C090008F7000000D82F0008B4300008F4
:100DC000601900089044000808CA9F4603B502490C
:100DD0000868401C086003BD00000010E10D000819
:100DE00056F8045BBDE83F9C4649534820524D20CD
:100DF00056347468204F454D207E2041524D20537B
:100E0000544D333246343037564720444953434FCC
:100E100020403136384D687A202843293230313429
:100E20002D3230313820412D5445414D20464F520E
:100E30005448203A204A616E20203820323031391F
:100E4000002061742030383A30313A3239001500D0
:100E5000206F6B2C20676F206669736820696E2095
:100E60004241534520000000844E4F4FD0FFFFFF0A
:100E700000000000790E000855F8042B22F0030250
:100E800052F8043B1847000087455845435554C560
:100E9000680E0008990E000800F00AF800F010F83B
:100EA00057F8042B22F0030252F8043B18470000C5
:100EB0007246024C2168090AFCD3104700480040E2
:100EC0007246024913240C70104700000448004089
:100ED0007246024911240C7010470000044800407B
:100EE0008242CCFF880E000829090008200000007B
:100EF0008255D0FFE00E00082909000820010010EB
:100F00008546454E43C5FFFFF00E0008290900083D
:100F10002C0100108244D0FF000F000829090008AE
:100F20002401001084424153C5FFFFFF140F000845
:100F300029090008040100108743555252454ED438
:100F4000240F00082909000830010010855354417E
:100F500054C5FFFF380F00082909000810010010D0
:100F6000834F55D44C0F0008290900080C010010CC
:100F70008249CEFF600F000829090008080100100F
:100F8000835041C4700F00082909000810FA00209E
:100F9000835449C2800F00082909000870FA002014
:100FA00084484552C5FFFFFF900F0008E90800087C
:100FB0001C0F00087C1D0008FC08000885414C4CF3
:100FC0004FD4FFFFA00F0008E9080008A809000897
:100FD000EC1B000868280008882900089C0A000803
:100FE00008000000380300081C0F0008541D00080A
:100FF000FC08000887414C49474E45C4BC0F000817
:101000000510000857F8040BC01C0549084047F8B4
:10101000040D55F8042B22F0030252F8043B184744
:10102000FCFFFFFF85414C4947CEFFFFF40F00084E
:10103000E9080008AC0F0008F02600084028000866
:101040006C1C0008C41B0008AC0F0008140B00083F
:101050003C090008FF000000FC1A0008E81D000819
:10106000DC0A0008ECFFFFFF801B00083C090008B9
:10107000FCFFFFFFA02A00081C0F0008C41D000889
:10108000FC08000881ACFFFF24100008E9080008F4
:10109000A8090008882900089C0A00080800000028
:1010A0003803000860030008FC0800088243ACFF16
:1010B00084100008E9080008A80900088829000829
:1010C0009C0A00080800000038030008AC0F000864
:1010D000E81D0008D026000850030008FC0800089E
:1010E00088564152414C4C4FD4FFFFFFAC100008D2
:1010F000E9080008D009000800270008CC270008EC
:10110000EC1B000868280008882900089C0A0008D1
:10111000180000003C0900084B450008481700086B
:10112000842F000864180008F80E00087C1D0008D1
:10113000401C00080027000890270008F80E00084F
:10114000541D0008FC080008864C41544553D4FF48
:10115000E0100008E9080008440F00087C1D0008A2
:10116000FC080008834C46C14811000871110008B2
:1011700057F8040B083847F8040D55F8042B22F0F3
:10118000030252F8043B1847834346C16411000828
:101190009511000857F8040B001F47F8040D55F887
:1011A000042B22F0030252F8043B1847834E46C139
:1011B00088110008E90800089C0100086828000858
:1011C0000C2600086C1C0008A01D00083C09000843
:1011D000FF000000682800089C0A0008E4FFFFFFE9
:1011E0003C090008FFFFFFFF14070008FC08000887
:1011F000835046C1AC110008E9080008D026000859
:1012000014070008302600086C1C0008A01D000808
:101210003C090008FF000000682800089C0A00083C
:10122000E4FFFFFF9C01000840280008FC080008BC
:10123000883F414C49474E45C4FFFFFFF01100086D
:10124000E90800083C09000803000000A02A000883
:101250009C0A00083C000000F80300082E56414C90
:101260005545204D555354204245204556454E2066
:101270004E4F54204F444420414E44204D554C5431
:1012800049504C45204F4620342120FF6418000867
:10129000FC080008863F4552524FD2FF301200082A
:1012A000E9080008401C00089C0A00081000000023
:1012B0002C150008840A000808000000201C000803
:1012C000FC0800088544494749D4FFFF94120008F0
:1012D000D512000857F8042B57F8040B303813D4F4
:1012E000092802DDC01F0A280EDB90420CDA0246F4
:1012F000012047F8042D47F8040D55F8042B22F07F
:10130000030252F8043B1847002047F8040D55F833
:10131000042B22F0030252F8043B184787454E4342
:101320004C4F53C5C41200082D13000857F8040B86
:1013300039680022521E491E491C521C0B789842E3
:10134000FAD047F8042D002B0CD11846521C47F850
:10135000042D47F8040D55F8042B22F0030252F82F
:10136000043B1847491C521C0B78984201D0002BB3
:10137000F8D11046401C47F8042D47F8040D55F8E5
:10138000042B22F0030252F8043B1847C180FFFFF0
:101390001C1300089913000856F8045B55F8042B39
:1013A00022F0030252F8043B1847000084574F52C2
:1013B000C4FFFFFF8C130008E9080008980F00081D
:1013C000780F00087C1D000840280008401C000819
:1013D00028130008780F0008541D0008EC1B0008B3
:1013E00068280008C41B0008A41B0008AC0F0008F4
:1013F000E81D000840280008AC0F0008302600084F
:10140000A41B0008A81C0008C0260008AC0F000898
:1014100030260008801B000840280008E81D00084E
:10142000FC080008864E554D4245D2FFAC1300081B
:10143000E9080008180D0008EC0B0008C026000899
:10144000C0260008C81A00086C1C000830260008D6
:10145000A01D00083C0900082D000000902800088D
:10146000D0260008A02A00086C1C0008C41B000835
:10147000402800083C090008FFFFFFFFE82400089F
:10148000C41D0008440400086C1C0008A01D0008CE
:10149000C0260008682800089C0A000868000000B0
:1014A0006C1C0008A01D00083C0900082E0000006C
:1014B000682800089C0A0008400000006C1C000816
:1014C000A01D00083C0900082C000000902800081E
:1014D0009C0A000810000000302D0008840A000853
:1014E0009CFFFFFF340D0008D02600083C090008CF
:1014F00095450008A0120008C0260008840A0008CC
:101500007CFFFFFF201C0008801B00089C0A0008CD
:1015100008000000B8240008340D0008FC0800088A
:10152000854552524FD2FFFF24140008E9080008F5
:10153000AC0F000824170008842F00084817000883
:10154000842F0008582E0008580F00087C1D000842
:101550009C0A0008400000008C0600087C1D000862
:101560009C0A0008300000008C0600087C1D000862
:10157000F81100086C1100087C1D0008440F0008D9
:10158000C41D00088C0600087C1D00081C0F000804
:10159000C41D00087806000864180008C1A7FFFFF2
:1015A00020150008E9080008C80400085C290008A4
:1015B0003C09000885450008A0120008201C00080E
:1015C000D81E0008FC080008864558504543D4FF43
:1015D0009C150008E90800080C020008F801000842
:1015E00030260008EC1B000840280008EC1B00080F
:1015F000302600087C2E0008140B0008203000085C
:10160000B80B00086C1C00083C0900080900000029
:10161000902800089C0A00080C000000201C00080C
:10162000E80E00086C1C00089C01000890280008C7
:10163000EC1B00083C0900087F000000902800080F
:10164000C82A00089C0A000850000000201C00085E
:101650006C1C0008FC1A00080C26000890280008E2
:101660006C1C0008801B0008E026000868280008A1
:1016700040280008C41B00089C0A00081000000055
:1016800088010008840A00086C000000A40100081A
:10169000840A0008600000006C1C00083C09000877
:1016A0000D000000902800089C0A00081C000000A3
:1016B000601B0008201C0008E80E0008C026000877
:1016C000840A0008080000006C1C0008FC1A0008CE
:1016D000E81D0008D0260008780F0008541D0008F7
:1016E000C0260008FC1A000830260008E81D000883
:1016F000D82F0008DC0A000804FFFFFF582E00085E
:101700003026000848170008401C00080C26000876
:10171000E81D0008FC08000885434F554ED4FFFF24
:10172000C8150008E90800086C1C000830260008ED
:10173000401C0008A01D0008FC08000884244C453B
:10174000CEFFFFFF181700084D1700083A68404009
:10175000115C094301D0401CFAE747F8040D55F825
:10176000042B22F0030252F8043B184786464F52DE
:101770004745D4FF3C170008E9080008A4150008F5
:101780006C1C00083C09000800000208D42800086E
:101790003C090008EC440008A01200086C1C00087A
:1017A0003C09000800001008D42800083C09000883
:1017B0000B450008A01200086C1C00086C11000802
:1017C000C41B000854110008F81100086C1100082F
:1017D0006C1C00087C1D0008440F0008C41D000894
:1017E0006C1C0008782600087C1D00083C090008D5
:1017F00015090008902800089C0A00081400000041
:101800003C090008FCFFFFFFF80E0008541D00080B
:10181000A41B0008902800089C0A0008A8FFFFFFEE
:10182000801B00087C1D0008440F0008C41D000830
:10183000B41100081C0F0008C41D0008EC39000892
:10184000BC390008FC080008834259C56C17000821
:1018500055180008FFF77CBA8541424F52D4FFFF6C
:1018600048180008E9080008E00C0008FC0C000813
:101870000C0200083C0900089C44000854110008B0
:10188000F80900089C0A000810000000201C00084D
:1018900090110008940E00083C090008380100105F
:1018A0007C1D00089C0A00086C0000003C09000830
:1018B0001819000848170008842F0008583000083D
:1018C0009C0A0008F8FFFFFF203000083C090008D0
:1018D00043000000902800089C0A0008E0FFFFFF7A
:1018E000203000083C0900084F0000009028000844
:1018F0009C0A0008C8FFFFFF203000083C090008D0
:101900000D000000902800089C0A0008B0FFFFFFAF
:10191000B4300008EC050008204572726F72204850
:10192000616C74202845484F4E2F45484F46462944
:10193000202D20546F20434F6E74696E75652054BE
:1019400079706520434F207468656E20456E74651C
:10195000723A200084434F4CC4FFFFFF5818000820
:10196000E908000804070008F03A0008C406000867
:10197000EC050008900D0A464953482053797374CA
:10198000656D3A0D8AFFFFFF54190008832E53C876
:1019900074190008E90800083C090008100000005C
:1019A00020020008FC080008832E53C48C1900088C
:1019B000E90800083C0900080A00000020020008AD
:1019C000FC080008832E53C2A8190008E908000883
:1019D000E026000820020008FC080008822ED3FF41
:1019E000C4190008E9080008180300087C1D000855
:1019F0001C1B000878260008902800085C290008B5
:101A00009C0A000868000000F803000805544F53C2
:101A10003E20FFFF180300087C1D00081C1B000867
:101A200078260008140B0008FC1A00087C1D00082A
:101A3000300F00087C1D00083C0900080A00000067
:101A4000902800089C0A000810000000A40200086A
:101A5000840A000808000000BC020008E02E00080C
:101A600000270008080B0008C0FFFFFFFC08000863
:101A700084324455D0FFFFFFDC190008811A0008AA
:101A800038687A6847F8042D47F8040D55F8042B98
:101A900022F0030252F8043B18470000842D4455FD
:101AA000D0FFFFFF701A0008E90800086C1C00084E
:101AB0009C0A0008080000006C1C0008FC080008D4
:101AC00083524FD49C1A0008CD1A000857F8042BF3
:101AD00057F8041B57F8040B47F8041D47F8042D6A
:101AE00047F8040D55F8042B22F0030252F8043B8A
:101AF0001847000081C9FFFFC01A0008011B000839
:101B0000306847F8040D55F8042B22F0030252F810
:101B1000043B1847835350C0F41A0008211B0008E7
:101B2000384647F8040D55F8042B22F0030252F80A
:101B3000043B1847835250C0141B0008411B000887
:101B4000304647F8040D55F8042B22F0030252F8F2
:101B5000043B1847854C454156C5FFFF341B000820
:101B6000651B00083268726055F8042B22F00302EE
:101B700052F8043B184700008252BEFF541B000875
:101B8000851B000856F8040B47F8040D55F8042B84
:101B900022F0030252F8043B1847000081D2FFFFF5
:101BA000781B0008A91B0008306847F8040D55F899
:101BB000042B22F0030252F8043B1847823ED2FF66
:101BC0009C1B0008C91B000857F8041B46F8041D9D
:101BD00055F8042B22F0030252F8043B184700008A
:101BE000844F5645D2FFFFFFBC1B0008F11B0008C5
:101BF00057F8042B57F8040B47F8040D47F8042D49
:101C000047F8040D55F8042B22F0030252F8043B68
:101C1000184700008444524FD0FFFFFFE01B00082C
:101C2000251C00083F1D55F8042B22F0030252F832
:101C3000043B184784535741D0FFFFFF141C000892
:101C4000451C000857F8042B57F8040B47F8042DDF
:101C500047F8040D55F8042B22F0030252F8043B18
:101C600018470000834455D0341C0008711C00083C
:101C7000386847F8040D55F8042B22F0030252F897
:101C8000043B1847900D0A537461636B20537475BD
:101C900066663A0D8AFFFFFF641C000885434D4FBE
:101CA00056C5FFFF841C0008AD1C000857F8041B34
:101CB00057F8042B57F8043B002907D01878107008
:101CC000491E002902D0521C5B1CF7D155F8042B89
:101CD00022F0030252F8043B184700008446494CA6
:101CE000CCFFFFFF9C1C0008ED1C000857F8040BFC
:101CF00057F8041B57F8042B002904D08B181070D8
:101D0000521C9A42FBD155F8042B22F0030252F8E0
:101D1000043B18478545524153C5FFFFDC1C0008B2
:101D2000E9080008C0260008E81C0008FC080008B4
:101D300086424C414E4BD3FF141D0008E9080008B1
:101D4000E80E0008E81C0008FC080008822BA1FF30
:101D5000301D0008591D000857F8041B57F8040BE4
:101D60000A688018086055F8042B22F0030252F824
:101D7000043B184781C0FFFF4C1D0008811D00086F
:101D800057F8041B086847F8040D55F8042B22F097
:101D9000030252F8043B18478243C0FF741D000839
:101DA000A51D000857F8041B087847F8040D55F8DE
:101DB000042B22F0030252F8043B184781A1FFFFD5
:101DC000981D0008C91D000857F8040B57F8041B9C
:101DD000016055F8042B22F0030252F8043B184727
:101DE0008243A1FFBC1D0008ED1D000857F8040B3D
:101DF00057F8041B017055F8042B22F0030252F827
:101E0000043B18479F0D0A5265616420616E64208F
:101E10005772697465204D656D6F727920576974CA
:101E2000683A0D8AE01D000881DDFFFF041E0008EE
:101E3000E90800085C070008C0000000100100105D
:101E4000FC080008C1DBFFFF281E0008E9080008A5
:101E50005C0700080000000010010010FC080008EA
:101E6000C95B434F4D50494C45DDFFFF441E000800
:101E7000E9080008C80400085C2900083C090008BB
:101E8000AF450008A0120008201C000890110008AF
:101E90008C100008FC080008C8444C4954455241C5
:101EA000CCFFFFFF601E0008E9080008580F00087B
:101EB0007C1D00089C0A000810000000401C00085F
:101EC000D81E0008D81E0008FC080008C74C49545A
:101ED000455241CC981E0008E9080008580F000838
:101EE0007C1D00089C0A000810000000E4040008A3
:101EF0003C0900088C100008FC0800088223BEFF83
:101F0000CC1E0008E9080008201C0008201C00085E
:101F1000300300087C1D0008880F0008EC1B000837
:101F200068280008FC08000884484F4CC4FFFFFFE5
:101F3000FC1E0008E90800083C090008FFFFFFFF3D
:101F400030030008541D0008300300087C1D000801
:101F5000E81D0008FC08000884534947CEFFFFFF36
:101F6000281F0008E9080008C81A00088829000886
:101F70009C0A0008100000003C0900082D00000029
:101F8000341F0008FC0800088223D3FF581F0008F4
:101F9000E9080008BC1F0008EC1B0008EC1B000847
:101FA000C82A00085C2900089C0A0008E8FFFFFF17
:101FB000FC08000881A3FFFF881F0008E90800084B
:101FC000300F00087C1D000804050008C81A00082E
:101FD0003C09000809000000EC1B0008D428000898
:101FE0009C0A0008100000003C09000807000000DF
:101FF000402800083C090008300000004028000884
:10200000341F0008FC080008823CA3FFB41F00082E
:10201000E90800085C07000810FA002044010010DD
:10202000FC08000885444F4553BEFFFF0820000808
:10203000E9080008801B000854110008F811000886
:102040006C1C0008901100083C0900088B0900086E
:10205000401C0008C41D0008C41D0008FC0800083E
:10206000873C4255494C44D324200008E908000825
:10207000AC220008FC080008C52B4C4F4FD0FFFFD6
:1020800060200008E9080008F0260008B8030008EE
:10209000E4040008080B000864060008FC080008B7
:1020A000C44C4F4FD0FFFFFF78200008E90800081C
:1020B000F0260008B8030008E4040008DC0A000861
:1020C00064060008FC080008C244CFFFA0200008F6
:1020D000E9080008E4040008140B0008AC0F00082D
:1020E000F0260008FC080008C5454E4449C6FFFF1D
:1020F000C8200008E90800087C030008E026000862
:10210000B8030008AC0F0008EC1B000868280008A2
:10211000401C0008C41D0008FC080008C4544845C1
:10212000CEFFFFFFE8200008E9080008F4200008BF
:10213000FC080008C4454C53C5FFFFFF1C210008E4
:10214000E9080008E0260008B8030008E4040008D5
:10215000840A0008AC0F0008C02600088C10000894
:10216000401C0008E0260008F4200008E0260008D3
:10217000FC080008C249C6FF34210008E90800082D
:10218000E40400089C0A0008AC0F0008C026000800
:102190008C100008E0260008FC080008C5554E54C5
:1021A00049CCFFFF74210008E9080008D026000888
:1021B000B8030008E40400089C0A0008640600084C
:1021C000FC080008C541474149CEFFFF9C2100089B
:1021D000E9080008D0260008B8030008E404000855
:1021E000840A000864060008FC080008C65245502E
:1021F0004541D4FFC4210008E9080008C41B0008B9
:10220000C41B0008D0210008801B0008801B0008A8
:10221000E026000868280008F4200008FC080008F0
:10222000C55748494CC5FFFFEC210008E9080008E4
:102230007C21000854260008FC080008C5424547D8
:1022400049CEFFFF20220008E90800087C030008AF
:10225000AC0F0008D0260008FC080008970D0A49BA
:102260006E7369646520436F6C6F6E20574F5244E4
:10227000533A0D8A3C22000889494D4D4544494155
:1022800054C5FFFF5C220008E9080008541100084B
:102290003C09000840000000980B0008FC080008FA
:1022A000864352454154C5FF78220008E9080008DA
:1022B000A80900083C0900080F0000006828000871
:1022C000882900089C0A000808000000380300085C
:1022D000C80400089C0A000824000000201C000814
:1022E000B4110008F82E00083C0900086D450008EC
:1022F00048170008842F000864180008AC0F000875
:102300006C1C00088C060008C41D00086C1C00082A
:10231000A01D00083C0900081F000000502A00080A
:10232000500300086C1C00083C09000880000000F5
:10233000980B0008AC0F00083C0900088000000062
:10234000980B0008D02600081C0F0008541D000838
:10235000541100088C100008440F0008C41D000828
:10236000E404000829090008AC0F000878260008DA
:102370008C100008FC08000888434F4E5354414E0F
:10238000D4FFFFFFA0220008E90800089C230008F2
:10239000FC08000883434FCE78230008E9080008B2
:1023A000AC2200083C090008FCFFFFFF1C0F0008DE
:1023B000541D00088C10000878060008FC0800086E
:1023C000885641524941424CC5FFFFFF9423000803
:1023D000E9080008E4230008FC080008835641D2FD
:1023E000C0230008E9080008AC2200083C090008E6
:1023F000F8FFFFFF1C0F0008541D0008E40400084C
:1024000015090008D0260008F01000088C100008FC
:1024100078060008FC080008C1BBFFFFDC230008A9
:10242000E908000844050008E4040008FC08000866
:102430004C1E000878060008FC080008C1BAFFFF1F
:1024400018240008E90800089C030008300500086B
:10245000AC220008301E00083C090008F8FFFFFF0E
:102460001C0F0008541D0008E4040008E9080008D7
:10247000FC080008960D0A43524541544520574F29
:1024800052445320576974683A0D8AFF3C2400086F
:1024900084444142D3FFFFFF74240008E908000888
:1024A0006C1C0008AC060008FC08000887444E4578
:1024B000474154C590240008BD24000857F8040B78
:1024C00057F8042BC043D243521C47F8042D47F859
:1024D000040D55F8042B22F0030252F8043B184770
:1024E000834450CCAC2400082909000840010010A6
:1024F00083442ED2E0240008E9080008C41B000829
:10250000401C0008EC1B00089C2400081020000858
:10251000901F0008641F0008041F0008801B0008AB
:10252000EC1B000868280008A42E0008842F00086F
:10253000FC0800088244AEFFF0240008E908000807
:10254000C0260008F8240008E02E0008FC08000857
:102550008244ABFF342500085D25000857F8040BC2
:1025600057F8041B57F8043B57F8042B52185841EE
:1025700047F8042D47F8040D55F8042B22F0030208
:1025800052F8043B1847000084532D3EC4FFFFFF60
:10259000502500089925000857F8042B40401243A5
:1025A00000D5401E47F8042D47F8040D55F8042BBC
:1025B00022F0030252F8043B184700008232AAFFBF
:1025C00088250008C925000857F8040B400047F883
:1025D000040D55F8042B22F0030252F8043B18476F
:1025E0008232AFFFBC250008ED25000857F8040B28
:1025F000401047F8040D55F8042B22F0030252F85E
:10260000043B18478231ADFFE02500081126000881
:1026100057F8040B401E47F8040D55F8042B22F020
:10262000030252F8043B18478231ABFF042600082E
:102630003526000857F8040B401C47F8040D55F8E0
:10264000042B22F0030252F8043B18478232ABFFFE
:10265000282600085926000857F8040B801C47F864
:10266000040D55F8042B22F0030252F8043B1847DE
:102670008234ABFF4C2600087D26000857F8040B77
:10268000001D47F8040D55F8042B22F0030252F800
:10269000043B18478234ADFF70260008A1260008CD
:1026A00057F8040B001F47F8040D55F8042B22F0CF
:1026B000030252F8043B184781B0FFFF942600083C
:1026C000290900080000000081B1FFFFB8260008BA
:1026D000290900080100000081B2FFFFC826000898
:1026E000290900080200000081B3FFFFD826000876
:1026F000290900080300000081B4FFFFE826000854
:102700002909000804000000824DAAFFF8260008ED
:10271000E90800087C1A0008142B0008C41B0008F4
:10272000382A0008401C0008382A0008600C0008FD
:10273000801B0008AC060008FC080008824DAFFFB3
:1027400008270008E9080008EC1B0008C41B000863
:10275000C41B00089C240008A41B0008382A000899
:10276000880C0008801B0008A41B0008142B00081C
:1027700094060008401C0008801B0008940600080E
:10278000401C0008FC08000881AAFFFF3C27000845
:10279000E908000810270008201C0008FC080008B1
:1027A000842F4D4FC4FFFFFF88270008E908000869
:1027B000C41B000894250008801B0008442700085B
:1027C000FC08000881AFFFFFA0270008E908000807
:1027D000AC270008401C0008201C0008FC0800086A
:1027E000834D4FC4C4270008E9080008AC2700083F
:1027F000201C0008FC080008852A2F4D4FC4FFFF4D
:10280000E0270008E9080008C41B0008102700089A
:10281000801B000844270008FC080008822AAFFF3C
:10282000F8270008E908000804280008401C0008F0
:10283000201C0008FC08000881ABFFFF1C280008D2
:102840004528000857F8040B57F8041B401847F8B0
:10285000040D55F8042B22F0030252F8043B1847EC
:1028600081ADFFFF382800086D28000857F8040BD9
:1028700057F8041B081A47F8040D55F8042B22F0EA
:10288000030252F8043B184781BDFFFF602800088F
:1028900095280008404057F8040B57F8041B401ACD
:1028A00009D0404047F8040D55F8042B22F00302EC
:1028B00052F8043B1847013847F8040D55F8042B2B
:1028C00022F0030252F8043B1847000081BCFFFFCE
:1028D00088280008D92800084040013857F8041B10
:1028E00057F8042B914200DC404047F8040D55F89E
:1028F000042B22F0030252F8043B18478255BCFF18
:10290000CC280008E90800087C1A0008142B0008ED
:10291000882900089C0A000818000000201C0008F4
:10292000882900085C290008840A00080C000000BF
:102930006828000888290008FC08000881BEFFFFFD
:10294000FC280008E9080008401C0008D4280008FA
:10295000FC0800088230BDFF3C29000861290008FE
:10296000404057F8041B002900D1401E47F8040DD1
:1029700055F8042B22F0030252F8043B18470000DC
:102980008230BCFF542900088D29000857F8041B29
:1029900040400138094300D4404047F8040D55F841
:1029A000042B22F0030252F8043B1847834249CE1D
:1029B00080290008E90800085C0700080200000000
:1029C00004010010FC080008834845D8AC29000821
:1029D000E90800085C07000810000000040100106E
:1029E000FC08000887444543494D41CCC8290008EC
:1029F000E90800085C0700080A0000000401001054
:102A0000FC080008864E45474154C5FFE4290008EC
:102A1000152A000857F8040BC043401C47F8040D62
:102A200055F8042B22F0030252F8043B184700002B
:102A3000834142D3042A0008E90800086C1C0008FE
:102A400094060008FC080008834D49CE302A00088F
:102A5000E90800087C1A0008442900089C0A0008BC
:102A600008000000401C0008201C0008FC080008AA
:102A7000834D41D8482A0008E90800087C1A00085C
:102A8000D42800089C0A000808000000401C000828
:102A9000201C0008FC08000883414EC4702A00086E
:102AA000A52A000857F8040B57F8041B084047F8FC
:102AB000040D55F8042B22F0030252F8043B18478A
:102AC000824FD2FF982A0008CD2A000857F8040B3D
:102AD00057F8041B084347F8040D55F8042B22F05F
:102AE000030252F8043B1847834E4FD4C02A000813
:102AF000F52A000857F8040BC04347F8040D55F8B1
:102B0000042B22F0030252F8043B184783584FD29B
:102B1000E82A0008192B000857F8040B57F8041B83
:102B2000484047F8040D55F8042B22F0030252F8F0
:102B3000043B184784535854C8FFFFFF0C2B000870
:102B4000452B000857F8040B00B247F8040D55F860
:102B5000042B22F0030252F8043B184784535854C4
:102B6000C2FFFFFF342B00086D2B000857F8040B41
:102B700040B247F8040D55F8042B22F0030252F836
:102B8000043B184784524556D7FFFFFF5C2B0008D3
:102B9000952B000857F8040B00BA47F8040D55F8B8
:102BA000042B22F0030252F8043B1847834153D20E
:102BB000842B0008B92B000857F8042B57F8040B96
:102BC000104147F8040D55F8042B22F0030252F887
:102BD000043B1847834C53D2AC2B0008E12B000870
:102BE00057F8042B57F8040BD04047F8040D55F85C
:102BF000042B22F0030252F8043B1847834C53CCB9
:102C0000D42B0008092C000857F8042B57F8040BA4
:102C1000904047F8040D55F8042B22F0030252F8B7
:102C2000043B1847822ED2FFFC2B0008E90800085D
:102C3000C41B000894250008801B0008F824000825
:102C4000FC080008832E52D5242C0008E90800084F
:102C5000C41B0008C026000810200008901F0008B0
:102C6000041F00086C1C0008801B0008401C0008A2
:102C700068280008A42E0008842F0008FC0800081B
:102C80008255AEFF442C0008E9080008C026000861
:102C90003C250008FC08000881BFFFFF802C0008CD
:102CA000E90800087C1D0008B82C0008FC08000892
:102CB00081AEFFFF982C0008E90800089425000861
:102CC0003C250008FC080008822EC2FFB02C00083A
:102CD000E9080008E0260008D4020008FC08000803
:102CE000822EC8FFC82C0008E90800083C0900082B
:102CF00010000000D4020008FC080008822EC4FF67
:102D0000E02C0008E90800083C0900080A0000005F
:102D1000D4020008FC080008834F46C6FC2C0008BB
:102D20002909000800000000824FCEFF182D00087E
:102D300029090008FFFFFFFF910D0A4E554D42453E
:102D4000522053747566663A0D8AFFFF282D0008DD
:102D50008A55415254335F494E49D4FF382D0008FB
:102D6000E90800083C090008000201207C1D000859
:102D70005C2900089C0A00081C0000003C090008AF
:102D8000040201207C1D0008C41B0008840A0008FE
:102D9000100000003C09000800C20100C41B00082C
:102DA0003C09000880DE8002801B0008CC27000858
:102DB0003C09000808480040C41D0008FC08000841
:102DC000864D59424155C4FF502D0008E9080008BE
:102DD0005C07000800000000000201203C09000818
:102DE00004020120C41D0008FC0800088955415256
:102DF00054335F4C53D2FFFFC02D0008012E000852
:102E00000549087847F8040D55F8042B22F0030211
:102E100052F8043B184700000048004088554152D2
:102E200054335F52D8FFFFFFEC2D0008290900083A
:102E3000044800408855415254335F54D8FFFFFF87
:102E40001C2E0008290900080448004084584F46F9
:102E5000C6FFFFFF342E00085D2E0008FEF728F89D
:102E6000FEF72EF855F8042B22F0030252F8043B2B
:102E70001847000083584FCE4C2E0008812E0008C2
:102E8000FEF716F8FEF724F855F8042B22F003029B
:102E900052F8043B18470000865350414345D3FF86
:102EA000742E0008E9080008C0260008782A0008E7
:102EB000A81A00089C0A000818000000C026000894
:102EC000140B0008E02E0008DC0A0008F8FFFFFFE2
:102ED000FC0800088553504143C5FFFF982E0008A9
:102EE000E9080008E80E0008D82F0008FC080008D0
:102EF000834944AED42E0008E908000824170008CE
:102F00003C0900081F000000A02A0008842F0008C8
:102F1000E02E0008FC080008C22EA2FFF02E0008D8
:102F2000E90800083C09000822000000580F0008CA
:102F30007C1D00089C0A00082C000000E404000826
:102F4000F8030008B8130008AC0F0008A01D000823
:102F5000302600080010000850030008840A00080A
:102F600014000000B8130008AC0F00082417000874
:102F7000842F0008FC08000884545950C5FFFFFF47
:102F8000182F0008E9080008A81A00089C0A000881
:102F900034000000582E0008EC1B000840280008F0
:102FA000401C0008140B0008FC1A0008380B00082D
:102FB000D82F0008DC0A0008F0FFFFFF840A000891
:102FC00008000000201C0008FC08000884454D494A
:102FD000D4FFFFFF782F0008DD2F000857F8040BFF
:102FE000FDF766FF0649087006490868401C08603E
:102FF00055F8042B22F0030252F8043B1847000056
:10300000044800400C010010834B45D9CC2F000828
:10301000E90800087C2E000820300008FC080008A1
:1030200025300008074A084B19688909FCD3106845
:1030300047F8040D55F8042B22F0030252F8043B24
:10304000184700000448004000480040843F4B45BA
:10305000D9FFFFFF083000085D300008FDF728FFAA
:10306000FDF736FF4040074B1968890900D3013846
:1030700047F8040D55F8042B22F0030252F8043BE4
:103080001847000000480040834352D34C300008EA
:10309000E9080008C0260008140B0008B430000836
:1030A000DC0A0008F8FFFFFFFC0800088243D2FF9B
:1030B00088300008E90800080C020008F80300083E
:1030C000020D0AFFFC0800088C0D0A4649534820EF
:1030D000494F3A0D8AFFFFFFAC3000088B4952512F
:1030E000535F524553554DC5C8300008F1300008B4
:1030F00001F086FC55F8042B22F0030252F8043B41
:10310000184700008C495251535F53555350454E58
:10311000C4FFFFFFDC3000081D31000801F06EFC29
:1031200055F8042B22F0030252F8043B1847000024
:103130008F5359535449434B5F4952515F4F46C6D1
:10314000043100084931000804490520086055F899
:10315000042B22F0030252F8043B184710E000E071
:103160008E5359535449434B5F4952515F4FCEFFE1
:10317000303100087931000804490720086055F80B
:10318000042B22F0030252F8043B184710E000E041
:103190008F0D0A494E54455252555054533A0D8A98
:1031A000603100088A464C4153485F534156C5FF81
:1031B00090310008E908000854110008CC3A0008D2
:1031C000D42800089C0A000820000000B430000841
:1031D000F80300080F4E4F5448494E4720544F20E3
:1031E00053415645FC080008B43200087C1D000815
:1031F0003C09000800001008902800089C0A0008FC
:1032000028000000B4300008F8030008144C4153B3
:103210005420464C41534820415641494C20555377
:103220004544FFFFFC08000830100008F80E0008B5
:103230007C1D0008C4320008C41D00085411000899
:10324000CC320008BC320008C41D0008541100082C
:10325000CC3A0008902800089C0A000848000000AA
:1032600068370008CC3A00081C0F0008C41D00088D
:10327000C43200087C1D0008F80E0008C41D0008B8
:10328000BC3200087C1D0008440F0008C41D000863
:1032900078340008B4300008EC390008BC39000864
:1032A000FC08000854110008F8320008840A0008DD
:1032B0009CFFFFFF290900080400002029090008DD
:1032C00008000020290900080C000020D132000865
:1032D00057F8040B064A1040064A1268801847F84F
:1032E000040D55F8042B22F0030252F8043B184752
:1032F000FFFF0F0004000020E9080008F811000893
:103300006C1C0008C41B0008901100086C1C00080D
:103310007C1D00083C0900088B0900089028000863
:103320009C0A000828000000782600086C1C000891
:103330006C1C00087C1D0008CC320008401C0008F2
:10334000C41D0008840A0008000100006C1C00086D
:103350007C1D00083C090008290900089028000885
:10336000EC1B00087C1D00083C090008150900083A
:1033700090280008C82A00089C0A000810000000D5
:10338000201C0008840A0008C400000078260008F9
:103390006C1C00087C1D00083C0900083C09000862
:1033A000902800089C0A00081000000078260008F9
:1033B000840A0008D8FFFFFF6C1C00087C1D000871
:1033C0003C090008F8030008902800089C0A00083F
:1033D000200000006C1C000878260008A01D0008D2
:1033E0004028000800100008840A0008A0FFFFFF22
:1033F0006C1C00087C1D00083C090008FC08000843
:10340000902800085C2900089C0A00083C00000085
:103410006C1C00087C1D0008CC3A000844290008F8
:103420009C0A000868FFFFFF6C1C00086C1C000869
:103430007C1D0008CC320008401C0008C41D000898
:10344000840A000848FFFFFF201C0008801B0008BA
:103450006C1100086C1C00087C1D00086C1C000826
:10346000440F0008C41D0008CC320008401C0008AE
:10347000C41D0008FC080008E90800083C09000811
:10348000000002086C1C00083C0900080400002031
:10349000C41D00086C1C0008C41B00087C1D00082B
:1034A000B43B0008682800089C0A000810000000CF
:1034B000801B0008201C0008FC080008A41B000852
:1034C000B4320008C41D0008A41B00083C09000811
:1034D00008000000402800086C1C00087C1D000843
:1034E000440F0008C41D0008782600087C1D000851
:1034F000F80E0008C41D0008B4300008F8030008E6
:1035000017414444454420574F5244532046524F9C
:103510004D204144445220FFA41B0008E82C000821
:10352000801B0008782600087C1D0008840A00081B
:1035300054FFFFFFE90800086C1C00084028000841
:10354000C41B00086C1C00087C1D00083026000805
:103550009C0A000838000000B4300008F803000896
:10356000174552415345442042414420464C415363
:103570004820504147452020E82C0008201C000826
:10358000801B0008201C0008FC08000878260008A2
:103590006C1C00086C1C0008A41B0008401C0008E0
:1035A000682800089C0A00080C000000840A000833
:1035B00098FFFFFFB4300008F80300080E464C41A6
:1035C00053482050414745204F4B20FF68280008B2
:1035D000E82C0008801B0008201C0008FC080008DC
:1035E0008C464C4153485F464F524745D4FFFFFF3E
:1035F000A4310008E9080008F80300081754414BFB
:1036000045532041424F55542036205345434F4E99
:103610004453212018310008EC380008CC38000849
:103620005C0700082A020100103C0240CC38000868
:103630005C07000832020100103C0240CC38000850
:103640005C0700083A020100103C0240CC38000838
:103650005C07000842020100103C0240CC38000820
:103660005C0700084A020100103C0240CC38000808
:103670005C07000852020100103C0240CC380008F0
:103680005C0700085A020100103C0240CC380008D8
:103690000C390008EC300008E03A0008541100082A
:1036A000442900089C0A000810000000543E00084D
:1036B000840A00081C0000003C0900087C44000843
:1036C000CC3A0008F81100086C110008C41D00086D
:1036D0005C07000800000208040000203C09000804
:1036E000111111116C1C0008BC320008C41D000827
:1036F000C4320008C41D000878340008B430000843
:10370000EC390008BC390008FC0800081137000833
:1037100057F8040B57F8041B064A50F8044B42F8BC
:10372000044B8842F9D155F8042B22F0030252F8D9
:10373000043B1847D4FE00203C090008D4FE0020BA
:10374000940E0008FC080008E90800083C0900087D
:10375000203900083C090008743800080C370008BC
:1037600038370008FC080008E9080008183100088C
:10377000EC380008CC3800085C07000801020000A3
:10378000103C0240B43200087C1D0008C41B000835
:103790003C09000810000000B4320008541D000865
:1037A000AC0F0008C41B0008CC3A00086C1C0008D1
:1037B0007C1D0008B43200087C1D0008C41D0008F0
:1037C000CC38000800270008B4320008541D000857
:1037D000782600086C1C0008A41B00086828000854
:1037E0009C0A00080C000000840A0008C0FFFFFFCC
:1037F000801B0008201C0008201C00083C09000851
:10380000000000207C1D0008A41B0008C41D000847
:10381000CC380008B43200087C1D0008A41B000846
:1038200078260008C41D0008CC380008BC32000807
:103830007C1D0008A41B00089C010008402800080B
:10384000C41D0008CC380008C43200087C1D0008E4
:10385000801B00083C0900080C00000040280008FC
:10386000C41D0008CC3800080C390008EC300008F2
:10387000FC080008E9080008F435000818310008C1
:10388000EC380008CC3800085C0700080102000092
:10389000103C02405C070008000002080400002001
:1038A0003C090008100000001C0F0008541D00080F
:1038B000740E000868370008740E0008F43500081C
:1038C0000C390008EC300008FC080008D13800086A
:1038D000054908680004FCD255F8042B22F00302C5
:1038E00052F8043B184700000C3C0240E90800086D
:1038F0005C07000823016745043C02405C070008A0
:10390000AB89EFCD043C0240FC080008E908000840
:103910005C07000800000080103C0240FC08000822
:1039200084504F46C6FFFFFFE0350008E908000855
:103930005C0700080000000034010010FC080008CB
:1039400083504FCE20390008E90800085C070008C2
:10395000500E000834010010FC08000881D0FFFF61
:103960004039000829090008340100108545484FF6
:1039700046C6FFFF5C390008E9080008C0260008B9
:103980003C09000838010010C41D0008FC080008AC
:103990008445484FCEFFFFFF6C390008E908000856
:1039A000D02600083C09000838010010C41D00089A
:1039B000FC080008832E44D390390008E908000869
:1039C000A8090008180D0008042D0008340D00088F
:1039D0003C090008B844000848170008842F000874
:1039E000FC080008832E56D3B4390008E908000803
:1039F000D0090008180D000800270008CC2700088F
:103A0000042D0008340D00083C090008AD440008EE
:103A100048170008842F0008FC0800088444554D0E
:103A2000D0FFFFFFE4390008E9080008EC1B00089C
:103A300040120008180D0008D0290008C026000810
:103A4000140B0008B43000086C1C00083C09000886
:103A50000A0000004C2C000800270008C0260008BF
:103A6000140B00086C1C00087C1D00083C090008B1
:103A70000E0000004C2C000878260008DC0A000824
:103A8000E4FFFFFF583000089C0A0008080000000F
:103A9000601B0008DC0A0008ACFFFFFF201C0008C8
:103AA000B4300008340D0008FC0800088556424177
:103AB00053C5FFFF1C3A0008290900080400001044
:103AC0008544424153C5FFFFAC3A0008290900086C
:103AD000100000208552424153C5FFFFC03A000844
:103AE000290900080000002083434CD3D43A000881
:103AF000E9080008F8030008041B5B324AFFFFFFD7
:103B0000F8030008041B5B3B48FFFFFFB4300008CC
:103B1000FC080008C1A8FFFFE83A0008E90800080F
:103B20003C09000829000000580B00085C29000827
:103B30009C0A000834000000B43000083C0900086A
:103B400010000000D82F0008200400083C090008DD
:103B500071FA0020A01D00089C0A00081000000057
:103B6000840A0008BCFFFFFFFC0800083C090008AD
:103B7000CA44000848170008842F0008FC08000801
:103B8000C1DCFFFF143B0008E9080008C02600085C
:103B9000980F0008780F00087C1D000840280008D6
:103BA000E81D0008FC08000886535953434CCBFF1E
:103BB000803B0008B93B00080549086847F8040D38
:103BC00055F8042B22F0030252F8043B184700007A
:103BD000000000208553544354D2FFFFA83B000847
:103BE00029090008000000108544454C41D9FFFF19
:103BF000D43B0008F93B000857F8041B57F8040BA6
:103C00000C4CC043401C20600B4A11600B4A1160F1
:103C1000002806D00A4A106807211160216800298F
:103C2000FCD1106055F8042B22F0030252F8043B3B
:103C3000184700000000001014E000E018E000E069
:103C400010E000E0824DD3FFE83B0008E9080008DF
:103C50003C0900083F900200F43B0008FC08000803
:103C600087574F52444341D4443C0008E9080008B8
:103C7000AC0F0008C41B0008C0260008B4100008E0
:103C80003C0900080D000000B4100008AC0F00084B
:103C90003C0900080D000000B81300086C1C000867
:103CA000A01D00083C0900080A000000C81A00080E
:103CB000E81D00086C1C000830260008C80F00082A
:103CC0003C0900088400000040280008A41B0008EC
:103CD000E81D00083C0900080D000000B4100008B1
:103CE0003C0900088A000000B410000830100008E9
:103CF000541100088C100008801B00083C090008C3
:103D000030010010C41D0008FC08000885574F5200
:103D100044D3FFFF603C0008E9080008F0260008D3
:103D2000A42E000854110008582E0008C0260008D0
:103D3000EC1B000830260008A01D00083C09000804
:103D40000D000000902800085C2900089C0A00086B
:103D50001C000000201C00086C1C0008F811000862
:103D60006C110008EC1B000868280008680F0008A8
:103D70007C1D0008402800083C0900084A0000009B
:103D8000442900089C0A000810000000B430000814
:103D9000F0260008A42E00086C1C00080C0F000878
:103DA0007C1D0008D42800089C0A00080C000000B4
:103DB000840A0008540000006C1C0008F82E00085B
:103DC000E0260008A42E00086C1C0008302600081D
:103DD000A01D00083C0900080D0000009028000804
:103DE0009C0A0008080000000C020008F8110008F6
:103DF0006C1100087C1D00086C1C00085C29000880
:103E00009C0A000828FFFFFF201C0008B4300008AF
:103E1000FC080008874D59574F5244D30C3D000809
:103E2000E90800085C070008000002082C010010E7
:103E3000183D00085C070008000000002C0100107D
:103E4000FC08000889464953485F4F4E4CD9FFFF94
:103E5000143E0008593E000809490A4C21600A4CEA
:103E600021600A490A4C21600A4C21600A490B4C26
:103E7000216055F8042B22F0030252F8043B184746
:103E80007C440008300100100800002004000010ED
:103E9000200100100C000020100000202401001060
:103EA00084464953C8FFFFFF443E0008E908000864
:103EB00078340008C4060008FC080008990D0A467A
:103EC000495348205265666572656E6365204D6F83
:103ED00064656C3A0D8AFFFFA03E0008894750498F
:103EE0004F432D4F44D2FFFFBC3E00082909000874
:103EF00014080240894750494F432D4944D2FFFFDF
:103F0000DC3E000829090008100802408B47504990
:103F10004F432D4D4F4445D2F43E00082909000877
:103F200000080240894750494F422D4F44D2FFFFBD
:103F30000C3F000829090008140402408947504931
:103F40004F422D4944D2FFFF243F000829090008B1
:103F5000100402408B4750494F422D4D4F4445D2EB
:103F60003C3F0008290900080004024086534545EB
:103F70004249D4FF543F0008E9080008C41B000868
:103F8000D0260008401C0008042C0008801B0008F4
:103F90007C1D0008A02A00089C0A000810000000F0
:103FA000F8030008024F4EFFFC080008F803000861
:103FB000034F4646FC080008865345544249D4FF47
:103FC0006C3F0008C93F000857F8042B57F8041B42
:103FD00010684FF001038B401843106055F8042B14
:103FE00022F0030252F8043B1847000086434C526B
:103FF0004249D4FFB83F0008FD3F000857F8042BA2
:1040000057F8041B10684FF001038B4020EA0300AF
:10401000106055F8042B22F0030252F8043B1847B5
:1040200087414E44424954D3EC3F000831400008D8
:1040300057F8042B57F8041B08681040086055F81F
:10404000042B22F0030252F8043B184787534554CF
:10405000424954D3204000085D40000857F8042B23
:1040600057F8041B08681043086055F8042B22F029
:10407000030252F8043B184787434C52424954D339
:104080004C4000088940000857F8042B57F8041BDF
:1040900008689043086055F8042B22F0030252F898
:1040A000043B1847834753B078400008E9080008EC
:1040B0009C0A00081C0000003C09000800000000E9
:1040C0003C09000814080240C43F0008FC0800082E
:1040D0003C090008000000003C09000814080240E8
:1040E000F83F0008FC080008834753B1A4400008CB
:1040F000E90800089C0A00081C0000003C090008B0
:10410000010000003C09000814080240C43F0008F8
:10411000FC0800083C090008010000003C090008F8
:1041200014080240F83F0008FC080008834753B217
:10413000E8400008E90800089C0A00081C0000008C
:104140003C090008020000003C0900081408024075
:10415000C43F0008FC0800083C09000802000000F9
:104160003C09000814080240F83F0008FC08000859
:10417000835357B42C410008E90800089C0A000842
:104180001C0000003C090008090000003C09000870
:1041900014080240C43F0008FC0800083C0900085D
:1041A000090000003C09000814080240F83F00081C
:1041B000FC080008835357B370410008E908000861
:1041C0009C0A00081C0000003C09000808000000D0
:1041D0003C09000814080240C43F0008FC0800081D
:1041E0003C090008080000003C09000814080240CF
:1041F000F83F0008FC080008835357B2B441000898
:10420000E90800089C0A00081C0000003C0900089E
:10421000070000003C09000814080240C43F0008E1
:10422000FC0800083C090008070000003C090008E1
:1042300014080240F83F0008FC080008835357B1F7
:10424000F8410008E90800089C0A00081C0000006A
:104250003C090008060000003C0900081408024060
:10426000C43F0008FC0800083C09000806000000E4
:104270003C09000814080240F83F0008FC08000848
:104280008643532D4441C3FF3C420008E90800081F
:104290009C0A0008440000003C0900081404024085
:1042A0003C09000800400000584000083C09000894
:1042B000140402403C09000800200000844000086B
:1042C0003C090008140402403C09000800100000EA
:1042D00058400008FC0800083C090008140402408B
:1042E0003C0900080020000058400008FC080008B5
:1042F0008543532D42D4FFFF80420008E90800089F
:104300009C0A0008440000003C0900081404024014
:104310003C09000800400000844000083C090008F7
:10432000140402403C090008002000005840000826
:104330003C090008140402403C0900080010000079
:1043400058400008FC0800083C090008140402401A
:104350003C0900080040000058400008FC08000824
:104360008643532D4144C3FFF0420008E90800088A
:104370009C0A0008440000003C09000814040240A4
:104380003C09000800400000584000083C090008B3
:10439000140402403C0900080020000058400008B6
:1043A0003C090008140402403C0900080010000009
:1043B00084400008FC0800083C090008140402407E
:1043C0003C0900080010000058400008FC080008E4
:1043D00087444143574F52C46043000829090008ED
:1043E000D0FE0020853F545255C5FFFFD043000842
:1043F000F543000857F8040B00280AD04040401E3F
:1044000047F8040D55F8042B22F0030252F8043B40
:10441000184747F8040D55F8042B22F0030252F810
:10442000043B18478544414357D4FFFFE443000849
:10443000E9080008302D00088C4200083C090008FB
:10444000770000003C0900080C3C0040E81D000813
:104450003C090008770000003C0900080C3C0040C3
:10446000E81D00083C090008770000003C0900082E
:104470000C3C0040E81D0008FC0800088F0D0A50A5
:1044800053544154204750494F3A0D8A2444000860
:1044900095440008009801B0874600000352554E2D
:1044A0002000203F2000203C43523E200056415235
:1044B0002043454C4C53200044494354494F4E41FE
:1044C0005259204259544553200020434F4D4D45E9
:1044D0004E54204C494E452043414E4E4F542042AD
:1044E0004520454D505459200D0A15002043414E9A
:1044F0005420464F52474554204649534820494E80
:1045000020464C415348200D0A150020494E2046B4
:104510004C415348202D2053454520464C4153489B
:104520005F464F52474554200D0A15002044494329
:1045300054494F4E4152592046554C4C202D205342
:104540004545202E4453200D0A15002052414D2090
:104550005641522053504143452046554C4C202D46
:1045600020534545202E5653200D0A15002049534F
:1045700020414C524541445920444546494E45440A
:10458000200D0A1500203F204E4F5420574F524413
:10459000200D0A1500203F204E4F5420574F524403
:1045A000204F52204E554D424552200D0A150020F5
:1045B000434155534544204120535441434B2045EA
:1045C00052524F52200D0A150020535441434B20A4
:1045D0004552524F52205748494C45204558454373
:1045E0005554494E47204F5220434F4D50494C4956
:1045F0004E47200D0A1500204552524F52202D20C3
:104600004E4F5420434F4D50494C494E47200D0AC0
:104610001500204552524F52202D204558454355F4
:10462000544544205748494C4520434F4D50494C30
:10463000494E47200D0A1500E90800085C070008EC
:1046400005070000003C0240FC0800085146000835
:1046500040F20004C2F201044FF000034FF0800C5E
:1046600053F8042B44F8042BBCF1010CF8D155F895
:10467000042B22F0030252F8043B1847E908000813
:104680004C4600085C0700080000012008ED00E02F
:10469000740700080038024090070008010000007D
:1046A000D0070008003802405C0700080000000046
:1046B000083802407407000800380240B0070008BC
:1046C000FFFFF6FED0070008003802405C07000834
:1046D00010300024043802407407000800380240FB
:1046E000B0070008FFFFFBFFD007000800380240BA
:1046F0005C070008000000000C3802407407000846
:10470000003802409007000800000100D0070008B0
:10471000003802404C0800087407000800380240C6
:10472000B0070008000002006408000874070008D1
:10473000403802409007000800000010D007000831
:1047400040380240740700080070004090070008DD
:1047500000400000D0070008007000403C0900083D
:10476000083802403C0900080000000058400008DA
:104770003C090008083802403C090008008000009D
:10478000584000083C090008083802403C0900086D
:1047900000140000584000085C0700080854400757
:1047A00004380240740700080038024090070008EF
:1047B00000000001D0070008003802404C08000843
:1047C0007407000800380240B0070008000000022B
:1047D00064080008384600087407000808380240DA
:1047E000B0070008FCFFFFFFD007000808380240B0
:1047F0007407000808380240900700080200000013
:10480000D0070008083802404C0800087407000868
:1048100008380240B00700080C0000003C090008FE
:104820000800000090280008640800085C070008E1
:1048300000300050843802407407000800380240FD
:104840009007000800000004D0070008003802406C
:104850004C0800087407000800380240B007000840
:1048600000000008640800085C070008007A030ADA
:10487000000000203C090008303802403C090008D4
:1048800087000000584000083C09000840380240FA
:104890003C09000800000400584000085C070008BC
:1048A00000770000240802401C08000800080240AD
:1048B0000300F0000100A0005C0700080C200000CD
:1048C0000C4800405C0700080700000010E000E012
:1048D0003C090008303802403C0900080200000092
:1048E000584000083C090008403802403C090008D4
:1048F00000800410584000083C09000800040240F1
:104900003C090008850A0055584000083C09000889
:10491000200402403C09000800606600584000087E
:104920003C090008003C00403C0900082503000049
:10493000584000083C090008003C00403C090008C1
:1049400040000000584000083C09000808040240EC
:104950003C090008C00F0000584000083C0900084E
:10496000800400003C0900080C040240C41D00083B
:104970003C090008140402403C09000803700000D0
:10498000584000083C090008000802403C090008A3
:1049900015540500584000083C090008080802406A
:1049A0003C0900080000F000584000083C090008DD
:1049B0000C0802403C090008000050005840000864
:1049C0003C090008140802403C090008C00300002C
:1049D00058400008FC080008BFF34F8F05480168E5
:1049E00011F4E0610448014302480160BFF34F8FB6
:1049F000FEE700000CED00E00400FA0572B6704717
:104A000062B6704780B5FFF7E7FF01BDFCF7A0B9BC
:104A1000FFF7FEBFFFF7FEBFFFF7FEBFFFF7FEBFCA
:104A2000FFF7FEBFFFF7FEBFFFF7FEBFFCF7CEB9F3
:104A3000FFF7FEBFFFF7FEBFFFF7FEBFFFF7FEBFAA
:104A4000FFF7FEBFFFF7FEBFFFF7FEBFFFF7FEBF9A
:104A5000FFF7FEBFFFF7FEBFFFF7FEBFFFF7FEBF8A
:104A6000FFF7FEBFFFF7FEBFFFF7FEBFFFF7FEBF7A
:104A7000FFF7FEBFFFF7FEBFFFF7FEBFFFF7FEBF6A
:104A8000FFF7FEBFFFF7FEBFFFF7FEBFFFF7FEBF5A
:104A9000FFF7FEBFFFF7FEBFFFF7FEBFFFF7FEBF4A
:104AA000FFF7FEBFFFF7FEBFFFF7FEBFFFF7FEBF3A
:104AB000FFF7FEBFFFF7FEBFFFF7FEBFFFF7FEBF2A
:104AC000FFF7FEBFFFF7FEBFFFF7FEBFFFF7FEBF1A
:104AD000FFF7FEBFFFF7FEBFFFF7FEBFFFF7FEBF0A
:104AE000FFF7FEBFFFF7FEBFFFF7FEBFFFF7FEBFFA
:104AF000FFF7FEBFFFF7FEBFFFF7FEBFFFF7FEBFEA
:104B0000FFF7FEBFFFF7FEBFFFF7FEBFFFF7FEBFD9
:104B1000FFF7FEBFFFF7FEBFFFF7FEBFFFF7FEBFC9
:104B2000FFF7FEBFFFF7FEBFFFF7FEBFFFF7FEBFB9
:104B3000FFF7FEBFFFF7FEBFFFF7FEBFFFF7FEBFA9
:104B4000FFF7FEBFFFF7FEBFFFF7FEBFFFF7FEBF99
:104B5000FFF7FEBFFFF7FEBFFFF7FEBFFFF7FEBF89
:104B6000FFF7FEBFFFF7FEBFFFF7FEBFFFF7FEBF79
:084B7000FFF7FEBFFFF7FEBFD7
:0400000500000000F7
:00000001FF
